ARM GAS  /tmp/ccBA2iOh.s 			page 1


   1              		.cpu cortex-m0plus
   2              		.eabi_attribute 20, 1
   3              		.eabi_attribute 21, 1
   4              		.eabi_attribute 23, 3
   5              		.eabi_attribute 24, 1
   6              		.eabi_attribute 25, 1
   7              		.eabi_attribute 26, 1
   8              		.eabi_attribute 30, 6
   9              		.eabi_attribute 34, 0
  10              		.eabi_attribute 18, 4
  11              		.file	"stm32l0xx_hal_flash_ex.c"
  12              		.text
  13              	.Ltext0:
  14              		.cfi_sections	.debug_frame
  15              		.section	.text.HAL_FLASHEx_Erase,"ax",%progbits
  16              		.align	1
  17              		.global	HAL_FLASHEx_Erase
  18              		.syntax unified
  19              		.code	16
  20              		.thumb_func
  21              		.fpu softvfp
  23              	HAL_FLASHEx_Erase:
  24              	.LFB34:
  25              		.file 1 "Drivers/STM32L0xx_HAL_Driver/Src/stm32l0xx_hal_flash_ex.c"
   1:Drivers/STM32L0xx_HAL_Driver/Src/stm32l0xx_hal_flash_ex.c **** /**
   2:Drivers/STM32L0xx_HAL_Driver/Src/stm32l0xx_hal_flash_ex.c ****   ******************************************************************************
   3:Drivers/STM32L0xx_HAL_Driver/Src/stm32l0xx_hal_flash_ex.c ****   * @file    stm32l0xx_hal_flash_ex.c
   4:Drivers/STM32L0xx_HAL_Driver/Src/stm32l0xx_hal_flash_ex.c ****   * @author  MCD Application Team
   5:Drivers/STM32L0xx_HAL_Driver/Src/stm32l0xx_hal_flash_ex.c ****   * @brief   Extended FLASH HAL module driver.
   6:Drivers/STM32L0xx_HAL_Driver/Src/stm32l0xx_hal_flash_ex.c ****   *    
   7:Drivers/STM32L0xx_HAL_Driver/Src/stm32l0xx_hal_flash_ex.c ****   *          This file provides firmware functions to manage the following 
   8:Drivers/STM32L0xx_HAL_Driver/Src/stm32l0xx_hal_flash_ex.c ****   *          functionalities of the internal FLASH memory:
   9:Drivers/STM32L0xx_HAL_Driver/Src/stm32l0xx_hal_flash_ex.c ****   *            + FLASH Interface configuration
  10:Drivers/STM32L0xx_HAL_Driver/Src/stm32l0xx_hal_flash_ex.c ****   *            + FLASH Memory Erasing
  11:Drivers/STM32L0xx_HAL_Driver/Src/stm32l0xx_hal_flash_ex.c ****   *            + DATA EEPROM Programming/Erasing
  12:Drivers/STM32L0xx_HAL_Driver/Src/stm32l0xx_hal_flash_ex.c ****   *            + Option Bytes Programming
  13:Drivers/STM32L0xx_HAL_Driver/Src/stm32l0xx_hal_flash_ex.c ****   *            + Interrupts management
  14:Drivers/STM32L0xx_HAL_Driver/Src/stm32l0xx_hal_flash_ex.c ****   *    
  15:Drivers/STM32L0xx_HAL_Driver/Src/stm32l0xx_hal_flash_ex.c ****   @verbatim
  16:Drivers/STM32L0xx_HAL_Driver/Src/stm32l0xx_hal_flash_ex.c ****   ==============================================================================
  17:Drivers/STM32L0xx_HAL_Driver/Src/stm32l0xx_hal_flash_ex.c ****                ##### Flash peripheral Extended features  #####
  18:Drivers/STM32L0xx_HAL_Driver/Src/stm32l0xx_hal_flash_ex.c ****   ==============================================================================
  19:Drivers/STM32L0xx_HAL_Driver/Src/stm32l0xx_hal_flash_ex.c ****            
  20:Drivers/STM32L0xx_HAL_Driver/Src/stm32l0xx_hal_flash_ex.c ****   [..] Comparing to other products, the FLASH interface for STM32L0xx
  21:Drivers/STM32L0xx_HAL_Driver/Src/stm32l0xx_hal_flash_ex.c ****        devices contains the following additional features        
  22:Drivers/STM32L0xx_HAL_Driver/Src/stm32l0xx_hal_flash_ex.c ****        (+) Erase functions
  23:Drivers/STM32L0xx_HAL_Driver/Src/stm32l0xx_hal_flash_ex.c ****        (+) DATA_EEPROM memory management
  24:Drivers/STM32L0xx_HAL_Driver/Src/stm32l0xx_hal_flash_ex.c ****        (+) BOOT option bit configuration       
  25:Drivers/STM32L0xx_HAL_Driver/Src/stm32l0xx_hal_flash_ex.c ****        (+) PCROP protection for all sectors
  26:Drivers/STM32L0xx_HAL_Driver/Src/stm32l0xx_hal_flash_ex.c ****    
  27:Drivers/STM32L0xx_HAL_Driver/Src/stm32l0xx_hal_flash_ex.c ****                       ##### How to use this driver #####
  28:Drivers/STM32L0xx_HAL_Driver/Src/stm32l0xx_hal_flash_ex.c ****   ==============================================================================
  29:Drivers/STM32L0xx_HAL_Driver/Src/stm32l0xx_hal_flash_ex.c ****   [..] This driver provides functions to configure and program the FLASH memory 
  30:Drivers/STM32L0xx_HAL_Driver/Src/stm32l0xx_hal_flash_ex.c ****        of all STM32L0xx. It includes:
  31:Drivers/STM32L0xx_HAL_Driver/Src/stm32l0xx_hal_flash_ex.c ****        (+) Full DATA_EEPROM erase and program management
  32:Drivers/STM32L0xx_HAL_Driver/Src/stm32l0xx_hal_flash_ex.c ****        (+) Boot activation
  33:Drivers/STM32L0xx_HAL_Driver/Src/stm32l0xx_hal_flash_ex.c ****        (+) PCROP protection configuration and control for all pages
ARM GAS  /tmp/ccBA2iOh.s 			page 2


  34:Drivers/STM32L0xx_HAL_Driver/Src/stm32l0xx_hal_flash_ex.c ****   
  35:Drivers/STM32L0xx_HAL_Driver/Src/stm32l0xx_hal_flash_ex.c ****   @endverbatim
  36:Drivers/STM32L0xx_HAL_Driver/Src/stm32l0xx_hal_flash_ex.c ****   ******************************************************************************
  37:Drivers/STM32L0xx_HAL_Driver/Src/stm32l0xx_hal_flash_ex.c ****   * @attention
  38:Drivers/STM32L0xx_HAL_Driver/Src/stm32l0xx_hal_flash_ex.c ****   *
  39:Drivers/STM32L0xx_HAL_Driver/Src/stm32l0xx_hal_flash_ex.c ****   * <h2><center>&copy; Copyright (c) 2016 STMicroelectronics. 
  40:Drivers/STM32L0xx_HAL_Driver/Src/stm32l0xx_hal_flash_ex.c ****   * All rights reserved.</center></h2>
  41:Drivers/STM32L0xx_HAL_Driver/Src/stm32l0xx_hal_flash_ex.c ****   *
  42:Drivers/STM32L0xx_HAL_Driver/Src/stm32l0xx_hal_flash_ex.c ****   * This software component is licensed by ST under BSD 3-Clause license,
  43:Drivers/STM32L0xx_HAL_Driver/Src/stm32l0xx_hal_flash_ex.c ****   * the "License"; You may not use this file except in compliance with the 
  44:Drivers/STM32L0xx_HAL_Driver/Src/stm32l0xx_hal_flash_ex.c ****   * License. You may obtain a copy of the License at:
  45:Drivers/STM32L0xx_HAL_Driver/Src/stm32l0xx_hal_flash_ex.c ****   *                        opensource.org/licenses/BSD-3-Clause
  46:Drivers/STM32L0xx_HAL_Driver/Src/stm32l0xx_hal_flash_ex.c ****   *
  47:Drivers/STM32L0xx_HAL_Driver/Src/stm32l0xx_hal_flash_ex.c ****   ******************************************************************************  
  48:Drivers/STM32L0xx_HAL_Driver/Src/stm32l0xx_hal_flash_ex.c ****   */ 
  49:Drivers/STM32L0xx_HAL_Driver/Src/stm32l0xx_hal_flash_ex.c **** 
  50:Drivers/STM32L0xx_HAL_Driver/Src/stm32l0xx_hal_flash_ex.c **** /* Includes ------------------------------------------------------------------*/
  51:Drivers/STM32L0xx_HAL_Driver/Src/stm32l0xx_hal_flash_ex.c **** #include "stm32l0xx_hal.h"
  52:Drivers/STM32L0xx_HAL_Driver/Src/stm32l0xx_hal_flash_ex.c **** 
  53:Drivers/STM32L0xx_HAL_Driver/Src/stm32l0xx_hal_flash_ex.c **** /** @addtogroup STM32L0xx_HAL_Driver
  54:Drivers/STM32L0xx_HAL_Driver/Src/stm32l0xx_hal_flash_ex.c ****   * @{
  55:Drivers/STM32L0xx_HAL_Driver/Src/stm32l0xx_hal_flash_ex.c ****   */
  56:Drivers/STM32L0xx_HAL_Driver/Src/stm32l0xx_hal_flash_ex.c **** #ifdef HAL_FLASH_MODULE_ENABLED
  57:Drivers/STM32L0xx_HAL_Driver/Src/stm32l0xx_hal_flash_ex.c **** 
  58:Drivers/STM32L0xx_HAL_Driver/Src/stm32l0xx_hal_flash_ex.c **** /** @addtogroup FLASH
  59:Drivers/STM32L0xx_HAL_Driver/Src/stm32l0xx_hal_flash_ex.c ****   * @{
  60:Drivers/STM32L0xx_HAL_Driver/Src/stm32l0xx_hal_flash_ex.c ****   */
  61:Drivers/STM32L0xx_HAL_Driver/Src/stm32l0xx_hal_flash_ex.c **** /** @addtogroup FLASH_Private_Variables
  62:Drivers/STM32L0xx_HAL_Driver/Src/stm32l0xx_hal_flash_ex.c ****  * @{
  63:Drivers/STM32L0xx_HAL_Driver/Src/stm32l0xx_hal_flash_ex.c ****  */
  64:Drivers/STM32L0xx_HAL_Driver/Src/stm32l0xx_hal_flash_ex.c **** /* Variables used for Erase pages under interruption*/
  65:Drivers/STM32L0xx_HAL_Driver/Src/stm32l0xx_hal_flash_ex.c **** extern FLASH_ProcessTypeDef pFlash;
  66:Drivers/STM32L0xx_HAL_Driver/Src/stm32l0xx_hal_flash_ex.c **** /**
  67:Drivers/STM32L0xx_HAL_Driver/Src/stm32l0xx_hal_flash_ex.c ****   * @}
  68:Drivers/STM32L0xx_HAL_Driver/Src/stm32l0xx_hal_flash_ex.c ****   */
  69:Drivers/STM32L0xx_HAL_Driver/Src/stm32l0xx_hal_flash_ex.c **** 
  70:Drivers/STM32L0xx_HAL_Driver/Src/stm32l0xx_hal_flash_ex.c **** /**
  71:Drivers/STM32L0xx_HAL_Driver/Src/stm32l0xx_hal_flash_ex.c ****   * @}
  72:Drivers/STM32L0xx_HAL_Driver/Src/stm32l0xx_hal_flash_ex.c ****   */
  73:Drivers/STM32L0xx_HAL_Driver/Src/stm32l0xx_hal_flash_ex.c ****   
  74:Drivers/STM32L0xx_HAL_Driver/Src/stm32l0xx_hal_flash_ex.c **** /** @defgroup FLASHEx FLASHEx
  75:Drivers/STM32L0xx_HAL_Driver/Src/stm32l0xx_hal_flash_ex.c ****   * @brief FLASH HAL Extension module driver
  76:Drivers/STM32L0xx_HAL_Driver/Src/stm32l0xx_hal_flash_ex.c ****   * @{
  77:Drivers/STM32L0xx_HAL_Driver/Src/stm32l0xx_hal_flash_ex.c ****   */
  78:Drivers/STM32L0xx_HAL_Driver/Src/stm32l0xx_hal_flash_ex.c **** 
  79:Drivers/STM32L0xx_HAL_Driver/Src/stm32l0xx_hal_flash_ex.c **** /* Private typedef -----------------------------------------------------------*/
  80:Drivers/STM32L0xx_HAL_Driver/Src/stm32l0xx_hal_flash_ex.c **** /* Private define ------------------------------------------------------------*/
  81:Drivers/STM32L0xx_HAL_Driver/Src/stm32l0xx_hal_flash_ex.c **** /** @defgroup FLASHEx_Private_Constants FLASHEx Private Constants
  82:Drivers/STM32L0xx_HAL_Driver/Src/stm32l0xx_hal_flash_ex.c ****  * @{
  83:Drivers/STM32L0xx_HAL_Driver/Src/stm32l0xx_hal_flash_ex.c ****  */
  84:Drivers/STM32L0xx_HAL_Driver/Src/stm32l0xx_hal_flash_ex.c **** /**
  85:Drivers/STM32L0xx_HAL_Driver/Src/stm32l0xx_hal_flash_ex.c ****   * @}
  86:Drivers/STM32L0xx_HAL_Driver/Src/stm32l0xx_hal_flash_ex.c ****   */
  87:Drivers/STM32L0xx_HAL_Driver/Src/stm32l0xx_hal_flash_ex.c **** 
  88:Drivers/STM32L0xx_HAL_Driver/Src/stm32l0xx_hal_flash_ex.c **** /* Private macro -------------------------------------------------------------*/
  89:Drivers/STM32L0xx_HAL_Driver/Src/stm32l0xx_hal_flash_ex.c **** /** @defgroup FLASHEx_Private_Macros FLASHEx Private Macros
  90:Drivers/STM32L0xx_HAL_Driver/Src/stm32l0xx_hal_flash_ex.c ****   * @{
ARM GAS  /tmp/ccBA2iOh.s 			page 3


  91:Drivers/STM32L0xx_HAL_Driver/Src/stm32l0xx_hal_flash_ex.c ****   */
  92:Drivers/STM32L0xx_HAL_Driver/Src/stm32l0xx_hal_flash_ex.c **** /**
  93:Drivers/STM32L0xx_HAL_Driver/Src/stm32l0xx_hal_flash_ex.c ****   * @}
  94:Drivers/STM32L0xx_HAL_Driver/Src/stm32l0xx_hal_flash_ex.c ****   */ 
  95:Drivers/STM32L0xx_HAL_Driver/Src/stm32l0xx_hal_flash_ex.c **** 
  96:Drivers/STM32L0xx_HAL_Driver/Src/stm32l0xx_hal_flash_ex.c **** /* Private variables ---------------------------------------------------------*/
  97:Drivers/STM32L0xx_HAL_Driver/Src/stm32l0xx_hal_flash_ex.c **** /* Private function prototypes -----------------------------------------------*/
  98:Drivers/STM32L0xx_HAL_Driver/Src/stm32l0xx_hal_flash_ex.c **** /** @defgroup FLASHEx_Private_Functions FLASHEx Private Functions
  99:Drivers/STM32L0xx_HAL_Driver/Src/stm32l0xx_hal_flash_ex.c ****  * @{
 100:Drivers/STM32L0xx_HAL_Driver/Src/stm32l0xx_hal_flash_ex.c ****  */
 101:Drivers/STM32L0xx_HAL_Driver/Src/stm32l0xx_hal_flash_ex.c **** void                      FLASH_PageErase(uint32_t PageAddress);
 102:Drivers/STM32L0xx_HAL_Driver/Src/stm32l0xx_hal_flash_ex.c **** #if defined(FLASH_OPTR_BFB2)
 103:Drivers/STM32L0xx_HAL_Driver/Src/stm32l0xx_hal_flash_ex.c **** static HAL_StatusTypeDef  FLASH_OB_BootConfig(uint8_t OB_BOOT);
 104:Drivers/STM32L0xx_HAL_Driver/Src/stm32l0xx_hal_flash_ex.c **** #endif /* FLASH_OPTR_BFB2 */
 105:Drivers/STM32L0xx_HAL_Driver/Src/stm32l0xx_hal_flash_ex.c **** static HAL_StatusTypeDef  FLASH_OB_RDPConfig(uint8_t OB_RDP);
 106:Drivers/STM32L0xx_HAL_Driver/Src/stm32l0xx_hal_flash_ex.c **** static HAL_StatusTypeDef  FLASH_OB_UserConfig(uint8_t OB_IWDG, uint8_t OB_STOP, uint8_t OB_STDBY);
 107:Drivers/STM32L0xx_HAL_Driver/Src/stm32l0xx_hal_flash_ex.c **** static HAL_StatusTypeDef  FLASH_OB_BORConfig(uint8_t OB_BOR);
 108:Drivers/STM32L0xx_HAL_Driver/Src/stm32l0xx_hal_flash_ex.c **** static uint8_t            FLASH_OB_GetRDP(void);
 109:Drivers/STM32L0xx_HAL_Driver/Src/stm32l0xx_hal_flash_ex.c **** static uint8_t            FLASH_OB_GetUser(void);
 110:Drivers/STM32L0xx_HAL_Driver/Src/stm32l0xx_hal_flash_ex.c **** static uint8_t            FLASH_OB_GetBOR(void);
 111:Drivers/STM32L0xx_HAL_Driver/Src/stm32l0xx_hal_flash_ex.c **** static uint8_t            FLASH_OB_GetBOOTBit1(void);
 112:Drivers/STM32L0xx_HAL_Driver/Src/stm32l0xx_hal_flash_ex.c **** static HAL_StatusTypeDef  FLASH_OB_BOOTBit1Config(uint8_t OB_BootBit1);
 113:Drivers/STM32L0xx_HAL_Driver/Src/stm32l0xx_hal_flash_ex.c **** #if defined(STM32L071xx) || defined(STM32L072xx) || defined(STM32L073xx) || defined(STM32L081xx) ||
 114:Drivers/STM32L0xx_HAL_Driver/Src/stm32l0xx_hal_flash_ex.c **** static HAL_StatusTypeDef  FLASH_OB_ProtectedSectorsConfig(uint32_t Sector, uint32_t Sector2, uint32
 115:Drivers/STM32L0xx_HAL_Driver/Src/stm32l0xx_hal_flash_ex.c **** #else
 116:Drivers/STM32L0xx_HAL_Driver/Src/stm32l0xx_hal_flash_ex.c **** static HAL_StatusTypeDef  FLASH_OB_ProtectedSectorsConfig(uint32_t Sector, uint32_t NewState);
 117:Drivers/STM32L0xx_HAL_Driver/Src/stm32l0xx_hal_flash_ex.c **** #endif
 118:Drivers/STM32L0xx_HAL_Driver/Src/stm32l0xx_hal_flash_ex.c **** static uint32_t           FLASH_OB_GetWRP(void);
 119:Drivers/STM32L0xx_HAL_Driver/Src/stm32l0xx_hal_flash_ex.c **** #if defined(STM32L071xx) || defined(STM32L072xx) || defined(STM32L073xx) || defined(STM32L081xx) ||
 120:Drivers/STM32L0xx_HAL_Driver/Src/stm32l0xx_hal_flash_ex.c **** static uint32_t           FLASH_OB_GetWRP2(void);
 121:Drivers/STM32L0xx_HAL_Driver/Src/stm32l0xx_hal_flash_ex.c **** #endif
 122:Drivers/STM32L0xx_HAL_Driver/Src/stm32l0xx_hal_flash_ex.c **** 
 123:Drivers/STM32L0xx_HAL_Driver/Src/stm32l0xx_hal_flash_ex.c **** /**
 124:Drivers/STM32L0xx_HAL_Driver/Src/stm32l0xx_hal_flash_ex.c ****   * @}
 125:Drivers/STM32L0xx_HAL_Driver/Src/stm32l0xx_hal_flash_ex.c ****   */
 126:Drivers/STM32L0xx_HAL_Driver/Src/stm32l0xx_hal_flash_ex.c **** 
 127:Drivers/STM32L0xx_HAL_Driver/Src/stm32l0xx_hal_flash_ex.c **** /* Exported functions ---------------------------------------------------------*/
 128:Drivers/STM32L0xx_HAL_Driver/Src/stm32l0xx_hal_flash_ex.c **** /** @defgroup FLASHEx_Exported_Functions FLASHEx Exported Functions
 129:Drivers/STM32L0xx_HAL_Driver/Src/stm32l0xx_hal_flash_ex.c ****   * @{
 130:Drivers/STM32L0xx_HAL_Driver/Src/stm32l0xx_hal_flash_ex.c ****   */
 131:Drivers/STM32L0xx_HAL_Driver/Src/stm32l0xx_hal_flash_ex.c **** 
 132:Drivers/STM32L0xx_HAL_Driver/Src/stm32l0xx_hal_flash_ex.c **** /** @defgroup FLASHEx_Exported_Functions_Group1 FLASHEx Memory Erasing functions
 133:Drivers/STM32L0xx_HAL_Driver/Src/stm32l0xx_hal_flash_ex.c ****  *  @brief   FLASH Memory Erasing functions
 134:Drivers/STM32L0xx_HAL_Driver/Src/stm32l0xx_hal_flash_ex.c ****  *
 135:Drivers/STM32L0xx_HAL_Driver/Src/stm32l0xx_hal_flash_ex.c **** @verbatim   
 136:Drivers/STM32L0xx_HAL_Driver/Src/stm32l0xx_hal_flash_ex.c ****   ==============================================================================
 137:Drivers/STM32L0xx_HAL_Driver/Src/stm32l0xx_hal_flash_ex.c ****                 ##### FLASH Erasing Programming functions ##### 
 138:Drivers/STM32L0xx_HAL_Driver/Src/stm32l0xx_hal_flash_ex.c ****   ==============================================================================
 139:Drivers/STM32L0xx_HAL_Driver/Src/stm32l0xx_hal_flash_ex.c **** 
 140:Drivers/STM32L0xx_HAL_Driver/Src/stm32l0xx_hal_flash_ex.c ****     [..] The FLASH Memory Erasing functions, includes the following functions:
 141:Drivers/STM32L0xx_HAL_Driver/Src/stm32l0xx_hal_flash_ex.c ****     (+) @ref HAL_FLASHEx_Erase: return only when erase has been done
 142:Drivers/STM32L0xx_HAL_Driver/Src/stm32l0xx_hal_flash_ex.c ****     (+) @ref HAL_FLASHEx_Erase_IT: end of erase is done when @ref HAL_FLASH_EndOfOperationCallback 
 143:Drivers/STM32L0xx_HAL_Driver/Src/stm32l0xx_hal_flash_ex.c ****         is called with parameter 0xFFFFFFFF
 144:Drivers/STM32L0xx_HAL_Driver/Src/stm32l0xx_hal_flash_ex.c **** 
 145:Drivers/STM32L0xx_HAL_Driver/Src/stm32l0xx_hal_flash_ex.c ****     [..] Any operation of erase should follow these steps:
 146:Drivers/STM32L0xx_HAL_Driver/Src/stm32l0xx_hal_flash_ex.c ****     (#) Call the @ref HAL_FLASH_Unlock() function to enable the flash control register and 
 147:Drivers/STM32L0xx_HAL_Driver/Src/stm32l0xx_hal_flash_ex.c ****         program memory access.
ARM GAS  /tmp/ccBA2iOh.s 			page 4


 148:Drivers/STM32L0xx_HAL_Driver/Src/stm32l0xx_hal_flash_ex.c ****     (#) Call the desired function to erase page.
 149:Drivers/STM32L0xx_HAL_Driver/Src/stm32l0xx_hal_flash_ex.c ****     (#) Call the @ref HAL_FLASH_Lock() to disable the flash program memory access 
 150:Drivers/STM32L0xx_HAL_Driver/Src/stm32l0xx_hal_flash_ex.c ****        (recommended to protect the FLASH memory against possible unwanted operation).
 151:Drivers/STM32L0xx_HAL_Driver/Src/stm32l0xx_hal_flash_ex.c **** 
 152:Drivers/STM32L0xx_HAL_Driver/Src/stm32l0xx_hal_flash_ex.c **** @endverbatim
 153:Drivers/STM32L0xx_HAL_Driver/Src/stm32l0xx_hal_flash_ex.c ****   * @{
 154:Drivers/STM32L0xx_HAL_Driver/Src/stm32l0xx_hal_flash_ex.c ****   */
 155:Drivers/STM32L0xx_HAL_Driver/Src/stm32l0xx_hal_flash_ex.c ****   
 156:Drivers/STM32L0xx_HAL_Driver/Src/stm32l0xx_hal_flash_ex.c **** /**
 157:Drivers/STM32L0xx_HAL_Driver/Src/stm32l0xx_hal_flash_ex.c ****   * @brief  Erase the specified FLASH memory Pages 
 158:Drivers/STM32L0xx_HAL_Driver/Src/stm32l0xx_hal_flash_ex.c ****   * @note   To correctly run this function, the @ref HAL_FLASH_Unlock() function
 159:Drivers/STM32L0xx_HAL_Driver/Src/stm32l0xx_hal_flash_ex.c ****   *         must be called before.
 160:Drivers/STM32L0xx_HAL_Driver/Src/stm32l0xx_hal_flash_ex.c ****   *         Call the @ref HAL_FLASH_Lock() to disable the flash memory access 
 161:Drivers/STM32L0xx_HAL_Driver/Src/stm32l0xx_hal_flash_ex.c ****   *         (recommended to protect the FLASH memory against possible unwanted operation)
 162:Drivers/STM32L0xx_HAL_Driver/Src/stm32l0xx_hal_flash_ex.c ****   * @param[in]  pEraseInit pointer to an FLASH_EraseInitTypeDef structure that
 163:Drivers/STM32L0xx_HAL_Driver/Src/stm32l0xx_hal_flash_ex.c ****   *         contains the configuration information for the erasing.
 164:Drivers/STM32L0xx_HAL_Driver/Src/stm32l0xx_hal_flash_ex.c ****   * 
 165:Drivers/STM32L0xx_HAL_Driver/Src/stm32l0xx_hal_flash_ex.c ****   * @param[out]  PageError pointer to variable  that
 166:Drivers/STM32L0xx_HAL_Driver/Src/stm32l0xx_hal_flash_ex.c ****   *         contains the configuration information on faulty page in case of error
 167:Drivers/STM32L0xx_HAL_Driver/Src/stm32l0xx_hal_flash_ex.c ****   *         (0xFFFFFFFF means that all the pages have been correctly erased)
 168:Drivers/STM32L0xx_HAL_Driver/Src/stm32l0xx_hal_flash_ex.c ****   * 
 169:Drivers/STM32L0xx_HAL_Driver/Src/stm32l0xx_hal_flash_ex.c ****   * @retval HAL_StatusTypeDef HAL Status
 170:Drivers/STM32L0xx_HAL_Driver/Src/stm32l0xx_hal_flash_ex.c ****   */
 171:Drivers/STM32L0xx_HAL_Driver/Src/stm32l0xx_hal_flash_ex.c **** HAL_StatusTypeDef HAL_FLASHEx_Erase(FLASH_EraseInitTypeDef *pEraseInit, uint32_t *PageError)
 172:Drivers/STM32L0xx_HAL_Driver/Src/stm32l0xx_hal_flash_ex.c **** {
  26              		.loc 1 172 0
  27              		.cfi_startproc
  28              		@ args = 0, pretend = 0, frame = 16
  29              		@ frame_needed = 1, uses_anonymous_args = 0
  30 0000 90B5     		push	{r4, r7, lr}
  31              	.LCFI0:
  32              		.cfi_def_cfa_offset 12
  33              		.cfi_offset 4, -12
  34              		.cfi_offset 7, -8
  35              		.cfi_offset 14, -4
  36 0002 85B0     		sub	sp, sp, #20
  37              	.LCFI1:
  38              		.cfi_def_cfa_offset 32
  39 0004 00AF     		add	r7, sp, #0
  40              	.LCFI2:
  41              		.cfi_def_cfa_register 7
  42 0006 7860     		str	r0, [r7, #4]
  43 0008 3960     		str	r1, [r7]
 173:Drivers/STM32L0xx_HAL_Driver/Src/stm32l0xx_hal_flash_ex.c ****   HAL_StatusTypeDef status = HAL_ERROR;
  44              		.loc 1 173 0
  45 000a 0F23     		movs	r3, #15
  46 000c FB18     		adds	r3, r7, r3
  47 000e 0122     		movs	r2, #1
  48 0010 1A70     		strb	r2, [r3]
 174:Drivers/STM32L0xx_HAL_Driver/Src/stm32l0xx_hal_flash_ex.c ****   uint32_t address = 0U;
  49              		.loc 1 174 0
  50 0012 0023     		movs	r3, #0
  51 0014 BB60     		str	r3, [r7, #8]
 175:Drivers/STM32L0xx_HAL_Driver/Src/stm32l0xx_hal_flash_ex.c ****   
 176:Drivers/STM32L0xx_HAL_Driver/Src/stm32l0xx_hal_flash_ex.c ****   /* Process Locked */
 177:Drivers/STM32L0xx_HAL_Driver/Src/stm32l0xx_hal_flash_ex.c ****   __HAL_LOCK(&pFlash);
  52              		.loc 1 177 0
ARM GAS  /tmp/ccBA2iOh.s 			page 5


  53 0016 2A4B     		ldr	r3, .L8
  54 0018 1B7C     		ldrb	r3, [r3, #16]
  55 001a 012B     		cmp	r3, #1
  56 001c 01D1     		bne	.L2
  57              		.loc 1 177 0 is_stmt 0 discriminator 1
  58 001e 0223     		movs	r3, #2
  59 0020 4AE0     		b	.L3
  60              	.L2:
  61              		.loc 1 177 0 discriminator 2
  62 0022 274B     		ldr	r3, .L8
  63 0024 0122     		movs	r2, #1
  64 0026 1A74     		strb	r2, [r3, #16]
 178:Drivers/STM32L0xx_HAL_Driver/Src/stm32l0xx_hal_flash_ex.c **** 
 179:Drivers/STM32L0xx_HAL_Driver/Src/stm32l0xx_hal_flash_ex.c ****   /* Wait for last operation to be completed */
 180:Drivers/STM32L0xx_HAL_Driver/Src/stm32l0xx_hal_flash_ex.c ****   status = FLASH_WaitForLastOperation(FLASH_TIMEOUT_VALUE);
  65              		.loc 1 180 0 is_stmt 1 discriminator 2
  66 0028 0F23     		movs	r3, #15
  67 002a FC18     		adds	r4, r7, r3
  68 002c 254B     		ldr	r3, .L8+4
  69 002e 1800     		movs	r0, r3
  70 0030 FFF7FEFF 		bl	FLASH_WaitForLastOperation
  71 0034 0300     		movs	r3, r0
  72 0036 2370     		strb	r3, [r4]
 181:Drivers/STM32L0xx_HAL_Driver/Src/stm32l0xx_hal_flash_ex.c **** 
 182:Drivers/STM32L0xx_HAL_Driver/Src/stm32l0xx_hal_flash_ex.c ****   if (status == HAL_OK)
  73              		.loc 1 182 0 discriminator 2
  74 0038 0F23     		movs	r3, #15
  75 003a FB18     		adds	r3, r7, r3
  76 003c 1B78     		ldrb	r3, [r3]
  77 003e 002B     		cmp	r3, #0
  78 0040 34D1     		bne	.L4
 183:Drivers/STM32L0xx_HAL_Driver/Src/stm32l0xx_hal_flash_ex.c ****   {
 184:Drivers/STM32L0xx_HAL_Driver/Src/stm32l0xx_hal_flash_ex.c ****     /*Initialization of PageError variable*/
 185:Drivers/STM32L0xx_HAL_Driver/Src/stm32l0xx_hal_flash_ex.c ****     *PageError = 0xFFFFFFFFU;
  79              		.loc 1 185 0
  80 0042 3B68     		ldr	r3, [r7]
  81 0044 0122     		movs	r2, #1
  82 0046 5242     		rsbs	r2, r2, #0
  83 0048 1A60     		str	r2, [r3]
 186:Drivers/STM32L0xx_HAL_Driver/Src/stm32l0xx_hal_flash_ex.c **** 
 187:Drivers/STM32L0xx_HAL_Driver/Src/stm32l0xx_hal_flash_ex.c ****     /* Check the parameters */
 188:Drivers/STM32L0xx_HAL_Driver/Src/stm32l0xx_hal_flash_ex.c ****     assert_param(IS_NBPAGES(pEraseInit->NbPages));
 189:Drivers/STM32L0xx_HAL_Driver/Src/stm32l0xx_hal_flash_ex.c ****     assert_param(IS_FLASH_TYPEERASE(pEraseInit->TypeErase));
 190:Drivers/STM32L0xx_HAL_Driver/Src/stm32l0xx_hal_flash_ex.c ****     assert_param(IS_FLASH_PROGRAM_ADDRESS(pEraseInit->PageAddress));
 191:Drivers/STM32L0xx_HAL_Driver/Src/stm32l0xx_hal_flash_ex.c ****     assert_param(IS_FLASH_PROGRAM_ADDRESS((pEraseInit->PageAddress & ~(FLASH_PAGE_SIZE - 1U)) + pEr
 192:Drivers/STM32L0xx_HAL_Driver/Src/stm32l0xx_hal_flash_ex.c **** 
 193:Drivers/STM32L0xx_HAL_Driver/Src/stm32l0xx_hal_flash_ex.c ****     /* Erase page by page to be done*/
 194:Drivers/STM32L0xx_HAL_Driver/Src/stm32l0xx_hal_flash_ex.c ****     for(address = pEraseInit->PageAddress; 
  84              		.loc 1 194 0
  85 004a 7B68     		ldr	r3, [r7, #4]
  86 004c 5B68     		ldr	r3, [r3, #4]
  87 004e BB60     		str	r3, [r7, #8]
  88 0050 23E0     		b	.L5
  89              	.L7:
 195:Drivers/STM32L0xx_HAL_Driver/Src/stm32l0xx_hal_flash_ex.c ****         address < ((pEraseInit->NbPages * FLASH_PAGE_SIZE) + pEraseInit->PageAddress);
 196:Drivers/STM32L0xx_HAL_Driver/Src/stm32l0xx_hal_flash_ex.c ****         address += FLASH_PAGE_SIZE)
 197:Drivers/STM32L0xx_HAL_Driver/Src/stm32l0xx_hal_flash_ex.c ****     {
ARM GAS  /tmp/ccBA2iOh.s 			page 6


 198:Drivers/STM32L0xx_HAL_Driver/Src/stm32l0xx_hal_flash_ex.c ****       FLASH_PageErase(address);
  90              		.loc 1 198 0
  91 0052 BB68     		ldr	r3, [r7, #8]
  92 0054 1800     		movs	r0, r3
  93 0056 FFF7FEFF 		bl	FLASH_PageErase
 199:Drivers/STM32L0xx_HAL_Driver/Src/stm32l0xx_hal_flash_ex.c **** 
 200:Drivers/STM32L0xx_HAL_Driver/Src/stm32l0xx_hal_flash_ex.c ****       /* Wait for last operation to be completed */
 201:Drivers/STM32L0xx_HAL_Driver/Src/stm32l0xx_hal_flash_ex.c ****       status = FLASH_WaitForLastOperation(FLASH_TIMEOUT_VALUE);
  94              		.loc 1 201 0
  95 005a 0F23     		movs	r3, #15
  96 005c FC18     		adds	r4, r7, r3
  97 005e 194B     		ldr	r3, .L8+4
  98 0060 1800     		movs	r0, r3
  99 0062 FFF7FEFF 		bl	FLASH_WaitForLastOperation
 100 0066 0300     		movs	r3, r0
 101 0068 2370     		strb	r3, [r4]
 202:Drivers/STM32L0xx_HAL_Driver/Src/stm32l0xx_hal_flash_ex.c **** 
 203:Drivers/STM32L0xx_HAL_Driver/Src/stm32l0xx_hal_flash_ex.c ****       /* If the erase operation is completed, disable the ERASE Bit */
 204:Drivers/STM32L0xx_HAL_Driver/Src/stm32l0xx_hal_flash_ex.c ****       CLEAR_BIT(FLASH->PECR, FLASH_PECR_PROG);
 102              		.loc 1 204 0
 103 006a 174B     		ldr	r3, .L8+8
 104 006c 164A     		ldr	r2, .L8+8
 105 006e 5268     		ldr	r2, [r2, #4]
 106 0070 0821     		movs	r1, #8
 107 0072 8A43     		bics	r2, r1
 108 0074 5A60     		str	r2, [r3, #4]
 205:Drivers/STM32L0xx_HAL_Driver/Src/stm32l0xx_hal_flash_ex.c ****       CLEAR_BIT(FLASH->PECR, FLASH_PECR_ERASE);
 109              		.loc 1 205 0
 110 0076 144B     		ldr	r3, .L8+8
 111 0078 134A     		ldr	r2, .L8+8
 112 007a 5268     		ldr	r2, [r2, #4]
 113 007c 1349     		ldr	r1, .L8+12
 114 007e 0A40     		ands	r2, r1
 115 0080 5A60     		str	r2, [r3, #4]
 206:Drivers/STM32L0xx_HAL_Driver/Src/stm32l0xx_hal_flash_ex.c **** 
 207:Drivers/STM32L0xx_HAL_Driver/Src/stm32l0xx_hal_flash_ex.c ****       if (status != HAL_OK) 
 116              		.loc 1 207 0
 117 0082 0F23     		movs	r3, #15
 118 0084 FB18     		adds	r3, r7, r3
 119 0086 1B78     		ldrb	r3, [r3]
 120 0088 002B     		cmp	r3, #0
 121 008a 03D0     		beq	.L6
 208:Drivers/STM32L0xx_HAL_Driver/Src/stm32l0xx_hal_flash_ex.c ****       {
 209:Drivers/STM32L0xx_HAL_Driver/Src/stm32l0xx_hal_flash_ex.c ****         /* In case of error, stop erase procedure and return the faulty address */
 210:Drivers/STM32L0xx_HAL_Driver/Src/stm32l0xx_hal_flash_ex.c ****         *PageError = address;
 122              		.loc 1 210 0
 123 008c 3B68     		ldr	r3, [r7]
 124 008e BA68     		ldr	r2, [r7, #8]
 125 0090 1A60     		str	r2, [r3]
 211:Drivers/STM32L0xx_HAL_Driver/Src/stm32l0xx_hal_flash_ex.c ****         break;
 126              		.loc 1 211 0
 127 0092 0BE0     		b	.L4
 128              	.L6:
 196:Drivers/STM32L0xx_HAL_Driver/Src/stm32l0xx_hal_flash_ex.c ****     {
 129              		.loc 1 196 0
 130 0094 BB68     		ldr	r3, [r7, #8]
 131 0096 8033     		adds	r3, r3, #128
ARM GAS  /tmp/ccBA2iOh.s 			page 7


 132 0098 BB60     		str	r3, [r7, #8]
 133              	.L5:
 195:Drivers/STM32L0xx_HAL_Driver/Src/stm32l0xx_hal_flash_ex.c ****         address += FLASH_PAGE_SIZE)
 134              		.loc 1 195 0 discriminator 1
 135 009a 7B68     		ldr	r3, [r7, #4]
 136 009c 9B68     		ldr	r3, [r3, #8]
 137 009e DA01     		lsls	r2, r3, #7
 138 00a0 7B68     		ldr	r3, [r7, #4]
 139 00a2 5B68     		ldr	r3, [r3, #4]
 140 00a4 D218     		adds	r2, r2, r3
 194:Drivers/STM32L0xx_HAL_Driver/Src/stm32l0xx_hal_flash_ex.c ****         address < ((pEraseInit->NbPages * FLASH_PAGE_SIZE) + pEraseInit->PageAddress);
 141              		.loc 1 194 0 discriminator 1
 142 00a6 BB68     		ldr	r3, [r7, #8]
 143 00a8 9A42     		cmp	r2, r3
 144 00aa D2D8     		bhi	.L7
 145              	.L4:
 212:Drivers/STM32L0xx_HAL_Driver/Src/stm32l0xx_hal_flash_ex.c ****       }
 213:Drivers/STM32L0xx_HAL_Driver/Src/stm32l0xx_hal_flash_ex.c ****     }
 214:Drivers/STM32L0xx_HAL_Driver/Src/stm32l0xx_hal_flash_ex.c ****   }
 215:Drivers/STM32L0xx_HAL_Driver/Src/stm32l0xx_hal_flash_ex.c **** 
 216:Drivers/STM32L0xx_HAL_Driver/Src/stm32l0xx_hal_flash_ex.c ****   /* Process Unlocked */
 217:Drivers/STM32L0xx_HAL_Driver/Src/stm32l0xx_hal_flash_ex.c ****   __HAL_UNLOCK(&pFlash);
 146              		.loc 1 217 0
 147 00ac 044B     		ldr	r3, .L8
 148 00ae 0022     		movs	r2, #0
 149 00b0 1A74     		strb	r2, [r3, #16]
 218:Drivers/STM32L0xx_HAL_Driver/Src/stm32l0xx_hal_flash_ex.c **** 
 219:Drivers/STM32L0xx_HAL_Driver/Src/stm32l0xx_hal_flash_ex.c ****   return status;
 150              		.loc 1 219 0
 151 00b2 0F23     		movs	r3, #15
 152 00b4 FB18     		adds	r3, r7, r3
 153 00b6 1B78     		ldrb	r3, [r3]
 154              	.L3:
 220:Drivers/STM32L0xx_HAL_Driver/Src/stm32l0xx_hal_flash_ex.c **** }
 155              		.loc 1 220 0
 156 00b8 1800     		movs	r0, r3
 157 00ba BD46     		mov	sp, r7
 158 00bc 05B0     		add	sp, sp, #20
 159              		@ sp needed
 160 00be 90BD     		pop	{r4, r7, pc}
 161              	.L9:
 162              		.align	2
 163              	.L8:
 164 00c0 00000000 		.word	pFlash
 165 00c4 50C30000 		.word	50000
 166 00c8 00200240 		.word	1073881088
 167 00cc FFFDFFFF 		.word	-513
 168              		.cfi_endproc
 169              	.LFE34:
 171              		.section	.text.HAL_FLASHEx_Erase_IT,"ax",%progbits
 172              		.align	1
 173              		.global	HAL_FLASHEx_Erase_IT
 174              		.syntax unified
 175              		.code	16
 176              		.thumb_func
 177              		.fpu softvfp
 179              	HAL_FLASHEx_Erase_IT:
ARM GAS  /tmp/ccBA2iOh.s 			page 8


 180              	.LFB35:
 221:Drivers/STM32L0xx_HAL_Driver/Src/stm32l0xx_hal_flash_ex.c **** 
 222:Drivers/STM32L0xx_HAL_Driver/Src/stm32l0xx_hal_flash_ex.c **** /**
 223:Drivers/STM32L0xx_HAL_Driver/Src/stm32l0xx_hal_flash_ex.c ****   * @brief  Perform a page erase of the specified FLASH memory pages  with interrupt enabled
 224:Drivers/STM32L0xx_HAL_Driver/Src/stm32l0xx_hal_flash_ex.c ****   * @note   To correctly run this function, the @ref HAL_FLASH_Unlock() function
 225:Drivers/STM32L0xx_HAL_Driver/Src/stm32l0xx_hal_flash_ex.c ****   *         must be called before.
 226:Drivers/STM32L0xx_HAL_Driver/Src/stm32l0xx_hal_flash_ex.c ****   *         Call the @ref HAL_FLASH_Lock() to disable the flash memory access 
 227:Drivers/STM32L0xx_HAL_Driver/Src/stm32l0xx_hal_flash_ex.c ****   *         (recommended to protect the FLASH memory against possible unwanted operation)
 228:Drivers/STM32L0xx_HAL_Driver/Src/stm32l0xx_hal_flash_ex.c ****   *          End of erase is done when @ref HAL_FLASH_EndOfOperationCallback is called with paramet
 229:Drivers/STM32L0xx_HAL_Driver/Src/stm32l0xx_hal_flash_ex.c ****   *          0xFFFFFFFF
 230:Drivers/STM32L0xx_HAL_Driver/Src/stm32l0xx_hal_flash_ex.c ****   * @param  pEraseInit pointer to an FLASH_EraseInitTypeDef structure that
 231:Drivers/STM32L0xx_HAL_Driver/Src/stm32l0xx_hal_flash_ex.c ****   *         contains the configuration information for the erasing.
 232:Drivers/STM32L0xx_HAL_Driver/Src/stm32l0xx_hal_flash_ex.c ****   * 
 233:Drivers/STM32L0xx_HAL_Driver/Src/stm32l0xx_hal_flash_ex.c ****   * @retval HAL_StatusTypeDef HAL Status
 234:Drivers/STM32L0xx_HAL_Driver/Src/stm32l0xx_hal_flash_ex.c ****   */
 235:Drivers/STM32L0xx_HAL_Driver/Src/stm32l0xx_hal_flash_ex.c **** HAL_StatusTypeDef HAL_FLASHEx_Erase_IT(FLASH_EraseInitTypeDef *pEraseInit)
 236:Drivers/STM32L0xx_HAL_Driver/Src/stm32l0xx_hal_flash_ex.c **** {
 181              		.loc 1 236 0
 182              		.cfi_startproc
 183              		@ args = 0, pretend = 0, frame = 16
 184              		@ frame_needed = 1, uses_anonymous_args = 0
 185 0000 90B5     		push	{r4, r7, lr}
 186              	.LCFI3:
 187              		.cfi_def_cfa_offset 12
 188              		.cfi_offset 4, -12
 189              		.cfi_offset 7, -8
 190              		.cfi_offset 14, -4
 191 0002 85B0     		sub	sp, sp, #20
 192              	.LCFI4:
 193              		.cfi_def_cfa_offset 32
 194 0004 00AF     		add	r7, sp, #0
 195              	.LCFI5:
 196              		.cfi_def_cfa_register 7
 197 0006 7860     		str	r0, [r7, #4]
 237:Drivers/STM32L0xx_HAL_Driver/Src/stm32l0xx_hal_flash_ex.c ****   HAL_StatusTypeDef status = HAL_ERROR;
 198              		.loc 1 237 0
 199 0008 0F23     		movs	r3, #15
 200 000a FB18     		adds	r3, r7, r3
 201 000c 0122     		movs	r2, #1
 202 000e 1A70     		strb	r2, [r3]
 238:Drivers/STM32L0xx_HAL_Driver/Src/stm32l0xx_hal_flash_ex.c **** 
 239:Drivers/STM32L0xx_HAL_Driver/Src/stm32l0xx_hal_flash_ex.c ****   /* If procedure already ongoing, reject the next one */
 240:Drivers/STM32L0xx_HAL_Driver/Src/stm32l0xx_hal_flash_ex.c ****   if (pFlash.ProcedureOnGoing != FLASH_PROC_NONE)
 203              		.loc 1 240 0
 204 0010 1F4B     		ldr	r3, .L16
 205 0012 1B78     		ldrb	r3, [r3]
 206 0014 DBB2     		uxtb	r3, r3
 207 0016 002B     		cmp	r3, #0
 208 0018 01D0     		beq	.L11
 241:Drivers/STM32L0xx_HAL_Driver/Src/stm32l0xx_hal_flash_ex.c ****   {
 242:Drivers/STM32L0xx_HAL_Driver/Src/stm32l0xx_hal_flash_ex.c ****     return HAL_ERROR;
 209              		.loc 1 242 0
 210 001a 0123     		movs	r3, #1
 211 001c 33E0     		b	.L12
 212              	.L11:
 243:Drivers/STM32L0xx_HAL_Driver/Src/stm32l0xx_hal_flash_ex.c ****   }
 244:Drivers/STM32L0xx_HAL_Driver/Src/stm32l0xx_hal_flash_ex.c **** 
ARM GAS  /tmp/ccBA2iOh.s 			page 9


 245:Drivers/STM32L0xx_HAL_Driver/Src/stm32l0xx_hal_flash_ex.c ****   /* Check the parameters */
 246:Drivers/STM32L0xx_HAL_Driver/Src/stm32l0xx_hal_flash_ex.c ****   assert_param(IS_NBPAGES(pEraseInit->NbPages));
 247:Drivers/STM32L0xx_HAL_Driver/Src/stm32l0xx_hal_flash_ex.c ****   assert_param(IS_FLASH_TYPEERASE(pEraseInit->TypeErase));
 248:Drivers/STM32L0xx_HAL_Driver/Src/stm32l0xx_hal_flash_ex.c ****   assert_param(IS_FLASH_PROGRAM_ADDRESS(pEraseInit->PageAddress));
 249:Drivers/STM32L0xx_HAL_Driver/Src/stm32l0xx_hal_flash_ex.c ****   assert_param(IS_FLASH_PROGRAM_ADDRESS((pEraseInit->PageAddress & ~(FLASH_PAGE_SIZE - 1)) + pErase
 250:Drivers/STM32L0xx_HAL_Driver/Src/stm32l0xx_hal_flash_ex.c **** 
 251:Drivers/STM32L0xx_HAL_Driver/Src/stm32l0xx_hal_flash_ex.c ****   /* Process Locked */
 252:Drivers/STM32L0xx_HAL_Driver/Src/stm32l0xx_hal_flash_ex.c ****   __HAL_LOCK(&pFlash);
 213              		.loc 1 252 0
 214 001e 1C4B     		ldr	r3, .L16
 215 0020 1B7C     		ldrb	r3, [r3, #16]
 216 0022 012B     		cmp	r3, #1
 217 0024 01D1     		bne	.L13
 218              		.loc 1 252 0 is_stmt 0 discriminator 1
 219 0026 0223     		movs	r3, #2
 220 0028 2DE0     		b	.L12
 221              	.L13:
 222              		.loc 1 252 0 discriminator 2
 223 002a 194B     		ldr	r3, .L16
 224 002c 0122     		movs	r2, #1
 225 002e 1A74     		strb	r2, [r3, #16]
 253:Drivers/STM32L0xx_HAL_Driver/Src/stm32l0xx_hal_flash_ex.c **** 
 254:Drivers/STM32L0xx_HAL_Driver/Src/stm32l0xx_hal_flash_ex.c ****   /* Wait for last operation to be completed */
 255:Drivers/STM32L0xx_HAL_Driver/Src/stm32l0xx_hal_flash_ex.c ****   status = FLASH_WaitForLastOperation(FLASH_TIMEOUT_VALUE);
 226              		.loc 1 255 0 is_stmt 1 discriminator 2
 227 0030 0F23     		movs	r3, #15
 228 0032 FC18     		adds	r4, r7, r3
 229 0034 174B     		ldr	r3, .L16+4
 230 0036 1800     		movs	r0, r3
 231 0038 FFF7FEFF 		bl	FLASH_WaitForLastOperation
 232 003c 0300     		movs	r3, r0
 233 003e 2370     		strb	r3, [r4]
 256:Drivers/STM32L0xx_HAL_Driver/Src/stm32l0xx_hal_flash_ex.c ****   
 257:Drivers/STM32L0xx_HAL_Driver/Src/stm32l0xx_hal_flash_ex.c ****   if (status == HAL_OK)
 234              		.loc 1 257 0 discriminator 2
 235 0040 0F23     		movs	r3, #15
 236 0042 FB18     		adds	r3, r7, r3
 237 0044 1B78     		ldrb	r3, [r3]
 238 0046 002B     		cmp	r3, #0
 239 0048 17D1     		bne	.L14
 258:Drivers/STM32L0xx_HAL_Driver/Src/stm32l0xx_hal_flash_ex.c ****   {
 259:Drivers/STM32L0xx_HAL_Driver/Src/stm32l0xx_hal_flash_ex.c ****     /* Enable End of FLASH Operation and Error source interrupts */
 260:Drivers/STM32L0xx_HAL_Driver/Src/stm32l0xx_hal_flash_ex.c ****     __HAL_FLASH_ENABLE_IT(FLASH_IT_EOP | FLASH_IT_ERR);
 240              		.loc 1 260 0
 241 004a 134B     		ldr	r3, .L16+8
 242 004c 124A     		ldr	r2, .L16+8
 243 004e 5268     		ldr	r2, [r2, #4]
 244 0050 C021     		movs	r1, #192
 245 0052 8902     		lsls	r1, r1, #10
 246 0054 0A43     		orrs	r2, r1
 247 0056 5A60     		str	r2, [r3, #4]
 261:Drivers/STM32L0xx_HAL_Driver/Src/stm32l0xx_hal_flash_ex.c ****     
 262:Drivers/STM32L0xx_HAL_Driver/Src/stm32l0xx_hal_flash_ex.c ****     pFlash.ProcedureOnGoing = FLASH_PROC_PAGEERASE;
 248              		.loc 1 262 0
 249 0058 0D4B     		ldr	r3, .L16
 250 005a 0122     		movs	r2, #1
 251 005c 1A70     		strb	r2, [r3]
ARM GAS  /tmp/ccBA2iOh.s 			page 10


 263:Drivers/STM32L0xx_HAL_Driver/Src/stm32l0xx_hal_flash_ex.c ****     pFlash.NbPagesToErase = pEraseInit->NbPages;
 252              		.loc 1 263 0
 253 005e 7B68     		ldr	r3, [r7, #4]
 254 0060 9A68     		ldr	r2, [r3, #8]
 255 0062 0B4B     		ldr	r3, .L16
 256 0064 5A60     		str	r2, [r3, #4]
 264:Drivers/STM32L0xx_HAL_Driver/Src/stm32l0xx_hal_flash_ex.c ****     pFlash.Page = pEraseInit->PageAddress;
 257              		.loc 1 264 0
 258 0066 7B68     		ldr	r3, [r7, #4]
 259 0068 5A68     		ldr	r2, [r3, #4]
 260 006a 094B     		ldr	r3, .L16
 261 006c DA60     		str	r2, [r3, #12]
 265:Drivers/STM32L0xx_HAL_Driver/Src/stm32l0xx_hal_flash_ex.c **** 
 266:Drivers/STM32L0xx_HAL_Driver/Src/stm32l0xx_hal_flash_ex.c ****     /*Erase 1st page and wait for IT*/
 267:Drivers/STM32L0xx_HAL_Driver/Src/stm32l0xx_hal_flash_ex.c ****     FLASH_PageErase(pEraseInit->PageAddress);
 262              		.loc 1 267 0
 263 006e 7B68     		ldr	r3, [r7, #4]
 264 0070 5B68     		ldr	r3, [r3, #4]
 265 0072 1800     		movs	r0, r3
 266 0074 FFF7FEFF 		bl	FLASH_PageErase
 267 0078 02E0     		b	.L15
 268              	.L14:
 268:Drivers/STM32L0xx_HAL_Driver/Src/stm32l0xx_hal_flash_ex.c ****   }
 269:Drivers/STM32L0xx_HAL_Driver/Src/stm32l0xx_hal_flash_ex.c ****   else
 270:Drivers/STM32L0xx_HAL_Driver/Src/stm32l0xx_hal_flash_ex.c ****   {
 271:Drivers/STM32L0xx_HAL_Driver/Src/stm32l0xx_hal_flash_ex.c ****     /* Process Unlocked */
 272:Drivers/STM32L0xx_HAL_Driver/Src/stm32l0xx_hal_flash_ex.c ****     __HAL_UNLOCK(&pFlash);
 269              		.loc 1 272 0
 270 007a 054B     		ldr	r3, .L16
 271 007c 0022     		movs	r2, #0
 272 007e 1A74     		strb	r2, [r3, #16]
 273              	.L15:
 273:Drivers/STM32L0xx_HAL_Driver/Src/stm32l0xx_hal_flash_ex.c ****   }
 274:Drivers/STM32L0xx_HAL_Driver/Src/stm32l0xx_hal_flash_ex.c **** 
 275:Drivers/STM32L0xx_HAL_Driver/Src/stm32l0xx_hal_flash_ex.c ****   return status;
 274              		.loc 1 275 0
 275 0080 0F23     		movs	r3, #15
 276 0082 FB18     		adds	r3, r7, r3
 277 0084 1B78     		ldrb	r3, [r3]
 278              	.L12:
 276:Drivers/STM32L0xx_HAL_Driver/Src/stm32l0xx_hal_flash_ex.c **** }
 279              		.loc 1 276 0
 280 0086 1800     		movs	r0, r3
 281 0088 BD46     		mov	sp, r7
 282 008a 05B0     		add	sp, sp, #20
 283              		@ sp needed
 284 008c 90BD     		pop	{r4, r7, pc}
 285              	.L17:
 286 008e C046     		.align	2
 287              	.L16:
 288 0090 00000000 		.word	pFlash
 289 0094 50C30000 		.word	50000
 290 0098 00200240 		.word	1073881088
 291              		.cfi_endproc
 292              	.LFE35:
 294              		.section	.text.HAL_FLASHEx_OBProgram,"ax",%progbits
 295              		.align	1
ARM GAS  /tmp/ccBA2iOh.s 			page 11


 296              		.global	HAL_FLASHEx_OBProgram
 297              		.syntax unified
 298              		.code	16
 299              		.thumb_func
 300              		.fpu softvfp
 302              	HAL_FLASHEx_OBProgram:
 303              	.LFB36:
 277:Drivers/STM32L0xx_HAL_Driver/Src/stm32l0xx_hal_flash_ex.c **** 
 278:Drivers/STM32L0xx_HAL_Driver/Src/stm32l0xx_hal_flash_ex.c **** /**
 279:Drivers/STM32L0xx_HAL_Driver/Src/stm32l0xx_hal_flash_ex.c ****   * @}
 280:Drivers/STM32L0xx_HAL_Driver/Src/stm32l0xx_hal_flash_ex.c ****   */
 281:Drivers/STM32L0xx_HAL_Driver/Src/stm32l0xx_hal_flash_ex.c **** 
 282:Drivers/STM32L0xx_HAL_Driver/Src/stm32l0xx_hal_flash_ex.c **** /** @defgroup FLASHEx_Exported_Functions_Group2 Option Bytes Programming functions
 283:Drivers/STM32L0xx_HAL_Driver/Src/stm32l0xx_hal_flash_ex.c ****  *  @brief   Option Bytes Programming functions
 284:Drivers/STM32L0xx_HAL_Driver/Src/stm32l0xx_hal_flash_ex.c ****  *
 285:Drivers/STM32L0xx_HAL_Driver/Src/stm32l0xx_hal_flash_ex.c **** @verbatim   
 286:Drivers/STM32L0xx_HAL_Driver/Src/stm32l0xx_hal_flash_ex.c ****   ==============================================================================
 287:Drivers/STM32L0xx_HAL_Driver/Src/stm32l0xx_hal_flash_ex.c ****                 ##### Option Bytes Programming functions ##### 
 288:Drivers/STM32L0xx_HAL_Driver/Src/stm32l0xx_hal_flash_ex.c ****   ==============================================================================  
 289:Drivers/STM32L0xx_HAL_Driver/Src/stm32l0xx_hal_flash_ex.c **** 
 290:Drivers/STM32L0xx_HAL_Driver/Src/stm32l0xx_hal_flash_ex.c ****     [..] Any operation of erase or program should follow these steps:
 291:Drivers/STM32L0xx_HAL_Driver/Src/stm32l0xx_hal_flash_ex.c ****     (#) Call the @ref HAL_FLASH_OB_Unlock() function to enable the Flash option control 
 292:Drivers/STM32L0xx_HAL_Driver/Src/stm32l0xx_hal_flash_ex.c ****         register access.
 293:Drivers/STM32L0xx_HAL_Driver/Src/stm32l0xx_hal_flash_ex.c ****     (#) Call following function to program the desired option bytes.
 294:Drivers/STM32L0xx_HAL_Driver/Src/stm32l0xx_hal_flash_ex.c ****         (++) @ref HAL_FLASHEx_OBProgram:
 295:Drivers/STM32L0xx_HAL_Driver/Src/stm32l0xx_hal_flash_ex.c ****          - To Enable/Disable the desired sector write protection.
 296:Drivers/STM32L0xx_HAL_Driver/Src/stm32l0xx_hal_flash_ex.c ****          - To set the desired read Protection Level.
 297:Drivers/STM32L0xx_HAL_Driver/Src/stm32l0xx_hal_flash_ex.c ****          - To configure the user option Bytes: IWDG, STOP and the Standby.
 298:Drivers/STM32L0xx_HAL_Driver/Src/stm32l0xx_hal_flash_ex.c ****          - To Set the BOR level.
 299:Drivers/STM32L0xx_HAL_Driver/Src/stm32l0xx_hal_flash_ex.c ****     (#) Once all needed option bytes to be programmed are correctly written, call the
 300:Drivers/STM32L0xx_HAL_Driver/Src/stm32l0xx_hal_flash_ex.c ****         @ref HAL_FLASH_OB_Launch(void) function to launch the Option Bytes programming process.
 301:Drivers/STM32L0xx_HAL_Driver/Src/stm32l0xx_hal_flash_ex.c ****     (#) Call the @ref HAL_FLASH_OB_Lock() to disable the Flash option control register access (reco
 302:Drivers/STM32L0xx_HAL_Driver/Src/stm32l0xx_hal_flash_ex.c ****         to protect the option Bytes against possible unwanted operations).
 303:Drivers/STM32L0xx_HAL_Driver/Src/stm32l0xx_hal_flash_ex.c **** 
 304:Drivers/STM32L0xx_HAL_Driver/Src/stm32l0xx_hal_flash_ex.c ****     [..] Proprietary code Read Out Protection (PcROP):
 305:Drivers/STM32L0xx_HAL_Driver/Src/stm32l0xx_hal_flash_ex.c ****     (#) The PcROP sector is selected by using the same option bytes as the Write
 306:Drivers/STM32L0xx_HAL_Driver/Src/stm32l0xx_hal_flash_ex.c ****         protection (nWRPi bits). As a result, these 2 options are exclusive each other.
 307:Drivers/STM32L0xx_HAL_Driver/Src/stm32l0xx_hal_flash_ex.c ****     (#) In order to activate the PcROP (change the function of the nWRPi option bits), 
 308:Drivers/STM32L0xx_HAL_Driver/Src/stm32l0xx_hal_flash_ex.c ****         the WPRMOD option bit must be activated.
 309:Drivers/STM32L0xx_HAL_Driver/Src/stm32l0xx_hal_flash_ex.c ****     (#) The active value of nWRPi bits is inverted when PCROP mode is active, this
 310:Drivers/STM32L0xx_HAL_Driver/Src/stm32l0xx_hal_flash_ex.c ****         means: if WPRMOD = 1 and nWRPi = 1 (default value), then the user sector "i"
 311:Drivers/STM32L0xx_HAL_Driver/Src/stm32l0xx_hal_flash_ex.c ****         is read/write protected.
 312:Drivers/STM32L0xx_HAL_Driver/Src/stm32l0xx_hal_flash_ex.c ****     (#) To activate PCROP mode for Flash sector(s), you need to call the following function:
 313:Drivers/STM32L0xx_HAL_Driver/Src/stm32l0xx_hal_flash_ex.c ****         (++) @ref HAL_FLASHEx_AdvOBProgram in selecting sectors to be read/write protected
 314:Drivers/STM32L0xx_HAL_Driver/Src/stm32l0xx_hal_flash_ex.c ****         (++) @ref HAL_FLASHEx_OB_SelectPCROP to enable the read/write protection
 315:Drivers/STM32L0xx_HAL_Driver/Src/stm32l0xx_hal_flash_ex.c **** 
 316:Drivers/STM32L0xx_HAL_Driver/Src/stm32l0xx_hal_flash_ex.c **** @endverbatim
 317:Drivers/STM32L0xx_HAL_Driver/Src/stm32l0xx_hal_flash_ex.c ****   * @{
 318:Drivers/STM32L0xx_HAL_Driver/Src/stm32l0xx_hal_flash_ex.c ****   */
 319:Drivers/STM32L0xx_HAL_Driver/Src/stm32l0xx_hal_flash_ex.c **** 
 320:Drivers/STM32L0xx_HAL_Driver/Src/stm32l0xx_hal_flash_ex.c **** /**
 321:Drivers/STM32L0xx_HAL_Driver/Src/stm32l0xx_hal_flash_ex.c ****   * @brief  Program option bytes
 322:Drivers/STM32L0xx_HAL_Driver/Src/stm32l0xx_hal_flash_ex.c ****   * @param  pOBInit pointer to an FLASH_OBInitStruct structure that
 323:Drivers/STM32L0xx_HAL_Driver/Src/stm32l0xx_hal_flash_ex.c ****   *         contains the configuration information for the programming.
 324:Drivers/STM32L0xx_HAL_Driver/Src/stm32l0xx_hal_flash_ex.c ****   * 
 325:Drivers/STM32L0xx_HAL_Driver/Src/stm32l0xx_hal_flash_ex.c ****   * @retval HAL_StatusTypeDef HAL Status
 326:Drivers/STM32L0xx_HAL_Driver/Src/stm32l0xx_hal_flash_ex.c ****   */
ARM GAS  /tmp/ccBA2iOh.s 			page 12


 327:Drivers/STM32L0xx_HAL_Driver/Src/stm32l0xx_hal_flash_ex.c **** HAL_StatusTypeDef HAL_FLASHEx_OBProgram(FLASH_OBProgramInitTypeDef *pOBInit)
 328:Drivers/STM32L0xx_HAL_Driver/Src/stm32l0xx_hal_flash_ex.c **** {
 304              		.loc 1 328 0
 305              		.cfi_startproc
 306              		@ args = 0, pretend = 0, frame = 16
 307              		@ frame_needed = 1, uses_anonymous_args = 0
 308 0000 90B5     		push	{r4, r7, lr}
 309              	.LCFI6:
 310              		.cfi_def_cfa_offset 12
 311              		.cfi_offset 4, -12
 312              		.cfi_offset 7, -8
 313              		.cfi_offset 14, -4
 314 0002 85B0     		sub	sp, sp, #20
 315              	.LCFI7:
 316              		.cfi_def_cfa_offset 32
 317 0004 00AF     		add	r7, sp, #0
 318              	.LCFI8:
 319              		.cfi_def_cfa_register 7
 320 0006 7860     		str	r0, [r7, #4]
 329:Drivers/STM32L0xx_HAL_Driver/Src/stm32l0xx_hal_flash_ex.c ****   HAL_StatusTypeDef status = HAL_ERROR;
 321              		.loc 1 329 0
 322 0008 0F23     		movs	r3, #15
 323 000a FB18     		adds	r3, r7, r3
 324 000c 0122     		movs	r2, #1
 325 000e 1A70     		strb	r2, [r3]
 330:Drivers/STM32L0xx_HAL_Driver/Src/stm32l0xx_hal_flash_ex.c ****   
 331:Drivers/STM32L0xx_HAL_Driver/Src/stm32l0xx_hal_flash_ex.c ****   /* Process Locked */
 332:Drivers/STM32L0xx_HAL_Driver/Src/stm32l0xx_hal_flash_ex.c ****   __HAL_LOCK(&pFlash);
 326              		.loc 1 332 0
 327 0010 4C4B     		ldr	r3, .L26
 328 0012 1B7C     		ldrb	r3, [r3, #16]
 329 0014 012B     		cmp	r3, #1
 330 0016 01D1     		bne	.L19
 331              		.loc 1 332 0 is_stmt 0 discriminator 1
 332 0018 0223     		movs	r3, #2
 333 001a 8EE0     		b	.L20
 334              	.L19:
 335              		.loc 1 332 0 discriminator 2
 336 001c 494B     		ldr	r3, .L26
 337 001e 0122     		movs	r2, #1
 338 0020 1A74     		strb	r2, [r3, #16]
 333:Drivers/STM32L0xx_HAL_Driver/Src/stm32l0xx_hal_flash_ex.c **** 
 334:Drivers/STM32L0xx_HAL_Driver/Src/stm32l0xx_hal_flash_ex.c ****   /* Check the parameters */
 335:Drivers/STM32L0xx_HAL_Driver/Src/stm32l0xx_hal_flash_ex.c ****   assert_param(IS_OPTIONBYTE(pOBInit->OptionType));
 336:Drivers/STM32L0xx_HAL_Driver/Src/stm32l0xx_hal_flash_ex.c **** 
 337:Drivers/STM32L0xx_HAL_Driver/Src/stm32l0xx_hal_flash_ex.c ****   /*Write protection configuration*/
 338:Drivers/STM32L0xx_HAL_Driver/Src/stm32l0xx_hal_flash_ex.c ****   if((pOBInit->OptionType & OPTIONBYTE_WRP) == OPTIONBYTE_WRP)
 339              		.loc 1 338 0 is_stmt 1 discriminator 2
 340 0022 7B68     		ldr	r3, [r7, #4]
 341 0024 1B68     		ldr	r3, [r3]
 342 0026 0122     		movs	r2, #1
 343 0028 1340     		ands	r3, r2
 344 002a 17D0     		beq	.L21
 339:Drivers/STM32L0xx_HAL_Driver/Src/stm32l0xx_hal_flash_ex.c ****   {
 340:Drivers/STM32L0xx_HAL_Driver/Src/stm32l0xx_hal_flash_ex.c ****     assert_param(IS_WRPSTATE(pOBInit->WRPState));
 341:Drivers/STM32L0xx_HAL_Driver/Src/stm32l0xx_hal_flash_ex.c **** #if defined(STM32L071xx) || defined(STM32L072xx) || defined(STM32L073xx) || defined(STM32L081xx) ||
 342:Drivers/STM32L0xx_HAL_Driver/Src/stm32l0xx_hal_flash_ex.c ****     status = FLASH_OB_ProtectedSectorsConfig(pOBInit->WRPSector, pOBInit->WRPSector2, pOBInit->WRPS
ARM GAS  /tmp/ccBA2iOh.s 			page 13


 343:Drivers/STM32L0xx_HAL_Driver/Src/stm32l0xx_hal_flash_ex.c **** #else
 344:Drivers/STM32L0xx_HAL_Driver/Src/stm32l0xx_hal_flash_ex.c ****     status = FLASH_OB_ProtectedSectorsConfig(pOBInit->WRPSector, pOBInit->WRPState);
 345              		.loc 1 344 0
 346 002c 7B68     		ldr	r3, [r7, #4]
 347 002e 9A68     		ldr	r2, [r3, #8]
 348 0030 7B68     		ldr	r3, [r7, #4]
 349 0032 5B68     		ldr	r3, [r3, #4]
 350 0034 0F21     		movs	r1, #15
 351 0036 7C18     		adds	r4, r7, r1
 352 0038 1900     		movs	r1, r3
 353 003a 1000     		movs	r0, r2
 354 003c FFF7FEFF 		bl	FLASH_OB_ProtectedSectorsConfig
 355 0040 0300     		movs	r3, r0
 356 0042 2370     		strb	r3, [r4]
 345:Drivers/STM32L0xx_HAL_Driver/Src/stm32l0xx_hal_flash_ex.c **** #endif
 346:Drivers/STM32L0xx_HAL_Driver/Src/stm32l0xx_hal_flash_ex.c ****     if (status != HAL_OK)
 357              		.loc 1 346 0
 358 0044 0F23     		movs	r3, #15
 359 0046 FB18     		adds	r3, r7, r3
 360 0048 1B78     		ldrb	r3, [r3]
 361 004a 002B     		cmp	r3, #0
 362 004c 06D0     		beq	.L21
 347:Drivers/STM32L0xx_HAL_Driver/Src/stm32l0xx_hal_flash_ex.c ****     {
 348:Drivers/STM32L0xx_HAL_Driver/Src/stm32l0xx_hal_flash_ex.c ****       /* Process Unlocked */
 349:Drivers/STM32L0xx_HAL_Driver/Src/stm32l0xx_hal_flash_ex.c ****       __HAL_UNLOCK(&pFlash);
 363              		.loc 1 349 0
 364 004e 3D4B     		ldr	r3, .L26
 365 0050 0022     		movs	r2, #0
 366 0052 1A74     		strb	r2, [r3, #16]
 350:Drivers/STM32L0xx_HAL_Driver/Src/stm32l0xx_hal_flash_ex.c ****       return status;
 367              		.loc 1 350 0
 368 0054 0F23     		movs	r3, #15
 369 0056 FB18     		adds	r3, r7, r3
 370 0058 1B78     		ldrb	r3, [r3]
 371 005a 6EE0     		b	.L20
 372              	.L21:
 351:Drivers/STM32L0xx_HAL_Driver/Src/stm32l0xx_hal_flash_ex.c ****     }
 352:Drivers/STM32L0xx_HAL_Driver/Src/stm32l0xx_hal_flash_ex.c ****   }
 353:Drivers/STM32L0xx_HAL_Driver/Src/stm32l0xx_hal_flash_ex.c ****   
 354:Drivers/STM32L0xx_HAL_Driver/Src/stm32l0xx_hal_flash_ex.c ****   /* Read protection configuration*/
 355:Drivers/STM32L0xx_HAL_Driver/Src/stm32l0xx_hal_flash_ex.c ****   if((pOBInit->OptionType & OPTIONBYTE_RDP) == OPTIONBYTE_RDP)
 373              		.loc 1 355 0
 374 005c 7B68     		ldr	r3, [r7, #4]
 375 005e 1B68     		ldr	r3, [r3]
 376 0060 0222     		movs	r2, #2
 377 0062 1340     		ands	r3, r2
 378 0064 14D0     		beq	.L22
 356:Drivers/STM32L0xx_HAL_Driver/Src/stm32l0xx_hal_flash_ex.c ****   {
 357:Drivers/STM32L0xx_HAL_Driver/Src/stm32l0xx_hal_flash_ex.c ****     status = FLASH_OB_RDPConfig(pOBInit->RDPLevel);
 379              		.loc 1 357 0
 380 0066 7B68     		ldr	r3, [r7, #4]
 381 0068 1B7B     		ldrb	r3, [r3, #12]
 382 006a 0F22     		movs	r2, #15
 383 006c BC18     		adds	r4, r7, r2
 384 006e 1800     		movs	r0, r3
 385 0070 FFF7FEFF 		bl	FLASH_OB_RDPConfig
 386 0074 0300     		movs	r3, r0
ARM GAS  /tmp/ccBA2iOh.s 			page 14


 387 0076 2370     		strb	r3, [r4]
 358:Drivers/STM32L0xx_HAL_Driver/Src/stm32l0xx_hal_flash_ex.c ****     if (status != HAL_OK)
 388              		.loc 1 358 0
 389 0078 0F23     		movs	r3, #15
 390 007a FB18     		adds	r3, r7, r3
 391 007c 1B78     		ldrb	r3, [r3]
 392 007e 002B     		cmp	r3, #0
 393 0080 06D0     		beq	.L22
 359:Drivers/STM32L0xx_HAL_Driver/Src/stm32l0xx_hal_flash_ex.c ****     {
 360:Drivers/STM32L0xx_HAL_Driver/Src/stm32l0xx_hal_flash_ex.c ****       /* Process Unlocked */
 361:Drivers/STM32L0xx_HAL_Driver/Src/stm32l0xx_hal_flash_ex.c ****       __HAL_UNLOCK(&pFlash);
 394              		.loc 1 361 0
 395 0082 304B     		ldr	r3, .L26
 396 0084 0022     		movs	r2, #0
 397 0086 1A74     		strb	r2, [r3, #16]
 362:Drivers/STM32L0xx_HAL_Driver/Src/stm32l0xx_hal_flash_ex.c ****       return status;
 398              		.loc 1 362 0
 399 0088 0F23     		movs	r3, #15
 400 008a FB18     		adds	r3, r7, r3
 401 008c 1B78     		ldrb	r3, [r3]
 402 008e 54E0     		b	.L20
 403              	.L22:
 363:Drivers/STM32L0xx_HAL_Driver/Src/stm32l0xx_hal_flash_ex.c ****     }
 364:Drivers/STM32L0xx_HAL_Driver/Src/stm32l0xx_hal_flash_ex.c ****   }
 365:Drivers/STM32L0xx_HAL_Driver/Src/stm32l0xx_hal_flash_ex.c ****   
 366:Drivers/STM32L0xx_HAL_Driver/Src/stm32l0xx_hal_flash_ex.c ****   /* USER  configuration*/
 367:Drivers/STM32L0xx_HAL_Driver/Src/stm32l0xx_hal_flash_ex.c ****   if((pOBInit->OptionType & OPTIONBYTE_USER) == OPTIONBYTE_USER)
 404              		.loc 1 367 0
 405 0090 7B68     		ldr	r3, [r7, #4]
 406 0092 1B68     		ldr	r3, [r3]
 407 0094 0422     		movs	r2, #4
 408 0096 1340     		ands	r3, r2
 409 0098 21D0     		beq	.L23
 368:Drivers/STM32L0xx_HAL_Driver/Src/stm32l0xx_hal_flash_ex.c ****   {
 369:Drivers/STM32L0xx_HAL_Driver/Src/stm32l0xx_hal_flash_ex.c ****     status = FLASH_OB_UserConfig(pOBInit->USERConfig & OB_IWDG_SW, 
 410              		.loc 1 369 0
 411 009a 7B68     		ldr	r3, [r7, #4]
 412 009c 9B7B     		ldrb	r3, [r3, #14]
 413 009e 1022     		movs	r2, #16
 414 00a0 1340     		ands	r3, r2
 415 00a2 D8B2     		uxtb	r0, r3
 370:Drivers/STM32L0xx_HAL_Driver/Src/stm32l0xx_hal_flash_ex.c ****                                  pOBInit->USERConfig & OB_STOP_NORST,
 416              		.loc 1 370 0
 417 00a4 7B68     		ldr	r3, [r7, #4]
 418 00a6 9B7B     		ldrb	r3, [r3, #14]
 369:Drivers/STM32L0xx_HAL_Driver/Src/stm32l0xx_hal_flash_ex.c ****                                  pOBInit->USERConfig & OB_STOP_NORST,
 419              		.loc 1 369 0
 420 00a8 2022     		movs	r2, #32
 421 00aa 1340     		ands	r3, r2
 422 00ac D9B2     		uxtb	r1, r3
 371:Drivers/STM32L0xx_HAL_Driver/Src/stm32l0xx_hal_flash_ex.c ****                                  pOBInit->USERConfig & OB_STDBY_NORST);
 423              		.loc 1 371 0
 424 00ae 7B68     		ldr	r3, [r7, #4]
 425 00b0 9B7B     		ldrb	r3, [r3, #14]
 369:Drivers/STM32L0xx_HAL_Driver/Src/stm32l0xx_hal_flash_ex.c ****                                  pOBInit->USERConfig & OB_STOP_NORST,
 426              		.loc 1 369 0
 427 00b2 4022     		movs	r2, #64
ARM GAS  /tmp/ccBA2iOh.s 			page 15


 428 00b4 1340     		ands	r3, r2
 429 00b6 DBB2     		uxtb	r3, r3
 430 00b8 0F22     		movs	r2, #15
 431 00ba BC18     		adds	r4, r7, r2
 432 00bc 1A00     		movs	r2, r3
 433 00be FFF7FEFF 		bl	FLASH_OB_UserConfig
 434 00c2 0300     		movs	r3, r0
 435 00c4 2370     		strb	r3, [r4]
 372:Drivers/STM32L0xx_HAL_Driver/Src/stm32l0xx_hal_flash_ex.c ****     if (status != HAL_OK)
 436              		.loc 1 372 0
 437 00c6 0F23     		movs	r3, #15
 438 00c8 FB18     		adds	r3, r7, r3
 439 00ca 1B78     		ldrb	r3, [r3]
 440 00cc 002B     		cmp	r3, #0
 441 00ce 06D0     		beq	.L23
 373:Drivers/STM32L0xx_HAL_Driver/Src/stm32l0xx_hal_flash_ex.c ****     {
 374:Drivers/STM32L0xx_HAL_Driver/Src/stm32l0xx_hal_flash_ex.c ****       /* Process Unlocked */
 375:Drivers/STM32L0xx_HAL_Driver/Src/stm32l0xx_hal_flash_ex.c ****       __HAL_UNLOCK(&pFlash);
 442              		.loc 1 375 0
 443 00d0 1C4B     		ldr	r3, .L26
 444 00d2 0022     		movs	r2, #0
 445 00d4 1A74     		strb	r2, [r3, #16]
 376:Drivers/STM32L0xx_HAL_Driver/Src/stm32l0xx_hal_flash_ex.c ****       return status;
 446              		.loc 1 376 0
 447 00d6 0F23     		movs	r3, #15
 448 00d8 FB18     		adds	r3, r7, r3
 449 00da 1B78     		ldrb	r3, [r3]
 450 00dc 2DE0     		b	.L20
 451              	.L23:
 377:Drivers/STM32L0xx_HAL_Driver/Src/stm32l0xx_hal_flash_ex.c ****     }
 378:Drivers/STM32L0xx_HAL_Driver/Src/stm32l0xx_hal_flash_ex.c ****   }
 379:Drivers/STM32L0xx_HAL_Driver/Src/stm32l0xx_hal_flash_ex.c **** 
 380:Drivers/STM32L0xx_HAL_Driver/Src/stm32l0xx_hal_flash_ex.c ****   /* BOR Level  configuration*/
 381:Drivers/STM32L0xx_HAL_Driver/Src/stm32l0xx_hal_flash_ex.c ****   if((pOBInit->OptionType & OPTIONBYTE_BOR) == OPTIONBYTE_BOR)
 452              		.loc 1 381 0
 453 00de 7B68     		ldr	r3, [r7, #4]
 454 00e0 1B68     		ldr	r3, [r3]
 455 00e2 0822     		movs	r2, #8
 456 00e4 1340     		ands	r3, r2
 457 00e6 14D0     		beq	.L24
 382:Drivers/STM32L0xx_HAL_Driver/Src/stm32l0xx_hal_flash_ex.c ****   {
 383:Drivers/STM32L0xx_HAL_Driver/Src/stm32l0xx_hal_flash_ex.c ****     status = FLASH_OB_BORConfig(pOBInit->BORLevel);
 458              		.loc 1 383 0
 459 00e8 7B68     		ldr	r3, [r7, #4]
 460 00ea 5B7B     		ldrb	r3, [r3, #13]
 461 00ec 0F22     		movs	r2, #15
 462 00ee BC18     		adds	r4, r7, r2
 463 00f0 1800     		movs	r0, r3
 464 00f2 FFF7FEFF 		bl	FLASH_OB_BORConfig
 465 00f6 0300     		movs	r3, r0
 466 00f8 2370     		strb	r3, [r4]
 384:Drivers/STM32L0xx_HAL_Driver/Src/stm32l0xx_hal_flash_ex.c ****     if (status != HAL_OK)
 467              		.loc 1 384 0
 468 00fa 0F23     		movs	r3, #15
 469 00fc FB18     		adds	r3, r7, r3
 470 00fe 1B78     		ldrb	r3, [r3]
 471 0100 002B     		cmp	r3, #0
ARM GAS  /tmp/ccBA2iOh.s 			page 16


 472 0102 06D0     		beq	.L24
 385:Drivers/STM32L0xx_HAL_Driver/Src/stm32l0xx_hal_flash_ex.c ****     {
 386:Drivers/STM32L0xx_HAL_Driver/Src/stm32l0xx_hal_flash_ex.c ****       /* Process Unlocked */
 387:Drivers/STM32L0xx_HAL_Driver/Src/stm32l0xx_hal_flash_ex.c ****       __HAL_UNLOCK(&pFlash);
 473              		.loc 1 387 0
 474 0104 0F4B     		ldr	r3, .L26
 475 0106 0022     		movs	r2, #0
 476 0108 1A74     		strb	r2, [r3, #16]
 388:Drivers/STM32L0xx_HAL_Driver/Src/stm32l0xx_hal_flash_ex.c ****       return status;
 477              		.loc 1 388 0
 478 010a 0F23     		movs	r3, #15
 479 010c FB18     		adds	r3, r7, r3
 480 010e 1B78     		ldrb	r3, [r3]
 481 0110 13E0     		b	.L20
 482              	.L24:
 389:Drivers/STM32L0xx_HAL_Driver/Src/stm32l0xx_hal_flash_ex.c ****     }
 390:Drivers/STM32L0xx_HAL_Driver/Src/stm32l0xx_hal_flash_ex.c ****   }
 391:Drivers/STM32L0xx_HAL_Driver/Src/stm32l0xx_hal_flash_ex.c **** 
 392:Drivers/STM32L0xx_HAL_Driver/Src/stm32l0xx_hal_flash_ex.c ****   /* Program BOOT Bit1 config option byte */
 393:Drivers/STM32L0xx_HAL_Driver/Src/stm32l0xx_hal_flash_ex.c ****   if ((pOBInit->OptionType & OPTIONBYTE_BOOT_BIT1) == OPTIONBYTE_BOOT_BIT1)
 483              		.loc 1 393 0
 484 0112 7B68     		ldr	r3, [r7, #4]
 485 0114 1B68     		ldr	r3, [r3]
 486 0116 1022     		movs	r2, #16
 487 0118 1340     		ands	r3, r2
 488 011a 08D0     		beq	.L25
 394:Drivers/STM32L0xx_HAL_Driver/Src/stm32l0xx_hal_flash_ex.c ****   {
 395:Drivers/STM32L0xx_HAL_Driver/Src/stm32l0xx_hal_flash_ex.c ****     status = FLASH_OB_BOOTBit1Config(pOBInit->BOOTBit1Config);
 489              		.loc 1 395 0
 490 011c 7B68     		ldr	r3, [r7, #4]
 491 011e DB7B     		ldrb	r3, [r3, #15]
 492 0120 0F22     		movs	r2, #15
 493 0122 BC18     		adds	r4, r7, r2
 494 0124 1800     		movs	r0, r3
 495 0126 FFF7FEFF 		bl	FLASH_OB_BOOTBit1Config
 496 012a 0300     		movs	r3, r0
 497 012c 2370     		strb	r3, [r4]
 498              	.L25:
 396:Drivers/STM32L0xx_HAL_Driver/Src/stm32l0xx_hal_flash_ex.c ****   }
 397:Drivers/STM32L0xx_HAL_Driver/Src/stm32l0xx_hal_flash_ex.c ****   /* Process Unlocked */
 398:Drivers/STM32L0xx_HAL_Driver/Src/stm32l0xx_hal_flash_ex.c ****   __HAL_UNLOCK(&pFlash);
 499              		.loc 1 398 0
 500 012e 054B     		ldr	r3, .L26
 501 0130 0022     		movs	r2, #0
 502 0132 1A74     		strb	r2, [r3, #16]
 399:Drivers/STM32L0xx_HAL_Driver/Src/stm32l0xx_hal_flash_ex.c **** 
 400:Drivers/STM32L0xx_HAL_Driver/Src/stm32l0xx_hal_flash_ex.c ****   return status;
 503              		.loc 1 400 0
 504 0134 0F23     		movs	r3, #15
 505 0136 FB18     		adds	r3, r7, r3
 506 0138 1B78     		ldrb	r3, [r3]
 507              	.L20:
 401:Drivers/STM32L0xx_HAL_Driver/Src/stm32l0xx_hal_flash_ex.c **** }
 508              		.loc 1 401 0
 509 013a 1800     		movs	r0, r3
 510 013c BD46     		mov	sp, r7
 511 013e 05B0     		add	sp, sp, #20
ARM GAS  /tmp/ccBA2iOh.s 			page 17


 512              		@ sp needed
 513 0140 90BD     		pop	{r4, r7, pc}
 514              	.L27:
 515 0142 C046     		.align	2
 516              	.L26:
 517 0144 00000000 		.word	pFlash
 518              		.cfi_endproc
 519              	.LFE36:
 521              		.section	.text.HAL_FLASHEx_OBGetConfig,"ax",%progbits
 522              		.align	1
 523              		.global	HAL_FLASHEx_OBGetConfig
 524              		.syntax unified
 525              		.code	16
 526              		.thumb_func
 527              		.fpu softvfp
 529              	HAL_FLASHEx_OBGetConfig:
 530              	.LFB37:
 402:Drivers/STM32L0xx_HAL_Driver/Src/stm32l0xx_hal_flash_ex.c **** 
 403:Drivers/STM32L0xx_HAL_Driver/Src/stm32l0xx_hal_flash_ex.c **** /**
 404:Drivers/STM32L0xx_HAL_Driver/Src/stm32l0xx_hal_flash_ex.c ****   * @brief   Get the Option byte configuration
 405:Drivers/STM32L0xx_HAL_Driver/Src/stm32l0xx_hal_flash_ex.c ****   * @param  pOBInit pointer to an FLASH_OBInitStruct structure that
 406:Drivers/STM32L0xx_HAL_Driver/Src/stm32l0xx_hal_flash_ex.c ****   *         contains the configuration information for the programming.
 407:Drivers/STM32L0xx_HAL_Driver/Src/stm32l0xx_hal_flash_ex.c ****   * 
 408:Drivers/STM32L0xx_HAL_Driver/Src/stm32l0xx_hal_flash_ex.c ****   * @retval None
 409:Drivers/STM32L0xx_HAL_Driver/Src/stm32l0xx_hal_flash_ex.c ****   */
 410:Drivers/STM32L0xx_HAL_Driver/Src/stm32l0xx_hal_flash_ex.c **** void HAL_FLASHEx_OBGetConfig(FLASH_OBProgramInitTypeDef *pOBInit)
 411:Drivers/STM32L0xx_HAL_Driver/Src/stm32l0xx_hal_flash_ex.c **** {
 531              		.loc 1 411 0
 532              		.cfi_startproc
 533              		@ args = 0, pretend = 0, frame = 8
 534              		@ frame_needed = 1, uses_anonymous_args = 0
 535 0000 80B5     		push	{r7, lr}
 536              	.LCFI9:
 537              		.cfi_def_cfa_offset 8
 538              		.cfi_offset 7, -8
 539              		.cfi_offset 14, -4
 540 0002 82B0     		sub	sp, sp, #8
 541              	.LCFI10:
 542              		.cfi_def_cfa_offset 16
 543 0004 00AF     		add	r7, sp, #0
 544              	.LCFI11:
 545              		.cfi_def_cfa_register 7
 546 0006 7860     		str	r0, [r7, #4]
 412:Drivers/STM32L0xx_HAL_Driver/Src/stm32l0xx_hal_flash_ex.c ****   pOBInit->OptionType = OPTIONBYTE_WRP | OPTIONBYTE_RDP | OPTIONBYTE_USER | OPTIONBYTE_BOR;
 547              		.loc 1 412 0
 548 0008 7B68     		ldr	r3, [r7, #4]
 549 000a 0F22     		movs	r2, #15
 550 000c 1A60     		str	r2, [r3]
 413:Drivers/STM32L0xx_HAL_Driver/Src/stm32l0xx_hal_flash_ex.c **** 
 414:Drivers/STM32L0xx_HAL_Driver/Src/stm32l0xx_hal_flash_ex.c ****   /* Get WRP sector */
 415:Drivers/STM32L0xx_HAL_Driver/Src/stm32l0xx_hal_flash_ex.c ****   pOBInit->WRPSector = FLASH_OB_GetWRP();
 551              		.loc 1 415 0
 552 000e FFF7FEFF 		bl	FLASH_OB_GetWRP
 553 0012 0200     		movs	r2, r0
 554 0014 7B68     		ldr	r3, [r7, #4]
 555 0016 9A60     		str	r2, [r3, #8]
 416:Drivers/STM32L0xx_HAL_Driver/Src/stm32l0xx_hal_flash_ex.c **** 
ARM GAS  /tmp/ccBA2iOh.s 			page 18


 417:Drivers/STM32L0xx_HAL_Driver/Src/stm32l0xx_hal_flash_ex.c **** #if defined(STM32L071xx) || defined(STM32L072xx) || defined(STM32L073xx) || defined(STM32L081xx) ||
 418:Drivers/STM32L0xx_HAL_Driver/Src/stm32l0xx_hal_flash_ex.c ****   pOBInit->WRPSector2 = FLASH_OB_GetWRP2();
 419:Drivers/STM32L0xx_HAL_Driver/Src/stm32l0xx_hal_flash_ex.c **** #endif
 420:Drivers/STM32L0xx_HAL_Driver/Src/stm32l0xx_hal_flash_ex.c **** 
 421:Drivers/STM32L0xx_HAL_Driver/Src/stm32l0xx_hal_flash_ex.c ****   /*Get RDP Level*/
 422:Drivers/STM32L0xx_HAL_Driver/Src/stm32l0xx_hal_flash_ex.c ****   pOBInit->RDPLevel   = FLASH_OB_GetRDP();
 556              		.loc 1 422 0
 557 0018 FFF7FEFF 		bl	FLASH_OB_GetRDP
 558 001c 0300     		movs	r3, r0
 559 001e 1A00     		movs	r2, r3
 560 0020 7B68     		ldr	r3, [r7, #4]
 561 0022 1A73     		strb	r2, [r3, #12]
 423:Drivers/STM32L0xx_HAL_Driver/Src/stm32l0xx_hal_flash_ex.c **** 
 424:Drivers/STM32L0xx_HAL_Driver/Src/stm32l0xx_hal_flash_ex.c ****   /*Get USER*/
 425:Drivers/STM32L0xx_HAL_Driver/Src/stm32l0xx_hal_flash_ex.c ****   pOBInit->USERConfig = FLASH_OB_GetUser();
 562              		.loc 1 425 0
 563 0024 FFF7FEFF 		bl	FLASH_OB_GetUser
 564 0028 0300     		movs	r3, r0
 565 002a 1A00     		movs	r2, r3
 566 002c 7B68     		ldr	r3, [r7, #4]
 567 002e 9A73     		strb	r2, [r3, #14]
 426:Drivers/STM32L0xx_HAL_Driver/Src/stm32l0xx_hal_flash_ex.c **** 
 427:Drivers/STM32L0xx_HAL_Driver/Src/stm32l0xx_hal_flash_ex.c ****   /*Get BOR Level*/
 428:Drivers/STM32L0xx_HAL_Driver/Src/stm32l0xx_hal_flash_ex.c ****   pOBInit->BORLevel   = FLASH_OB_GetBOR();
 568              		.loc 1 428 0
 569 0030 FFF7FEFF 		bl	FLASH_OB_GetBOR
 570 0034 0300     		movs	r3, r0
 571 0036 1A00     		movs	r2, r3
 572 0038 7B68     		ldr	r3, [r7, #4]
 573 003a 5A73     		strb	r2, [r3, #13]
 429:Drivers/STM32L0xx_HAL_Driver/Src/stm32l0xx_hal_flash_ex.c **** 
 430:Drivers/STM32L0xx_HAL_Driver/Src/stm32l0xx_hal_flash_ex.c ****   /* Get BOOT bit 1 config OB */
 431:Drivers/STM32L0xx_HAL_Driver/Src/stm32l0xx_hal_flash_ex.c ****   pOBInit->BOOTBit1Config = FLASH_OB_GetBOOTBit1();
 574              		.loc 1 431 0
 575 003c FFF7FEFF 		bl	FLASH_OB_GetBOOTBit1
 576 0040 0300     		movs	r3, r0
 577 0042 1A00     		movs	r2, r3
 578 0044 7B68     		ldr	r3, [r7, #4]
 579 0046 DA73     		strb	r2, [r3, #15]
 432:Drivers/STM32L0xx_HAL_Driver/Src/stm32l0xx_hal_flash_ex.c **** }
 580              		.loc 1 432 0
 581 0048 C046     		nop
 582 004a BD46     		mov	sp, r7
 583 004c 02B0     		add	sp, sp, #8
 584              		@ sp needed
 585 004e 80BD     		pop	{r7, pc}
 586              		.cfi_endproc
 587              	.LFE37:
 589              		.section	.text.HAL_FLASHEx_AdvOBProgram,"ax",%progbits
 590              		.align	1
 591              		.global	HAL_FLASHEx_AdvOBProgram
 592              		.syntax unified
 593              		.code	16
 594              		.thumb_func
 595              		.fpu softvfp
 597              	HAL_FLASHEx_AdvOBProgram:
 598              	.LFB38:
ARM GAS  /tmp/ccBA2iOh.s 			page 19


 433:Drivers/STM32L0xx_HAL_Driver/Src/stm32l0xx_hal_flash_ex.c **** 
 434:Drivers/STM32L0xx_HAL_Driver/Src/stm32l0xx_hal_flash_ex.c **** #if defined(FLASH_OPTR_WPRMOD) || defined(FLASH_OPTR_BFB2)
 435:Drivers/STM32L0xx_HAL_Driver/Src/stm32l0xx_hal_flash_ex.c ****     
 436:Drivers/STM32L0xx_HAL_Driver/Src/stm32l0xx_hal_flash_ex.c **** /**
 437:Drivers/STM32L0xx_HAL_Driver/Src/stm32l0xx_hal_flash_ex.c ****   * @brief  Program option bytes
 438:Drivers/STM32L0xx_HAL_Driver/Src/stm32l0xx_hal_flash_ex.c ****   * @param  pAdvOBInit pointer to an FLASH_AdvOBProgramInitTypeDef structure that
 439:Drivers/STM32L0xx_HAL_Driver/Src/stm32l0xx_hal_flash_ex.c ****   *         contains the configuration information for the programming.
 440:Drivers/STM32L0xx_HAL_Driver/Src/stm32l0xx_hal_flash_ex.c ****   * 
 441:Drivers/STM32L0xx_HAL_Driver/Src/stm32l0xx_hal_flash_ex.c ****   * @retval HAL_StatusTypeDef HAL Status
 442:Drivers/STM32L0xx_HAL_Driver/Src/stm32l0xx_hal_flash_ex.c ****   */
 443:Drivers/STM32L0xx_HAL_Driver/Src/stm32l0xx_hal_flash_ex.c **** HAL_StatusTypeDef HAL_FLASHEx_AdvOBProgram (FLASH_AdvOBProgramInitTypeDef *pAdvOBInit)
 444:Drivers/STM32L0xx_HAL_Driver/Src/stm32l0xx_hal_flash_ex.c **** {
 599              		.loc 1 444 0
 600              		.cfi_startproc
 601              		@ args = 0, pretend = 0, frame = 16
 602              		@ frame_needed = 1, uses_anonymous_args = 0
 603 0000 90B5     		push	{r4, r7, lr}
 604              	.LCFI12:
 605              		.cfi_def_cfa_offset 12
 606              		.cfi_offset 4, -12
 607              		.cfi_offset 7, -8
 608              		.cfi_offset 14, -4
 609 0002 85B0     		sub	sp, sp, #20
 610              	.LCFI13:
 611              		.cfi_def_cfa_offset 32
 612 0004 00AF     		add	r7, sp, #0
 613              	.LCFI14:
 614              		.cfi_def_cfa_register 7
 615 0006 7860     		str	r0, [r7, #4]
 445:Drivers/STM32L0xx_HAL_Driver/Src/stm32l0xx_hal_flash_ex.c ****   HAL_StatusTypeDef status = HAL_ERROR;
 616              		.loc 1 445 0
 617 0008 0F23     		movs	r3, #15
 618 000a FB18     		adds	r3, r7, r3
 619 000c 0122     		movs	r2, #1
 620 000e 1A70     		strb	r2, [r3]
 446:Drivers/STM32L0xx_HAL_Driver/Src/stm32l0xx_hal_flash_ex.c ****   
 447:Drivers/STM32L0xx_HAL_Driver/Src/stm32l0xx_hal_flash_ex.c ****   /* Check the parameters */
 448:Drivers/STM32L0xx_HAL_Driver/Src/stm32l0xx_hal_flash_ex.c ****   assert_param(IS_OBEX(pAdvOBInit->OptionType));
 449:Drivers/STM32L0xx_HAL_Driver/Src/stm32l0xx_hal_flash_ex.c **** 
 450:Drivers/STM32L0xx_HAL_Driver/Src/stm32l0xx_hal_flash_ex.c **** #if defined(FLASH_OPTR_WPRMOD)
 451:Drivers/STM32L0xx_HAL_Driver/Src/stm32l0xx_hal_flash_ex.c ****     
 452:Drivers/STM32L0xx_HAL_Driver/Src/stm32l0xx_hal_flash_ex.c ****   /* Program PCROP option byte*/
 453:Drivers/STM32L0xx_HAL_Driver/Src/stm32l0xx_hal_flash_ex.c ****   if ((pAdvOBInit->OptionType & OPTIONBYTE_PCROP) == OPTIONBYTE_PCROP)
 621              		.loc 1 453 0
 622 0010 7B68     		ldr	r3, [r7, #4]
 623 0012 1B68     		ldr	r3, [r3]
 624 0014 0122     		movs	r2, #1
 625 0016 1340     		ands	r3, r2
 626 0018 0BD0     		beq	.L30
 454:Drivers/STM32L0xx_HAL_Driver/Src/stm32l0xx_hal_flash_ex.c ****   {
 455:Drivers/STM32L0xx_HAL_Driver/Src/stm32l0xx_hal_flash_ex.c ****     /* Check the parameters */
 456:Drivers/STM32L0xx_HAL_Driver/Src/stm32l0xx_hal_flash_ex.c ****     assert_param(IS_PCROPSTATE(pAdvOBInit->PCROPState));
 457:Drivers/STM32L0xx_HAL_Driver/Src/stm32l0xx_hal_flash_ex.c **** #if defined(STM32L071xx) || defined(STM32L072xx) || defined(STM32L073xx) || defined(STM32L081xx) ||
 458:Drivers/STM32L0xx_HAL_Driver/Src/stm32l0xx_hal_flash_ex.c ****     status = FLASH_OB_ProtectedSectorsConfig(pAdvOBInit->PCROPSector, pAdvOBInit->PCROPSector2, pAd
 459:Drivers/STM32L0xx_HAL_Driver/Src/stm32l0xx_hal_flash_ex.c **** #else
 460:Drivers/STM32L0xx_HAL_Driver/Src/stm32l0xx_hal_flash_ex.c ****     status = FLASH_OB_ProtectedSectorsConfig(pAdvOBInit->PCROPSector, pAdvOBInit->PCROPState);
 627              		.loc 1 460 0
ARM GAS  /tmp/ccBA2iOh.s 			page 20


 628 001a 7B68     		ldr	r3, [r7, #4]
 629 001c 9A68     		ldr	r2, [r3, #8]
 630 001e 7B68     		ldr	r3, [r7, #4]
 631 0020 5B68     		ldr	r3, [r3, #4]
 632 0022 0F21     		movs	r1, #15
 633 0024 7C18     		adds	r4, r7, r1
 634 0026 1900     		movs	r1, r3
 635 0028 1000     		movs	r0, r2
 636 002a FFF7FEFF 		bl	FLASH_OB_ProtectedSectorsConfig
 637 002e 0300     		movs	r3, r0
 638 0030 2370     		strb	r3, [r4]
 639              	.L30:
 461:Drivers/STM32L0xx_HAL_Driver/Src/stm32l0xx_hal_flash_ex.c **** #endif
 462:Drivers/STM32L0xx_HAL_Driver/Src/stm32l0xx_hal_flash_ex.c ****   }
 463:Drivers/STM32L0xx_HAL_Driver/Src/stm32l0xx_hal_flash_ex.c ****   
 464:Drivers/STM32L0xx_HAL_Driver/Src/stm32l0xx_hal_flash_ex.c **** #endif /* FLASH_OPTR_WPRMOD */
 465:Drivers/STM32L0xx_HAL_Driver/Src/stm32l0xx_hal_flash_ex.c **** 
 466:Drivers/STM32L0xx_HAL_Driver/Src/stm32l0xx_hal_flash_ex.c **** #if defined(FLASH_OPTR_BFB2)
 467:Drivers/STM32L0xx_HAL_Driver/Src/stm32l0xx_hal_flash_ex.c ****     
 468:Drivers/STM32L0xx_HAL_Driver/Src/stm32l0xx_hal_flash_ex.c ****   /* Program BOOT config option byte */
 469:Drivers/STM32L0xx_HAL_Driver/Src/stm32l0xx_hal_flash_ex.c ****   if ((pAdvOBInit->OptionType & OPTIONBYTE_BOOTCONFIG) == OPTIONBYTE_BOOTCONFIG)
 470:Drivers/STM32L0xx_HAL_Driver/Src/stm32l0xx_hal_flash_ex.c ****   {
 471:Drivers/STM32L0xx_HAL_Driver/Src/stm32l0xx_hal_flash_ex.c ****     status = FLASH_OB_BootConfig(pAdvOBInit->BootConfig);
 472:Drivers/STM32L0xx_HAL_Driver/Src/stm32l0xx_hal_flash_ex.c ****   }
 473:Drivers/STM32L0xx_HAL_Driver/Src/stm32l0xx_hal_flash_ex.c ****   
 474:Drivers/STM32L0xx_HAL_Driver/Src/stm32l0xx_hal_flash_ex.c **** #endif /* FLASH_OPTR_BFB2 */
 475:Drivers/STM32L0xx_HAL_Driver/Src/stm32l0xx_hal_flash_ex.c **** 
 476:Drivers/STM32L0xx_HAL_Driver/Src/stm32l0xx_hal_flash_ex.c ****   return status;
 640              		.loc 1 476 0
 641 0032 0F23     		movs	r3, #15
 642 0034 FB18     		adds	r3, r7, r3
 643 0036 1B78     		ldrb	r3, [r3]
 477:Drivers/STM32L0xx_HAL_Driver/Src/stm32l0xx_hal_flash_ex.c **** }
 644              		.loc 1 477 0
 645 0038 1800     		movs	r0, r3
 646 003a BD46     		mov	sp, r7
 647 003c 05B0     		add	sp, sp, #20
 648              		@ sp needed
 649 003e 90BD     		pop	{r4, r7, pc}
 650              		.cfi_endproc
 651              	.LFE38:
 653              		.section	.text.HAL_FLASHEx_AdvOBGetConfig,"ax",%progbits
 654              		.align	1
 655              		.global	HAL_FLASHEx_AdvOBGetConfig
 656              		.syntax unified
 657              		.code	16
 658              		.thumb_func
 659              		.fpu softvfp
 661              	HAL_FLASHEx_AdvOBGetConfig:
 662              	.LFB39:
 478:Drivers/STM32L0xx_HAL_Driver/Src/stm32l0xx_hal_flash_ex.c **** 
 479:Drivers/STM32L0xx_HAL_Driver/Src/stm32l0xx_hal_flash_ex.c **** /**
 480:Drivers/STM32L0xx_HAL_Driver/Src/stm32l0xx_hal_flash_ex.c ****   * @brief  Get the OBEX byte configuration
 481:Drivers/STM32L0xx_HAL_Driver/Src/stm32l0xx_hal_flash_ex.c ****   * @param  pAdvOBInit pointer to an FLASH_AdvOBProgramInitTypeDef structure that
 482:Drivers/STM32L0xx_HAL_Driver/Src/stm32l0xx_hal_flash_ex.c ****   *         contains the configuration information for the programming.
 483:Drivers/STM32L0xx_HAL_Driver/Src/stm32l0xx_hal_flash_ex.c ****   * 
 484:Drivers/STM32L0xx_HAL_Driver/Src/stm32l0xx_hal_flash_ex.c ****   * @retval None
ARM GAS  /tmp/ccBA2iOh.s 			page 21


 485:Drivers/STM32L0xx_HAL_Driver/Src/stm32l0xx_hal_flash_ex.c ****   */
 486:Drivers/STM32L0xx_HAL_Driver/Src/stm32l0xx_hal_flash_ex.c **** void HAL_FLASHEx_AdvOBGetConfig(FLASH_AdvOBProgramInitTypeDef *pAdvOBInit)
 487:Drivers/STM32L0xx_HAL_Driver/Src/stm32l0xx_hal_flash_ex.c **** {
 663              		.loc 1 487 0
 664              		.cfi_startproc
 665              		@ args = 0, pretend = 0, frame = 8
 666              		@ frame_needed = 1, uses_anonymous_args = 0
 667 0000 80B5     		push	{r7, lr}
 668              	.LCFI15:
 669              		.cfi_def_cfa_offset 8
 670              		.cfi_offset 7, -8
 671              		.cfi_offset 14, -4
 672 0002 82B0     		sub	sp, sp, #8
 673              	.LCFI16:
 674              		.cfi_def_cfa_offset 16
 675 0004 00AF     		add	r7, sp, #0
 676              	.LCFI17:
 677              		.cfi_def_cfa_register 7
 678 0006 7860     		str	r0, [r7, #4]
 488:Drivers/STM32L0xx_HAL_Driver/Src/stm32l0xx_hal_flash_ex.c ****   pAdvOBInit->OptionType = 0;
 679              		.loc 1 488 0
 680 0008 7B68     		ldr	r3, [r7, #4]
 681 000a 0022     		movs	r2, #0
 682 000c 1A60     		str	r2, [r3]
 489:Drivers/STM32L0xx_HAL_Driver/Src/stm32l0xx_hal_flash_ex.c ****   
 490:Drivers/STM32L0xx_HAL_Driver/Src/stm32l0xx_hal_flash_ex.c **** #if defined(FLASH_OPTR_WPRMOD)
 491:Drivers/STM32L0xx_HAL_Driver/Src/stm32l0xx_hal_flash_ex.c ****       
 492:Drivers/STM32L0xx_HAL_Driver/Src/stm32l0xx_hal_flash_ex.c ****   pAdvOBInit->OptionType |= OPTIONBYTE_PCROP;
 683              		.loc 1 492 0
 684 000e 7B68     		ldr	r3, [r7, #4]
 685 0010 1B68     		ldr	r3, [r3]
 686 0012 0122     		movs	r2, #1
 687 0014 1A43     		orrs	r2, r3
 688 0016 7B68     		ldr	r3, [r7, #4]
 689 0018 1A60     		str	r2, [r3]
 493:Drivers/STM32L0xx_HAL_Driver/Src/stm32l0xx_hal_flash_ex.c **** 
 494:Drivers/STM32L0xx_HAL_Driver/Src/stm32l0xx_hal_flash_ex.c **** 
 495:Drivers/STM32L0xx_HAL_Driver/Src/stm32l0xx_hal_flash_ex.c ****   /* Get PCROP state */
 496:Drivers/STM32L0xx_HAL_Driver/Src/stm32l0xx_hal_flash_ex.c ****   pAdvOBInit->PCROPState = (FLASH->OPTR & FLASH_OPTR_WPRMOD) >> FLASH_OPTR_WPRMOD_Pos;
 690              		.loc 1 496 0
 691 001a 074B     		ldr	r3, .L33
 692 001c DB69     		ldr	r3, [r3, #28]
 693 001e 1B0A     		lsrs	r3, r3, #8
 694 0020 0122     		movs	r2, #1
 695 0022 1A40     		ands	r2, r3
 696 0024 7B68     		ldr	r3, [r7, #4]
 697 0026 5A60     		str	r2, [r3, #4]
 497:Drivers/STM32L0xx_HAL_Driver/Src/stm32l0xx_hal_flash_ex.c ****   /* Get PCROP protected sector */
 498:Drivers/STM32L0xx_HAL_Driver/Src/stm32l0xx_hal_flash_ex.c ****   pAdvOBInit->PCROPSector = FLASH->WRPR;
 698              		.loc 1 498 0
 699 0028 034B     		ldr	r3, .L33
 700 002a 1A6A     		ldr	r2, [r3, #32]
 701 002c 7B68     		ldr	r3, [r7, #4]
 702 002e 9A60     		str	r2, [r3, #8]
 499:Drivers/STM32L0xx_HAL_Driver/Src/stm32l0xx_hal_flash_ex.c **** 
 500:Drivers/STM32L0xx_HAL_Driver/Src/stm32l0xx_hal_flash_ex.c **** #if defined(STM32L071xx) || defined(STM32L072xx) || defined(STM32L073xx) || defined(STM32L081xx) ||
 501:Drivers/STM32L0xx_HAL_Driver/Src/stm32l0xx_hal_flash_ex.c ****   /* Get PCROP protected sector */
ARM GAS  /tmp/ccBA2iOh.s 			page 22


 502:Drivers/STM32L0xx_HAL_Driver/Src/stm32l0xx_hal_flash_ex.c ****   pAdvOBInit->PCROPSector2 = FLASH->WRPR2;
 503:Drivers/STM32L0xx_HAL_Driver/Src/stm32l0xx_hal_flash_ex.c **** #endif
 504:Drivers/STM32L0xx_HAL_Driver/Src/stm32l0xx_hal_flash_ex.c **** #endif /* FLASH_OPTR_WPRMOD */
 505:Drivers/STM32L0xx_HAL_Driver/Src/stm32l0xx_hal_flash_ex.c **** 
 506:Drivers/STM32L0xx_HAL_Driver/Src/stm32l0xx_hal_flash_ex.c **** #if defined(FLASH_OPTR_BFB2)
 507:Drivers/STM32L0xx_HAL_Driver/Src/stm32l0xx_hal_flash_ex.c ****       
 508:Drivers/STM32L0xx_HAL_Driver/Src/stm32l0xx_hal_flash_ex.c ****   pAdvOBInit->OptionType |= OPTIONBYTE_BOOTCONFIG;
 509:Drivers/STM32L0xx_HAL_Driver/Src/stm32l0xx_hal_flash_ex.c **** 
 510:Drivers/STM32L0xx_HAL_Driver/Src/stm32l0xx_hal_flash_ex.c ****   /* Get Boot config OB */
 511:Drivers/STM32L0xx_HAL_Driver/Src/stm32l0xx_hal_flash_ex.c ****   pAdvOBInit->BootConfig = (FLASH->OPTR & FLASH_OPTR_BFB2) >> 16U;
 512:Drivers/STM32L0xx_HAL_Driver/Src/stm32l0xx_hal_flash_ex.c **** 
 513:Drivers/STM32L0xx_HAL_Driver/Src/stm32l0xx_hal_flash_ex.c **** #endif /* FLASH_OPTR_BFB2 */
 514:Drivers/STM32L0xx_HAL_Driver/Src/stm32l0xx_hal_flash_ex.c **** }
 703              		.loc 1 514 0
 704 0030 C046     		nop
 705 0032 BD46     		mov	sp, r7
 706 0034 02B0     		add	sp, sp, #8
 707              		@ sp needed
 708 0036 80BD     		pop	{r7, pc}
 709              	.L34:
 710              		.align	2
 711              	.L33:
 712 0038 00200240 		.word	1073881088
 713              		.cfi_endproc
 714              	.LFE39:
 716              		.section	.text.HAL_FLASHEx_OB_SelectPCROP,"ax",%progbits
 717              		.align	1
 718              		.global	HAL_FLASHEx_OB_SelectPCROP
 719              		.syntax unified
 720              		.code	16
 721              		.thumb_func
 722              		.fpu softvfp
 724              	HAL_FLASHEx_OB_SelectPCROP:
 725              	.LFB40:
 515:Drivers/STM32L0xx_HAL_Driver/Src/stm32l0xx_hal_flash_ex.c **** 
 516:Drivers/STM32L0xx_HAL_Driver/Src/stm32l0xx_hal_flash_ex.c **** #endif /* FLASH_OPTR_WPRMOD || FLASH_OPTR_BFB2 */
 517:Drivers/STM32L0xx_HAL_Driver/Src/stm32l0xx_hal_flash_ex.c **** 
 518:Drivers/STM32L0xx_HAL_Driver/Src/stm32l0xx_hal_flash_ex.c **** #if defined(FLASH_OPTR_WPRMOD)
 519:Drivers/STM32L0xx_HAL_Driver/Src/stm32l0xx_hal_flash_ex.c **** 
 520:Drivers/STM32L0xx_HAL_Driver/Src/stm32l0xx_hal_flash_ex.c **** /**
 521:Drivers/STM32L0xx_HAL_Driver/Src/stm32l0xx_hal_flash_ex.c ****   * @brief  Select the Protection Mode (WPRMOD).
 522:Drivers/STM32L0xx_HAL_Driver/Src/stm32l0xx_hal_flash_ex.c ****   * @note   Once WPRMOD bit is active, unprotection of a protected sector is not possible 
 523:Drivers/STM32L0xx_HAL_Driver/Src/stm32l0xx_hal_flash_ex.c ****   * @note   Read a protected sector will set RDERR Flag and write a protected sector will set WRPER
 524:Drivers/STM32L0xx_HAL_Driver/Src/stm32l0xx_hal_flash_ex.c ****   * @retval HAL status
 525:Drivers/STM32L0xx_HAL_Driver/Src/stm32l0xx_hal_flash_ex.c ****   */
 526:Drivers/STM32L0xx_HAL_Driver/Src/stm32l0xx_hal_flash_ex.c **** HAL_StatusTypeDef HAL_FLASHEx_OB_SelectPCROP(void)
 527:Drivers/STM32L0xx_HAL_Driver/Src/stm32l0xx_hal_flash_ex.c **** {
 726              		.loc 1 527 0
 727              		.cfi_startproc
 728              		@ args = 0, pretend = 0, frame = 16
 729              		@ frame_needed = 1, uses_anonymous_args = 0
 730 0000 90B5     		push	{r4, r7, lr}
 731              	.LCFI18:
 732              		.cfi_def_cfa_offset 12
 733              		.cfi_offset 4, -12
 734              		.cfi_offset 7, -8
 735              		.cfi_offset 14, -4
ARM GAS  /tmp/ccBA2iOh.s 			page 23


 736 0002 85B0     		sub	sp, sp, #20
 737              	.LCFI19:
 738              		.cfi_def_cfa_offset 32
 739 0004 00AF     		add	r7, sp, #0
 740              	.LCFI20:
 741              		.cfi_def_cfa_register 7
 528:Drivers/STM32L0xx_HAL_Driver/Src/stm32l0xx_hal_flash_ex.c ****   HAL_StatusTypeDef status = HAL_OK;
 742              		.loc 1 528 0
 743 0006 0F23     		movs	r3, #15
 744 0008 FB18     		adds	r3, r7, r3
 745 000a 0022     		movs	r2, #0
 746 000c 1A70     		strb	r2, [r3]
 529:Drivers/STM32L0xx_HAL_Driver/Src/stm32l0xx_hal_flash_ex.c ****   uint16_t tmp1 = 0;
 747              		.loc 1 529 0
 748 000e 0C23     		movs	r3, #12
 749 0010 FB18     		adds	r3, r7, r3
 750 0012 0022     		movs	r2, #0
 751 0014 1A80     		strh	r2, [r3]
 530:Drivers/STM32L0xx_HAL_Driver/Src/stm32l0xx_hal_flash_ex.c ****   uint32_t tmp2 = 0;
 752              		.loc 1 530 0
 753 0016 0023     		movs	r3, #0
 754 0018 BB60     		str	r3, [r7, #8]
 531:Drivers/STM32L0xx_HAL_Driver/Src/stm32l0xx_hal_flash_ex.c ****   uint8_t optiontmp = 0;
 755              		.loc 1 531 0
 756 001a FB1D     		adds	r3, r7, #7
 757 001c 0022     		movs	r2, #0
 758 001e 1A70     		strb	r2, [r3]
 532:Drivers/STM32L0xx_HAL_Driver/Src/stm32l0xx_hal_flash_ex.c ****   uint16_t optiontmp2 = 0;
 759              		.loc 1 532 0
 760 0020 3B1D     		adds	r3, r7, #4
 761 0022 0022     		movs	r2, #0
 762 0024 1A80     		strh	r2, [r3]
 533:Drivers/STM32L0xx_HAL_Driver/Src/stm32l0xx_hal_flash_ex.c ****   
 534:Drivers/STM32L0xx_HAL_Driver/Src/stm32l0xx_hal_flash_ex.c ****   status = FLASH_WaitForLastOperation(FLASH_TIMEOUT_VALUE);
 763              		.loc 1 534 0
 764 0026 0F23     		movs	r3, #15
 765 0028 FC18     		adds	r4, r7, r3
 766 002a 1D4B     		ldr	r3, .L38
 767 002c 1800     		movs	r0, r3
 768 002e FFF7FEFF 		bl	FLASH_WaitForLastOperation
 769 0032 0300     		movs	r3, r0
 770 0034 2370     		strb	r3, [r4]
 535:Drivers/STM32L0xx_HAL_Driver/Src/stm32l0xx_hal_flash_ex.c ****   
 536:Drivers/STM32L0xx_HAL_Driver/Src/stm32l0xx_hal_flash_ex.c ****   /* Mask RDP Byte */
 537:Drivers/STM32L0xx_HAL_Driver/Src/stm32l0xx_hal_flash_ex.c ****   optiontmp =  (uint8_t)(*(__IO uint8_t *)(OB_BASE)); 
 771              		.loc 1 537 0
 772 0036 1B4A     		ldr	r2, .L38+4
 773 0038 FB1D     		adds	r3, r7, #7
 774 003a 1278     		ldrb	r2, [r2]
 775 003c 1A70     		strb	r2, [r3]
 538:Drivers/STM32L0xx_HAL_Driver/Src/stm32l0xx_hal_flash_ex.c ****   
 539:Drivers/STM32L0xx_HAL_Driver/Src/stm32l0xx_hal_flash_ex.c ****   /* Update Option Byte */
 540:Drivers/STM32L0xx_HAL_Driver/Src/stm32l0xx_hal_flash_ex.c ****   optiontmp2 = (uint16_t)(OB_PCROP_SELECTED | optiontmp); 
 776              		.loc 1 540 0
 777 003e FB1D     		adds	r3, r7, #7
 778 0040 1B78     		ldrb	r3, [r3]
 779 0042 9AB2     		uxth	r2, r3
ARM GAS  /tmp/ccBA2iOh.s 			page 24


 780 0044 3B1D     		adds	r3, r7, #4
 781 0046 8021     		movs	r1, #128
 782 0048 4900     		lsls	r1, r1, #1
 783 004a 0A43     		orrs	r2, r1
 784 004c 1A80     		strh	r2, [r3]
 541:Drivers/STM32L0xx_HAL_Driver/Src/stm32l0xx_hal_flash_ex.c ****   
 542:Drivers/STM32L0xx_HAL_Driver/Src/stm32l0xx_hal_flash_ex.c ****   /* calculate the option byte to write */
 543:Drivers/STM32L0xx_HAL_Driver/Src/stm32l0xx_hal_flash_ex.c ****   tmp1 = (uint16_t)(~(optiontmp2 ));
 785              		.loc 1 543 0
 786 004e 0C23     		movs	r3, #12
 787 0050 FB18     		adds	r3, r7, r3
 788 0052 3A1D     		adds	r2, r7, #4
 789 0054 1288     		ldrh	r2, [r2]
 790 0056 D243     		mvns	r2, r2
 791 0058 1A80     		strh	r2, [r3]
 544:Drivers/STM32L0xx_HAL_Driver/Src/stm32l0xx_hal_flash_ex.c ****   tmp2 = (uint32_t)(((uint32_t)((uint32_t)(tmp1) << 16U)) | ((uint32_t)optiontmp2));
 792              		.loc 1 544 0
 793 005a 0C23     		movs	r3, #12
 794 005c FB18     		adds	r3, r7, r3
 795 005e 1B88     		ldrh	r3, [r3]
 796 0060 1A04     		lsls	r2, r3, #16
 797 0062 3B1D     		adds	r3, r7, #4
 798 0064 1B88     		ldrh	r3, [r3]
 799 0066 1343     		orrs	r3, r2
 800 0068 BB60     		str	r3, [r7, #8]
 545:Drivers/STM32L0xx_HAL_Driver/Src/stm32l0xx_hal_flash_ex.c ****   
 546:Drivers/STM32L0xx_HAL_Driver/Src/stm32l0xx_hal_flash_ex.c ****   if(status == HAL_OK)
 801              		.loc 1 546 0
 802 006a 0F23     		movs	r3, #15
 803 006c FB18     		adds	r3, r7, r3
 804 006e 1B78     		ldrb	r3, [r3]
 805 0070 002B     		cmp	r3, #0
 806 0072 0DD1     		bne	.L36
 547:Drivers/STM32L0xx_HAL_Driver/Src/stm32l0xx_hal_flash_ex.c ****   {         
 548:Drivers/STM32L0xx_HAL_Driver/Src/stm32l0xx_hal_flash_ex.c ****     /* Clean the error context */
 549:Drivers/STM32L0xx_HAL_Driver/Src/stm32l0xx_hal_flash_ex.c ****     pFlash.ErrorCode = HAL_FLASH_ERROR_NONE;
 807              		.loc 1 549 0
 808 0074 0C4B     		ldr	r3, .L38+8
 809 0076 0022     		movs	r2, #0
 810 0078 5A61     		str	r2, [r3, #20]
 550:Drivers/STM32L0xx_HAL_Driver/Src/stm32l0xx_hal_flash_ex.c **** 
 551:Drivers/STM32L0xx_HAL_Driver/Src/stm32l0xx_hal_flash_ex.c ****     /* program PCRop */
 552:Drivers/STM32L0xx_HAL_Driver/Src/stm32l0xx_hal_flash_ex.c ****     OB->RDP = tmp2;
 811              		.loc 1 552 0
 812 007a 0A4B     		ldr	r3, .L38+4
 813 007c BA68     		ldr	r2, [r7, #8]
 814 007e 1A60     		str	r2, [r3]
 553:Drivers/STM32L0xx_HAL_Driver/Src/stm32l0xx_hal_flash_ex.c ****     
 554:Drivers/STM32L0xx_HAL_Driver/Src/stm32l0xx_hal_flash_ex.c ****     /* Wait for last operation to be completed */
 555:Drivers/STM32L0xx_HAL_Driver/Src/stm32l0xx_hal_flash_ex.c ****     status = FLASH_WaitForLastOperation(FLASH_TIMEOUT_VALUE);
 815              		.loc 1 555 0
 816 0080 0F23     		movs	r3, #15
 817 0082 FC18     		adds	r4, r7, r3
 818 0084 064B     		ldr	r3, .L38
 819 0086 1800     		movs	r0, r3
 820 0088 FFF7FEFF 		bl	FLASH_WaitForLastOperation
 821 008c 0300     		movs	r3, r0
ARM GAS  /tmp/ccBA2iOh.s 			page 25


 822 008e 2370     		strb	r3, [r4]
 823              	.L36:
 556:Drivers/STM32L0xx_HAL_Driver/Src/stm32l0xx_hal_flash_ex.c ****   }
 557:Drivers/STM32L0xx_HAL_Driver/Src/stm32l0xx_hal_flash_ex.c ****   
 558:Drivers/STM32L0xx_HAL_Driver/Src/stm32l0xx_hal_flash_ex.c ****   /* Return the Read protection operation Status */
 559:Drivers/STM32L0xx_HAL_Driver/Src/stm32l0xx_hal_flash_ex.c ****   return status;            
 824              		.loc 1 559 0
 825 0090 0F23     		movs	r3, #15
 826 0092 FB18     		adds	r3, r7, r3
 827 0094 1B78     		ldrb	r3, [r3]
 560:Drivers/STM32L0xx_HAL_Driver/Src/stm32l0xx_hal_flash_ex.c **** }
 828              		.loc 1 560 0
 829 0096 1800     		movs	r0, r3
 830 0098 BD46     		mov	sp, r7
 831 009a 05B0     		add	sp, sp, #20
 832              		@ sp needed
 833 009c 90BD     		pop	{r4, r7, pc}
 834              	.L39:
 835 009e C046     		.align	2
 836              	.L38:
 837 00a0 50C30000 		.word	50000
 838 00a4 0000F81F 		.word	536346624
 839 00a8 00000000 		.word	pFlash
 840              		.cfi_endproc
 841              	.LFE40:
 843              		.section	.text.HAL_FLASHEx_OB_DeSelectPCROP,"ax",%progbits
 844              		.align	1
 845              		.global	HAL_FLASHEx_OB_DeSelectPCROP
 846              		.syntax unified
 847              		.code	16
 848              		.thumb_func
 849              		.fpu softvfp
 851              	HAL_FLASHEx_OB_DeSelectPCROP:
 852              	.LFB41:
 561:Drivers/STM32L0xx_HAL_Driver/Src/stm32l0xx_hal_flash_ex.c **** 
 562:Drivers/STM32L0xx_HAL_Driver/Src/stm32l0xx_hal_flash_ex.c **** /**
 563:Drivers/STM32L0xx_HAL_Driver/Src/stm32l0xx_hal_flash_ex.c ****   * @brief  Deselect the Protection Mode (WPRMOD).
 564:Drivers/STM32L0xx_HAL_Driver/Src/stm32l0xx_hal_flash_ex.c ****   * @note   Once WPRMOD bit is active, unprotection of a protected sector is not possible 
 565:Drivers/STM32L0xx_HAL_Driver/Src/stm32l0xx_hal_flash_ex.c ****   * @note   Read a protected sector will set RDERR Flag and write a protected sector will set WRPER
 566:Drivers/STM32L0xx_HAL_Driver/Src/stm32l0xx_hal_flash_ex.c ****   * @retval HAL status
 567:Drivers/STM32L0xx_HAL_Driver/Src/stm32l0xx_hal_flash_ex.c ****   */
 568:Drivers/STM32L0xx_HAL_Driver/Src/stm32l0xx_hal_flash_ex.c **** HAL_StatusTypeDef HAL_FLASHEx_OB_DeSelectPCROP(void)
 569:Drivers/STM32L0xx_HAL_Driver/Src/stm32l0xx_hal_flash_ex.c **** {
 853              		.loc 1 569 0
 854              		.cfi_startproc
 855              		@ args = 0, pretend = 0, frame = 16
 856              		@ frame_needed = 1, uses_anonymous_args = 0
 857 0000 90B5     		push	{r4, r7, lr}
 858              	.LCFI21:
 859              		.cfi_def_cfa_offset 12
 860              		.cfi_offset 4, -12
 861              		.cfi_offset 7, -8
 862              		.cfi_offset 14, -4
 863 0002 85B0     		sub	sp, sp, #20
 864              	.LCFI22:
 865              		.cfi_def_cfa_offset 32
 866 0004 00AF     		add	r7, sp, #0
ARM GAS  /tmp/ccBA2iOh.s 			page 26


 867              	.LCFI23:
 868              		.cfi_def_cfa_register 7
 570:Drivers/STM32L0xx_HAL_Driver/Src/stm32l0xx_hal_flash_ex.c ****   HAL_StatusTypeDef status = HAL_OK;
 869              		.loc 1 570 0
 870 0006 0F23     		movs	r3, #15
 871 0008 FB18     		adds	r3, r7, r3
 872 000a 0022     		movs	r2, #0
 873 000c 1A70     		strb	r2, [r3]
 571:Drivers/STM32L0xx_HAL_Driver/Src/stm32l0xx_hal_flash_ex.c ****   uint16_t tmp1 = 0;
 874              		.loc 1 571 0
 875 000e 0C23     		movs	r3, #12
 876 0010 FB18     		adds	r3, r7, r3
 877 0012 0022     		movs	r2, #0
 878 0014 1A80     		strh	r2, [r3]
 572:Drivers/STM32L0xx_HAL_Driver/Src/stm32l0xx_hal_flash_ex.c ****   uint32_t tmp2 = 0;
 879              		.loc 1 572 0
 880 0016 0023     		movs	r3, #0
 881 0018 BB60     		str	r3, [r7, #8]
 573:Drivers/STM32L0xx_HAL_Driver/Src/stm32l0xx_hal_flash_ex.c ****   uint8_t optiontmp = 0;
 882              		.loc 1 573 0
 883 001a FB1D     		adds	r3, r7, #7
 884 001c 0022     		movs	r2, #0
 885 001e 1A70     		strb	r2, [r3]
 574:Drivers/STM32L0xx_HAL_Driver/Src/stm32l0xx_hal_flash_ex.c ****   uint16_t optiontmp2 = 0;
 886              		.loc 1 574 0
 887 0020 3B1D     		adds	r3, r7, #4
 888 0022 0022     		movs	r2, #0
 889 0024 1A80     		strh	r2, [r3]
 575:Drivers/STM32L0xx_HAL_Driver/Src/stm32l0xx_hal_flash_ex.c ****   
 576:Drivers/STM32L0xx_HAL_Driver/Src/stm32l0xx_hal_flash_ex.c ****   status = FLASH_WaitForLastOperation(FLASH_TIMEOUT_VALUE);
 890              		.loc 1 576 0
 891 0026 0F23     		movs	r3, #15
 892 0028 FC18     		adds	r4, r7, r3
 893 002a 1B4B     		ldr	r3, .L43
 894 002c 1800     		movs	r0, r3
 895 002e FFF7FEFF 		bl	FLASH_WaitForLastOperation
 896 0032 0300     		movs	r3, r0
 897 0034 2370     		strb	r3, [r4]
 577:Drivers/STM32L0xx_HAL_Driver/Src/stm32l0xx_hal_flash_ex.c ****   
 578:Drivers/STM32L0xx_HAL_Driver/Src/stm32l0xx_hal_flash_ex.c ****   /* Mask RDP Byte */
 579:Drivers/STM32L0xx_HAL_Driver/Src/stm32l0xx_hal_flash_ex.c ****   optiontmp =  (uint8_t)(*(__IO uint8_t *)(OB_BASE)); 
 898              		.loc 1 579 0
 899 0036 194A     		ldr	r2, .L43+4
 900 0038 FB1D     		adds	r3, r7, #7
 901 003a 1278     		ldrb	r2, [r2]
 902 003c 1A70     		strb	r2, [r3]
 580:Drivers/STM32L0xx_HAL_Driver/Src/stm32l0xx_hal_flash_ex.c ****   
 581:Drivers/STM32L0xx_HAL_Driver/Src/stm32l0xx_hal_flash_ex.c ****   /* Update Option Byte */
 582:Drivers/STM32L0xx_HAL_Driver/Src/stm32l0xx_hal_flash_ex.c ****   optiontmp2 = (uint16_t)(OB_PCROP_DESELECTED | optiontmp); 
 903              		.loc 1 582 0
 904 003e 3B1D     		adds	r3, r7, #4
 905 0040 FA1D     		adds	r2, r7, #7
 906 0042 1278     		ldrb	r2, [r2]
 907 0044 1A80     		strh	r2, [r3]
 583:Drivers/STM32L0xx_HAL_Driver/Src/stm32l0xx_hal_flash_ex.c ****   
 584:Drivers/STM32L0xx_HAL_Driver/Src/stm32l0xx_hal_flash_ex.c ****   /* calculate the option byte to write */
 585:Drivers/STM32L0xx_HAL_Driver/Src/stm32l0xx_hal_flash_ex.c ****   tmp1 = (uint16_t)(~(optiontmp2 ));
ARM GAS  /tmp/ccBA2iOh.s 			page 27


 908              		.loc 1 585 0
 909 0046 0C23     		movs	r3, #12
 910 0048 FB18     		adds	r3, r7, r3
 911 004a 3A1D     		adds	r2, r7, #4
 912 004c 1288     		ldrh	r2, [r2]
 913 004e D243     		mvns	r2, r2
 914 0050 1A80     		strh	r2, [r3]
 586:Drivers/STM32L0xx_HAL_Driver/Src/stm32l0xx_hal_flash_ex.c ****   tmp2 = (uint32_t)(((uint32_t)((uint32_t)(tmp1) << 16U)) | ((uint32_t)optiontmp2));
 915              		.loc 1 586 0
 916 0052 0C23     		movs	r3, #12
 917 0054 FB18     		adds	r3, r7, r3
 918 0056 1B88     		ldrh	r3, [r3]
 919 0058 1A04     		lsls	r2, r3, #16
 920 005a 3B1D     		adds	r3, r7, #4
 921 005c 1B88     		ldrh	r3, [r3]
 922 005e 1343     		orrs	r3, r2
 923 0060 BB60     		str	r3, [r7, #8]
 587:Drivers/STM32L0xx_HAL_Driver/Src/stm32l0xx_hal_flash_ex.c ****   
 588:Drivers/STM32L0xx_HAL_Driver/Src/stm32l0xx_hal_flash_ex.c ****   if(status == HAL_OK)
 924              		.loc 1 588 0
 925 0062 0F23     		movs	r3, #15
 926 0064 FB18     		adds	r3, r7, r3
 927 0066 1B78     		ldrb	r3, [r3]
 928 0068 002B     		cmp	r3, #0
 929 006a 0DD1     		bne	.L41
 589:Drivers/STM32L0xx_HAL_Driver/Src/stm32l0xx_hal_flash_ex.c ****   {         
 590:Drivers/STM32L0xx_HAL_Driver/Src/stm32l0xx_hal_flash_ex.c ****     /* Clean the error context */
 591:Drivers/STM32L0xx_HAL_Driver/Src/stm32l0xx_hal_flash_ex.c ****     pFlash.ErrorCode = HAL_FLASH_ERROR_NONE;
 930              		.loc 1 591 0
 931 006c 0C4B     		ldr	r3, .L43+8
 932 006e 0022     		movs	r2, #0
 933 0070 5A61     		str	r2, [r3, #20]
 592:Drivers/STM32L0xx_HAL_Driver/Src/stm32l0xx_hal_flash_ex.c **** 
 593:Drivers/STM32L0xx_HAL_Driver/Src/stm32l0xx_hal_flash_ex.c ****     /* program PCRop */
 594:Drivers/STM32L0xx_HAL_Driver/Src/stm32l0xx_hal_flash_ex.c ****     OB->RDP = tmp2;
 934              		.loc 1 594 0
 935 0072 0A4B     		ldr	r3, .L43+4
 936 0074 BA68     		ldr	r2, [r7, #8]
 937 0076 1A60     		str	r2, [r3]
 595:Drivers/STM32L0xx_HAL_Driver/Src/stm32l0xx_hal_flash_ex.c ****     
 596:Drivers/STM32L0xx_HAL_Driver/Src/stm32l0xx_hal_flash_ex.c ****     /* Wait for last operation to be completed */
 597:Drivers/STM32L0xx_HAL_Driver/Src/stm32l0xx_hal_flash_ex.c ****     status = FLASH_WaitForLastOperation(FLASH_TIMEOUT_VALUE);
 938              		.loc 1 597 0
 939 0078 0F23     		movs	r3, #15
 940 007a FC18     		adds	r4, r7, r3
 941 007c 064B     		ldr	r3, .L43
 942 007e 1800     		movs	r0, r3
 943 0080 FFF7FEFF 		bl	FLASH_WaitForLastOperation
 944 0084 0300     		movs	r3, r0
 945 0086 2370     		strb	r3, [r4]
 946              	.L41:
 598:Drivers/STM32L0xx_HAL_Driver/Src/stm32l0xx_hal_flash_ex.c ****   }
 599:Drivers/STM32L0xx_HAL_Driver/Src/stm32l0xx_hal_flash_ex.c ****   
 600:Drivers/STM32L0xx_HAL_Driver/Src/stm32l0xx_hal_flash_ex.c ****   /* Return the Read protection operation Status */
 601:Drivers/STM32L0xx_HAL_Driver/Src/stm32l0xx_hal_flash_ex.c ****   return status;            
 947              		.loc 1 601 0
 948 0088 0F23     		movs	r3, #15
ARM GAS  /tmp/ccBA2iOh.s 			page 28


 949 008a FB18     		adds	r3, r7, r3
 950 008c 1B78     		ldrb	r3, [r3]
 602:Drivers/STM32L0xx_HAL_Driver/Src/stm32l0xx_hal_flash_ex.c **** }
 951              		.loc 1 602 0
 952 008e 1800     		movs	r0, r3
 953 0090 BD46     		mov	sp, r7
 954 0092 05B0     		add	sp, sp, #20
 955              		@ sp needed
 956 0094 90BD     		pop	{r4, r7, pc}
 957              	.L44:
 958 0096 C046     		.align	2
 959              	.L43:
 960 0098 50C30000 		.word	50000
 961 009c 0000F81F 		.word	536346624
 962 00a0 00000000 		.word	pFlash
 963              		.cfi_endproc
 964              	.LFE41:
 966              		.section	.text.HAL_FLASHEx_DATAEEPROM_Unlock,"ax",%progbits
 967              		.align	1
 968              		.global	HAL_FLASHEx_DATAEEPROM_Unlock
 969              		.syntax unified
 970              		.code	16
 971              		.thumb_func
 972              		.fpu softvfp
 974              	HAL_FLASHEx_DATAEEPROM_Unlock:
 975              	.LFB42:
 603:Drivers/STM32L0xx_HAL_Driver/Src/stm32l0xx_hal_flash_ex.c **** 
 604:Drivers/STM32L0xx_HAL_Driver/Src/stm32l0xx_hal_flash_ex.c **** #endif /* FLASH_OPTR_WPRMOD */
 605:Drivers/STM32L0xx_HAL_Driver/Src/stm32l0xx_hal_flash_ex.c **** 
 606:Drivers/STM32L0xx_HAL_Driver/Src/stm32l0xx_hal_flash_ex.c **** /**
 607:Drivers/STM32L0xx_HAL_Driver/Src/stm32l0xx_hal_flash_ex.c ****   * @}
 608:Drivers/STM32L0xx_HAL_Driver/Src/stm32l0xx_hal_flash_ex.c ****   */
 609:Drivers/STM32L0xx_HAL_Driver/Src/stm32l0xx_hal_flash_ex.c **** 
 610:Drivers/STM32L0xx_HAL_Driver/Src/stm32l0xx_hal_flash_ex.c **** /** @defgroup FLASHEx_Exported_Functions_Group3 DATA EEPROM Programming functions
 611:Drivers/STM32L0xx_HAL_Driver/Src/stm32l0xx_hal_flash_ex.c ****  *  @brief   DATA EEPROM Programming functions
 612:Drivers/STM32L0xx_HAL_Driver/Src/stm32l0xx_hal_flash_ex.c ****  *
 613:Drivers/STM32L0xx_HAL_Driver/Src/stm32l0xx_hal_flash_ex.c **** @verbatim   
 614:Drivers/STM32L0xx_HAL_Driver/Src/stm32l0xx_hal_flash_ex.c ****  ===============================================================================
 615:Drivers/STM32L0xx_HAL_Driver/Src/stm32l0xx_hal_flash_ex.c ****                      ##### DATA EEPROM Programming functions ##### 
 616:Drivers/STM32L0xx_HAL_Driver/Src/stm32l0xx_hal_flash_ex.c ****  ===============================================================================  
 617:Drivers/STM32L0xx_HAL_Driver/Src/stm32l0xx_hal_flash_ex.c ****  
 618:Drivers/STM32L0xx_HAL_Driver/Src/stm32l0xx_hal_flash_ex.c ****     [..] Any operation of erase or program should follow these steps:
 619:Drivers/STM32L0xx_HAL_Driver/Src/stm32l0xx_hal_flash_ex.c ****     (#) Call the @ref HAL_FLASHEx_DATAEEPROM_Unlock() function to enable the data EEPROM access
 620:Drivers/STM32L0xx_HAL_Driver/Src/stm32l0xx_hal_flash_ex.c ****         and Flash program erase control register access.
 621:Drivers/STM32L0xx_HAL_Driver/Src/stm32l0xx_hal_flash_ex.c ****     (#) Call the desired function to erase or program data.
 622:Drivers/STM32L0xx_HAL_Driver/Src/stm32l0xx_hal_flash_ex.c ****     (#) Call the @ref HAL_FLASHEx_DATAEEPROM_Lock() to disable the data EEPROM access
 623:Drivers/STM32L0xx_HAL_Driver/Src/stm32l0xx_hal_flash_ex.c ****         and Flash program erase control register access(recommended
 624:Drivers/STM32L0xx_HAL_Driver/Src/stm32l0xx_hal_flash_ex.c ****         to protect the DATA_EEPROM against possible unwanted operation).
 625:Drivers/STM32L0xx_HAL_Driver/Src/stm32l0xx_hal_flash_ex.c **** 
 626:Drivers/STM32L0xx_HAL_Driver/Src/stm32l0xx_hal_flash_ex.c **** @endverbatim
 627:Drivers/STM32L0xx_HAL_Driver/Src/stm32l0xx_hal_flash_ex.c ****   * @{
 628:Drivers/STM32L0xx_HAL_Driver/Src/stm32l0xx_hal_flash_ex.c ****   */
 629:Drivers/STM32L0xx_HAL_Driver/Src/stm32l0xx_hal_flash_ex.c **** 
 630:Drivers/STM32L0xx_HAL_Driver/Src/stm32l0xx_hal_flash_ex.c **** /**
 631:Drivers/STM32L0xx_HAL_Driver/Src/stm32l0xx_hal_flash_ex.c ****   * @brief  Unlocks the data memory and FLASH_PECR register access.
 632:Drivers/STM32L0xx_HAL_Driver/Src/stm32l0xx_hal_flash_ex.c ****   * @retval HAL_StatusTypeDef HAL Status
 633:Drivers/STM32L0xx_HAL_Driver/Src/stm32l0xx_hal_flash_ex.c ****   */
ARM GAS  /tmp/ccBA2iOh.s 			page 29


 634:Drivers/STM32L0xx_HAL_Driver/Src/stm32l0xx_hal_flash_ex.c **** HAL_StatusTypeDef HAL_FLASHEx_DATAEEPROM_Unlock(void)
 635:Drivers/STM32L0xx_HAL_Driver/Src/stm32l0xx_hal_flash_ex.c **** {
 976              		.loc 1 635 0
 977              		.cfi_startproc
 978              		@ args = 0, pretend = 0, frame = 0
 979              		@ frame_needed = 1, uses_anonymous_args = 0
 980 0000 80B5     		push	{r7, lr}
 981              	.LCFI24:
 982              		.cfi_def_cfa_offset 8
 983              		.cfi_offset 7, -8
 984              		.cfi_offset 14, -4
 985 0002 00AF     		add	r7, sp, #0
 986              	.LCFI25:
 987              		.cfi_def_cfa_register 7
 636:Drivers/STM32L0xx_HAL_Driver/Src/stm32l0xx_hal_flash_ex.c ****   if((FLASH->PECR & FLASH_PECR_PELOCK) != RESET)
 988              		.loc 1 636 0
 989 0004 0B4B     		ldr	r3, .L48
 990 0006 5B68     		ldr	r3, [r3, #4]
 991 0008 0122     		movs	r2, #1
 992 000a 1340     		ands	r3, r2
 993 000c 0ED0     		beq	.L46
 994              	.LBB6:
 995              	.LBB7:
 996              		.file 2 "Drivers/CMSIS/Include/cmsis_gcc.h"
   1:Drivers/CMSIS/Include/cmsis_gcc.h **** /**************************************************************************//**
   2:Drivers/CMSIS/Include/cmsis_gcc.h ****  * @file     cmsis_gcc.h
   3:Drivers/CMSIS/Include/cmsis_gcc.h ****  * @brief    CMSIS Cortex-M Core Function/Instruction Header File
   4:Drivers/CMSIS/Include/cmsis_gcc.h ****  * @version  V4.30
   5:Drivers/CMSIS/Include/cmsis_gcc.h ****  * @date     20. October 2015
   6:Drivers/CMSIS/Include/cmsis_gcc.h ****  ******************************************************************************/
   7:Drivers/CMSIS/Include/cmsis_gcc.h **** /* Copyright (c) 2009 - 2015 ARM LIMITED
   8:Drivers/CMSIS/Include/cmsis_gcc.h **** 
   9:Drivers/CMSIS/Include/cmsis_gcc.h ****    All rights reserved.
  10:Drivers/CMSIS/Include/cmsis_gcc.h ****    Redistribution and use in source and binary forms, with or without
  11:Drivers/CMSIS/Include/cmsis_gcc.h ****    modification, are permitted provided that the following conditions are met:
  12:Drivers/CMSIS/Include/cmsis_gcc.h ****    - Redistributions of source code must retain the above copyright
  13:Drivers/CMSIS/Include/cmsis_gcc.h ****      notice, this list of conditions and the following disclaimer.
  14:Drivers/CMSIS/Include/cmsis_gcc.h ****    - Redistributions in binary form must reproduce the above copyright
  15:Drivers/CMSIS/Include/cmsis_gcc.h ****      notice, this list of conditions and the following disclaimer in the
  16:Drivers/CMSIS/Include/cmsis_gcc.h ****      documentation and/or other materials provided with the distribution.
  17:Drivers/CMSIS/Include/cmsis_gcc.h ****    - Neither the name of ARM nor the names of its contributors may be used
  18:Drivers/CMSIS/Include/cmsis_gcc.h ****      to endorse or promote products derived from this software without
  19:Drivers/CMSIS/Include/cmsis_gcc.h ****      specific prior written permission.
  20:Drivers/CMSIS/Include/cmsis_gcc.h ****    *
  21:Drivers/CMSIS/Include/cmsis_gcc.h ****    THIS SOFTWARE IS PROVIDED BY THE COPYRIGHT HOLDERS AND CONTRIBUTORS "AS IS"
  22:Drivers/CMSIS/Include/cmsis_gcc.h ****    AND ANY EXPRESS OR IMPLIED WARRANTIES, INCLUDING, BUT NOT LIMITED TO, THE
  23:Drivers/CMSIS/Include/cmsis_gcc.h ****    IMPLIED WARRANTIES OF MERCHANTABILITY AND FITNESS FOR A PARTICULAR PURPOSE
  24:Drivers/CMSIS/Include/cmsis_gcc.h ****    ARE DISCLAIMED. IN NO EVENT SHALL COPYRIGHT HOLDERS AND CONTRIBUTORS BE
  25:Drivers/CMSIS/Include/cmsis_gcc.h ****    LIABLE FOR ANY DIRECT, INDIRECT, INCIDENTAL, SPECIAL, EXEMPLARY, OR
  26:Drivers/CMSIS/Include/cmsis_gcc.h ****    CONSEQUENTIAL DAMAGES (INCLUDING, BUT NOT LIMITED TO, PROCUREMENT OF
  27:Drivers/CMSIS/Include/cmsis_gcc.h ****    SUBSTITUTE GOODS OR SERVICES; LOSS OF USE, DATA, OR PROFITS; OR BUSINESS
  28:Drivers/CMSIS/Include/cmsis_gcc.h ****    INTERRUPTION) HOWEVER CAUSED AND ON ANY THEORY OF LIABILITY, WHETHER IN
  29:Drivers/CMSIS/Include/cmsis_gcc.h ****    CONTRACT, STRICT LIABILITY, OR TORT (INCLUDING NEGLIGENCE OR OTHERWISE)
  30:Drivers/CMSIS/Include/cmsis_gcc.h ****    ARISING IN ANY WAY OUT OF THE USE OF THIS SOFTWARE, EVEN IF ADVISED OF THE
  31:Drivers/CMSIS/Include/cmsis_gcc.h ****    POSSIBILITY OF SUCH DAMAGE.
  32:Drivers/CMSIS/Include/cmsis_gcc.h ****    ---------------------------------------------------------------------------*/
  33:Drivers/CMSIS/Include/cmsis_gcc.h **** 
ARM GAS  /tmp/ccBA2iOh.s 			page 30


  34:Drivers/CMSIS/Include/cmsis_gcc.h **** 
  35:Drivers/CMSIS/Include/cmsis_gcc.h **** #ifndef __CMSIS_GCC_H
  36:Drivers/CMSIS/Include/cmsis_gcc.h **** #define __CMSIS_GCC_H
  37:Drivers/CMSIS/Include/cmsis_gcc.h **** 
  38:Drivers/CMSIS/Include/cmsis_gcc.h **** /* ignore some GCC warnings */
  39:Drivers/CMSIS/Include/cmsis_gcc.h **** #if defined ( __GNUC__ )
  40:Drivers/CMSIS/Include/cmsis_gcc.h **** #pragma GCC diagnostic push
  41:Drivers/CMSIS/Include/cmsis_gcc.h **** #pragma GCC diagnostic ignored "-Wsign-conversion"
  42:Drivers/CMSIS/Include/cmsis_gcc.h **** #pragma GCC diagnostic ignored "-Wconversion"
  43:Drivers/CMSIS/Include/cmsis_gcc.h **** #pragma GCC diagnostic ignored "-Wunused-parameter"
  44:Drivers/CMSIS/Include/cmsis_gcc.h **** #endif
  45:Drivers/CMSIS/Include/cmsis_gcc.h **** 
  46:Drivers/CMSIS/Include/cmsis_gcc.h **** 
  47:Drivers/CMSIS/Include/cmsis_gcc.h **** /* ###########################  Core Function Access  ########################### */
  48:Drivers/CMSIS/Include/cmsis_gcc.h **** /** \ingroup  CMSIS_Core_FunctionInterface
  49:Drivers/CMSIS/Include/cmsis_gcc.h ****     \defgroup CMSIS_Core_RegAccFunctions CMSIS Core Register Access Functions
  50:Drivers/CMSIS/Include/cmsis_gcc.h ****   @{
  51:Drivers/CMSIS/Include/cmsis_gcc.h ****  */
  52:Drivers/CMSIS/Include/cmsis_gcc.h **** 
  53:Drivers/CMSIS/Include/cmsis_gcc.h **** /**
  54:Drivers/CMSIS/Include/cmsis_gcc.h ****   \brief   Enable IRQ Interrupts
  55:Drivers/CMSIS/Include/cmsis_gcc.h ****   \details Enables IRQ interrupts by clearing the I-bit in the CPSR.
  56:Drivers/CMSIS/Include/cmsis_gcc.h ****            Can only be executed in Privileged modes.
  57:Drivers/CMSIS/Include/cmsis_gcc.h ****  */
  58:Drivers/CMSIS/Include/cmsis_gcc.h **** __attribute__( ( always_inline ) ) __STATIC_INLINE void __enable_irq(void)
  59:Drivers/CMSIS/Include/cmsis_gcc.h **** {
  60:Drivers/CMSIS/Include/cmsis_gcc.h ****   __ASM volatile ("cpsie i" : : : "memory");
  61:Drivers/CMSIS/Include/cmsis_gcc.h **** }
  62:Drivers/CMSIS/Include/cmsis_gcc.h **** 
  63:Drivers/CMSIS/Include/cmsis_gcc.h **** 
  64:Drivers/CMSIS/Include/cmsis_gcc.h **** /**
  65:Drivers/CMSIS/Include/cmsis_gcc.h ****   \brief   Disable IRQ Interrupts
  66:Drivers/CMSIS/Include/cmsis_gcc.h ****   \details Disables IRQ interrupts by setting the I-bit in the CPSR.
  67:Drivers/CMSIS/Include/cmsis_gcc.h ****   Can only be executed in Privileged modes.
  68:Drivers/CMSIS/Include/cmsis_gcc.h ****  */
  69:Drivers/CMSIS/Include/cmsis_gcc.h **** __attribute__( ( always_inline ) ) __STATIC_INLINE void __disable_irq(void)
  70:Drivers/CMSIS/Include/cmsis_gcc.h **** {
  71:Drivers/CMSIS/Include/cmsis_gcc.h ****   __ASM volatile ("cpsid i" : : : "memory");
 997              		.loc 2 71 0
 998              		.syntax divided
 999              	@ 71 "Drivers/CMSIS/Include/cmsis_gcc.h" 1
 1000 000e 72B6     		cpsid i
 1001              	@ 0 "" 2
 1002              		.thumb
 1003              		.syntax unified
 1004              	.LBE7:
 1005              	.LBE6:
 637:Drivers/STM32L0xx_HAL_Driver/Src/stm32l0xx_hal_flash_ex.c ****   {  
 638:Drivers/STM32L0xx_HAL_Driver/Src/stm32l0xx_hal_flash_ex.c ****     /* Disable interrupts to avoid any interruption during unlock sequence */
 639:Drivers/STM32L0xx_HAL_Driver/Src/stm32l0xx_hal_flash_ex.c ****     __disable_irq();
 640:Drivers/STM32L0xx_HAL_Driver/Src/stm32l0xx_hal_flash_ex.c **** 
 641:Drivers/STM32L0xx_HAL_Driver/Src/stm32l0xx_hal_flash_ex.c ****     /* Unlocking the Data memory and FLASH_PECR register access*/
 642:Drivers/STM32L0xx_HAL_Driver/Src/stm32l0xx_hal_flash_ex.c ****     FLASH->PEKEYR = FLASH_PEKEY1;
 1006              		.loc 1 642 0
 1007 0010 084B     		ldr	r3, .L48
 1008 0012 094A     		ldr	r2, .L48+4
 1009 0014 DA60     		str	r2, [r3, #12]
ARM GAS  /tmp/ccBA2iOh.s 			page 31


 643:Drivers/STM32L0xx_HAL_Driver/Src/stm32l0xx_hal_flash_ex.c ****     FLASH->PEKEYR = FLASH_PEKEY2;
 1010              		.loc 1 643 0
 1011 0016 074B     		ldr	r3, .L48
 1012 0018 084A     		ldr	r2, .L48+8
 1013 001a DA60     		str	r2, [r3, #12]
 1014              	.LBB8:
 1015              	.LBB9:
  60:Drivers/CMSIS/Include/cmsis_gcc.h **** }
 1016              		.loc 2 60 0
 1017              		.syntax divided
 1018              	@ 60 "Drivers/CMSIS/Include/cmsis_gcc.h" 1
 1019 001c 62B6     		cpsie i
 1020              	@ 0 "" 2
 1021              		.thumb
 1022              		.syntax unified
 1023              	.LBE9:
 1024              	.LBE8:
 644:Drivers/STM32L0xx_HAL_Driver/Src/stm32l0xx_hal_flash_ex.c **** 
 645:Drivers/STM32L0xx_HAL_Driver/Src/stm32l0xx_hal_flash_ex.c ****     /* Re-enable the interrupts */
 646:Drivers/STM32L0xx_HAL_Driver/Src/stm32l0xx_hal_flash_ex.c ****     __enable_irq();
 647:Drivers/STM32L0xx_HAL_Driver/Src/stm32l0xx_hal_flash_ex.c **** 
 648:Drivers/STM32L0xx_HAL_Driver/Src/stm32l0xx_hal_flash_ex.c ****     if((FLASH->PECR & FLASH_PECR_PELOCK) != RESET)
 1025              		.loc 1 648 0
 1026 001e 054B     		ldr	r3, .L48
 1027 0020 5B68     		ldr	r3, [r3, #4]
 1028 0022 0122     		movs	r2, #1
 1029 0024 1340     		ands	r3, r2
 1030 0026 01D0     		beq	.L46
 649:Drivers/STM32L0xx_HAL_Driver/Src/stm32l0xx_hal_flash_ex.c ****     {
 650:Drivers/STM32L0xx_HAL_Driver/Src/stm32l0xx_hal_flash_ex.c ****       return HAL_ERROR;
 1031              		.loc 1 650 0
 1032 0028 0123     		movs	r3, #1
 1033 002a 00E0     		b	.L47
 1034              	.L46:
 651:Drivers/STM32L0xx_HAL_Driver/Src/stm32l0xx_hal_flash_ex.c ****     }
 652:Drivers/STM32L0xx_HAL_Driver/Src/stm32l0xx_hal_flash_ex.c ****   }
 653:Drivers/STM32L0xx_HAL_Driver/Src/stm32l0xx_hal_flash_ex.c **** 
 654:Drivers/STM32L0xx_HAL_Driver/Src/stm32l0xx_hal_flash_ex.c ****   return HAL_OK;  
 1035              		.loc 1 654 0
 1036 002c 0023     		movs	r3, #0
 1037              	.L47:
 655:Drivers/STM32L0xx_HAL_Driver/Src/stm32l0xx_hal_flash_ex.c **** }
 1038              		.loc 1 655 0
 1039 002e 1800     		movs	r0, r3
 1040 0030 BD46     		mov	sp, r7
 1041              		@ sp needed
 1042 0032 80BD     		pop	{r7, pc}
 1043              	.L49:
 1044              		.align	2
 1045              	.L48:
 1046 0034 00200240 		.word	1073881088
 1047 0038 EFCDAB89 		.word	-1985229329
 1048 003c 05040302 		.word	33752069
 1049              		.cfi_endproc
 1050              	.LFE42:
 1052              		.section	.text.HAL_FLASHEx_DATAEEPROM_Lock,"ax",%progbits
 1053              		.align	1
ARM GAS  /tmp/ccBA2iOh.s 			page 32


 1054              		.global	HAL_FLASHEx_DATAEEPROM_Lock
 1055              		.syntax unified
 1056              		.code	16
 1057              		.thumb_func
 1058              		.fpu softvfp
 1060              	HAL_FLASHEx_DATAEEPROM_Lock:
 1061              	.LFB43:
 656:Drivers/STM32L0xx_HAL_Driver/Src/stm32l0xx_hal_flash_ex.c **** 
 657:Drivers/STM32L0xx_HAL_Driver/Src/stm32l0xx_hal_flash_ex.c **** /**
 658:Drivers/STM32L0xx_HAL_Driver/Src/stm32l0xx_hal_flash_ex.c ****   * @brief  Locks the Data memory and FLASH_PECR register access.
 659:Drivers/STM32L0xx_HAL_Driver/Src/stm32l0xx_hal_flash_ex.c ****   * @retval HAL_StatusTypeDef HAL Status
 660:Drivers/STM32L0xx_HAL_Driver/Src/stm32l0xx_hal_flash_ex.c ****   */
 661:Drivers/STM32L0xx_HAL_Driver/Src/stm32l0xx_hal_flash_ex.c **** HAL_StatusTypeDef HAL_FLASHEx_DATAEEPROM_Lock(void)
 662:Drivers/STM32L0xx_HAL_Driver/Src/stm32l0xx_hal_flash_ex.c **** {
 1062              		.loc 1 662 0
 1063              		.cfi_startproc
 1064              		@ args = 0, pretend = 0, frame = 0
 1065              		@ frame_needed = 1, uses_anonymous_args = 0
 1066 0000 80B5     		push	{r7, lr}
 1067              	.LCFI26:
 1068              		.cfi_def_cfa_offset 8
 1069              		.cfi_offset 7, -8
 1070              		.cfi_offset 14, -4
 1071 0002 00AF     		add	r7, sp, #0
 1072              	.LCFI27:
 1073              		.cfi_def_cfa_register 7
 663:Drivers/STM32L0xx_HAL_Driver/Src/stm32l0xx_hal_flash_ex.c ****   /* Set the PELOCK Bit to lock the data memory and FLASH_PECR register access */
 664:Drivers/STM32L0xx_HAL_Driver/Src/stm32l0xx_hal_flash_ex.c ****   SET_BIT(FLASH->PECR, FLASH_PECR_PELOCK);
 1074              		.loc 1 664 0
 1075 0004 044B     		ldr	r3, .L52
 1076 0006 044A     		ldr	r2, .L52
 1077 0008 5268     		ldr	r2, [r2, #4]
 1078 000a 0121     		movs	r1, #1
 1079 000c 0A43     		orrs	r2, r1
 1080 000e 5A60     		str	r2, [r3, #4]
 665:Drivers/STM32L0xx_HAL_Driver/Src/stm32l0xx_hal_flash_ex.c ****   
 666:Drivers/STM32L0xx_HAL_Driver/Src/stm32l0xx_hal_flash_ex.c ****   return HAL_OK;
 1081              		.loc 1 666 0
 1082 0010 0023     		movs	r3, #0
 667:Drivers/STM32L0xx_HAL_Driver/Src/stm32l0xx_hal_flash_ex.c **** }
 1083              		.loc 1 667 0
 1084 0012 1800     		movs	r0, r3
 1085 0014 BD46     		mov	sp, r7
 1086              		@ sp needed
 1087 0016 80BD     		pop	{r7, pc}
 1088              	.L53:
 1089              		.align	2
 1090              	.L52:
 1091 0018 00200240 		.word	1073881088
 1092              		.cfi_endproc
 1093              	.LFE43:
 1095              		.section	.text.HAL_FLASHEx_DATAEEPROM_Erase,"ax",%progbits
 1096              		.align	1
 1097              		.global	HAL_FLASHEx_DATAEEPROM_Erase
 1098              		.syntax unified
 1099              		.code	16
 1100              		.thumb_func
ARM GAS  /tmp/ccBA2iOh.s 			page 33


 1101              		.fpu softvfp
 1103              	HAL_FLASHEx_DATAEEPROM_Erase:
 1104              	.LFB44:
 668:Drivers/STM32L0xx_HAL_Driver/Src/stm32l0xx_hal_flash_ex.c **** 
 669:Drivers/STM32L0xx_HAL_Driver/Src/stm32l0xx_hal_flash_ex.c **** /**
 670:Drivers/STM32L0xx_HAL_Driver/Src/stm32l0xx_hal_flash_ex.c ****   * @brief  Erase a word in data memory.
 671:Drivers/STM32L0xx_HAL_Driver/Src/stm32l0xx_hal_flash_ex.c ****   * @param  Address specifies the address to be erased.
 672:Drivers/STM32L0xx_HAL_Driver/Src/stm32l0xx_hal_flash_ex.c ****   * @note   To correctly run this function, the @ref HAL_FLASHEx_DATAEEPROM_Unlock() function
 673:Drivers/STM32L0xx_HAL_Driver/Src/stm32l0xx_hal_flash_ex.c ****   *         must be called before.
 674:Drivers/STM32L0xx_HAL_Driver/Src/stm32l0xx_hal_flash_ex.c ****   *         Call the @ref HAL_FLASHEx_DATAEEPROM_Lock() to the data EEPROM access
 675:Drivers/STM32L0xx_HAL_Driver/Src/stm32l0xx_hal_flash_ex.c ****   *         and Flash program erase control register access(recommended to protect 
 676:Drivers/STM32L0xx_HAL_Driver/Src/stm32l0xx_hal_flash_ex.c ****   *         the DATA_EEPROM against possible unwanted operation).
 677:Drivers/STM32L0xx_HAL_Driver/Src/stm32l0xx_hal_flash_ex.c ****   * @retval HAL_StatusTypeDef HAL Status
 678:Drivers/STM32L0xx_HAL_Driver/Src/stm32l0xx_hal_flash_ex.c ****   */
 679:Drivers/STM32L0xx_HAL_Driver/Src/stm32l0xx_hal_flash_ex.c **** HAL_StatusTypeDef HAL_FLASHEx_DATAEEPROM_Erase(uint32_t Address)
 680:Drivers/STM32L0xx_HAL_Driver/Src/stm32l0xx_hal_flash_ex.c **** {
 1105              		.loc 1 680 0
 1106              		.cfi_startproc
 1107              		@ args = 0, pretend = 0, frame = 16
 1108              		@ frame_needed = 1, uses_anonymous_args = 0
 1109 0000 90B5     		push	{r4, r7, lr}
 1110              	.LCFI28:
 1111              		.cfi_def_cfa_offset 12
 1112              		.cfi_offset 4, -12
 1113              		.cfi_offset 7, -8
 1114              		.cfi_offset 14, -4
 1115 0002 85B0     		sub	sp, sp, #20
 1116              	.LCFI29:
 1117              		.cfi_def_cfa_offset 32
 1118 0004 00AF     		add	r7, sp, #0
 1119              	.LCFI30:
 1120              		.cfi_def_cfa_register 7
 1121 0006 7860     		str	r0, [r7, #4]
 681:Drivers/STM32L0xx_HAL_Driver/Src/stm32l0xx_hal_flash_ex.c ****   HAL_StatusTypeDef status = HAL_OK;
 1122              		.loc 1 681 0
 1123 0008 0F23     		movs	r3, #15
 1124 000a FB18     		adds	r3, r7, r3
 1125 000c 0022     		movs	r2, #0
 1126 000e 1A70     		strb	r2, [r3]
 682:Drivers/STM32L0xx_HAL_Driver/Src/stm32l0xx_hal_flash_ex.c ****   
 683:Drivers/STM32L0xx_HAL_Driver/Src/stm32l0xx_hal_flash_ex.c ****   /* Check the parameters */
 684:Drivers/STM32L0xx_HAL_Driver/Src/stm32l0xx_hal_flash_ex.c ****   assert_param(IS_FLASH_DATA_ADDRESS(Address));
 685:Drivers/STM32L0xx_HAL_Driver/Src/stm32l0xx_hal_flash_ex.c ****   
 686:Drivers/STM32L0xx_HAL_Driver/Src/stm32l0xx_hal_flash_ex.c ****   /* Wait for last operation to be completed */
 687:Drivers/STM32L0xx_HAL_Driver/Src/stm32l0xx_hal_flash_ex.c ****   status = FLASH_WaitForLastOperation(FLASH_TIMEOUT_VALUE);
 1127              		.loc 1 687 0
 1128 0010 0F23     		movs	r3, #15
 1129 0012 FC18     		adds	r4, r7, r3
 1130 0014 0F4B     		ldr	r3, .L57
 1131 0016 1800     		movs	r0, r3
 1132 0018 FFF7FEFF 		bl	FLASH_WaitForLastOperation
 1133 001c 0300     		movs	r3, r0
 1134 001e 2370     		strb	r3, [r4]
 688:Drivers/STM32L0xx_HAL_Driver/Src/stm32l0xx_hal_flash_ex.c ****   
 689:Drivers/STM32L0xx_HAL_Driver/Src/stm32l0xx_hal_flash_ex.c ****   if(status == HAL_OK)
 1135              		.loc 1 689 0
 1136 0020 0F23     		movs	r3, #15
ARM GAS  /tmp/ccBA2iOh.s 			page 34


 1137 0022 FB18     		adds	r3, r7, r3
 1138 0024 1B78     		ldrb	r3, [r3]
 1139 0026 002B     		cmp	r3, #0
 1140 0028 0DD1     		bne	.L55
 690:Drivers/STM32L0xx_HAL_Driver/Src/stm32l0xx_hal_flash_ex.c ****   {
 691:Drivers/STM32L0xx_HAL_Driver/Src/stm32l0xx_hal_flash_ex.c ****     /* Clean the error context */
 692:Drivers/STM32L0xx_HAL_Driver/Src/stm32l0xx_hal_flash_ex.c ****     pFlash.ErrorCode = HAL_FLASH_ERROR_NONE;
 1141              		.loc 1 692 0
 1142 002a 0B4B     		ldr	r3, .L57+4
 1143 002c 0022     		movs	r2, #0
 1144 002e 5A61     		str	r2, [r3, #20]
 693:Drivers/STM32L0xx_HAL_Driver/Src/stm32l0xx_hal_flash_ex.c **** 
 694:Drivers/STM32L0xx_HAL_Driver/Src/stm32l0xx_hal_flash_ex.c ****       /* Write 00000000h to valid address in the data memory */
 695:Drivers/STM32L0xx_HAL_Driver/Src/stm32l0xx_hal_flash_ex.c ****       *(__IO uint32_t *) Address = 0x00000000U;
 1145              		.loc 1 695 0
 1146 0030 7B68     		ldr	r3, [r7, #4]
 1147 0032 0022     		movs	r2, #0
 1148 0034 1A60     		str	r2, [r3]
 696:Drivers/STM32L0xx_HAL_Driver/Src/stm32l0xx_hal_flash_ex.c **** 
 697:Drivers/STM32L0xx_HAL_Driver/Src/stm32l0xx_hal_flash_ex.c ****     status = FLASH_WaitForLastOperation(FLASH_TIMEOUT_VALUE);
 1149              		.loc 1 697 0
 1150 0036 0F23     		movs	r3, #15
 1151 0038 FC18     		adds	r4, r7, r3
 1152 003a 064B     		ldr	r3, .L57
 1153 003c 1800     		movs	r0, r3
 1154 003e FFF7FEFF 		bl	FLASH_WaitForLastOperation
 1155 0042 0300     		movs	r3, r0
 1156 0044 2370     		strb	r3, [r4]
 1157              	.L55:
 698:Drivers/STM32L0xx_HAL_Driver/Src/stm32l0xx_hal_flash_ex.c ****   }
 699:Drivers/STM32L0xx_HAL_Driver/Src/stm32l0xx_hal_flash_ex.c ****    
 700:Drivers/STM32L0xx_HAL_Driver/Src/stm32l0xx_hal_flash_ex.c ****   /* Return the erase status */
 701:Drivers/STM32L0xx_HAL_Driver/Src/stm32l0xx_hal_flash_ex.c ****   return status;
 1158              		.loc 1 701 0
 1159 0046 0F23     		movs	r3, #15
 1160 0048 FB18     		adds	r3, r7, r3
 1161 004a 1B78     		ldrb	r3, [r3]
 702:Drivers/STM32L0xx_HAL_Driver/Src/stm32l0xx_hal_flash_ex.c **** }  
 1162              		.loc 1 702 0
 1163 004c 1800     		movs	r0, r3
 1164 004e BD46     		mov	sp, r7
 1165 0050 05B0     		add	sp, sp, #20
 1166              		@ sp needed
 1167 0052 90BD     		pop	{r4, r7, pc}
 1168              	.L58:
 1169              		.align	2
 1170              	.L57:
 1171 0054 50C30000 		.word	50000
 1172 0058 00000000 		.word	pFlash
 1173              		.cfi_endproc
 1174              	.LFE44:
 1176              		.section	.text.HAL_FLASHEx_DATAEEPROM_Program,"ax",%progbits
 1177              		.align	1
 1178              		.global	HAL_FLASHEx_DATAEEPROM_Program
 1179              		.syntax unified
 1180              		.code	16
 1181              		.thumb_func
ARM GAS  /tmp/ccBA2iOh.s 			page 35


 1182              		.fpu softvfp
 1184              	HAL_FLASHEx_DATAEEPROM_Program:
 1185              	.LFB45:
 703:Drivers/STM32L0xx_HAL_Driver/Src/stm32l0xx_hal_flash_ex.c **** 
 704:Drivers/STM32L0xx_HAL_Driver/Src/stm32l0xx_hal_flash_ex.c **** /**
 705:Drivers/STM32L0xx_HAL_Driver/Src/stm32l0xx_hal_flash_ex.c ****   * @brief  Program word at a specified address
 706:Drivers/STM32L0xx_HAL_Driver/Src/stm32l0xx_hal_flash_ex.c ****   * @note   To correctly run this function, the @ref HAL_FLASHEx_DATAEEPROM_Unlock() function
 707:Drivers/STM32L0xx_HAL_Driver/Src/stm32l0xx_hal_flash_ex.c ****   *         must be called before.
 708:Drivers/STM32L0xx_HAL_Driver/Src/stm32l0xx_hal_flash_ex.c ****   *         Call the @ref HAL_FLASHEx_DATAEEPROM_Unlock() to he data EEPROM access
 709:Drivers/STM32L0xx_HAL_Driver/Src/stm32l0xx_hal_flash_ex.c ****   *         and Flash program erase control register access(recommended to protect 
 710:Drivers/STM32L0xx_HAL_Driver/Src/stm32l0xx_hal_flash_ex.c ****   *         the DATA_EEPROM against possible unwanted operation).
 711:Drivers/STM32L0xx_HAL_Driver/Src/stm32l0xx_hal_flash_ex.c ****   * @note   The function @ref HAL_FLASHEx_DATAEEPROM_EnableFixedTimeProgram() can be called before 
 712:Drivers/STM32L0xx_HAL_Driver/Src/stm32l0xx_hal_flash_ex.c ****   *         this function to configure the Fixed Time Programming.
 713:Drivers/STM32L0xx_HAL_Driver/Src/stm32l0xx_hal_flash_ex.c ****   * @param  TypeProgram  Indicate the way to program at a specified address.
 714:Drivers/STM32L0xx_HAL_Driver/Src/stm32l0xx_hal_flash_ex.c ****   *         This parameter can be a value of @ref FLASHEx_Type_Program_Data
 715:Drivers/STM32L0xx_HAL_Driver/Src/stm32l0xx_hal_flash_ex.c ****   * @param  Address  specifie the address to be programmed.
 716:Drivers/STM32L0xx_HAL_Driver/Src/stm32l0xx_hal_flash_ex.c ****   * @param  Data     specifie the data to be programmed
 717:Drivers/STM32L0xx_HAL_Driver/Src/stm32l0xx_hal_flash_ex.c ****   * 
 718:Drivers/STM32L0xx_HAL_Driver/Src/stm32l0xx_hal_flash_ex.c ****   * @retval HAL_StatusTypeDef HAL Status
 719:Drivers/STM32L0xx_HAL_Driver/Src/stm32l0xx_hal_flash_ex.c ****   */
 720:Drivers/STM32L0xx_HAL_Driver/Src/stm32l0xx_hal_flash_ex.c **** 
 721:Drivers/STM32L0xx_HAL_Driver/Src/stm32l0xx_hal_flash_ex.c **** HAL_StatusTypeDef   HAL_FLASHEx_DATAEEPROM_Program(uint32_t TypeProgram, uint32_t Address, uint32_t
 722:Drivers/STM32L0xx_HAL_Driver/Src/stm32l0xx_hal_flash_ex.c **** {
 1186              		.loc 1 722 0
 1187              		.cfi_startproc
 1188              		@ args = 0, pretend = 0, frame = 24
 1189              		@ frame_needed = 1, uses_anonymous_args = 0
 1190 0000 90B5     		push	{r4, r7, lr}
 1191              	.LCFI31:
 1192              		.cfi_def_cfa_offset 12
 1193              		.cfi_offset 4, -12
 1194              		.cfi_offset 7, -8
 1195              		.cfi_offset 14, -4
 1196 0002 87B0     		sub	sp, sp, #28
 1197              	.LCFI32:
 1198              		.cfi_def_cfa_offset 40
 1199 0004 00AF     		add	r7, sp, #0
 1200              	.LCFI33:
 1201              		.cfi_def_cfa_register 7
 1202 0006 F860     		str	r0, [r7, #12]
 1203 0008 B960     		str	r1, [r7, #8]
 1204 000a 7A60     		str	r2, [r7, #4]
 723:Drivers/STM32L0xx_HAL_Driver/Src/stm32l0xx_hal_flash_ex.c ****   HAL_StatusTypeDef status = HAL_ERROR;
 1205              		.loc 1 723 0
 1206 000c 1723     		movs	r3, #23
 1207 000e FB18     		adds	r3, r7, r3
 1208 0010 0122     		movs	r2, #1
 1209 0012 1A70     		strb	r2, [r3]
 724:Drivers/STM32L0xx_HAL_Driver/Src/stm32l0xx_hal_flash_ex.c ****   
 725:Drivers/STM32L0xx_HAL_Driver/Src/stm32l0xx_hal_flash_ex.c ****   /* Process Locked */
 726:Drivers/STM32L0xx_HAL_Driver/Src/stm32l0xx_hal_flash_ex.c ****   __HAL_LOCK(&pFlash);
 1210              		.loc 1 726 0
 1211 0014 254B     		ldr	r3, .L67
 1212 0016 1B7C     		ldrb	r3, [r3, #16]
 1213 0018 012B     		cmp	r3, #1
 1214 001a 01D1     		bne	.L60
 1215              		.loc 1 726 0 is_stmt 0 discriminator 1
ARM GAS  /tmp/ccBA2iOh.s 			page 36


 1216 001c 0223     		movs	r3, #2
 1217 001e 40E0     		b	.L61
 1218              	.L60:
 1219              		.loc 1 726 0 discriminator 2
 1220 0020 224B     		ldr	r3, .L67
 1221 0022 0122     		movs	r2, #1
 1222 0024 1A74     		strb	r2, [r3, #16]
 727:Drivers/STM32L0xx_HAL_Driver/Src/stm32l0xx_hal_flash_ex.c **** 
 728:Drivers/STM32L0xx_HAL_Driver/Src/stm32l0xx_hal_flash_ex.c ****   /* Check the parameters */
 729:Drivers/STM32L0xx_HAL_Driver/Src/stm32l0xx_hal_flash_ex.c ****   assert_param(IS_TYPEPROGRAMDATA(TypeProgram));
 730:Drivers/STM32L0xx_HAL_Driver/Src/stm32l0xx_hal_flash_ex.c ****   assert_param(IS_FLASH_DATA_ADDRESS(Address));
 731:Drivers/STM32L0xx_HAL_Driver/Src/stm32l0xx_hal_flash_ex.c **** 
 732:Drivers/STM32L0xx_HAL_Driver/Src/stm32l0xx_hal_flash_ex.c ****   /* Wait for last operation to be completed */
 733:Drivers/STM32L0xx_HAL_Driver/Src/stm32l0xx_hal_flash_ex.c ****   status = FLASH_WaitForLastOperation(FLASH_TIMEOUT_VALUE);
 1223              		.loc 1 733 0 is_stmt 1 discriminator 2
 1224 0026 1723     		movs	r3, #23
 1225 0028 FC18     		adds	r4, r7, r3
 1226 002a 214B     		ldr	r3, .L67+4
 1227 002c 1800     		movs	r0, r3
 1228 002e FFF7FEFF 		bl	FLASH_WaitForLastOperation
 1229 0032 0300     		movs	r3, r0
 1230 0034 2370     		strb	r3, [r4]
 734:Drivers/STM32L0xx_HAL_Driver/Src/stm32l0xx_hal_flash_ex.c ****   
 735:Drivers/STM32L0xx_HAL_Driver/Src/stm32l0xx_hal_flash_ex.c ****   if(status == HAL_OK)
 1231              		.loc 1 735 0 discriminator 2
 1232 0036 1723     		movs	r3, #23
 1233 0038 FB18     		adds	r3, r7, r3
 1234 003a 1B78     		ldrb	r3, [r3]
 1235 003c 002B     		cmp	r3, #0
 1236 003e 2AD1     		bne	.L62
 736:Drivers/STM32L0xx_HAL_Driver/Src/stm32l0xx_hal_flash_ex.c ****   {
 737:Drivers/STM32L0xx_HAL_Driver/Src/stm32l0xx_hal_flash_ex.c ****     /* Clean the error context */
 738:Drivers/STM32L0xx_HAL_Driver/Src/stm32l0xx_hal_flash_ex.c ****     pFlash.ErrorCode = HAL_FLASH_ERROR_NONE;
 1237              		.loc 1 738 0
 1238 0040 1A4B     		ldr	r3, .L67
 1239 0042 0022     		movs	r2, #0
 1240 0044 5A61     		str	r2, [r3, #20]
 739:Drivers/STM32L0xx_HAL_Driver/Src/stm32l0xx_hal_flash_ex.c **** 
 740:Drivers/STM32L0xx_HAL_Driver/Src/stm32l0xx_hal_flash_ex.c ****     if(TypeProgram == FLASH_TYPEPROGRAMDATA_WORD)
 1241              		.loc 1 740 0
 1242 0046 FB68     		ldr	r3, [r7, #12]
 1243 0048 022B     		cmp	r3, #2
 1244 004a 03D1     		bne	.L63
 741:Drivers/STM32L0xx_HAL_Driver/Src/stm32l0xx_hal_flash_ex.c ****     {
 742:Drivers/STM32L0xx_HAL_Driver/Src/stm32l0xx_hal_flash_ex.c ****       /* Program word (32-bit) at a specified address.*/
 743:Drivers/STM32L0xx_HAL_Driver/Src/stm32l0xx_hal_flash_ex.c ****       *(__IO uint32_t *)Address = Data;
 1245              		.loc 1 743 0
 1246 004c BB68     		ldr	r3, [r7, #8]
 1247 004e 7A68     		ldr	r2, [r7, #4]
 1248 0050 1A60     		str	r2, [r3]
 1249 0052 13E0     		b	.L64
 1250              	.L63:
 744:Drivers/STM32L0xx_HAL_Driver/Src/stm32l0xx_hal_flash_ex.c ****     }
 745:Drivers/STM32L0xx_HAL_Driver/Src/stm32l0xx_hal_flash_ex.c ****     else if(TypeProgram == FLASH_TYPEPROGRAMDATA_HALFWORD)
 1251              		.loc 1 745 0
 1252 0054 FB68     		ldr	r3, [r7, #12]
 1253 0056 012B     		cmp	r3, #1
ARM GAS  /tmp/ccBA2iOh.s 			page 37


 1254 0058 04D1     		bne	.L65
 746:Drivers/STM32L0xx_HAL_Driver/Src/stm32l0xx_hal_flash_ex.c ****     {
 747:Drivers/STM32L0xx_HAL_Driver/Src/stm32l0xx_hal_flash_ex.c ****       /* Program halfword (16-bit) at a specified address.*/
 748:Drivers/STM32L0xx_HAL_Driver/Src/stm32l0xx_hal_flash_ex.c ****       *(__IO uint16_t *)Address = (uint16_t) Data;
 1255              		.loc 1 748 0
 1256 005a BB68     		ldr	r3, [r7, #8]
 1257 005c 7A68     		ldr	r2, [r7, #4]
 1258 005e 92B2     		uxth	r2, r2
 1259 0060 1A80     		strh	r2, [r3]
 1260 0062 0BE0     		b	.L64
 1261              	.L65:
 749:Drivers/STM32L0xx_HAL_Driver/Src/stm32l0xx_hal_flash_ex.c ****     }
 750:Drivers/STM32L0xx_HAL_Driver/Src/stm32l0xx_hal_flash_ex.c ****     else if(TypeProgram == FLASH_TYPEPROGRAMDATA_BYTE)
 1262              		.loc 1 750 0
 1263 0064 FB68     		ldr	r3, [r7, #12]
 1264 0066 002B     		cmp	r3, #0
 1265 0068 04D1     		bne	.L66
 751:Drivers/STM32L0xx_HAL_Driver/Src/stm32l0xx_hal_flash_ex.c ****     {
 752:Drivers/STM32L0xx_HAL_Driver/Src/stm32l0xx_hal_flash_ex.c ****       /* Program byte (8-bit) at a specified address.*/
 753:Drivers/STM32L0xx_HAL_Driver/Src/stm32l0xx_hal_flash_ex.c ****       *(__IO uint8_t *)Address = (uint8_t) Data;
 1266              		.loc 1 753 0
 1267 006a BB68     		ldr	r3, [r7, #8]
 1268 006c 7A68     		ldr	r2, [r7, #4]
 1269 006e D2B2     		uxtb	r2, r2
 1270 0070 1A70     		strb	r2, [r3]
 1271 0072 03E0     		b	.L64
 1272              	.L66:
 754:Drivers/STM32L0xx_HAL_Driver/Src/stm32l0xx_hal_flash_ex.c ****     }
 755:Drivers/STM32L0xx_HAL_Driver/Src/stm32l0xx_hal_flash_ex.c ****     else
 756:Drivers/STM32L0xx_HAL_Driver/Src/stm32l0xx_hal_flash_ex.c ****     {
 757:Drivers/STM32L0xx_HAL_Driver/Src/stm32l0xx_hal_flash_ex.c ****       status = HAL_ERROR;
 1273              		.loc 1 757 0
 1274 0074 1723     		movs	r3, #23
 1275 0076 FB18     		adds	r3, r7, r3
 1276 0078 0122     		movs	r2, #1
 1277 007a 1A70     		strb	r2, [r3]
 1278              	.L64:
 758:Drivers/STM32L0xx_HAL_Driver/Src/stm32l0xx_hal_flash_ex.c ****     }
 759:Drivers/STM32L0xx_HAL_Driver/Src/stm32l0xx_hal_flash_ex.c **** 
 760:Drivers/STM32L0xx_HAL_Driver/Src/stm32l0xx_hal_flash_ex.c ****     if (status != HAL_OK)
 1279              		.loc 1 760 0
 1280 007c 1723     		movs	r3, #23
 1281 007e FB18     		adds	r3, r7, r3
 1282 0080 1B78     		ldrb	r3, [r3]
 1283 0082 002B     		cmp	r3, #0
 1284 0084 07D0     		beq	.L62
 761:Drivers/STM32L0xx_HAL_Driver/Src/stm32l0xx_hal_flash_ex.c ****     {
 762:Drivers/STM32L0xx_HAL_Driver/Src/stm32l0xx_hal_flash_ex.c ****       /* Wait for last operation to be completed */
 763:Drivers/STM32L0xx_HAL_Driver/Src/stm32l0xx_hal_flash_ex.c ****       status = FLASH_WaitForLastOperation(FLASH_TIMEOUT_VALUE);
 1285              		.loc 1 763 0
 1286 0086 1723     		movs	r3, #23
 1287 0088 FC18     		adds	r4, r7, r3
 1288 008a 094B     		ldr	r3, .L67+4
 1289 008c 1800     		movs	r0, r3
 1290 008e FFF7FEFF 		bl	FLASH_WaitForLastOperation
 1291 0092 0300     		movs	r3, r0
 1292 0094 2370     		strb	r3, [r4]
ARM GAS  /tmp/ccBA2iOh.s 			page 38


 1293              	.L62:
 764:Drivers/STM32L0xx_HAL_Driver/Src/stm32l0xx_hal_flash_ex.c ****     }
 765:Drivers/STM32L0xx_HAL_Driver/Src/stm32l0xx_hal_flash_ex.c ****   }
 766:Drivers/STM32L0xx_HAL_Driver/Src/stm32l0xx_hal_flash_ex.c **** 
 767:Drivers/STM32L0xx_HAL_Driver/Src/stm32l0xx_hal_flash_ex.c ****   /* Process Unlocked */
 768:Drivers/STM32L0xx_HAL_Driver/Src/stm32l0xx_hal_flash_ex.c ****   __HAL_UNLOCK(&pFlash);
 1294              		.loc 1 768 0
 1295 0096 054B     		ldr	r3, .L67
 1296 0098 0022     		movs	r2, #0
 1297 009a 1A74     		strb	r2, [r3, #16]
 769:Drivers/STM32L0xx_HAL_Driver/Src/stm32l0xx_hal_flash_ex.c **** 
 770:Drivers/STM32L0xx_HAL_Driver/Src/stm32l0xx_hal_flash_ex.c ****   return status;
 1298              		.loc 1 770 0
 1299 009c 1723     		movs	r3, #23
 1300 009e FB18     		adds	r3, r7, r3
 1301 00a0 1B78     		ldrb	r3, [r3]
 1302              	.L61:
 771:Drivers/STM32L0xx_HAL_Driver/Src/stm32l0xx_hal_flash_ex.c **** }
 1303              		.loc 1 771 0
 1304 00a2 1800     		movs	r0, r3
 1305 00a4 BD46     		mov	sp, r7
 1306 00a6 07B0     		add	sp, sp, #28
 1307              		@ sp needed
 1308 00a8 90BD     		pop	{r4, r7, pc}
 1309              	.L68:
 1310 00aa C046     		.align	2
 1311              	.L67:
 1312 00ac 00000000 		.word	pFlash
 1313 00b0 50C30000 		.word	50000
 1314              		.cfi_endproc
 1315              	.LFE45:
 1317              		.section	.text.HAL_FLASHEx_DATAEEPROM_EnableFixedTimeProgram,"ax",%progbits
 1318              		.align	1
 1319              		.global	HAL_FLASHEx_DATAEEPROM_EnableFixedTimeProgram
 1320              		.syntax unified
 1321              		.code	16
 1322              		.thumb_func
 1323              		.fpu softvfp
 1325              	HAL_FLASHEx_DATAEEPROM_EnableFixedTimeProgram:
 1326              	.LFB46:
 772:Drivers/STM32L0xx_HAL_Driver/Src/stm32l0xx_hal_flash_ex.c **** 
 773:Drivers/STM32L0xx_HAL_Driver/Src/stm32l0xx_hal_flash_ex.c **** /**
 774:Drivers/STM32L0xx_HAL_Driver/Src/stm32l0xx_hal_flash_ex.c ****   * @brief  Enable DATA EEPROM fixed Time programming (2*Tprog).
 775:Drivers/STM32L0xx_HAL_Driver/Src/stm32l0xx_hal_flash_ex.c ****   * @retval None
 776:Drivers/STM32L0xx_HAL_Driver/Src/stm32l0xx_hal_flash_ex.c ****   */
 777:Drivers/STM32L0xx_HAL_Driver/Src/stm32l0xx_hal_flash_ex.c **** void HAL_FLASHEx_DATAEEPROM_EnableFixedTimeProgram(void)
 778:Drivers/STM32L0xx_HAL_Driver/Src/stm32l0xx_hal_flash_ex.c **** {
 1327              		.loc 1 778 0
 1328              		.cfi_startproc
 1329              		@ args = 0, pretend = 0, frame = 0
 1330              		@ frame_needed = 1, uses_anonymous_args = 0
 1331 0000 80B5     		push	{r7, lr}
 1332              	.LCFI34:
 1333              		.cfi_def_cfa_offset 8
 1334              		.cfi_offset 7, -8
 1335              		.cfi_offset 14, -4
 1336 0002 00AF     		add	r7, sp, #0
ARM GAS  /tmp/ccBA2iOh.s 			page 39


 1337              	.LCFI35:
 1338              		.cfi_def_cfa_register 7
 779:Drivers/STM32L0xx_HAL_Driver/Src/stm32l0xx_hal_flash_ex.c ****   SET_BIT(FLASH->PECR, FLASH_PECR_FIX);
 1339              		.loc 1 779 0
 1340 0004 044B     		ldr	r3, .L70
 1341 0006 044A     		ldr	r2, .L70
 1342 0008 5268     		ldr	r2, [r2, #4]
 1343 000a 8021     		movs	r1, #128
 1344 000c 4900     		lsls	r1, r1, #1
 1345 000e 0A43     		orrs	r2, r1
 1346 0010 5A60     		str	r2, [r3, #4]
 780:Drivers/STM32L0xx_HAL_Driver/Src/stm32l0xx_hal_flash_ex.c **** }
 1347              		.loc 1 780 0
 1348 0012 C046     		nop
 1349 0014 BD46     		mov	sp, r7
 1350              		@ sp needed
 1351 0016 80BD     		pop	{r7, pc}
 1352              	.L71:
 1353              		.align	2
 1354              	.L70:
 1355 0018 00200240 		.word	1073881088
 1356              		.cfi_endproc
 1357              	.LFE46:
 1359              		.section	.text.HAL_FLASHEx_DATAEEPROM_DisableFixedTimeProgram,"ax",%progbits
 1360              		.align	1
 1361              		.global	HAL_FLASHEx_DATAEEPROM_DisableFixedTimeProgram
 1362              		.syntax unified
 1363              		.code	16
 1364              		.thumb_func
 1365              		.fpu softvfp
 1367              	HAL_FLASHEx_DATAEEPROM_DisableFixedTimeProgram:
 1368              	.LFB47:
 781:Drivers/STM32L0xx_HAL_Driver/Src/stm32l0xx_hal_flash_ex.c **** 
 782:Drivers/STM32L0xx_HAL_Driver/Src/stm32l0xx_hal_flash_ex.c **** /**
 783:Drivers/STM32L0xx_HAL_Driver/Src/stm32l0xx_hal_flash_ex.c ****   * @brief  Disables DATA EEPROM fixed Time programming (2*Tprog).
 784:Drivers/STM32L0xx_HAL_Driver/Src/stm32l0xx_hal_flash_ex.c ****   * @retval None
 785:Drivers/STM32L0xx_HAL_Driver/Src/stm32l0xx_hal_flash_ex.c ****   */
 786:Drivers/STM32L0xx_HAL_Driver/Src/stm32l0xx_hal_flash_ex.c **** void HAL_FLASHEx_DATAEEPROM_DisableFixedTimeProgram(void)
 787:Drivers/STM32L0xx_HAL_Driver/Src/stm32l0xx_hal_flash_ex.c **** {
 1369              		.loc 1 787 0
 1370              		.cfi_startproc
 1371              		@ args = 0, pretend = 0, frame = 0
 1372              		@ frame_needed = 1, uses_anonymous_args = 0
 1373 0000 80B5     		push	{r7, lr}
 1374              	.LCFI36:
 1375              		.cfi_def_cfa_offset 8
 1376              		.cfi_offset 7, -8
 1377              		.cfi_offset 14, -4
 1378 0002 00AF     		add	r7, sp, #0
 1379              	.LCFI37:
 1380              		.cfi_def_cfa_register 7
 788:Drivers/STM32L0xx_HAL_Driver/Src/stm32l0xx_hal_flash_ex.c ****   CLEAR_BIT(FLASH->PECR, FLASH_PECR_FIX);
 1381              		.loc 1 788 0
 1382 0004 044B     		ldr	r3, .L73
 1383 0006 044A     		ldr	r2, .L73
 1384 0008 5268     		ldr	r2, [r2, #4]
 1385 000a 0449     		ldr	r1, .L73+4
ARM GAS  /tmp/ccBA2iOh.s 			page 40


 1386 000c 0A40     		ands	r2, r1
 1387 000e 5A60     		str	r2, [r3, #4]
 789:Drivers/STM32L0xx_HAL_Driver/Src/stm32l0xx_hal_flash_ex.c **** }
 1388              		.loc 1 789 0
 1389 0010 C046     		nop
 1390 0012 BD46     		mov	sp, r7
 1391              		@ sp needed
 1392 0014 80BD     		pop	{r7, pc}
 1393              	.L74:
 1394 0016 C046     		.align	2
 1395              	.L73:
 1396 0018 00200240 		.word	1073881088
 1397 001c FFFEFFFF 		.word	-257
 1398              		.cfi_endproc
 1399              	.LFE47:
 1401              		.section	.text.FLASH_OB_RDPConfig,"ax",%progbits
 1402              		.align	1
 1403              		.syntax unified
 1404              		.code	16
 1405              		.thumb_func
 1406              		.fpu softvfp
 1408              	FLASH_OB_RDPConfig:
 1409              	.LFB48:
 790:Drivers/STM32L0xx_HAL_Driver/Src/stm32l0xx_hal_flash_ex.c **** 
 791:Drivers/STM32L0xx_HAL_Driver/Src/stm32l0xx_hal_flash_ex.c **** /**
 792:Drivers/STM32L0xx_HAL_Driver/Src/stm32l0xx_hal_flash_ex.c ****   * @}
 793:Drivers/STM32L0xx_HAL_Driver/Src/stm32l0xx_hal_flash_ex.c ****   */
 794:Drivers/STM32L0xx_HAL_Driver/Src/stm32l0xx_hal_flash_ex.c **** 
 795:Drivers/STM32L0xx_HAL_Driver/Src/stm32l0xx_hal_flash_ex.c **** /**
 796:Drivers/STM32L0xx_HAL_Driver/Src/stm32l0xx_hal_flash_ex.c ****   * @}
 797:Drivers/STM32L0xx_HAL_Driver/Src/stm32l0xx_hal_flash_ex.c ****   */
 798:Drivers/STM32L0xx_HAL_Driver/Src/stm32l0xx_hal_flash_ex.c **** 
 799:Drivers/STM32L0xx_HAL_Driver/Src/stm32l0xx_hal_flash_ex.c **** /** @addtogroup FLASHEx_Private_Functions
 800:Drivers/STM32L0xx_HAL_Driver/Src/stm32l0xx_hal_flash_ex.c ****  * @{
 801:Drivers/STM32L0xx_HAL_Driver/Src/stm32l0xx_hal_flash_ex.c ****  */
 802:Drivers/STM32L0xx_HAL_Driver/Src/stm32l0xx_hal_flash_ex.c **** 
 803:Drivers/STM32L0xx_HAL_Driver/Src/stm32l0xx_hal_flash_ex.c **** /*
 804:Drivers/STM32L0xx_HAL_Driver/Src/stm32l0xx_hal_flash_ex.c **** ==============================================================================
 805:Drivers/STM32L0xx_HAL_Driver/Src/stm32l0xx_hal_flash_ex.c ****               OPTIONS BYTES
 806:Drivers/STM32L0xx_HAL_Driver/Src/stm32l0xx_hal_flash_ex.c **** ==============================================================================
 807:Drivers/STM32L0xx_HAL_Driver/Src/stm32l0xx_hal_flash_ex.c **** */
 808:Drivers/STM32L0xx_HAL_Driver/Src/stm32l0xx_hal_flash_ex.c **** /**
 809:Drivers/STM32L0xx_HAL_Driver/Src/stm32l0xx_hal_flash_ex.c ****   * @brief  Enables or disables the read out protection.
 810:Drivers/STM32L0xx_HAL_Driver/Src/stm32l0xx_hal_flash_ex.c ****   * @note   To correctly run this function, the @ref HAL_FLASH_OB_Unlock() function
 811:Drivers/STM32L0xx_HAL_Driver/Src/stm32l0xx_hal_flash_ex.c ****   *         must be called before.
 812:Drivers/STM32L0xx_HAL_Driver/Src/stm32l0xx_hal_flash_ex.c ****   * @param  OB_RDP specifies the read protection level. 
 813:Drivers/STM32L0xx_HAL_Driver/Src/stm32l0xx_hal_flash_ex.c ****   *   This parameter can be:
 814:Drivers/STM32L0xx_HAL_Driver/Src/stm32l0xx_hal_flash_ex.c ****   *     @arg @ref OB_RDP_LEVEL_0 No protection
 815:Drivers/STM32L0xx_HAL_Driver/Src/stm32l0xx_hal_flash_ex.c ****   *     @arg @ref OB_RDP_LEVEL_1 Read protection of the memory
 816:Drivers/STM32L0xx_HAL_Driver/Src/stm32l0xx_hal_flash_ex.c ****   *     @arg @ref OB_RDP_LEVEL_2 Chip protection
 817:Drivers/STM32L0xx_HAL_Driver/Src/stm32l0xx_hal_flash_ex.c ****   * 
 818:Drivers/STM32L0xx_HAL_Driver/Src/stm32l0xx_hal_flash_ex.c ****   *  !!!Warning!!! When enabling OB_RDP_LEVEL_2 it's no more possible to go back to level 1 or 0
 819:Drivers/STM32L0xx_HAL_Driver/Src/stm32l0xx_hal_flash_ex.c ****   *   
 820:Drivers/STM32L0xx_HAL_Driver/Src/stm32l0xx_hal_flash_ex.c ****   * @retval HAL status
 821:Drivers/STM32L0xx_HAL_Driver/Src/stm32l0xx_hal_flash_ex.c ****   */
 822:Drivers/STM32L0xx_HAL_Driver/Src/stm32l0xx_hal_flash_ex.c **** static HAL_StatusTypeDef FLASH_OB_RDPConfig(uint8_t OB_RDP)
 823:Drivers/STM32L0xx_HAL_Driver/Src/stm32l0xx_hal_flash_ex.c **** {
ARM GAS  /tmp/ccBA2iOh.s 			page 41


 1410              		.loc 1 823 0
 1411              		.cfi_startproc
 1412              		@ args = 0, pretend = 0, frame = 24
 1413              		@ frame_needed = 1, uses_anonymous_args = 0
 1414 0000 90B5     		push	{r4, r7, lr}
 1415              	.LCFI38:
 1416              		.cfi_def_cfa_offset 12
 1417              		.cfi_offset 4, -12
 1418              		.cfi_offset 7, -8
 1419              		.cfi_offset 14, -4
 1420 0002 87B0     		sub	sp, sp, #28
 1421              	.LCFI39:
 1422              		.cfi_def_cfa_offset 40
 1423 0004 00AF     		add	r7, sp, #0
 1424              	.LCFI40:
 1425              		.cfi_def_cfa_register 7
 1426 0006 0200     		movs	r2, r0
 1427 0008 FB1D     		adds	r3, r7, #7
 1428 000a 1A70     		strb	r2, [r3]
 824:Drivers/STM32L0xx_HAL_Driver/Src/stm32l0xx_hal_flash_ex.c ****   HAL_StatusTypeDef status = HAL_OK;
 1429              		.loc 1 824 0
 1430 000c 1723     		movs	r3, #23
 1431 000e FB18     		adds	r3, r7, r3
 1432 0010 0022     		movs	r2, #0
 1433 0012 1A70     		strb	r2, [r3]
 825:Drivers/STM32L0xx_HAL_Driver/Src/stm32l0xx_hal_flash_ex.c ****   uint32_t tmp1 = 0U, tmp2 = 0U, tmp3 = 0U;
 1434              		.loc 1 825 0
 1435 0014 0023     		movs	r3, #0
 1436 0016 3B61     		str	r3, [r7, #16]
 1437 0018 0023     		movs	r3, #0
 1438 001a FB60     		str	r3, [r7, #12]
 1439 001c 0023     		movs	r3, #0
 1440 001e BB60     		str	r3, [r7, #8]
 826:Drivers/STM32L0xx_HAL_Driver/Src/stm32l0xx_hal_flash_ex.c ****   
 827:Drivers/STM32L0xx_HAL_Driver/Src/stm32l0xx_hal_flash_ex.c ****   /* Check the parameters */
 828:Drivers/STM32L0xx_HAL_Driver/Src/stm32l0xx_hal_flash_ex.c ****   assert_param(IS_OB_RDP(OB_RDP));
 829:Drivers/STM32L0xx_HAL_Driver/Src/stm32l0xx_hal_flash_ex.c ****   
 830:Drivers/STM32L0xx_HAL_Driver/Src/stm32l0xx_hal_flash_ex.c ****   tmp1 = (uint32_t)(OB->RDP & FLASH_OPTR_RDPROT);
 1441              		.loc 1 830 0
 1442 0020 1D4B     		ldr	r3, .L78
 1443 0022 1B68     		ldr	r3, [r3]
 1444 0024 FF22     		movs	r2, #255
 1445 0026 1340     		ands	r3, r2
 1446 0028 3B61     		str	r3, [r7, #16]
 831:Drivers/STM32L0xx_HAL_Driver/Src/stm32l0xx_hal_flash_ex.c ****   
 832:Drivers/STM32L0xx_HAL_Driver/Src/stm32l0xx_hal_flash_ex.c **** #if defined(FLASH_OPTR_WPRMOD)
 833:Drivers/STM32L0xx_HAL_Driver/Src/stm32l0xx_hal_flash_ex.c ****     /* Mask WPRMOD bit */
 834:Drivers/STM32L0xx_HAL_Driver/Src/stm32l0xx_hal_flash_ex.c ****     tmp3 = (uint32_t)(OB->RDP & FLASH_OPTR_WPRMOD);
 1447              		.loc 1 834 0
 1448 002a 1B4B     		ldr	r3, .L78
 1449 002c 1A68     		ldr	r2, [r3]
 1450 002e 8023     		movs	r3, #128
 1451 0030 5B00     		lsls	r3, r3, #1
 1452 0032 1340     		ands	r3, r2
 1453 0034 BB60     		str	r3, [r7, #8]
 835:Drivers/STM32L0xx_HAL_Driver/Src/stm32l0xx_hal_flash_ex.c **** #endif
 836:Drivers/STM32L0xx_HAL_Driver/Src/stm32l0xx_hal_flash_ex.c **** 
ARM GAS  /tmp/ccBA2iOh.s 			page 42


 837:Drivers/STM32L0xx_HAL_Driver/Src/stm32l0xx_hal_flash_ex.c ****     /* calculate the option byte to write */
 838:Drivers/STM32L0xx_HAL_Driver/Src/stm32l0xx_hal_flash_ex.c ****     tmp1 = (~((uint32_t)(OB_RDP | tmp3)));
 1454              		.loc 1 838 0
 1455 0036 FB1D     		adds	r3, r7, #7
 1456 0038 1A78     		ldrb	r2, [r3]
 1457 003a BB68     		ldr	r3, [r7, #8]
 1458 003c 1343     		orrs	r3, r2
 1459 003e DB43     		mvns	r3, r3
 1460 0040 3B61     		str	r3, [r7, #16]
 839:Drivers/STM32L0xx_HAL_Driver/Src/stm32l0xx_hal_flash_ex.c ****     tmp2 = (uint32_t)(((uint32_t)((uint32_t)(tmp1) << 16U)) | ((uint32_t)(OB_RDP | tmp3)));
 1461              		.loc 1 839 0
 1462 0042 3B69     		ldr	r3, [r7, #16]
 1463 0044 1A04     		lsls	r2, r3, #16
 1464 0046 FB1D     		adds	r3, r7, #7
 1465 0048 1978     		ldrb	r1, [r3]
 1466 004a BB68     		ldr	r3, [r7, #8]
 1467 004c 0B43     		orrs	r3, r1
 1468 004e 1343     		orrs	r3, r2
 1469 0050 FB60     		str	r3, [r7, #12]
 840:Drivers/STM32L0xx_HAL_Driver/Src/stm32l0xx_hal_flash_ex.c **** 
 841:Drivers/STM32L0xx_HAL_Driver/Src/stm32l0xx_hal_flash_ex.c ****     /* Wait for last operation to be completed */
 842:Drivers/STM32L0xx_HAL_Driver/Src/stm32l0xx_hal_flash_ex.c ****     status = FLASH_WaitForLastOperation(FLASH_TIMEOUT_VALUE);
 1470              		.loc 1 842 0
 1471 0052 1723     		movs	r3, #23
 1472 0054 FC18     		adds	r4, r7, r3
 1473 0056 114B     		ldr	r3, .L78+4
 1474 0058 1800     		movs	r0, r3
 1475 005a FFF7FEFF 		bl	FLASH_WaitForLastOperation
 1476 005e 0300     		movs	r3, r0
 1477 0060 2370     		strb	r3, [r4]
 843:Drivers/STM32L0xx_HAL_Driver/Src/stm32l0xx_hal_flash_ex.c **** 
 844:Drivers/STM32L0xx_HAL_Driver/Src/stm32l0xx_hal_flash_ex.c ****     if(status == HAL_OK)
 1478              		.loc 1 844 0
 1479 0062 1723     		movs	r3, #23
 1480 0064 FB18     		adds	r3, r7, r3
 1481 0066 1B78     		ldrb	r3, [r3]
 1482 0068 002B     		cmp	r3, #0
 1483 006a 0DD1     		bne	.L76
 845:Drivers/STM32L0xx_HAL_Driver/Src/stm32l0xx_hal_flash_ex.c ****     {
 846:Drivers/STM32L0xx_HAL_Driver/Src/stm32l0xx_hal_flash_ex.c ****       /* Clean the error context */
 847:Drivers/STM32L0xx_HAL_Driver/Src/stm32l0xx_hal_flash_ex.c ****       pFlash.ErrorCode = HAL_FLASH_ERROR_NONE;
 1484              		.loc 1 847 0
 1485 006c 0C4B     		ldr	r3, .L78+8
 1486 006e 0022     		movs	r2, #0
 1487 0070 5A61     		str	r2, [r3, #20]
 848:Drivers/STM32L0xx_HAL_Driver/Src/stm32l0xx_hal_flash_ex.c **** 
 849:Drivers/STM32L0xx_HAL_Driver/Src/stm32l0xx_hal_flash_ex.c ****       /* program read protection level */
 850:Drivers/STM32L0xx_HAL_Driver/Src/stm32l0xx_hal_flash_ex.c ****       OB->RDP = tmp2;
 1488              		.loc 1 850 0
 1489 0072 094B     		ldr	r3, .L78
 1490 0074 FA68     		ldr	r2, [r7, #12]
 1491 0076 1A60     		str	r2, [r3]
 851:Drivers/STM32L0xx_HAL_Driver/Src/stm32l0xx_hal_flash_ex.c **** 
 852:Drivers/STM32L0xx_HAL_Driver/Src/stm32l0xx_hal_flash_ex.c ****       /* Wait for last operation to be completed */
 853:Drivers/STM32L0xx_HAL_Driver/Src/stm32l0xx_hal_flash_ex.c ****       status = FLASH_WaitForLastOperation(FLASH_TIMEOUT_VALUE);
 1492              		.loc 1 853 0
 1493 0078 1723     		movs	r3, #23
ARM GAS  /tmp/ccBA2iOh.s 			page 43


 1494 007a FC18     		adds	r4, r7, r3
 1495 007c 074B     		ldr	r3, .L78+4
 1496 007e 1800     		movs	r0, r3
 1497 0080 FFF7FEFF 		bl	FLASH_WaitForLastOperation
 1498 0084 0300     		movs	r3, r0
 1499 0086 2370     		strb	r3, [r4]
 1500              	.L76:
 854:Drivers/STM32L0xx_HAL_Driver/Src/stm32l0xx_hal_flash_ex.c ****     }
 855:Drivers/STM32L0xx_HAL_Driver/Src/stm32l0xx_hal_flash_ex.c **** 
 856:Drivers/STM32L0xx_HAL_Driver/Src/stm32l0xx_hal_flash_ex.c ****   /* Return the Read protection operation Status */
 857:Drivers/STM32L0xx_HAL_Driver/Src/stm32l0xx_hal_flash_ex.c ****   return status;
 1501              		.loc 1 857 0
 1502 0088 1723     		movs	r3, #23
 1503 008a FB18     		adds	r3, r7, r3
 1504 008c 1B78     		ldrb	r3, [r3]
 858:Drivers/STM32L0xx_HAL_Driver/Src/stm32l0xx_hal_flash_ex.c **** }
 1505              		.loc 1 858 0
 1506 008e 1800     		movs	r0, r3
 1507 0090 BD46     		mov	sp, r7
 1508 0092 07B0     		add	sp, sp, #28
 1509              		@ sp needed
 1510 0094 90BD     		pop	{r4, r7, pc}
 1511              	.L79:
 1512 0096 C046     		.align	2
 1513              	.L78:
 1514 0098 0000F81F 		.word	536346624
 1515 009c 50C30000 		.word	50000
 1516 00a0 00000000 		.word	pFlash
 1517              		.cfi_endproc
 1518              	.LFE48:
 1520              		.section	.text.FLASH_OB_BORConfig,"ax",%progbits
 1521              		.align	1
 1522              		.syntax unified
 1523              		.code	16
 1524              		.thumb_func
 1525              		.fpu softvfp
 1527              	FLASH_OB_BORConfig:
 1528              	.LFB49:
 859:Drivers/STM32L0xx_HAL_Driver/Src/stm32l0xx_hal_flash_ex.c **** 
 860:Drivers/STM32L0xx_HAL_Driver/Src/stm32l0xx_hal_flash_ex.c **** /**
 861:Drivers/STM32L0xx_HAL_Driver/Src/stm32l0xx_hal_flash_ex.c ****   * @brief  Programs the FLASH brownout reset threshold level Option Byte.
 862:Drivers/STM32L0xx_HAL_Driver/Src/stm32l0xx_hal_flash_ex.c ****   * @param  OB_BOR Selects the brownout reset threshold level.
 863:Drivers/STM32L0xx_HAL_Driver/Src/stm32l0xx_hal_flash_ex.c ****   *   This parameter can be one of the following values:
 864:Drivers/STM32L0xx_HAL_Driver/Src/stm32l0xx_hal_flash_ex.c ****   *     @arg @ref OB_BOR_OFF BOR is disabled at power down, the reset is asserted when the VDD 
 865:Drivers/STM32L0xx_HAL_Driver/Src/stm32l0xx_hal_flash_ex.c ****   *                      power supply reaches the PDR(Power Down Reset) threshold (1.5V)
 866:Drivers/STM32L0xx_HAL_Driver/Src/stm32l0xx_hal_flash_ex.c ****   *     @arg @ref OB_BOR_LEVEL1 BOR Reset threshold levels for 1.7V - 1.8V VDD power supply
 867:Drivers/STM32L0xx_HAL_Driver/Src/stm32l0xx_hal_flash_ex.c ****   *     @arg @ref OB_BOR_LEVEL2 BOR Reset threshold levels for 1.9V - 2.0V VDD power supply
 868:Drivers/STM32L0xx_HAL_Driver/Src/stm32l0xx_hal_flash_ex.c ****   *     @arg @ref OB_BOR_LEVEL3 BOR Reset threshold levels for 2.3V - 2.4V VDD power supply
 869:Drivers/STM32L0xx_HAL_Driver/Src/stm32l0xx_hal_flash_ex.c ****   *     @arg @ref OB_BOR_LEVEL4 BOR Reset threshold levels for 2.55V - 2.65V VDD power supply
 870:Drivers/STM32L0xx_HAL_Driver/Src/stm32l0xx_hal_flash_ex.c ****   *     @arg @ref OB_BOR_LEVEL5 BOR Reset threshold levels for 2.8V - 2.9V VDD power supply
 871:Drivers/STM32L0xx_HAL_Driver/Src/stm32l0xx_hal_flash_ex.c ****   * @retval HAL status
 872:Drivers/STM32L0xx_HAL_Driver/Src/stm32l0xx_hal_flash_ex.c ****   */
 873:Drivers/STM32L0xx_HAL_Driver/Src/stm32l0xx_hal_flash_ex.c **** static HAL_StatusTypeDef FLASH_OB_BORConfig(uint8_t OB_BOR)
 874:Drivers/STM32L0xx_HAL_Driver/Src/stm32l0xx_hal_flash_ex.c **** {
 1529              		.loc 1 874 0
 1530              		.cfi_startproc
 1531              		@ args = 0, pretend = 0, frame = 24
ARM GAS  /tmp/ccBA2iOh.s 			page 44


 1532              		@ frame_needed = 1, uses_anonymous_args = 0
 1533 0000 90B5     		push	{r4, r7, lr}
 1534              	.LCFI41:
 1535              		.cfi_def_cfa_offset 12
 1536              		.cfi_offset 4, -12
 1537              		.cfi_offset 7, -8
 1538              		.cfi_offset 14, -4
 1539 0002 87B0     		sub	sp, sp, #28
 1540              	.LCFI42:
 1541              		.cfi_def_cfa_offset 40
 1542 0004 00AF     		add	r7, sp, #0
 1543              	.LCFI43:
 1544              		.cfi_def_cfa_register 7
 1545 0006 0200     		movs	r2, r0
 1546 0008 FB1D     		adds	r3, r7, #7
 1547 000a 1A70     		strb	r2, [r3]
 875:Drivers/STM32L0xx_HAL_Driver/Src/stm32l0xx_hal_flash_ex.c ****   HAL_StatusTypeDef status = HAL_OK;
 1548              		.loc 1 875 0
 1549 000c 1723     		movs	r3, #23
 1550 000e FB18     		adds	r3, r7, r3
 1551 0010 0022     		movs	r2, #0
 1552 0012 1A70     		strb	r2, [r3]
 876:Drivers/STM32L0xx_HAL_Driver/Src/stm32l0xx_hal_flash_ex.c ****   uint32_t tmp = 0, tmp1 = 0;
 1553              		.loc 1 876 0
 1554 0014 0023     		movs	r3, #0
 1555 0016 3B61     		str	r3, [r7, #16]
 1556 0018 0023     		movs	r3, #0
 1557 001a FB60     		str	r3, [r7, #12]
 877:Drivers/STM32L0xx_HAL_Driver/Src/stm32l0xx_hal_flash_ex.c **** 
 878:Drivers/STM32L0xx_HAL_Driver/Src/stm32l0xx_hal_flash_ex.c ****   /* Check the parameters */
 879:Drivers/STM32L0xx_HAL_Driver/Src/stm32l0xx_hal_flash_ex.c ****   assert_param(IS_OB_BOR_LEVEL(OB_BOR));
 880:Drivers/STM32L0xx_HAL_Driver/Src/stm32l0xx_hal_flash_ex.c **** 
 881:Drivers/STM32L0xx_HAL_Driver/Src/stm32l0xx_hal_flash_ex.c ****   /* Get the User Option byte register */
 882:Drivers/STM32L0xx_HAL_Driver/Src/stm32l0xx_hal_flash_ex.c ****   tmp1 = OB->USER & ((~FLASH_OPTR_BOR_LEV) >> 16U);
 1558              		.loc 1 882 0
 1559 001c 1A4B     		ldr	r3, .L83
 1560 001e 5B68     		ldr	r3, [r3, #4]
 1561 0020 1A4A     		ldr	r2, .L83+4
 1562 0022 1340     		ands	r3, r2
 1563 0024 FB60     		str	r3, [r7, #12]
 883:Drivers/STM32L0xx_HAL_Driver/Src/stm32l0xx_hal_flash_ex.c **** 
 884:Drivers/STM32L0xx_HAL_Driver/Src/stm32l0xx_hal_flash_ex.c ****   /* Calculate the option byte to write - [0xFF | nUSER | 0x00 | USER]*/
 885:Drivers/STM32L0xx_HAL_Driver/Src/stm32l0xx_hal_flash_ex.c ****   tmp = (uint32_t)~((OB_BOR | tmp1)) << 16U;
 1564              		.loc 1 885 0
 1565 0026 FB1D     		adds	r3, r7, #7
 1566 0028 1A78     		ldrb	r2, [r3]
 1567 002a FB68     		ldr	r3, [r7, #12]
 1568 002c 1343     		orrs	r3, r2
 1569 002e DB43     		mvns	r3, r3
 1570 0030 1B04     		lsls	r3, r3, #16
 1571 0032 3B61     		str	r3, [r7, #16]
 886:Drivers/STM32L0xx_HAL_Driver/Src/stm32l0xx_hal_flash_ex.c ****   tmp |= (OB_BOR | tmp1);
 1572              		.loc 1 886 0
 1573 0034 FB1D     		adds	r3, r7, #7
 1574 0036 1A78     		ldrb	r2, [r3]
 1575 0038 FB68     		ldr	r3, [r7, #12]
 1576 003a 1343     		orrs	r3, r2
ARM GAS  /tmp/ccBA2iOh.s 			page 45


 1577 003c 3A69     		ldr	r2, [r7, #16]
 1578 003e 1343     		orrs	r3, r2
 1579 0040 3B61     		str	r3, [r7, #16]
 887:Drivers/STM32L0xx_HAL_Driver/Src/stm32l0xx_hal_flash_ex.c ****     
 888:Drivers/STM32L0xx_HAL_Driver/Src/stm32l0xx_hal_flash_ex.c ****   /* Wait for last operation to be completed */
 889:Drivers/STM32L0xx_HAL_Driver/Src/stm32l0xx_hal_flash_ex.c ****   status = FLASH_WaitForLastOperation(FLASH_TIMEOUT_VALUE);
 1580              		.loc 1 889 0
 1581 0042 1723     		movs	r3, #23
 1582 0044 FC18     		adds	r4, r7, r3
 1583 0046 124B     		ldr	r3, .L83+8
 1584 0048 1800     		movs	r0, r3
 1585 004a FFF7FEFF 		bl	FLASH_WaitForLastOperation
 1586 004e 0300     		movs	r3, r0
 1587 0050 2370     		strb	r3, [r4]
 890:Drivers/STM32L0xx_HAL_Driver/Src/stm32l0xx_hal_flash_ex.c ****   
 891:Drivers/STM32L0xx_HAL_Driver/Src/stm32l0xx_hal_flash_ex.c ****   if(status == HAL_OK)
 1588              		.loc 1 891 0
 1589 0052 1723     		movs	r3, #23
 1590 0054 FB18     		adds	r3, r7, r3
 1591 0056 1B78     		ldrb	r3, [r3]
 1592 0058 002B     		cmp	r3, #0
 1593 005a 0DD1     		bne	.L81
 892:Drivers/STM32L0xx_HAL_Driver/Src/stm32l0xx_hal_flash_ex.c ****   {  
 893:Drivers/STM32L0xx_HAL_Driver/Src/stm32l0xx_hal_flash_ex.c ****     /* Clean the error context */
 894:Drivers/STM32L0xx_HAL_Driver/Src/stm32l0xx_hal_flash_ex.c ****     pFlash.ErrorCode = HAL_FLASH_ERROR_NONE;
 1594              		.loc 1 894 0
 1595 005c 0D4B     		ldr	r3, .L83+12
 1596 005e 0022     		movs	r2, #0
 1597 0060 5A61     		str	r2, [r3, #20]
 895:Drivers/STM32L0xx_HAL_Driver/Src/stm32l0xx_hal_flash_ex.c **** 
 896:Drivers/STM32L0xx_HAL_Driver/Src/stm32l0xx_hal_flash_ex.c ****     /* Write the BOR Option Byte */            
 897:Drivers/STM32L0xx_HAL_Driver/Src/stm32l0xx_hal_flash_ex.c ****     OB->USER = tmp;
 1598              		.loc 1 897 0
 1599 0062 094B     		ldr	r3, .L83
 1600 0064 3A69     		ldr	r2, [r7, #16]
 1601 0066 5A60     		str	r2, [r3, #4]
 898:Drivers/STM32L0xx_HAL_Driver/Src/stm32l0xx_hal_flash_ex.c **** 
 899:Drivers/STM32L0xx_HAL_Driver/Src/stm32l0xx_hal_flash_ex.c ****     /* Wait for last operation to be completed */
 900:Drivers/STM32L0xx_HAL_Driver/Src/stm32l0xx_hal_flash_ex.c ****     status = FLASH_WaitForLastOperation(FLASH_TIMEOUT_VALUE);
 1602              		.loc 1 900 0
 1603 0068 1723     		movs	r3, #23
 1604 006a FC18     		adds	r4, r7, r3
 1605 006c 084B     		ldr	r3, .L83+8
 1606 006e 1800     		movs	r0, r3
 1607 0070 FFF7FEFF 		bl	FLASH_WaitForLastOperation
 1608 0074 0300     		movs	r3, r0
 1609 0076 2370     		strb	r3, [r4]
 1610              	.L81:
 901:Drivers/STM32L0xx_HAL_Driver/Src/stm32l0xx_hal_flash_ex.c ****   }
 902:Drivers/STM32L0xx_HAL_Driver/Src/stm32l0xx_hal_flash_ex.c ****   
 903:Drivers/STM32L0xx_HAL_Driver/Src/stm32l0xx_hal_flash_ex.c ****   /* Return the Option Byte BOR programming Status */
 904:Drivers/STM32L0xx_HAL_Driver/Src/stm32l0xx_hal_flash_ex.c ****   return status;
 1611              		.loc 1 904 0
 1612 0078 1723     		movs	r3, #23
 1613 007a FB18     		adds	r3, r7, r3
 1614 007c 1B78     		ldrb	r3, [r3]
 905:Drivers/STM32L0xx_HAL_Driver/Src/stm32l0xx_hal_flash_ex.c **** }
ARM GAS  /tmp/ccBA2iOh.s 			page 46


 1615              		.loc 1 905 0
 1616 007e 1800     		movs	r0, r3
 1617 0080 BD46     		mov	sp, r7
 1618 0082 07B0     		add	sp, sp, #28
 1619              		@ sp needed
 1620 0084 90BD     		pop	{r4, r7, pc}
 1621              	.L84:
 1622 0086 C046     		.align	2
 1623              	.L83:
 1624 0088 0000F81F 		.word	536346624
 1625 008c F0FF0000 		.word	65520
 1626 0090 50C30000 		.word	50000
 1627 0094 00000000 		.word	pFlash
 1628              		.cfi_endproc
 1629              	.LFE49:
 1631              		.section	.text.FLASH_OB_BOOTBit1Config,"ax",%progbits
 1632              		.align	1
 1633              		.syntax unified
 1634              		.code	16
 1635              		.thumb_func
 1636              		.fpu softvfp
 1638              	FLASH_OB_BOOTBit1Config:
 1639              	.LFB50:
 906:Drivers/STM32L0xx_HAL_Driver/Src/stm32l0xx_hal_flash_ex.c **** 
 907:Drivers/STM32L0xx_HAL_Driver/Src/stm32l0xx_hal_flash_ex.c **** /**
 908:Drivers/STM32L0xx_HAL_Driver/Src/stm32l0xx_hal_flash_ex.c ****   * @brief  Sets or resets the BOOT bit1 option bit.
 909:Drivers/STM32L0xx_HAL_Driver/Src/stm32l0xx_hal_flash_ex.c ****   * @param  OB_BootBit1 Set or Reset the BOOT bit1 option bit.
 910:Drivers/STM32L0xx_HAL_Driver/Src/stm32l0xx_hal_flash_ex.c ****   *          This parameter can be one of the following values:
 911:Drivers/STM32L0xx_HAL_Driver/Src/stm32l0xx_hal_flash_ex.c ****   *             @arg @ref OB_BOOT_BIT1_RESET BOOT1 option bit reset
 912:Drivers/STM32L0xx_HAL_Driver/Src/stm32l0xx_hal_flash_ex.c ****   *             @arg @ref OB_BOOT_BIT1_SET BOOT1 option bit set
 913:Drivers/STM32L0xx_HAL_Driver/Src/stm32l0xx_hal_flash_ex.c ****   * @retval HAL status
 914:Drivers/STM32L0xx_HAL_Driver/Src/stm32l0xx_hal_flash_ex.c ****   */
 915:Drivers/STM32L0xx_HAL_Driver/Src/stm32l0xx_hal_flash_ex.c **** static HAL_StatusTypeDef  FLASH_OB_BOOTBit1Config(uint8_t OB_BootBit1)
 916:Drivers/STM32L0xx_HAL_Driver/Src/stm32l0xx_hal_flash_ex.c **** {
 1640              		.loc 1 916 0
 1641              		.cfi_startproc
 1642              		@ args = 0, pretend = 0, frame = 24
 1643              		@ frame_needed = 1, uses_anonymous_args = 0
 1644 0000 90B5     		push	{r4, r7, lr}
 1645              	.LCFI44:
 1646              		.cfi_def_cfa_offset 12
 1647              		.cfi_offset 4, -12
 1648              		.cfi_offset 7, -8
 1649              		.cfi_offset 14, -4
 1650 0002 87B0     		sub	sp, sp, #28
 1651              	.LCFI45:
 1652              		.cfi_def_cfa_offset 40
 1653 0004 00AF     		add	r7, sp, #0
 1654              	.LCFI46:
 1655              		.cfi_def_cfa_register 7
 1656 0006 0200     		movs	r2, r0
 1657 0008 FB1D     		adds	r3, r7, #7
 1658 000a 1A70     		strb	r2, [r3]
 917:Drivers/STM32L0xx_HAL_Driver/Src/stm32l0xx_hal_flash_ex.c ****   HAL_StatusTypeDef status = HAL_OK; 
 1659              		.loc 1 917 0
 1660 000c 1723     		movs	r3, #23
 1661 000e FB18     		adds	r3, r7, r3
ARM GAS  /tmp/ccBA2iOh.s 			page 47


 1662 0010 0022     		movs	r2, #0
 1663 0012 1A70     		strb	r2, [r3]
 918:Drivers/STM32L0xx_HAL_Driver/Src/stm32l0xx_hal_flash_ex.c ****   uint32_t tmp = 0, tmp1 = 0, OB_Bits = ((uint32_t) OB_BootBit1) << 15;
 1664              		.loc 1 918 0
 1665 0014 0023     		movs	r3, #0
 1666 0016 3B61     		str	r3, [r7, #16]
 1667 0018 0023     		movs	r3, #0
 1668 001a FB60     		str	r3, [r7, #12]
 1669 001c FB1D     		adds	r3, r7, #7
 1670 001e 1B78     		ldrb	r3, [r3]
 1671 0020 DB03     		lsls	r3, r3, #15
 1672 0022 BB60     		str	r3, [r7, #8]
 919:Drivers/STM32L0xx_HAL_Driver/Src/stm32l0xx_hal_flash_ex.c **** 
 920:Drivers/STM32L0xx_HAL_Driver/Src/stm32l0xx_hal_flash_ex.c ****   /* Check the parameters */
 921:Drivers/STM32L0xx_HAL_Driver/Src/stm32l0xx_hal_flash_ex.c ****   assert_param(IS_OB_BOOT1(OB_BootBit1));
 922:Drivers/STM32L0xx_HAL_Driver/Src/stm32l0xx_hal_flash_ex.c **** 
 923:Drivers/STM32L0xx_HAL_Driver/Src/stm32l0xx_hal_flash_ex.c ****   /* Get the User Option byte register */
 924:Drivers/STM32L0xx_HAL_Driver/Src/stm32l0xx_hal_flash_ex.c ****   tmp1 = OB->USER & ((~FLASH_OPTR_BOOT1) >> 16U);
 1673              		.loc 1 924 0
 1674 0024 194B     		ldr	r3, .L88
 1675 0026 5B68     		ldr	r3, [r3, #4]
 1676 0028 5B04     		lsls	r3, r3, #17
 1677 002a 5B0C     		lsrs	r3, r3, #17
 1678 002c FB60     		str	r3, [r7, #12]
 925:Drivers/STM32L0xx_HAL_Driver/Src/stm32l0xx_hal_flash_ex.c **** 
 926:Drivers/STM32L0xx_HAL_Driver/Src/stm32l0xx_hal_flash_ex.c ****   /* Calculate the user option byte to write */ 
 927:Drivers/STM32L0xx_HAL_Driver/Src/stm32l0xx_hal_flash_ex.c ****   tmp = (~(OB_Bits | tmp1)) << 16U;
 1679              		.loc 1 927 0
 1680 002e BA68     		ldr	r2, [r7, #8]
 1681 0030 FB68     		ldr	r3, [r7, #12]
 1682 0032 1343     		orrs	r3, r2
 1683 0034 DB43     		mvns	r3, r3
 1684 0036 1B04     		lsls	r3, r3, #16
 1685 0038 3B61     		str	r3, [r7, #16]
 928:Drivers/STM32L0xx_HAL_Driver/Src/stm32l0xx_hal_flash_ex.c ****   tmp |= OB_Bits | tmp1;
 1686              		.loc 1 928 0
 1687 003a BA68     		ldr	r2, [r7, #8]
 1688 003c FB68     		ldr	r3, [r7, #12]
 1689 003e 1343     		orrs	r3, r2
 1690 0040 3A69     		ldr	r2, [r7, #16]
 1691 0042 1343     		orrs	r3, r2
 1692 0044 3B61     		str	r3, [r7, #16]
 929:Drivers/STM32L0xx_HAL_Driver/Src/stm32l0xx_hal_flash_ex.c ****     
 930:Drivers/STM32L0xx_HAL_Driver/Src/stm32l0xx_hal_flash_ex.c ****   /* Wait for last operation to be completed */
 931:Drivers/STM32L0xx_HAL_Driver/Src/stm32l0xx_hal_flash_ex.c ****   status = FLASH_WaitForLastOperation(FLASH_TIMEOUT_VALUE);
 1693              		.loc 1 931 0
 1694 0046 1723     		movs	r3, #23
 1695 0048 FC18     		adds	r4, r7, r3
 1696 004a 114B     		ldr	r3, .L88+4
 1697 004c 1800     		movs	r0, r3
 1698 004e FFF7FEFF 		bl	FLASH_WaitForLastOperation
 1699 0052 0300     		movs	r3, r0
 1700 0054 2370     		strb	r3, [r4]
 932:Drivers/STM32L0xx_HAL_Driver/Src/stm32l0xx_hal_flash_ex.c ****   
 933:Drivers/STM32L0xx_HAL_Driver/Src/stm32l0xx_hal_flash_ex.c ****   if(status == HAL_OK)
 1701              		.loc 1 933 0
 1702 0056 1723     		movs	r3, #23
ARM GAS  /tmp/ccBA2iOh.s 			page 48


 1703 0058 FB18     		adds	r3, r7, r3
 1704 005a 1B78     		ldrb	r3, [r3]
 1705 005c 002B     		cmp	r3, #0
 1706 005e 0DD1     		bne	.L86
 934:Drivers/STM32L0xx_HAL_Driver/Src/stm32l0xx_hal_flash_ex.c ****   {  
 935:Drivers/STM32L0xx_HAL_Driver/Src/stm32l0xx_hal_flash_ex.c ****     /* Clean the error context */
 936:Drivers/STM32L0xx_HAL_Driver/Src/stm32l0xx_hal_flash_ex.c ****     pFlash.ErrorCode = HAL_FLASH_ERROR_NONE;
 1707              		.loc 1 936 0
 1708 0060 0C4B     		ldr	r3, .L88+8
 1709 0062 0022     		movs	r2, #0
 1710 0064 5A61     		str	r2, [r3, #20]
 937:Drivers/STM32L0xx_HAL_Driver/Src/stm32l0xx_hal_flash_ex.c ****     /* Program OB */
 938:Drivers/STM32L0xx_HAL_Driver/Src/stm32l0xx_hal_flash_ex.c ****     OB->USER = tmp; 
 1711              		.loc 1 938 0
 1712 0066 094B     		ldr	r3, .L88
 1713 0068 3A69     		ldr	r2, [r7, #16]
 1714 006a 5A60     		str	r2, [r3, #4]
 939:Drivers/STM32L0xx_HAL_Driver/Src/stm32l0xx_hal_flash_ex.c ****     /* Wait for last operation to be completed */
 940:Drivers/STM32L0xx_HAL_Driver/Src/stm32l0xx_hal_flash_ex.c ****     status = FLASH_WaitForLastOperation(FLASH_TIMEOUT_VALUE);
 1715              		.loc 1 940 0
 1716 006c 1723     		movs	r3, #23
 1717 006e FC18     		adds	r4, r7, r3
 1718 0070 074B     		ldr	r3, .L88+4
 1719 0072 1800     		movs	r0, r3
 1720 0074 FFF7FEFF 		bl	FLASH_WaitForLastOperation
 1721 0078 0300     		movs	r3, r0
 1722 007a 2370     		strb	r3, [r4]
 1723              	.L86:
 941:Drivers/STM32L0xx_HAL_Driver/Src/stm32l0xx_hal_flash_ex.c ****   }
 942:Drivers/STM32L0xx_HAL_Driver/Src/stm32l0xx_hal_flash_ex.c **** 
 943:Drivers/STM32L0xx_HAL_Driver/Src/stm32l0xx_hal_flash_ex.c ****   return status;
 1724              		.loc 1 943 0
 1725 007c 1723     		movs	r3, #23
 1726 007e FB18     		adds	r3, r7, r3
 1727 0080 1B78     		ldrb	r3, [r3]
 944:Drivers/STM32L0xx_HAL_Driver/Src/stm32l0xx_hal_flash_ex.c **** }
 1728              		.loc 1 944 0
 1729 0082 1800     		movs	r0, r3
 1730 0084 BD46     		mov	sp, r7
 1731 0086 07B0     		add	sp, sp, #28
 1732              		@ sp needed
 1733 0088 90BD     		pop	{r4, r7, pc}
 1734              	.L89:
 1735 008a C046     		.align	2
 1736              	.L88:
 1737 008c 0000F81F 		.word	536346624
 1738 0090 50C30000 		.word	50000
 1739 0094 00000000 		.word	pFlash
 1740              		.cfi_endproc
 1741              	.LFE50:
 1743              		.section	.text.FLASH_OB_GetUser,"ax",%progbits
 1744              		.align	1
 1745              		.syntax unified
 1746              		.code	16
 1747              		.thumb_func
 1748              		.fpu softvfp
 1750              	FLASH_OB_GetUser:
ARM GAS  /tmp/ccBA2iOh.s 			page 49


 1751              	.LFB51:
 945:Drivers/STM32L0xx_HAL_Driver/Src/stm32l0xx_hal_flash_ex.c **** 
 946:Drivers/STM32L0xx_HAL_Driver/Src/stm32l0xx_hal_flash_ex.c **** /**
 947:Drivers/STM32L0xx_HAL_Driver/Src/stm32l0xx_hal_flash_ex.c ****   * @brief  Returns the FLASH User Option Bytes values.
 948:Drivers/STM32L0xx_HAL_Driver/Src/stm32l0xx_hal_flash_ex.c ****   * @retval The FLASH User Option Bytes.
 949:Drivers/STM32L0xx_HAL_Driver/Src/stm32l0xx_hal_flash_ex.c ****   */
 950:Drivers/STM32L0xx_HAL_Driver/Src/stm32l0xx_hal_flash_ex.c **** static uint8_t FLASH_OB_GetUser(void)
 951:Drivers/STM32L0xx_HAL_Driver/Src/stm32l0xx_hal_flash_ex.c **** {
 1752              		.loc 1 951 0
 1753              		.cfi_startproc
 1754              		@ args = 0, pretend = 0, frame = 0
 1755              		@ frame_needed = 1, uses_anonymous_args = 0
 1756 0000 80B5     		push	{r7, lr}
 1757              	.LCFI47:
 1758              		.cfi_def_cfa_offset 8
 1759              		.cfi_offset 7, -8
 1760              		.cfi_offset 14, -4
 1761 0002 00AF     		add	r7, sp, #0
 1762              	.LCFI48:
 1763              		.cfi_def_cfa_register 7
 952:Drivers/STM32L0xx_HAL_Driver/Src/stm32l0xx_hal_flash_ex.c ****   /* Return the User Option Byte */
 953:Drivers/STM32L0xx_HAL_Driver/Src/stm32l0xx_hal_flash_ex.c ****   return (uint8_t)((FLASH->OPTR & FLASH_OPTR_USER) >> 16U);
 1764              		.loc 1 953 0
 1765 0004 044B     		ldr	r3, .L92
 1766 0006 DB69     		ldr	r3, [r3, #28]
 1767 0008 1B0C     		lsrs	r3, r3, #16
 1768 000a DBB2     		uxtb	r3, r3
 1769 000c 7022     		movs	r2, #112
 1770 000e 1340     		ands	r3, r2
 1771 0010 DBB2     		uxtb	r3, r3
 954:Drivers/STM32L0xx_HAL_Driver/Src/stm32l0xx_hal_flash_ex.c **** }
 1772              		.loc 1 954 0
 1773 0012 1800     		movs	r0, r3
 1774 0014 BD46     		mov	sp, r7
 1775              		@ sp needed
 1776 0016 80BD     		pop	{r7, pc}
 1777              	.L93:
 1778              		.align	2
 1779              	.L92:
 1780 0018 00200240 		.word	1073881088
 1781              		.cfi_endproc
 1782              	.LFE51:
 1784              		.section	.text.FLASH_OB_GetRDP,"ax",%progbits
 1785              		.align	1
 1786              		.syntax unified
 1787              		.code	16
 1788              		.thumb_func
 1789              		.fpu softvfp
 1791              	FLASH_OB_GetRDP:
 1792              	.LFB52:
 955:Drivers/STM32L0xx_HAL_Driver/Src/stm32l0xx_hal_flash_ex.c **** 
 956:Drivers/STM32L0xx_HAL_Driver/Src/stm32l0xx_hal_flash_ex.c **** /**
 957:Drivers/STM32L0xx_HAL_Driver/Src/stm32l0xx_hal_flash_ex.c ****   * @brief  Returns the FLASH Read Protection level.
 958:Drivers/STM32L0xx_HAL_Driver/Src/stm32l0xx_hal_flash_ex.c ****   * @retval FLASH RDP level
 959:Drivers/STM32L0xx_HAL_Driver/Src/stm32l0xx_hal_flash_ex.c ****   *         This parameter can be one of the following values:
 960:Drivers/STM32L0xx_HAL_Driver/Src/stm32l0xx_hal_flash_ex.c ****   *            @arg @ref OB_RDP_LEVEL_0 No protection
 961:Drivers/STM32L0xx_HAL_Driver/Src/stm32l0xx_hal_flash_ex.c ****   *            @arg @ref OB_RDP_LEVEL_1 Read protection of the memory
ARM GAS  /tmp/ccBA2iOh.s 			page 50


 962:Drivers/STM32L0xx_HAL_Driver/Src/stm32l0xx_hal_flash_ex.c ****   *            @arg @ref OB_RDP_LEVEL_2 Full chip protection
 963:Drivers/STM32L0xx_HAL_Driver/Src/stm32l0xx_hal_flash_ex.c ****   */
 964:Drivers/STM32L0xx_HAL_Driver/Src/stm32l0xx_hal_flash_ex.c **** static uint8_t FLASH_OB_GetRDP(void)
 965:Drivers/STM32L0xx_HAL_Driver/Src/stm32l0xx_hal_flash_ex.c **** {
 1793              		.loc 1 965 0
 1794              		.cfi_startproc
 1795              		@ args = 0, pretend = 0, frame = 0
 1796              		@ frame_needed = 1, uses_anonymous_args = 0
 1797 0000 80B5     		push	{r7, lr}
 1798              	.LCFI49:
 1799              		.cfi_def_cfa_offset 8
 1800              		.cfi_offset 7, -8
 1801              		.cfi_offset 14, -4
 1802 0002 00AF     		add	r7, sp, #0
 1803              	.LCFI50:
 1804              		.cfi_def_cfa_register 7
 966:Drivers/STM32L0xx_HAL_Driver/Src/stm32l0xx_hal_flash_ex.c ****   return (uint8_t)(FLASH->OPTR & FLASH_OPTR_RDPROT);
 1805              		.loc 1 966 0
 1806 0004 024B     		ldr	r3, .L96
 1807 0006 DB69     		ldr	r3, [r3, #28]
 1808 0008 DBB2     		uxtb	r3, r3
 967:Drivers/STM32L0xx_HAL_Driver/Src/stm32l0xx_hal_flash_ex.c **** }
 1809              		.loc 1 967 0
 1810 000a 1800     		movs	r0, r3
 1811 000c BD46     		mov	sp, r7
 1812              		@ sp needed
 1813 000e 80BD     		pop	{r7, pc}
 1814              	.L97:
 1815              		.align	2
 1816              	.L96:
 1817 0010 00200240 		.word	1073881088
 1818              		.cfi_endproc
 1819              	.LFE52:
 1821              		.section	.text.FLASH_OB_GetBOR,"ax",%progbits
 1822              		.align	1
 1823              		.syntax unified
 1824              		.code	16
 1825              		.thumb_func
 1826              		.fpu softvfp
 1828              	FLASH_OB_GetBOR:
 1829              	.LFB53:
 968:Drivers/STM32L0xx_HAL_Driver/Src/stm32l0xx_hal_flash_ex.c **** 
 969:Drivers/STM32L0xx_HAL_Driver/Src/stm32l0xx_hal_flash_ex.c **** /**
 970:Drivers/STM32L0xx_HAL_Driver/Src/stm32l0xx_hal_flash_ex.c ****   * @brief  Returns the FLASH BOR level.
 971:Drivers/STM32L0xx_HAL_Driver/Src/stm32l0xx_hal_flash_ex.c ****   * @retval The BOR level Option Bytes.
 972:Drivers/STM32L0xx_HAL_Driver/Src/stm32l0xx_hal_flash_ex.c ****   */
 973:Drivers/STM32L0xx_HAL_Driver/Src/stm32l0xx_hal_flash_ex.c **** static uint8_t FLASH_OB_GetBOR(void)
 974:Drivers/STM32L0xx_HAL_Driver/Src/stm32l0xx_hal_flash_ex.c **** {
 1830              		.loc 1 974 0
 1831              		.cfi_startproc
 1832              		@ args = 0, pretend = 0, frame = 0
 1833              		@ frame_needed = 1, uses_anonymous_args = 0
 1834 0000 80B5     		push	{r7, lr}
 1835              	.LCFI51:
 1836              		.cfi_def_cfa_offset 8
 1837              		.cfi_offset 7, -8
 1838              		.cfi_offset 14, -4
ARM GAS  /tmp/ccBA2iOh.s 			page 51


 1839 0002 00AF     		add	r7, sp, #0
 1840              	.LCFI52:
 1841              		.cfi_def_cfa_register 7
 975:Drivers/STM32L0xx_HAL_Driver/Src/stm32l0xx_hal_flash_ex.c ****   /* Return the BOR level */
 976:Drivers/STM32L0xx_HAL_Driver/Src/stm32l0xx_hal_flash_ex.c ****   return (uint8_t)((FLASH->OPTR & (uint32_t)FLASH_OPTR_BOR_LEV) >> 16U);
 1842              		.loc 1 976 0
 1843 0004 044B     		ldr	r3, .L100
 1844 0006 DB69     		ldr	r3, [r3, #28]
 1845 0008 1B0C     		lsrs	r3, r3, #16
 1846 000a DBB2     		uxtb	r3, r3
 1847 000c 0F22     		movs	r2, #15
 1848 000e 1340     		ands	r3, r2
 1849 0010 DBB2     		uxtb	r3, r3
 977:Drivers/STM32L0xx_HAL_Driver/Src/stm32l0xx_hal_flash_ex.c **** }
 1850              		.loc 1 977 0
 1851 0012 1800     		movs	r0, r3
 1852 0014 BD46     		mov	sp, r7
 1853              		@ sp needed
 1854 0016 80BD     		pop	{r7, pc}
 1855              	.L101:
 1856              		.align	2
 1857              	.L100:
 1858 0018 00200240 		.word	1073881088
 1859              		.cfi_endproc
 1860              	.LFE53:
 1862              		.section	.text.FLASH_OB_GetBOOTBit1,"ax",%progbits
 1863              		.align	1
 1864              		.syntax unified
 1865              		.code	16
 1866              		.thumb_func
 1867              		.fpu softvfp
 1869              	FLASH_OB_GetBOOTBit1:
 1870              	.LFB54:
 978:Drivers/STM32L0xx_HAL_Driver/Src/stm32l0xx_hal_flash_ex.c **** 
 979:Drivers/STM32L0xx_HAL_Driver/Src/stm32l0xx_hal_flash_ex.c **** /**
 980:Drivers/STM32L0xx_HAL_Driver/Src/stm32l0xx_hal_flash_ex.c ****   * @brief  Returns the FLASH BOOT bit1 value.
 981:Drivers/STM32L0xx_HAL_Driver/Src/stm32l0xx_hal_flash_ex.c ****   * @retval The BOOT bit 1 value Option Bytes.
 982:Drivers/STM32L0xx_HAL_Driver/Src/stm32l0xx_hal_flash_ex.c ****   */
 983:Drivers/STM32L0xx_HAL_Driver/Src/stm32l0xx_hal_flash_ex.c **** static uint8_t FLASH_OB_GetBOOTBit1(void)
 984:Drivers/STM32L0xx_HAL_Driver/Src/stm32l0xx_hal_flash_ex.c **** {
 1871              		.loc 1 984 0
 1872              		.cfi_startproc
 1873              		@ args = 0, pretend = 0, frame = 0
 1874              		@ frame_needed = 1, uses_anonymous_args = 0
 1875 0000 80B5     		push	{r7, lr}
 1876              	.LCFI53:
 1877              		.cfi_def_cfa_offset 8
 1878              		.cfi_offset 7, -8
 1879              		.cfi_offset 14, -4
 1880 0002 00AF     		add	r7, sp, #0
 1881              	.LCFI54:
 1882              		.cfi_def_cfa_register 7
 985:Drivers/STM32L0xx_HAL_Driver/Src/stm32l0xx_hal_flash_ex.c ****   /* Return the BOR level */
 986:Drivers/STM32L0xx_HAL_Driver/Src/stm32l0xx_hal_flash_ex.c ****   return (FLASH->OPTR & FLASH_OPTR_BOOT1) >> FLASH_OPTR_BOOT1_Pos;
 1883              		.loc 1 986 0
 1884 0004 044B     		ldr	r3, .L104
 1885 0006 DB69     		ldr	r3, [r3, #28]
ARM GAS  /tmp/ccBA2iOh.s 			page 52


 1886 0008 DB0F     		lsrs	r3, r3, #31
 1887 000a DBB2     		uxtb	r3, r3
 1888 000c 0122     		movs	r2, #1
 1889 000e 1340     		ands	r3, r2
 1890 0010 DBB2     		uxtb	r3, r3
 987:Drivers/STM32L0xx_HAL_Driver/Src/stm32l0xx_hal_flash_ex.c **** 
 988:Drivers/STM32L0xx_HAL_Driver/Src/stm32l0xx_hal_flash_ex.c **** }
 1891              		.loc 1 988 0
 1892 0012 1800     		movs	r0, r3
 1893 0014 BD46     		mov	sp, r7
 1894              		@ sp needed
 1895 0016 80BD     		pop	{r7, pc}
 1896              	.L105:
 1897              		.align	2
 1898              	.L104:
 1899 0018 00200240 		.word	1073881088
 1900              		.cfi_endproc
 1901              	.LFE54:
 1903              		.section	.text.FLASH_OB_GetWRP,"ax",%progbits
 1904              		.align	1
 1905              		.syntax unified
 1906              		.code	16
 1907              		.thumb_func
 1908              		.fpu softvfp
 1910              	FLASH_OB_GetWRP:
 1911              	.LFB55:
 989:Drivers/STM32L0xx_HAL_Driver/Src/stm32l0xx_hal_flash_ex.c **** 
 990:Drivers/STM32L0xx_HAL_Driver/Src/stm32l0xx_hal_flash_ex.c **** /**
 991:Drivers/STM32L0xx_HAL_Driver/Src/stm32l0xx_hal_flash_ex.c ****   * @brief  Returns the FLASH Write Protection Option Bytes value.
 992:Drivers/STM32L0xx_HAL_Driver/Src/stm32l0xx_hal_flash_ex.c ****   * @retval The FLASH Write Protection Option Bytes value.
 993:Drivers/STM32L0xx_HAL_Driver/Src/stm32l0xx_hal_flash_ex.c ****   */
 994:Drivers/STM32L0xx_HAL_Driver/Src/stm32l0xx_hal_flash_ex.c **** static uint32_t FLASH_OB_GetWRP(void)
 995:Drivers/STM32L0xx_HAL_Driver/Src/stm32l0xx_hal_flash_ex.c **** {
 1912              		.loc 1 995 0
 1913              		.cfi_startproc
 1914              		@ args = 0, pretend = 0, frame = 0
 1915              		@ frame_needed = 1, uses_anonymous_args = 0
 1916 0000 80B5     		push	{r7, lr}
 1917              	.LCFI55:
 1918              		.cfi_def_cfa_offset 8
 1919              		.cfi_offset 7, -8
 1920              		.cfi_offset 14, -4
 1921 0002 00AF     		add	r7, sp, #0
 1922              	.LCFI56:
 1923              		.cfi_def_cfa_register 7
 996:Drivers/STM32L0xx_HAL_Driver/Src/stm32l0xx_hal_flash_ex.c ****   /* Return the FLASH write protection Register value */
 997:Drivers/STM32L0xx_HAL_Driver/Src/stm32l0xx_hal_flash_ex.c ****   return (uint32_t)(FLASH->WRPR);
 1924              		.loc 1 997 0
 1925 0004 024B     		ldr	r3, .L108
 1926 0006 1B6A     		ldr	r3, [r3, #32]
 998:Drivers/STM32L0xx_HAL_Driver/Src/stm32l0xx_hal_flash_ex.c **** }
 1927              		.loc 1 998 0
 1928 0008 1800     		movs	r0, r3
 1929 000a BD46     		mov	sp, r7
 1930              		@ sp needed
 1931 000c 80BD     		pop	{r7, pc}
 1932              	.L109:
ARM GAS  /tmp/ccBA2iOh.s 			page 53


 1933 000e C046     		.align	2
 1934              	.L108:
 1935 0010 00200240 		.word	1073881088
 1936              		.cfi_endproc
 1937              	.LFE55:
 1939              		.section	.text.FLASH_OB_ProtectedSectorsConfig,"ax",%progbits
 1940              		.align	1
 1941              		.syntax unified
 1942              		.code	16
 1943              		.thumb_func
 1944              		.fpu softvfp
 1946              	FLASH_OB_ProtectedSectorsConfig:
 1947              	.LFB56:
 999:Drivers/STM32L0xx_HAL_Driver/Src/stm32l0xx_hal_flash_ex.c **** 
1000:Drivers/STM32L0xx_HAL_Driver/Src/stm32l0xx_hal_flash_ex.c **** #if defined(STM32L071xx) || defined(STM32L072xx) || defined(STM32L073xx) || defined(STM32L081xx) ||
1001:Drivers/STM32L0xx_HAL_Driver/Src/stm32l0xx_hal_flash_ex.c **** /**
1002:Drivers/STM32L0xx_HAL_Driver/Src/stm32l0xx_hal_flash_ex.c ****   * @brief  Returns the FLASH Write Protection Option Bytes value.
1003:Drivers/STM32L0xx_HAL_Driver/Src/stm32l0xx_hal_flash_ex.c ****   * @retval The FLASH Write Protection Option Bytes value.
1004:Drivers/STM32L0xx_HAL_Driver/Src/stm32l0xx_hal_flash_ex.c ****   */
1005:Drivers/STM32L0xx_HAL_Driver/Src/stm32l0xx_hal_flash_ex.c **** static uint32_t FLASH_OB_GetWRP2(void)
1006:Drivers/STM32L0xx_HAL_Driver/Src/stm32l0xx_hal_flash_ex.c **** {
1007:Drivers/STM32L0xx_HAL_Driver/Src/stm32l0xx_hal_flash_ex.c ****   /* Return the FLASH write protection Register value */
1008:Drivers/STM32L0xx_HAL_Driver/Src/stm32l0xx_hal_flash_ex.c ****   return (uint32_t)(FLASH->WRPR2);
1009:Drivers/STM32L0xx_HAL_Driver/Src/stm32l0xx_hal_flash_ex.c **** }
1010:Drivers/STM32L0xx_HAL_Driver/Src/stm32l0xx_hal_flash_ex.c **** #endif /* STM32L071xx || STM32L072xx || STM32L073xx || STM32L081xx || STM32L082xx || STM32L083xx */
1011:Drivers/STM32L0xx_HAL_Driver/Src/stm32l0xx_hal_flash_ex.c **** 
1012:Drivers/STM32L0xx_HAL_Driver/Src/stm32l0xx_hal_flash_ex.c **** #if defined(STM32L071xx) || defined(STM32L072xx) || defined(STM32L073xx) || defined(STM32L081xx) ||
1013:Drivers/STM32L0xx_HAL_Driver/Src/stm32l0xx_hal_flash_ex.c **** /**
1014:Drivers/STM32L0xx_HAL_Driver/Src/stm32l0xx_hal_flash_ex.c ****   * @brief  Write Option Byte of the desired pages of the Flash.
1015:Drivers/STM32L0xx_HAL_Driver/Src/stm32l0xx_hal_flash_ex.c ****   * @param  Sector specifies the sectors to be write protected.
1016:Drivers/STM32L0xx_HAL_Driver/Src/stm32l0xx_hal_flash_ex.c ****   * @param  Sector2 specifies the sectors to be write protected (only stm32l07xxx and stm32l08xxx d
1017:Drivers/STM32L0xx_HAL_Driver/Src/stm32l0xx_hal_flash_ex.c ****   * @param  NewState new state of the specified FLASH Pages Write protection.
1018:Drivers/STM32L0xx_HAL_Driver/Src/stm32l0xx_hal_flash_ex.c ****   *   This parameter can be: 
1019:Drivers/STM32L0xx_HAL_Driver/Src/stm32l0xx_hal_flash_ex.c ****   *        @arg @ref OB_WRPSTATE_ENABLE
1020:Drivers/STM32L0xx_HAL_Driver/Src/stm32l0xx_hal_flash_ex.c ****   *        @arg @ref OB_WRPSTATE_DISABLE
1021:Drivers/STM32L0xx_HAL_Driver/Src/stm32l0xx_hal_flash_ex.c ****   * @retval HAL_StatusTypeDef
1022:Drivers/STM32L0xx_HAL_Driver/Src/stm32l0xx_hal_flash_ex.c ****   */
1023:Drivers/STM32L0xx_HAL_Driver/Src/stm32l0xx_hal_flash_ex.c **** static HAL_StatusTypeDef FLASH_OB_ProtectedSectorsConfig(uint32_t Sector, uint32_t Sector2, uint32_
1024:Drivers/STM32L0xx_HAL_Driver/Src/stm32l0xx_hal_flash_ex.c **** #else
1025:Drivers/STM32L0xx_HAL_Driver/Src/stm32l0xx_hal_flash_ex.c **** /**
1026:Drivers/STM32L0xx_HAL_Driver/Src/stm32l0xx_hal_flash_ex.c ****   * @brief  Write Option Byte of the desired pages of the Flash.
1027:Drivers/STM32L0xx_HAL_Driver/Src/stm32l0xx_hal_flash_ex.c ****   * @param  Sector specifies the sectors to be write protected.
1028:Drivers/STM32L0xx_HAL_Driver/Src/stm32l0xx_hal_flash_ex.c ****   * @param  NewState new state of the specified FLASH Pages Write protection.
1029:Drivers/STM32L0xx_HAL_Driver/Src/stm32l0xx_hal_flash_ex.c ****   *   This parameter can be: 
1030:Drivers/STM32L0xx_HAL_Driver/Src/stm32l0xx_hal_flash_ex.c ****   *        @arg @ref OB_WRPSTATE_ENABLE
1031:Drivers/STM32L0xx_HAL_Driver/Src/stm32l0xx_hal_flash_ex.c ****   *        @arg @ref OB_WRPSTATE_DISABLE
1032:Drivers/STM32L0xx_HAL_Driver/Src/stm32l0xx_hal_flash_ex.c ****   * @retval HAL_StatusTypeDef
1033:Drivers/STM32L0xx_HAL_Driver/Src/stm32l0xx_hal_flash_ex.c ****   */
1034:Drivers/STM32L0xx_HAL_Driver/Src/stm32l0xx_hal_flash_ex.c **** static HAL_StatusTypeDef FLASH_OB_ProtectedSectorsConfig(uint32_t Sector, uint32_t NewState)
1035:Drivers/STM32L0xx_HAL_Driver/Src/stm32l0xx_hal_flash_ex.c **** #endif
1036:Drivers/STM32L0xx_HAL_Driver/Src/stm32l0xx_hal_flash_ex.c **** {
 1948              		.loc 1 1036 0
 1949              		.cfi_startproc
 1950              		@ args = 0, pretend = 0, frame = 24
 1951              		@ frame_needed = 1, uses_anonymous_args = 0
 1952 0000 90B5     		push	{r4, r7, lr}
 1953              	.LCFI57:
ARM GAS  /tmp/ccBA2iOh.s 			page 54


 1954              		.cfi_def_cfa_offset 12
 1955              		.cfi_offset 4, -12
 1956              		.cfi_offset 7, -8
 1957              		.cfi_offset 14, -4
 1958 0002 87B0     		sub	sp, sp, #28
 1959              	.LCFI58:
 1960              		.cfi_def_cfa_offset 40
 1961 0004 00AF     		add	r7, sp, #0
 1962              	.LCFI59:
 1963              		.cfi_def_cfa_register 7
 1964 0006 7860     		str	r0, [r7, #4]
 1965 0008 3960     		str	r1, [r7]
1037:Drivers/STM32L0xx_HAL_Driver/Src/stm32l0xx_hal_flash_ex.c ****   HAL_StatusTypeDef status = HAL_OK;
 1966              		.loc 1 1037 0
 1967 000a 1723     		movs	r3, #23
 1968 000c FB18     		adds	r3, r7, r3
 1969 000e 0022     		movs	r2, #0
 1970 0010 1A70     		strb	r2, [r3]
1038:Drivers/STM32L0xx_HAL_Driver/Src/stm32l0xx_hal_flash_ex.c ****   uint32_t WRP_Data = 0;
 1971              		.loc 1 1038 0
 1972 0012 0023     		movs	r3, #0
 1973 0014 3B61     		str	r3, [r7, #16]
1039:Drivers/STM32L0xx_HAL_Driver/Src/stm32l0xx_hal_flash_ex.c ****   uint32_t OB_WRP = Sector;
 1974              		.loc 1 1039 0
 1975 0016 7B68     		ldr	r3, [r7, #4]
 1976 0018 FB60     		str	r3, [r7, #12]
1040:Drivers/STM32L0xx_HAL_Driver/Src/stm32l0xx_hal_flash_ex.c ****   
1041:Drivers/STM32L0xx_HAL_Driver/Src/stm32l0xx_hal_flash_ex.c ****   /* Wait for last operation to be completed */
1042:Drivers/STM32L0xx_HAL_Driver/Src/stm32l0xx_hal_flash_ex.c ****   status = FLASH_WaitForLastOperation(FLASH_TIMEOUT_VALUE);
 1977              		.loc 1 1042 0
 1978 001a 1723     		movs	r3, #23
 1979 001c FC18     		adds	r4, r7, r3
 1980 001e 244B     		ldr	r3, .L114
 1981 0020 1800     		movs	r0, r3
 1982 0022 FFF7FEFF 		bl	FLASH_WaitForLastOperation
 1983 0026 0300     		movs	r3, r0
 1984 0028 2370     		strb	r3, [r4]
1043:Drivers/STM32L0xx_HAL_Driver/Src/stm32l0xx_hal_flash_ex.c ****  
1044:Drivers/STM32L0xx_HAL_Driver/Src/stm32l0xx_hal_flash_ex.c ****   if(status == HAL_OK)
 1985              		.loc 1 1044 0
 1986 002a 1723     		movs	r3, #23
 1987 002c FB18     		adds	r3, r7, r3
 1988 002e 1B78     		ldrb	r3, [r3]
 1989 0030 002B     		cmp	r3, #0
 1990 0032 2DD1     		bne	.L111
1045:Drivers/STM32L0xx_HAL_Driver/Src/stm32l0xx_hal_flash_ex.c ****   {
1046:Drivers/STM32L0xx_HAL_Driver/Src/stm32l0xx_hal_flash_ex.c ****     /* Clean the error context */
1047:Drivers/STM32L0xx_HAL_Driver/Src/stm32l0xx_hal_flash_ex.c ****     pFlash.ErrorCode = HAL_FLASH_ERROR_NONE;
 1991              		.loc 1 1047 0
 1992 0034 1F4B     		ldr	r3, .L114+4
 1993 0036 0022     		movs	r2, #0
 1994 0038 5A61     		str	r2, [r3, #20]
1048:Drivers/STM32L0xx_HAL_Driver/Src/stm32l0xx_hal_flash_ex.c **** 
1049:Drivers/STM32L0xx_HAL_Driver/Src/stm32l0xx_hal_flash_ex.c ****     /* Update WRP only if at least 1 selected sector */
1050:Drivers/STM32L0xx_HAL_Driver/Src/stm32l0xx_hal_flash_ex.c ****     if (OB_WRP != 0x00000000U)
 1995              		.loc 1 1050 0
 1996 003a FB68     		ldr	r3, [r7, #12]
ARM GAS  /tmp/ccBA2iOh.s 			page 55


 1997 003c 002B     		cmp	r3, #0
 1998 003e 27D0     		beq	.L111
1051:Drivers/STM32L0xx_HAL_Driver/Src/stm32l0xx_hal_flash_ex.c ****     {
1052:Drivers/STM32L0xx_HAL_Driver/Src/stm32l0xx_hal_flash_ex.c ****       if ((OB_WRP & WRP_MASK_LOW) != 0x00000000U)
 1999              		.loc 1 1052 0
 2000 0040 FB68     		ldr	r3, [r7, #12]
 2001 0042 1B04     		lsls	r3, r3, #16
 2002 0044 1B0C     		lsrs	r3, r3, #16
 2003 0046 23D0     		beq	.L111
1053:Drivers/STM32L0xx_HAL_Driver/Src/stm32l0xx_hal_flash_ex.c ****       {
1054:Drivers/STM32L0xx_HAL_Driver/Src/stm32l0xx_hal_flash_ex.c ****         if (NewState != OB_WRPSTATE_DISABLE)
 2004              		.loc 1 1054 0
 2005 0048 3B68     		ldr	r3, [r7]
 2006 004a 002B     		cmp	r3, #0
 2007 004c 0FD0     		beq	.L112
1055:Drivers/STM32L0xx_HAL_Driver/Src/stm32l0xx_hal_flash_ex.c ****         {
1056:Drivers/STM32L0xx_HAL_Driver/Src/stm32l0xx_hal_flash_ex.c ****           WRP_Data = (uint16_t)(((OB_WRP & WRP_MASK_LOW) | OB->WRP01));
 2008              		.loc 1 1056 0
 2009 004e FB68     		ldr	r3, [r7, #12]
 2010 0050 9AB2     		uxth	r2, r3
 2011 0052 194B     		ldr	r3, .L114+8
 2012 0054 9B68     		ldr	r3, [r3, #8]
 2013 0056 9BB2     		uxth	r3, r3
 2014 0058 1343     		orrs	r3, r2
 2015 005a 9BB2     		uxth	r3, r3
 2016 005c 3B61     		str	r3, [r7, #16]
1057:Drivers/STM32L0xx_HAL_Driver/Src/stm32l0xx_hal_flash_ex.c ****           OB->WRP01 = (uint32_t)(~(WRP_Data) << 16U) | (WRP_Data);
 2017              		.loc 1 1057 0
 2018 005e 164B     		ldr	r3, .L114+8
 2019 0060 3A69     		ldr	r2, [r7, #16]
 2020 0062 D243     		mvns	r2, r2
 2021 0064 1104     		lsls	r1, r2, #16
 2022 0066 3A69     		ldr	r2, [r7, #16]
 2023 0068 0A43     		orrs	r2, r1
 2024 006a 9A60     		str	r2, [r3, #8]
 2025 006c 10E0     		b	.L111
 2026              	.L112:
1058:Drivers/STM32L0xx_HAL_Driver/Src/stm32l0xx_hal_flash_ex.c ****         }             
1059:Drivers/STM32L0xx_HAL_Driver/Src/stm32l0xx_hal_flash_ex.c ****         else
1060:Drivers/STM32L0xx_HAL_Driver/Src/stm32l0xx_hal_flash_ex.c ****         {
1061:Drivers/STM32L0xx_HAL_Driver/Src/stm32l0xx_hal_flash_ex.c ****           WRP_Data = (uint16_t)(~OB_WRP & (WRP_MASK_LOW & OB->WRP01));
 2027              		.loc 1 1061 0
 2028 006e FB68     		ldr	r3, [r7, #12]
 2029 0070 9BB2     		uxth	r3, r3
 2030 0072 DB43     		mvns	r3, r3
 2031 0074 9AB2     		uxth	r2, r3
 2032 0076 104B     		ldr	r3, .L114+8
 2033 0078 9B68     		ldr	r3, [r3, #8]
 2034 007a 9BB2     		uxth	r3, r3
 2035 007c 1340     		ands	r3, r2
 2036 007e 9BB2     		uxth	r3, r3
 2037 0080 3B61     		str	r3, [r7, #16]
1062:Drivers/STM32L0xx_HAL_Driver/Src/stm32l0xx_hal_flash_ex.c ****           OB->WRP01 =  (uint32_t)((~WRP_Data) << 16U) | (WRP_Data);
 2038              		.loc 1 1062 0
 2039 0082 0D4B     		ldr	r3, .L114+8
 2040 0084 3A69     		ldr	r2, [r7, #16]
 2041 0086 D243     		mvns	r2, r2
ARM GAS  /tmp/ccBA2iOh.s 			page 56


 2042 0088 1104     		lsls	r1, r2, #16
 2043 008a 3A69     		ldr	r2, [r7, #16]
 2044 008c 0A43     		orrs	r2, r1
 2045 008e 9A60     		str	r2, [r3, #8]
 2046              	.L111:
1063:Drivers/STM32L0xx_HAL_Driver/Src/stm32l0xx_hal_flash_ex.c ****         }
1064:Drivers/STM32L0xx_HAL_Driver/Src/stm32l0xx_hal_flash_ex.c ****       }
1065:Drivers/STM32L0xx_HAL_Driver/Src/stm32l0xx_hal_flash_ex.c ****     }
1066:Drivers/STM32L0xx_HAL_Driver/Src/stm32l0xx_hal_flash_ex.c **** #if defined(STM32L071xx) || defined(STM32L072xx) || defined(STM32L073xx) || defined(STM32L081xx) ||
1067:Drivers/STM32L0xx_HAL_Driver/Src/stm32l0xx_hal_flash_ex.c ****     /* Update WRP only if at least 1 selected sector */
1068:Drivers/STM32L0xx_HAL_Driver/Src/stm32l0xx_hal_flash_ex.c ****     if (OB_WRP != 0x00000000U)
1069:Drivers/STM32L0xx_HAL_Driver/Src/stm32l0xx_hal_flash_ex.c ****     {
1070:Drivers/STM32L0xx_HAL_Driver/Src/stm32l0xx_hal_flash_ex.c ****       if ((OB_WRP & WRP_MASK_HIGH) != 0x00000000U)
1071:Drivers/STM32L0xx_HAL_Driver/Src/stm32l0xx_hal_flash_ex.c ****       {
1072:Drivers/STM32L0xx_HAL_Driver/Src/stm32l0xx_hal_flash_ex.c ****         if (NewState != OB_WRPSTATE_DISABLE)
1073:Drivers/STM32L0xx_HAL_Driver/Src/stm32l0xx_hal_flash_ex.c ****         {
1074:Drivers/STM32L0xx_HAL_Driver/Src/stm32l0xx_hal_flash_ex.c ****           WRP_Data = (uint16_t)((((OB_WRP & WRP_MASK_HIGH) >> 16U | OB->WRP23))); 
1075:Drivers/STM32L0xx_HAL_Driver/Src/stm32l0xx_hal_flash_ex.c ****           OB->WRP23 = (uint32_t)(~(WRP_Data) << 16U) | (WRP_Data);
1076:Drivers/STM32L0xx_HAL_Driver/Src/stm32l0xx_hal_flash_ex.c ****         }             
1077:Drivers/STM32L0xx_HAL_Driver/Src/stm32l0xx_hal_flash_ex.c ****         else
1078:Drivers/STM32L0xx_HAL_Driver/Src/stm32l0xx_hal_flash_ex.c ****         {
1079:Drivers/STM32L0xx_HAL_Driver/Src/stm32l0xx_hal_flash_ex.c ****           WRP_Data = (uint16_t)((((~OB_WRP & WRP_MASK_HIGH) >> 16U & OB->WRP23))); 
1080:Drivers/STM32L0xx_HAL_Driver/Src/stm32l0xx_hal_flash_ex.c ****           OB->WRP23 = (uint32_t)((~WRP_Data) << 16U) | (WRP_Data);
1081:Drivers/STM32L0xx_HAL_Driver/Src/stm32l0xx_hal_flash_ex.c ****         } 
1082:Drivers/STM32L0xx_HAL_Driver/Src/stm32l0xx_hal_flash_ex.c ****       }
1083:Drivers/STM32L0xx_HAL_Driver/Src/stm32l0xx_hal_flash_ex.c ****     }
1084:Drivers/STM32L0xx_HAL_Driver/Src/stm32l0xx_hal_flash_ex.c **** 
1085:Drivers/STM32L0xx_HAL_Driver/Src/stm32l0xx_hal_flash_ex.c ****     OB_WRP = Sector2;
1086:Drivers/STM32L0xx_HAL_Driver/Src/stm32l0xx_hal_flash_ex.c ****     /* Update WRP only if at least 1 selected sector */
1087:Drivers/STM32L0xx_HAL_Driver/Src/stm32l0xx_hal_flash_ex.c ****     if (OB_WRP != 0x00000000U)
1088:Drivers/STM32L0xx_HAL_Driver/Src/stm32l0xx_hal_flash_ex.c ****     {
1089:Drivers/STM32L0xx_HAL_Driver/Src/stm32l0xx_hal_flash_ex.c ****       if ((OB_WRP & WRP_MASK_LOW) != 0x00000000U)
1090:Drivers/STM32L0xx_HAL_Driver/Src/stm32l0xx_hal_flash_ex.c ****       {
1091:Drivers/STM32L0xx_HAL_Driver/Src/stm32l0xx_hal_flash_ex.c ****         if (NewState != OB_WRPSTATE_DISABLE)
1092:Drivers/STM32L0xx_HAL_Driver/Src/stm32l0xx_hal_flash_ex.c ****         {
1093:Drivers/STM32L0xx_HAL_Driver/Src/stm32l0xx_hal_flash_ex.c ****           WRP_Data = (uint16_t)(((OB_WRP & WRP_MASK_LOW) | OB->WRP45));
1094:Drivers/STM32L0xx_HAL_Driver/Src/stm32l0xx_hal_flash_ex.c ****           OB->WRP45 =(uint32_t)(~(WRP_Data) << 16U) | (WRP_Data);
1095:Drivers/STM32L0xx_HAL_Driver/Src/stm32l0xx_hal_flash_ex.c ****         }             
1096:Drivers/STM32L0xx_HAL_Driver/Src/stm32l0xx_hal_flash_ex.c ****         else
1097:Drivers/STM32L0xx_HAL_Driver/Src/stm32l0xx_hal_flash_ex.c ****         {
1098:Drivers/STM32L0xx_HAL_Driver/Src/stm32l0xx_hal_flash_ex.c ****           WRP_Data = (uint16_t)(~OB_WRP & (WRP_MASK_LOW & OB->WRP45));
1099:Drivers/STM32L0xx_HAL_Driver/Src/stm32l0xx_hal_flash_ex.c ****           OB->WRP45 = (uint32_t)((~WRP_Data) << 16U) | (WRP_Data);
1100:Drivers/STM32L0xx_HAL_Driver/Src/stm32l0xx_hal_flash_ex.c ****         }
1101:Drivers/STM32L0xx_HAL_Driver/Src/stm32l0xx_hal_flash_ex.c ****       }
1102:Drivers/STM32L0xx_HAL_Driver/Src/stm32l0xx_hal_flash_ex.c ****     }
1103:Drivers/STM32L0xx_HAL_Driver/Src/stm32l0xx_hal_flash_ex.c **** #endif /* STM32L071xx || STM32L072xx || STM32L073xx || STM32L081xx || STM32L082xx || STM32L083xx */
1104:Drivers/STM32L0xx_HAL_Driver/Src/stm32l0xx_hal_flash_ex.c ****   }
1105:Drivers/STM32L0xx_HAL_Driver/Src/stm32l0xx_hal_flash_ex.c ****   /* Wait for last operation to be completed */
1106:Drivers/STM32L0xx_HAL_Driver/Src/stm32l0xx_hal_flash_ex.c ****   status = FLASH_WaitForLastOperation(FLASH_TIMEOUT_VALUE);
 2047              		.loc 1 1106 0
 2048 0090 1723     		movs	r3, #23
 2049 0092 FC18     		adds	r4, r7, r3
 2050 0094 064B     		ldr	r3, .L114
 2051 0096 1800     		movs	r0, r3
 2052 0098 FFF7FEFF 		bl	FLASH_WaitForLastOperation
 2053 009c 0300     		movs	r3, r0
 2054 009e 2370     		strb	r3, [r4]
ARM GAS  /tmp/ccBA2iOh.s 			page 57


1107:Drivers/STM32L0xx_HAL_Driver/Src/stm32l0xx_hal_flash_ex.c **** 
1108:Drivers/STM32L0xx_HAL_Driver/Src/stm32l0xx_hal_flash_ex.c ****   /* Return the write protection operation Status */
1109:Drivers/STM32L0xx_HAL_Driver/Src/stm32l0xx_hal_flash_ex.c ****   return status;      
 2055              		.loc 1 1109 0
 2056 00a0 1723     		movs	r3, #23
 2057 00a2 FB18     		adds	r3, r7, r3
 2058 00a4 1B78     		ldrb	r3, [r3]
1110:Drivers/STM32L0xx_HAL_Driver/Src/stm32l0xx_hal_flash_ex.c **** }
 2059              		.loc 1 1110 0
 2060 00a6 1800     		movs	r0, r3
 2061 00a8 BD46     		mov	sp, r7
 2062 00aa 07B0     		add	sp, sp, #28
 2063              		@ sp needed
 2064 00ac 90BD     		pop	{r4, r7, pc}
 2065              	.L115:
 2066 00ae C046     		.align	2
 2067              	.L114:
 2068 00b0 50C30000 		.word	50000
 2069 00b4 00000000 		.word	pFlash
 2070 00b8 0000F81F 		.word	536346624
 2071              		.cfi_endproc
 2072              	.LFE56:
 2074              		.section	.text.FLASH_OB_UserConfig,"ax",%progbits
 2075              		.align	1
 2076              		.syntax unified
 2077              		.code	16
 2078              		.thumb_func
 2079              		.fpu softvfp
 2081              	FLASH_OB_UserConfig:
 2082              	.LFB57:
1111:Drivers/STM32L0xx_HAL_Driver/Src/stm32l0xx_hal_flash_ex.c **** 
1112:Drivers/STM32L0xx_HAL_Driver/Src/stm32l0xx_hal_flash_ex.c **** /**
1113:Drivers/STM32L0xx_HAL_Driver/Src/stm32l0xx_hal_flash_ex.c ****   * @brief  Programs the FLASH User Option Byte: IWDG_SW / RST_STOP / RST_STDBY.
1114:Drivers/STM32L0xx_HAL_Driver/Src/stm32l0xx_hal_flash_ex.c ****   * @param  OB_IWDG Selects the WDG mode.
1115:Drivers/STM32L0xx_HAL_Driver/Src/stm32l0xx_hal_flash_ex.c ****   *   This parameter can be one of the following values:
1116:Drivers/STM32L0xx_HAL_Driver/Src/stm32l0xx_hal_flash_ex.c ****   *     @arg @ref OB_IWDG_SW Software WDG selected
1117:Drivers/STM32L0xx_HAL_Driver/Src/stm32l0xx_hal_flash_ex.c ****   *     @arg @ref OB_IWDG_HW Hardware WDG selected
1118:Drivers/STM32L0xx_HAL_Driver/Src/stm32l0xx_hal_flash_ex.c ****   * @param  OB_STOP Reset event when entering STOP mode.
1119:Drivers/STM32L0xx_HAL_Driver/Src/stm32l0xx_hal_flash_ex.c ****   *   This parameter can be one of the following values:
1120:Drivers/STM32L0xx_HAL_Driver/Src/stm32l0xx_hal_flash_ex.c ****   *     @arg @ref OB_STOP_NORST No reset generated when entering in STOP
1121:Drivers/STM32L0xx_HAL_Driver/Src/stm32l0xx_hal_flash_ex.c ****   *     @arg @ref OB_STOP_RST Reset generated when entering in STOP
1122:Drivers/STM32L0xx_HAL_Driver/Src/stm32l0xx_hal_flash_ex.c ****   * @param  OB_STDBY Reset event when entering Standby mode.
1123:Drivers/STM32L0xx_HAL_Driver/Src/stm32l0xx_hal_flash_ex.c ****   *   This parameter can be one of the following values:
1124:Drivers/STM32L0xx_HAL_Driver/Src/stm32l0xx_hal_flash_ex.c ****   *     @arg @ref OB_STDBY_NORST No reset generated when entering in STANDBY
1125:Drivers/STM32L0xx_HAL_Driver/Src/stm32l0xx_hal_flash_ex.c ****   *     @arg @ref OB_STDBY_RST Reset generated when entering in STANDBY
1126:Drivers/STM32L0xx_HAL_Driver/Src/stm32l0xx_hal_flash_ex.c ****   * @retval HAL status
1127:Drivers/STM32L0xx_HAL_Driver/Src/stm32l0xx_hal_flash_ex.c ****   */
1128:Drivers/STM32L0xx_HAL_Driver/Src/stm32l0xx_hal_flash_ex.c **** static HAL_StatusTypeDef FLASH_OB_UserConfig(uint8_t OB_IWDG, uint8_t OB_STOP, uint8_t OB_STDBY)
1129:Drivers/STM32L0xx_HAL_Driver/Src/stm32l0xx_hal_flash_ex.c **** {
 2083              		.loc 1 1129 0
 2084              		.cfi_startproc
 2085              		@ args = 0, pretend = 0, frame = 24
 2086              		@ frame_needed = 1, uses_anonymous_args = 0
 2087 0000 90B5     		push	{r4, r7, lr}
 2088              	.LCFI60:
 2089              		.cfi_def_cfa_offset 12
 2090              		.cfi_offset 4, -12
ARM GAS  /tmp/ccBA2iOh.s 			page 58


 2091              		.cfi_offset 7, -8
 2092              		.cfi_offset 14, -4
 2093 0002 87B0     		sub	sp, sp, #28
 2094              	.LCFI61:
 2095              		.cfi_def_cfa_offset 40
 2096 0004 00AF     		add	r7, sp, #0
 2097              	.LCFI62:
 2098              		.cfi_def_cfa_register 7
 2099 0006 0400     		movs	r4, r0
 2100 0008 0800     		movs	r0, r1
 2101 000a 1100     		movs	r1, r2
 2102 000c FB1D     		adds	r3, r7, #7
 2103 000e 221C     		adds	r2, r4, #0
 2104 0010 1A70     		strb	r2, [r3]
 2105 0012 BB1D     		adds	r3, r7, #6
 2106 0014 021C     		adds	r2, r0, #0
 2107 0016 1A70     		strb	r2, [r3]
 2108 0018 7B1D     		adds	r3, r7, #5
 2109 001a 0A1C     		adds	r2, r1, #0
 2110 001c 1A70     		strb	r2, [r3]
1130:Drivers/STM32L0xx_HAL_Driver/Src/stm32l0xx_hal_flash_ex.c ****   HAL_StatusTypeDef status = HAL_OK; 
 2111              		.loc 1 1130 0
 2112 001e 1723     		movs	r3, #23
 2113 0020 FB18     		adds	r3, r7, r3
 2114 0022 0022     		movs	r2, #0
 2115 0024 1A70     		strb	r2, [r3]
1131:Drivers/STM32L0xx_HAL_Driver/Src/stm32l0xx_hal_flash_ex.c ****   uint32_t tmp = 0, tmp1 = 0;
 2116              		.loc 1 1131 0
 2117 0026 0023     		movs	r3, #0
 2118 0028 3B61     		str	r3, [r7, #16]
 2119 002a 0023     		movs	r3, #0
 2120 002c FB60     		str	r3, [r7, #12]
1132:Drivers/STM32L0xx_HAL_Driver/Src/stm32l0xx_hal_flash_ex.c **** 
1133:Drivers/STM32L0xx_HAL_Driver/Src/stm32l0xx_hal_flash_ex.c ****   /* Check the parameters */
1134:Drivers/STM32L0xx_HAL_Driver/Src/stm32l0xx_hal_flash_ex.c ****   assert_param(IS_OB_IWDG_SOURCE(OB_IWDG));
1135:Drivers/STM32L0xx_HAL_Driver/Src/stm32l0xx_hal_flash_ex.c ****   assert_param(IS_OB_STOP_SOURCE(OB_STOP));
1136:Drivers/STM32L0xx_HAL_Driver/Src/stm32l0xx_hal_flash_ex.c ****   assert_param(IS_OB_STDBY_SOURCE(OB_STDBY));
1137:Drivers/STM32L0xx_HAL_Driver/Src/stm32l0xx_hal_flash_ex.c **** 
1138:Drivers/STM32L0xx_HAL_Driver/Src/stm32l0xx_hal_flash_ex.c ****   /* Get the User Option byte register */
1139:Drivers/STM32L0xx_HAL_Driver/Src/stm32l0xx_hal_flash_ex.c ****   tmp1 = OB->USER & ((~FLASH_OPTR_USER) >> 16U);
 2121              		.loc 1 1139 0
 2122 002e 234B     		ldr	r3, .L119
 2123 0030 5B68     		ldr	r3, [r3, #4]
 2124 0032 234A     		ldr	r2, .L119+4
 2125 0034 1340     		ands	r3, r2
 2126 0036 FB60     		str	r3, [r7, #12]
1140:Drivers/STM32L0xx_HAL_Driver/Src/stm32l0xx_hal_flash_ex.c **** 
1141:Drivers/STM32L0xx_HAL_Driver/Src/stm32l0xx_hal_flash_ex.c ****   /* Calculate the user option byte to write */ 
1142:Drivers/STM32L0xx_HAL_Driver/Src/stm32l0xx_hal_flash_ex.c ****   tmp = (uint32_t)(((uint32_t)~((uint32_t)((uint32_t)(OB_IWDG) | (uint32_t)(OB_STOP) | (uint32_t)(O
 2127              		.loc 1 1142 0
 2128 0038 FA1D     		adds	r2, r7, #7
 2129 003a BB1D     		adds	r3, r7, #6
 2130 003c 1278     		ldrb	r2, [r2]
