ARM GAS  /tmp/ccLHulwf.s 			page 1


   1              		.cpu cortex-m0plus
   2              		.eabi_attribute 20, 1
   3              		.eabi_attribute 21, 1
   4              		.eabi_attribute 23, 3
   5              		.eabi_attribute 24, 1
   6              		.eabi_attribute 25, 1
   7              		.eabi_attribute 26, 1
   8              		.eabi_attribute 30, 6
   9              		.eabi_attribute 34, 0
  10              		.eabi_attribute 18, 4
  11              		.file	"stm32l0xx_hal_pcd_ex.c"
  12              		.text
  13              	.Ltext0:
  14              		.cfi_sections	.debug_frame
  15              		.section	.text.HAL_PCDEx_PMAConfig,"ax",%progbits
  16              		.align	1
  17              		.global	HAL_PCDEx_PMAConfig
  18              		.syntax unified
  19              		.code	16
  20              		.thumb_func
  21              		.fpu softvfp
  23              	HAL_PCDEx_PMAConfig:
  24              	.LFB34:
  25              		.file 1 "Drivers/STM32L0xx_HAL_Driver/Src/stm32l0xx_hal_pcd_ex.c"
   1:Drivers/STM32L0xx_HAL_Driver/Src/stm32l0xx_hal_pcd_ex.c **** /**
   2:Drivers/STM32L0xx_HAL_Driver/Src/stm32l0xx_hal_pcd_ex.c ****   ******************************************************************************
   3:Drivers/STM32L0xx_HAL_Driver/Src/stm32l0xx_hal_pcd_ex.c ****   * @file    stm32l0xx_hal_pcd_ex.c
   4:Drivers/STM32L0xx_HAL_Driver/Src/stm32l0xx_hal_pcd_ex.c ****   * @author  MCD Application Team
   5:Drivers/STM32L0xx_HAL_Driver/Src/stm32l0xx_hal_pcd_ex.c ****   * @brief   PCD Extended HAL module driver.
   6:Drivers/STM32L0xx_HAL_Driver/Src/stm32l0xx_hal_pcd_ex.c ****   *          This file provides firmware functions to manage the following
   7:Drivers/STM32L0xx_HAL_Driver/Src/stm32l0xx_hal_pcd_ex.c ****   *          functionalities of the USB Peripheral Controller:
   8:Drivers/STM32L0xx_HAL_Driver/Src/stm32l0xx_hal_pcd_ex.c ****   *           + Extended features functions
   9:Drivers/STM32L0xx_HAL_Driver/Src/stm32l0xx_hal_pcd_ex.c ****   *
  10:Drivers/STM32L0xx_HAL_Driver/Src/stm32l0xx_hal_pcd_ex.c ****   ******************************************************************************
  11:Drivers/STM32L0xx_HAL_Driver/Src/stm32l0xx_hal_pcd_ex.c ****   * @attention
  12:Drivers/STM32L0xx_HAL_Driver/Src/stm32l0xx_hal_pcd_ex.c ****   *
  13:Drivers/STM32L0xx_HAL_Driver/Src/stm32l0xx_hal_pcd_ex.c ****   * <h2><center>&copy; Copyright (c) 2016 STMicroelectronics.
  14:Drivers/STM32L0xx_HAL_Driver/Src/stm32l0xx_hal_pcd_ex.c ****   * All rights reserved.</center></h2>
  15:Drivers/STM32L0xx_HAL_Driver/Src/stm32l0xx_hal_pcd_ex.c ****   *
  16:Drivers/STM32L0xx_HAL_Driver/Src/stm32l0xx_hal_pcd_ex.c ****   * This software component is licensed by ST under BSD 3-Clause license,
  17:Drivers/STM32L0xx_HAL_Driver/Src/stm32l0xx_hal_pcd_ex.c ****   * the "License"; You may not use this file except in compliance with the
  18:Drivers/STM32L0xx_HAL_Driver/Src/stm32l0xx_hal_pcd_ex.c ****   * License. You may obtain a copy of the License at:
  19:Drivers/STM32L0xx_HAL_Driver/Src/stm32l0xx_hal_pcd_ex.c ****   *                        opensource.org/licenses/BSD-3-Clause
  20:Drivers/STM32L0xx_HAL_Driver/Src/stm32l0xx_hal_pcd_ex.c ****   *
  21:Drivers/STM32L0xx_HAL_Driver/Src/stm32l0xx_hal_pcd_ex.c ****   ******************************************************************************
  22:Drivers/STM32L0xx_HAL_Driver/Src/stm32l0xx_hal_pcd_ex.c ****   */
  23:Drivers/STM32L0xx_HAL_Driver/Src/stm32l0xx_hal_pcd_ex.c **** 
  24:Drivers/STM32L0xx_HAL_Driver/Src/stm32l0xx_hal_pcd_ex.c **** /* Includes ------------------------------------------------------------------*/
  25:Drivers/STM32L0xx_HAL_Driver/Src/stm32l0xx_hal_pcd_ex.c **** #include "stm32l0xx_hal.h"
  26:Drivers/STM32L0xx_HAL_Driver/Src/stm32l0xx_hal_pcd_ex.c **** 
  27:Drivers/STM32L0xx_HAL_Driver/Src/stm32l0xx_hal_pcd_ex.c **** /** @addtogroup STM32L0xx_HAL_Driver
  28:Drivers/STM32L0xx_HAL_Driver/Src/stm32l0xx_hal_pcd_ex.c ****   * @{
  29:Drivers/STM32L0xx_HAL_Driver/Src/stm32l0xx_hal_pcd_ex.c ****   */
  30:Drivers/STM32L0xx_HAL_Driver/Src/stm32l0xx_hal_pcd_ex.c **** 
  31:Drivers/STM32L0xx_HAL_Driver/Src/stm32l0xx_hal_pcd_ex.c **** /** @defgroup PCDEx PCDEx
  32:Drivers/STM32L0xx_HAL_Driver/Src/stm32l0xx_hal_pcd_ex.c ****   * @brief PCD Extended HAL module driver
  33:Drivers/STM32L0xx_HAL_Driver/Src/stm32l0xx_hal_pcd_ex.c ****   * @{
ARM GAS  /tmp/ccLHulwf.s 			page 2


  34:Drivers/STM32L0xx_HAL_Driver/Src/stm32l0xx_hal_pcd_ex.c ****   */
  35:Drivers/STM32L0xx_HAL_Driver/Src/stm32l0xx_hal_pcd_ex.c **** 
  36:Drivers/STM32L0xx_HAL_Driver/Src/stm32l0xx_hal_pcd_ex.c **** #ifdef HAL_PCD_MODULE_ENABLED
  37:Drivers/STM32L0xx_HAL_Driver/Src/stm32l0xx_hal_pcd_ex.c **** 
  38:Drivers/STM32L0xx_HAL_Driver/Src/stm32l0xx_hal_pcd_ex.c **** #if defined (USB)
  39:Drivers/STM32L0xx_HAL_Driver/Src/stm32l0xx_hal_pcd_ex.c **** /* Private types -------------------------------------------------------------*/
  40:Drivers/STM32L0xx_HAL_Driver/Src/stm32l0xx_hal_pcd_ex.c **** /* Private variables ---------------------------------------------------------*/
  41:Drivers/STM32L0xx_HAL_Driver/Src/stm32l0xx_hal_pcd_ex.c **** /* Private constants ---------------------------------------------------------*/
  42:Drivers/STM32L0xx_HAL_Driver/Src/stm32l0xx_hal_pcd_ex.c **** /* Private macros ------------------------------------------------------------*/
  43:Drivers/STM32L0xx_HAL_Driver/Src/stm32l0xx_hal_pcd_ex.c **** /* Private functions ---------------------------------------------------------*/
  44:Drivers/STM32L0xx_HAL_Driver/Src/stm32l0xx_hal_pcd_ex.c **** /* Exported functions --------------------------------------------------------*/
  45:Drivers/STM32L0xx_HAL_Driver/Src/stm32l0xx_hal_pcd_ex.c **** 
  46:Drivers/STM32L0xx_HAL_Driver/Src/stm32l0xx_hal_pcd_ex.c **** /** @defgroup PCDEx_Exported_Functions PCDEx Exported Functions
  47:Drivers/STM32L0xx_HAL_Driver/Src/stm32l0xx_hal_pcd_ex.c ****   * @{
  48:Drivers/STM32L0xx_HAL_Driver/Src/stm32l0xx_hal_pcd_ex.c ****   */
  49:Drivers/STM32L0xx_HAL_Driver/Src/stm32l0xx_hal_pcd_ex.c **** 
  50:Drivers/STM32L0xx_HAL_Driver/Src/stm32l0xx_hal_pcd_ex.c **** /** @defgroup PCDEx_Exported_Functions_Group1 Peripheral Control functions
  51:Drivers/STM32L0xx_HAL_Driver/Src/stm32l0xx_hal_pcd_ex.c ****   * @brief    PCDEx control functions
  52:Drivers/STM32L0xx_HAL_Driver/Src/stm32l0xx_hal_pcd_ex.c ****  *
  53:Drivers/STM32L0xx_HAL_Driver/Src/stm32l0xx_hal_pcd_ex.c **** @verbatim
  54:Drivers/STM32L0xx_HAL_Driver/Src/stm32l0xx_hal_pcd_ex.c ****  ===============================================================================
  55:Drivers/STM32L0xx_HAL_Driver/Src/stm32l0xx_hal_pcd_ex.c ****                  ##### Extended features functions #####
  56:Drivers/STM32L0xx_HAL_Driver/Src/stm32l0xx_hal_pcd_ex.c ****  ===============================================================================
  57:Drivers/STM32L0xx_HAL_Driver/Src/stm32l0xx_hal_pcd_ex.c ****     [..]  This section provides functions allowing to:
  58:Drivers/STM32L0xx_HAL_Driver/Src/stm32l0xx_hal_pcd_ex.c ****       (+) Update FIFO configuration
  59:Drivers/STM32L0xx_HAL_Driver/Src/stm32l0xx_hal_pcd_ex.c **** 
  60:Drivers/STM32L0xx_HAL_Driver/Src/stm32l0xx_hal_pcd_ex.c **** @endverbatim
  61:Drivers/STM32L0xx_HAL_Driver/Src/stm32l0xx_hal_pcd_ex.c ****   * @{
  62:Drivers/STM32L0xx_HAL_Driver/Src/stm32l0xx_hal_pcd_ex.c ****   */
  63:Drivers/STM32L0xx_HAL_Driver/Src/stm32l0xx_hal_pcd_ex.c **** 
  64:Drivers/STM32L0xx_HAL_Driver/Src/stm32l0xx_hal_pcd_ex.c **** /**
  65:Drivers/STM32L0xx_HAL_Driver/Src/stm32l0xx_hal_pcd_ex.c ****   * @brief  Configure PMA for EP
  66:Drivers/STM32L0xx_HAL_Driver/Src/stm32l0xx_hal_pcd_ex.c ****   * @param  hpcd  Device instance
  67:Drivers/STM32L0xx_HAL_Driver/Src/stm32l0xx_hal_pcd_ex.c ****   * @param  ep_addr endpoint address
  68:Drivers/STM32L0xx_HAL_Driver/Src/stm32l0xx_hal_pcd_ex.c ****   * @param  ep_kind endpoint Kind
  69:Drivers/STM32L0xx_HAL_Driver/Src/stm32l0xx_hal_pcd_ex.c ****   *                  USB_SNG_BUF: Single Buffer used
  70:Drivers/STM32L0xx_HAL_Driver/Src/stm32l0xx_hal_pcd_ex.c ****   *                  USB_DBL_BUF: Double Buffer used
  71:Drivers/STM32L0xx_HAL_Driver/Src/stm32l0xx_hal_pcd_ex.c ****   * @param  pmaadress: EP address in The PMA: In case of single buffer endpoint
  72:Drivers/STM32L0xx_HAL_Driver/Src/stm32l0xx_hal_pcd_ex.c ****   *                   this parameter is 16-bit value providing the address
  73:Drivers/STM32L0xx_HAL_Driver/Src/stm32l0xx_hal_pcd_ex.c ****   *                   in PMA allocated to endpoint.
  74:Drivers/STM32L0xx_HAL_Driver/Src/stm32l0xx_hal_pcd_ex.c ****   *                   In case of double buffer endpoint this parameter
  75:Drivers/STM32L0xx_HAL_Driver/Src/stm32l0xx_hal_pcd_ex.c ****   *                   is a 32-bit value providing the endpoint buffer 0 address
  76:Drivers/STM32L0xx_HAL_Driver/Src/stm32l0xx_hal_pcd_ex.c ****   *                   in the LSB part of 32-bit value and endpoint buffer 1 address
  77:Drivers/STM32L0xx_HAL_Driver/Src/stm32l0xx_hal_pcd_ex.c ****   *                   in the MSB part of 32-bit value.
  78:Drivers/STM32L0xx_HAL_Driver/Src/stm32l0xx_hal_pcd_ex.c ****   * @retval HAL status
  79:Drivers/STM32L0xx_HAL_Driver/Src/stm32l0xx_hal_pcd_ex.c ****   */
  80:Drivers/STM32L0xx_HAL_Driver/Src/stm32l0xx_hal_pcd_ex.c **** 
  81:Drivers/STM32L0xx_HAL_Driver/Src/stm32l0xx_hal_pcd_ex.c **** HAL_StatusTypeDef  HAL_PCDEx_PMAConfig(PCD_HandleTypeDef *hpcd,
  82:Drivers/STM32L0xx_HAL_Driver/Src/stm32l0xx_hal_pcd_ex.c ****                                        uint16_t ep_addr,
  83:Drivers/STM32L0xx_HAL_Driver/Src/stm32l0xx_hal_pcd_ex.c ****                                        uint16_t ep_kind,
  84:Drivers/STM32L0xx_HAL_Driver/Src/stm32l0xx_hal_pcd_ex.c ****                                        uint32_t pmaadress)
  85:Drivers/STM32L0xx_HAL_Driver/Src/stm32l0xx_hal_pcd_ex.c **** {
  26              		.loc 1 85 0
  27              		.cfi_startproc
  28              		@ args = 0, pretend = 0, frame = 24
  29              		@ frame_needed = 1, uses_anonymous_args = 0
  30 0000 80B5     		push	{r7, lr}
ARM GAS  /tmp/ccLHulwf.s 			page 3


  31              	.LCFI0:
  32              		.cfi_def_cfa_offset 8
  33              		.cfi_offset 7, -8
  34              		.cfi_offset 14, -4
  35 0002 86B0     		sub	sp, sp, #24
  36              	.LCFI1:
  37              		.cfi_def_cfa_offset 32
  38 0004 00AF     		add	r7, sp, #0
  39              	.LCFI2:
  40              		.cfi_def_cfa_register 7
  41 0006 F860     		str	r0, [r7, #12]
  42 0008 0800     		movs	r0, r1
  43 000a 1100     		movs	r1, r2
  44 000c 7B60     		str	r3, [r7, #4]
  45 000e 0A23     		movs	r3, #10
  46 0010 FB18     		adds	r3, r7, r3
  47 0012 021C     		adds	r2, r0, #0
  48 0014 1A80     		strh	r2, [r3]
  49 0016 0823     		movs	r3, #8
  50 0018 FB18     		adds	r3, r7, r3
  51 001a 0A1C     		adds	r2, r1, #0
  52 001c 1A80     		strh	r2, [r3]
  86:Drivers/STM32L0xx_HAL_Driver/Src/stm32l0xx_hal_pcd_ex.c ****   PCD_EPTypeDef *ep;
  87:Drivers/STM32L0xx_HAL_Driver/Src/stm32l0xx_hal_pcd_ex.c **** 
  88:Drivers/STM32L0xx_HAL_Driver/Src/stm32l0xx_hal_pcd_ex.c ****   /* initialize ep structure*/
  89:Drivers/STM32L0xx_HAL_Driver/Src/stm32l0xx_hal_pcd_ex.c ****   if ((0x80U & ep_addr) == 0x80U)
  53              		.loc 1 89 0
  54 001e 0A23     		movs	r3, #10
  55 0020 FB18     		adds	r3, r7, r3
  56 0022 1B88     		ldrh	r3, [r3]
  57 0024 8022     		movs	r2, #128
  58 0026 1340     		ands	r3, r2
  59 0028 9BB2     		uxth	r3, r3
  60 002a 002B     		cmp	r3, #0
  61 002c 0AD0     		beq	.L2
  90:Drivers/STM32L0xx_HAL_Driver/Src/stm32l0xx_hal_pcd_ex.c ****   {
  91:Drivers/STM32L0xx_HAL_Driver/Src/stm32l0xx_hal_pcd_ex.c ****     ep = &hpcd->IN_ep[ep_addr & EP_ADDR_MSK];
  62              		.loc 1 91 0
  63 002e 0A23     		movs	r3, #10
  64 0030 FB18     		adds	r3, r7, r3
  65 0032 1B88     		ldrh	r3, [r3]
  66 0034 0722     		movs	r2, #7
  67 0036 1340     		ands	r3, r2
  68 0038 5B01     		lsls	r3, r3, #5
  69 003a 2833     		adds	r3, r3, #40
  70 003c FA68     		ldr	r2, [r7, #12]
  71 003e D318     		adds	r3, r2, r3
  72 0040 7B61     		str	r3, [r7, #20]
  73 0042 08E0     		b	.L3
  74              	.L2:
  92:Drivers/STM32L0xx_HAL_Driver/Src/stm32l0xx_hal_pcd_ex.c ****   }
  93:Drivers/STM32L0xx_HAL_Driver/Src/stm32l0xx_hal_pcd_ex.c ****   else
  94:Drivers/STM32L0xx_HAL_Driver/Src/stm32l0xx_hal_pcd_ex.c ****   {
  95:Drivers/STM32L0xx_HAL_Driver/Src/stm32l0xx_hal_pcd_ex.c ****     ep = &hpcd->OUT_ep[ep_addr];
  75              		.loc 1 95 0
  76 0044 0A23     		movs	r3, #10
  77 0046 FB18     		adds	r3, r7, r3
ARM GAS  /tmp/ccLHulwf.s 			page 4


  78 0048 1B88     		ldrh	r3, [r3]
  79 004a 5B01     		lsls	r3, r3, #5
  80 004c 2933     		adds	r3, r3, #41
  81 004e FF33     		adds	r3, r3, #255
  82 0050 FA68     		ldr	r2, [r7, #12]
  83 0052 D318     		adds	r3, r2, r3
  84 0054 7B61     		str	r3, [r7, #20]
  85              	.L3:
  96:Drivers/STM32L0xx_HAL_Driver/Src/stm32l0xx_hal_pcd_ex.c ****   }
  97:Drivers/STM32L0xx_HAL_Driver/Src/stm32l0xx_hal_pcd_ex.c **** 
  98:Drivers/STM32L0xx_HAL_Driver/Src/stm32l0xx_hal_pcd_ex.c ****   /* Here we check if the endpoint is single or double Buffer*/
  99:Drivers/STM32L0xx_HAL_Driver/Src/stm32l0xx_hal_pcd_ex.c ****   if (ep_kind == PCD_SNG_BUF)
  86              		.loc 1 99 0
  87 0056 0823     		movs	r3, #8
  88 0058 FB18     		adds	r3, r7, r3
  89 005a 1B88     		ldrh	r3, [r3]
  90 005c 002B     		cmp	r3, #0
  91 005e 07D1     		bne	.L4
 100:Drivers/STM32L0xx_HAL_Driver/Src/stm32l0xx_hal_pcd_ex.c ****   {
 101:Drivers/STM32L0xx_HAL_Driver/Src/stm32l0xx_hal_pcd_ex.c ****     /* Single Buffer */
 102:Drivers/STM32L0xx_HAL_Driver/Src/stm32l0xx_hal_pcd_ex.c ****     ep->doublebuffer = 0U;
  92              		.loc 1 102 0
  93 0060 7B69     		ldr	r3, [r7, #20]
  94 0062 0022     		movs	r2, #0
  95 0064 1A73     		strb	r2, [r3, #12]
 103:Drivers/STM32L0xx_HAL_Driver/Src/stm32l0xx_hal_pcd_ex.c ****     /* Configure the PMA */
 104:Drivers/STM32L0xx_HAL_Driver/Src/stm32l0xx_hal_pcd_ex.c ****     ep->pmaadress = (uint16_t)pmaadress;
  96              		.loc 1 104 0
  97 0066 7B68     		ldr	r3, [r7, #4]
  98 0068 9AB2     		uxth	r2, r3
  99 006a 7B69     		ldr	r3, [r7, #20]
 100 006c DA80     		strh	r2, [r3, #6]
 101 006e 0BE0     		b	.L5
 102              	.L4:
 105:Drivers/STM32L0xx_HAL_Driver/Src/stm32l0xx_hal_pcd_ex.c ****   }
 106:Drivers/STM32L0xx_HAL_Driver/Src/stm32l0xx_hal_pcd_ex.c ****   else /* USB_DBL_BUF */
 107:Drivers/STM32L0xx_HAL_Driver/Src/stm32l0xx_hal_pcd_ex.c ****   {
 108:Drivers/STM32L0xx_HAL_Driver/Src/stm32l0xx_hal_pcd_ex.c ****     /* Double Buffer Endpoint */
 109:Drivers/STM32L0xx_HAL_Driver/Src/stm32l0xx_hal_pcd_ex.c ****     ep->doublebuffer = 1U;
 103              		.loc 1 109 0
 104 0070 7B69     		ldr	r3, [r7, #20]
 105 0072 0122     		movs	r2, #1
 106 0074 1A73     		strb	r2, [r3, #12]
 110:Drivers/STM32L0xx_HAL_Driver/Src/stm32l0xx_hal_pcd_ex.c ****     /* Configure the PMA */
 111:Drivers/STM32L0xx_HAL_Driver/Src/stm32l0xx_hal_pcd_ex.c ****     ep->pmaaddr0 = (uint16_t)(pmaadress & 0xFFFFU);
 107              		.loc 1 111 0
 108 0076 7B68     		ldr	r3, [r7, #4]
 109 0078 9AB2     		uxth	r2, r3
 110 007a 7B69     		ldr	r3, [r7, #20]
 111 007c 1A81     		strh	r2, [r3, #8]
 112:Drivers/STM32L0xx_HAL_Driver/Src/stm32l0xx_hal_pcd_ex.c ****     ep->pmaaddr1 = (uint16_t)((pmaadress & 0xFFFF0000U) >> 16);
 112              		.loc 1 112 0
 113 007e 7B68     		ldr	r3, [r7, #4]
 114 0080 1B0C     		lsrs	r3, r3, #16
 115 0082 9AB2     		uxth	r2, r3
 116 0084 7B69     		ldr	r3, [r7, #20]
 117 0086 5A81     		strh	r2, [r3, #10]
ARM GAS  /tmp/ccLHulwf.s 			page 5


 118              	.L5:
 113:Drivers/STM32L0xx_HAL_Driver/Src/stm32l0xx_hal_pcd_ex.c ****   }
 114:Drivers/STM32L0xx_HAL_Driver/Src/stm32l0xx_hal_pcd_ex.c **** 
 115:Drivers/STM32L0xx_HAL_Driver/Src/stm32l0xx_hal_pcd_ex.c ****   return HAL_OK;
 119              		.loc 1 115 0
 120 0088 0023     		movs	r3, #0
 116:Drivers/STM32L0xx_HAL_Driver/Src/stm32l0xx_hal_pcd_ex.c **** }
 121              		.loc 1 116 0
 122 008a 1800     		movs	r0, r3
 123 008c BD46     		mov	sp, r7
 124 008e 06B0     		add	sp, sp, #24
 125              		@ sp needed
 126 0090 80BD     		pop	{r7, pc}
 127              		.cfi_endproc
 128              	.LFE34:
 130              		.section	.text.HAL_PCDEx_ActivateBCD,"ax",%progbits
 131              		.align	1
 132              		.global	HAL_PCDEx_ActivateBCD
 133              		.syntax unified
 134              		.code	16
 135              		.thumb_func
 136              		.fpu softvfp
 138              	HAL_PCDEx_ActivateBCD:
 139              	.LFB35:
 117:Drivers/STM32L0xx_HAL_Driver/Src/stm32l0xx_hal_pcd_ex.c **** 
 118:Drivers/STM32L0xx_HAL_Driver/Src/stm32l0xx_hal_pcd_ex.c **** /**
 119:Drivers/STM32L0xx_HAL_Driver/Src/stm32l0xx_hal_pcd_ex.c ****   * @brief  Activate BatteryCharging feature.
 120:Drivers/STM32L0xx_HAL_Driver/Src/stm32l0xx_hal_pcd_ex.c ****   * @param  hpcd PCD handle
 121:Drivers/STM32L0xx_HAL_Driver/Src/stm32l0xx_hal_pcd_ex.c ****   * @retval HAL status
 122:Drivers/STM32L0xx_HAL_Driver/Src/stm32l0xx_hal_pcd_ex.c ****   */
 123:Drivers/STM32L0xx_HAL_Driver/Src/stm32l0xx_hal_pcd_ex.c **** HAL_StatusTypeDef HAL_PCDEx_ActivateBCD(PCD_HandleTypeDef *hpcd)
 124:Drivers/STM32L0xx_HAL_Driver/Src/stm32l0xx_hal_pcd_ex.c **** {
 140              		.loc 1 124 0
 141              		.cfi_startproc
 142              		@ args = 0, pretend = 0, frame = 16
 143              		@ frame_needed = 1, uses_anonymous_args = 0
 144 0000 80B5     		push	{r7, lr}
 145              	.LCFI3:
 146              		.cfi_def_cfa_offset 8
 147              		.cfi_offset 7, -8
 148              		.cfi_offset 14, -4
 149 0002 84B0     		sub	sp, sp, #16
 150              	.LCFI4:
 151              		.cfi_def_cfa_offset 24
 152 0004 00AF     		add	r7, sp, #0
 153              	.LCFI5:
 154              		.cfi_def_cfa_register 7
 155 0006 7860     		str	r0, [r7, #4]
 125:Drivers/STM32L0xx_HAL_Driver/Src/stm32l0xx_hal_pcd_ex.c ****   USB_TypeDef *USBx = hpcd->Instance;
 156              		.loc 1 125 0
 157 0008 7B68     		ldr	r3, [r7, #4]
 158 000a 1B68     		ldr	r3, [r3]
 159 000c FB60     		str	r3, [r7, #12]
 126:Drivers/STM32L0xx_HAL_Driver/Src/stm32l0xx_hal_pcd_ex.c ****   hpcd->battery_charging_active = 1U;
 160              		.loc 1 126 0
 161 000e 7A68     		ldr	r2, [r7, #4]
 162 0010 9B23     		movs	r3, #155
ARM GAS  /tmp/ccLHulwf.s 			page 6


 163 0012 9B00     		lsls	r3, r3, #2
 164 0014 0121     		movs	r1, #1
 165 0016 D150     		str	r1, [r2, r3]
 127:Drivers/STM32L0xx_HAL_Driver/Src/stm32l0xx_hal_pcd_ex.c **** 
 128:Drivers/STM32L0xx_HAL_Driver/Src/stm32l0xx_hal_pcd_ex.c ****   USBx->BCDR |= (USB_BCDR_BCDEN);
 166              		.loc 1 128 0
 167 0018 FB68     		ldr	r3, [r7, #12]
 168 001a 5822     		movs	r2, #88
 169 001c 9B5A     		ldrh	r3, [r3, r2]
 170 001e 9BB2     		uxth	r3, r3
 171 0020 0122     		movs	r2, #1
 172 0022 1343     		orrs	r3, r2
 173 0024 99B2     		uxth	r1, r3
 174 0026 FB68     		ldr	r3, [r7, #12]
 175 0028 5822     		movs	r2, #88
 176 002a 9952     		strh	r1, [r3, r2]
 129:Drivers/STM32L0xx_HAL_Driver/Src/stm32l0xx_hal_pcd_ex.c ****   /* Enable DCD : Data Contact Detect */
 130:Drivers/STM32L0xx_HAL_Driver/Src/stm32l0xx_hal_pcd_ex.c ****   USBx->BCDR |= (USB_BCDR_DCDEN);
 177              		.loc 1 130 0
 178 002c FB68     		ldr	r3, [r7, #12]
 179 002e 5822     		movs	r2, #88
 180 0030 9B5A     		ldrh	r3, [r3, r2]
 181 0032 9BB2     		uxth	r3, r3
 182 0034 0222     		movs	r2, #2
 183 0036 1343     		orrs	r3, r2
 184 0038 99B2     		uxth	r1, r3
 185 003a FB68     		ldr	r3, [r7, #12]
 186 003c 5822     		movs	r2, #88
 187 003e 9952     		strh	r1, [r3, r2]
 131:Drivers/STM32L0xx_HAL_Driver/Src/stm32l0xx_hal_pcd_ex.c **** 
 132:Drivers/STM32L0xx_HAL_Driver/Src/stm32l0xx_hal_pcd_ex.c ****   return HAL_OK;
 188              		.loc 1 132 0
 189 0040 0023     		movs	r3, #0
 133:Drivers/STM32L0xx_HAL_Driver/Src/stm32l0xx_hal_pcd_ex.c **** }
 190              		.loc 1 133 0
 191 0042 1800     		movs	r0, r3
 192 0044 BD46     		mov	sp, r7
 193 0046 04B0     		add	sp, sp, #16
 194              		@ sp needed
 195 0048 80BD     		pop	{r7, pc}
 196              		.cfi_endproc
 197              	.LFE35:
 199              		.section	.text.HAL_PCDEx_DeActivateBCD,"ax",%progbits
 200              		.align	1
 201              		.global	HAL_PCDEx_DeActivateBCD
 202              		.syntax unified
 203              		.code	16
 204              		.thumb_func
 205              		.fpu softvfp
 207              	HAL_PCDEx_DeActivateBCD:
 208              	.LFB36:
 134:Drivers/STM32L0xx_HAL_Driver/Src/stm32l0xx_hal_pcd_ex.c **** 
 135:Drivers/STM32L0xx_HAL_Driver/Src/stm32l0xx_hal_pcd_ex.c **** /**
 136:Drivers/STM32L0xx_HAL_Driver/Src/stm32l0xx_hal_pcd_ex.c ****   * @brief  Deactivate BatteryCharging feature.
 137:Drivers/STM32L0xx_HAL_Driver/Src/stm32l0xx_hal_pcd_ex.c ****   * @param  hpcd PCD handle
 138:Drivers/STM32L0xx_HAL_Driver/Src/stm32l0xx_hal_pcd_ex.c ****   * @retval HAL status
 139:Drivers/STM32L0xx_HAL_Driver/Src/stm32l0xx_hal_pcd_ex.c ****   */
ARM GAS  /tmp/ccLHulwf.s 			page 7


 140:Drivers/STM32L0xx_HAL_Driver/Src/stm32l0xx_hal_pcd_ex.c **** HAL_StatusTypeDef HAL_PCDEx_DeActivateBCD(PCD_HandleTypeDef *hpcd)
 141:Drivers/STM32L0xx_HAL_Driver/Src/stm32l0xx_hal_pcd_ex.c **** {
 209              		.loc 1 141 0
 210              		.cfi_startproc
 211              		@ args = 0, pretend = 0, frame = 16
 212              		@ frame_needed = 1, uses_anonymous_args = 0
 213 0000 80B5     		push	{r7, lr}
 214              	.LCFI6:
 215              		.cfi_def_cfa_offset 8
 216              		.cfi_offset 7, -8
 217              		.cfi_offset 14, -4
 218 0002 84B0     		sub	sp, sp, #16
 219              	.LCFI7:
 220              		.cfi_def_cfa_offset 24
 221 0004 00AF     		add	r7, sp, #0
 222              	.LCFI8:
 223              		.cfi_def_cfa_register 7
 224 0006 7860     		str	r0, [r7, #4]
 142:Drivers/STM32L0xx_HAL_Driver/Src/stm32l0xx_hal_pcd_ex.c ****   USB_TypeDef *USBx = hpcd->Instance;
 225              		.loc 1 142 0
 226 0008 7B68     		ldr	r3, [r7, #4]
 227 000a 1B68     		ldr	r3, [r3]
 228 000c FB60     		str	r3, [r7, #12]
 143:Drivers/STM32L0xx_HAL_Driver/Src/stm32l0xx_hal_pcd_ex.c ****   hpcd->battery_charging_active = 0U;
 229              		.loc 1 143 0
 230 000e 7A68     		ldr	r2, [r7, #4]
 231 0010 9B23     		movs	r3, #155
 232 0012 9B00     		lsls	r3, r3, #2
 233 0014 0021     		movs	r1, #0
 234 0016 D150     		str	r1, [r2, r3]
 144:Drivers/STM32L0xx_HAL_Driver/Src/stm32l0xx_hal_pcd_ex.c **** 
 145:Drivers/STM32L0xx_HAL_Driver/Src/stm32l0xx_hal_pcd_ex.c ****   USBx->BCDR &= ~(USB_BCDR_BCDEN);
 235              		.loc 1 145 0
 236 0018 FB68     		ldr	r3, [r7, #12]
 237 001a 5822     		movs	r2, #88
 238 001c 9B5A     		ldrh	r3, [r3, r2]
 239 001e 9BB2     		uxth	r3, r3
 240 0020 0122     		movs	r2, #1
 241 0022 9343     		bics	r3, r2
 242 0024 99B2     		uxth	r1, r3
 243 0026 FB68     		ldr	r3, [r7, #12]
 244 0028 5822     		movs	r2, #88
 245 002a 9952     		strh	r1, [r3, r2]
 146:Drivers/STM32L0xx_HAL_Driver/Src/stm32l0xx_hal_pcd_ex.c **** 
 147:Drivers/STM32L0xx_HAL_Driver/Src/stm32l0xx_hal_pcd_ex.c ****   return HAL_OK;
 246              		.loc 1 147 0
 247 002c 0023     		movs	r3, #0
 148:Drivers/STM32L0xx_HAL_Driver/Src/stm32l0xx_hal_pcd_ex.c **** }
 248              		.loc 1 148 0
 249 002e 1800     		movs	r0, r3
 250 0030 BD46     		mov	sp, r7
 251 0032 04B0     		add	sp, sp, #16
 252              		@ sp needed
 253 0034 80BD     		pop	{r7, pc}
 254              		.cfi_endproc
 255              	.LFE36:
 257              		.section	.text.HAL_PCDEx_BCD_VBUSDetect,"ax",%progbits
ARM GAS  /tmp/ccLHulwf.s 			page 8


 258              		.align	1
 259              		.global	HAL_PCDEx_BCD_VBUSDetect
 260              		.syntax unified
 261              		.code	16
 262              		.thumb_func
 263              		.fpu softvfp
 265              	HAL_PCDEx_BCD_VBUSDetect:
 266              	.LFB37:
 149:Drivers/STM32L0xx_HAL_Driver/Src/stm32l0xx_hal_pcd_ex.c **** 
 150:Drivers/STM32L0xx_HAL_Driver/Src/stm32l0xx_hal_pcd_ex.c **** /**
 151:Drivers/STM32L0xx_HAL_Driver/Src/stm32l0xx_hal_pcd_ex.c ****   * @brief  Handle BatteryCharging Process.
 152:Drivers/STM32L0xx_HAL_Driver/Src/stm32l0xx_hal_pcd_ex.c ****   * @param  hpcd PCD handle
 153:Drivers/STM32L0xx_HAL_Driver/Src/stm32l0xx_hal_pcd_ex.c ****   * @retval HAL status
 154:Drivers/STM32L0xx_HAL_Driver/Src/stm32l0xx_hal_pcd_ex.c ****   */
 155:Drivers/STM32L0xx_HAL_Driver/Src/stm32l0xx_hal_pcd_ex.c **** void HAL_PCDEx_BCD_VBUSDetect(PCD_HandleTypeDef *hpcd)
 156:Drivers/STM32L0xx_HAL_Driver/Src/stm32l0xx_hal_pcd_ex.c **** {
 267              		.loc 1 156 0
 268              		.cfi_startproc
 269              		@ args = 0, pretend = 0, frame = 16
 270              		@ frame_needed = 1, uses_anonymous_args = 0
 271 0000 80B5     		push	{r7, lr}
 272              	.LCFI9:
 273              		.cfi_def_cfa_offset 8
 274              		.cfi_offset 7, -8
 275              		.cfi_offset 14, -4
 276 0002 84B0     		sub	sp, sp, #16
 277              	.LCFI10:
 278              		.cfi_def_cfa_offset 24
 279 0004 00AF     		add	r7, sp, #0
 280              	.LCFI11:
 281              		.cfi_def_cfa_register 7
 282 0006 7860     		str	r0, [r7, #4]
 157:Drivers/STM32L0xx_HAL_Driver/Src/stm32l0xx_hal_pcd_ex.c ****   USB_TypeDef *USBx = hpcd->Instance;
 283              		.loc 1 157 0
 284 0008 7B68     		ldr	r3, [r7, #4]
 285 000a 1B68     		ldr	r3, [r3]
 286 000c FB60     		str	r3, [r7, #12]
 158:Drivers/STM32L0xx_HAL_Driver/Src/stm32l0xx_hal_pcd_ex.c ****   uint32_t tickstart = HAL_GetTick();
 287              		.loc 1 158 0
 288 000e FFF7FEFF 		bl	HAL_GetTick
 289 0012 0300     		movs	r3, r0
 290 0014 BB60     		str	r3, [r7, #8]
 159:Drivers/STM32L0xx_HAL_Driver/Src/stm32l0xx_hal_pcd_ex.c **** 
 160:Drivers/STM32L0xx_HAL_Driver/Src/stm32l0xx_hal_pcd_ex.c ****   /* Wait Detect flag or a timeout is happen*/
 161:Drivers/STM32L0xx_HAL_Driver/Src/stm32l0xx_hal_pcd_ex.c ****   while ((USBx->BCDR & USB_BCDR_DCDET) == 0U)
 291              		.loc 1 161 0
 292 0016 0EE0     		b	.L12
 293              	.L14:
 162:Drivers/STM32L0xx_HAL_Driver/Src/stm32l0xx_hal_pcd_ex.c ****   {
 163:Drivers/STM32L0xx_HAL_Driver/Src/stm32l0xx_hal_pcd_ex.c ****     /* Check for the Timeout */
 164:Drivers/STM32L0xx_HAL_Driver/Src/stm32l0xx_hal_pcd_ex.c ****     if ((HAL_GetTick() - tickstart) > 1000U)
 294              		.loc 1 164 0
 295 0018 FFF7FEFF 		bl	HAL_GetTick
 296 001c 0200     		movs	r2, r0
 297 001e BB68     		ldr	r3, [r7, #8]
 298 0020 D21A     		subs	r2, r2, r3
 299 0022 FA23     		movs	r3, #250
ARM GAS  /tmp/ccLHulwf.s 			page 9


 300 0024 9B00     		lsls	r3, r3, #2
 301 0026 9A42     		cmp	r2, r3
 302 0028 05D9     		bls	.L12
 165:Drivers/STM32L0xx_HAL_Driver/Src/stm32l0xx_hal_pcd_ex.c ****     {
 166:Drivers/STM32L0xx_HAL_Driver/Src/stm32l0xx_hal_pcd_ex.c **** #if (USE_HAL_PCD_REGISTER_CALLBACKS == 1U)
 167:Drivers/STM32L0xx_HAL_Driver/Src/stm32l0xx_hal_pcd_ex.c ****       hpcd->BCDCallback(hpcd, PCD_BCD_ERROR);
 168:Drivers/STM32L0xx_HAL_Driver/Src/stm32l0xx_hal_pcd_ex.c **** #else
 169:Drivers/STM32L0xx_HAL_Driver/Src/stm32l0xx_hal_pcd_ex.c ****       HAL_PCDEx_BCD_Callback(hpcd, PCD_BCD_ERROR);
 303              		.loc 1 169 0
 304 002a 7B68     		ldr	r3, [r7, #4]
 305 002c FF21     		movs	r1, #255
 306 002e 1800     		movs	r0, r3
 307 0030 FFF7FEFF 		bl	HAL_PCDEx_BCD_Callback
 170:Drivers/STM32L0xx_HAL_Driver/Src/stm32l0xx_hal_pcd_ex.c **** #endif /* USE_HAL_PCD_REGISTER_CALLBACKS */
 171:Drivers/STM32L0xx_HAL_Driver/Src/stm32l0xx_hal_pcd_ex.c **** 
 172:Drivers/STM32L0xx_HAL_Driver/Src/stm32l0xx_hal_pcd_ex.c ****       return;
 308              		.loc 1 172 0
 309 0034 78E0     		b	.L11
 310              	.L12:
 161:Drivers/STM32L0xx_HAL_Driver/Src/stm32l0xx_hal_pcd_ex.c ****   {
 311              		.loc 1 161 0
 312 0036 FB68     		ldr	r3, [r7, #12]
 313 0038 5822     		movs	r2, #88
 314 003a 9B5A     		ldrh	r3, [r3, r2]
 315 003c 9BB2     		uxth	r3, r3
 316 003e 1A00     		movs	r2, r3
 317 0040 1023     		movs	r3, #16
 318 0042 1340     		ands	r3, r2
 319 0044 E8D0     		beq	.L14
 173:Drivers/STM32L0xx_HAL_Driver/Src/stm32l0xx_hal_pcd_ex.c ****     }
 174:Drivers/STM32L0xx_HAL_Driver/Src/stm32l0xx_hal_pcd_ex.c ****   }
 175:Drivers/STM32L0xx_HAL_Driver/Src/stm32l0xx_hal_pcd_ex.c **** 
 176:Drivers/STM32L0xx_HAL_Driver/Src/stm32l0xx_hal_pcd_ex.c ****   HAL_Delay(300U);
 320              		.loc 1 176 0
 321 0046 9623     		movs	r3, #150
 322 0048 5B00     		lsls	r3, r3, #1
 323 004a 1800     		movs	r0, r3
 324 004c FFF7FEFF 		bl	HAL_Delay
 177:Drivers/STM32L0xx_HAL_Driver/Src/stm32l0xx_hal_pcd_ex.c **** 
 178:Drivers/STM32L0xx_HAL_Driver/Src/stm32l0xx_hal_pcd_ex.c ****   /* Data Pin Contact ? Check Detect flag */
 179:Drivers/STM32L0xx_HAL_Driver/Src/stm32l0xx_hal_pcd_ex.c ****   if ((USBx->BCDR & USB_BCDR_DCDET) == USB_BCDR_DCDET)
 325              		.loc 1 179 0
 326 0050 FB68     		ldr	r3, [r7, #12]
 327 0052 5822     		movs	r2, #88
 328 0054 9B5A     		ldrh	r3, [r3, r2]
 329 0056 9BB2     		uxth	r3, r3
 330 0058 1A00     		movs	r2, r3
 331 005a 1023     		movs	r3, #16
 332 005c 1340     		ands	r3, r2
 333 005e 102B     		cmp	r3, #16
 334 0060 04D1     		bne	.L15
 180:Drivers/STM32L0xx_HAL_Driver/Src/stm32l0xx_hal_pcd_ex.c ****   {
 181:Drivers/STM32L0xx_HAL_Driver/Src/stm32l0xx_hal_pcd_ex.c **** #if (USE_HAL_PCD_REGISTER_CALLBACKS == 1U)
 182:Drivers/STM32L0xx_HAL_Driver/Src/stm32l0xx_hal_pcd_ex.c ****     hpcd->BCDCallback(hpcd, PCD_BCD_CONTACT_DETECTION);
 183:Drivers/STM32L0xx_HAL_Driver/Src/stm32l0xx_hal_pcd_ex.c **** #else
 184:Drivers/STM32L0xx_HAL_Driver/Src/stm32l0xx_hal_pcd_ex.c ****     HAL_PCDEx_BCD_Callback(hpcd, PCD_BCD_CONTACT_DETECTION);
 335              		.loc 1 184 0
ARM GAS  /tmp/ccLHulwf.s 			page 10


 336 0062 7B68     		ldr	r3, [r7, #4]
 337 0064 FE21     		movs	r1, #254
 338 0066 1800     		movs	r0, r3
 339 0068 FFF7FEFF 		bl	HAL_PCDEx_BCD_Callback
 340              	.L15:
 185:Drivers/STM32L0xx_HAL_Driver/Src/stm32l0xx_hal_pcd_ex.c **** #endif /* USE_HAL_PCD_REGISTER_CALLBACKS */
 186:Drivers/STM32L0xx_HAL_Driver/Src/stm32l0xx_hal_pcd_ex.c ****   }
 187:Drivers/STM32L0xx_HAL_Driver/Src/stm32l0xx_hal_pcd_ex.c ****   /* Primary detection: checks if connected to Standard Downstream Port
 188:Drivers/STM32L0xx_HAL_Driver/Src/stm32l0xx_hal_pcd_ex.c ****   (without charging capability) */
 189:Drivers/STM32L0xx_HAL_Driver/Src/stm32l0xx_hal_pcd_ex.c ****   USBx->BCDR &= ~(USB_BCDR_DCDEN);
 341              		.loc 1 189 0
 342 006c FB68     		ldr	r3, [r7, #12]
 343 006e 5822     		movs	r2, #88
 344 0070 9B5A     		ldrh	r3, [r3, r2]
 345 0072 9BB2     		uxth	r3, r3
 346 0074 0222     		movs	r2, #2
 347 0076 9343     		bics	r3, r2
 348 0078 99B2     		uxth	r1, r3
 349 007a FB68     		ldr	r3, [r7, #12]
 350 007c 5822     		movs	r2, #88
 351 007e 9952     		strh	r1, [r3, r2]
 190:Drivers/STM32L0xx_HAL_Driver/Src/stm32l0xx_hal_pcd_ex.c ****   USBx->BCDR |= (USB_BCDR_PDEN);
 352              		.loc 1 190 0
 353 0080 FB68     		ldr	r3, [r7, #12]
 354 0082 5822     		movs	r2, #88
 355 0084 9B5A     		ldrh	r3, [r3, r2]
 356 0086 9BB2     		uxth	r3, r3
 357 0088 0422     		movs	r2, #4
 358 008a 1343     		orrs	r3, r2
 359 008c 99B2     		uxth	r1, r3
 360 008e FB68     		ldr	r3, [r7, #12]
 361 0090 5822     		movs	r2, #88
 362 0092 9952     		strh	r1, [r3, r2]
 191:Drivers/STM32L0xx_HAL_Driver/Src/stm32l0xx_hal_pcd_ex.c ****   HAL_Delay(300U);
 363              		.loc 1 191 0
 364 0094 9623     		movs	r3, #150
 365 0096 5B00     		lsls	r3, r3, #1
 366 0098 1800     		movs	r0, r3
 367 009a FFF7FEFF 		bl	HAL_Delay
 192:Drivers/STM32L0xx_HAL_Driver/Src/stm32l0xx_hal_pcd_ex.c **** 
 193:Drivers/STM32L0xx_HAL_Driver/Src/stm32l0xx_hal_pcd_ex.c ****   /* If Charger detect ? */
 194:Drivers/STM32L0xx_HAL_Driver/Src/stm32l0xx_hal_pcd_ex.c ****   if ((USBx->BCDR & USB_BCDR_PDET) == USB_BCDR_PDET)
 368              		.loc 1 194 0
 369 009e FB68     		ldr	r3, [r7, #12]
 370 00a0 5822     		movs	r2, #88
 371 00a2 9B5A     		ldrh	r3, [r3, r2]
 372 00a4 9BB2     		uxth	r3, r3
 373 00a6 1A00     		movs	r2, r3
 374 00a8 2023     		movs	r3, #32
 375 00aa 1340     		ands	r3, r2
 376 00ac 202B     		cmp	r3, #32
 377 00ae 2DD1     		bne	.L16
 195:Drivers/STM32L0xx_HAL_Driver/Src/stm32l0xx_hal_pcd_ex.c ****   {
 196:Drivers/STM32L0xx_HAL_Driver/Src/stm32l0xx_hal_pcd_ex.c ****     /* Start secondary detection to check connection to Charging Downstream
 197:Drivers/STM32L0xx_HAL_Driver/Src/stm32l0xx_hal_pcd_ex.c ****     Port or Dedicated Charging Port */
 198:Drivers/STM32L0xx_HAL_Driver/Src/stm32l0xx_hal_pcd_ex.c ****     USBx->BCDR &= ~(USB_BCDR_PDEN);
 378              		.loc 1 198 0
ARM GAS  /tmp/ccLHulwf.s 			page 11


 379 00b0 FB68     		ldr	r3, [r7, #12]
 380 00b2 5822     		movs	r2, #88
 381 00b4 9B5A     		ldrh	r3, [r3, r2]
 382 00b6 9BB2     		uxth	r3, r3
 383 00b8 0422     		movs	r2, #4
 384 00ba 9343     		bics	r3, r2
 385 00bc 99B2     		uxth	r1, r3
 386 00be FB68     		ldr	r3, [r7, #12]
 387 00c0 5822     		movs	r2, #88
 388 00c2 9952     		strh	r1, [r3, r2]
 199:Drivers/STM32L0xx_HAL_Driver/Src/stm32l0xx_hal_pcd_ex.c ****     USBx->BCDR |= (USB_BCDR_SDEN);
 389              		.loc 1 199 0
 390 00c4 FB68     		ldr	r3, [r7, #12]
 391 00c6 5822     		movs	r2, #88
 392 00c8 9B5A     		ldrh	r3, [r3, r2]
 393 00ca 9BB2     		uxth	r3, r3
 394 00cc 0822     		movs	r2, #8
 395 00ce 1343     		orrs	r3, r2
 396 00d0 99B2     		uxth	r1, r3
 397 00d2 FB68     		ldr	r3, [r7, #12]
 398 00d4 5822     		movs	r2, #88
 399 00d6 9952     		strh	r1, [r3, r2]
 200:Drivers/STM32L0xx_HAL_Driver/Src/stm32l0xx_hal_pcd_ex.c ****     HAL_Delay(300U);
 400              		.loc 1 200 0
 401 00d8 9623     		movs	r3, #150
 402 00da 5B00     		lsls	r3, r3, #1
 403 00dc 1800     		movs	r0, r3
 404 00de FFF7FEFF 		bl	HAL_Delay
 201:Drivers/STM32L0xx_HAL_Driver/Src/stm32l0xx_hal_pcd_ex.c **** 
 202:Drivers/STM32L0xx_HAL_Driver/Src/stm32l0xx_hal_pcd_ex.c ****     /* If CDP ? */
 203:Drivers/STM32L0xx_HAL_Driver/Src/stm32l0xx_hal_pcd_ex.c ****     if ((USBx->BCDR & USB_BCDR_SDET) == USB_BCDR_SDET)
 405              		.loc 1 203 0
 406 00e2 FB68     		ldr	r3, [r7, #12]
 407 00e4 5822     		movs	r2, #88
 408 00e6 9B5A     		ldrh	r3, [r3, r2]
 409 00e8 9BB2     		uxth	r3, r3
 410 00ea 1A00     		movs	r2, r3
 411 00ec 4023     		movs	r3, #64
 412 00ee 1340     		ands	r3, r2
 413 00f0 402B     		cmp	r3, #64
 414 00f2 05D1     		bne	.L17
 204:Drivers/STM32L0xx_HAL_Driver/Src/stm32l0xx_hal_pcd_ex.c ****     {
 205:Drivers/STM32L0xx_HAL_Driver/Src/stm32l0xx_hal_pcd_ex.c ****       /* Dedicated Downstream Port DCP */
 206:Drivers/STM32L0xx_HAL_Driver/Src/stm32l0xx_hal_pcd_ex.c **** #if (USE_HAL_PCD_REGISTER_CALLBACKS == 1U)
 207:Drivers/STM32L0xx_HAL_Driver/Src/stm32l0xx_hal_pcd_ex.c ****       hpcd->BCDCallback(hpcd, PCD_BCD_DEDICATED_CHARGING_PORT);
 208:Drivers/STM32L0xx_HAL_Driver/Src/stm32l0xx_hal_pcd_ex.c **** #else
 209:Drivers/STM32L0xx_HAL_Driver/Src/stm32l0xx_hal_pcd_ex.c ****       HAL_PCDEx_BCD_Callback(hpcd, PCD_BCD_DEDICATED_CHARGING_PORT);
 415              		.loc 1 209 0
 416 00f4 7B68     		ldr	r3, [r7, #4]
 417 00f6 FB21     		movs	r1, #251
 418 00f8 1800     		movs	r0, r3
 419 00fa FFF7FEFF 		bl	HAL_PCDEx_BCD_Callback
 420 00fe 0AE0     		b	.L19
 421              	.L17:
 210:Drivers/STM32L0xx_HAL_Driver/Src/stm32l0xx_hal_pcd_ex.c **** #endif /* USE_HAL_PCD_REGISTER_CALLBACKS */
 211:Drivers/STM32L0xx_HAL_Driver/Src/stm32l0xx_hal_pcd_ex.c ****     }
 212:Drivers/STM32L0xx_HAL_Driver/Src/stm32l0xx_hal_pcd_ex.c ****     else
ARM GAS  /tmp/ccLHulwf.s 			page 12


 213:Drivers/STM32L0xx_HAL_Driver/Src/stm32l0xx_hal_pcd_ex.c ****     {
 214:Drivers/STM32L0xx_HAL_Driver/Src/stm32l0xx_hal_pcd_ex.c ****       /* Charging Downstream Port CDP */
 215:Drivers/STM32L0xx_HAL_Driver/Src/stm32l0xx_hal_pcd_ex.c **** #if (USE_HAL_PCD_REGISTER_CALLBACKS == 1U)
 216:Drivers/STM32L0xx_HAL_Driver/Src/stm32l0xx_hal_pcd_ex.c ****       hpcd->BCDCallback(hpcd, PCD_BCD_CHARGING_DOWNSTREAM_PORT);
 217:Drivers/STM32L0xx_HAL_Driver/Src/stm32l0xx_hal_pcd_ex.c **** #else
 218:Drivers/STM32L0xx_HAL_Driver/Src/stm32l0xx_hal_pcd_ex.c ****       HAL_PCDEx_BCD_Callback(hpcd, PCD_BCD_CHARGING_DOWNSTREAM_PORT);
 422              		.loc 1 218 0
 423 0100 7B68     		ldr	r3, [r7, #4]
 424 0102 FC21     		movs	r1, #252
 425 0104 1800     		movs	r0, r3
 426 0106 FFF7FEFF 		bl	HAL_PCDEx_BCD_Callback
 427 010a 04E0     		b	.L19
 428              	.L16:
 219:Drivers/STM32L0xx_HAL_Driver/Src/stm32l0xx_hal_pcd_ex.c **** #endif /* USE_HAL_PCD_REGISTER_CALLBACKS */
 220:Drivers/STM32L0xx_HAL_Driver/Src/stm32l0xx_hal_pcd_ex.c ****     }
 221:Drivers/STM32L0xx_HAL_Driver/Src/stm32l0xx_hal_pcd_ex.c ****   }
 222:Drivers/STM32L0xx_HAL_Driver/Src/stm32l0xx_hal_pcd_ex.c ****   else /* NO */
 223:Drivers/STM32L0xx_HAL_Driver/Src/stm32l0xx_hal_pcd_ex.c ****   {
 224:Drivers/STM32L0xx_HAL_Driver/Src/stm32l0xx_hal_pcd_ex.c ****     /* Standard Downstream Port */
 225:Drivers/STM32L0xx_HAL_Driver/Src/stm32l0xx_hal_pcd_ex.c **** #if (USE_HAL_PCD_REGISTER_CALLBACKS == 1U)
 226:Drivers/STM32L0xx_HAL_Driver/Src/stm32l0xx_hal_pcd_ex.c ****     hpcd->BCDCallback(hpcd, PCD_BCD_STD_DOWNSTREAM_PORT);
 227:Drivers/STM32L0xx_HAL_Driver/Src/stm32l0xx_hal_pcd_ex.c **** #else
 228:Drivers/STM32L0xx_HAL_Driver/Src/stm32l0xx_hal_pcd_ex.c ****     HAL_PCDEx_BCD_Callback(hpcd, PCD_BCD_STD_DOWNSTREAM_PORT);
 429              		.loc 1 228 0
 430 010c 7B68     		ldr	r3, [r7, #4]
 431 010e FD21     		movs	r1, #253
 432 0110 1800     		movs	r0, r3
 433 0112 FFF7FEFF 		bl	HAL_PCDEx_BCD_Callback
 434              	.L19:
 229:Drivers/STM32L0xx_HAL_Driver/Src/stm32l0xx_hal_pcd_ex.c **** #endif /* USE_HAL_PCD_REGISTER_CALLBACKS */
 230:Drivers/STM32L0xx_HAL_Driver/Src/stm32l0xx_hal_pcd_ex.c ****   }
 231:Drivers/STM32L0xx_HAL_Driver/Src/stm32l0xx_hal_pcd_ex.c **** 
 232:Drivers/STM32L0xx_HAL_Driver/Src/stm32l0xx_hal_pcd_ex.c ****   /* Battery Charging capability discovery finished Start Enumeration */
 233:Drivers/STM32L0xx_HAL_Driver/Src/stm32l0xx_hal_pcd_ex.c ****   (void)HAL_PCDEx_DeActivateBCD(hpcd);
 435              		.loc 1 233 0
 436 0116 7B68     		ldr	r3, [r7, #4]
 437 0118 1800     		movs	r0, r3
 438 011a FFF7FEFF 		bl	HAL_PCDEx_DeActivateBCD
 234:Drivers/STM32L0xx_HAL_Driver/Src/stm32l0xx_hal_pcd_ex.c **** #if (USE_HAL_PCD_REGISTER_CALLBACKS == 1U)
 235:Drivers/STM32L0xx_HAL_Driver/Src/stm32l0xx_hal_pcd_ex.c ****   hpcd->BCDCallback(hpcd, PCD_BCD_DISCOVERY_COMPLETED);
 236:Drivers/STM32L0xx_HAL_Driver/Src/stm32l0xx_hal_pcd_ex.c **** #else
 237:Drivers/STM32L0xx_HAL_Driver/Src/stm32l0xx_hal_pcd_ex.c ****   HAL_PCDEx_BCD_Callback(hpcd, PCD_BCD_DISCOVERY_COMPLETED);
 439              		.loc 1 237 0
 440 011e 7B68     		ldr	r3, [r7, #4]
 441 0120 0021     		movs	r1, #0
 442 0122 1800     		movs	r0, r3
 443 0124 FFF7FEFF 		bl	HAL_PCDEx_BCD_Callback
 444              	.L11:
 238:Drivers/STM32L0xx_HAL_Driver/Src/stm32l0xx_hal_pcd_ex.c **** #endif /* USE_HAL_PCD_REGISTER_CALLBACKS */
 239:Drivers/STM32L0xx_HAL_Driver/Src/stm32l0xx_hal_pcd_ex.c **** }
 445              		.loc 1 239 0
 446 0128 BD46     		mov	sp, r7
 447 012a 04B0     		add	sp, sp, #16
 448              		@ sp needed
 449 012c 80BD     		pop	{r7, pc}
 450              		.cfi_endproc
 451              	.LFE37:
ARM GAS  /tmp/ccLHulwf.s 			page 13


 453              		.section	.text.HAL_PCDEx_ActivateLPM,"ax",%progbits
 454              		.align	1
 455              		.global	HAL_PCDEx_ActivateLPM
 456              		.syntax unified
 457              		.code	16
 458              		.thumb_func
 459              		.fpu softvfp
 461              	HAL_PCDEx_ActivateLPM:
 462              	.LFB38:
 240:Drivers/STM32L0xx_HAL_Driver/Src/stm32l0xx_hal_pcd_ex.c **** 
 241:Drivers/STM32L0xx_HAL_Driver/Src/stm32l0xx_hal_pcd_ex.c **** 
 242:Drivers/STM32L0xx_HAL_Driver/Src/stm32l0xx_hal_pcd_ex.c **** /**
 243:Drivers/STM32L0xx_HAL_Driver/Src/stm32l0xx_hal_pcd_ex.c ****   * @brief  Activate LPM feature.
 244:Drivers/STM32L0xx_HAL_Driver/Src/stm32l0xx_hal_pcd_ex.c ****   * @param  hpcd PCD handle
 245:Drivers/STM32L0xx_HAL_Driver/Src/stm32l0xx_hal_pcd_ex.c ****   * @retval HAL status
 246:Drivers/STM32L0xx_HAL_Driver/Src/stm32l0xx_hal_pcd_ex.c ****   */
 247:Drivers/STM32L0xx_HAL_Driver/Src/stm32l0xx_hal_pcd_ex.c **** HAL_StatusTypeDef HAL_PCDEx_ActivateLPM(PCD_HandleTypeDef *hpcd)
 248:Drivers/STM32L0xx_HAL_Driver/Src/stm32l0xx_hal_pcd_ex.c **** {
 463              		.loc 1 248 0
 464              		.cfi_startproc
 465              		@ args = 0, pretend = 0, frame = 16
 466              		@ frame_needed = 1, uses_anonymous_args = 0
 467 0000 80B5     		push	{r7, lr}
 468              	.LCFI12:
 469              		.cfi_def_cfa_offset 8
 470              		.cfi_offset 7, -8
 471              		.cfi_offset 14, -4
 472 0002 84B0     		sub	sp, sp, #16
 473              	.LCFI13:
 474              		.cfi_def_cfa_offset 24
 475 0004 00AF     		add	r7, sp, #0
 476              	.LCFI14:
 477              		.cfi_def_cfa_register 7
 478 0006 7860     		str	r0, [r7, #4]
 249:Drivers/STM32L0xx_HAL_Driver/Src/stm32l0xx_hal_pcd_ex.c **** 
 250:Drivers/STM32L0xx_HAL_Driver/Src/stm32l0xx_hal_pcd_ex.c ****   USB_TypeDef *USBx = hpcd->Instance;
 479              		.loc 1 250 0
 480 0008 7B68     		ldr	r3, [r7, #4]
 481 000a 1B68     		ldr	r3, [r3]
 482 000c FB60     		str	r3, [r7, #12]
 251:Drivers/STM32L0xx_HAL_Driver/Src/stm32l0xx_hal_pcd_ex.c ****   hpcd->lpm_active = 1U;
 483              		.loc 1 251 0
 484 000e 7A68     		ldr	r2, [r7, #4]
 485 0010 9A23     		movs	r3, #154
 486 0012 9B00     		lsls	r3, r3, #2
 487 0014 0121     		movs	r1, #1
 488 0016 D150     		str	r1, [r2, r3]
 252:Drivers/STM32L0xx_HAL_Driver/Src/stm32l0xx_hal_pcd_ex.c ****   hpcd->LPM_State = LPM_L0;
 489              		.loc 1 252 0
 490 0018 7A68     		ldr	r2, [r7, #4]
 491 001a 9823     		movs	r3, #152
 492 001c 9B00     		lsls	r3, r3, #2
 493 001e 0021     		movs	r1, #0
 494 0020 D154     		strb	r1, [r2, r3]
 253:Drivers/STM32L0xx_HAL_Driver/Src/stm32l0xx_hal_pcd_ex.c **** 
 254:Drivers/STM32L0xx_HAL_Driver/Src/stm32l0xx_hal_pcd_ex.c ****   USBx->LPMCSR |= USB_LPMCSR_LMPEN;
 495              		.loc 1 254 0
ARM GAS  /tmp/ccLHulwf.s 			page 14


 496 0022 FB68     		ldr	r3, [r7, #12]
 497 0024 5422     		movs	r2, #84
 498 0026 9B5A     		ldrh	r3, [r3, r2]
 499 0028 9BB2     		uxth	r3, r3
 500 002a 0122     		movs	r2, #1
 501 002c 1343     		orrs	r3, r2
 502 002e 99B2     		uxth	r1, r3
 503 0030 FB68     		ldr	r3, [r7, #12]
 504 0032 5422     		movs	r2, #84
 505 0034 9952     		strh	r1, [r3, r2]
 255:Drivers/STM32L0xx_HAL_Driver/Src/stm32l0xx_hal_pcd_ex.c ****   USBx->LPMCSR |= USB_LPMCSR_LPMACK;
 506              		.loc 1 255 0
 507 0036 FB68     		ldr	r3, [r7, #12]
 508 0038 5422     		movs	r2, #84
 509 003a 9B5A     		ldrh	r3, [r3, r2]
 510 003c 9BB2     		uxth	r3, r3
 511 003e 0222     		movs	r2, #2
 512 0040 1343     		orrs	r3, r2
 513 0042 99B2     		uxth	r1, r3
 514 0044 FB68     		ldr	r3, [r7, #12]
 515 0046 5422     		movs	r2, #84
 516 0048 9952     		strh	r1, [r3, r2]
 256:Drivers/STM32L0xx_HAL_Driver/Src/stm32l0xx_hal_pcd_ex.c **** 
 257:Drivers/STM32L0xx_HAL_Driver/Src/stm32l0xx_hal_pcd_ex.c ****   return HAL_OK;
 517              		.loc 1 257 0
 518 004a 0023     		movs	r3, #0
 258:Drivers/STM32L0xx_HAL_Driver/Src/stm32l0xx_hal_pcd_ex.c **** }
 519              		.loc 1 258 0
 520 004c 1800     		movs	r0, r3
 521 004e BD46     		mov	sp, r7
 522 0050 04B0     		add	sp, sp, #16
 523              		@ sp needed
 524 0052 80BD     		pop	{r7, pc}
 525              		.cfi_endproc
 526              	.LFE38:
 528              		.section	.text.HAL_PCDEx_DeActivateLPM,"ax",%progbits
 529              		.align	1
 530              		.global	HAL_PCDEx_DeActivateLPM
 531              		.syntax unified
 532              		.code	16
 533              		.thumb_func
 534              		.fpu softvfp
 536              	HAL_PCDEx_DeActivateLPM:
 537              	.LFB39:
 259:Drivers/STM32L0xx_HAL_Driver/Src/stm32l0xx_hal_pcd_ex.c **** 
 260:Drivers/STM32L0xx_HAL_Driver/Src/stm32l0xx_hal_pcd_ex.c **** /**
 261:Drivers/STM32L0xx_HAL_Driver/Src/stm32l0xx_hal_pcd_ex.c ****   * @brief  Deactivate LPM feature.
 262:Drivers/STM32L0xx_HAL_Driver/Src/stm32l0xx_hal_pcd_ex.c ****   * @param  hpcd PCD handle
 263:Drivers/STM32L0xx_HAL_Driver/Src/stm32l0xx_hal_pcd_ex.c ****   * @retval HAL status
 264:Drivers/STM32L0xx_HAL_Driver/Src/stm32l0xx_hal_pcd_ex.c ****   */
 265:Drivers/STM32L0xx_HAL_Driver/Src/stm32l0xx_hal_pcd_ex.c **** HAL_StatusTypeDef HAL_PCDEx_DeActivateLPM(PCD_HandleTypeDef *hpcd)
 266:Drivers/STM32L0xx_HAL_Driver/Src/stm32l0xx_hal_pcd_ex.c **** {
 538              		.loc 1 266 0
 539              		.cfi_startproc
 540              		@ args = 0, pretend = 0, frame = 16
 541              		@ frame_needed = 1, uses_anonymous_args = 0
 542 0000 80B5     		push	{r7, lr}
ARM GAS  /tmp/ccLHulwf.s 			page 15


 543              	.LCFI15:
 544              		.cfi_def_cfa_offset 8
 545              		.cfi_offset 7, -8
 546              		.cfi_offset 14, -4
 547 0002 84B0     		sub	sp, sp, #16
 548              	.LCFI16:
 549              		.cfi_def_cfa_offset 24
 550 0004 00AF     		add	r7, sp, #0
 551              	.LCFI17:
 552              		.cfi_def_cfa_register 7
 553 0006 7860     		str	r0, [r7, #4]
 267:Drivers/STM32L0xx_HAL_Driver/Src/stm32l0xx_hal_pcd_ex.c ****   USB_TypeDef *USBx = hpcd->Instance;
 554              		.loc 1 267 0
 555 0008 7B68     		ldr	r3, [r7, #4]
 556 000a 1B68     		ldr	r3, [r3]
 557 000c FB60     		str	r3, [r7, #12]
 268:Drivers/STM32L0xx_HAL_Driver/Src/stm32l0xx_hal_pcd_ex.c **** 
 269:Drivers/STM32L0xx_HAL_Driver/Src/stm32l0xx_hal_pcd_ex.c ****   hpcd->lpm_active = 0U;
 558              		.loc 1 269 0
 559 000e 7A68     		ldr	r2, [r7, #4]
 560 0010 9A23     		movs	r3, #154
 561 0012 9B00     		lsls	r3, r3, #2
 562 0014 0021     		movs	r1, #0
 563 0016 D150     		str	r1, [r2, r3]
 270:Drivers/STM32L0xx_HAL_Driver/Src/stm32l0xx_hal_pcd_ex.c **** 
 271:Drivers/STM32L0xx_HAL_Driver/Src/stm32l0xx_hal_pcd_ex.c ****   USBx->LPMCSR &= ~(USB_LPMCSR_LMPEN);
 564              		.loc 1 271 0
 565 0018 FB68     		ldr	r3, [r7, #12]
 566 001a 5422     		movs	r2, #84
 567 001c 9B5A     		ldrh	r3, [r3, r2]
 568 001e 9BB2     		uxth	r3, r3
 569 0020 0122     		movs	r2, #1
 570 0022 9343     		bics	r3, r2
 571 0024 99B2     		uxth	r1, r3
 572 0026 FB68     		ldr	r3, [r7, #12]
 573 0028 5422     		movs	r2, #84
 574 002a 9952     		strh	r1, [r3, r2]
 272:Drivers/STM32L0xx_HAL_Driver/Src/stm32l0xx_hal_pcd_ex.c ****   USBx->LPMCSR &= ~(USB_LPMCSR_LPMACK);
 575              		.loc 1 272 0
 576 002c FB68     		ldr	r3, [r7, #12]
 577 002e 5422     		movs	r2, #84
 578 0030 9B5A     		ldrh	r3, [r3, r2]
 579 0032 9BB2     		uxth	r3, r3
 580 0034 0222     		movs	r2, #2
 581 0036 9343     		bics	r3, r2
 582 0038 99B2     		uxth	r1, r3
 583 003a FB68     		ldr	r3, [r7, #12]
 584 003c 5422     		movs	r2, #84
 585 003e 9952     		strh	r1, [r3, r2]
 273:Drivers/STM32L0xx_HAL_Driver/Src/stm32l0xx_hal_pcd_ex.c **** 
 274:Drivers/STM32L0xx_HAL_Driver/Src/stm32l0xx_hal_pcd_ex.c ****   return HAL_OK;
 586              		.loc 1 274 0
 587 0040 0023     		movs	r3, #0
 275:Drivers/STM32L0xx_HAL_Driver/Src/stm32l0xx_hal_pcd_ex.c **** }
 588              		.loc 1 275 0
 589 0042 1800     		movs	r0, r3
 590 0044 BD46     		mov	sp, r7
ARM GAS  /tmp/ccLHulwf.s 			page 16


 591 0046 04B0     		add	sp, sp, #16
 592              		@ sp needed
 593 0048 80BD     		pop	{r7, pc}
 594              		.cfi_endproc
 595              	.LFE39:
 597              		.section	.text.HAL_PCDEx_LPM_Callback,"ax",%progbits
 598              		.align	1
 599              		.weak	HAL_PCDEx_LPM_Callback
 600              		.syntax unified
 601              		.code	16
 602              		.thumb_func
 603              		.fpu softvfp
 605              	HAL_PCDEx_LPM_Callback:
 606              	.LFB40:
 276:Drivers/STM32L0xx_HAL_Driver/Src/stm32l0xx_hal_pcd_ex.c **** 
 277:Drivers/STM32L0xx_HAL_Driver/Src/stm32l0xx_hal_pcd_ex.c **** 
 278:Drivers/STM32L0xx_HAL_Driver/Src/stm32l0xx_hal_pcd_ex.c **** 
 279:Drivers/STM32L0xx_HAL_Driver/Src/stm32l0xx_hal_pcd_ex.c **** /**
 280:Drivers/STM32L0xx_HAL_Driver/Src/stm32l0xx_hal_pcd_ex.c ****   * @brief  Send LPM message to user layer callback.
 281:Drivers/STM32L0xx_HAL_Driver/Src/stm32l0xx_hal_pcd_ex.c ****   * @param  hpcd PCD handle
 282:Drivers/STM32L0xx_HAL_Driver/Src/stm32l0xx_hal_pcd_ex.c ****   * @param  msg LPM message
 283:Drivers/STM32L0xx_HAL_Driver/Src/stm32l0xx_hal_pcd_ex.c ****   * @retval HAL status
 284:Drivers/STM32L0xx_HAL_Driver/Src/stm32l0xx_hal_pcd_ex.c ****   */
 285:Drivers/STM32L0xx_HAL_Driver/Src/stm32l0xx_hal_pcd_ex.c **** __weak void HAL_PCDEx_LPM_Callback(PCD_HandleTypeDef *hpcd, PCD_LPM_MsgTypeDef msg)
 286:Drivers/STM32L0xx_HAL_Driver/Src/stm32l0xx_hal_pcd_ex.c **** {
 607              		.loc 1 286 0
 608              		.cfi_startproc
 609              		@ args = 0, pretend = 0, frame = 8
 610              		@ frame_needed = 1, uses_anonymous_args = 0
 611 0000 80B5     		push	{r7, lr}
 612              	.LCFI18:
 613              		.cfi_def_cfa_offset 8
 614              		.cfi_offset 7, -8
 615              		.cfi_offset 14, -4
 616 0002 82B0     		sub	sp, sp, #8
 617              	.LCFI19:
 618              		.cfi_def_cfa_offset 16
 619 0004 00AF     		add	r7, sp, #0
 620              	.LCFI20:
 621              		.cfi_def_cfa_register 7
 622 0006 7860     		str	r0, [r7, #4]
 623 0008 0A00     		movs	r2, r1
 624 000a FB1C     		adds	r3, r7, #3
 625 000c 1A70     		strb	r2, [r3]
 287:Drivers/STM32L0xx_HAL_Driver/Src/stm32l0xx_hal_pcd_ex.c ****   /* Prevent unused argument(s) compilation warning */
 288:Drivers/STM32L0xx_HAL_Driver/Src/stm32l0xx_hal_pcd_ex.c ****   UNUSED(hpcd);
 289:Drivers/STM32L0xx_HAL_Driver/Src/stm32l0xx_hal_pcd_ex.c ****   UNUSED(msg);
 290:Drivers/STM32L0xx_HAL_Driver/Src/stm32l0xx_hal_pcd_ex.c **** 
 291:Drivers/STM32L0xx_HAL_Driver/Src/stm32l0xx_hal_pcd_ex.c ****   /* NOTE : This function should not be modified, when the callback is needed,
 292:Drivers/STM32L0xx_HAL_Driver/Src/stm32l0xx_hal_pcd_ex.c ****             the HAL_PCDEx_LPM_Callback could be implemented in the user file
 293:Drivers/STM32L0xx_HAL_Driver/Src/stm32l0xx_hal_pcd_ex.c ****    */
 294:Drivers/STM32L0xx_HAL_Driver/Src/stm32l0xx_hal_pcd_ex.c **** }
 626              		.loc 1 294 0
 627 000e C046     		nop
 628 0010 BD46     		mov	sp, r7
 629 0012 02B0     		add	sp, sp, #8
 630              		@ sp needed
ARM GAS  /tmp/ccLHulwf.s 			page 17


 631 0014 80BD     		pop	{r7, pc}
 632              		.cfi_endproc
 633              	.LFE40:
 635              		.section	.text.HAL_PCDEx_BCD_Callback,"ax",%progbits
 636              		.align	1
 637              		.weak	HAL_PCDEx_BCD_Callback
 638              		.syntax unified
 639              		.code	16
 640              		.thumb_func
 641              		.fpu softvfp
 643              	HAL_PCDEx_BCD_Callback:
 644              	.LFB41:
 295:Drivers/STM32L0xx_HAL_Driver/Src/stm32l0xx_hal_pcd_ex.c **** 
 296:Drivers/STM32L0xx_HAL_Driver/Src/stm32l0xx_hal_pcd_ex.c **** /**
 297:Drivers/STM32L0xx_HAL_Driver/Src/stm32l0xx_hal_pcd_ex.c ****   * @brief  Send BatteryCharging message to user layer callback.
 298:Drivers/STM32L0xx_HAL_Driver/Src/stm32l0xx_hal_pcd_ex.c ****   * @param  hpcd PCD handle
 299:Drivers/STM32L0xx_HAL_Driver/Src/stm32l0xx_hal_pcd_ex.c ****   * @param  msg LPM message
 300:Drivers/STM32L0xx_HAL_Driver/Src/stm32l0xx_hal_pcd_ex.c ****   * @retval HAL status
 301:Drivers/STM32L0xx_HAL_Driver/Src/stm32l0xx_hal_pcd_ex.c ****   */
 302:Drivers/STM32L0xx_HAL_Driver/Src/stm32l0xx_hal_pcd_ex.c **** __weak void HAL_PCDEx_BCD_Callback(PCD_HandleTypeDef *hpcd, PCD_BCD_MsgTypeDef msg)
 303:Drivers/STM32L0xx_HAL_Driver/Src/stm32l0xx_hal_pcd_ex.c **** {
 645              		.loc 1 303 0
 646              		.cfi_startproc
 647              		@ args = 0, pretend = 0, frame = 8
 648              		@ frame_needed = 1, uses_anonymous_args = 0
 649 0000 80B5     		push	{r7, lr}
 650              	.LCFI21:
 651              		.cfi_def_cfa_offset 8
 652              		.cfi_offset 7, -8
 653              		.cfi_offset 14, -4
 654 0002 82B0     		sub	sp, sp, #8
 655              	.LCFI22:
 656              		.cfi_def_cfa_offset 16
 657 0004 00AF     		add	r7, sp, #0
 658              	.LCFI23:
 659              		.cfi_def_cfa_register 7
 660 0006 7860     		str	r0, [r7, #4]
 661 0008 0A00     		movs	r2, r1
 662 000a FB1C     		adds	r3, r7, #3
 663 000c 1A70     		strb	r2, [r3]
 304:Drivers/STM32L0xx_HAL_Driver/Src/stm32l0xx_hal_pcd_ex.c ****   /* Prevent unused argument(s) compilation warning */
 305:Drivers/STM32L0xx_HAL_Driver/Src/stm32l0xx_hal_pcd_ex.c ****   UNUSED(hpcd);
 306:Drivers/STM32L0xx_HAL_Driver/Src/stm32l0xx_hal_pcd_ex.c ****   UNUSED(msg);
 307:Drivers/STM32L0xx_HAL_Driver/Src/stm32l0xx_hal_pcd_ex.c **** 
 308:Drivers/STM32L0xx_HAL_Driver/Src/stm32l0xx_hal_pcd_ex.c ****   /* NOTE : This function should not be modified, when the callback is needed,
 309:Drivers/STM32L0xx_HAL_Driver/Src/stm32l0xx_hal_pcd_ex.c ****             the HAL_PCDEx_BCD_Callback could be implemented in the user file
 310:Drivers/STM32L0xx_HAL_Driver/Src/stm32l0xx_hal_pcd_ex.c ****    */
 311:Drivers/STM32L0xx_HAL_Driver/Src/stm32l0xx_hal_pcd_ex.c **** }
 664              		.loc 1 311 0
 665 000e C046     		nop
 666 0010 BD46     		mov	sp, r7
 667 0012 02B0     		add	sp, sp, #8
 668              		@ sp needed
 669 0014 80BD     		pop	{r7, pc}
 670              		.cfi_endproc
 671              	.LFE41:
 673              		.text
ARM GAS  /tmp/ccLHulwf.s 			page 18


 674              	.Letext0:
 675              		.file 2 "/usr/include/newlib/machine/_default_types.h"
 676              		.file 3 "/usr/include/newlib/sys/_stdint.h"
 677              		.file 4 "Drivers/CMSIS/Device/ST/STM32L0xx/Include/system_stm32l0xx.h"
 678              		.file 5 "Drivers/CMSIS/Device/ST/STM32L0xx/Include/stm32l052xx.h"
 679              		.file 6 "Drivers/STM32L0xx_HAL_Driver/Inc/stm32l0xx_hal_def.h"
 680              		.file 7 "Drivers/STM32L0xx_HAL_Driver/Inc/stm32l0xx_ll_usb.h"
 681              		.file 8 "Drivers/STM32L0xx_HAL_Driver/Inc/stm32l0xx_hal_pcd.h"
 682              		.file 9 "Drivers/STM32L0xx_HAL_Driver/Inc/stm32l0xx_hal.h"
ARM GAS  /tmp/ccLHulwf.s 			page 19


DEFINED SYMBOLS
                            *ABS*:0000000000000000 stm32l0xx_hal_pcd_ex.c
     /tmp/ccLHulwf.s:16     .text.HAL_PCDEx_PMAConfig:0000000000000000 $t
     /tmp/ccLHulwf.s:23     .text.HAL_PCDEx_PMAConfig:0000000000000000 HAL_PCDEx_PMAConfig
     /tmp/ccLHulwf.s:131    .text.HAL_PCDEx_ActivateBCD:0000000000000000 $t
     /tmp/ccLHulwf.s:138    .text.HAL_PCDEx_ActivateBCD:0000000000000000 HAL_PCDEx_ActivateBCD
     /tmp/ccLHulwf.s:200    .text.HAL_PCDEx_DeActivateBCD:0000000000000000 $t
     /tmp/ccLHulwf.s:207    .text.HAL_PCDEx_DeActivateBCD:0000000000000000 HAL_PCDEx_DeActivateBCD
     /tmp/ccLHulwf.s:258    .text.HAL_PCDEx_BCD_VBUSDetect:0000000000000000 $t
     /tmp/ccLHulwf.s:265    .text.HAL_PCDEx_BCD_VBUSDetect:0000000000000000 HAL_PCDEx_BCD_VBUSDetect
     /tmp/ccLHulwf.s:643    .text.HAL_PCDEx_BCD_Callback:0000000000000000 HAL_PCDEx_BCD_Callback
     /tmp/ccLHulwf.s:454    .text.HAL_PCDEx_ActivateLPM:0000000000000000 $t
     /tmp/ccLHulwf.s:461    .text.HAL_PCDEx_ActivateLPM:0000000000000000 HAL_PCDEx_ActivateLPM
     /tmp/ccLHulwf.s:529    .text.HAL_PCDEx_DeActivateLPM:0000000000000000 $t
     /tmp/ccLHulwf.s:536    .text.HAL_PCDEx_DeActivateLPM:0000000000000000 HAL_PCDEx_DeActivateLPM
     /tmp/ccLHulwf.s:598    .text.HAL_PCDEx_LPM_Callback:0000000000000000 $t
     /tmp/ccLHulwf.s:605    .text.HAL_PCDEx_LPM_Callback:0000000000000000 HAL_PCDEx_LPM_Callback
     /tmp/ccLHulwf.s:636    .text.HAL_PCDEx_BCD_Callback:0000000000000000 $t
                     .debug_frame:0000000000000010 $d

UNDEFINED SYMBOLS
HAL_GetTick
HAL_Delay
