ARM GAS  /tmp/cc0nDUWo.s 			page 1


   1              		.cpu cortex-m0plus
   2              		.eabi_attribute 20, 1
   3              		.eabi_attribute 21, 1
   4              		.eabi_attribute 23, 3
   5              		.eabi_attribute 24, 1
   6              		.eabi_attribute 25, 1
   7              		.eabi_attribute 26, 1
   8              		.eabi_attribute 30, 6
   9              		.eabi_attribute 34, 0
  10              		.eabi_attribute 18, 4
  11              		.file	"stm32l0xx_hal_dma.c"
  12              		.text
  13              	.Ltext0:
  14              		.cfi_sections	.debug_frame
  15              		.global	__aeabi_uidiv
  16              		.section	.text.HAL_DMA_Init,"ax",%progbits
  17              		.align	1
  18              		.global	HAL_DMA_Init
  19              		.syntax unified
  20              		.code	16
  21              		.thumb_func
  22              		.fpu softvfp
  24              	HAL_DMA_Init:
  25              	.LFB34:
  26              		.file 1 "Drivers/STM32L0xx_HAL_Driver/Src/stm32l0xx_hal_dma.c"
   1:Drivers/STM32L0xx_HAL_Driver/Src/stm32l0xx_hal_dma.c **** /**
   2:Drivers/STM32L0xx_HAL_Driver/Src/stm32l0xx_hal_dma.c ****   ******************************************************************************
   3:Drivers/STM32L0xx_HAL_Driver/Src/stm32l0xx_hal_dma.c ****   * @file    stm32l0xx_hal_dma.c
   4:Drivers/STM32L0xx_HAL_Driver/Src/stm32l0xx_hal_dma.c ****   * @author  MCD Application Team
   5:Drivers/STM32L0xx_HAL_Driver/Src/stm32l0xx_hal_dma.c ****   * @brief   DMA HAL module driver.
   6:Drivers/STM32L0xx_HAL_Driver/Src/stm32l0xx_hal_dma.c ****   *         This file provides firmware functions to manage the following
   7:Drivers/STM32L0xx_HAL_Driver/Src/stm32l0xx_hal_dma.c ****   *         functionalities of the Direct Memory Access (DMA) peripheral:
   8:Drivers/STM32L0xx_HAL_Driver/Src/stm32l0xx_hal_dma.c ****   *           + Initialization and de-initialization functions
   9:Drivers/STM32L0xx_HAL_Driver/Src/stm32l0xx_hal_dma.c ****   *           + IO operation functions
  10:Drivers/STM32L0xx_HAL_Driver/Src/stm32l0xx_hal_dma.c ****   *           + Peripheral State and errors functions
  11:Drivers/STM32L0xx_HAL_Driver/Src/stm32l0xx_hal_dma.c ****   @verbatim
  12:Drivers/STM32L0xx_HAL_Driver/Src/stm32l0xx_hal_dma.c ****   ==============================================================================
  13:Drivers/STM32L0xx_HAL_Driver/Src/stm32l0xx_hal_dma.c ****                         ##### How to use this driver #####
  14:Drivers/STM32L0xx_HAL_Driver/Src/stm32l0xx_hal_dma.c ****   ==============================================================================
  15:Drivers/STM32L0xx_HAL_Driver/Src/stm32l0xx_hal_dma.c ****   [..]
  16:Drivers/STM32L0xx_HAL_Driver/Src/stm32l0xx_hal_dma.c ****    (#) Enable and configure the peripheral to be connected to the DMA Channel
  17:Drivers/STM32L0xx_HAL_Driver/Src/stm32l0xx_hal_dma.c ****        (except for internal SRAM / FLASH memories: no initialization is
  18:Drivers/STM32L0xx_HAL_Driver/Src/stm32l0xx_hal_dma.c ****        necessary).
  19:Drivers/STM32L0xx_HAL_Driver/Src/stm32l0xx_hal_dma.c **** 
  20:Drivers/STM32L0xx_HAL_Driver/Src/stm32l0xx_hal_dma.c ****    (#) For a given Channel, program the required configuration through the following parameters:
  21:Drivers/STM32L0xx_HAL_Driver/Src/stm32l0xx_hal_dma.c ****        Channel request, Transfer Direction, Source and Destination data formats,
  22:Drivers/STM32L0xx_HAL_Driver/Src/stm32l0xx_hal_dma.c ****        Circular or Normal mode, Channel Priority level, Source and Destination Increment mode
  23:Drivers/STM32L0xx_HAL_Driver/Src/stm32l0xx_hal_dma.c ****        using HAL_DMA_Init() function.
  24:Drivers/STM32L0xx_HAL_Driver/Src/stm32l0xx_hal_dma.c **** 
  25:Drivers/STM32L0xx_HAL_Driver/Src/stm32l0xx_hal_dma.c ****    (#) Use HAL_DMA_GetState() function to return the DMA state and HAL_DMA_GetError() in case of er
  26:Drivers/STM32L0xx_HAL_Driver/Src/stm32l0xx_hal_dma.c ****        detection.
  27:Drivers/STM32L0xx_HAL_Driver/Src/stm32l0xx_hal_dma.c **** 
  28:Drivers/STM32L0xx_HAL_Driver/Src/stm32l0xx_hal_dma.c ****    (#) Use HAL_DMA_Abort() function to abort the current transfer
  29:Drivers/STM32L0xx_HAL_Driver/Src/stm32l0xx_hal_dma.c **** 
  30:Drivers/STM32L0xx_HAL_Driver/Src/stm32l0xx_hal_dma.c ****      -@-   In Memory-to-Memory transfer mode, Circular mode is not allowed.
  31:Drivers/STM32L0xx_HAL_Driver/Src/stm32l0xx_hal_dma.c **** 
  32:Drivers/STM32L0xx_HAL_Driver/Src/stm32l0xx_hal_dma.c ****      *** Polling mode IO operation ***
ARM GAS  /tmp/cc0nDUWo.s 			page 2


  33:Drivers/STM32L0xx_HAL_Driver/Src/stm32l0xx_hal_dma.c ****      =================================
  34:Drivers/STM32L0xx_HAL_Driver/Src/stm32l0xx_hal_dma.c ****     [..]
  35:Drivers/STM32L0xx_HAL_Driver/Src/stm32l0xx_hal_dma.c ****           (+) Use HAL_DMA_Start() to start DMA transfer after the configuration of Source
  36:Drivers/STM32L0xx_HAL_Driver/Src/stm32l0xx_hal_dma.c ****               address and destination address and the Length of data to be transferred
  37:Drivers/STM32L0xx_HAL_Driver/Src/stm32l0xx_hal_dma.c ****           (+) Use HAL_DMA_PollForTransfer() to poll for the end of current transfer, in this
  38:Drivers/STM32L0xx_HAL_Driver/Src/stm32l0xx_hal_dma.c ****               case a fixed Timeout can be configured by User depending from his application.
  39:Drivers/STM32L0xx_HAL_Driver/Src/stm32l0xx_hal_dma.c **** 
  40:Drivers/STM32L0xx_HAL_Driver/Src/stm32l0xx_hal_dma.c ****      *** Interrupt mode IO operation ***
  41:Drivers/STM32L0xx_HAL_Driver/Src/stm32l0xx_hal_dma.c ****      ===================================
  42:Drivers/STM32L0xx_HAL_Driver/Src/stm32l0xx_hal_dma.c ****     [..]
  43:Drivers/STM32L0xx_HAL_Driver/Src/stm32l0xx_hal_dma.c ****           (+) Configure the DMA interrupt priority using HAL_NVIC_SetPriority()
  44:Drivers/STM32L0xx_HAL_Driver/Src/stm32l0xx_hal_dma.c ****           (+) Enable the DMA IRQ handler using HAL_NVIC_EnableIRQ()
  45:Drivers/STM32L0xx_HAL_Driver/Src/stm32l0xx_hal_dma.c ****           (+) Use HAL_DMA_Start_IT() to start DMA transfer after the configuration of
  46:Drivers/STM32L0xx_HAL_Driver/Src/stm32l0xx_hal_dma.c ****               Source address and destination address and the Length of data to be transferred.
  47:Drivers/STM32L0xx_HAL_Driver/Src/stm32l0xx_hal_dma.c ****               In this case the DMA interrupt is configured
  48:Drivers/STM32L0xx_HAL_Driver/Src/stm32l0xx_hal_dma.c ****           (+) Use HAL_DMA_IRQHandler() called under DMA_IRQHandler() Interrupt subroutine
  49:Drivers/STM32L0xx_HAL_Driver/Src/stm32l0xx_hal_dma.c ****           (+) At the end of data transfer HAL_DMA_IRQHandler() function is executed and user can
  50:Drivers/STM32L0xx_HAL_Driver/Src/stm32l0xx_hal_dma.c ****               add his own function to register callbacks with HAL_DMA_RegisterCallback().
  51:Drivers/STM32L0xx_HAL_Driver/Src/stm32l0xx_hal_dma.c **** 
  52:Drivers/STM32L0xx_HAL_Driver/Src/stm32l0xx_hal_dma.c ****      *** DMA HAL driver macros list ***
  53:Drivers/STM32L0xx_HAL_Driver/Src/stm32l0xx_hal_dma.c ****      =============================================
  54:Drivers/STM32L0xx_HAL_Driver/Src/stm32l0xx_hal_dma.c ****       [..]
  55:Drivers/STM32L0xx_HAL_Driver/Src/stm32l0xx_hal_dma.c ****        Below the list of macros in DMA HAL driver.
  56:Drivers/STM32L0xx_HAL_Driver/Src/stm32l0xx_hal_dma.c **** 
  57:Drivers/STM32L0xx_HAL_Driver/Src/stm32l0xx_hal_dma.c ****        (+) __HAL_DMA_ENABLE: Enable the specified DMA Channel.
  58:Drivers/STM32L0xx_HAL_Driver/Src/stm32l0xx_hal_dma.c ****        (+) __HAL_DMA_DISABLE: Disable the specified DMA Channel.
  59:Drivers/STM32L0xx_HAL_Driver/Src/stm32l0xx_hal_dma.c ****        (+) __HAL_DMA_GET_FLAG: Get the DMA Channel pending flags.
  60:Drivers/STM32L0xx_HAL_Driver/Src/stm32l0xx_hal_dma.c ****        (+) __HAL_DMA_CLEAR_FLAG: Clear the DMA Channel pending flags.
  61:Drivers/STM32L0xx_HAL_Driver/Src/stm32l0xx_hal_dma.c ****        (+) __HAL_DMA_ENABLE_IT: Enable the specified DMA Channel interrupts.
  62:Drivers/STM32L0xx_HAL_Driver/Src/stm32l0xx_hal_dma.c ****        (+) __HAL_DMA_DISABLE_IT: Disable the specified DMA Channel interrupts.
  63:Drivers/STM32L0xx_HAL_Driver/Src/stm32l0xx_hal_dma.c ****        (+) __HAL_DMA_GET_IT_SOURCE: Check whether the specified DMA Channel interrupt has occurred 
  64:Drivers/STM32L0xx_HAL_Driver/Src/stm32l0xx_hal_dma.c **** 
  65:Drivers/STM32L0xx_HAL_Driver/Src/stm32l0xx_hal_dma.c ****      [..]
  66:Drivers/STM32L0xx_HAL_Driver/Src/stm32l0xx_hal_dma.c ****       (@) You can refer to the DMA HAL driver header file for more useful macros
  67:Drivers/STM32L0xx_HAL_Driver/Src/stm32l0xx_hal_dma.c **** 
  68:Drivers/STM32L0xx_HAL_Driver/Src/stm32l0xx_hal_dma.c ****   @endverbatim
  69:Drivers/STM32L0xx_HAL_Driver/Src/stm32l0xx_hal_dma.c ****   ******************************************************************************
  70:Drivers/STM32L0xx_HAL_Driver/Src/stm32l0xx_hal_dma.c ****   * @attention
  71:Drivers/STM32L0xx_HAL_Driver/Src/stm32l0xx_hal_dma.c ****   *
  72:Drivers/STM32L0xx_HAL_Driver/Src/stm32l0xx_hal_dma.c ****   * <h2><center>&copy; COPYRIGHT(c) 2016 STMicroelectronics.
  73:Drivers/STM32L0xx_HAL_Driver/Src/stm32l0xx_hal_dma.c ****   * All rights reserved.</center></h2>
  74:Drivers/STM32L0xx_HAL_Driver/Src/stm32l0xx_hal_dma.c ****   *
  75:Drivers/STM32L0xx_HAL_Driver/Src/stm32l0xx_hal_dma.c ****   * This software component is licensed by ST under BSD 3-Clause license,
  76:Drivers/STM32L0xx_HAL_Driver/Src/stm32l0xx_hal_dma.c ****   * the "License"; You may not use this file except in compliance with the
  77:Drivers/STM32L0xx_HAL_Driver/Src/stm32l0xx_hal_dma.c ****   * License. You may obtain a copy of the License at:
  78:Drivers/STM32L0xx_HAL_Driver/Src/stm32l0xx_hal_dma.c ****   *                        opensource.org/licenses/BSD-3-Clause
  79:Drivers/STM32L0xx_HAL_Driver/Src/stm32l0xx_hal_dma.c ****   *
  80:Drivers/STM32L0xx_HAL_Driver/Src/stm32l0xx_hal_dma.c ****   ******************************************************************************
  81:Drivers/STM32L0xx_HAL_Driver/Src/stm32l0xx_hal_dma.c ****   */
  82:Drivers/STM32L0xx_HAL_Driver/Src/stm32l0xx_hal_dma.c **** 
  83:Drivers/STM32L0xx_HAL_Driver/Src/stm32l0xx_hal_dma.c **** /* Includes ------------------------------------------------------------------*/
  84:Drivers/STM32L0xx_HAL_Driver/Src/stm32l0xx_hal_dma.c **** #include "stm32l0xx_hal.h"
  85:Drivers/STM32L0xx_HAL_Driver/Src/stm32l0xx_hal_dma.c **** 
  86:Drivers/STM32L0xx_HAL_Driver/Src/stm32l0xx_hal_dma.c **** /** @addtogroup STM32L0xx_HAL_Driver
  87:Drivers/STM32L0xx_HAL_Driver/Src/stm32l0xx_hal_dma.c ****   * @{
  88:Drivers/STM32L0xx_HAL_Driver/Src/stm32l0xx_hal_dma.c ****   */
  89:Drivers/STM32L0xx_HAL_Driver/Src/stm32l0xx_hal_dma.c **** 
ARM GAS  /tmp/cc0nDUWo.s 			page 3


  90:Drivers/STM32L0xx_HAL_Driver/Src/stm32l0xx_hal_dma.c **** /** @defgroup DMA DMA
  91:Drivers/STM32L0xx_HAL_Driver/Src/stm32l0xx_hal_dma.c ****   * @brief DMA HAL module driver
  92:Drivers/STM32L0xx_HAL_Driver/Src/stm32l0xx_hal_dma.c ****   * @{
  93:Drivers/STM32L0xx_HAL_Driver/Src/stm32l0xx_hal_dma.c ****   */
  94:Drivers/STM32L0xx_HAL_Driver/Src/stm32l0xx_hal_dma.c **** 
  95:Drivers/STM32L0xx_HAL_Driver/Src/stm32l0xx_hal_dma.c **** #ifdef HAL_DMA_MODULE_ENABLED
  96:Drivers/STM32L0xx_HAL_Driver/Src/stm32l0xx_hal_dma.c **** 
  97:Drivers/STM32L0xx_HAL_Driver/Src/stm32l0xx_hal_dma.c **** /* Private typedef -----------------------------------------------------------*/
  98:Drivers/STM32L0xx_HAL_Driver/Src/stm32l0xx_hal_dma.c **** /** @defgroup DMA_Private_Functions DMA Private Functions
  99:Drivers/STM32L0xx_HAL_Driver/Src/stm32l0xx_hal_dma.c ****   * @{
 100:Drivers/STM32L0xx_HAL_Driver/Src/stm32l0xx_hal_dma.c ****   */
 101:Drivers/STM32L0xx_HAL_Driver/Src/stm32l0xx_hal_dma.c **** 
 102:Drivers/STM32L0xx_HAL_Driver/Src/stm32l0xx_hal_dma.c **** static void DMA_SetConfig(DMA_HandleTypeDef *hdma, uint32_t SrcAddress, uint32_t DstAddress, uint32
 103:Drivers/STM32L0xx_HAL_Driver/Src/stm32l0xx_hal_dma.c **** /**
 104:Drivers/STM32L0xx_HAL_Driver/Src/stm32l0xx_hal_dma.c ****   * @}
 105:Drivers/STM32L0xx_HAL_Driver/Src/stm32l0xx_hal_dma.c ****   */
 106:Drivers/STM32L0xx_HAL_Driver/Src/stm32l0xx_hal_dma.c **** 
 107:Drivers/STM32L0xx_HAL_Driver/Src/stm32l0xx_hal_dma.c **** /* Exported functions ---------------------------------------------------------*/
 108:Drivers/STM32L0xx_HAL_Driver/Src/stm32l0xx_hal_dma.c **** 
 109:Drivers/STM32L0xx_HAL_Driver/Src/stm32l0xx_hal_dma.c **** /** @defgroup DMA_Exported_Functions DMA Exported Functions
 110:Drivers/STM32L0xx_HAL_Driver/Src/stm32l0xx_hal_dma.c ****   * @{
 111:Drivers/STM32L0xx_HAL_Driver/Src/stm32l0xx_hal_dma.c ****   */
 112:Drivers/STM32L0xx_HAL_Driver/Src/stm32l0xx_hal_dma.c **** 
 113:Drivers/STM32L0xx_HAL_Driver/Src/stm32l0xx_hal_dma.c **** /** @defgroup DMA_Exported_Functions_Group1 Initialization and de-initialization functions
 114:Drivers/STM32L0xx_HAL_Driver/Src/stm32l0xx_hal_dma.c ****  *  @brief   Initialization and de-initialization functions
 115:Drivers/STM32L0xx_HAL_Driver/Src/stm32l0xx_hal_dma.c ****  *
 116:Drivers/STM32L0xx_HAL_Driver/Src/stm32l0xx_hal_dma.c **** @verbatim
 117:Drivers/STM32L0xx_HAL_Driver/Src/stm32l0xx_hal_dma.c ****  ===============================================================================
 118:Drivers/STM32L0xx_HAL_Driver/Src/stm32l0xx_hal_dma.c ****              ##### Initialization and de-initialization functions  #####
 119:Drivers/STM32L0xx_HAL_Driver/Src/stm32l0xx_hal_dma.c ****  ===============================================================================
 120:Drivers/STM32L0xx_HAL_Driver/Src/stm32l0xx_hal_dma.c ****     [..]
 121:Drivers/STM32L0xx_HAL_Driver/Src/stm32l0xx_hal_dma.c ****     This section provides functions allowing to initialize the DMA Channel source
 122:Drivers/STM32L0xx_HAL_Driver/Src/stm32l0xx_hal_dma.c ****     and destination addresses, incrementation and data sizes, transfer direction,
 123:Drivers/STM32L0xx_HAL_Driver/Src/stm32l0xx_hal_dma.c ****     circular/normal mode selection, memory-to-memory mode selection and Channel priority value.
 124:Drivers/STM32L0xx_HAL_Driver/Src/stm32l0xx_hal_dma.c ****     [..]
 125:Drivers/STM32L0xx_HAL_Driver/Src/stm32l0xx_hal_dma.c ****     The HAL_DMA_Init() function follows the DMA configuration procedures as described in
 126:Drivers/STM32L0xx_HAL_Driver/Src/stm32l0xx_hal_dma.c ****     reference manual.
 127:Drivers/STM32L0xx_HAL_Driver/Src/stm32l0xx_hal_dma.c **** 
 128:Drivers/STM32L0xx_HAL_Driver/Src/stm32l0xx_hal_dma.c **** @endverbatim
 129:Drivers/STM32L0xx_HAL_Driver/Src/stm32l0xx_hal_dma.c ****   * @{
 130:Drivers/STM32L0xx_HAL_Driver/Src/stm32l0xx_hal_dma.c ****   */
 131:Drivers/STM32L0xx_HAL_Driver/Src/stm32l0xx_hal_dma.c **** 
 132:Drivers/STM32L0xx_HAL_Driver/Src/stm32l0xx_hal_dma.c **** /**
 133:Drivers/STM32L0xx_HAL_Driver/Src/stm32l0xx_hal_dma.c ****   * @brief  Initialize the DMA according to the specified
 134:Drivers/STM32L0xx_HAL_Driver/Src/stm32l0xx_hal_dma.c ****   *         parameters in the DMA_InitTypeDef and initialize the associated handle.
 135:Drivers/STM32L0xx_HAL_Driver/Src/stm32l0xx_hal_dma.c ****   * @param  hdma Pointer to a DMA_HandleTypeDef structure that contains
 136:Drivers/STM32L0xx_HAL_Driver/Src/stm32l0xx_hal_dma.c ****   *               the configuration information for the specified DMA Channel.
 137:Drivers/STM32L0xx_HAL_Driver/Src/stm32l0xx_hal_dma.c ****   * @retval HAL status
 138:Drivers/STM32L0xx_HAL_Driver/Src/stm32l0xx_hal_dma.c ****   */
 139:Drivers/STM32L0xx_HAL_Driver/Src/stm32l0xx_hal_dma.c **** HAL_StatusTypeDef HAL_DMA_Init(DMA_HandleTypeDef *hdma)
 140:Drivers/STM32L0xx_HAL_Driver/Src/stm32l0xx_hal_dma.c **** {
  27              		.loc 1 140 0
  28              		.cfi_startproc
  29              		@ args = 0, pretend = 0, frame = 16
  30              		@ frame_needed = 1, uses_anonymous_args = 0
  31 0000 90B5     		push	{r4, r7, lr}
  32              	.LCFI0:
ARM GAS  /tmp/cc0nDUWo.s 			page 4


  33              		.cfi_def_cfa_offset 12
  34              		.cfi_offset 4, -12
  35              		.cfi_offset 7, -8
  36              		.cfi_offset 14, -4
  37 0002 85B0     		sub	sp, sp, #20
  38              	.LCFI1:
  39              		.cfi_def_cfa_offset 32
  40 0004 00AF     		add	r7, sp, #0
  41              	.LCFI2:
  42              		.cfi_def_cfa_register 7
  43 0006 7860     		str	r0, [r7, #4]
 141:Drivers/STM32L0xx_HAL_Driver/Src/stm32l0xx_hal_dma.c ****   uint32_t tmp;
 142:Drivers/STM32L0xx_HAL_Driver/Src/stm32l0xx_hal_dma.c **** 
 143:Drivers/STM32L0xx_HAL_Driver/Src/stm32l0xx_hal_dma.c ****   /* Check the DMA handle allocation */
 144:Drivers/STM32L0xx_HAL_Driver/Src/stm32l0xx_hal_dma.c ****   if(hdma == NULL)
  44              		.loc 1 144 0
  45 0008 7B68     		ldr	r3, [r7, #4]
  46 000a 002B     		cmp	r3, #0
  47 000c 01D1     		bne	.L2
 145:Drivers/STM32L0xx_HAL_Driver/Src/stm32l0xx_hal_dma.c ****   {
 146:Drivers/STM32L0xx_HAL_Driver/Src/stm32l0xx_hal_dma.c ****     return HAL_ERROR;
  48              		.loc 1 146 0
  49 000e 0123     		movs	r3, #1
  50 0010 62E0     		b	.L3
  51              	.L2:
 147:Drivers/STM32L0xx_HAL_Driver/Src/stm32l0xx_hal_dma.c ****   }
 148:Drivers/STM32L0xx_HAL_Driver/Src/stm32l0xx_hal_dma.c **** 
 149:Drivers/STM32L0xx_HAL_Driver/Src/stm32l0xx_hal_dma.c ****   /* Check the parameters */
 150:Drivers/STM32L0xx_HAL_Driver/Src/stm32l0xx_hal_dma.c ****   assert_param(IS_DMA_ALL_INSTANCE(hdma->Instance));
 151:Drivers/STM32L0xx_HAL_Driver/Src/stm32l0xx_hal_dma.c ****   assert_param(IS_DMA_ALL_REQUEST(hdma->Init.Request));
 152:Drivers/STM32L0xx_HAL_Driver/Src/stm32l0xx_hal_dma.c ****   assert_param(IS_DMA_DIRECTION(hdma->Init.Direction));
 153:Drivers/STM32L0xx_HAL_Driver/Src/stm32l0xx_hal_dma.c ****   assert_param(IS_DMA_PERIPHERAL_INC_STATE(hdma->Init.PeriphInc));
 154:Drivers/STM32L0xx_HAL_Driver/Src/stm32l0xx_hal_dma.c ****   assert_param(IS_DMA_MEMORY_INC_STATE(hdma->Init.MemInc));
 155:Drivers/STM32L0xx_HAL_Driver/Src/stm32l0xx_hal_dma.c ****   assert_param(IS_DMA_PERIPHERAL_DATA_SIZE(hdma->Init.PeriphDataAlignment));
 156:Drivers/STM32L0xx_HAL_Driver/Src/stm32l0xx_hal_dma.c ****   assert_param(IS_DMA_MEMORY_DATA_SIZE(hdma->Init.MemDataAlignment));
 157:Drivers/STM32L0xx_HAL_Driver/Src/stm32l0xx_hal_dma.c ****   assert_param(IS_DMA_MODE(hdma->Init.Mode));
 158:Drivers/STM32L0xx_HAL_Driver/Src/stm32l0xx_hal_dma.c ****   assert_param(IS_DMA_PRIORITY(hdma->Init.Priority));
 159:Drivers/STM32L0xx_HAL_Driver/Src/stm32l0xx_hal_dma.c **** 
 160:Drivers/STM32L0xx_HAL_Driver/Src/stm32l0xx_hal_dma.c ****   /* Compute the channel index */
 161:Drivers/STM32L0xx_HAL_Driver/Src/stm32l0xx_hal_dma.c ****   /* Only one DMA: DMA1 */
 162:Drivers/STM32L0xx_HAL_Driver/Src/stm32l0xx_hal_dma.c ****   hdma->ChannelIndex = (((uint32_t)hdma->Instance - (uint32_t)DMA1_Channel1) / ((uint32_t)DMA1_Chan
  52              		.loc 1 162 0
  53 0012 7B68     		ldr	r3, [r7, #4]
  54 0014 1B68     		ldr	r3, [r3]
  55 0016 324A     		ldr	r2, .L5
  56 0018 9446     		mov	ip, r2
  57 001a 6344     		add	r3, r3, ip
  58 001c 1421     		movs	r1, #20
  59 001e 1800     		movs	r0, r3
  60 0020 FFF7FEFF 		bl	__aeabi_uidiv
  61              	.LVL0:
  62 0024 0300     		movs	r3, r0
  63 0026 9A00     		lsls	r2, r3, #2
  64 0028 7B68     		ldr	r3, [r7, #4]
  65 002a 5A64     		str	r2, [r3, #68]
 163:Drivers/STM32L0xx_HAL_Driver/Src/stm32l0xx_hal_dma.c ****   hdma->DmaBaseAddress = DMA1;
  66              		.loc 1 163 0
ARM GAS  /tmp/cc0nDUWo.s 			page 5


  67 002c 7B68     		ldr	r3, [r7, #4]
  68 002e 2D4A     		ldr	r2, .L5+4
  69 0030 1A64     		str	r2, [r3, #64]
 164:Drivers/STM32L0xx_HAL_Driver/Src/stm32l0xx_hal_dma.c **** 
 165:Drivers/STM32L0xx_HAL_Driver/Src/stm32l0xx_hal_dma.c ****   /* Change DMA peripheral state */
 166:Drivers/STM32L0xx_HAL_Driver/Src/stm32l0xx_hal_dma.c ****   hdma->State = HAL_DMA_STATE_BUSY;
  70              		.loc 1 166 0
  71 0032 7B68     		ldr	r3, [r7, #4]
  72 0034 2522     		movs	r2, #37
  73 0036 0221     		movs	r1, #2
  74 0038 9954     		strb	r1, [r3, r2]
 167:Drivers/STM32L0xx_HAL_Driver/Src/stm32l0xx_hal_dma.c **** 
 168:Drivers/STM32L0xx_HAL_Driver/Src/stm32l0xx_hal_dma.c ****   /* Get the CR register value */
 169:Drivers/STM32L0xx_HAL_Driver/Src/stm32l0xx_hal_dma.c ****   tmp = hdma->Instance->CCR;
  75              		.loc 1 169 0
  76 003a 7B68     		ldr	r3, [r7, #4]
  77 003c 1B68     		ldr	r3, [r3]
  78 003e 1B68     		ldr	r3, [r3]
  79 0040 FB60     		str	r3, [r7, #12]
 170:Drivers/STM32L0xx_HAL_Driver/Src/stm32l0xx_hal_dma.c **** 
 171:Drivers/STM32L0xx_HAL_Driver/Src/stm32l0xx_hal_dma.c ****   /* Clear PL, MSIZE, PSIZE, MINC, PINC, CIRC, DIR and MEM2MEM bits */
 172:Drivers/STM32L0xx_HAL_Driver/Src/stm32l0xx_hal_dma.c ****   tmp &= ((uint32_t)~(DMA_CCR_PL    | DMA_CCR_MSIZE  | DMA_CCR_PSIZE  |
  80              		.loc 1 172 0
  81 0042 FB68     		ldr	r3, [r7, #12]
  82 0044 284A     		ldr	r2, .L5+8
  83 0046 1340     		ands	r3, r2
  84 0048 FB60     		str	r3, [r7, #12]
 173:Drivers/STM32L0xx_HAL_Driver/Src/stm32l0xx_hal_dma.c ****                       DMA_CCR_MINC  | DMA_CCR_PINC   | DMA_CCR_CIRC   |
 174:Drivers/STM32L0xx_HAL_Driver/Src/stm32l0xx_hal_dma.c ****                       DMA_CCR_DIR   | DMA_CCR_MEM2MEM));
 175:Drivers/STM32L0xx_HAL_Driver/Src/stm32l0xx_hal_dma.c **** 
 176:Drivers/STM32L0xx_HAL_Driver/Src/stm32l0xx_hal_dma.c ****   /* Prepare the DMA Channel configuration */
 177:Drivers/STM32L0xx_HAL_Driver/Src/stm32l0xx_hal_dma.c ****   tmp |=  hdma->Init.Direction        |
  85              		.loc 1 177 0
  86 004a 7B68     		ldr	r3, [r7, #4]
  87 004c 9A68     		ldr	r2, [r3, #8]
 178:Drivers/STM32L0xx_HAL_Driver/Src/stm32l0xx_hal_dma.c ****           hdma->Init.PeriphInc           | hdma->Init.MemInc           |
  88              		.loc 1 178 0
  89 004e 7B68     		ldr	r3, [r7, #4]
  90 0050 DB68     		ldr	r3, [r3, #12]
 177:Drivers/STM32L0xx_HAL_Driver/Src/stm32l0xx_hal_dma.c ****           hdma->Init.PeriphInc           | hdma->Init.MemInc           |
  91              		.loc 1 177 0
  92 0052 1A43     		orrs	r2, r3
  93              		.loc 1 178 0
  94 0054 7B68     		ldr	r3, [r7, #4]
  95 0056 1B69     		ldr	r3, [r3, #16]
  96 0058 1A43     		orrs	r2, r3
 179:Drivers/STM32L0xx_HAL_Driver/Src/stm32l0xx_hal_dma.c ****           hdma->Init.PeriphDataAlignment | hdma->Init.MemDataAlignment |
  97              		.loc 1 179 0
  98 005a 7B68     		ldr	r3, [r7, #4]
  99 005c 5B69     		ldr	r3, [r3, #20]
 178:Drivers/STM32L0xx_HAL_Driver/Src/stm32l0xx_hal_dma.c ****           hdma->Init.PeriphInc           | hdma->Init.MemInc           |
 100              		.loc 1 178 0
 101 005e 1A43     		orrs	r2, r3
 102              		.loc 1 179 0
 103 0060 7B68     		ldr	r3, [r7, #4]
 104 0062 9B69     		ldr	r3, [r3, #24]
 105 0064 1A43     		orrs	r2, r3
ARM GAS  /tmp/cc0nDUWo.s 			page 6


 180:Drivers/STM32L0xx_HAL_Driver/Src/stm32l0xx_hal_dma.c ****           hdma->Init.Mode                | hdma->Init.Priority;
 106              		.loc 1 180 0
 107 0066 7B68     		ldr	r3, [r7, #4]
 108 0068 DB69     		ldr	r3, [r3, #28]
 179:Drivers/STM32L0xx_HAL_Driver/Src/stm32l0xx_hal_dma.c ****           hdma->Init.PeriphDataAlignment | hdma->Init.MemDataAlignment |
 109              		.loc 1 179 0
 110 006a 1A43     		orrs	r2, r3
 111              		.loc 1 180 0
 112 006c 7B68     		ldr	r3, [r7, #4]
 113 006e 1B6A     		ldr	r3, [r3, #32]
 114 0070 1343     		orrs	r3, r2
 177:Drivers/STM32L0xx_HAL_Driver/Src/stm32l0xx_hal_dma.c ****           hdma->Init.PeriphInc           | hdma->Init.MemInc           |
 115              		.loc 1 177 0
 116 0072 FA68     		ldr	r2, [r7, #12]
 117 0074 1343     		orrs	r3, r2
 118 0076 FB60     		str	r3, [r7, #12]
 181:Drivers/STM32L0xx_HAL_Driver/Src/stm32l0xx_hal_dma.c **** 
 182:Drivers/STM32L0xx_HAL_Driver/Src/stm32l0xx_hal_dma.c ****   /* Write to DMA Channel CR register */
 183:Drivers/STM32L0xx_HAL_Driver/Src/stm32l0xx_hal_dma.c ****   hdma->Instance->CCR = tmp;
 119              		.loc 1 183 0
 120 0078 7B68     		ldr	r3, [r7, #4]
 121 007a 1B68     		ldr	r3, [r3]
 122 007c FA68     		ldr	r2, [r7, #12]
 123 007e 1A60     		str	r2, [r3]
 184:Drivers/STM32L0xx_HAL_Driver/Src/stm32l0xx_hal_dma.c **** 
 185:Drivers/STM32L0xx_HAL_Driver/Src/stm32l0xx_hal_dma.c ****   /* Set request selection */
 186:Drivers/STM32L0xx_HAL_Driver/Src/stm32l0xx_hal_dma.c ****   if(hdma->Init.Direction != DMA_MEMORY_TO_MEMORY)
 124              		.loc 1 186 0
 125 0080 7B68     		ldr	r3, [r7, #4]
 126 0082 9A68     		ldr	r2, [r3, #8]
 127 0084 8023     		movs	r3, #128
 128 0086 DB01     		lsls	r3, r3, #7
 129 0088 9A42     		cmp	r2, r3
 130 008a 19D0     		beq	.L4
 187:Drivers/STM32L0xx_HAL_Driver/Src/stm32l0xx_hal_dma.c ****   {
 188:Drivers/STM32L0xx_HAL_Driver/Src/stm32l0xx_hal_dma.c ****     /* Write to DMA channel selection register */
 189:Drivers/STM32L0xx_HAL_Driver/Src/stm32l0xx_hal_dma.c ****     /* Reset request selection for DMA1 Channelx */
 190:Drivers/STM32L0xx_HAL_Driver/Src/stm32l0xx_hal_dma.c ****     DMA1_CSELR->CSELR &= ~(DMA_CSELR_C1S << (hdma->ChannelIndex & 0x1cU));
 131              		.loc 1 190 0
 132 008c 174A     		ldr	r2, .L5+12
 133 008e 174B     		ldr	r3, .L5+12
 134 0090 1968     		ldr	r1, [r3]
 135 0092 7B68     		ldr	r3, [r7, #4]
 136 0094 5B6C     		ldr	r3, [r3, #68]
 137 0096 1C20     		movs	r0, #28
 138 0098 0340     		ands	r3, r0
 139 009a 0F20     		movs	r0, #15
 140 009c 9840     		lsls	r0, r0, r3
 141 009e 0300     		movs	r3, r0
 142 00a0 DB43     		mvns	r3, r3
 143 00a2 0B40     		ands	r3, r1
 144 00a4 1360     		str	r3, [r2]
 191:Drivers/STM32L0xx_HAL_Driver/Src/stm32l0xx_hal_dma.c **** 
 192:Drivers/STM32L0xx_HAL_Driver/Src/stm32l0xx_hal_dma.c ****     /* Configure request selection for DMA1 Channelx */
 193:Drivers/STM32L0xx_HAL_Driver/Src/stm32l0xx_hal_dma.c ****     DMA1_CSELR->CSELR |= (uint32_t) (hdma->Init.Request << (hdma->ChannelIndex & 0x1cU));
 145              		.loc 1 193 0
 146 00a6 114A     		ldr	r2, .L5+12
ARM GAS  /tmp/cc0nDUWo.s 			page 7


 147 00a8 104B     		ldr	r3, .L5+12
 148 00aa 1968     		ldr	r1, [r3]
 149 00ac 7B68     		ldr	r3, [r7, #4]
 150 00ae 5868     		ldr	r0, [r3, #4]
 151 00b0 7B68     		ldr	r3, [r7, #4]
 152 00b2 5B6C     		ldr	r3, [r3, #68]
 153 00b4 1C24     		movs	r4, #28
 154 00b6 2340     		ands	r3, r4
 155 00b8 9840     		lsls	r0, r0, r3
 156 00ba 0300     		movs	r3, r0
 157 00bc 0B43     		orrs	r3, r1
 158 00be 1360     		str	r3, [r2]
 159              	.L4:
 194:Drivers/STM32L0xx_HAL_Driver/Src/stm32l0xx_hal_dma.c ****   }
 195:Drivers/STM32L0xx_HAL_Driver/Src/stm32l0xx_hal_dma.c **** 
 196:Drivers/STM32L0xx_HAL_Driver/Src/stm32l0xx_hal_dma.c ****   /* Initialise the error code */
 197:Drivers/STM32L0xx_HAL_Driver/Src/stm32l0xx_hal_dma.c ****   hdma->ErrorCode = HAL_DMA_ERROR_NONE;
 160              		.loc 1 197 0
 161 00c0 7B68     		ldr	r3, [r7, #4]
 162 00c2 0022     		movs	r2, #0
 163 00c4 DA63     		str	r2, [r3, #60]
 198:Drivers/STM32L0xx_HAL_Driver/Src/stm32l0xx_hal_dma.c **** 
 199:Drivers/STM32L0xx_HAL_Driver/Src/stm32l0xx_hal_dma.c ****   /* Initialize the DMA state*/
 200:Drivers/STM32L0xx_HAL_Driver/Src/stm32l0xx_hal_dma.c ****   hdma->State  = HAL_DMA_STATE_READY;
 164              		.loc 1 200 0
 165 00c6 7B68     		ldr	r3, [r7, #4]
 166 00c8 2522     		movs	r2, #37
 167 00ca 0121     		movs	r1, #1
 168 00cc 9954     		strb	r1, [r3, r2]
 201:Drivers/STM32L0xx_HAL_Driver/Src/stm32l0xx_hal_dma.c **** 
 202:Drivers/STM32L0xx_HAL_Driver/Src/stm32l0xx_hal_dma.c ****   /* Allocate lock resource and initialize it */
 203:Drivers/STM32L0xx_HAL_Driver/Src/stm32l0xx_hal_dma.c ****   hdma->Lock = HAL_UNLOCKED;
 169              		.loc 1 203 0
 170 00ce 7B68     		ldr	r3, [r7, #4]
 171 00d0 2422     		movs	r2, #36
 172 00d2 0021     		movs	r1, #0
 173 00d4 9954     		strb	r1, [r3, r2]
 204:Drivers/STM32L0xx_HAL_Driver/Src/stm32l0xx_hal_dma.c **** 
 205:Drivers/STM32L0xx_HAL_Driver/Src/stm32l0xx_hal_dma.c ****   return HAL_OK;
 174              		.loc 1 205 0
 175 00d6 0023     		movs	r3, #0
 176              	.L3:
 206:Drivers/STM32L0xx_HAL_Driver/Src/stm32l0xx_hal_dma.c **** }
 177              		.loc 1 206 0
 178 00d8 1800     		movs	r0, r3
 179 00da BD46     		mov	sp, r7
 180 00dc 05B0     		add	sp, sp, #20
 181              		@ sp needed
 182 00de 90BD     		pop	{r4, r7, pc}
 183              	.L6:
 184              		.align	2
 185              	.L5:
 186 00e0 F8FFFDBF 		.word	-1073872904
 187 00e4 00000240 		.word	1073872896
 188 00e8 0F80FFFF 		.word	-32753
 189 00ec A8000240 		.word	1073873064
 190              		.cfi_endproc
ARM GAS  /tmp/cc0nDUWo.s 			page 8


 191              	.LFE34:
 193              		.section	.text.HAL_DMA_DeInit,"ax",%progbits
 194              		.align	1
 195              		.global	HAL_DMA_DeInit
 196              		.syntax unified
 197              		.code	16
 198              		.thumb_func
 199              		.fpu softvfp
 201              	HAL_DMA_DeInit:
 202              	.LFB35:
 207:Drivers/STM32L0xx_HAL_Driver/Src/stm32l0xx_hal_dma.c **** 
 208:Drivers/STM32L0xx_HAL_Driver/Src/stm32l0xx_hal_dma.c **** /**
 209:Drivers/STM32L0xx_HAL_Driver/Src/stm32l0xx_hal_dma.c ****   * @brief  DeInitialize the DMA peripheral.
 210:Drivers/STM32L0xx_HAL_Driver/Src/stm32l0xx_hal_dma.c ****   * @param  hdma pointer to a DMA_HandleTypeDef structure that contains
 211:Drivers/STM32L0xx_HAL_Driver/Src/stm32l0xx_hal_dma.c ****   *               the configuration information for the specified DMA Channel.
 212:Drivers/STM32L0xx_HAL_Driver/Src/stm32l0xx_hal_dma.c ****   * @retval HAL status
 213:Drivers/STM32L0xx_HAL_Driver/Src/stm32l0xx_hal_dma.c ****   */
 214:Drivers/STM32L0xx_HAL_Driver/Src/stm32l0xx_hal_dma.c **** HAL_StatusTypeDef HAL_DMA_DeInit(DMA_HandleTypeDef *hdma)
 215:Drivers/STM32L0xx_HAL_Driver/Src/stm32l0xx_hal_dma.c **** {
 203              		.loc 1 215 0
 204              		.cfi_startproc
 205              		@ args = 0, pretend = 0, frame = 8
 206              		@ frame_needed = 1, uses_anonymous_args = 0
 207 0000 80B5     		push	{r7, lr}
 208              	.LCFI3:
 209              		.cfi_def_cfa_offset 8
 210              		.cfi_offset 7, -8
 211              		.cfi_offset 14, -4
 212 0002 82B0     		sub	sp, sp, #8
 213              	.LCFI4:
 214              		.cfi_def_cfa_offset 16
 215 0004 00AF     		add	r7, sp, #0
 216              	.LCFI5:
 217              		.cfi_def_cfa_register 7
 218 0006 7860     		str	r0, [r7, #4]
 216:Drivers/STM32L0xx_HAL_Driver/Src/stm32l0xx_hal_dma.c **** 
 217:Drivers/STM32L0xx_HAL_Driver/Src/stm32l0xx_hal_dma.c ****   /* Check the DMA handle allocation */
 218:Drivers/STM32L0xx_HAL_Driver/Src/stm32l0xx_hal_dma.c ****   if (NULL == hdma )
 219              		.loc 1 218 0
 220 0008 7B68     		ldr	r3, [r7, #4]
 221 000a 002B     		cmp	r3, #0
 222 000c 01D1     		bne	.L8
 219:Drivers/STM32L0xx_HAL_Driver/Src/stm32l0xx_hal_dma.c ****   {
 220:Drivers/STM32L0xx_HAL_Driver/Src/stm32l0xx_hal_dma.c ****     return HAL_ERROR;
 223              		.loc 1 220 0
 224 000e 0123     		movs	r3, #1
 225 0010 4AE0     		b	.L9
 226              	.L8:
 221:Drivers/STM32L0xx_HAL_Driver/Src/stm32l0xx_hal_dma.c ****   }
 222:Drivers/STM32L0xx_HAL_Driver/Src/stm32l0xx_hal_dma.c **** 
 223:Drivers/STM32L0xx_HAL_Driver/Src/stm32l0xx_hal_dma.c ****   /* Check the parameters */
 224:Drivers/STM32L0xx_HAL_Driver/Src/stm32l0xx_hal_dma.c ****   assert_param(IS_DMA_ALL_INSTANCE(hdma->Instance));
 225:Drivers/STM32L0xx_HAL_Driver/Src/stm32l0xx_hal_dma.c **** 
 226:Drivers/STM32L0xx_HAL_Driver/Src/stm32l0xx_hal_dma.c ****   /* Disable the selected DMA Channelx */
 227:Drivers/STM32L0xx_HAL_Driver/Src/stm32l0xx_hal_dma.c ****   __HAL_DMA_DISABLE(hdma);
 227              		.loc 1 227 0
 228 0012 7B68     		ldr	r3, [r7, #4]
ARM GAS  /tmp/cc0nDUWo.s 			page 9


 229 0014 1B68     		ldr	r3, [r3]
 230 0016 7A68     		ldr	r2, [r7, #4]
 231 0018 1268     		ldr	r2, [r2]
 232 001a 1268     		ldr	r2, [r2]
 233 001c 0121     		movs	r1, #1
 234 001e 8A43     		bics	r2, r1
 235 0020 1A60     		str	r2, [r3]
 228:Drivers/STM32L0xx_HAL_Driver/Src/stm32l0xx_hal_dma.c **** 
 229:Drivers/STM32L0xx_HAL_Driver/Src/stm32l0xx_hal_dma.c ****   /* Compute the channel index */
 230:Drivers/STM32L0xx_HAL_Driver/Src/stm32l0xx_hal_dma.c ****   /* DMA1 */
 231:Drivers/STM32L0xx_HAL_Driver/Src/stm32l0xx_hal_dma.c ****   hdma->ChannelIndex = (((uint32_t)hdma->Instance - (uint32_t)DMA1_Channel1) / ((uint32_t)DMA1_Chan
 236              		.loc 1 231 0
 237 0022 7B68     		ldr	r3, [r7, #4]
 238 0024 1B68     		ldr	r3, [r3]
 239 0026 224A     		ldr	r2, .L10
 240 0028 9446     		mov	ip, r2
 241 002a 6344     		add	r3, r3, ip
 242 002c 1421     		movs	r1, #20
 243 002e 1800     		movs	r0, r3
 244 0030 FFF7FEFF 		bl	__aeabi_uidiv
 245              	.LVL1:
 246 0034 0300     		movs	r3, r0
 247 0036 9A00     		lsls	r2, r3, #2
 248 0038 7B68     		ldr	r3, [r7, #4]
 249 003a 5A64     		str	r2, [r3, #68]
 232:Drivers/STM32L0xx_HAL_Driver/Src/stm32l0xx_hal_dma.c ****   hdma->DmaBaseAddress = DMA1;
 250              		.loc 1 232 0
 251 003c 7B68     		ldr	r3, [r7, #4]
 252 003e 1D4A     		ldr	r2, .L10+4
 253 0040 1A64     		str	r2, [r3, #64]
 233:Drivers/STM32L0xx_HAL_Driver/Src/stm32l0xx_hal_dma.c **** 
 234:Drivers/STM32L0xx_HAL_Driver/Src/stm32l0xx_hal_dma.c ****   /* Reset DMA Channel control register */
 235:Drivers/STM32L0xx_HAL_Driver/Src/stm32l0xx_hal_dma.c ****   hdma->Instance->CCR  = 0U;
 254              		.loc 1 235 0
 255 0042 7B68     		ldr	r3, [r7, #4]
 256 0044 1B68     		ldr	r3, [r3]
 257 0046 0022     		movs	r2, #0
 258 0048 1A60     		str	r2, [r3]
 236:Drivers/STM32L0xx_HAL_Driver/Src/stm32l0xx_hal_dma.c **** 
 237:Drivers/STM32L0xx_HAL_Driver/Src/stm32l0xx_hal_dma.c ****   /* Clear all flags */
 238:Drivers/STM32L0xx_HAL_Driver/Src/stm32l0xx_hal_dma.c ****   hdma->DmaBaseAddress->IFCR = (DMA_ISR_GIF1 << (hdma->ChannelIndex & 0x1cU));
 259              		.loc 1 238 0
 260 004a 7B68     		ldr	r3, [r7, #4]
 261 004c 1B6C     		ldr	r3, [r3, #64]
 262 004e 7A68     		ldr	r2, [r7, #4]
 263 0050 526C     		ldr	r2, [r2, #68]
 264 0052 1C21     		movs	r1, #28
 265 0054 0A40     		ands	r2, r1
 266 0056 0121     		movs	r1, #1
 267 0058 9140     		lsls	r1, r1, r2
 268 005a 0A00     		movs	r2, r1
 269 005c 5A60     		str	r2, [r3, #4]
 239:Drivers/STM32L0xx_HAL_Driver/Src/stm32l0xx_hal_dma.c **** 
 240:Drivers/STM32L0xx_HAL_Driver/Src/stm32l0xx_hal_dma.c ****   /* Reset DMA channel selection register */
 241:Drivers/STM32L0xx_HAL_Driver/Src/stm32l0xx_hal_dma.c ****   /* DMA1 */
 242:Drivers/STM32L0xx_HAL_Driver/Src/stm32l0xx_hal_dma.c ****   DMA1_CSELR->CSELR &= ~(DMA_CSELR_C1S << (hdma->ChannelIndex & 0x1cU));
 270              		.loc 1 242 0
ARM GAS  /tmp/cc0nDUWo.s 			page 10


 271 005e 164A     		ldr	r2, .L10+8
 272 0060 154B     		ldr	r3, .L10+8
 273 0062 1968     		ldr	r1, [r3]
 274 0064 7B68     		ldr	r3, [r7, #4]
 275 0066 5B6C     		ldr	r3, [r3, #68]
 276 0068 1C20     		movs	r0, #28
 277 006a 0340     		ands	r3, r0
 278 006c 0F20     		movs	r0, #15
 279 006e 9840     		lsls	r0, r0, r3
 280 0070 0300     		movs	r3, r0
 281 0072 DB43     		mvns	r3, r3
 282 0074 0B40     		ands	r3, r1
 283 0076 1360     		str	r3, [r2]
 243:Drivers/STM32L0xx_HAL_Driver/Src/stm32l0xx_hal_dma.c **** 
 244:Drivers/STM32L0xx_HAL_Driver/Src/stm32l0xx_hal_dma.c ****   /* Clean callbacks */
 245:Drivers/STM32L0xx_HAL_Driver/Src/stm32l0xx_hal_dma.c ****   hdma->XferCpltCallback = NULL;
 284              		.loc 1 245 0
 285 0078 7B68     		ldr	r3, [r7, #4]
 286 007a 0022     		movs	r2, #0
 287 007c DA62     		str	r2, [r3, #44]
 246:Drivers/STM32L0xx_HAL_Driver/Src/stm32l0xx_hal_dma.c ****   hdma->XferHalfCpltCallback = NULL;
 288              		.loc 1 246 0
 289 007e 7B68     		ldr	r3, [r7, #4]
 290 0080 0022     		movs	r2, #0
 291 0082 1A63     		str	r2, [r3, #48]
 247:Drivers/STM32L0xx_HAL_Driver/Src/stm32l0xx_hal_dma.c ****   hdma->XferErrorCallback = NULL;
 292              		.loc 1 247 0
 293 0084 7B68     		ldr	r3, [r7, #4]
 294 0086 0022     		movs	r2, #0
 295 0088 5A63     		str	r2, [r3, #52]
 248:Drivers/STM32L0xx_HAL_Driver/Src/stm32l0xx_hal_dma.c ****   hdma->XferAbortCallback = NULL;
 296              		.loc 1 248 0
 297 008a 7B68     		ldr	r3, [r7, #4]
 298 008c 0022     		movs	r2, #0
 299 008e 9A63     		str	r2, [r3, #56]
 249:Drivers/STM32L0xx_HAL_Driver/Src/stm32l0xx_hal_dma.c **** 
 250:Drivers/STM32L0xx_HAL_Driver/Src/stm32l0xx_hal_dma.c ****   /* Initialise the error code */
 251:Drivers/STM32L0xx_HAL_Driver/Src/stm32l0xx_hal_dma.c ****   hdma->ErrorCode = HAL_DMA_ERROR_NONE;
 300              		.loc 1 251 0
 301 0090 7B68     		ldr	r3, [r7, #4]
 302 0092 0022     		movs	r2, #0
 303 0094 DA63     		str	r2, [r3, #60]
 252:Drivers/STM32L0xx_HAL_Driver/Src/stm32l0xx_hal_dma.c **** 
 253:Drivers/STM32L0xx_HAL_Driver/Src/stm32l0xx_hal_dma.c ****   /* Initialize the DMA state */
 254:Drivers/STM32L0xx_HAL_Driver/Src/stm32l0xx_hal_dma.c ****   hdma->State = HAL_DMA_STATE_RESET;
 304              		.loc 1 254 0
 305 0096 7B68     		ldr	r3, [r7, #4]
 306 0098 2522     		movs	r2, #37
 307 009a 0021     		movs	r1, #0
 308 009c 9954     		strb	r1, [r3, r2]
 255:Drivers/STM32L0xx_HAL_Driver/Src/stm32l0xx_hal_dma.c **** 
 256:Drivers/STM32L0xx_HAL_Driver/Src/stm32l0xx_hal_dma.c ****   /* Release Lock */
 257:Drivers/STM32L0xx_HAL_Driver/Src/stm32l0xx_hal_dma.c ****   __HAL_UNLOCK(hdma);
 309              		.loc 1 257 0
 310 009e 7B68     		ldr	r3, [r7, #4]
 311 00a0 2422     		movs	r2, #36
 312 00a2 0021     		movs	r1, #0
ARM GAS  /tmp/cc0nDUWo.s 			page 11


 313 00a4 9954     		strb	r1, [r3, r2]
 258:Drivers/STM32L0xx_HAL_Driver/Src/stm32l0xx_hal_dma.c **** 
 259:Drivers/STM32L0xx_HAL_Driver/Src/stm32l0xx_hal_dma.c ****   return HAL_OK;
 314              		.loc 1 259 0
 315 00a6 0023     		movs	r3, #0
 316              	.L9:
 260:Drivers/STM32L0xx_HAL_Driver/Src/stm32l0xx_hal_dma.c **** }
 317              		.loc 1 260 0
 318 00a8 1800     		movs	r0, r3
 319 00aa BD46     		mov	sp, r7
 320 00ac 02B0     		add	sp, sp, #8
 321              		@ sp needed
 322 00ae 80BD     		pop	{r7, pc}
 323              	.L11:
 324              		.align	2
 325              	.L10:
 326 00b0 F8FFFDBF 		.word	-1073872904
 327 00b4 00000240 		.word	1073872896
 328 00b8 A8000240 		.word	1073873064
 329              		.cfi_endproc
 330              	.LFE35:
 332              		.section	.text.HAL_DMA_Start,"ax",%progbits
 333              		.align	1
 334              		.global	HAL_DMA_Start
 335              		.syntax unified
 336              		.code	16
 337              		.thumb_func
 338              		.fpu softvfp
 340              	HAL_DMA_Start:
 341              	.LFB36:
 261:Drivers/STM32L0xx_HAL_Driver/Src/stm32l0xx_hal_dma.c **** 
 262:Drivers/STM32L0xx_HAL_Driver/Src/stm32l0xx_hal_dma.c **** /**
 263:Drivers/STM32L0xx_HAL_Driver/Src/stm32l0xx_hal_dma.c ****   * @}
 264:Drivers/STM32L0xx_HAL_Driver/Src/stm32l0xx_hal_dma.c ****   */
 265:Drivers/STM32L0xx_HAL_Driver/Src/stm32l0xx_hal_dma.c **** 
 266:Drivers/STM32L0xx_HAL_Driver/Src/stm32l0xx_hal_dma.c **** /** @defgroup DMA_Exported_Functions_Group2 Input and Output operation functions
 267:Drivers/STM32L0xx_HAL_Driver/Src/stm32l0xx_hal_dma.c ****  *  @brief   Input and Output operation functions
 268:Drivers/STM32L0xx_HAL_Driver/Src/stm32l0xx_hal_dma.c ****  *
 269:Drivers/STM32L0xx_HAL_Driver/Src/stm32l0xx_hal_dma.c **** @verbatim
 270:Drivers/STM32L0xx_HAL_Driver/Src/stm32l0xx_hal_dma.c ****  ===============================================================================
 271:Drivers/STM32L0xx_HAL_Driver/Src/stm32l0xx_hal_dma.c ****                       #####  IO operation functions  #####
 272:Drivers/STM32L0xx_HAL_Driver/Src/stm32l0xx_hal_dma.c ****  ===============================================================================
 273:Drivers/STM32L0xx_HAL_Driver/Src/stm32l0xx_hal_dma.c ****     [..]  This section provides functions allowing to:
 274:Drivers/STM32L0xx_HAL_Driver/Src/stm32l0xx_hal_dma.c ****       (+) Configure the source, destination address and data length and Start DMA transfer
 275:Drivers/STM32L0xx_HAL_Driver/Src/stm32l0xx_hal_dma.c ****       (+) Configure the source, destination address and data length and
 276:Drivers/STM32L0xx_HAL_Driver/Src/stm32l0xx_hal_dma.c ****           Start DMA transfer with interrupt
 277:Drivers/STM32L0xx_HAL_Driver/Src/stm32l0xx_hal_dma.c ****       (+) Abort DMA transfer
 278:Drivers/STM32L0xx_HAL_Driver/Src/stm32l0xx_hal_dma.c ****       (+) Poll for transfer complete
 279:Drivers/STM32L0xx_HAL_Driver/Src/stm32l0xx_hal_dma.c ****       (+) Handle DMA interrupt request
 280:Drivers/STM32L0xx_HAL_Driver/Src/stm32l0xx_hal_dma.c **** 
 281:Drivers/STM32L0xx_HAL_Driver/Src/stm32l0xx_hal_dma.c **** @endverbatim
 282:Drivers/STM32L0xx_HAL_Driver/Src/stm32l0xx_hal_dma.c ****   * @{
 283:Drivers/STM32L0xx_HAL_Driver/Src/stm32l0xx_hal_dma.c ****   */
 284:Drivers/STM32L0xx_HAL_Driver/Src/stm32l0xx_hal_dma.c **** 
 285:Drivers/STM32L0xx_HAL_Driver/Src/stm32l0xx_hal_dma.c **** /**
 286:Drivers/STM32L0xx_HAL_Driver/Src/stm32l0xx_hal_dma.c ****   * @brief  Start the DMA Transfer.
 287:Drivers/STM32L0xx_HAL_Driver/Src/stm32l0xx_hal_dma.c ****   * @param  hdma pointer to a DMA_HandleTypeDef structure that contains
ARM GAS  /tmp/cc0nDUWo.s 			page 12


 288:Drivers/STM32L0xx_HAL_Driver/Src/stm32l0xx_hal_dma.c ****   *               the configuration information for the specified DMA Channel.
 289:Drivers/STM32L0xx_HAL_Driver/Src/stm32l0xx_hal_dma.c ****   * @param  SrcAddress The source memory Buffer address
 290:Drivers/STM32L0xx_HAL_Driver/Src/stm32l0xx_hal_dma.c ****   * @param  DstAddress The destination memory Buffer address
 291:Drivers/STM32L0xx_HAL_Driver/Src/stm32l0xx_hal_dma.c ****   * @param  DataLength The length of data to be transferred from source to destination
 292:Drivers/STM32L0xx_HAL_Driver/Src/stm32l0xx_hal_dma.c ****   * @retval HAL status
 293:Drivers/STM32L0xx_HAL_Driver/Src/stm32l0xx_hal_dma.c ****   */
 294:Drivers/STM32L0xx_HAL_Driver/Src/stm32l0xx_hal_dma.c **** HAL_StatusTypeDef HAL_DMA_Start(DMA_HandleTypeDef *hdma, uint32_t SrcAddress, uint32_t DstAddress, 
 295:Drivers/STM32L0xx_HAL_Driver/Src/stm32l0xx_hal_dma.c **** {
 342              		.loc 1 295 0
 343              		.cfi_startproc
 344              		@ args = 0, pretend = 0, frame = 24
 345              		@ frame_needed = 1, uses_anonymous_args = 0
 346 0000 80B5     		push	{r7, lr}
 347              	.LCFI6:
 348              		.cfi_def_cfa_offset 8
 349              		.cfi_offset 7, -8
 350              		.cfi_offset 14, -4
 351 0002 86B0     		sub	sp, sp, #24
 352              	.LCFI7:
 353              		.cfi_def_cfa_offset 32
 354 0004 00AF     		add	r7, sp, #0
 355              	.LCFI8:
 356              		.cfi_def_cfa_register 7
 357 0006 F860     		str	r0, [r7, #12]
 358 0008 B960     		str	r1, [r7, #8]
 359 000a 7A60     		str	r2, [r7, #4]
 360 000c 3B60     		str	r3, [r7]
 296:Drivers/STM32L0xx_HAL_Driver/Src/stm32l0xx_hal_dma.c ****   HAL_StatusTypeDef status = HAL_OK;
 361              		.loc 1 296 0
 362 000e 1723     		movs	r3, #23
 363 0010 FB18     		adds	r3, r7, r3
 364 0012 0022     		movs	r2, #0
 365 0014 1A70     		strb	r2, [r3]
 297:Drivers/STM32L0xx_HAL_Driver/Src/stm32l0xx_hal_dma.c **** 
 298:Drivers/STM32L0xx_HAL_Driver/Src/stm32l0xx_hal_dma.c ****   /* Check the parameters */
 299:Drivers/STM32L0xx_HAL_Driver/Src/stm32l0xx_hal_dma.c ****   assert_param(IS_DMA_BUFFER_SIZE(DataLength));
 300:Drivers/STM32L0xx_HAL_Driver/Src/stm32l0xx_hal_dma.c **** 
 301:Drivers/STM32L0xx_HAL_Driver/Src/stm32l0xx_hal_dma.c ****   /* Process locked */
 302:Drivers/STM32L0xx_HAL_Driver/Src/stm32l0xx_hal_dma.c ****   __HAL_LOCK(hdma);
 366              		.loc 1 302 0
 367 0016 FB68     		ldr	r3, [r7, #12]
 368 0018 2422     		movs	r2, #36
 369 001a 9B5C     		ldrb	r3, [r3, r2]
 370 001c 012B     		cmp	r3, #1
 371 001e 01D1     		bne	.L13
 372              		.loc 1 302 0 is_stmt 0 discriminator 1
 373 0020 0223     		movs	r3, #2
 374 0022 32E0     		b	.L14
 375              	.L13:
 376              		.loc 1 302 0 discriminator 2
 377 0024 FB68     		ldr	r3, [r7, #12]
 378 0026 2422     		movs	r2, #36
 379 0028 0121     		movs	r1, #1
 380 002a 9954     		strb	r1, [r3, r2]
 303:Drivers/STM32L0xx_HAL_Driver/Src/stm32l0xx_hal_dma.c **** 
 304:Drivers/STM32L0xx_HAL_Driver/Src/stm32l0xx_hal_dma.c ****   if(HAL_DMA_STATE_READY == hdma->State)
 381              		.loc 1 304 0 is_stmt 1 discriminator 2
ARM GAS  /tmp/cc0nDUWo.s 			page 13


 382 002c FB68     		ldr	r3, [r7, #12]
 383 002e 2522     		movs	r2, #37
 384 0030 9B5C     		ldrb	r3, [r3, r2]
 385 0032 DBB2     		uxtb	r3, r3
 386 0034 012B     		cmp	r3, #1
 387 0036 1DD1     		bne	.L15
 305:Drivers/STM32L0xx_HAL_Driver/Src/stm32l0xx_hal_dma.c ****   {
 306:Drivers/STM32L0xx_HAL_Driver/Src/stm32l0xx_hal_dma.c ****     /* Change DMA peripheral state */
 307:Drivers/STM32L0xx_HAL_Driver/Src/stm32l0xx_hal_dma.c ****     hdma->State = HAL_DMA_STATE_BUSY;
 388              		.loc 1 307 0
 389 0038 FB68     		ldr	r3, [r7, #12]
 390 003a 2522     		movs	r2, #37
 391 003c 0221     		movs	r1, #2
 392 003e 9954     		strb	r1, [r3, r2]
 308:Drivers/STM32L0xx_HAL_Driver/Src/stm32l0xx_hal_dma.c ****     hdma->ErrorCode = HAL_DMA_ERROR_NONE;
 393              		.loc 1 308 0
 394 0040 FB68     		ldr	r3, [r7, #12]
 395 0042 0022     		movs	r2, #0
 396 0044 DA63     		str	r2, [r3, #60]
 309:Drivers/STM32L0xx_HAL_Driver/Src/stm32l0xx_hal_dma.c **** 
 310:Drivers/STM32L0xx_HAL_Driver/Src/stm32l0xx_hal_dma.c ****     /* Disable the peripheral */
 311:Drivers/STM32L0xx_HAL_Driver/Src/stm32l0xx_hal_dma.c ****     __HAL_DMA_DISABLE(hdma);
 397              		.loc 1 311 0
 398 0046 FB68     		ldr	r3, [r7, #12]
 399 0048 1B68     		ldr	r3, [r3]
 400 004a FA68     		ldr	r2, [r7, #12]
 401 004c 1268     		ldr	r2, [r2]
 402 004e 1268     		ldr	r2, [r2]
 403 0050 0121     		movs	r1, #1
 404 0052 8A43     		bics	r2, r1
 405 0054 1A60     		str	r2, [r3]
 312:Drivers/STM32L0xx_HAL_Driver/Src/stm32l0xx_hal_dma.c **** 
 313:Drivers/STM32L0xx_HAL_Driver/Src/stm32l0xx_hal_dma.c ****     /* Configure the source, destination address and the data length & clear flags*/
 314:Drivers/STM32L0xx_HAL_Driver/Src/stm32l0xx_hal_dma.c ****     DMA_SetConfig(hdma, SrcAddress, DstAddress, DataLength);
 406              		.loc 1 314 0
 407 0056 3B68     		ldr	r3, [r7]
 408 0058 7A68     		ldr	r2, [r7, #4]
 409 005a B968     		ldr	r1, [r7, #8]
 410 005c F868     		ldr	r0, [r7, #12]
 411 005e FFF7FEFF 		bl	DMA_SetConfig
 315:Drivers/STM32L0xx_HAL_Driver/Src/stm32l0xx_hal_dma.c **** 
 316:Drivers/STM32L0xx_HAL_Driver/Src/stm32l0xx_hal_dma.c ****     /* Enable the Peripheral */
 317:Drivers/STM32L0xx_HAL_Driver/Src/stm32l0xx_hal_dma.c ****     __HAL_DMA_ENABLE(hdma);
 412              		.loc 1 317 0
 413 0062 FB68     		ldr	r3, [r7, #12]
 414 0064 1B68     		ldr	r3, [r3]
 415 0066 FA68     		ldr	r2, [r7, #12]
 416 0068 1268     		ldr	r2, [r2]
 417 006a 1268     		ldr	r2, [r2]
 418 006c 0121     		movs	r1, #1
 419 006e 0A43     		orrs	r2, r1
 420 0070 1A60     		str	r2, [r3]
 421 0072 07E0     		b	.L16
 422              	.L15:
 318:Drivers/STM32L0xx_HAL_Driver/Src/stm32l0xx_hal_dma.c ****   }
 319:Drivers/STM32L0xx_HAL_Driver/Src/stm32l0xx_hal_dma.c ****   else
 320:Drivers/STM32L0xx_HAL_Driver/Src/stm32l0xx_hal_dma.c ****   {
ARM GAS  /tmp/cc0nDUWo.s 			page 14


 321:Drivers/STM32L0xx_HAL_Driver/Src/stm32l0xx_hal_dma.c ****     /* Process Unlocked */
 322:Drivers/STM32L0xx_HAL_Driver/Src/stm32l0xx_hal_dma.c ****     __HAL_UNLOCK(hdma);
 423              		.loc 1 322 0
 424 0074 FB68     		ldr	r3, [r7, #12]
 425 0076 2422     		movs	r2, #36
 426 0078 0021     		movs	r1, #0
 427 007a 9954     		strb	r1, [r3, r2]
 323:Drivers/STM32L0xx_HAL_Driver/Src/stm32l0xx_hal_dma.c ****     status = HAL_BUSY;
 428              		.loc 1 323 0
 429 007c 1723     		movs	r3, #23
 430 007e FB18     		adds	r3, r7, r3
 431 0080 0222     		movs	r2, #2
 432 0082 1A70     		strb	r2, [r3]
 433              	.L16:
 324:Drivers/STM32L0xx_HAL_Driver/Src/stm32l0xx_hal_dma.c ****   }
 325:Drivers/STM32L0xx_HAL_Driver/Src/stm32l0xx_hal_dma.c ****   return status;
 434              		.loc 1 325 0
 435 0084 1723     		movs	r3, #23
 436 0086 FB18     		adds	r3, r7, r3
 437 0088 1B78     		ldrb	r3, [r3]
 438              	.L14:
 326:Drivers/STM32L0xx_HAL_Driver/Src/stm32l0xx_hal_dma.c **** }
 439              		.loc 1 326 0
 440 008a 1800     		movs	r0, r3
 441 008c BD46     		mov	sp, r7
 442 008e 06B0     		add	sp, sp, #24
 443              		@ sp needed
 444 0090 80BD     		pop	{r7, pc}
 445              		.cfi_endproc
 446              	.LFE36:
 448              		.section	.text.HAL_DMA_Start_IT,"ax",%progbits
 449              		.align	1
 450              		.global	HAL_DMA_Start_IT
 451              		.syntax unified
 452              		.code	16
 453              		.thumb_func
 454              		.fpu softvfp
 456              	HAL_DMA_Start_IT:
 457              	.LFB37:
 327:Drivers/STM32L0xx_HAL_Driver/Src/stm32l0xx_hal_dma.c **** 
 328:Drivers/STM32L0xx_HAL_Driver/Src/stm32l0xx_hal_dma.c **** /**
 329:Drivers/STM32L0xx_HAL_Driver/Src/stm32l0xx_hal_dma.c ****   * @brief  Start the DMA Transfer with interrupt enabled.
 330:Drivers/STM32L0xx_HAL_Driver/Src/stm32l0xx_hal_dma.c ****   * @param  hdma pointer to a DMA_HandleTypeDef structure that contains
 331:Drivers/STM32L0xx_HAL_Driver/Src/stm32l0xx_hal_dma.c ****   *               the configuration information for the specified DMA Channel.
 332:Drivers/STM32L0xx_HAL_Driver/Src/stm32l0xx_hal_dma.c ****   * @param  SrcAddress The source memory Buffer address
 333:Drivers/STM32L0xx_HAL_Driver/Src/stm32l0xx_hal_dma.c ****   * @param  DstAddress The destination memory Buffer address
 334:Drivers/STM32L0xx_HAL_Driver/Src/stm32l0xx_hal_dma.c ****   * @param  DataLength The length of data to be transferred from source to destination
 335:Drivers/STM32L0xx_HAL_Driver/Src/stm32l0xx_hal_dma.c ****   * @retval HAL status
 336:Drivers/STM32L0xx_HAL_Driver/Src/stm32l0xx_hal_dma.c ****   */
 337:Drivers/STM32L0xx_HAL_Driver/Src/stm32l0xx_hal_dma.c **** HAL_StatusTypeDef HAL_DMA_Start_IT(DMA_HandleTypeDef *hdma, uint32_t SrcAddress, uint32_t DstAddres
 338:Drivers/STM32L0xx_HAL_Driver/Src/stm32l0xx_hal_dma.c **** {
 458              		.loc 1 338 0
 459              		.cfi_startproc
 460              		@ args = 0, pretend = 0, frame = 24
 461              		@ frame_needed = 1, uses_anonymous_args = 0
 462 0000 80B5     		push	{r7, lr}
 463              	.LCFI9:
ARM GAS  /tmp/cc0nDUWo.s 			page 15


 464              		.cfi_def_cfa_offset 8
 465              		.cfi_offset 7, -8
 466              		.cfi_offset 14, -4
 467 0002 86B0     		sub	sp, sp, #24
 468              	.LCFI10:
 469              		.cfi_def_cfa_offset 32
 470 0004 00AF     		add	r7, sp, #0
 471              	.LCFI11:
 472              		.cfi_def_cfa_register 7
 473 0006 F860     		str	r0, [r7, #12]
 474 0008 B960     		str	r1, [r7, #8]
 475 000a 7A60     		str	r2, [r7, #4]
 476 000c 3B60     		str	r3, [r7]
 339:Drivers/STM32L0xx_HAL_Driver/Src/stm32l0xx_hal_dma.c ****   HAL_StatusTypeDef status = HAL_OK;
 477              		.loc 1 339 0
 478 000e 1723     		movs	r3, #23
 479 0010 FB18     		adds	r3, r7, r3
 480 0012 0022     		movs	r2, #0
 481 0014 1A70     		strb	r2, [r3]
 340:Drivers/STM32L0xx_HAL_Driver/Src/stm32l0xx_hal_dma.c **** 
 341:Drivers/STM32L0xx_HAL_Driver/Src/stm32l0xx_hal_dma.c ****   /* Check the parameters */
 342:Drivers/STM32L0xx_HAL_Driver/Src/stm32l0xx_hal_dma.c ****   assert_param(IS_DMA_BUFFER_SIZE(DataLength));
 343:Drivers/STM32L0xx_HAL_Driver/Src/stm32l0xx_hal_dma.c **** 
 344:Drivers/STM32L0xx_HAL_Driver/Src/stm32l0xx_hal_dma.c ****   /* Process locked */
 345:Drivers/STM32L0xx_HAL_Driver/Src/stm32l0xx_hal_dma.c ****   __HAL_LOCK(hdma);
 482              		.loc 1 345 0
 483 0016 FB68     		ldr	r3, [r7, #12]
 484 0018 2422     		movs	r2, #36
 485 001a 9B5C     		ldrb	r3, [r3, r2]
 486 001c 012B     		cmp	r3, #1
 487 001e 01D1     		bne	.L18
 488              		.loc 1 345 0 is_stmt 0 discriminator 1
 489 0020 0223     		movs	r3, #2
 490 0022 4FE0     		b	.L19
 491              	.L18:
 492              		.loc 1 345 0 discriminator 2
 493 0024 FB68     		ldr	r3, [r7, #12]
 494 0026 2422     		movs	r2, #36
 495 0028 0121     		movs	r1, #1
 496 002a 9954     		strb	r1, [r3, r2]
 346:Drivers/STM32L0xx_HAL_Driver/Src/stm32l0xx_hal_dma.c **** 
 347:Drivers/STM32L0xx_HAL_Driver/Src/stm32l0xx_hal_dma.c ****   if(HAL_DMA_STATE_READY == hdma->State)
 497              		.loc 1 347 0 is_stmt 1 discriminator 2
 498 002c FB68     		ldr	r3, [r7, #12]
 499 002e 2522     		movs	r2, #37
 500 0030 9B5C     		ldrb	r3, [r3, r2]
 501 0032 DBB2     		uxtb	r3, r3
 502 0034 012B     		cmp	r3, #1
 503 0036 3AD1     		bne	.L20
 348:Drivers/STM32L0xx_HAL_Driver/Src/stm32l0xx_hal_dma.c ****   {
 349:Drivers/STM32L0xx_HAL_Driver/Src/stm32l0xx_hal_dma.c ****     /* Change DMA peripheral state */
 350:Drivers/STM32L0xx_HAL_Driver/Src/stm32l0xx_hal_dma.c ****     hdma->State = HAL_DMA_STATE_BUSY;
 504              		.loc 1 350 0
 505 0038 FB68     		ldr	r3, [r7, #12]
 506 003a 2522     		movs	r2, #37
 507 003c 0221     		movs	r1, #2
 508 003e 9954     		strb	r1, [r3, r2]
ARM GAS  /tmp/cc0nDUWo.s 			page 16


 351:Drivers/STM32L0xx_HAL_Driver/Src/stm32l0xx_hal_dma.c ****     hdma->ErrorCode = HAL_DMA_ERROR_NONE;
 509              		.loc 1 351 0
 510 0040 FB68     		ldr	r3, [r7, #12]
 511 0042 0022     		movs	r2, #0
 512 0044 DA63     		str	r2, [r3, #60]
 352:Drivers/STM32L0xx_HAL_Driver/Src/stm32l0xx_hal_dma.c **** 
 353:Drivers/STM32L0xx_HAL_Driver/Src/stm32l0xx_hal_dma.c ****     /* Disable the peripheral */
 354:Drivers/STM32L0xx_HAL_Driver/Src/stm32l0xx_hal_dma.c ****     __HAL_DMA_DISABLE(hdma);
 513              		.loc 1 354 0
 514 0046 FB68     		ldr	r3, [r7, #12]
 515 0048 1B68     		ldr	r3, [r3]
 516 004a FA68     		ldr	r2, [r7, #12]
 517 004c 1268     		ldr	r2, [r2]
 518 004e 1268     		ldr	r2, [r2]
 519 0050 0121     		movs	r1, #1
 520 0052 8A43     		bics	r2, r1
 521 0054 1A60     		str	r2, [r3]
 355:Drivers/STM32L0xx_HAL_Driver/Src/stm32l0xx_hal_dma.c **** 
 356:Drivers/STM32L0xx_HAL_Driver/Src/stm32l0xx_hal_dma.c ****     /* Configure the source, destination address and the data length & clear flags*/
 357:Drivers/STM32L0xx_HAL_Driver/Src/stm32l0xx_hal_dma.c ****     DMA_SetConfig(hdma, SrcAddress, DstAddress, DataLength);
 522              		.loc 1 357 0
 523 0056 3B68     		ldr	r3, [r7]
 524 0058 7A68     		ldr	r2, [r7, #4]
 525 005a B968     		ldr	r1, [r7, #8]
 526 005c F868     		ldr	r0, [r7, #12]
 527 005e FFF7FEFF 		bl	DMA_SetConfig
 358:Drivers/STM32L0xx_HAL_Driver/Src/stm32l0xx_hal_dma.c **** 
 359:Drivers/STM32L0xx_HAL_Driver/Src/stm32l0xx_hal_dma.c ****     /* Enable the transfer complete interrupt */
 360:Drivers/STM32L0xx_HAL_Driver/Src/stm32l0xx_hal_dma.c ****     /* Enable the transfer Error interrupt */
 361:Drivers/STM32L0xx_HAL_Driver/Src/stm32l0xx_hal_dma.c ****     if(NULL != hdma->XferHalfCpltCallback )
 528              		.loc 1 361 0
 529 0062 FB68     		ldr	r3, [r7, #12]
 530 0064 1B6B     		ldr	r3, [r3, #48]
 531 0066 002B     		cmp	r3, #0
 532 0068 08D0     		beq	.L21
 362:Drivers/STM32L0xx_HAL_Driver/Src/stm32l0xx_hal_dma.c ****     {
 363:Drivers/STM32L0xx_HAL_Driver/Src/stm32l0xx_hal_dma.c ****       /* Enable the Half transfer complete interrupt as well */
 364:Drivers/STM32L0xx_HAL_Driver/Src/stm32l0xx_hal_dma.c ****       __HAL_DMA_ENABLE_IT(hdma, (DMA_IT_TC | DMA_IT_HT | DMA_IT_TE));
 533              		.loc 1 364 0
 534 006a FB68     		ldr	r3, [r7, #12]
 535 006c 1B68     		ldr	r3, [r3]
 536 006e FA68     		ldr	r2, [r7, #12]
 537 0070 1268     		ldr	r2, [r2]
 538 0072 1268     		ldr	r2, [r2]
 539 0074 0E21     		movs	r1, #14
 540 0076 0A43     		orrs	r2, r1
 541 0078 1A60     		str	r2, [r3]
 542 007a 0FE0     		b	.L22
 543              	.L21:
 365:Drivers/STM32L0xx_HAL_Driver/Src/stm32l0xx_hal_dma.c ****     }
 366:Drivers/STM32L0xx_HAL_Driver/Src/stm32l0xx_hal_dma.c ****     else
 367:Drivers/STM32L0xx_HAL_Driver/Src/stm32l0xx_hal_dma.c ****     {
 368:Drivers/STM32L0xx_HAL_Driver/Src/stm32l0xx_hal_dma.c ****       __HAL_DMA_DISABLE_IT(hdma, DMA_IT_HT);
 544              		.loc 1 368 0
 545 007c FB68     		ldr	r3, [r7, #12]
 546 007e 1B68     		ldr	r3, [r3]
 547 0080 FA68     		ldr	r2, [r7, #12]
ARM GAS  /tmp/cc0nDUWo.s 			page 17


 548 0082 1268     		ldr	r2, [r2]
 549 0084 1268     		ldr	r2, [r2]
 550 0086 0421     		movs	r1, #4
 551 0088 8A43     		bics	r2, r1
 552 008a 1A60     		str	r2, [r3]
 369:Drivers/STM32L0xx_HAL_Driver/Src/stm32l0xx_hal_dma.c ****       __HAL_DMA_ENABLE_IT(hdma, (DMA_IT_TC | DMA_IT_TE));
 553              		.loc 1 369 0
 554 008c FB68     		ldr	r3, [r7, #12]
 555 008e 1B68     		ldr	r3, [r3]
 556 0090 FA68     		ldr	r2, [r7, #12]
 557 0092 1268     		ldr	r2, [r2]
 558 0094 1268     		ldr	r2, [r2]
 559 0096 0A21     		movs	r1, #10
 560 0098 0A43     		orrs	r2, r1
 561 009a 1A60     		str	r2, [r3]
 562              	.L22:
 370:Drivers/STM32L0xx_HAL_Driver/Src/stm32l0xx_hal_dma.c ****     }
 371:Drivers/STM32L0xx_HAL_Driver/Src/stm32l0xx_hal_dma.c **** 
 372:Drivers/STM32L0xx_HAL_Driver/Src/stm32l0xx_hal_dma.c ****     /* Enable the Peripheral */
 373:Drivers/STM32L0xx_HAL_Driver/Src/stm32l0xx_hal_dma.c ****     __HAL_DMA_ENABLE(hdma);
 563              		.loc 1 373 0
 564 009c FB68     		ldr	r3, [r7, #12]
 565 009e 1B68     		ldr	r3, [r3]
 566 00a0 FA68     		ldr	r2, [r7, #12]
 567 00a2 1268     		ldr	r2, [r2]
 568 00a4 1268     		ldr	r2, [r2]
 569 00a6 0121     		movs	r1, #1
 570 00a8 0A43     		orrs	r2, r1
 571 00aa 1A60     		str	r2, [r3]
 572 00ac 07E0     		b	.L23
 573              	.L20:
 374:Drivers/STM32L0xx_HAL_Driver/Src/stm32l0xx_hal_dma.c ****   }
 375:Drivers/STM32L0xx_HAL_Driver/Src/stm32l0xx_hal_dma.c ****   else
 376:Drivers/STM32L0xx_HAL_Driver/Src/stm32l0xx_hal_dma.c ****   {
 377:Drivers/STM32L0xx_HAL_Driver/Src/stm32l0xx_hal_dma.c ****     /* Process Unlocked */
 378:Drivers/STM32L0xx_HAL_Driver/Src/stm32l0xx_hal_dma.c ****     __HAL_UNLOCK(hdma);
 574              		.loc 1 378 0
 575 00ae FB68     		ldr	r3, [r7, #12]
 576 00b0 2422     		movs	r2, #36
 577 00b2 0021     		movs	r1, #0
 578 00b4 9954     		strb	r1, [r3, r2]
 379:Drivers/STM32L0xx_HAL_Driver/Src/stm32l0xx_hal_dma.c **** 
 380:Drivers/STM32L0xx_HAL_Driver/Src/stm32l0xx_hal_dma.c ****     /* Remain BUSY */
 381:Drivers/STM32L0xx_HAL_Driver/Src/stm32l0xx_hal_dma.c ****     status = HAL_BUSY;
 579              		.loc 1 381 0
 580 00b6 1723     		movs	r3, #23
 581 00b8 FB18     		adds	r3, r7, r3
 582 00ba 0222     		movs	r2, #2
 583 00bc 1A70     		strb	r2, [r3]
 584              	.L23:
 382:Drivers/STM32L0xx_HAL_Driver/Src/stm32l0xx_hal_dma.c ****   }
 383:Drivers/STM32L0xx_HAL_Driver/Src/stm32l0xx_hal_dma.c ****   return status;
 585              		.loc 1 383 0
 586 00be 1723     		movs	r3, #23
 587 00c0 FB18     		adds	r3, r7, r3
 588 00c2 1B78     		ldrb	r3, [r3]
 589              	.L19:
ARM GAS  /tmp/cc0nDUWo.s 			page 18


 384:Drivers/STM32L0xx_HAL_Driver/Src/stm32l0xx_hal_dma.c **** }
 590              		.loc 1 384 0
 591 00c4 1800     		movs	r0, r3
 592 00c6 BD46     		mov	sp, r7
 593 00c8 06B0     		add	sp, sp, #24
 594              		@ sp needed
 595 00ca 80BD     		pop	{r7, pc}
 596              		.cfi_endproc
 597              	.LFE37:
 599              		.section	.text.HAL_DMA_Abort,"ax",%progbits
 600              		.align	1
 601              		.global	HAL_DMA_Abort
 602              		.syntax unified
 603              		.code	16
 604              		.thumb_func
 605              		.fpu softvfp
 607              	HAL_DMA_Abort:
 608              	.LFB38:
 385:Drivers/STM32L0xx_HAL_Driver/Src/stm32l0xx_hal_dma.c **** 
 386:Drivers/STM32L0xx_HAL_Driver/Src/stm32l0xx_hal_dma.c **** /**
 387:Drivers/STM32L0xx_HAL_Driver/Src/stm32l0xx_hal_dma.c ****   * @brief  Abort the DMA Transfer.
 388:Drivers/STM32L0xx_HAL_Driver/Src/stm32l0xx_hal_dma.c ****   * @param  hdma pointer to a DMA_HandleTypeDef structure that contains
 389:Drivers/STM32L0xx_HAL_Driver/Src/stm32l0xx_hal_dma.c ****   *               the configuration information for the specified DMA Channel.
 390:Drivers/STM32L0xx_HAL_Driver/Src/stm32l0xx_hal_dma.c ****     * @retval HAL status
 391:Drivers/STM32L0xx_HAL_Driver/Src/stm32l0xx_hal_dma.c ****   */
 392:Drivers/STM32L0xx_HAL_Driver/Src/stm32l0xx_hal_dma.c **** HAL_StatusTypeDef HAL_DMA_Abort(DMA_HandleTypeDef *hdma)
 393:Drivers/STM32L0xx_HAL_Driver/Src/stm32l0xx_hal_dma.c **** {
 609              		.loc 1 393 0
 610              		.cfi_startproc
 611              		@ args = 0, pretend = 0, frame = 16
 612              		@ frame_needed = 1, uses_anonymous_args = 0
 613 0000 80B5     		push	{r7, lr}
 614              	.LCFI12:
 615              		.cfi_def_cfa_offset 8
 616              		.cfi_offset 7, -8
 617              		.cfi_offset 14, -4
 618 0002 84B0     		sub	sp, sp, #16
 619              	.LCFI13:
 620              		.cfi_def_cfa_offset 24
 621 0004 00AF     		add	r7, sp, #0
 622              	.LCFI14:
 623              		.cfi_def_cfa_register 7
 624 0006 7860     		str	r0, [r7, #4]
 394:Drivers/STM32L0xx_HAL_Driver/Src/stm32l0xx_hal_dma.c ****   HAL_StatusTypeDef status = HAL_OK;
 625              		.loc 1 394 0
 626 0008 0F23     		movs	r3, #15
 627 000a FB18     		adds	r3, r7, r3
 628 000c 0022     		movs	r2, #0
 629 000e 1A70     		strb	r2, [r3]
 395:Drivers/STM32L0xx_HAL_Driver/Src/stm32l0xx_hal_dma.c **** 
 396:Drivers/STM32L0xx_HAL_Driver/Src/stm32l0xx_hal_dma.c ****   /* Check the DMA peripheral state */
 397:Drivers/STM32L0xx_HAL_Driver/Src/stm32l0xx_hal_dma.c ****   if(hdma->State != HAL_DMA_STATE_BUSY)
 630              		.loc 1 397 0
 631 0010 7B68     		ldr	r3, [r7, #4]
 632 0012 2522     		movs	r2, #37
 633 0014 9B5C     		ldrb	r3, [r3, r2]
 634 0016 DBB2     		uxtb	r3, r3
ARM GAS  /tmp/cc0nDUWo.s 			page 19


 635 0018 022B     		cmp	r3, #2
 636 001a 08D0     		beq	.L25
 398:Drivers/STM32L0xx_HAL_Driver/Src/stm32l0xx_hal_dma.c ****   {
 399:Drivers/STM32L0xx_HAL_Driver/Src/stm32l0xx_hal_dma.c ****     hdma->ErrorCode = HAL_DMA_ERROR_NO_XFER;
 637              		.loc 1 399 0
 638 001c 7B68     		ldr	r3, [r7, #4]
 639 001e 0422     		movs	r2, #4
 640 0020 DA63     		str	r2, [r3, #60]
 400:Drivers/STM32L0xx_HAL_Driver/Src/stm32l0xx_hal_dma.c **** 
 401:Drivers/STM32L0xx_HAL_Driver/Src/stm32l0xx_hal_dma.c ****     /* Process Unlocked */
 402:Drivers/STM32L0xx_HAL_Driver/Src/stm32l0xx_hal_dma.c ****     __HAL_UNLOCK(hdma);
 641              		.loc 1 402 0
 642 0022 7B68     		ldr	r3, [r7, #4]
 643 0024 2422     		movs	r2, #36
 644 0026 0021     		movs	r1, #0
 645 0028 9954     		strb	r1, [r3, r2]
 403:Drivers/STM32L0xx_HAL_Driver/Src/stm32l0xx_hal_dma.c **** 
 404:Drivers/STM32L0xx_HAL_Driver/Src/stm32l0xx_hal_dma.c ****     return HAL_ERROR;
 646              		.loc 1 404 0
 647 002a 0123     		movs	r3, #1
 648 002c 24E0     		b	.L26
 649              	.L25:
 405:Drivers/STM32L0xx_HAL_Driver/Src/stm32l0xx_hal_dma.c ****   }
 406:Drivers/STM32L0xx_HAL_Driver/Src/stm32l0xx_hal_dma.c ****   else
 407:Drivers/STM32L0xx_HAL_Driver/Src/stm32l0xx_hal_dma.c ****   {
 408:Drivers/STM32L0xx_HAL_Driver/Src/stm32l0xx_hal_dma.c ****     /* Disable DMA IT */
 409:Drivers/STM32L0xx_HAL_Driver/Src/stm32l0xx_hal_dma.c ****     __HAL_DMA_DISABLE_IT(hdma, (DMA_IT_TC | DMA_IT_HT | DMA_IT_TE));
 650              		.loc 1 409 0
 651 002e 7B68     		ldr	r3, [r7, #4]
 652 0030 1B68     		ldr	r3, [r3]
 653 0032 7A68     		ldr	r2, [r7, #4]
 654 0034 1268     		ldr	r2, [r2]
 655 0036 1268     		ldr	r2, [r2]
 656 0038 0E21     		movs	r1, #14
 657 003a 8A43     		bics	r2, r1
 658 003c 1A60     		str	r2, [r3]
 410:Drivers/STM32L0xx_HAL_Driver/Src/stm32l0xx_hal_dma.c **** 
 411:Drivers/STM32L0xx_HAL_Driver/Src/stm32l0xx_hal_dma.c ****     /* Disable the channel */
 412:Drivers/STM32L0xx_HAL_Driver/Src/stm32l0xx_hal_dma.c ****     __HAL_DMA_DISABLE(hdma);
 659              		.loc 1 412 0
 660 003e 7B68     		ldr	r3, [r7, #4]
 661 0040 1B68     		ldr	r3, [r3]
 662 0042 7A68     		ldr	r2, [r7, #4]
 663 0044 1268     		ldr	r2, [r2]
 664 0046 1268     		ldr	r2, [r2]
 665 0048 0121     		movs	r1, #1
 666 004a 8A43     		bics	r2, r1
 667 004c 1A60     		str	r2, [r3]
 413:Drivers/STM32L0xx_HAL_Driver/Src/stm32l0xx_hal_dma.c **** 
 414:Drivers/STM32L0xx_HAL_Driver/Src/stm32l0xx_hal_dma.c ****     /* Clear all flags */
 415:Drivers/STM32L0xx_HAL_Driver/Src/stm32l0xx_hal_dma.c ****     hdma->DmaBaseAddress->IFCR = (DMA_ISR_GIF1 << (hdma->ChannelIndex & 0x1cU));
 668              		.loc 1 415 0
 669 004e 7B68     		ldr	r3, [r7, #4]
 670 0050 1B6C     		ldr	r3, [r3, #64]
 671 0052 7A68     		ldr	r2, [r7, #4]
 672 0054 526C     		ldr	r2, [r2, #68]
 673 0056 1C21     		movs	r1, #28
ARM GAS  /tmp/cc0nDUWo.s 			page 20


 674 0058 0A40     		ands	r2, r1
 675 005a 0121     		movs	r1, #1
 676 005c 9140     		lsls	r1, r1, r2
 677 005e 0A00     		movs	r2, r1
 678 0060 5A60     		str	r2, [r3, #4]
 416:Drivers/STM32L0xx_HAL_Driver/Src/stm32l0xx_hal_dma.c **** 
 417:Drivers/STM32L0xx_HAL_Driver/Src/stm32l0xx_hal_dma.c ****     /* Change the DMA state */
 418:Drivers/STM32L0xx_HAL_Driver/Src/stm32l0xx_hal_dma.c ****     hdma->State = HAL_DMA_STATE_READY;
 679              		.loc 1 418 0
 680 0062 7B68     		ldr	r3, [r7, #4]
 681 0064 2522     		movs	r2, #37
 682 0066 0121     		movs	r1, #1
 683 0068 9954     		strb	r1, [r3, r2]
 419:Drivers/STM32L0xx_HAL_Driver/Src/stm32l0xx_hal_dma.c **** 
 420:Drivers/STM32L0xx_HAL_Driver/Src/stm32l0xx_hal_dma.c ****     /* Process Unlocked */
 421:Drivers/STM32L0xx_HAL_Driver/Src/stm32l0xx_hal_dma.c ****     __HAL_UNLOCK(hdma);
 684              		.loc 1 421 0
 685 006a 7B68     		ldr	r3, [r7, #4]
 686 006c 2422     		movs	r2, #36
 687 006e 0021     		movs	r1, #0
 688 0070 9954     		strb	r1, [r3, r2]
 422:Drivers/STM32L0xx_HAL_Driver/Src/stm32l0xx_hal_dma.c **** 
 423:Drivers/STM32L0xx_HAL_Driver/Src/stm32l0xx_hal_dma.c ****     return status;
 689              		.loc 1 423 0
 690 0072 0F23     		movs	r3, #15
 691 0074 FB18     		adds	r3, r7, r3
 692 0076 1B78     		ldrb	r3, [r3]
 693              	.L26:
 424:Drivers/STM32L0xx_HAL_Driver/Src/stm32l0xx_hal_dma.c ****   }
 425:Drivers/STM32L0xx_HAL_Driver/Src/stm32l0xx_hal_dma.c **** }
 694              		.loc 1 425 0
 695 0078 1800     		movs	r0, r3
 696 007a BD46     		mov	sp, r7
 697 007c 04B0     		add	sp, sp, #16
 698              		@ sp needed
 699 007e 80BD     		pop	{r7, pc}
 700              		.cfi_endproc
 701              	.LFE38:
 703              		.section	.text.HAL_DMA_Abort_IT,"ax",%progbits
 704              		.align	1
 705              		.global	HAL_DMA_Abort_IT
 706              		.syntax unified
 707              		.code	16
 708              		.thumb_func
 709              		.fpu softvfp
 711              	HAL_DMA_Abort_IT:
 712              	.LFB39:
 426:Drivers/STM32L0xx_HAL_Driver/Src/stm32l0xx_hal_dma.c **** 
 427:Drivers/STM32L0xx_HAL_Driver/Src/stm32l0xx_hal_dma.c **** /**
 428:Drivers/STM32L0xx_HAL_Driver/Src/stm32l0xx_hal_dma.c ****   * @brief  Aborts the DMA Transfer in Interrupt mode.
 429:Drivers/STM32L0xx_HAL_Driver/Src/stm32l0xx_hal_dma.c ****   * @param  hdma pointer to a DMA_HandleTypeDef structure that contains
 430:Drivers/STM32L0xx_HAL_Driver/Src/stm32l0xx_hal_dma.c ****   *                 the configuration information for the specified DMA Channel.
 431:Drivers/STM32L0xx_HAL_Driver/Src/stm32l0xx_hal_dma.c ****   * @retval HAL status
 432:Drivers/STM32L0xx_HAL_Driver/Src/stm32l0xx_hal_dma.c ****   */
 433:Drivers/STM32L0xx_HAL_Driver/Src/stm32l0xx_hal_dma.c **** HAL_StatusTypeDef HAL_DMA_Abort_IT(DMA_HandleTypeDef *hdma)
 434:Drivers/STM32L0xx_HAL_Driver/Src/stm32l0xx_hal_dma.c **** {
 713              		.loc 1 434 0
ARM GAS  /tmp/cc0nDUWo.s 			page 21


 714              		.cfi_startproc
 715              		@ args = 0, pretend = 0, frame = 16
 716              		@ frame_needed = 1, uses_anonymous_args = 0
 717 0000 80B5     		push	{r7, lr}
 718              	.LCFI15:
 719              		.cfi_def_cfa_offset 8
 720              		.cfi_offset 7, -8
 721              		.cfi_offset 14, -4
 722 0002 84B0     		sub	sp, sp, #16
 723              	.LCFI16:
 724              		.cfi_def_cfa_offset 24
 725 0004 00AF     		add	r7, sp, #0
 726              	.LCFI17:
 727              		.cfi_def_cfa_register 7
 728 0006 7860     		str	r0, [r7, #4]
 435:Drivers/STM32L0xx_HAL_Driver/Src/stm32l0xx_hal_dma.c ****   HAL_StatusTypeDef status = HAL_OK;
 729              		.loc 1 435 0
 730 0008 0F23     		movs	r3, #15
 731 000a FB18     		adds	r3, r7, r3
 732 000c 0022     		movs	r2, #0
 733 000e 1A70     		strb	r2, [r3]
 436:Drivers/STM32L0xx_HAL_Driver/Src/stm32l0xx_hal_dma.c **** 
 437:Drivers/STM32L0xx_HAL_Driver/Src/stm32l0xx_hal_dma.c ****   if(HAL_DMA_STATE_BUSY != hdma->State)
 734              		.loc 1 437 0
 735 0010 7B68     		ldr	r3, [r7, #4]
 736 0012 2522     		movs	r2, #37
 737 0014 9B5C     		ldrb	r3, [r3, r2]
 738 0016 DBB2     		uxtb	r3, r3
 739 0018 022B     		cmp	r3, #2
 740 001a 07D0     		beq	.L28
 438:Drivers/STM32L0xx_HAL_Driver/Src/stm32l0xx_hal_dma.c ****   {
 439:Drivers/STM32L0xx_HAL_Driver/Src/stm32l0xx_hal_dma.c ****     /* no transfer ongoing */
 440:Drivers/STM32L0xx_HAL_Driver/Src/stm32l0xx_hal_dma.c ****     hdma->ErrorCode = HAL_DMA_ERROR_NO_XFER;
 741              		.loc 1 440 0
 742 001c 7B68     		ldr	r3, [r7, #4]
 743 001e 0422     		movs	r2, #4
 744 0020 DA63     		str	r2, [r3, #60]
 441:Drivers/STM32L0xx_HAL_Driver/Src/stm32l0xx_hal_dma.c **** 
 442:Drivers/STM32L0xx_HAL_Driver/Src/stm32l0xx_hal_dma.c ****     status = HAL_ERROR;
 745              		.loc 1 442 0
 746 0022 0F23     		movs	r3, #15
 747 0024 FB18     		adds	r3, r7, r3
 748 0026 0122     		movs	r2, #1
 749 0028 1A70     		strb	r2, [r3]
 750 002a 2AE0     		b	.L29
 751              	.L28:
 443:Drivers/STM32L0xx_HAL_Driver/Src/stm32l0xx_hal_dma.c ****   }
 444:Drivers/STM32L0xx_HAL_Driver/Src/stm32l0xx_hal_dma.c ****   else
 445:Drivers/STM32L0xx_HAL_Driver/Src/stm32l0xx_hal_dma.c ****   {
 446:Drivers/STM32L0xx_HAL_Driver/Src/stm32l0xx_hal_dma.c ****     /* Disable DMA IT */
 447:Drivers/STM32L0xx_HAL_Driver/Src/stm32l0xx_hal_dma.c ****     __HAL_DMA_DISABLE_IT(hdma, (DMA_IT_TC | DMA_IT_HT | DMA_IT_TE));
 752              		.loc 1 447 0
 753 002c 7B68     		ldr	r3, [r7, #4]
 754 002e 1B68     		ldr	r3, [r3]
 755 0030 7A68     		ldr	r2, [r7, #4]
 756 0032 1268     		ldr	r2, [r2]
 757 0034 1268     		ldr	r2, [r2]
ARM GAS  /tmp/cc0nDUWo.s 			page 22


 758 0036 0E21     		movs	r1, #14
 759 0038 8A43     		bics	r2, r1
 760 003a 1A60     		str	r2, [r3]
 448:Drivers/STM32L0xx_HAL_Driver/Src/stm32l0xx_hal_dma.c **** 
 449:Drivers/STM32L0xx_HAL_Driver/Src/stm32l0xx_hal_dma.c ****     /* Disable the channel */
 450:Drivers/STM32L0xx_HAL_Driver/Src/stm32l0xx_hal_dma.c ****     __HAL_DMA_DISABLE(hdma);
 761              		.loc 1 450 0
 762 003c 7B68     		ldr	r3, [r7, #4]
 763 003e 1B68     		ldr	r3, [r3]
 764 0040 7A68     		ldr	r2, [r7, #4]
 765 0042 1268     		ldr	r2, [r2]
 766 0044 1268     		ldr	r2, [r2]
 767 0046 0121     		movs	r1, #1
 768 0048 8A43     		bics	r2, r1
 769 004a 1A60     		str	r2, [r3]
 451:Drivers/STM32L0xx_HAL_Driver/Src/stm32l0xx_hal_dma.c **** 
 452:Drivers/STM32L0xx_HAL_Driver/Src/stm32l0xx_hal_dma.c ****     /* Clear all flags */
 453:Drivers/STM32L0xx_HAL_Driver/Src/stm32l0xx_hal_dma.c ****     hdma->DmaBaseAddress->IFCR = (DMA_ISR_GIF1 << (hdma->ChannelIndex & 0x1cU));
 770              		.loc 1 453 0
 771 004c 7B68     		ldr	r3, [r7, #4]
 772 004e 1B6C     		ldr	r3, [r3, #64]
 773 0050 7A68     		ldr	r2, [r7, #4]
 774 0052 526C     		ldr	r2, [r2, #68]
 775 0054 1C21     		movs	r1, #28
 776 0056 0A40     		ands	r2, r1
 777 0058 0121     		movs	r1, #1
 778 005a 9140     		lsls	r1, r1, r2
 779 005c 0A00     		movs	r2, r1
 780 005e 5A60     		str	r2, [r3, #4]
 454:Drivers/STM32L0xx_HAL_Driver/Src/stm32l0xx_hal_dma.c **** 
 455:Drivers/STM32L0xx_HAL_Driver/Src/stm32l0xx_hal_dma.c ****     /* Change the DMA state */
 456:Drivers/STM32L0xx_HAL_Driver/Src/stm32l0xx_hal_dma.c ****     hdma->State = HAL_DMA_STATE_READY;
 781              		.loc 1 456 0
 782 0060 7B68     		ldr	r3, [r7, #4]
 783 0062 2522     		movs	r2, #37
 784 0064 0121     		movs	r1, #1
 785 0066 9954     		strb	r1, [r3, r2]
 457:Drivers/STM32L0xx_HAL_Driver/Src/stm32l0xx_hal_dma.c **** 
 458:Drivers/STM32L0xx_HAL_Driver/Src/stm32l0xx_hal_dma.c ****     /* Process Unlocked */
 459:Drivers/STM32L0xx_HAL_Driver/Src/stm32l0xx_hal_dma.c ****     __HAL_UNLOCK(hdma);
 786              		.loc 1 459 0
 787 0068 7B68     		ldr	r3, [r7, #4]
 788 006a 2422     		movs	r2, #36
 789 006c 0021     		movs	r1, #0
 790 006e 9954     		strb	r1, [r3, r2]
 460:Drivers/STM32L0xx_HAL_Driver/Src/stm32l0xx_hal_dma.c **** 
 461:Drivers/STM32L0xx_HAL_Driver/Src/stm32l0xx_hal_dma.c ****     /* Call User Abort callback */
 462:Drivers/STM32L0xx_HAL_Driver/Src/stm32l0xx_hal_dma.c ****     if(hdma->XferAbortCallback != NULL)
 791              		.loc 1 462 0
 792 0070 7B68     		ldr	r3, [r7, #4]
 793 0072 9B6B     		ldr	r3, [r3, #56]
 794 0074 002B     		cmp	r3, #0
 795 0076 04D0     		beq	.L29
 463:Drivers/STM32L0xx_HAL_Driver/Src/stm32l0xx_hal_dma.c ****     {
 464:Drivers/STM32L0xx_HAL_Driver/Src/stm32l0xx_hal_dma.c ****       hdma->XferAbortCallback(hdma);
 796              		.loc 1 464 0
 797 0078 7B68     		ldr	r3, [r7, #4]
ARM GAS  /tmp/cc0nDUWo.s 			page 23


 798 007a 9B6B     		ldr	r3, [r3, #56]
 799 007c 7A68     		ldr	r2, [r7, #4]
 800 007e 1000     		movs	r0, r2
 801 0080 9847     		blx	r3
 802              	.LVL2:
 803              	.L29:
 465:Drivers/STM32L0xx_HAL_Driver/Src/stm32l0xx_hal_dma.c ****     }
 466:Drivers/STM32L0xx_HAL_Driver/Src/stm32l0xx_hal_dma.c ****   }
 467:Drivers/STM32L0xx_HAL_Driver/Src/stm32l0xx_hal_dma.c ****   return status;
 804              		.loc 1 467 0
 805 0082 0F23     		movs	r3, #15
 806 0084 FB18     		adds	r3, r7, r3
 807 0086 1B78     		ldrb	r3, [r3]
 468:Drivers/STM32L0xx_HAL_Driver/Src/stm32l0xx_hal_dma.c **** }
 808              		.loc 1 468 0
 809 0088 1800     		movs	r0, r3
 810 008a BD46     		mov	sp, r7
 811 008c 04B0     		add	sp, sp, #16
 812              		@ sp needed
 813 008e 80BD     		pop	{r7, pc}
 814              		.cfi_endproc
 815              	.LFE39:
 817              		.section	.text.HAL_DMA_PollForTransfer,"ax",%progbits
 818              		.align	1
 819              		.global	HAL_DMA_PollForTransfer
 820              		.syntax unified
 821              		.code	16
 822              		.thumb_func
 823              		.fpu softvfp
 825              	HAL_DMA_PollForTransfer:
 826              	.LFB40:
 469:Drivers/STM32L0xx_HAL_Driver/Src/stm32l0xx_hal_dma.c **** 
 470:Drivers/STM32L0xx_HAL_Driver/Src/stm32l0xx_hal_dma.c **** /**
 471:Drivers/STM32L0xx_HAL_Driver/Src/stm32l0xx_hal_dma.c ****   * @brief  Polling for transfer complete.
 472:Drivers/STM32L0xx_HAL_Driver/Src/stm32l0xx_hal_dma.c ****   * @param  hdma pointer to a DMA_HandleTypeDef structure that contains
 473:Drivers/STM32L0xx_HAL_Driver/Src/stm32l0xx_hal_dma.c ****   *                  the configuration information for the specified DMA Channel.
 474:Drivers/STM32L0xx_HAL_Driver/Src/stm32l0xx_hal_dma.c ****   * @param  CompleteLevel Specifies the DMA level complete.
 475:Drivers/STM32L0xx_HAL_Driver/Src/stm32l0xx_hal_dma.c ****   * @param  Timeout       Timeout duration.
 476:Drivers/STM32L0xx_HAL_Driver/Src/stm32l0xx_hal_dma.c ****   * @retval HAL status
 477:Drivers/STM32L0xx_HAL_Driver/Src/stm32l0xx_hal_dma.c ****   */
 478:Drivers/STM32L0xx_HAL_Driver/Src/stm32l0xx_hal_dma.c **** HAL_StatusTypeDef HAL_DMA_PollForTransfer(DMA_HandleTypeDef *hdma, HAL_DMA_LevelCompleteTypeDef Com
 479:Drivers/STM32L0xx_HAL_Driver/Src/stm32l0xx_hal_dma.c **** {
 827              		.loc 1 479 0
 828              		.cfi_startproc
 829              		@ args = 0, pretend = 0, frame = 24
 830              		@ frame_needed = 1, uses_anonymous_args = 0
 831 0000 80B5     		push	{r7, lr}
 832              	.LCFI18:
 833              		.cfi_def_cfa_offset 8
 834              		.cfi_offset 7, -8
 835              		.cfi_offset 14, -4
 836 0002 86B0     		sub	sp, sp, #24
 837              	.LCFI19:
 838              		.cfi_def_cfa_offset 32
 839 0004 00AF     		add	r7, sp, #0
 840              	.LCFI20:
 841              		.cfi_def_cfa_register 7
ARM GAS  /tmp/cc0nDUWo.s 			page 24


 842 0006 F860     		str	r0, [r7, #12]
 843 0008 7A60     		str	r2, [r7, #4]
 844 000a 0B23     		movs	r3, #11
 845 000c FB18     		adds	r3, r7, r3
 846 000e 0A1C     		adds	r2, r1, #0
 847 0010 1A70     		strb	r2, [r3]
 480:Drivers/STM32L0xx_HAL_Driver/Src/stm32l0xx_hal_dma.c ****   uint32_t temp;
 481:Drivers/STM32L0xx_HAL_Driver/Src/stm32l0xx_hal_dma.c ****   uint32_t tickstart;
 482:Drivers/STM32L0xx_HAL_Driver/Src/stm32l0xx_hal_dma.c **** 
 483:Drivers/STM32L0xx_HAL_Driver/Src/stm32l0xx_hal_dma.c ****   if(HAL_DMA_STATE_BUSY != hdma->State)
 848              		.loc 1 483 0
 849 0012 FB68     		ldr	r3, [r7, #12]
 850 0014 2522     		movs	r2, #37
 851 0016 9B5C     		ldrb	r3, [r3, r2]
 852 0018 DBB2     		uxtb	r3, r3
 853 001a 022B     		cmp	r3, #2
 854 001c 08D0     		beq	.L32
 484:Drivers/STM32L0xx_HAL_Driver/Src/stm32l0xx_hal_dma.c ****   {
 485:Drivers/STM32L0xx_HAL_Driver/Src/stm32l0xx_hal_dma.c ****     /* no transfer ongoing */
 486:Drivers/STM32L0xx_HAL_Driver/Src/stm32l0xx_hal_dma.c ****     hdma->ErrorCode = HAL_DMA_ERROR_NO_XFER;
 855              		.loc 1 486 0
 856 001e FB68     		ldr	r3, [r7, #12]
 857 0020 0422     		movs	r2, #4
 858 0022 DA63     		str	r2, [r3, #60]
 487:Drivers/STM32L0xx_HAL_Driver/Src/stm32l0xx_hal_dma.c ****     __HAL_UNLOCK(hdma);
 859              		.loc 1 487 0
 860 0024 FB68     		ldr	r3, [r7, #12]
 861 0026 2422     		movs	r2, #36
 862 0028 0021     		movs	r1, #0
 863 002a 9954     		strb	r1, [r3, r2]
 488:Drivers/STM32L0xx_HAL_Driver/Src/stm32l0xx_hal_dma.c ****     return HAL_ERROR;
 864              		.loc 1 488 0
 865 002c 0123     		movs	r3, #1
 866 002e 8DE0     		b	.L33
 867              	.L32:
 489:Drivers/STM32L0xx_HAL_Driver/Src/stm32l0xx_hal_dma.c ****   }
 490:Drivers/STM32L0xx_HAL_Driver/Src/stm32l0xx_hal_dma.c **** 
 491:Drivers/STM32L0xx_HAL_Driver/Src/stm32l0xx_hal_dma.c ****   /* Polling mode not supported in circular mode */
 492:Drivers/STM32L0xx_HAL_Driver/Src/stm32l0xx_hal_dma.c ****   if (0U != (hdma->Instance->CCR & DMA_CCR_CIRC))
 868              		.loc 1 492 0
 869 0030 FB68     		ldr	r3, [r7, #12]
 870 0032 1B68     		ldr	r3, [r3]
 871 0034 1B68     		ldr	r3, [r3]
 872 0036 2022     		movs	r2, #32
 873 0038 1340     		ands	r3, r2
 874 003a 05D0     		beq	.L34
 493:Drivers/STM32L0xx_HAL_Driver/Src/stm32l0xx_hal_dma.c ****   {
 494:Drivers/STM32L0xx_HAL_Driver/Src/stm32l0xx_hal_dma.c ****     hdma->ErrorCode = HAL_DMA_ERROR_NOT_SUPPORTED;
 875              		.loc 1 494 0
 876 003c FB68     		ldr	r3, [r7, #12]
 877 003e 8022     		movs	r2, #128
 878 0040 5200     		lsls	r2, r2, #1
 879 0042 DA63     		str	r2, [r3, #60]
 495:Drivers/STM32L0xx_HAL_Driver/Src/stm32l0xx_hal_dma.c ****     return HAL_ERROR;
 880              		.loc 1 495 0
 881 0044 0123     		movs	r3, #1
 882 0046 81E0     		b	.L33
ARM GAS  /tmp/cc0nDUWo.s 			page 25


 883              	.L34:
 496:Drivers/STM32L0xx_HAL_Driver/Src/stm32l0xx_hal_dma.c ****   }
 497:Drivers/STM32L0xx_HAL_Driver/Src/stm32l0xx_hal_dma.c **** 
 498:Drivers/STM32L0xx_HAL_Driver/Src/stm32l0xx_hal_dma.c ****   /* Get the level transfer complete flag */
 499:Drivers/STM32L0xx_HAL_Driver/Src/stm32l0xx_hal_dma.c ****   if (HAL_DMA_FULL_TRANSFER == CompleteLevel)
 884              		.loc 1 499 0
 885 0048 0B23     		movs	r3, #11
 886 004a FB18     		adds	r3, r7, r3
 887 004c 1B78     		ldrb	r3, [r3]
 888 004e 002B     		cmp	r3, #0
 889 0050 08D1     		bne	.L35
 500:Drivers/STM32L0xx_HAL_Driver/Src/stm32l0xx_hal_dma.c ****   {
 501:Drivers/STM32L0xx_HAL_Driver/Src/stm32l0xx_hal_dma.c ****     /* Transfer Complete flag */
 502:Drivers/STM32L0xx_HAL_Driver/Src/stm32l0xx_hal_dma.c ****     temp = DMA_FLAG_TC1 << (hdma->ChannelIndex & 0x1cU);
 890              		.loc 1 502 0
 891 0052 FB68     		ldr	r3, [r7, #12]
 892 0054 5B6C     		ldr	r3, [r3, #68]
 893 0056 1C22     		movs	r2, #28
 894 0058 1340     		ands	r3, r2
 895 005a 0222     		movs	r2, #2
 896 005c 9A40     		lsls	r2, r2, r3
 897 005e 1300     		movs	r3, r2
 898 0060 7B61     		str	r3, [r7, #20]
 899 0062 07E0     		b	.L36
 900              	.L35:
 503:Drivers/STM32L0xx_HAL_Driver/Src/stm32l0xx_hal_dma.c ****   }
 504:Drivers/STM32L0xx_HAL_Driver/Src/stm32l0xx_hal_dma.c ****   else
 505:Drivers/STM32L0xx_HAL_Driver/Src/stm32l0xx_hal_dma.c ****   {
 506:Drivers/STM32L0xx_HAL_Driver/Src/stm32l0xx_hal_dma.c ****     /* Half Transfer Complete flag */
 507:Drivers/STM32L0xx_HAL_Driver/Src/stm32l0xx_hal_dma.c ****     temp = DMA_FLAG_HT1 << (hdma->ChannelIndex & 0x1cU);
 901              		.loc 1 507 0
 902 0064 FB68     		ldr	r3, [r7, #12]
 903 0066 5B6C     		ldr	r3, [r3, #68]
 904 0068 1C22     		movs	r2, #28
 905 006a 1340     		ands	r3, r2
 906 006c 0422     		movs	r2, #4
 907 006e 9A40     		lsls	r2, r2, r3
 908 0070 1300     		movs	r3, r2
 909 0072 7B61     		str	r3, [r7, #20]
 910              	.L36:
 508:Drivers/STM32L0xx_HAL_Driver/Src/stm32l0xx_hal_dma.c ****   }
 509:Drivers/STM32L0xx_HAL_Driver/Src/stm32l0xx_hal_dma.c **** 
 510:Drivers/STM32L0xx_HAL_Driver/Src/stm32l0xx_hal_dma.c ****   /* Get tick */
 511:Drivers/STM32L0xx_HAL_Driver/Src/stm32l0xx_hal_dma.c ****   tickstart = HAL_GetTick();
 911              		.loc 1 511 0
 912 0074 FFF7FEFF 		bl	HAL_GetTick
 913 0078 0300     		movs	r3, r0
 914 007a 3B61     		str	r3, [r7, #16]
 512:Drivers/STM32L0xx_HAL_Driver/Src/stm32l0xx_hal_dma.c **** 
 513:Drivers/STM32L0xx_HAL_Driver/Src/stm32l0xx_hal_dma.c ****   while(0U == (hdma->DmaBaseAddress->ISR & temp))
 915              		.loc 1 513 0
 916 007c 3DE0     		b	.L37
 917              	.L40:
 514:Drivers/STM32L0xx_HAL_Driver/Src/stm32l0xx_hal_dma.c ****   {
 515:Drivers/STM32L0xx_HAL_Driver/Src/stm32l0xx_hal_dma.c ****     if((0U != (hdma->DmaBaseAddress->ISR & (DMA_FLAG_TE1 << (hdma->ChannelIndex& 0x1cU)))))
 918              		.loc 1 515 0
 919 007e FB68     		ldr	r3, [r7, #12]
ARM GAS  /tmp/cc0nDUWo.s 			page 26


 920 0080 1B6C     		ldr	r3, [r3, #64]
 921 0082 1A68     		ldr	r2, [r3]
 922 0084 FB68     		ldr	r3, [r7, #12]
 923 0086 5B6C     		ldr	r3, [r3, #68]
 924 0088 1C21     		movs	r1, #28
 925 008a 0B40     		ands	r3, r1
 926 008c 0821     		movs	r1, #8
 927 008e 9940     		lsls	r1, r1, r3
 928 0090 0B00     		movs	r3, r1
 929 0092 1340     		ands	r3, r2
 930 0094 16D0     		beq	.L38
 516:Drivers/STM32L0xx_HAL_Driver/Src/stm32l0xx_hal_dma.c ****     {
 517:Drivers/STM32L0xx_HAL_Driver/Src/stm32l0xx_hal_dma.c ****       /* When a DMA transfer error occurs */
 518:Drivers/STM32L0xx_HAL_Driver/Src/stm32l0xx_hal_dma.c ****       /* A hardware clear of its EN bits is performed */
 519:Drivers/STM32L0xx_HAL_Driver/Src/stm32l0xx_hal_dma.c ****       /* Clear all flags */
 520:Drivers/STM32L0xx_HAL_Driver/Src/stm32l0xx_hal_dma.c ****       hdma->DmaBaseAddress->IFCR = (DMA_ISR_GIF1 << (hdma->ChannelIndex & 0x1cU));
 931              		.loc 1 520 0
 932 0096 FB68     		ldr	r3, [r7, #12]
 933 0098 1B6C     		ldr	r3, [r3, #64]
 934 009a FA68     		ldr	r2, [r7, #12]
 935 009c 526C     		ldr	r2, [r2, #68]
 936 009e 1C21     		movs	r1, #28
 937 00a0 0A40     		ands	r2, r1
 938 00a2 0121     		movs	r1, #1
 939 00a4 9140     		lsls	r1, r1, r2
 940 00a6 0A00     		movs	r2, r1
 941 00a8 5A60     		str	r2, [r3, #4]
 521:Drivers/STM32L0xx_HAL_Driver/Src/stm32l0xx_hal_dma.c **** 
 522:Drivers/STM32L0xx_HAL_Driver/Src/stm32l0xx_hal_dma.c ****       /* Update error code */
 523:Drivers/STM32L0xx_HAL_Driver/Src/stm32l0xx_hal_dma.c ****       hdma->ErrorCode = HAL_DMA_ERROR_TE;
 942              		.loc 1 523 0
 943 00aa FB68     		ldr	r3, [r7, #12]
 944 00ac 0122     		movs	r2, #1
 945 00ae DA63     		str	r2, [r3, #60]
 524:Drivers/STM32L0xx_HAL_Driver/Src/stm32l0xx_hal_dma.c **** 
 525:Drivers/STM32L0xx_HAL_Driver/Src/stm32l0xx_hal_dma.c ****       /* Change the DMA state */
 526:Drivers/STM32L0xx_HAL_Driver/Src/stm32l0xx_hal_dma.c ****       hdma->State= HAL_DMA_STATE_READY;
 946              		.loc 1 526 0
 947 00b0 FB68     		ldr	r3, [r7, #12]
 948 00b2 2522     		movs	r2, #37
 949 00b4 0121     		movs	r1, #1
 950 00b6 9954     		strb	r1, [r3, r2]
 527:Drivers/STM32L0xx_HAL_Driver/Src/stm32l0xx_hal_dma.c **** 
 528:Drivers/STM32L0xx_HAL_Driver/Src/stm32l0xx_hal_dma.c ****       /* Process Unlocked */
 529:Drivers/STM32L0xx_HAL_Driver/Src/stm32l0xx_hal_dma.c ****       __HAL_UNLOCK(hdma);
 951              		.loc 1 529 0
 952 00b8 FB68     		ldr	r3, [r7, #12]
 953 00ba 2422     		movs	r2, #36
 954 00bc 0021     		movs	r1, #0
 955 00be 9954     		strb	r1, [r3, r2]
 530:Drivers/STM32L0xx_HAL_Driver/Src/stm32l0xx_hal_dma.c **** 
 531:Drivers/STM32L0xx_HAL_Driver/Src/stm32l0xx_hal_dma.c ****       return HAL_ERROR;
 956              		.loc 1 531 0
 957 00c0 0123     		movs	r3, #1
 958 00c2 43E0     		b	.L33
 959              	.L38:
 532:Drivers/STM32L0xx_HAL_Driver/Src/stm32l0xx_hal_dma.c ****     }
ARM GAS  /tmp/cc0nDUWo.s 			page 27


 533:Drivers/STM32L0xx_HAL_Driver/Src/stm32l0xx_hal_dma.c ****     /* Check for the Timeout */
 534:Drivers/STM32L0xx_HAL_Driver/Src/stm32l0xx_hal_dma.c ****     if(Timeout != HAL_MAX_DELAY)
 960              		.loc 1 534 0
 961 00c4 7B68     		ldr	r3, [r7, #4]
 962 00c6 0133     		adds	r3, r3, #1
 963 00c8 17D0     		beq	.L37
 535:Drivers/STM32L0xx_HAL_Driver/Src/stm32l0xx_hal_dma.c ****     {
 536:Drivers/STM32L0xx_HAL_Driver/Src/stm32l0xx_hal_dma.c ****       if(((HAL_GetTick() - tickstart) > Timeout) ||  (Timeout == 0U))
 964              		.loc 1 536 0
 965 00ca FFF7FEFF 		bl	HAL_GetTick
 966 00ce 0200     		movs	r2, r0
 967 00d0 3B69     		ldr	r3, [r7, #16]
 968 00d2 D21A     		subs	r2, r2, r3
 969 00d4 7B68     		ldr	r3, [r7, #4]
 970 00d6 9A42     		cmp	r2, r3
 971 00d8 02D8     		bhi	.L39
 972              		.loc 1 536 0 is_stmt 0 discriminator 1
 973 00da 7B68     		ldr	r3, [r7, #4]
 974 00dc 002B     		cmp	r3, #0
 975 00de 0CD1     		bne	.L37
 976              	.L39:
 537:Drivers/STM32L0xx_HAL_Driver/Src/stm32l0xx_hal_dma.c ****       {
 538:Drivers/STM32L0xx_HAL_Driver/Src/stm32l0xx_hal_dma.c ****         /* Update error code */
 539:Drivers/STM32L0xx_HAL_Driver/Src/stm32l0xx_hal_dma.c ****         hdma->ErrorCode = HAL_DMA_ERROR_TIMEOUT;
 977              		.loc 1 539 0 is_stmt 1
 978 00e0 FB68     		ldr	r3, [r7, #12]
 979 00e2 2022     		movs	r2, #32
 980 00e4 DA63     		str	r2, [r3, #60]
 540:Drivers/STM32L0xx_HAL_Driver/Src/stm32l0xx_hal_dma.c **** 
 541:Drivers/STM32L0xx_HAL_Driver/Src/stm32l0xx_hal_dma.c ****         /* Change the DMA state */
 542:Drivers/STM32L0xx_HAL_Driver/Src/stm32l0xx_hal_dma.c ****         hdma->State = HAL_DMA_STATE_READY;
 981              		.loc 1 542 0
 982 00e6 FB68     		ldr	r3, [r7, #12]
 983 00e8 2522     		movs	r2, #37
 984 00ea 0121     		movs	r1, #1
 985 00ec 9954     		strb	r1, [r3, r2]
 543:Drivers/STM32L0xx_HAL_Driver/Src/stm32l0xx_hal_dma.c **** 
 544:Drivers/STM32L0xx_HAL_Driver/Src/stm32l0xx_hal_dma.c ****         /* Process Unlocked */
 545:Drivers/STM32L0xx_HAL_Driver/Src/stm32l0xx_hal_dma.c ****         __HAL_UNLOCK(hdma);
 986              		.loc 1 545 0
 987 00ee FB68     		ldr	r3, [r7, #12]
 988 00f0 2422     		movs	r2, #36
 989 00f2 0021     		movs	r1, #0
 990 00f4 9954     		strb	r1, [r3, r2]
 546:Drivers/STM32L0xx_HAL_Driver/Src/stm32l0xx_hal_dma.c **** 
 547:Drivers/STM32L0xx_HAL_Driver/Src/stm32l0xx_hal_dma.c ****         return HAL_ERROR;
 991              		.loc 1 547 0
 992 00f6 0123     		movs	r3, #1
 993 00f8 28E0     		b	.L33
 994              	.L37:
 513:Drivers/STM32L0xx_HAL_Driver/Src/stm32l0xx_hal_dma.c ****   {
 995              		.loc 1 513 0
 996 00fa FB68     		ldr	r3, [r7, #12]
 997 00fc 1B6C     		ldr	r3, [r3, #64]
 998 00fe 1B68     		ldr	r3, [r3]
 999 0100 7A69     		ldr	r2, [r7, #20]
 1000 0102 1340     		ands	r3, r2
ARM GAS  /tmp/cc0nDUWo.s 			page 28


 1001 0104 BBD0     		beq	.L40
 548:Drivers/STM32L0xx_HAL_Driver/Src/stm32l0xx_hal_dma.c ****       }
 549:Drivers/STM32L0xx_HAL_Driver/Src/stm32l0xx_hal_dma.c ****     }
 550:Drivers/STM32L0xx_HAL_Driver/Src/stm32l0xx_hal_dma.c ****   }
 551:Drivers/STM32L0xx_HAL_Driver/Src/stm32l0xx_hal_dma.c **** 
 552:Drivers/STM32L0xx_HAL_Driver/Src/stm32l0xx_hal_dma.c ****   if(HAL_DMA_FULL_TRANSFER == CompleteLevel)
 1002              		.loc 1 552 0
 1003 0106 0B23     		movs	r3, #11
 1004 0108 FB18     		adds	r3, r7, r3
 1005 010a 1B78     		ldrb	r3, [r3]
 1006 010c 002B     		cmp	r3, #0
 1007 010e 0ED1     		bne	.L41
 553:Drivers/STM32L0xx_HAL_Driver/Src/stm32l0xx_hal_dma.c ****   {
 554:Drivers/STM32L0xx_HAL_Driver/Src/stm32l0xx_hal_dma.c ****     /* Clear the transfer complete flag */
 555:Drivers/STM32L0xx_HAL_Driver/Src/stm32l0xx_hal_dma.c ****     hdma->DmaBaseAddress->IFCR = (DMA_FLAG_TC1 << (hdma->ChannelIndex& 0x1cU));
 1008              		.loc 1 555 0
 1009 0110 FB68     		ldr	r3, [r7, #12]
 1010 0112 1B6C     		ldr	r3, [r3, #64]
 1011 0114 FA68     		ldr	r2, [r7, #12]
 1012 0116 526C     		ldr	r2, [r2, #68]
 1013 0118 1C21     		movs	r1, #28
 1014 011a 0A40     		ands	r2, r1
 1015 011c 0221     		movs	r1, #2
 1016 011e 9140     		lsls	r1, r1, r2
 1017 0120 0A00     		movs	r2, r1
 1018 0122 5A60     		str	r2, [r3, #4]
 556:Drivers/STM32L0xx_HAL_Driver/Src/stm32l0xx_hal_dma.c **** 
 557:Drivers/STM32L0xx_HAL_Driver/Src/stm32l0xx_hal_dma.c ****     /* The selected Channelx EN bit is cleared (DMA is disabled and
 558:Drivers/STM32L0xx_HAL_Driver/Src/stm32l0xx_hal_dma.c ****     all transfers are complete) */
 559:Drivers/STM32L0xx_HAL_Driver/Src/stm32l0xx_hal_dma.c ****     hdma->State = HAL_DMA_STATE_READY;
 1019              		.loc 1 559 0
 1020 0124 FB68     		ldr	r3, [r7, #12]
 1021 0126 2522     		movs	r2, #37
 1022 0128 0121     		movs	r1, #1
 1023 012a 9954     		strb	r1, [r3, r2]
 1024 012c 09E0     		b	.L42
 1025              	.L41:
 560:Drivers/STM32L0xx_HAL_Driver/Src/stm32l0xx_hal_dma.c ****   }
 561:Drivers/STM32L0xx_HAL_Driver/Src/stm32l0xx_hal_dma.c ****   else
 562:Drivers/STM32L0xx_HAL_Driver/Src/stm32l0xx_hal_dma.c ****   {
 563:Drivers/STM32L0xx_HAL_Driver/Src/stm32l0xx_hal_dma.c ****     /* Clear the half transfer complete flag */
 564:Drivers/STM32L0xx_HAL_Driver/Src/stm32l0xx_hal_dma.c ****     hdma->DmaBaseAddress->IFCR = (DMA_FLAG_HT1 << (hdma->ChannelIndex & 0x1cU));
 1026              		.loc 1 564 0
 1027 012e FB68     		ldr	r3, [r7, #12]
 1028 0130 1B6C     		ldr	r3, [r3, #64]
 1029 0132 FA68     		ldr	r2, [r7, #12]
 1030 0134 526C     		ldr	r2, [r2, #68]
 1031 0136 1C21     		movs	r1, #28
 1032 0138 0A40     		ands	r2, r1
 1033 013a 0421     		movs	r1, #4
 1034 013c 9140     		lsls	r1, r1, r2
 1035 013e 0A00     		movs	r2, r1
 1036 0140 5A60     		str	r2, [r3, #4]
 1037              	.L42:
 565:Drivers/STM32L0xx_HAL_Driver/Src/stm32l0xx_hal_dma.c ****   }
 566:Drivers/STM32L0xx_HAL_Driver/Src/stm32l0xx_hal_dma.c **** 
 567:Drivers/STM32L0xx_HAL_Driver/Src/stm32l0xx_hal_dma.c ****   /* Process unlocked */
ARM GAS  /tmp/cc0nDUWo.s 			page 29


 568:Drivers/STM32L0xx_HAL_Driver/Src/stm32l0xx_hal_dma.c ****   __HAL_UNLOCK(hdma);
 1038              		.loc 1 568 0
 1039 0142 FB68     		ldr	r3, [r7, #12]
 1040 0144 2422     		movs	r2, #36
 1041 0146 0021     		movs	r1, #0
 1042 0148 9954     		strb	r1, [r3, r2]
 569:Drivers/STM32L0xx_HAL_Driver/Src/stm32l0xx_hal_dma.c **** 
 570:Drivers/STM32L0xx_HAL_Driver/Src/stm32l0xx_hal_dma.c ****   return HAL_OK;
 1043              		.loc 1 570 0
 1044 014a 0023     		movs	r3, #0
 1045              	.L33:
 571:Drivers/STM32L0xx_HAL_Driver/Src/stm32l0xx_hal_dma.c **** }
 1046              		.loc 1 571 0
 1047 014c 1800     		movs	r0, r3
 1048 014e BD46     		mov	sp, r7
 1049 0150 06B0     		add	sp, sp, #24
 1050              		@ sp needed
 1051 0152 80BD     		pop	{r7, pc}
 1052              		.cfi_endproc
 1053              	.LFE40:
 1055              		.section	.text.HAL_DMA_IRQHandler,"ax",%progbits
 1056              		.align	1
 1057              		.global	HAL_DMA_IRQHandler
 1058              		.syntax unified
 1059              		.code	16
 1060              		.thumb_func
 1061              		.fpu softvfp
 1063              	HAL_DMA_IRQHandler:
 1064              	.LFB41:
 572:Drivers/STM32L0xx_HAL_Driver/Src/stm32l0xx_hal_dma.c **** 
 573:Drivers/STM32L0xx_HAL_Driver/Src/stm32l0xx_hal_dma.c **** /**
 574:Drivers/STM32L0xx_HAL_Driver/Src/stm32l0xx_hal_dma.c ****   * @brief  Handle DMA interrupt request.
 575:Drivers/STM32L0xx_HAL_Driver/Src/stm32l0xx_hal_dma.c ****   * @param  hdma pointer to a DMA_HandleTypeDef structure that contains
 576:Drivers/STM32L0xx_HAL_Driver/Src/stm32l0xx_hal_dma.c ****   *               the configuration information for the specified DMA Channel.
 577:Drivers/STM32L0xx_HAL_Driver/Src/stm32l0xx_hal_dma.c ****   * @retval None
 578:Drivers/STM32L0xx_HAL_Driver/Src/stm32l0xx_hal_dma.c ****   */
 579:Drivers/STM32L0xx_HAL_Driver/Src/stm32l0xx_hal_dma.c **** void HAL_DMA_IRQHandler(DMA_HandleTypeDef *hdma)
 580:Drivers/STM32L0xx_HAL_Driver/Src/stm32l0xx_hal_dma.c **** {
 1065              		.loc 1 580 0
 1066              		.cfi_startproc
 1067              		@ args = 0, pretend = 0, frame = 16
 1068              		@ frame_needed = 1, uses_anonymous_args = 0
 1069 0000 80B5     		push	{r7, lr}
 1070              	.LCFI21:
 1071              		.cfi_def_cfa_offset 8
 1072              		.cfi_offset 7, -8
 1073              		.cfi_offset 14, -4
 1074 0002 84B0     		sub	sp, sp, #16
 1075              	.LCFI22:
 1076              		.cfi_def_cfa_offset 24
 1077 0004 00AF     		add	r7, sp, #0
 1078              	.LCFI23:
 1079              		.cfi_def_cfa_register 7
 1080 0006 7860     		str	r0, [r7, #4]
 581:Drivers/STM32L0xx_HAL_Driver/Src/stm32l0xx_hal_dma.c ****   uint32_t flag_it = hdma->DmaBaseAddress->ISR;
 1081              		.loc 1 581 0
 1082 0008 7B68     		ldr	r3, [r7, #4]
ARM GAS  /tmp/cc0nDUWo.s 			page 30


 1083 000a 1B6C     		ldr	r3, [r3, #64]
 1084 000c 1B68     		ldr	r3, [r3]
 1085 000e FB60     		str	r3, [r7, #12]
 582:Drivers/STM32L0xx_HAL_Driver/Src/stm32l0xx_hal_dma.c ****   uint32_t source_it = hdma->Instance->CCR;
 1086              		.loc 1 582 0
 1087 0010 7B68     		ldr	r3, [r7, #4]
 1088 0012 1B68     		ldr	r3, [r3]
 1089 0014 1B68     		ldr	r3, [r3]
 1090 0016 BB60     		str	r3, [r7, #8]
 583:Drivers/STM32L0xx_HAL_Driver/Src/stm32l0xx_hal_dma.c **** 
 584:Drivers/STM32L0xx_HAL_Driver/Src/stm32l0xx_hal_dma.c ****   /* Half Transfer Complete Interrupt management ******************************/
 585:Drivers/STM32L0xx_HAL_Driver/Src/stm32l0xx_hal_dma.c ****   if ((0U != (flag_it & (DMA_FLAG_HT1 << (hdma->ChannelIndex & 0x1cU)))) && (0U != (source_it & DMA
 1091              		.loc 1 585 0
 1092 0018 7B68     		ldr	r3, [r7, #4]
 1093 001a 5B6C     		ldr	r3, [r3, #68]
 1094 001c 1C22     		movs	r2, #28
 1095 001e 1340     		ands	r3, r2
 1096 0020 0422     		movs	r2, #4
 1097 0022 9A40     		lsls	r2, r2, r3
 1098 0024 1300     		movs	r3, r2
 1099 0026 FA68     		ldr	r2, [r7, #12]
 1100 0028 1340     		ands	r3, r2
 1101 002a 26D0     		beq	.L44
 1102              		.loc 1 585 0 is_stmt 0 discriminator 1
 1103 002c BB68     		ldr	r3, [r7, #8]
 1104 002e 0422     		movs	r2, #4
 1105 0030 1340     		ands	r3, r2
 1106 0032 22D0     		beq	.L44
 586:Drivers/STM32L0xx_HAL_Driver/Src/stm32l0xx_hal_dma.c ****   {
 587:Drivers/STM32L0xx_HAL_Driver/Src/stm32l0xx_hal_dma.c ****       /* Disable the half transfer interrupt if the DMA mode is not CIRCULAR */
 588:Drivers/STM32L0xx_HAL_Driver/Src/stm32l0xx_hal_dma.c ****       if((hdma->Instance->CCR & DMA_CCR_CIRC) == 0U)
 1107              		.loc 1 588 0 is_stmt 1
 1108 0034 7B68     		ldr	r3, [r7, #4]
 1109 0036 1B68     		ldr	r3, [r3]
 1110 0038 1B68     		ldr	r3, [r3]
 1111 003a 2022     		movs	r2, #32
 1112 003c 1340     		ands	r3, r2
 1113 003e 07D1     		bne	.L45
 589:Drivers/STM32L0xx_HAL_Driver/Src/stm32l0xx_hal_dma.c ****       {
 590:Drivers/STM32L0xx_HAL_Driver/Src/stm32l0xx_hal_dma.c ****         /* Disable the half transfer interrupt */
 591:Drivers/STM32L0xx_HAL_Driver/Src/stm32l0xx_hal_dma.c ****         __HAL_DMA_DISABLE_IT(hdma, DMA_IT_HT);
 1114              		.loc 1 591 0
 1115 0040 7B68     		ldr	r3, [r7, #4]
 1116 0042 1B68     		ldr	r3, [r3]
 1117 0044 7A68     		ldr	r2, [r7, #4]
 1118 0046 1268     		ldr	r2, [r2]
 1119 0048 1268     		ldr	r2, [r2]
 1120 004a 0421     		movs	r1, #4
 1121 004c 8A43     		bics	r2, r1
 1122 004e 1A60     		str	r2, [r3]
 1123              	.L45:
 592:Drivers/STM32L0xx_HAL_Driver/Src/stm32l0xx_hal_dma.c ****       }
 593:Drivers/STM32L0xx_HAL_Driver/Src/stm32l0xx_hal_dma.c ****       /* Clear the half transfer complete flag */
 594:Drivers/STM32L0xx_HAL_Driver/Src/stm32l0xx_hal_dma.c ****       hdma->DmaBaseAddress->IFCR = DMA_ISR_HTIF1 << (hdma->ChannelIndex & 0x1cU);
 1124              		.loc 1 594 0
 1125 0050 7B68     		ldr	r3, [r7, #4]
 1126 0052 1B6C     		ldr	r3, [r3, #64]
ARM GAS  /tmp/cc0nDUWo.s 			page 31


 1127 0054 7A68     		ldr	r2, [r7, #4]
 1128 0056 526C     		ldr	r2, [r2, #68]
 1129 0058 1C21     		movs	r1, #28
 1130 005a 0A40     		ands	r2, r1
 1131 005c 0421     		movs	r1, #4
 1132 005e 9140     		lsls	r1, r1, r2
 1133 0060 0A00     		movs	r2, r1
 1134 0062 5A60     		str	r2, [r3, #4]
 595:Drivers/STM32L0xx_HAL_Driver/Src/stm32l0xx_hal_dma.c **** 
 596:Drivers/STM32L0xx_HAL_Driver/Src/stm32l0xx_hal_dma.c ****       /* DMA peripheral state is not updated in Half Transfer */
 597:Drivers/STM32L0xx_HAL_Driver/Src/stm32l0xx_hal_dma.c ****       /* but in Transfer Complete case */
 598:Drivers/STM32L0xx_HAL_Driver/Src/stm32l0xx_hal_dma.c **** 
 599:Drivers/STM32L0xx_HAL_Driver/Src/stm32l0xx_hal_dma.c ****      if(hdma->XferHalfCpltCallback != NULL)
 1135              		.loc 1 599 0
 1136 0064 7B68     		ldr	r3, [r7, #4]
 1137 0066 1B6B     		ldr	r3, [r3, #48]
 1138 0068 002B     		cmp	r3, #0
 1139 006a 00D1     		bne	.LCB976
 1140 006c 71E0     		b	.L47	@long jump
 1141              	.LCB976:
 600:Drivers/STM32L0xx_HAL_Driver/Src/stm32l0xx_hal_dma.c ****       {
 601:Drivers/STM32L0xx_HAL_Driver/Src/stm32l0xx_hal_dma.c ****         /* Half transfer callback */
 602:Drivers/STM32L0xx_HAL_Driver/Src/stm32l0xx_hal_dma.c ****         hdma->XferHalfCpltCallback(hdma);
 1142              		.loc 1 602 0
 1143 006e 7B68     		ldr	r3, [r7, #4]
 1144 0070 1B6B     		ldr	r3, [r3, #48]
 1145 0072 7A68     		ldr	r2, [r7, #4]
 1146 0074 1000     		movs	r0, r2
 1147 0076 9847     		blx	r3
 1148              	.LVL3:
 599:Drivers/STM32L0xx_HAL_Driver/Src/stm32l0xx_hal_dma.c ****       {
 1149              		.loc 1 599 0
 1150 0078 6BE0     		b	.L47
 1151              	.L44:
 603:Drivers/STM32L0xx_HAL_Driver/Src/stm32l0xx_hal_dma.c ****       }
 604:Drivers/STM32L0xx_HAL_Driver/Src/stm32l0xx_hal_dma.c ****   }
 605:Drivers/STM32L0xx_HAL_Driver/Src/stm32l0xx_hal_dma.c **** 
 606:Drivers/STM32L0xx_HAL_Driver/Src/stm32l0xx_hal_dma.c ****   /* Transfer Complete Interrupt management ***********************************/
 607:Drivers/STM32L0xx_HAL_Driver/Src/stm32l0xx_hal_dma.c ****   else if ((0U != (flag_it & (DMA_FLAG_TC1 << (hdma->ChannelIndex & 0x1cU)))) && (0U != (source_it 
 1152              		.loc 1 607 0
 1153 007a 7B68     		ldr	r3, [r7, #4]
 1154 007c 5B6C     		ldr	r3, [r3, #68]
 1155 007e 1C22     		movs	r2, #28
 1156 0080 1340     		ands	r3, r2
 1157 0082 0222     		movs	r2, #2
 1158 0084 9A40     		lsls	r2, r2, r3
 1159 0086 1300     		movs	r3, r2
 1160 0088 FA68     		ldr	r2, [r7, #12]
 1161 008a 1340     		ands	r3, r2
 1162 008c 2DD0     		beq	.L48
 1163              		.loc 1 607 0 is_stmt 0 discriminator 1
 1164 008e BB68     		ldr	r3, [r7, #8]
 1165 0090 0222     		movs	r2, #2
 1166 0092 1340     		ands	r3, r2
 1167 0094 29D0     		beq	.L48
 608:Drivers/STM32L0xx_HAL_Driver/Src/stm32l0xx_hal_dma.c ****   {
 609:Drivers/STM32L0xx_HAL_Driver/Src/stm32l0xx_hal_dma.c ****     if((hdma->Instance->CCR & DMA_CCR_CIRC) == 0U)
ARM GAS  /tmp/cc0nDUWo.s 			page 32


 1168              		.loc 1 609 0 is_stmt 1
 1169 0096 7B68     		ldr	r3, [r7, #4]
 1170 0098 1B68     		ldr	r3, [r3]
 1171 009a 1B68     		ldr	r3, [r3]
 1172 009c 2022     		movs	r2, #32
 1173 009e 1340     		ands	r3, r2
 1174 00a0 0BD1     		bne	.L49
 610:Drivers/STM32L0xx_HAL_Driver/Src/stm32l0xx_hal_dma.c ****     {
 611:Drivers/STM32L0xx_HAL_Driver/Src/stm32l0xx_hal_dma.c ****       /* Disable the transfer complete and error interrupt */
 612:Drivers/STM32L0xx_HAL_Driver/Src/stm32l0xx_hal_dma.c ****       __HAL_DMA_DISABLE_IT(hdma, DMA_IT_TE | DMA_IT_TC);
 1175              		.loc 1 612 0
 1176 00a2 7B68     		ldr	r3, [r7, #4]
 1177 00a4 1B68     		ldr	r3, [r3]
 1178 00a6 7A68     		ldr	r2, [r7, #4]
 1179 00a8 1268     		ldr	r2, [r2]
 1180 00aa 1268     		ldr	r2, [r2]
 1181 00ac 0A21     		movs	r1, #10
 1182 00ae 8A43     		bics	r2, r1
 1183 00b0 1A60     		str	r2, [r3]
 613:Drivers/STM32L0xx_HAL_Driver/Src/stm32l0xx_hal_dma.c **** 
 614:Drivers/STM32L0xx_HAL_Driver/Src/stm32l0xx_hal_dma.c ****       /* Change the DMA state */
 615:Drivers/STM32L0xx_HAL_Driver/Src/stm32l0xx_hal_dma.c ****       hdma->State = HAL_DMA_STATE_READY;
 1184              		.loc 1 615 0
 1185 00b2 7B68     		ldr	r3, [r7, #4]
 1186 00b4 2522     		movs	r2, #37
 1187 00b6 0121     		movs	r1, #1
 1188 00b8 9954     		strb	r1, [r3, r2]
 1189              	.L49:
 616:Drivers/STM32L0xx_HAL_Driver/Src/stm32l0xx_hal_dma.c ****     }
 617:Drivers/STM32L0xx_HAL_Driver/Src/stm32l0xx_hal_dma.c ****     /* Clear the transfer complete flag */
 618:Drivers/STM32L0xx_HAL_Driver/Src/stm32l0xx_hal_dma.c ****     hdma->DmaBaseAddress->IFCR = (DMA_ISR_TCIF1 << (hdma->ChannelIndex & 0x1cU));
 1190              		.loc 1 618 0
 1191 00ba 7B68     		ldr	r3, [r7, #4]
 1192 00bc 1B6C     		ldr	r3, [r3, #64]
 1193 00be 7A68     		ldr	r2, [r7, #4]
 1194 00c0 526C     		ldr	r2, [r2, #68]
 1195 00c2 1C21     		movs	r1, #28
 1196 00c4 0A40     		ands	r2, r1
 1197 00c6 0221     		movs	r1, #2
 1198 00c8 9140     		lsls	r1, r1, r2
 1199 00ca 0A00     		movs	r2, r1
 1200 00cc 5A60     		str	r2, [r3, #4]
 619:Drivers/STM32L0xx_HAL_Driver/Src/stm32l0xx_hal_dma.c **** 
 620:Drivers/STM32L0xx_HAL_Driver/Src/stm32l0xx_hal_dma.c ****     /* Process Unlocked */
 621:Drivers/STM32L0xx_HAL_Driver/Src/stm32l0xx_hal_dma.c ****     __HAL_UNLOCK(hdma);
 1201              		.loc 1 621 0
 1202 00ce 7B68     		ldr	r3, [r7, #4]
 1203 00d0 2422     		movs	r2, #36
 1204 00d2 0021     		movs	r1, #0
 1205 00d4 9954     		strb	r1, [r3, r2]
 622:Drivers/STM32L0xx_HAL_Driver/Src/stm32l0xx_hal_dma.c **** 
 623:Drivers/STM32L0xx_HAL_Driver/Src/stm32l0xx_hal_dma.c ****     if(hdma->XferCpltCallback != NULL)
 1206              		.loc 1 623 0
 1207 00d6 7B68     		ldr	r3, [r7, #4]
 1208 00d8 DB6A     		ldr	r3, [r3, #44]
 1209 00da 002B     		cmp	r3, #0
 1210 00dc 39D0     		beq	.L47
ARM GAS  /tmp/cc0nDUWo.s 			page 33


 624:Drivers/STM32L0xx_HAL_Driver/Src/stm32l0xx_hal_dma.c ****     {
 625:Drivers/STM32L0xx_HAL_Driver/Src/stm32l0xx_hal_dma.c ****       /* Transfer complete callback */
 626:Drivers/STM32L0xx_HAL_Driver/Src/stm32l0xx_hal_dma.c ****       hdma->XferCpltCallback(hdma);
 1211              		.loc 1 626 0
 1212 00de 7B68     		ldr	r3, [r7, #4]
 1213 00e0 DB6A     		ldr	r3, [r3, #44]
 1214 00e2 7A68     		ldr	r2, [r7, #4]
 1215 00e4 1000     		movs	r0, r2
 1216 00e6 9847     		blx	r3
 1217              	.LVL4:
 623:Drivers/STM32L0xx_HAL_Driver/Src/stm32l0xx_hal_dma.c ****     {
 1218              		.loc 1 623 0
 1219 00e8 33E0     		b	.L47
 1220              	.L48:
 627:Drivers/STM32L0xx_HAL_Driver/Src/stm32l0xx_hal_dma.c ****     }
 628:Drivers/STM32L0xx_HAL_Driver/Src/stm32l0xx_hal_dma.c ****   }
 629:Drivers/STM32L0xx_HAL_Driver/Src/stm32l0xx_hal_dma.c **** 
 630:Drivers/STM32L0xx_HAL_Driver/Src/stm32l0xx_hal_dma.c ****   /* Transfer Error Interrupt management **************************************/
 631:Drivers/STM32L0xx_HAL_Driver/Src/stm32l0xx_hal_dma.c ****   else if ((0U != (flag_it & (DMA_FLAG_TE1 << (hdma->ChannelIndex & 0x1cU)))) && (0U != (source_it 
 1221              		.loc 1 631 0
 1222 00ea 7B68     		ldr	r3, [r7, #4]
 1223 00ec 5B6C     		ldr	r3, [r3, #68]
 1224 00ee 1C22     		movs	r2, #28
 1225 00f0 1340     		ands	r3, r2
 1226 00f2 0822     		movs	r2, #8
 1227 00f4 9A40     		lsls	r2, r2, r3
 1228 00f6 1300     		movs	r3, r2
 1229 00f8 FA68     		ldr	r2, [r7, #12]
 1230 00fa 1340     		ands	r3, r2
 1231 00fc 2AD0     		beq	.L53
 1232              		.loc 1 631 0 is_stmt 0 discriminator 1
 1233 00fe BB68     		ldr	r3, [r7, #8]
 1234 0100 0822     		movs	r2, #8
 1235 0102 1340     		ands	r3, r2
 1236 0104 26D0     		beq	.L53
 632:Drivers/STM32L0xx_HAL_Driver/Src/stm32l0xx_hal_dma.c ****   {
 633:Drivers/STM32L0xx_HAL_Driver/Src/stm32l0xx_hal_dma.c ****     /* When a DMA transfer error occurs */
 634:Drivers/STM32L0xx_HAL_Driver/Src/stm32l0xx_hal_dma.c ****     /* A hardware clear of its EN bits is performed */
 635:Drivers/STM32L0xx_HAL_Driver/Src/stm32l0xx_hal_dma.c ****     /* Disable ALL DMA IT */
 636:Drivers/STM32L0xx_HAL_Driver/Src/stm32l0xx_hal_dma.c ****     __HAL_DMA_DISABLE_IT(hdma, (DMA_IT_TC | DMA_IT_HT | DMA_IT_TE));
 1237              		.loc 1 636 0 is_stmt 1
 1238 0106 7B68     		ldr	r3, [r7, #4]
 1239 0108 1B68     		ldr	r3, [r3]
 1240 010a 7A68     		ldr	r2, [r7, #4]
 1241 010c 1268     		ldr	r2, [r2]
 1242 010e 1268     		ldr	r2, [r2]
 1243 0110 0E21     		movs	r1, #14
 1244 0112 8A43     		bics	r2, r1
 1245 0114 1A60     		str	r2, [r3]
 637:Drivers/STM32L0xx_HAL_Driver/Src/stm32l0xx_hal_dma.c **** 
 638:Drivers/STM32L0xx_HAL_Driver/Src/stm32l0xx_hal_dma.c ****     /* Clear all flags */
 639:Drivers/STM32L0xx_HAL_Driver/Src/stm32l0xx_hal_dma.c ****     hdma->DmaBaseAddress->IFCR = (DMA_ISR_GIF1 << (hdma->ChannelIndex & 0x1cU));
 1246              		.loc 1 639 0
 1247 0116 7B68     		ldr	r3, [r7, #4]
 1248 0118 1B6C     		ldr	r3, [r3, #64]
 1249 011a 7A68     		ldr	r2, [r7, #4]
 1250 011c 526C     		ldr	r2, [r2, #68]
ARM GAS  /tmp/cc0nDUWo.s 			page 34


 1251 011e 1C21     		movs	r1, #28
 1252 0120 0A40     		ands	r2, r1
 1253 0122 0121     		movs	r1, #1
 1254 0124 9140     		lsls	r1, r1, r2
 1255 0126 0A00     		movs	r2, r1
 1256 0128 5A60     		str	r2, [r3, #4]
 640:Drivers/STM32L0xx_HAL_Driver/Src/stm32l0xx_hal_dma.c **** 
 641:Drivers/STM32L0xx_HAL_Driver/Src/stm32l0xx_hal_dma.c ****     /* Update error code */
 642:Drivers/STM32L0xx_HAL_Driver/Src/stm32l0xx_hal_dma.c ****     hdma->ErrorCode = HAL_DMA_ERROR_TE;
 1257              		.loc 1 642 0
 1258 012a 7B68     		ldr	r3, [r7, #4]
 1259 012c 0122     		movs	r2, #1
 1260 012e DA63     		str	r2, [r3, #60]
 643:Drivers/STM32L0xx_HAL_Driver/Src/stm32l0xx_hal_dma.c **** 
 644:Drivers/STM32L0xx_HAL_Driver/Src/stm32l0xx_hal_dma.c ****     /* Change the DMA state */
 645:Drivers/STM32L0xx_HAL_Driver/Src/stm32l0xx_hal_dma.c ****     hdma->State = HAL_DMA_STATE_READY;
 1261              		.loc 1 645 0
 1262 0130 7B68     		ldr	r3, [r7, #4]
 1263 0132 2522     		movs	r2, #37
 1264 0134 0121     		movs	r1, #1
 1265 0136 9954     		strb	r1, [r3, r2]
 646:Drivers/STM32L0xx_HAL_Driver/Src/stm32l0xx_hal_dma.c **** 
 647:Drivers/STM32L0xx_HAL_Driver/Src/stm32l0xx_hal_dma.c ****     /* Process Unlocked */
 648:Drivers/STM32L0xx_HAL_Driver/Src/stm32l0xx_hal_dma.c ****     __HAL_UNLOCK(hdma);
 1266              		.loc 1 648 0
 1267 0138 7B68     		ldr	r3, [r7, #4]
 1268 013a 2422     		movs	r2, #36
 1269 013c 0021     		movs	r1, #0
 1270 013e 9954     		strb	r1, [r3, r2]
 649:Drivers/STM32L0xx_HAL_Driver/Src/stm32l0xx_hal_dma.c **** 
 650:Drivers/STM32L0xx_HAL_Driver/Src/stm32l0xx_hal_dma.c ****     if (hdma->XferErrorCallback != NULL)
 1271              		.loc 1 650 0
 1272 0140 7B68     		ldr	r3, [r7, #4]
 1273 0142 5B6B     		ldr	r3, [r3, #52]
 1274 0144 002B     		cmp	r3, #0
 1275 0146 05D0     		beq	.L53
 651:Drivers/STM32L0xx_HAL_Driver/Src/stm32l0xx_hal_dma.c ****     {
 652:Drivers/STM32L0xx_HAL_Driver/Src/stm32l0xx_hal_dma.c ****       /* Transfer error callback */
 653:Drivers/STM32L0xx_HAL_Driver/Src/stm32l0xx_hal_dma.c ****       hdma->XferErrorCallback(hdma);
 1276              		.loc 1 653 0
 1277 0148 7B68     		ldr	r3, [r7, #4]
 1278 014a 5B6B     		ldr	r3, [r3, #52]
 1279 014c 7A68     		ldr	r2, [r7, #4]
 1280 014e 1000     		movs	r0, r2
 1281 0150 9847     		blx	r3
 1282              	.LVL5:
 1283              	.L47:
 654:Drivers/STM32L0xx_HAL_Driver/Src/stm32l0xx_hal_dma.c ****     }
 655:Drivers/STM32L0xx_HAL_Driver/Src/stm32l0xx_hal_dma.c ****   }
 656:Drivers/STM32L0xx_HAL_Driver/Src/stm32l0xx_hal_dma.c ****   else
 657:Drivers/STM32L0xx_HAL_Driver/Src/stm32l0xx_hal_dma.c ****   {
 658:Drivers/STM32L0xx_HAL_Driver/Src/stm32l0xx_hal_dma.c ****     /* Nothing To Do */
 659:Drivers/STM32L0xx_HAL_Driver/Src/stm32l0xx_hal_dma.c ****   }
 660:Drivers/STM32L0xx_HAL_Driver/Src/stm32l0xx_hal_dma.c ****   return;
 1284              		.loc 1 660 0 discriminator 1
 1285 0152 C046     		nop
 1286              	.L53:
ARM GAS  /tmp/cc0nDUWo.s 			page 35


 1287              		.loc 1 660 0 is_stmt 0
 1288 0154 C046     		nop
 661:Drivers/STM32L0xx_HAL_Driver/Src/stm32l0xx_hal_dma.c **** }
 1289              		.loc 1 661 0 is_stmt 1
 1290 0156 BD46     		mov	sp, r7
 1291 0158 04B0     		add	sp, sp, #16
 1292              		@ sp needed
 1293 015a 80BD     		pop	{r7, pc}
 1294              		.cfi_endproc
 1295              	.LFE41:
 1297              		.section	.text.HAL_DMA_RegisterCallback,"ax",%progbits
 1298              		.align	1
 1299              		.global	HAL_DMA_RegisterCallback
 1300              		.syntax unified
 1301              		.code	16
 1302              		.thumb_func
 1303              		.fpu softvfp
 1305              	HAL_DMA_RegisterCallback:
 1306              	.LFB42:
 662:Drivers/STM32L0xx_HAL_Driver/Src/stm32l0xx_hal_dma.c **** 
 663:Drivers/STM32L0xx_HAL_Driver/Src/stm32l0xx_hal_dma.c **** /**
 664:Drivers/STM32L0xx_HAL_Driver/Src/stm32l0xx_hal_dma.c ****   * @brief  Register callbacks
 665:Drivers/STM32L0xx_HAL_Driver/Src/stm32l0xx_hal_dma.c ****   * @param  hdma                 pointer to a DMA_HandleTypeDef structure that contains
 666:Drivers/STM32L0xx_HAL_Driver/Src/stm32l0xx_hal_dma.c ****   *                               the configuration information for the specified DMA Channel.
 667:Drivers/STM32L0xx_HAL_Driver/Src/stm32l0xx_hal_dma.c ****   * @param  CallbackID           User Callback identifer
 668:Drivers/STM32L0xx_HAL_Driver/Src/stm32l0xx_hal_dma.c ****   *                               a HAL_DMA_CallbackIDTypeDef ENUM as parameter.
 669:Drivers/STM32L0xx_HAL_Driver/Src/stm32l0xx_hal_dma.c ****   * @param  pCallback            pointer to private callbacsk function which has pointer to
 670:Drivers/STM32L0xx_HAL_Driver/Src/stm32l0xx_hal_dma.c ****   *                               a DMA_HandleTypeDef structure as parameter.
 671:Drivers/STM32L0xx_HAL_Driver/Src/stm32l0xx_hal_dma.c ****   * @retval HAL status
 672:Drivers/STM32L0xx_HAL_Driver/Src/stm32l0xx_hal_dma.c ****   */
 673:Drivers/STM32L0xx_HAL_Driver/Src/stm32l0xx_hal_dma.c **** HAL_StatusTypeDef HAL_DMA_RegisterCallback(DMA_HandleTypeDef *hdma, HAL_DMA_CallbackIDTypeDef Callb
 674:Drivers/STM32L0xx_HAL_Driver/Src/stm32l0xx_hal_dma.c **** {
 1307              		.loc 1 674 0
 1308              		.cfi_startproc
 1309              		@ args = 0, pretend = 0, frame = 24
 1310              		@ frame_needed = 1, uses_anonymous_args = 0
 1311 0000 80B5     		push	{r7, lr}
 1312              	.LCFI24:
 1313              		.cfi_def_cfa_offset 8
 1314              		.cfi_offset 7, -8
 1315              		.cfi_offset 14, -4
 1316 0002 86B0     		sub	sp, sp, #24
 1317              	.LCFI25:
 1318              		.cfi_def_cfa_offset 32
 1319 0004 00AF     		add	r7, sp, #0
 1320              	.LCFI26:
 1321              		.cfi_def_cfa_register 7
 1322 0006 F860     		str	r0, [r7, #12]
 1323 0008 7A60     		str	r2, [r7, #4]
 1324 000a 0B23     		movs	r3, #11
 1325 000c FB18     		adds	r3, r7, r3
 1326 000e 0A1C     		adds	r2, r1, #0
 1327 0010 1A70     		strb	r2, [r3]
 675:Drivers/STM32L0xx_HAL_Driver/Src/stm32l0xx_hal_dma.c ****   HAL_StatusTypeDef status = HAL_OK;
 1328              		.loc 1 675 0
 1329 0012 1723     		movs	r3, #23
 1330 0014 FB18     		adds	r3, r7, r3
ARM GAS  /tmp/cc0nDUWo.s 			page 36


 1331 0016 0022     		movs	r2, #0
 1332 0018 1A70     		strb	r2, [r3]
 676:Drivers/STM32L0xx_HAL_Driver/Src/stm32l0xx_hal_dma.c **** 
 677:Drivers/STM32L0xx_HAL_Driver/Src/stm32l0xx_hal_dma.c ****   /* Process locked */
 678:Drivers/STM32L0xx_HAL_Driver/Src/stm32l0xx_hal_dma.c ****   __HAL_LOCK(hdma);
 1333              		.loc 1 678 0
 1334 001a FB68     		ldr	r3, [r7, #12]
 1335 001c 2422     		movs	r2, #36
 1336 001e 9B5C     		ldrb	r3, [r3, r2]
 1337 0020 012B     		cmp	r3, #1
 1338 0022 01D1     		bne	.L55
 1339              		.loc 1 678 0 is_stmt 0 discriminator 1
 1340 0024 0223     		movs	r3, #2
 1341 0026 38E0     		b	.L56
 1342              	.L55:
 1343              		.loc 1 678 0 discriminator 2
 1344 0028 FB68     		ldr	r3, [r7, #12]
 1345 002a 2422     		movs	r2, #36
 1346 002c 0121     		movs	r1, #1
 1347 002e 9954     		strb	r1, [r3, r2]
 679:Drivers/STM32L0xx_HAL_Driver/Src/stm32l0xx_hal_dma.c **** 
 680:Drivers/STM32L0xx_HAL_Driver/Src/stm32l0xx_hal_dma.c ****   if(HAL_DMA_STATE_READY == hdma->State)
 1348              		.loc 1 680 0 is_stmt 1 discriminator 2
 1349 0030 FB68     		ldr	r3, [r7, #12]
 1350 0032 2522     		movs	r2, #37
 1351 0034 9B5C     		ldrb	r3, [r3, r2]
 1352 0036 DBB2     		uxtb	r3, r3
 1353 0038 012B     		cmp	r3, #1
 1354 003a 23D1     		bne	.L57
 681:Drivers/STM32L0xx_HAL_Driver/Src/stm32l0xx_hal_dma.c ****   {
 682:Drivers/STM32L0xx_HAL_Driver/Src/stm32l0xx_hal_dma.c ****     switch (CallbackID)
 1355              		.loc 1 682 0
 1356 003c 0B23     		movs	r3, #11
 1357 003e FB18     		adds	r3, r7, r3
 1358 0040 1B78     		ldrb	r3, [r3]
 1359 0042 012B     		cmp	r3, #1
 1360 0044 0CD0     		beq	.L59
 1361 0046 02DC     		bgt	.L60
 1362 0048 002B     		cmp	r3, #0
 1363 004a 05D0     		beq	.L61
 1364 004c 14E0     		b	.L58
 1365              	.L60:
 1366 004e 022B     		cmp	r3, #2
 1367 0050 0AD0     		beq	.L62
 1368 0052 032B     		cmp	r3, #3
 1369 0054 0CD0     		beq	.L63
 1370 0056 0FE0     		b	.L58
 1371              	.L61:
 683:Drivers/STM32L0xx_HAL_Driver/Src/stm32l0xx_hal_dma.c ****     {
 684:Drivers/STM32L0xx_HAL_Driver/Src/stm32l0xx_hal_dma.c ****      case  HAL_DMA_XFER_CPLT_CB_ID:
 685:Drivers/STM32L0xx_HAL_Driver/Src/stm32l0xx_hal_dma.c ****            hdma->XferCpltCallback = pCallback;
 1372              		.loc 1 685 0
 1373 0058 FB68     		ldr	r3, [r7, #12]
 1374 005a 7A68     		ldr	r2, [r7, #4]
 1375 005c DA62     		str	r2, [r3, #44]
 686:Drivers/STM32L0xx_HAL_Driver/Src/stm32l0xx_hal_dma.c ****            break;
 1376              		.loc 1 686 0
ARM GAS  /tmp/cc0nDUWo.s 			page 37


 1377 005e 15E0     		b	.L65
 1378              	.L59:
 687:Drivers/STM32L0xx_HAL_Driver/Src/stm32l0xx_hal_dma.c **** 
 688:Drivers/STM32L0xx_HAL_Driver/Src/stm32l0xx_hal_dma.c ****      case  HAL_DMA_XFER_HALFCPLT_CB_ID:
 689:Drivers/STM32L0xx_HAL_Driver/Src/stm32l0xx_hal_dma.c ****            hdma->XferHalfCpltCallback = pCallback;
 1379              		.loc 1 689 0
 1380 0060 FB68     		ldr	r3, [r7, #12]
 1381 0062 7A68     		ldr	r2, [r7, #4]
 1382 0064 1A63     		str	r2, [r3, #48]
 690:Drivers/STM32L0xx_HAL_Driver/Src/stm32l0xx_hal_dma.c ****            break;
 1383              		.loc 1 690 0
 1384 0066 11E0     		b	.L65
 1385              	.L62:
 691:Drivers/STM32L0xx_HAL_Driver/Src/stm32l0xx_hal_dma.c **** 
 692:Drivers/STM32L0xx_HAL_Driver/Src/stm32l0xx_hal_dma.c ****      case  HAL_DMA_XFER_ERROR_CB_ID:
 693:Drivers/STM32L0xx_HAL_Driver/Src/stm32l0xx_hal_dma.c ****            hdma->XferErrorCallback = pCallback;
 1386              		.loc 1 693 0
 1387 0068 FB68     		ldr	r3, [r7, #12]
 1388 006a 7A68     		ldr	r2, [r7, #4]
 1389 006c 5A63     		str	r2, [r3, #52]
 694:Drivers/STM32L0xx_HAL_Driver/Src/stm32l0xx_hal_dma.c ****            break;
 1390              		.loc 1 694 0
 1391 006e 0DE0     		b	.L65
 1392              	.L63:
 695:Drivers/STM32L0xx_HAL_Driver/Src/stm32l0xx_hal_dma.c **** 
 696:Drivers/STM32L0xx_HAL_Driver/Src/stm32l0xx_hal_dma.c ****      case  HAL_DMA_XFER_ABORT_CB_ID:
 697:Drivers/STM32L0xx_HAL_Driver/Src/stm32l0xx_hal_dma.c ****            hdma->XferAbortCallback = pCallback;
 1393              		.loc 1 697 0
 1394 0070 FB68     		ldr	r3, [r7, #12]
 1395 0072 7A68     		ldr	r2, [r7, #4]
 1396 0074 9A63     		str	r2, [r3, #56]
 698:Drivers/STM32L0xx_HAL_Driver/Src/stm32l0xx_hal_dma.c ****            break;
 1397              		.loc 1 698 0
 1398 0076 09E0     		b	.L65
 1399              	.L58:
 699:Drivers/STM32L0xx_HAL_Driver/Src/stm32l0xx_hal_dma.c **** 
 700:Drivers/STM32L0xx_HAL_Driver/Src/stm32l0xx_hal_dma.c ****      default:
 701:Drivers/STM32L0xx_HAL_Driver/Src/stm32l0xx_hal_dma.c ****            status = HAL_ERROR;
 1400              		.loc 1 701 0
 1401 0078 1723     		movs	r3, #23
 1402 007a FB18     		adds	r3, r7, r3
 1403 007c 0122     		movs	r2, #1
 1404 007e 1A70     		strb	r2, [r3]
 702:Drivers/STM32L0xx_HAL_Driver/Src/stm32l0xx_hal_dma.c ****            break;
 1405              		.loc 1 702 0
 1406 0080 C046     		nop
 1407 0082 03E0     		b	.L65
 1408              	.L57:
 703:Drivers/STM32L0xx_HAL_Driver/Src/stm32l0xx_hal_dma.c ****     }
 704:Drivers/STM32L0xx_HAL_Driver/Src/stm32l0xx_hal_dma.c ****   }
 705:Drivers/STM32L0xx_HAL_Driver/Src/stm32l0xx_hal_dma.c ****   else
 706:Drivers/STM32L0xx_HAL_Driver/Src/stm32l0xx_hal_dma.c ****   {
 707:Drivers/STM32L0xx_HAL_Driver/Src/stm32l0xx_hal_dma.c ****     status = HAL_ERROR;
 1409              		.loc 1 707 0
 1410 0084 1723     		movs	r3, #23
 1411 0086 FB18     		adds	r3, r7, r3
 1412 0088 0122     		movs	r2, #1
ARM GAS  /tmp/cc0nDUWo.s 			page 38


 1413 008a 1A70     		strb	r2, [r3]
 1414              	.L65:
 708:Drivers/STM32L0xx_HAL_Driver/Src/stm32l0xx_hal_dma.c ****   }
 709:Drivers/STM32L0xx_HAL_Driver/Src/stm32l0xx_hal_dma.c **** 
 710:Drivers/STM32L0xx_HAL_Driver/Src/stm32l0xx_hal_dma.c ****   /* Release Lock */
 711:Drivers/STM32L0xx_HAL_Driver/Src/stm32l0xx_hal_dma.c ****   __HAL_UNLOCK(hdma);
 1415              		.loc 1 711 0
 1416 008c FB68     		ldr	r3, [r7, #12]
 1417 008e 2422     		movs	r2, #36
 1418 0090 0021     		movs	r1, #0
 1419 0092 9954     		strb	r1, [r3, r2]
 712:Drivers/STM32L0xx_HAL_Driver/Src/stm32l0xx_hal_dma.c **** 
 713:Drivers/STM32L0xx_HAL_Driver/Src/stm32l0xx_hal_dma.c ****   return status;
 1420              		.loc 1 713 0
 1421 0094 1723     		movs	r3, #23
 1422 0096 FB18     		adds	r3, r7, r3
 1423 0098 1B78     		ldrb	r3, [r3]
 1424              	.L56:
 714:Drivers/STM32L0xx_HAL_Driver/Src/stm32l0xx_hal_dma.c **** }
 1425              		.loc 1 714 0
 1426 009a 1800     		movs	r0, r3
 1427 009c BD46     		mov	sp, r7
 1428 009e 06B0     		add	sp, sp, #24
 1429              		@ sp needed
 1430 00a0 80BD     		pop	{r7, pc}
 1431              		.cfi_endproc
 1432              	.LFE42:
 1434              		.section	.text.HAL_DMA_UnRegisterCallback,"ax",%progbits
 1435              		.align	1
 1436              		.global	HAL_DMA_UnRegisterCallback
 1437              		.syntax unified
 1438              		.code	16
 1439              		.thumb_func
 1440              		.fpu softvfp
 1442              	HAL_DMA_UnRegisterCallback:
 1443              	.LFB43:
 715:Drivers/STM32L0xx_HAL_Driver/Src/stm32l0xx_hal_dma.c **** 
 716:Drivers/STM32L0xx_HAL_Driver/Src/stm32l0xx_hal_dma.c **** /**
 717:Drivers/STM32L0xx_HAL_Driver/Src/stm32l0xx_hal_dma.c ****   * @brief  UnRegister callbacks
 718:Drivers/STM32L0xx_HAL_Driver/Src/stm32l0xx_hal_dma.c ****   * @param  hdma                 pointer to a DMA_HandleTypeDef structure that contains
 719:Drivers/STM32L0xx_HAL_Driver/Src/stm32l0xx_hal_dma.c ****   *                               the configuration information for the specified DMA Channel.
 720:Drivers/STM32L0xx_HAL_Driver/Src/stm32l0xx_hal_dma.c ****   * @param  CallbackID           User Callback identifer
 721:Drivers/STM32L0xx_HAL_Driver/Src/stm32l0xx_hal_dma.c ****   *                               a HAL_DMA_CallbackIDTypeDef ENUM as parameter.
 722:Drivers/STM32L0xx_HAL_Driver/Src/stm32l0xx_hal_dma.c ****   * @retval HAL status
 723:Drivers/STM32L0xx_HAL_Driver/Src/stm32l0xx_hal_dma.c ****   */
 724:Drivers/STM32L0xx_HAL_Driver/Src/stm32l0xx_hal_dma.c **** HAL_StatusTypeDef HAL_DMA_UnRegisterCallback(DMA_HandleTypeDef *hdma, HAL_DMA_CallbackIDTypeDef Cal
 725:Drivers/STM32L0xx_HAL_Driver/Src/stm32l0xx_hal_dma.c **** {
 1444              		.loc 1 725 0
 1445              		.cfi_startproc
 1446              		@ args = 0, pretend = 0, frame = 16
 1447              		@ frame_needed = 1, uses_anonymous_args = 0
 1448 0000 80B5     		push	{r7, lr}
 1449              	.LCFI27:
 1450              		.cfi_def_cfa_offset 8
 1451              		.cfi_offset 7, -8
 1452              		.cfi_offset 14, -4
 1453 0002 84B0     		sub	sp, sp, #16
ARM GAS  /tmp/cc0nDUWo.s 			page 39


 1454              	.LCFI28:
 1455              		.cfi_def_cfa_offset 24
 1456 0004 00AF     		add	r7, sp, #0
 1457              	.LCFI29:
 1458              		.cfi_def_cfa_register 7
 1459 0006 7860     		str	r0, [r7, #4]
 1460 0008 0A00     		movs	r2, r1
 1461 000a FB1C     		adds	r3, r7, #3
 1462 000c 1A70     		strb	r2, [r3]
 726:Drivers/STM32L0xx_HAL_Driver/Src/stm32l0xx_hal_dma.c ****   HAL_StatusTypeDef status = HAL_OK;
 1463              		.loc 1 726 0
 1464 000e 0F23     		movs	r3, #15
 1465 0010 FB18     		adds	r3, r7, r3
 1466 0012 0022     		movs	r2, #0
 1467 0014 1A70     		strb	r2, [r3]
 727:Drivers/STM32L0xx_HAL_Driver/Src/stm32l0xx_hal_dma.c **** 
 728:Drivers/STM32L0xx_HAL_Driver/Src/stm32l0xx_hal_dma.c ****     /* Process locked */
 729:Drivers/STM32L0xx_HAL_Driver/Src/stm32l0xx_hal_dma.c ****   __HAL_LOCK(hdma);
 1468              		.loc 1 729 0
 1469 0016 7B68     		ldr	r3, [r7, #4]
 1470 0018 2422     		movs	r2, #36
 1471 001a 9B5C     		ldrb	r3, [r3, r2]
 1472 001c 012B     		cmp	r3, #1
 1473 001e 01D1     		bne	.L67
 1474              		.loc 1 729 0 is_stmt 0 discriminator 1
 1475 0020 0223     		movs	r3, #2
 1476 0022 40E0     		b	.L68
 1477              	.L67:
 1478              		.loc 1 729 0 discriminator 2
 1479 0024 7B68     		ldr	r3, [r7, #4]
 1480 0026 2422     		movs	r2, #36
 1481 0028 0121     		movs	r1, #1
 1482 002a 9954     		strb	r1, [r3, r2]
 730:Drivers/STM32L0xx_HAL_Driver/Src/stm32l0xx_hal_dma.c **** 
 731:Drivers/STM32L0xx_HAL_Driver/Src/stm32l0xx_hal_dma.c ****   if(HAL_DMA_STATE_READY == hdma->State)
 1483              		.loc 1 731 0 is_stmt 1 discriminator 2
 1484 002c 7B68     		ldr	r3, [r7, #4]
 1485 002e 2522     		movs	r2, #37
 1486 0030 9B5C     		ldrb	r3, [r3, r2]
 1487 0032 DBB2     		uxtb	r3, r3
 1488 0034 012B     		cmp	r3, #1
 1489 0036 2BD1     		bne	.L69
 732:Drivers/STM32L0xx_HAL_Driver/Src/stm32l0xx_hal_dma.c ****   {
 733:Drivers/STM32L0xx_HAL_Driver/Src/stm32l0xx_hal_dma.c ****     switch (CallbackID)
 1490              		.loc 1 733 0
 1491 0038 FB1C     		adds	r3, r7, #3
 1492 003a 1B78     		ldrb	r3, [r3]
 1493 003c 042B     		cmp	r3, #4
 1494 003e 21D8     		bhi	.L70
 1495 0040 9A00     		lsls	r2, r3, #2
 1496 0042 1B4B     		ldr	r3, .L79
 1497 0044 D318     		adds	r3, r2, r3
 1498 0046 1B68     		ldr	r3, [r3]
 1499 0048 9F46     		mov	pc, r3
 1500              		.section	.rodata.HAL_DMA_UnRegisterCallback,"a",%progbits
 1501              		.align	2
 1502              	.L72:
ARM GAS  /tmp/cc0nDUWo.s 			page 40


 1503 0000 4A000000 		.word	.L71
 1504 0004 52000000 		.word	.L73
 1505 0008 5A000000 		.word	.L74
 1506 000c 62000000 		.word	.L75
 1507 0010 6A000000 		.word	.L76
 1508              		.section	.text.HAL_DMA_UnRegisterCallback
 1509              	.L71:
 734:Drivers/STM32L0xx_HAL_Driver/Src/stm32l0xx_hal_dma.c ****     {
 735:Drivers/STM32L0xx_HAL_Driver/Src/stm32l0xx_hal_dma.c ****      case  HAL_DMA_XFER_CPLT_CB_ID:
 736:Drivers/STM32L0xx_HAL_Driver/Src/stm32l0xx_hal_dma.c ****            hdma->XferCpltCallback = NULL;
 1510              		.loc 1 736 0
 1511 004a 7B68     		ldr	r3, [r7, #4]
 1512 004c 0022     		movs	r2, #0
 1513 004e DA62     		str	r2, [r3, #44]
 737:Drivers/STM32L0xx_HAL_Driver/Src/stm32l0xx_hal_dma.c ****            break;
 1514              		.loc 1 737 0
 1515 0050 22E0     		b	.L78
 1516              	.L73:
 738:Drivers/STM32L0xx_HAL_Driver/Src/stm32l0xx_hal_dma.c **** 
 739:Drivers/STM32L0xx_HAL_Driver/Src/stm32l0xx_hal_dma.c ****      case  HAL_DMA_XFER_HALFCPLT_CB_ID:
 740:Drivers/STM32L0xx_HAL_Driver/Src/stm32l0xx_hal_dma.c ****            hdma->XferHalfCpltCallback = NULL;
 1517              		.loc 1 740 0
 1518 0052 7B68     		ldr	r3, [r7, #4]
 1519 0054 0022     		movs	r2, #0
 1520 0056 1A63     		str	r2, [r3, #48]
 741:Drivers/STM32L0xx_HAL_Driver/Src/stm32l0xx_hal_dma.c ****            break;
 1521              		.loc 1 741 0
 1522 0058 1EE0     		b	.L78
 1523              	.L74:
 742:Drivers/STM32L0xx_HAL_Driver/Src/stm32l0xx_hal_dma.c **** 
 743:Drivers/STM32L0xx_HAL_Driver/Src/stm32l0xx_hal_dma.c ****      case  HAL_DMA_XFER_ERROR_CB_ID:
 744:Drivers/STM32L0xx_HAL_Driver/Src/stm32l0xx_hal_dma.c ****            hdma->XferErrorCallback = NULL;
 1524              		.loc 1 744 0
 1525 005a 7B68     		ldr	r3, [r7, #4]
 1526 005c 0022     		movs	r2, #0
 1527 005e 5A63     		str	r2, [r3, #52]
 745:Drivers/STM32L0xx_HAL_Driver/Src/stm32l0xx_hal_dma.c ****            break;
 1528              		.loc 1 745 0
 1529 0060 1AE0     		b	.L78
 1530              	.L75:
 746:Drivers/STM32L0xx_HAL_Driver/Src/stm32l0xx_hal_dma.c **** 
 747:Drivers/STM32L0xx_HAL_Driver/Src/stm32l0xx_hal_dma.c ****      case  HAL_DMA_XFER_ABORT_CB_ID:
 748:Drivers/STM32L0xx_HAL_Driver/Src/stm32l0xx_hal_dma.c ****            hdma->XferAbortCallback = NULL;
 1531              		.loc 1 748 0
 1532 0062 7B68     		ldr	r3, [r7, #4]
 1533 0064 0022     		movs	r2, #0
 1534 0066 9A63     		str	r2, [r3, #56]
 749:Drivers/STM32L0xx_HAL_Driver/Src/stm32l0xx_hal_dma.c ****            break;
 1535              		.loc 1 749 0
 1536 0068 16E0     		b	.L78
 1537              	.L76:
 750:Drivers/STM32L0xx_HAL_Driver/Src/stm32l0xx_hal_dma.c **** 
 751:Drivers/STM32L0xx_HAL_Driver/Src/stm32l0xx_hal_dma.c ****     case   HAL_DMA_XFER_ALL_CB_ID:
 752:Drivers/STM32L0xx_HAL_Driver/Src/stm32l0xx_hal_dma.c ****            hdma->XferCpltCallback = NULL;
 1538              		.loc 1 752 0
 1539 006a 7B68     		ldr	r3, [r7, #4]
 1540 006c 0022     		movs	r2, #0
ARM GAS  /tmp/cc0nDUWo.s 			page 41


 1541 006e DA62     		str	r2, [r3, #44]
 753:Drivers/STM32L0xx_HAL_Driver/Src/stm32l0xx_hal_dma.c ****            hdma->XferHalfCpltCallback = NULL;
 1542              		.loc 1 753 0
 1543 0070 7B68     		ldr	r3, [r7, #4]
 1544 0072 0022     		movs	r2, #0
 1545 0074 1A63     		str	r2, [r3, #48]
 754:Drivers/STM32L0xx_HAL_Driver/Src/stm32l0xx_hal_dma.c ****            hdma->XferErrorCallback = NULL;
 1546              		.loc 1 754 0
 1547 0076 7B68     		ldr	r3, [r7, #4]
 1548 0078 0022     		movs	r2, #0
 1549 007a 5A63     		str	r2, [r3, #52]
 755:Drivers/STM32L0xx_HAL_Driver/Src/stm32l0xx_hal_dma.c ****            hdma->XferAbortCallback = NULL;
 1550              		.loc 1 755 0
 1551 007c 7B68     		ldr	r3, [r7, #4]
 1552 007e 0022     		movs	r2, #0
 1553 0080 9A63     		str	r2, [r3, #56]
 756:Drivers/STM32L0xx_HAL_Driver/Src/stm32l0xx_hal_dma.c ****            break;
 1554              		.loc 1 756 0
 1555 0082 09E0     		b	.L78
 1556              	.L70:
 757:Drivers/STM32L0xx_HAL_Driver/Src/stm32l0xx_hal_dma.c **** 
 758:Drivers/STM32L0xx_HAL_Driver/Src/stm32l0xx_hal_dma.c ****     default:
 759:Drivers/STM32L0xx_HAL_Driver/Src/stm32l0xx_hal_dma.c ****            status = HAL_ERROR;
 1557              		.loc 1 759 0
 1558 0084 0F23     		movs	r3, #15
 1559 0086 FB18     		adds	r3, r7, r3
 1560 0088 0122     		movs	r2, #1
 1561 008a 1A70     		strb	r2, [r3]
 760:Drivers/STM32L0xx_HAL_Driver/Src/stm32l0xx_hal_dma.c ****            break;
 1562              		.loc 1 760 0
 1563 008c C046     		nop
 1564 008e 03E0     		b	.L78
 1565              	.L69:
 761:Drivers/STM32L0xx_HAL_Driver/Src/stm32l0xx_hal_dma.c ****     }
 762:Drivers/STM32L0xx_HAL_Driver/Src/stm32l0xx_hal_dma.c ****   }
 763:Drivers/STM32L0xx_HAL_Driver/Src/stm32l0xx_hal_dma.c ****   else
 764:Drivers/STM32L0xx_HAL_Driver/Src/stm32l0xx_hal_dma.c ****   {
 765:Drivers/STM32L0xx_HAL_Driver/Src/stm32l0xx_hal_dma.c ****     status = HAL_ERROR;
 1566              		.loc 1 765 0
 1567 0090 0F23     		movs	r3, #15
 1568 0092 FB18     		adds	r3, r7, r3
 1569 0094 0122     		movs	r2, #1
 1570 0096 1A70     		strb	r2, [r3]
 1571              	.L78:
 766:Drivers/STM32L0xx_HAL_Driver/Src/stm32l0xx_hal_dma.c ****   }
 767:Drivers/STM32L0xx_HAL_Driver/Src/stm32l0xx_hal_dma.c **** 
 768:Drivers/STM32L0xx_HAL_Driver/Src/stm32l0xx_hal_dma.c ****   /* Release Lock */
 769:Drivers/STM32L0xx_HAL_Driver/Src/stm32l0xx_hal_dma.c ****   __HAL_UNLOCK(hdma);
 1572              		.loc 1 769 0
 1573 0098 7B68     		ldr	r3, [r7, #4]
 1574 009a 2422     		movs	r2, #36
 1575 009c 0021     		movs	r1, #0
 1576 009e 9954     		strb	r1, [r3, r2]
 770:Drivers/STM32L0xx_HAL_Driver/Src/stm32l0xx_hal_dma.c **** 
 771:Drivers/STM32L0xx_HAL_Driver/Src/stm32l0xx_hal_dma.c ****   return status;
 1577              		.loc 1 771 0
 1578 00a0 0F23     		movs	r3, #15
ARM GAS  /tmp/cc0nDUWo.s 			page 42


 1579 00a2 FB18     		adds	r3, r7, r3
 1580 00a4 1B78     		ldrb	r3, [r3]
 1581              	.L68:
 772:Drivers/STM32L0xx_HAL_Driver/Src/stm32l0xx_hal_dma.c **** }
 1582              		.loc 1 772 0
 1583 00a6 1800     		movs	r0, r3
 1584 00a8 BD46     		mov	sp, r7
 1585 00aa 04B0     		add	sp, sp, #16
 1586              		@ sp needed
 1587 00ac 80BD     		pop	{r7, pc}
 1588              	.L80:
 1589 00ae C046     		.align	2
 1590              	.L79:
 1591 00b0 00000000 		.word	.L72
 1592              		.cfi_endproc
 1593              	.LFE43:
 1595              		.section	.text.HAL_DMA_GetState,"ax",%progbits
 1596              		.align	1
 1597              		.global	HAL_DMA_GetState
 1598              		.syntax unified
 1599              		.code	16
 1600              		.thumb_func
 1601              		.fpu softvfp
 1603              	HAL_DMA_GetState:
 1604              	.LFB44:
 773:Drivers/STM32L0xx_HAL_Driver/Src/stm32l0xx_hal_dma.c **** 
 774:Drivers/STM32L0xx_HAL_Driver/Src/stm32l0xx_hal_dma.c **** /**
 775:Drivers/STM32L0xx_HAL_Driver/Src/stm32l0xx_hal_dma.c ****   * @}
 776:Drivers/STM32L0xx_HAL_Driver/Src/stm32l0xx_hal_dma.c ****   */
 777:Drivers/STM32L0xx_HAL_Driver/Src/stm32l0xx_hal_dma.c **** 
 778:Drivers/STM32L0xx_HAL_Driver/Src/stm32l0xx_hal_dma.c **** 
 779:Drivers/STM32L0xx_HAL_Driver/Src/stm32l0xx_hal_dma.c **** 
 780:Drivers/STM32L0xx_HAL_Driver/Src/stm32l0xx_hal_dma.c **** /** @defgroup DMA_Exported_Functions_Group3 Peripheral State and Errors functions
 781:Drivers/STM32L0xx_HAL_Driver/Src/stm32l0xx_hal_dma.c ****  *  @brief    Peripheral State and Errors functions
 782:Drivers/STM32L0xx_HAL_Driver/Src/stm32l0xx_hal_dma.c ****  *
 783:Drivers/STM32L0xx_HAL_Driver/Src/stm32l0xx_hal_dma.c **** @verbatim
 784:Drivers/STM32L0xx_HAL_Driver/Src/stm32l0xx_hal_dma.c ****  ===============================================================================
 785:Drivers/STM32L0xx_HAL_Driver/Src/stm32l0xx_hal_dma.c ****             ##### Peripheral State and Errors functions #####
 786:Drivers/STM32L0xx_HAL_Driver/Src/stm32l0xx_hal_dma.c ****  ===============================================================================
 787:Drivers/STM32L0xx_HAL_Driver/Src/stm32l0xx_hal_dma.c ****     [..]
 788:Drivers/STM32L0xx_HAL_Driver/Src/stm32l0xx_hal_dma.c ****     This subsection provides functions allowing to
 789:Drivers/STM32L0xx_HAL_Driver/Src/stm32l0xx_hal_dma.c ****       (+) Check the DMA state
 790:Drivers/STM32L0xx_HAL_Driver/Src/stm32l0xx_hal_dma.c ****       (+) Get error code
 791:Drivers/STM32L0xx_HAL_Driver/Src/stm32l0xx_hal_dma.c **** 
 792:Drivers/STM32L0xx_HAL_Driver/Src/stm32l0xx_hal_dma.c **** @endverbatim
 793:Drivers/STM32L0xx_HAL_Driver/Src/stm32l0xx_hal_dma.c ****   * @{
 794:Drivers/STM32L0xx_HAL_Driver/Src/stm32l0xx_hal_dma.c ****   */
 795:Drivers/STM32L0xx_HAL_Driver/Src/stm32l0xx_hal_dma.c **** 
 796:Drivers/STM32L0xx_HAL_Driver/Src/stm32l0xx_hal_dma.c **** /**
 797:Drivers/STM32L0xx_HAL_Driver/Src/stm32l0xx_hal_dma.c ****   * @brief  Return the DMA handle state.
 798:Drivers/STM32L0xx_HAL_Driver/Src/stm32l0xx_hal_dma.c ****   * @param  hdma pointer to a DMA_HandleTypeDef structure that contains
 799:Drivers/STM32L0xx_HAL_Driver/Src/stm32l0xx_hal_dma.c ****   *               the configuration information for the specified DMA Channel.
 800:Drivers/STM32L0xx_HAL_Driver/Src/stm32l0xx_hal_dma.c ****   * @retval HAL state
 801:Drivers/STM32L0xx_HAL_Driver/Src/stm32l0xx_hal_dma.c ****   */
 802:Drivers/STM32L0xx_HAL_Driver/Src/stm32l0xx_hal_dma.c **** HAL_DMA_StateTypeDef HAL_DMA_GetState(DMA_HandleTypeDef *hdma)
 803:Drivers/STM32L0xx_HAL_Driver/Src/stm32l0xx_hal_dma.c **** {
 1605              		.loc 1 803 0
ARM GAS  /tmp/cc0nDUWo.s 			page 43


 1606              		.cfi_startproc
 1607              		@ args = 0, pretend = 0, frame = 8
 1608              		@ frame_needed = 1, uses_anonymous_args = 0
 1609 0000 80B5     		push	{r7, lr}
 1610              	.LCFI30:
 1611              		.cfi_def_cfa_offset 8
 1612              		.cfi_offset 7, -8
 1613              		.cfi_offset 14, -4
 1614 0002 82B0     		sub	sp, sp, #8
 1615              	.LCFI31:
 1616              		.cfi_def_cfa_offset 16
 1617 0004 00AF     		add	r7, sp, #0
 1618              	.LCFI32:
 1619              		.cfi_def_cfa_register 7
 1620 0006 7860     		str	r0, [r7, #4]
 804:Drivers/STM32L0xx_HAL_Driver/Src/stm32l0xx_hal_dma.c ****   /* Return DMA handle state */
 805:Drivers/STM32L0xx_HAL_Driver/Src/stm32l0xx_hal_dma.c ****   return hdma->State;
 1621              		.loc 1 805 0
 1622 0008 7B68     		ldr	r3, [r7, #4]
 1623 000a 2522     		movs	r2, #37
 1624 000c 9B5C     		ldrb	r3, [r3, r2]
 1625 000e DBB2     		uxtb	r3, r3
 806:Drivers/STM32L0xx_HAL_Driver/Src/stm32l0xx_hal_dma.c **** }
 1626              		.loc 1 806 0
 1627 0010 1800     		movs	r0, r3
 1628 0012 BD46     		mov	sp, r7
 1629 0014 02B0     		add	sp, sp, #8
 1630              		@ sp needed
 1631 0016 80BD     		pop	{r7, pc}
 1632              		.cfi_endproc
 1633              	.LFE44:
 1635              		.section	.text.HAL_DMA_GetError,"ax",%progbits
 1636              		.align	1
 1637              		.global	HAL_DMA_GetError
 1638              		.syntax unified
 1639              		.code	16
 1640              		.thumb_func
 1641              		.fpu softvfp
 1643              	HAL_DMA_GetError:
 1644              	.LFB45:
 807:Drivers/STM32L0xx_HAL_Driver/Src/stm32l0xx_hal_dma.c **** 
 808:Drivers/STM32L0xx_HAL_Driver/Src/stm32l0xx_hal_dma.c **** /**
 809:Drivers/STM32L0xx_HAL_Driver/Src/stm32l0xx_hal_dma.c ****   * @brief  Return the DMA error code.
 810:Drivers/STM32L0xx_HAL_Driver/Src/stm32l0xx_hal_dma.c ****   * @param  hdma : pointer to a DMA_HandleTypeDef structure that contains
 811:Drivers/STM32L0xx_HAL_Driver/Src/stm32l0xx_hal_dma.c ****   *              the configuration information for the specified DMA Channel.
 812:Drivers/STM32L0xx_HAL_Driver/Src/stm32l0xx_hal_dma.c ****   * @retval DMA Error Code
 813:Drivers/STM32L0xx_HAL_Driver/Src/stm32l0xx_hal_dma.c ****   */
 814:Drivers/STM32L0xx_HAL_Driver/Src/stm32l0xx_hal_dma.c **** uint32_t HAL_DMA_GetError(DMA_HandleTypeDef *hdma)
 815:Drivers/STM32L0xx_HAL_Driver/Src/stm32l0xx_hal_dma.c **** {
 1645              		.loc 1 815 0
 1646              		.cfi_startproc
 1647              		@ args = 0, pretend = 0, frame = 8
 1648              		@ frame_needed = 1, uses_anonymous_args = 0
 1649 0000 80B5     		push	{r7, lr}
 1650              	.LCFI33:
 1651              		.cfi_def_cfa_offset 8
 1652              		.cfi_offset 7, -8
ARM GAS  /tmp/cc0nDUWo.s 			page 44


 1653              		.cfi_offset 14, -4
 1654 0002 82B0     		sub	sp, sp, #8
 1655              	.LCFI34:
 1656              		.cfi_def_cfa_offset 16
 1657 0004 00AF     		add	r7, sp, #0
 1658              	.LCFI35:
 1659              		.cfi_def_cfa_register 7
 1660 0006 7860     		str	r0, [r7, #4]
 816:Drivers/STM32L0xx_HAL_Driver/Src/stm32l0xx_hal_dma.c ****   return hdma->ErrorCode;
 1661              		.loc 1 816 0
 1662 0008 7B68     		ldr	r3, [r7, #4]
 1663 000a DB6B     		ldr	r3, [r3, #60]
 817:Drivers/STM32L0xx_HAL_Driver/Src/stm32l0xx_hal_dma.c **** }
 1664              		.loc 1 817 0
 1665 000c 1800     		movs	r0, r3
 1666 000e BD46     		mov	sp, r7
 1667 0010 02B0     		add	sp, sp, #8
 1668              		@ sp needed
 1669 0012 80BD     		pop	{r7, pc}
 1670              		.cfi_endproc
 1671              	.LFE45:
 1673              		.section	.text.DMA_SetConfig,"ax",%progbits
 1674              		.align	1
 1675              		.syntax unified
 1676              		.code	16
 1677              		.thumb_func
 1678              		.fpu softvfp
 1680              	DMA_SetConfig:
 1681              	.LFB46:
 818:Drivers/STM32L0xx_HAL_Driver/Src/stm32l0xx_hal_dma.c **** 
 819:Drivers/STM32L0xx_HAL_Driver/Src/stm32l0xx_hal_dma.c **** /**
 820:Drivers/STM32L0xx_HAL_Driver/Src/stm32l0xx_hal_dma.c ****   * @}
 821:Drivers/STM32L0xx_HAL_Driver/Src/stm32l0xx_hal_dma.c ****   */
 822:Drivers/STM32L0xx_HAL_Driver/Src/stm32l0xx_hal_dma.c **** 
 823:Drivers/STM32L0xx_HAL_Driver/Src/stm32l0xx_hal_dma.c **** /**
 824:Drivers/STM32L0xx_HAL_Driver/Src/stm32l0xx_hal_dma.c ****   * @}
 825:Drivers/STM32L0xx_HAL_Driver/Src/stm32l0xx_hal_dma.c ****   */
 826:Drivers/STM32L0xx_HAL_Driver/Src/stm32l0xx_hal_dma.c **** 
 827:Drivers/STM32L0xx_HAL_Driver/Src/stm32l0xx_hal_dma.c **** /** @addtogroup DMA_Private_Functions
 828:Drivers/STM32L0xx_HAL_Driver/Src/stm32l0xx_hal_dma.c ****   * @{
 829:Drivers/STM32L0xx_HAL_Driver/Src/stm32l0xx_hal_dma.c ****   */
 830:Drivers/STM32L0xx_HAL_Driver/Src/stm32l0xx_hal_dma.c **** 
 831:Drivers/STM32L0xx_HAL_Driver/Src/stm32l0xx_hal_dma.c **** /**
 832:Drivers/STM32L0xx_HAL_Driver/Src/stm32l0xx_hal_dma.c ****   * @brief  Sets the DMA Transfer parameter.
 833:Drivers/STM32L0xx_HAL_Driver/Src/stm32l0xx_hal_dma.c ****   * @param  hdma       pointer to a DMA_HandleTypeDef structure that contains
 834:Drivers/STM32L0xx_HAL_Driver/Src/stm32l0xx_hal_dma.c ****   *                     the configuration information for the specified DMA Channel.
 835:Drivers/STM32L0xx_HAL_Driver/Src/stm32l0xx_hal_dma.c ****   * @param  SrcAddress The source memory Buffer address
 836:Drivers/STM32L0xx_HAL_Driver/Src/stm32l0xx_hal_dma.c ****   * @param  DstAddress The destination memory Buffer address
 837:Drivers/STM32L0xx_HAL_Driver/Src/stm32l0xx_hal_dma.c ****   * @param  DataLength The length of data to be transferred from source to destination
 838:Drivers/STM32L0xx_HAL_Driver/Src/stm32l0xx_hal_dma.c ****   * @retval HAL status
 839:Drivers/STM32L0xx_HAL_Driver/Src/stm32l0xx_hal_dma.c ****   */
 840:Drivers/STM32L0xx_HAL_Driver/Src/stm32l0xx_hal_dma.c **** static void DMA_SetConfig(DMA_HandleTypeDef *hdma, uint32_t SrcAddress, uint32_t DstAddress, uint32
 841:Drivers/STM32L0xx_HAL_Driver/Src/stm32l0xx_hal_dma.c **** {
 1682              		.loc 1 841 0
 1683              		.cfi_startproc
 1684              		@ args = 0, pretend = 0, frame = 16
 1685              		@ frame_needed = 1, uses_anonymous_args = 0
ARM GAS  /tmp/cc0nDUWo.s 			page 45


 1686 0000 80B5     		push	{r7, lr}
 1687              	.LCFI36:
 1688              		.cfi_def_cfa_offset 8
 1689              		.cfi_offset 7, -8
 1690              		.cfi_offset 14, -4
 1691 0002 84B0     		sub	sp, sp, #16
 1692              	.LCFI37:
 1693              		.cfi_def_cfa_offset 24
 1694 0004 00AF     		add	r7, sp, #0
 1695              	.LCFI38:
 1696              		.cfi_def_cfa_register 7
 1697 0006 F860     		str	r0, [r7, #12]
 1698 0008 B960     		str	r1, [r7, #8]
 1699 000a 7A60     		str	r2, [r7, #4]
 1700 000c 3B60     		str	r3, [r7]
 842:Drivers/STM32L0xx_HAL_Driver/Src/stm32l0xx_hal_dma.c ****   /* Clear all flags */
 843:Drivers/STM32L0xx_HAL_Driver/Src/stm32l0xx_hal_dma.c ****   hdma->DmaBaseAddress->IFCR = (DMA_ISR_GIF1 << (hdma->ChannelIndex & 0x1cU));
 1701              		.loc 1 843 0
 1702 000e FB68     		ldr	r3, [r7, #12]
 1703 0010 1B6C     		ldr	r3, [r3, #64]
 1704 0012 FA68     		ldr	r2, [r7, #12]
 1705 0014 526C     		ldr	r2, [r2, #68]
 1706 0016 1C21     		movs	r1, #28
 1707 0018 0A40     		ands	r2, r1
 1708 001a 0121     		movs	r1, #1
 1709 001c 9140     		lsls	r1, r1, r2
 1710 001e 0A00     		movs	r2, r1
 1711 0020 5A60     		str	r2, [r3, #4]
 844:Drivers/STM32L0xx_HAL_Driver/Src/stm32l0xx_hal_dma.c **** 
 845:Drivers/STM32L0xx_HAL_Driver/Src/stm32l0xx_hal_dma.c ****   /* Configure DMA Channel data length */
 846:Drivers/STM32L0xx_HAL_Driver/Src/stm32l0xx_hal_dma.c ****   hdma->Instance->CNDTR = DataLength;
 1712              		.loc 1 846 0
 1713 0022 FB68     		ldr	r3, [r7, #12]
 1714 0024 1B68     		ldr	r3, [r3]
 1715 0026 3A68     		ldr	r2, [r7]
 1716 0028 5A60     		str	r2, [r3, #4]
 847:Drivers/STM32L0xx_HAL_Driver/Src/stm32l0xx_hal_dma.c **** 
 848:Drivers/STM32L0xx_HAL_Driver/Src/stm32l0xx_hal_dma.c ****   /* Memory to Peripheral */
 849:Drivers/STM32L0xx_HAL_Driver/Src/stm32l0xx_hal_dma.c ****   if((hdma->Init.Direction) == DMA_MEMORY_TO_PERIPH)
 1717              		.loc 1 849 0
 1718 002a FB68     		ldr	r3, [r7, #12]
 1719 002c 9B68     		ldr	r3, [r3, #8]
 1720 002e 102B     		cmp	r3, #16
 1721 0030 08D1     		bne	.L86
 850:Drivers/STM32L0xx_HAL_Driver/Src/stm32l0xx_hal_dma.c ****   {
 851:Drivers/STM32L0xx_HAL_Driver/Src/stm32l0xx_hal_dma.c ****     /* Configure DMA Channel destination address */
 852:Drivers/STM32L0xx_HAL_Driver/Src/stm32l0xx_hal_dma.c ****     hdma->Instance->CPAR = DstAddress;
 1722              		.loc 1 852 0
 1723 0032 FB68     		ldr	r3, [r7, #12]
 1724 0034 1B68     		ldr	r3, [r3]
 1725 0036 7A68     		ldr	r2, [r7, #4]
 1726 0038 9A60     		str	r2, [r3, #8]
 853:Drivers/STM32L0xx_HAL_Driver/Src/stm32l0xx_hal_dma.c **** 
 854:Drivers/STM32L0xx_HAL_Driver/Src/stm32l0xx_hal_dma.c ****     /* Configure DMA Channel source address */
 855:Drivers/STM32L0xx_HAL_Driver/Src/stm32l0xx_hal_dma.c ****     hdma->Instance->CMAR = SrcAddress;
 1727              		.loc 1 855 0
 1728 003a FB68     		ldr	r3, [r7, #12]
ARM GAS  /tmp/cc0nDUWo.s 			page 46


 1729 003c 1B68     		ldr	r3, [r3]
 1730 003e BA68     		ldr	r2, [r7, #8]
 1731 0040 DA60     		str	r2, [r3, #12]
 856:Drivers/STM32L0xx_HAL_Driver/Src/stm32l0xx_hal_dma.c ****   }
 857:Drivers/STM32L0xx_HAL_Driver/Src/stm32l0xx_hal_dma.c ****   /* Peripheral to Memory */
 858:Drivers/STM32L0xx_HAL_Driver/Src/stm32l0xx_hal_dma.c ****   else
 859:Drivers/STM32L0xx_HAL_Driver/Src/stm32l0xx_hal_dma.c ****   {
 860:Drivers/STM32L0xx_HAL_Driver/Src/stm32l0xx_hal_dma.c ****     /* Configure DMA Channel source address */
 861:Drivers/STM32L0xx_HAL_Driver/Src/stm32l0xx_hal_dma.c ****     hdma->Instance->CPAR = SrcAddress;
 862:Drivers/STM32L0xx_HAL_Driver/Src/stm32l0xx_hal_dma.c **** 
 863:Drivers/STM32L0xx_HAL_Driver/Src/stm32l0xx_hal_dma.c ****     /* Configure DMA Channel destination address */
 864:Drivers/STM32L0xx_HAL_Driver/Src/stm32l0xx_hal_dma.c ****     hdma->Instance->CMAR = DstAddress;
 865:Drivers/STM32L0xx_HAL_Driver/Src/stm32l0xx_hal_dma.c ****   }
 866:Drivers/STM32L0xx_HAL_Driver/Src/stm32l0xx_hal_dma.c **** }
 1732              		.loc 1 866 0
 1733 0042 07E0     		b	.L88
 1734              	.L86:
 861:Drivers/STM32L0xx_HAL_Driver/Src/stm32l0xx_hal_dma.c **** 
 1735              		.loc 1 861 0
 1736 0044 FB68     		ldr	r3, [r7, #12]
 1737 0046 1B68     		ldr	r3, [r3]
 1738 0048 BA68     		ldr	r2, [r7, #8]
 1739 004a 9A60     		str	r2, [r3, #8]
 864:Drivers/STM32L0xx_HAL_Driver/Src/stm32l0xx_hal_dma.c ****   }
 1740              		.loc 1 864 0
 1741 004c FB68     		ldr	r3, [r7, #12]
 1742 004e 1B68     		ldr	r3, [r3]
 1743 0050 7A68     		ldr	r2, [r7, #4]
 1744 0052 DA60     		str	r2, [r3, #12]
 1745              	.L88:
 1746              		.loc 1 866 0
 1747 0054 C046     		nop
 1748 0056 BD46     		mov	sp, r7
 1749 0058 04B0     		add	sp, sp, #16
 1750              		@ sp needed
 1751 005a 80BD     		pop	{r7, pc}
 1752              		.cfi_endproc
 1753              	.LFE46:
 1755              		.text
 1756              	.Letext0:
 1757              		.file 2 "/usr/include/newlib/machine/_default_types.h"
 1758              		.file 3 "/usr/include/newlib/sys/_stdint.h"
 1759              		.file 4 "Drivers/CMSIS/Device/ST/STM32L0xx/Include/system_stm32l0xx.h"
 1760              		.file 5 "Drivers/CMSIS/Device/ST/STM32L0xx/Include/stm32l052xx.h"
 1761              		.file 6 "Drivers/STM32L0xx_HAL_Driver/Inc/stm32l0xx_hal_def.h"
 1762              		.file 7 "Drivers/STM32L0xx_HAL_Driver/Inc/stm32l0xx_hal_dma.h"
 1763              		.file 8 "Drivers/STM32L0xx_HAL_Driver/Inc/stm32l0xx_hal.h"
ARM GAS  /tmp/cc0nDUWo.s 			page 47


DEFINED SYMBOLS
                            *ABS*:0000000000000000 stm32l0xx_hal_dma.c
     /tmp/cc0nDUWo.s:17     .text.HAL_DMA_Init:0000000000000000 $t
     /tmp/cc0nDUWo.s:24     .text.HAL_DMA_Init:0000000000000000 HAL_DMA_Init
     /tmp/cc0nDUWo.s:186    .text.HAL_DMA_Init:00000000000000e0 $d
     /tmp/cc0nDUWo.s:194    .text.HAL_DMA_DeInit:0000000000000000 $t
     /tmp/cc0nDUWo.s:201    .text.HAL_DMA_DeInit:0000000000000000 HAL_DMA_DeInit
     /tmp/cc0nDUWo.s:326    .text.HAL_DMA_DeInit:00000000000000b0 $d
     /tmp/cc0nDUWo.s:333    .text.HAL_DMA_Start:0000000000000000 $t
     /tmp/cc0nDUWo.s:340    .text.HAL_DMA_Start:0000000000000000 HAL_DMA_Start
     /tmp/cc0nDUWo.s:1680   .text.DMA_SetConfig:0000000000000000 DMA_SetConfig
     /tmp/cc0nDUWo.s:449    .text.HAL_DMA_Start_IT:0000000000000000 $t
     /tmp/cc0nDUWo.s:456    .text.HAL_DMA_Start_IT:0000000000000000 HAL_DMA_Start_IT
     /tmp/cc0nDUWo.s:600    .text.HAL_DMA_Abort:0000000000000000 $t
     /tmp/cc0nDUWo.s:607    .text.HAL_DMA_Abort:0000000000000000 HAL_DMA_Abort
     /tmp/cc0nDUWo.s:704    .text.HAL_DMA_Abort_IT:0000000000000000 $t
     /tmp/cc0nDUWo.s:711    .text.HAL_DMA_Abort_IT:0000000000000000 HAL_DMA_Abort_IT
     /tmp/cc0nDUWo.s:818    .text.HAL_DMA_PollForTransfer:0000000000000000 $t
     /tmp/cc0nDUWo.s:825    .text.HAL_DMA_PollForTransfer:0000000000000000 HAL_DMA_PollForTransfer
     /tmp/cc0nDUWo.s:1056   .text.HAL_DMA_IRQHandler:0000000000000000 $t
     /tmp/cc0nDUWo.s:1063   .text.HAL_DMA_IRQHandler:0000000000000000 HAL_DMA_IRQHandler
     /tmp/cc0nDUWo.s:1298   .text.HAL_DMA_RegisterCallback:0000000000000000 $t
     /tmp/cc0nDUWo.s:1305   .text.HAL_DMA_RegisterCallback:0000000000000000 HAL_DMA_RegisterCallback
     /tmp/cc0nDUWo.s:1435   .text.HAL_DMA_UnRegisterCallback:0000000000000000 $t
     /tmp/cc0nDUWo.s:1442   .text.HAL_DMA_UnRegisterCallback:0000000000000000 HAL_DMA_UnRegisterCallback
     /tmp/cc0nDUWo.s:1501   .rodata.HAL_DMA_UnRegisterCallback:0000000000000000 $d
     /tmp/cc0nDUWo.s:1591   .text.HAL_DMA_UnRegisterCallback:00000000000000b0 $d
     /tmp/cc0nDUWo.s:1596   .text.HAL_DMA_GetState:0000000000000000 $t
     /tmp/cc0nDUWo.s:1603   .text.HAL_DMA_GetState:0000000000000000 HAL_DMA_GetState
     /tmp/cc0nDUWo.s:1636   .text.HAL_DMA_GetError:0000000000000000 $t
     /tmp/cc0nDUWo.s:1643   .text.HAL_DMA_GetError:0000000000000000 HAL_DMA_GetError
     /tmp/cc0nDUWo.s:1674   .text.DMA_SetConfig:0000000000000000 $t
                     .debug_frame:0000000000000010 $d

UNDEFINED SYMBOLS
__aeabi_uidiv
HAL_GetTick
