ARM GAS  /tmp/ccVIBQF4.s 			page 1


   1              		.cpu cortex-m0plus
   2              		.eabi_attribute 20, 1
   3              		.eabi_attribute 21, 1
   4              		.eabi_attribute 23, 3
   5              		.eabi_attribute 24, 1
   6              		.eabi_attribute 25, 1
   7              		.eabi_attribute 26, 1
   8              		.eabi_attribute 30, 6
   9              		.eabi_attribute 34, 0
  10              		.eabi_attribute 18, 4
  11              		.file	"stm32l0xx_hal_msp.c"
  12              		.text
  13              	.Ltext0:
  14              		.cfi_sections	.debug_frame
  15              		.section	.text.HAL_MspInit,"ax",%progbits
  16              		.align	1
  17              		.global	HAL_MspInit
  18              		.syntax unified
  19              		.code	16
  20              		.thumb_func
  21              		.fpu softvfp
  23              	HAL_MspInit:
  24              	.LFB34:
  25              		.file 1 "Src/stm32l0xx_hal_msp.c"
   1:Src/stm32l0xx_hal_msp.c **** /* USER CODE BEGIN Header */
   2:Src/stm32l0xx_hal_msp.c **** /**
   3:Src/stm32l0xx_hal_msp.c ****   ******************************************************************************
   4:Src/stm32l0xx_hal_msp.c ****   * File Name          : stm32l0xx_hal_msp.c
   5:Src/stm32l0xx_hal_msp.c ****   * Description        : This file provides code for the MSP Initialization 
   6:Src/stm32l0xx_hal_msp.c ****   *                      and de-Initialization codes.
   7:Src/stm32l0xx_hal_msp.c ****   ******************************************************************************
   8:Src/stm32l0xx_hal_msp.c ****   * This notice applies to any and all portions of this file
   9:Src/stm32l0xx_hal_msp.c ****   * that are not between comment pairs USER CODE BEGIN and
  10:Src/stm32l0xx_hal_msp.c ****   * USER CODE END. Other portions of this file, whether 
  11:Src/stm32l0xx_hal_msp.c ****   * inserted by the user or by software development tools
  12:Src/stm32l0xx_hal_msp.c ****   * are owned by their respective copyright owners.
  13:Src/stm32l0xx_hal_msp.c ****   *
  14:Src/stm32l0xx_hal_msp.c ****   * Copyright (c) 2019 STMicroelectronics International N.V. 
  15:Src/stm32l0xx_hal_msp.c ****   * All rights reserved.
  16:Src/stm32l0xx_hal_msp.c ****   *
  17:Src/stm32l0xx_hal_msp.c ****   * Redistribution and use in source and binary forms, with or without 
  18:Src/stm32l0xx_hal_msp.c ****   * modification, are permitted, provided that the following conditions are met:
  19:Src/stm32l0xx_hal_msp.c ****   *
  20:Src/stm32l0xx_hal_msp.c ****   * 1. Redistribution of source code must retain the above copyright notice, 
  21:Src/stm32l0xx_hal_msp.c ****   *    this list of conditions and the following disclaimer.
  22:Src/stm32l0xx_hal_msp.c ****   * 2. Redistributions in binary form must reproduce the above copyright notice,
  23:Src/stm32l0xx_hal_msp.c ****   *    this list of conditions and the following disclaimer in the documentation
  24:Src/stm32l0xx_hal_msp.c ****   *    and/or other materials provided with the distribution.
  25:Src/stm32l0xx_hal_msp.c ****   * 3. Neither the name of STMicroelectronics nor the names of other 
  26:Src/stm32l0xx_hal_msp.c ****   *    contributors to this software may be used to endorse or promote products 
  27:Src/stm32l0xx_hal_msp.c ****   *    derived from this software without specific written permission.
  28:Src/stm32l0xx_hal_msp.c ****   * 4. This software, including modifications and/or derivative works of this 
  29:Src/stm32l0xx_hal_msp.c ****   *    software, must execute solely and exclusively on microcontroller or
  30:Src/stm32l0xx_hal_msp.c ****   *    microprocessor devices manufactured by or for STMicroelectronics.
  31:Src/stm32l0xx_hal_msp.c ****   * 5. Redistribution and use of this software other than as permitted under 
  32:Src/stm32l0xx_hal_msp.c ****   *    this license is void and will automatically terminate your rights under 
  33:Src/stm32l0xx_hal_msp.c ****   *    this license. 
ARM GAS  /tmp/ccVIBQF4.s 			page 2


  34:Src/stm32l0xx_hal_msp.c ****   *
  35:Src/stm32l0xx_hal_msp.c ****   * THIS SOFTWARE IS PROVIDED BY STMICROELECTRONICS AND CONTRIBUTORS "AS IS" 
  36:Src/stm32l0xx_hal_msp.c ****   * AND ANY EXPRESS, IMPLIED OR STATUTORY WARRANTIES, INCLUDING, BUT NOT 
  37:Src/stm32l0xx_hal_msp.c ****   * LIMITED TO, THE IMPLIED WARRANTIES OF MERCHANTABILITY, FITNESS FOR A 
  38:Src/stm32l0xx_hal_msp.c ****   * PARTICULAR PURPOSE AND NON-INFRINGEMENT OF THIRD PARTY INTELLECTUAL PROPERTY
  39:Src/stm32l0xx_hal_msp.c ****   * RIGHTS ARE DISCLAIMED TO THE FULLEST EXTENT PERMITTED BY LAW. IN NO EVENT 
  40:Src/stm32l0xx_hal_msp.c ****   * SHALL STMICROELECTRONICS OR CONTRIBUTORS BE LIABLE FOR ANY DIRECT, INDIRECT,
  41:Src/stm32l0xx_hal_msp.c ****   * INCIDENTAL, SPECIAL, EXEMPLARY, OR CONSEQUENTIAL DAMAGES (INCLUDING, BUT NOT
  42:Src/stm32l0xx_hal_msp.c ****   * LIMITED TO, PROCUREMENT OF SUBSTITUTE GOODS OR SERVICES; LOSS OF USE, DATA, 
  43:Src/stm32l0xx_hal_msp.c ****   * OR PROFITS; OR BUSINESS INTERRUPTION) HOWEVER CAUSED AND ON ANY THEORY OF 
  44:Src/stm32l0xx_hal_msp.c ****   * LIABILITY, WHETHER IN CONTRACT, STRICT LIABILITY, OR TORT (INCLUDING 
  45:Src/stm32l0xx_hal_msp.c ****   * NEGLIGENCE OR OTHERWISE) ARISING IN ANY WAY OUT OF THE USE OF THIS SOFTWARE,
  46:Src/stm32l0xx_hal_msp.c ****   * EVEN IF ADVISED OF THE POSSIBILITY OF SUCH DAMAGE.
  47:Src/stm32l0xx_hal_msp.c ****   *
  48:Src/stm32l0xx_hal_msp.c ****   ******************************************************************************
  49:Src/stm32l0xx_hal_msp.c ****   */
  50:Src/stm32l0xx_hal_msp.c **** /* USER CODE END Header */
  51:Src/stm32l0xx_hal_msp.c **** 
  52:Src/stm32l0xx_hal_msp.c **** /* Includes ------------------------------------------------------------------*/
  53:Src/stm32l0xx_hal_msp.c **** #include "main.h"
  54:Src/stm32l0xx_hal_msp.c **** /* USER CODE BEGIN Includes */
  55:Src/stm32l0xx_hal_msp.c **** 
  56:Src/stm32l0xx_hal_msp.c **** /* USER CODE END Includes */
  57:Src/stm32l0xx_hal_msp.c **** 
  58:Src/stm32l0xx_hal_msp.c **** /* Private typedef -----------------------------------------------------------*/
  59:Src/stm32l0xx_hal_msp.c **** /* USER CODE BEGIN TD */
  60:Src/stm32l0xx_hal_msp.c **** 
  61:Src/stm32l0xx_hal_msp.c **** /* USER CODE END TD */
  62:Src/stm32l0xx_hal_msp.c **** 
  63:Src/stm32l0xx_hal_msp.c **** /* Private define ------------------------------------------------------------*/
  64:Src/stm32l0xx_hal_msp.c **** /* USER CODE BEGIN Define */
  65:Src/stm32l0xx_hal_msp.c ****  
  66:Src/stm32l0xx_hal_msp.c **** /* USER CODE END Define */
  67:Src/stm32l0xx_hal_msp.c **** 
  68:Src/stm32l0xx_hal_msp.c **** /* Private macro -------------------------------------------------------------*/
  69:Src/stm32l0xx_hal_msp.c **** /* USER CODE BEGIN Macro */
  70:Src/stm32l0xx_hal_msp.c **** 
  71:Src/stm32l0xx_hal_msp.c **** /* USER CODE END Macro */
  72:Src/stm32l0xx_hal_msp.c **** 
  73:Src/stm32l0xx_hal_msp.c **** /* Private variables ---------------------------------------------------------*/
  74:Src/stm32l0xx_hal_msp.c **** /* USER CODE BEGIN PV */
  75:Src/stm32l0xx_hal_msp.c **** 
  76:Src/stm32l0xx_hal_msp.c **** /* USER CODE END PV */
  77:Src/stm32l0xx_hal_msp.c **** 
  78:Src/stm32l0xx_hal_msp.c **** /* Private function prototypes -----------------------------------------------*/
  79:Src/stm32l0xx_hal_msp.c **** /* USER CODE BEGIN PFP */
  80:Src/stm32l0xx_hal_msp.c **** 
  81:Src/stm32l0xx_hal_msp.c **** /* USER CODE END PFP */
  82:Src/stm32l0xx_hal_msp.c **** 
  83:Src/stm32l0xx_hal_msp.c **** /* External functions --------------------------------------------------------*/
  84:Src/stm32l0xx_hal_msp.c **** /* USER CODE BEGIN ExternalFunctions */
  85:Src/stm32l0xx_hal_msp.c **** 
  86:Src/stm32l0xx_hal_msp.c **** /* USER CODE END ExternalFunctions */
  87:Src/stm32l0xx_hal_msp.c **** 
  88:Src/stm32l0xx_hal_msp.c **** /* USER CODE BEGIN 0 */
  89:Src/stm32l0xx_hal_msp.c **** 
  90:Src/stm32l0xx_hal_msp.c **** /* USER CODE END 0 */
ARM GAS  /tmp/ccVIBQF4.s 			page 3


  91:Src/stm32l0xx_hal_msp.c **** /**
  92:Src/stm32l0xx_hal_msp.c ****   * Initializes the Global MSP.
  93:Src/stm32l0xx_hal_msp.c ****   */
  94:Src/stm32l0xx_hal_msp.c **** void HAL_MspInit(void)
  95:Src/stm32l0xx_hal_msp.c **** {
  26              		.loc 1 95 0
  27              		.cfi_startproc
  28              		@ args = 0, pretend = 0, frame = 0
  29              		@ frame_needed = 1, uses_anonymous_args = 0
  30 0000 80B5     		push	{r7, lr}
  31              	.LCFI0:
  32              		.cfi_def_cfa_offset 8
  33              		.cfi_offset 7, -8
  34              		.cfi_offset 14, -4
  35 0002 00AF     		add	r7, sp, #0
  36              	.LCFI1:
  37              		.cfi_def_cfa_register 7
  96:Src/stm32l0xx_hal_msp.c ****   /* USER CODE BEGIN MspInit 0 */
  97:Src/stm32l0xx_hal_msp.c **** 
  98:Src/stm32l0xx_hal_msp.c ****   /* USER CODE END MspInit 0 */
  99:Src/stm32l0xx_hal_msp.c **** 
 100:Src/stm32l0xx_hal_msp.c ****   __HAL_RCC_SYSCFG_CLK_ENABLE();
  38              		.loc 1 100 0
  39 0004 074B     		ldr	r3, .L2
  40 0006 074A     		ldr	r2, .L2
  41 0008 526B     		ldr	r2, [r2, #52]
  42 000a 0121     		movs	r1, #1
  43 000c 0A43     		orrs	r2, r1
  44 000e 5A63     		str	r2, [r3, #52]
 101:Src/stm32l0xx_hal_msp.c ****   __HAL_RCC_PWR_CLK_ENABLE();
  45              		.loc 1 101 0
  46 0010 044B     		ldr	r3, .L2
  47 0012 044A     		ldr	r2, .L2
  48 0014 926B     		ldr	r2, [r2, #56]
  49 0016 8021     		movs	r1, #128
  50 0018 4905     		lsls	r1, r1, #21
  51 001a 0A43     		orrs	r2, r1
  52 001c 9A63     		str	r2, [r3, #56]
 102:Src/stm32l0xx_hal_msp.c **** 
 103:Src/stm32l0xx_hal_msp.c ****   /* System interrupt init*/
 104:Src/stm32l0xx_hal_msp.c **** 
 105:Src/stm32l0xx_hal_msp.c ****   /* USER CODE BEGIN MspInit 1 */
 106:Src/stm32l0xx_hal_msp.c **** 
 107:Src/stm32l0xx_hal_msp.c ****   /* USER CODE END MspInit 1 */
 108:Src/stm32l0xx_hal_msp.c **** }
  53              		.loc 1 108 0
  54 001e C046     		nop
  55 0020 BD46     		mov	sp, r7
  56              		@ sp needed
  57 0022 80BD     		pop	{r7, pc}
  58              	.L3:
  59              		.align	2
  60              	.L2:
  61 0024 00100240 		.word	1073876992
  62              		.cfi_endproc
  63              	.LFE34:
  65              		.section	.text.HAL_ADC_MspInit,"ax",%progbits
ARM GAS  /tmp/ccVIBQF4.s 			page 4


  66              		.align	1
  67              		.global	HAL_ADC_MspInit
  68              		.syntax unified
  69              		.code	16
  70              		.thumb_func
  71              		.fpu softvfp
  73              	HAL_ADC_MspInit:
  74              	.LFB35:
 109:Src/stm32l0xx_hal_msp.c **** 
 110:Src/stm32l0xx_hal_msp.c **** /**
 111:Src/stm32l0xx_hal_msp.c **** * @brief ADC MSP Initialization
 112:Src/stm32l0xx_hal_msp.c **** * This function configures the hardware resources used in this example
 113:Src/stm32l0xx_hal_msp.c **** * @param hadc: ADC handle pointer
 114:Src/stm32l0xx_hal_msp.c **** * @retval None
 115:Src/stm32l0xx_hal_msp.c **** */
 116:Src/stm32l0xx_hal_msp.c **** void HAL_ADC_MspInit(ADC_HandleTypeDef* hadc)
 117:Src/stm32l0xx_hal_msp.c **** {
  75              		.loc 1 117 0
  76              		.cfi_startproc
  77              		@ args = 0, pretend = 0, frame = 32
  78              		@ frame_needed = 1, uses_anonymous_args = 0
  79 0000 80B5     		push	{r7, lr}
  80              	.LCFI2:
  81              		.cfi_def_cfa_offset 8
  82              		.cfi_offset 7, -8
  83              		.cfi_offset 14, -4
  84 0002 88B0     		sub	sp, sp, #32
  85              	.LCFI3:
  86              		.cfi_def_cfa_offset 40
  87 0004 00AF     		add	r7, sp, #0
  88              	.LCFI4:
  89              		.cfi_def_cfa_register 7
  90 0006 7860     		str	r0, [r7, #4]
 118:Src/stm32l0xx_hal_msp.c **** 
 119:Src/stm32l0xx_hal_msp.c ****   GPIO_InitTypeDef GPIO_InitStruct = {0};
  91              		.loc 1 119 0
  92 0008 0C23     		movs	r3, #12
  93 000a FB18     		adds	r3, r7, r3
  94 000c 1800     		movs	r0, r3
  95 000e 1423     		movs	r3, #20
  96 0010 1A00     		movs	r2, r3
  97 0012 0021     		movs	r1, #0
  98 0014 FFF7FEFF 		bl	memset
 120:Src/stm32l0xx_hal_msp.c ****   if(hadc->Instance==ADC1)
  99              		.loc 1 120 0
 100 0018 7B68     		ldr	r3, [r7, #4]
 101 001a 1B68     		ldr	r3, [r3]
 102 001c 164A     		ldr	r2, .L7
 103 001e 9342     		cmp	r3, r2
 104 0020 26D1     		bne	.L6
 121:Src/stm32l0xx_hal_msp.c ****   {
 122:Src/stm32l0xx_hal_msp.c ****   /* USER CODE BEGIN ADC1_MspInit 0 */
 123:Src/stm32l0xx_hal_msp.c **** 
 124:Src/stm32l0xx_hal_msp.c ****   /* USER CODE END ADC1_MspInit 0 */
 125:Src/stm32l0xx_hal_msp.c ****     /* Peripheral clock enable */
 126:Src/stm32l0xx_hal_msp.c ****     __HAL_RCC_ADC1_CLK_ENABLE();
 105              		.loc 1 126 0
ARM GAS  /tmp/ccVIBQF4.s 			page 5


 106 0022 164B     		ldr	r3, .L7+4
 107 0024 154A     		ldr	r2, .L7+4
 108 0026 526B     		ldr	r2, [r2, #52]
 109 0028 8021     		movs	r1, #128
 110 002a 8900     		lsls	r1, r1, #2
 111 002c 0A43     		orrs	r2, r1
 112 002e 5A63     		str	r2, [r3, #52]
 113              	.LBB2:
 127:Src/stm32l0xx_hal_msp.c ****   
 128:Src/stm32l0xx_hal_msp.c ****     __HAL_RCC_GPIOA_CLK_ENABLE();
 114              		.loc 1 128 0
 115 0030 124B     		ldr	r3, .L7+4
 116 0032 124A     		ldr	r2, .L7+4
 117 0034 D26A     		ldr	r2, [r2, #44]
 118 0036 0121     		movs	r1, #1
 119 0038 0A43     		orrs	r2, r1
 120 003a DA62     		str	r2, [r3, #44]
 121 003c 0F4B     		ldr	r3, .L7+4
 122 003e DB6A     		ldr	r3, [r3, #44]
 123 0040 0122     		movs	r2, #1
 124 0042 1340     		ands	r3, r2
 125 0044 BB60     		str	r3, [r7, #8]
 126 0046 BB68     		ldr	r3, [r7, #8]
 127              	.LBE2:
 129:Src/stm32l0xx_hal_msp.c ****     /**ADC GPIO Configuration    
 130:Src/stm32l0xx_hal_msp.c ****     PA0     ------> ADC_IN0
 131:Src/stm32l0xx_hal_msp.c ****     PA1     ------> ADC_IN1
 132:Src/stm32l0xx_hal_msp.c ****     PA2     ------> ADC_IN2
 133:Src/stm32l0xx_hal_msp.c ****     PA3     ------> ADC_IN3 
 134:Src/stm32l0xx_hal_msp.c ****     */
 135:Src/stm32l0xx_hal_msp.c ****     GPIO_InitStruct.Pin = GPIO_PIN_0|GPIO_PIN_1|GPIO_PIN_2|GPIO_PIN_3;
 128              		.loc 1 135 0
 129 0048 0C23     		movs	r3, #12
 130 004a FB18     		adds	r3, r7, r3
 131 004c 0F22     		movs	r2, #15
 132 004e 1A60     		str	r2, [r3]
 136:Src/stm32l0xx_hal_msp.c ****     GPIO_InitStruct.Mode = GPIO_MODE_ANALOG;
 133              		.loc 1 136 0
 134 0050 0C23     		movs	r3, #12
 135 0052 FB18     		adds	r3, r7, r3
 136 0054 0322     		movs	r2, #3
 137 0056 5A60     		str	r2, [r3, #4]
 137:Src/stm32l0xx_hal_msp.c ****     GPIO_InitStruct.Pull = GPIO_NOPULL;
 138              		.loc 1 137 0
 139 0058 0C23     		movs	r3, #12
 140 005a FB18     		adds	r3, r7, r3
 141 005c 0022     		movs	r2, #0
 142 005e 9A60     		str	r2, [r3, #8]
 138:Src/stm32l0xx_hal_msp.c ****     HAL_GPIO_Init(GPIOA, &GPIO_InitStruct);
 143              		.loc 1 138 0
 144 0060 0C23     		movs	r3, #12
 145 0062 FA18     		adds	r2, r7, r3
 146 0064 A023     		movs	r3, #160
 147 0066 DB05     		lsls	r3, r3, #23
 148 0068 1100     		movs	r1, r2
 149 006a 1800     		movs	r0, r3
 150 006c FFF7FEFF 		bl	HAL_GPIO_Init
ARM GAS  /tmp/ccVIBQF4.s 			page 6


 151              	.L6:
 139:Src/stm32l0xx_hal_msp.c **** 
 140:Src/stm32l0xx_hal_msp.c ****   /* USER CODE BEGIN ADC1_MspInit 1 */
 141:Src/stm32l0xx_hal_msp.c **** 
 142:Src/stm32l0xx_hal_msp.c ****   /* USER CODE END ADC1_MspInit 1 */
 143:Src/stm32l0xx_hal_msp.c ****   }
 144:Src/stm32l0xx_hal_msp.c **** 
 145:Src/stm32l0xx_hal_msp.c **** }
 152              		.loc 1 145 0
 153 0070 C046     		nop
 154 0072 BD46     		mov	sp, r7
 155 0074 08B0     		add	sp, sp, #32
 156              		@ sp needed
 157 0076 80BD     		pop	{r7, pc}
 158              	.L8:
 159              		.align	2
 160              	.L7:
 161 0078 00240140 		.word	1073816576
 162 007c 00100240 		.word	1073876992
 163              		.cfi_endproc
 164              	.LFE35:
 166              		.section	.text.HAL_ADC_MspDeInit,"ax",%progbits
 167              		.align	1
 168              		.global	HAL_ADC_MspDeInit
 169              		.syntax unified
 170              		.code	16
 171              		.thumb_func
 172              		.fpu softvfp
 174              	HAL_ADC_MspDeInit:
 175              	.LFB36:
 146:Src/stm32l0xx_hal_msp.c **** 
 147:Src/stm32l0xx_hal_msp.c **** /**
 148:Src/stm32l0xx_hal_msp.c **** * @brief ADC MSP De-Initialization
 149:Src/stm32l0xx_hal_msp.c **** * This function freeze the hardware resources used in this example
 150:Src/stm32l0xx_hal_msp.c **** * @param hadc: ADC handle pointer
 151:Src/stm32l0xx_hal_msp.c **** * @retval None
 152:Src/stm32l0xx_hal_msp.c **** */
 153:Src/stm32l0xx_hal_msp.c **** 
 154:Src/stm32l0xx_hal_msp.c **** void HAL_ADC_MspDeInit(ADC_HandleTypeDef* hadc)
 155:Src/stm32l0xx_hal_msp.c **** {
 176              		.loc 1 155 0
 177              		.cfi_startproc
 178              		@ args = 0, pretend = 0, frame = 8
 179              		@ frame_needed = 1, uses_anonymous_args = 0
 180 0000 80B5     		push	{r7, lr}
 181              	.LCFI5:
 182              		.cfi_def_cfa_offset 8
 183              		.cfi_offset 7, -8
 184              		.cfi_offset 14, -4
 185 0002 82B0     		sub	sp, sp, #8
 186              	.LCFI6:
 187              		.cfi_def_cfa_offset 16
 188 0004 00AF     		add	r7, sp, #0
 189              	.LCFI7:
 190              		.cfi_def_cfa_register 7
 191 0006 7860     		str	r0, [r7, #4]
 156:Src/stm32l0xx_hal_msp.c **** 
ARM GAS  /tmp/ccVIBQF4.s 			page 7


 157:Src/stm32l0xx_hal_msp.c ****   if(hadc->Instance==ADC1)
 192              		.loc 1 157 0
 193 0008 7B68     		ldr	r3, [r7, #4]
 194 000a 1B68     		ldr	r3, [r3]
 195 000c 094A     		ldr	r2, .L12
 196 000e 9342     		cmp	r3, r2
 197 0010 0BD1     		bne	.L11
 158:Src/stm32l0xx_hal_msp.c ****   {
 159:Src/stm32l0xx_hal_msp.c ****   /* USER CODE BEGIN ADC1_MspDeInit 0 */
 160:Src/stm32l0xx_hal_msp.c **** 
 161:Src/stm32l0xx_hal_msp.c ****   /* USER CODE END ADC1_MspDeInit 0 */
 162:Src/stm32l0xx_hal_msp.c ****     /* Peripheral clock disable */
 163:Src/stm32l0xx_hal_msp.c ****     __HAL_RCC_ADC1_CLK_DISABLE();
 198              		.loc 1 163 0
 199 0012 094B     		ldr	r3, .L12+4
 200 0014 084A     		ldr	r2, .L12+4
 201 0016 526B     		ldr	r2, [r2, #52]
 202 0018 0849     		ldr	r1, .L12+8
 203 001a 0A40     		ands	r2, r1
 204 001c 5A63     		str	r2, [r3, #52]
 164:Src/stm32l0xx_hal_msp.c ****   
 165:Src/stm32l0xx_hal_msp.c ****     /**ADC GPIO Configuration    
 166:Src/stm32l0xx_hal_msp.c ****     PA0     ------> ADC_IN0
 167:Src/stm32l0xx_hal_msp.c ****     PA1     ------> ADC_IN1
 168:Src/stm32l0xx_hal_msp.c ****     PA2     ------> ADC_IN2
 169:Src/stm32l0xx_hal_msp.c ****     PA3     ------> ADC_IN3 
 170:Src/stm32l0xx_hal_msp.c ****     */
 171:Src/stm32l0xx_hal_msp.c ****     HAL_GPIO_DeInit(GPIOA, GPIO_PIN_0|GPIO_PIN_1|GPIO_PIN_2|GPIO_PIN_3);
 205              		.loc 1 171 0
 206 001e A023     		movs	r3, #160
 207 0020 DB05     		lsls	r3, r3, #23
 208 0022 0F21     		movs	r1, #15
 209 0024 1800     		movs	r0, r3
 210 0026 FFF7FEFF 		bl	HAL_GPIO_DeInit
 211              	.L11:
 172:Src/stm32l0xx_hal_msp.c **** 
 173:Src/stm32l0xx_hal_msp.c ****   /* USER CODE BEGIN ADC1_MspDeInit 1 */
 174:Src/stm32l0xx_hal_msp.c **** 
 175:Src/stm32l0xx_hal_msp.c ****   /* USER CODE END ADC1_MspDeInit 1 */
 176:Src/stm32l0xx_hal_msp.c ****   }
 177:Src/stm32l0xx_hal_msp.c **** 
 178:Src/stm32l0xx_hal_msp.c **** }
 212              		.loc 1 178 0
 213 002a C046     		nop
 214 002c BD46     		mov	sp, r7
 215 002e 02B0     		add	sp, sp, #8
 216              		@ sp needed
 217 0030 80BD     		pop	{r7, pc}
 218              	.L13:
 219 0032 C046     		.align	2
 220              	.L12:
 221 0034 00240140 		.word	1073816576
 222 0038 00100240 		.word	1073876992
 223 003c FFFDFFFF 		.word	-513
 224              		.cfi_endproc
 225              	.LFE36:
 227              		.section	.text.HAL_DAC_MspInit,"ax",%progbits
ARM GAS  /tmp/ccVIBQF4.s 			page 8


 228              		.align	1
 229              		.global	HAL_DAC_MspInit
 230              		.syntax unified
 231              		.code	16
 232              		.thumb_func
 233              		.fpu softvfp
 235              	HAL_DAC_MspInit:
 236              	.LFB37:
 179:Src/stm32l0xx_hal_msp.c **** 
 180:Src/stm32l0xx_hal_msp.c **** /**
 181:Src/stm32l0xx_hal_msp.c **** * @brief DAC MSP Initialization
 182:Src/stm32l0xx_hal_msp.c **** * This function configures the hardware resources used in this example
 183:Src/stm32l0xx_hal_msp.c **** * @param hdac: DAC handle pointer
 184:Src/stm32l0xx_hal_msp.c **** * @retval None
 185:Src/stm32l0xx_hal_msp.c **** */
 186:Src/stm32l0xx_hal_msp.c **** void HAL_DAC_MspInit(DAC_HandleTypeDef* hdac)
 187:Src/stm32l0xx_hal_msp.c **** {
 237              		.loc 1 187 0
 238              		.cfi_startproc
 239              		@ args = 0, pretend = 0, frame = 32
 240              		@ frame_needed = 1, uses_anonymous_args = 0
 241 0000 80B5     		push	{r7, lr}
 242              	.LCFI8:
 243              		.cfi_def_cfa_offset 8
 244              		.cfi_offset 7, -8
 245              		.cfi_offset 14, -4
 246 0002 88B0     		sub	sp, sp, #32
 247              	.LCFI9:
 248              		.cfi_def_cfa_offset 40
 249 0004 00AF     		add	r7, sp, #0
 250              	.LCFI10:
 251              		.cfi_def_cfa_register 7
 252 0006 7860     		str	r0, [r7, #4]
 188:Src/stm32l0xx_hal_msp.c **** 
 189:Src/stm32l0xx_hal_msp.c ****   GPIO_InitTypeDef GPIO_InitStruct = {0};
 253              		.loc 1 189 0
 254 0008 0C23     		movs	r3, #12
 255 000a FB18     		adds	r3, r7, r3
 256 000c 1800     		movs	r0, r3
 257 000e 1423     		movs	r3, #20
 258 0010 1A00     		movs	r2, r3
 259 0012 0021     		movs	r1, #0
 260 0014 FFF7FEFF 		bl	memset
 190:Src/stm32l0xx_hal_msp.c ****   if(hdac->Instance==DAC)
 261              		.loc 1 190 0
 262 0018 7B68     		ldr	r3, [r7, #4]
 263 001a 1B68     		ldr	r3, [r3]
 264 001c 164A     		ldr	r2, .L17
 265 001e 9342     		cmp	r3, r2
 266 0020 26D1     		bne	.L16
 191:Src/stm32l0xx_hal_msp.c ****   {
 192:Src/stm32l0xx_hal_msp.c ****   /* USER CODE BEGIN DAC_MspInit 0 */
 193:Src/stm32l0xx_hal_msp.c **** 
 194:Src/stm32l0xx_hal_msp.c ****   /* USER CODE END DAC_MspInit 0 */
 195:Src/stm32l0xx_hal_msp.c ****     /* Peripheral clock enable */
 196:Src/stm32l0xx_hal_msp.c ****     __HAL_RCC_DAC_CLK_ENABLE();
 267              		.loc 1 196 0
ARM GAS  /tmp/ccVIBQF4.s 			page 9


 268 0022 164B     		ldr	r3, .L17+4
 269 0024 154A     		ldr	r2, .L17+4
 270 0026 926B     		ldr	r2, [r2, #56]
 271 0028 8021     		movs	r1, #128
 272 002a 8905     		lsls	r1, r1, #22
 273 002c 0A43     		orrs	r2, r1
 274 002e 9A63     		str	r2, [r3, #56]
 275              	.LBB3:
 197:Src/stm32l0xx_hal_msp.c ****   
 198:Src/stm32l0xx_hal_msp.c ****     __HAL_RCC_GPIOA_CLK_ENABLE();
 276              		.loc 1 198 0
 277 0030 124B     		ldr	r3, .L17+4
 278 0032 124A     		ldr	r2, .L17+4
 279 0034 D26A     		ldr	r2, [r2, #44]
 280 0036 0121     		movs	r1, #1
 281 0038 0A43     		orrs	r2, r1
 282 003a DA62     		str	r2, [r3, #44]
 283 003c 0F4B     		ldr	r3, .L17+4
 284 003e DB6A     		ldr	r3, [r3, #44]
 285 0040 0122     		movs	r2, #1
 286 0042 1340     		ands	r3, r2
 287 0044 BB60     		str	r3, [r7, #8]
 288 0046 BB68     		ldr	r3, [r7, #8]
 289              	.LBE3:
 199:Src/stm32l0xx_hal_msp.c ****     /**DAC GPIO Configuration    
 200:Src/stm32l0xx_hal_msp.c ****     PA4     ------> DAC_OUT1 
 201:Src/stm32l0xx_hal_msp.c ****     */
 202:Src/stm32l0xx_hal_msp.c ****     GPIO_InitStruct.Pin = GPIO_PIN_4;
 290              		.loc 1 202 0
 291 0048 0C23     		movs	r3, #12
 292 004a FB18     		adds	r3, r7, r3
 293 004c 1022     		movs	r2, #16
 294 004e 1A60     		str	r2, [r3]
 203:Src/stm32l0xx_hal_msp.c ****     GPIO_InitStruct.Mode = GPIO_MODE_ANALOG;
 295              		.loc 1 203 0
 296 0050 0C23     		movs	r3, #12
 297 0052 FB18     		adds	r3, r7, r3
 298 0054 0322     		movs	r2, #3
 299 0056 5A60     		str	r2, [r3, #4]
 204:Src/stm32l0xx_hal_msp.c ****     GPIO_InitStruct.Pull = GPIO_NOPULL;
 300              		.loc 1 204 0
 301 0058 0C23     		movs	r3, #12
 302 005a FB18     		adds	r3, r7, r3
 303 005c 0022     		movs	r2, #0
 304 005e 9A60     		str	r2, [r3, #8]
 205:Src/stm32l0xx_hal_msp.c ****     HAL_GPIO_Init(GPIOA, &GPIO_InitStruct);
 305              		.loc 1 205 0
 306 0060 0C23     		movs	r3, #12
 307 0062 FA18     		adds	r2, r7, r3
 308 0064 A023     		movs	r3, #160
 309 0066 DB05     		lsls	r3, r3, #23
 310 0068 1100     		movs	r1, r2
 311 006a 1800     		movs	r0, r3
 312 006c FFF7FEFF 		bl	HAL_GPIO_Init
 313              	.L16:
 206:Src/stm32l0xx_hal_msp.c **** 
 207:Src/stm32l0xx_hal_msp.c ****   /* USER CODE BEGIN DAC_MspInit 1 */
ARM GAS  /tmp/ccVIBQF4.s 			page 10


 208:Src/stm32l0xx_hal_msp.c **** 
 209:Src/stm32l0xx_hal_msp.c ****   /* USER CODE END DAC_MspInit 1 */
 210:Src/stm32l0xx_hal_msp.c ****   }
 211:Src/stm32l0xx_hal_msp.c **** 
 212:Src/stm32l0xx_hal_msp.c **** }
 314              		.loc 1 212 0
 315 0070 C046     		nop
 316 0072 BD46     		mov	sp, r7
 317 0074 08B0     		add	sp, sp, #32
 318              		@ sp needed
 319 0076 80BD     		pop	{r7, pc}
 320              	.L18:
 321              		.align	2
 322              	.L17:
 323 0078 00740040 		.word	1073771520
 324 007c 00100240 		.word	1073876992
 325              		.cfi_endproc
 326              	.LFE37:
 328              		.section	.text.HAL_DAC_MspDeInit,"ax",%progbits
 329              		.align	1
 330              		.global	HAL_DAC_MspDeInit
 331              		.syntax unified
 332              		.code	16
 333              		.thumb_func
 334              		.fpu softvfp
 336              	HAL_DAC_MspDeInit:
 337              	.LFB38:
 213:Src/stm32l0xx_hal_msp.c **** 
 214:Src/stm32l0xx_hal_msp.c **** /**
 215:Src/stm32l0xx_hal_msp.c **** * @brief DAC MSP De-Initialization
 216:Src/stm32l0xx_hal_msp.c **** * This function freeze the hardware resources used in this example
 217:Src/stm32l0xx_hal_msp.c **** * @param hdac: DAC handle pointer
 218:Src/stm32l0xx_hal_msp.c **** * @retval None
 219:Src/stm32l0xx_hal_msp.c **** */
 220:Src/stm32l0xx_hal_msp.c **** 
 221:Src/stm32l0xx_hal_msp.c **** void HAL_DAC_MspDeInit(DAC_HandleTypeDef* hdac)
 222:Src/stm32l0xx_hal_msp.c **** {
 338              		.loc 1 222 0
 339              		.cfi_startproc
 340              		@ args = 0, pretend = 0, frame = 8
 341              		@ frame_needed = 1, uses_anonymous_args = 0
 342 0000 80B5     		push	{r7, lr}
 343              	.LCFI11:
 344              		.cfi_def_cfa_offset 8
 345              		.cfi_offset 7, -8
 346              		.cfi_offset 14, -4
 347 0002 82B0     		sub	sp, sp, #8
 348              	.LCFI12:
 349              		.cfi_def_cfa_offset 16
 350 0004 00AF     		add	r7, sp, #0
 351              	.LCFI13:
 352              		.cfi_def_cfa_register 7
 353 0006 7860     		str	r0, [r7, #4]
 223:Src/stm32l0xx_hal_msp.c **** 
 224:Src/stm32l0xx_hal_msp.c ****   if(hdac->Instance==DAC)
 354              		.loc 1 224 0
 355 0008 7B68     		ldr	r3, [r7, #4]
ARM GAS  /tmp/ccVIBQF4.s 			page 11


 356 000a 1B68     		ldr	r3, [r3]
 357 000c 094A     		ldr	r2, .L22
 358 000e 9342     		cmp	r3, r2
 359 0010 0BD1     		bne	.L21
 225:Src/stm32l0xx_hal_msp.c ****   {
 226:Src/stm32l0xx_hal_msp.c ****   /* USER CODE BEGIN DAC_MspDeInit 0 */
 227:Src/stm32l0xx_hal_msp.c **** 
 228:Src/stm32l0xx_hal_msp.c ****   /* USER CODE END DAC_MspDeInit 0 */
 229:Src/stm32l0xx_hal_msp.c ****     /* Peripheral clock disable */
 230:Src/stm32l0xx_hal_msp.c ****     __HAL_RCC_DAC_CLK_DISABLE();
 360              		.loc 1 230 0
 361 0012 094B     		ldr	r3, .L22+4
 362 0014 084A     		ldr	r2, .L22+4
 363 0016 926B     		ldr	r2, [r2, #56]
 364 0018 0849     		ldr	r1, .L22+8
 365 001a 0A40     		ands	r2, r1
 366 001c 9A63     		str	r2, [r3, #56]
 231:Src/stm32l0xx_hal_msp.c ****   
 232:Src/stm32l0xx_hal_msp.c ****     /**DAC GPIO Configuration    
 233:Src/stm32l0xx_hal_msp.c ****     PA4     ------> DAC_OUT1 
 234:Src/stm32l0xx_hal_msp.c ****     */
 235:Src/stm32l0xx_hal_msp.c ****     HAL_GPIO_DeInit(GPIOA, GPIO_PIN_4);
 367              		.loc 1 235 0
 368 001e A023     		movs	r3, #160
 369 0020 DB05     		lsls	r3, r3, #23
 370 0022 1021     		movs	r1, #16
 371 0024 1800     		movs	r0, r3
 372 0026 FFF7FEFF 		bl	HAL_GPIO_DeInit
 373              	.L21:
 236:Src/stm32l0xx_hal_msp.c **** 
 237:Src/stm32l0xx_hal_msp.c ****   /* USER CODE BEGIN DAC_MspDeInit 1 */
 238:Src/stm32l0xx_hal_msp.c **** 
 239:Src/stm32l0xx_hal_msp.c ****   /* USER CODE END DAC_MspDeInit 1 */
 240:Src/stm32l0xx_hal_msp.c ****   }
 241:Src/stm32l0xx_hal_msp.c **** 
 242:Src/stm32l0xx_hal_msp.c **** }
 374              		.loc 1 242 0
 375 002a C046     		nop
 376 002c BD46     		mov	sp, r7
 377 002e 02B0     		add	sp, sp, #8
 378              		@ sp needed
 379 0030 80BD     		pop	{r7, pc}
 380              	.L23:
 381 0032 C046     		.align	2
 382              	.L22:
 383 0034 00740040 		.word	1073771520
 384 0038 00100240 		.word	1073876992
 385 003c FFFFFFDF 		.word	-536870913
 386              		.cfi_endproc
 387              	.LFE38:
 389              		.section	.text.HAL_I2C_MspInit,"ax",%progbits
 390              		.align	1
 391              		.global	HAL_I2C_MspInit
 392              		.syntax unified
 393              		.code	16
 394              		.thumb_func
 395              		.fpu softvfp
ARM GAS  /tmp/ccVIBQF4.s 			page 12


 397              	HAL_I2C_MspInit:
 398              	.LFB39:
 243:Src/stm32l0xx_hal_msp.c **** 
 244:Src/stm32l0xx_hal_msp.c **** /**
 245:Src/stm32l0xx_hal_msp.c **** * @brief I2C MSP Initialization
 246:Src/stm32l0xx_hal_msp.c **** * This function configures the hardware resources used in this example
 247:Src/stm32l0xx_hal_msp.c **** * @param hi2c: I2C handle pointer
 248:Src/stm32l0xx_hal_msp.c **** * @retval None
 249:Src/stm32l0xx_hal_msp.c **** */
 250:Src/stm32l0xx_hal_msp.c **** void HAL_I2C_MspInit(I2C_HandleTypeDef* hi2c)
 251:Src/stm32l0xx_hal_msp.c **** {
 399              		.loc 1 251 0
 400              		.cfi_startproc
 401              		@ args = 0, pretend = 0, frame = 32
 402              		@ frame_needed = 1, uses_anonymous_args = 0
 403 0000 80B5     		push	{r7, lr}
 404              	.LCFI14:
 405              		.cfi_def_cfa_offset 8
 406              		.cfi_offset 7, -8
 407              		.cfi_offset 14, -4
 408 0002 88B0     		sub	sp, sp, #32
 409              	.LCFI15:
 410              		.cfi_def_cfa_offset 40
 411 0004 00AF     		add	r7, sp, #0
 412              	.LCFI16:
 413              		.cfi_def_cfa_register 7
 414 0006 7860     		str	r0, [r7, #4]
 252:Src/stm32l0xx_hal_msp.c **** 
 253:Src/stm32l0xx_hal_msp.c ****   GPIO_InitTypeDef GPIO_InitStruct = {0};
 415              		.loc 1 253 0
 416 0008 0C23     		movs	r3, #12
 417 000a FB18     		adds	r3, r7, r3
 418 000c 1800     		movs	r0, r3
 419 000e 1423     		movs	r3, #20
 420 0010 1A00     		movs	r2, r3
 421 0012 0021     		movs	r1, #0
 422 0014 FFF7FEFF 		bl	memset
 254:Src/stm32l0xx_hal_msp.c ****   if(hi2c->Instance==I2C1)
 423              		.loc 1 254 0
 424 0018 7B68     		ldr	r3, [r7, #4]
 425 001a 1B68     		ldr	r3, [r3]
 426 001c 1A4A     		ldr	r2, .L27
 427 001e 9342     		cmp	r3, r2
 428 0020 2DD1     		bne	.L26
 429              	.LBB4:
 255:Src/stm32l0xx_hal_msp.c ****   {
 256:Src/stm32l0xx_hal_msp.c ****   /* USER CODE BEGIN I2C1_MspInit 0 */
 257:Src/stm32l0xx_hal_msp.c **** 
 258:Src/stm32l0xx_hal_msp.c ****   /* USER CODE END I2C1_MspInit 0 */
 259:Src/stm32l0xx_hal_msp.c ****   
 260:Src/stm32l0xx_hal_msp.c ****     __HAL_RCC_GPIOB_CLK_ENABLE();
 430              		.loc 1 260 0
 431 0022 1A4B     		ldr	r3, .L27+4
 432 0024 194A     		ldr	r2, .L27+4
 433 0026 D26A     		ldr	r2, [r2, #44]
 434 0028 0221     		movs	r1, #2
 435 002a 0A43     		orrs	r2, r1
ARM GAS  /tmp/ccVIBQF4.s 			page 13


 436 002c DA62     		str	r2, [r3, #44]
 437 002e 174B     		ldr	r3, .L27+4
 438 0030 DB6A     		ldr	r3, [r3, #44]
 439 0032 0222     		movs	r2, #2
 440 0034 1340     		ands	r3, r2
 441 0036 BB60     		str	r3, [r7, #8]
 442 0038 BB68     		ldr	r3, [r7, #8]
 443              	.LBE4:
 261:Src/stm32l0xx_hal_msp.c ****     /**I2C1 GPIO Configuration    
 262:Src/stm32l0xx_hal_msp.c ****     PB6     ------> I2C1_SCL
 263:Src/stm32l0xx_hal_msp.c ****     PB7     ------> I2C1_SDA 
 264:Src/stm32l0xx_hal_msp.c ****     */
 265:Src/stm32l0xx_hal_msp.c ****     GPIO_InitStruct.Pin = GPIO_PIN_6|GPIO_PIN_7;
 444              		.loc 1 265 0
 445 003a 0C23     		movs	r3, #12
 446 003c FB18     		adds	r3, r7, r3
 447 003e C022     		movs	r2, #192
 448 0040 1A60     		str	r2, [r3]
 266:Src/stm32l0xx_hal_msp.c ****     GPIO_InitStruct.Mode = GPIO_MODE_AF_OD;
 449              		.loc 1 266 0
 450 0042 0C23     		movs	r3, #12
 451 0044 FB18     		adds	r3, r7, r3
 452 0046 1222     		movs	r2, #18
 453 0048 5A60     		str	r2, [r3, #4]
 267:Src/stm32l0xx_hal_msp.c ****     GPIO_InitStruct.Pull = GPIO_PULLUP;
 454              		.loc 1 267 0
 455 004a 0C23     		movs	r3, #12
 456 004c FB18     		adds	r3, r7, r3
 457 004e 0122     		movs	r2, #1
 458 0050 9A60     		str	r2, [r3, #8]
 268:Src/stm32l0xx_hal_msp.c ****     GPIO_InitStruct.Speed = GPIO_SPEED_FREQ_VERY_HIGH;
 459              		.loc 1 268 0
 460 0052 0C23     		movs	r3, #12
 461 0054 FB18     		adds	r3, r7, r3
 462 0056 0322     		movs	r2, #3
 463 0058 DA60     		str	r2, [r3, #12]
 269:Src/stm32l0xx_hal_msp.c ****     GPIO_InitStruct.Alternate = GPIO_AF1_I2C1;
 464              		.loc 1 269 0
 465 005a 0C23     		movs	r3, #12
 466 005c FB18     		adds	r3, r7, r3
 467 005e 0122     		movs	r2, #1
 468 0060 1A61     		str	r2, [r3, #16]
 270:Src/stm32l0xx_hal_msp.c ****     HAL_GPIO_Init(GPIOB, &GPIO_InitStruct);
 469              		.loc 1 270 0
 470 0062 0C23     		movs	r3, #12
 471 0064 FB18     		adds	r3, r7, r3
 472 0066 0A4A     		ldr	r2, .L27+8
 473 0068 1900     		movs	r1, r3
 474 006a 1000     		movs	r0, r2
 475 006c FFF7FEFF 		bl	HAL_GPIO_Init
 271:Src/stm32l0xx_hal_msp.c **** 
 272:Src/stm32l0xx_hal_msp.c ****     /* Peripheral clock enable */
 273:Src/stm32l0xx_hal_msp.c ****     __HAL_RCC_I2C1_CLK_ENABLE();
 476              		.loc 1 273 0
 477 0070 064B     		ldr	r3, .L27+4
 478 0072 064A     		ldr	r2, .L27+4
 479 0074 926B     		ldr	r2, [r2, #56]
ARM GAS  /tmp/ccVIBQF4.s 			page 14


 480 0076 8021     		movs	r1, #128
 481 0078 8903     		lsls	r1, r1, #14
 482 007a 0A43     		orrs	r2, r1
 483 007c 9A63     		str	r2, [r3, #56]
 484              	.L26:
 274:Src/stm32l0xx_hal_msp.c ****   /* USER CODE BEGIN I2C1_MspInit 1 */
 275:Src/stm32l0xx_hal_msp.c **** 
 276:Src/stm32l0xx_hal_msp.c ****   /* USER CODE END I2C1_MspInit 1 */
 277:Src/stm32l0xx_hal_msp.c ****   }
 278:Src/stm32l0xx_hal_msp.c **** 
 279:Src/stm32l0xx_hal_msp.c **** }
 485              		.loc 1 279 0
 486 007e C046     		nop
 487 0080 BD46     		mov	sp, r7
 488 0082 08B0     		add	sp, sp, #32
 489              		@ sp needed
 490 0084 80BD     		pop	{r7, pc}
 491              	.L28:
 492 0086 C046     		.align	2
 493              	.L27:
 494 0088 00540040 		.word	1073763328
 495 008c 00100240 		.word	1073876992
 496 0090 00040050 		.word	1342178304
 497              		.cfi_endproc
 498              	.LFE39:
 500              		.section	.text.HAL_I2C_MspDeInit,"ax",%progbits
 501              		.align	1
 502              		.global	HAL_I2C_MspDeInit
 503              		.syntax unified
 504              		.code	16
 505              		.thumb_func
 506              		.fpu softvfp
 508              	HAL_I2C_MspDeInit:
 509              	.LFB40:
 280:Src/stm32l0xx_hal_msp.c **** 
 281:Src/stm32l0xx_hal_msp.c **** /**
 282:Src/stm32l0xx_hal_msp.c **** * @brief I2C MSP De-Initialization
 283:Src/stm32l0xx_hal_msp.c **** * This function freeze the hardware resources used in this example
 284:Src/stm32l0xx_hal_msp.c **** * @param hi2c: I2C handle pointer
 285:Src/stm32l0xx_hal_msp.c **** * @retval None
 286:Src/stm32l0xx_hal_msp.c **** */
 287:Src/stm32l0xx_hal_msp.c **** 
 288:Src/stm32l0xx_hal_msp.c **** void HAL_I2C_MspDeInit(I2C_HandleTypeDef* hi2c)
 289:Src/stm32l0xx_hal_msp.c **** {
 510              		.loc 1 289 0
 511              		.cfi_startproc
 512              		@ args = 0, pretend = 0, frame = 8
 513              		@ frame_needed = 1, uses_anonymous_args = 0
 514 0000 80B5     		push	{r7, lr}
 515              	.LCFI17:
 516              		.cfi_def_cfa_offset 8
 517              		.cfi_offset 7, -8
 518              		.cfi_offset 14, -4
 519 0002 82B0     		sub	sp, sp, #8
 520              	.LCFI18:
 521              		.cfi_def_cfa_offset 16
 522 0004 00AF     		add	r7, sp, #0
ARM GAS  /tmp/ccVIBQF4.s 			page 15


 523              	.LCFI19:
 524              		.cfi_def_cfa_register 7
 525 0006 7860     		str	r0, [r7, #4]
 290:Src/stm32l0xx_hal_msp.c **** 
 291:Src/stm32l0xx_hal_msp.c ****   if(hi2c->Instance==I2C1)
 526              		.loc 1 291 0
 527 0008 7B68     		ldr	r3, [r7, #4]
 528 000a 1B68     		ldr	r3, [r3]
 529 000c 084A     		ldr	r2, .L32
 530 000e 9342     		cmp	r3, r2
 531 0010 0AD1     		bne	.L31
 292:Src/stm32l0xx_hal_msp.c ****   {
 293:Src/stm32l0xx_hal_msp.c ****   /* USER CODE BEGIN I2C1_MspDeInit 0 */
 294:Src/stm32l0xx_hal_msp.c **** 
 295:Src/stm32l0xx_hal_msp.c ****   /* USER CODE END I2C1_MspDeInit 0 */
 296:Src/stm32l0xx_hal_msp.c ****     /* Peripheral clock disable */
 297:Src/stm32l0xx_hal_msp.c ****     __HAL_RCC_I2C1_CLK_DISABLE();
 532              		.loc 1 297 0
 533 0012 084B     		ldr	r3, .L32+4
 534 0014 074A     		ldr	r2, .L32+4
 535 0016 926B     		ldr	r2, [r2, #56]
 536 0018 0749     		ldr	r1, .L32+8
 537 001a 0A40     		ands	r2, r1
 538 001c 9A63     		str	r2, [r3, #56]
 298:Src/stm32l0xx_hal_msp.c ****   
 299:Src/stm32l0xx_hal_msp.c ****     /**I2C1 GPIO Configuration    
 300:Src/stm32l0xx_hal_msp.c ****     PB6     ------> I2C1_SCL
 301:Src/stm32l0xx_hal_msp.c ****     PB7     ------> I2C1_SDA 
 302:Src/stm32l0xx_hal_msp.c ****     */
 303:Src/stm32l0xx_hal_msp.c ****     HAL_GPIO_DeInit(GPIOB, GPIO_PIN_6|GPIO_PIN_7);
 539              		.loc 1 303 0
 540 001e 074B     		ldr	r3, .L32+12
 541 0020 C021     		movs	r1, #192
 542 0022 1800     		movs	r0, r3
 543 0024 FFF7FEFF 		bl	HAL_GPIO_DeInit
 544              	.L31:
 304:Src/stm32l0xx_hal_msp.c **** 
 305:Src/stm32l0xx_hal_msp.c ****   /* USER CODE BEGIN I2C1_MspDeInit 1 */
 306:Src/stm32l0xx_hal_msp.c **** 
 307:Src/stm32l0xx_hal_msp.c ****   /* USER CODE END I2C1_MspDeInit 1 */
 308:Src/stm32l0xx_hal_msp.c ****   }
 309:Src/stm32l0xx_hal_msp.c **** 
 310:Src/stm32l0xx_hal_msp.c **** }
 545              		.loc 1 310 0
 546 0028 C046     		nop
 547 002a BD46     		mov	sp, r7
 548 002c 02B0     		add	sp, sp, #8
 549              		@ sp needed
 550 002e 80BD     		pop	{r7, pc}
 551              	.L33:
 552              		.align	2
 553              	.L32:
 554 0030 00540040 		.word	1073763328
 555 0034 00100240 		.word	1073876992
 556 0038 FFFFDFFF 		.word	-2097153
 557 003c 00040050 		.word	1342178304
 558              		.cfi_endproc
ARM GAS  /tmp/ccVIBQF4.s 			page 16


 559              	.LFE40:
 561              		.section	.text.HAL_UART_MspInit,"ax",%progbits
 562              		.align	1
 563              		.global	HAL_UART_MspInit
 564              		.syntax unified
 565              		.code	16
 566              		.thumb_func
 567              		.fpu softvfp
 569              	HAL_UART_MspInit:
 570              	.LFB41:
 311:Src/stm32l0xx_hal_msp.c **** 
 312:Src/stm32l0xx_hal_msp.c **** /**
 313:Src/stm32l0xx_hal_msp.c **** * @brief UART MSP Initialization
 314:Src/stm32l0xx_hal_msp.c **** * This function configures the hardware resources used in this example
 315:Src/stm32l0xx_hal_msp.c **** * @param huart: UART handle pointer
 316:Src/stm32l0xx_hal_msp.c **** * @retval None
 317:Src/stm32l0xx_hal_msp.c **** */
 318:Src/stm32l0xx_hal_msp.c **** void HAL_UART_MspInit(UART_HandleTypeDef* huart)
 319:Src/stm32l0xx_hal_msp.c **** {
 571              		.loc 1 319 0
 572              		.cfi_startproc
 573              		@ args = 0, pretend = 0, frame = 32
 574              		@ frame_needed = 1, uses_anonymous_args = 0
 575 0000 80B5     		push	{r7, lr}
 576              	.LCFI20:
 577              		.cfi_def_cfa_offset 8
 578              		.cfi_offset 7, -8
 579              		.cfi_offset 14, -4
 580 0002 88B0     		sub	sp, sp, #32
 581              	.LCFI21:
 582              		.cfi_def_cfa_offset 40
 583 0004 00AF     		add	r7, sp, #0
 584              	.LCFI22:
 585              		.cfi_def_cfa_register 7
 586 0006 7860     		str	r0, [r7, #4]
 320:Src/stm32l0xx_hal_msp.c **** 
 321:Src/stm32l0xx_hal_msp.c ****   GPIO_InitTypeDef GPIO_InitStruct = {0};
 587              		.loc 1 321 0
 588 0008 0C23     		movs	r3, #12
 589 000a FB18     		adds	r3, r7, r3
 590 000c 1800     		movs	r0, r3
 591 000e 1423     		movs	r3, #20
 592 0010 1A00     		movs	r2, r3
 593 0012 0021     		movs	r1, #0
 594 0014 FFF7FEFF 		bl	memset
 322:Src/stm32l0xx_hal_msp.c ****   if(huart->Instance==USART1)
 595              		.loc 1 322 0
 596 0018 7B68     		ldr	r3, [r7, #4]
 597 001a 1B68     		ldr	r3, [r3]
 598 001c 294A     		ldr	r2, .L37
 599 001e 9342     		cmp	r3, r2
 600 0020 4CD1     		bne	.L36
 323:Src/stm32l0xx_hal_msp.c ****   {
 324:Src/stm32l0xx_hal_msp.c ****   /* USER CODE BEGIN USART1_MspInit 0 */
 325:Src/stm32l0xx_hal_msp.c **** 
 326:Src/stm32l0xx_hal_msp.c ****   /* USER CODE END USART1_MspInit 0 */
 327:Src/stm32l0xx_hal_msp.c ****     /* Peripheral clock enable */
ARM GAS  /tmp/ccVIBQF4.s 			page 17


 328:Src/stm32l0xx_hal_msp.c ****     __HAL_RCC_USART1_CLK_ENABLE();
 601              		.loc 1 328 0
 602 0022 294B     		ldr	r3, .L37+4
 603 0024 284A     		ldr	r2, .L37+4
 604 0026 526B     		ldr	r2, [r2, #52]
 605 0028 8021     		movs	r1, #128
 606 002a C901     		lsls	r1, r1, #7
 607 002c 0A43     		orrs	r2, r1
 608 002e 5A63     		str	r2, [r3, #52]
 609              	.LBB5:
 329:Src/stm32l0xx_hal_msp.c ****   
 330:Src/stm32l0xx_hal_msp.c ****     __HAL_RCC_GPIOA_CLK_ENABLE();
 610              		.loc 1 330 0
 611 0030 254B     		ldr	r3, .L37+4
 612 0032 254A     		ldr	r2, .L37+4
 613 0034 D26A     		ldr	r2, [r2, #44]
 614 0036 0121     		movs	r1, #1
 615 0038 0A43     		orrs	r2, r1
 616 003a DA62     		str	r2, [r3, #44]
 617 003c 224B     		ldr	r3, .L37+4
 618 003e DB6A     		ldr	r3, [r3, #44]
 619 0040 0122     		movs	r2, #1
 620 0042 1340     		ands	r3, r2
 621 0044 BB60     		str	r3, [r7, #8]
 622 0046 BB68     		ldr	r3, [r7, #8]
 623              	.LBE5:
 331:Src/stm32l0xx_hal_msp.c ****     /**USART1 GPIO Configuration    
 332:Src/stm32l0xx_hal_msp.c ****     PA8     ------> USART1_CK
 333:Src/stm32l0xx_hal_msp.c ****     PA9     ------> USART1_TX 
 334:Src/stm32l0xx_hal_msp.c ****     */
 335:Src/stm32l0xx_hal_msp.c ****     GPIO_InitStruct.Pin = GPIO_PIN_8;
 624              		.loc 1 335 0
 625 0048 0C23     		movs	r3, #12
 626 004a FB18     		adds	r3, r7, r3
 627 004c 8022     		movs	r2, #128
 628 004e 5200     		lsls	r2, r2, #1
 629 0050 1A60     		str	r2, [r3]
 336:Src/stm32l0xx_hal_msp.c ****     GPIO_InitStruct.Mode = GPIO_MODE_AF_PP;
 630              		.loc 1 336 0
 631 0052 0C23     		movs	r3, #12
 632 0054 FB18     		adds	r3, r7, r3
 633 0056 0222     		movs	r2, #2
 634 0058 5A60     		str	r2, [r3, #4]
 337:Src/stm32l0xx_hal_msp.c ****     GPIO_InitStruct.Pull = GPIO_NOPULL;
 635              		.loc 1 337 0
 636 005a 0C23     		movs	r3, #12
 637 005c FB18     		adds	r3, r7, r3
 638 005e 0022     		movs	r2, #0
 639 0060 9A60     		str	r2, [r3, #8]
 338:Src/stm32l0xx_hal_msp.c ****     GPIO_InitStruct.Speed = GPIO_SPEED_FREQ_VERY_HIGH;
 640              		.loc 1 338 0
 641 0062 0C23     		movs	r3, #12
 642 0064 FB18     		adds	r3, r7, r3
 643 0066 0322     		movs	r2, #3
 644 0068 DA60     		str	r2, [r3, #12]
 339:Src/stm32l0xx_hal_msp.c ****     GPIO_InitStruct.Alternate = GPIO_AF4_USART1;
 645              		.loc 1 339 0
ARM GAS  /tmp/ccVIBQF4.s 			page 18


 646 006a 0C23     		movs	r3, #12
 647 006c FB18     		adds	r3, r7, r3
 648 006e 0422     		movs	r2, #4
 649 0070 1A61     		str	r2, [r3, #16]
 340:Src/stm32l0xx_hal_msp.c ****     HAL_GPIO_Init(GPIOA, &GPIO_InitStruct);
 650              		.loc 1 340 0
 651 0072 0C23     		movs	r3, #12
 652 0074 FA18     		adds	r2, r7, r3
 653 0076 A023     		movs	r3, #160
 654 0078 DB05     		lsls	r3, r3, #23
 655 007a 1100     		movs	r1, r2
 656 007c 1800     		movs	r0, r3
 657 007e FFF7FEFF 		bl	HAL_GPIO_Init
 341:Src/stm32l0xx_hal_msp.c **** 
 342:Src/stm32l0xx_hal_msp.c ****     GPIO_InitStruct.Pin = GPIO_PIN_9;
 658              		.loc 1 342 0
 659 0082 0C23     		movs	r3, #12
 660 0084 FB18     		adds	r3, r7, r3
 661 0086 8022     		movs	r2, #128
 662 0088 9200     		lsls	r2, r2, #2
 663 008a 1A60     		str	r2, [r3]
 343:Src/stm32l0xx_hal_msp.c ****     GPIO_InitStruct.Mode = GPIO_MODE_AF_OD;
 664              		.loc 1 343 0
 665 008c 0C23     		movs	r3, #12
 666 008e FB18     		adds	r3, r7, r3
 667 0090 1222     		movs	r2, #18
 668 0092 5A60     		str	r2, [r3, #4]
 344:Src/stm32l0xx_hal_msp.c ****     GPIO_InitStruct.Pull = GPIO_PULLUP;
 669              		.loc 1 344 0
 670 0094 0C23     		movs	r3, #12
 671 0096 FB18     		adds	r3, r7, r3
 672 0098 0122     		movs	r2, #1
 673 009a 9A60     		str	r2, [r3, #8]
 345:Src/stm32l0xx_hal_msp.c ****     GPIO_InitStruct.Speed = GPIO_SPEED_FREQ_VERY_HIGH;
 674              		.loc 1 345 0
 675 009c 0C23     		movs	r3, #12
 676 009e FB18     		adds	r3, r7, r3
 677 00a0 0322     		movs	r2, #3
 678 00a2 DA60     		str	r2, [r3, #12]
 346:Src/stm32l0xx_hal_msp.c ****     GPIO_InitStruct.Alternate = GPIO_AF4_USART1;
 679              		.loc 1 346 0
 680 00a4 0C23     		movs	r3, #12
 681 00a6 FB18     		adds	r3, r7, r3
 682 00a8 0422     		movs	r2, #4
 683 00aa 1A61     		str	r2, [r3, #16]
 347:Src/stm32l0xx_hal_msp.c ****     HAL_GPIO_Init(GPIOA, &GPIO_InitStruct);
 684              		.loc 1 347 0
 685 00ac 0C23     		movs	r3, #12
 686 00ae FA18     		adds	r2, r7, r3
 687 00b0 A023     		movs	r3, #160
 688 00b2 DB05     		lsls	r3, r3, #23
 689 00b4 1100     		movs	r1, r2
 690 00b6 1800     		movs	r0, r3
 691 00b8 FFF7FEFF 		bl	HAL_GPIO_Init
 692              	.L36:
 348:Src/stm32l0xx_hal_msp.c **** 
 349:Src/stm32l0xx_hal_msp.c ****   /* USER CODE BEGIN USART1_MspInit 1 */
ARM GAS  /tmp/ccVIBQF4.s 			page 19


 350:Src/stm32l0xx_hal_msp.c **** 
 351:Src/stm32l0xx_hal_msp.c ****   /* USER CODE END USART1_MspInit 1 */
 352:Src/stm32l0xx_hal_msp.c ****   }
 353:Src/stm32l0xx_hal_msp.c **** 
 354:Src/stm32l0xx_hal_msp.c **** }
 693              		.loc 1 354 0
 694 00bc C046     		nop
 695 00be BD46     		mov	sp, r7
 696 00c0 08B0     		add	sp, sp, #32
 697              		@ sp needed
 698 00c2 80BD     		pop	{r7, pc}
 699              	.L38:
 700              		.align	2
 701              	.L37:
 702 00c4 00380140 		.word	1073821696
 703 00c8 00100240 		.word	1073876992
 704              		.cfi_endproc
 705              	.LFE41:
 707              		.section	.text.HAL_UART_MspDeInit,"ax",%progbits
 708              		.align	1
 709              		.global	HAL_UART_MspDeInit
 710              		.syntax unified
 711              		.code	16
 712              		.thumb_func
 713              		.fpu softvfp
 715              	HAL_UART_MspDeInit:
 716              	.LFB42:
 355:Src/stm32l0xx_hal_msp.c **** 
 356:Src/stm32l0xx_hal_msp.c **** /**
 357:Src/stm32l0xx_hal_msp.c **** * @brief UART MSP De-Initialization
 358:Src/stm32l0xx_hal_msp.c **** * This function freeze the hardware resources used in this example
 359:Src/stm32l0xx_hal_msp.c **** * @param huart: UART handle pointer
 360:Src/stm32l0xx_hal_msp.c **** * @retval None
 361:Src/stm32l0xx_hal_msp.c **** */
 362:Src/stm32l0xx_hal_msp.c **** 
 363:Src/stm32l0xx_hal_msp.c **** void HAL_UART_MspDeInit(UART_HandleTypeDef* huart)
 364:Src/stm32l0xx_hal_msp.c **** {
 717              		.loc 1 364 0
 718              		.cfi_startproc
 719              		@ args = 0, pretend = 0, frame = 8
 720              		@ frame_needed = 1, uses_anonymous_args = 0
 721 0000 80B5     		push	{r7, lr}
 722              	.LCFI23:
 723              		.cfi_def_cfa_offset 8
 724              		.cfi_offset 7, -8
 725              		.cfi_offset 14, -4
 726 0002 82B0     		sub	sp, sp, #8
 727              	.LCFI24:
 728              		.cfi_def_cfa_offset 16
 729 0004 00AF     		add	r7, sp, #0
 730              	.LCFI25:
 731              		.cfi_def_cfa_register 7
 732 0006 7860     		str	r0, [r7, #4]
 365:Src/stm32l0xx_hal_msp.c **** 
 366:Src/stm32l0xx_hal_msp.c ****   if(huart->Instance==USART1)
 733              		.loc 1 366 0
 734 0008 7B68     		ldr	r3, [r7, #4]
ARM GAS  /tmp/ccVIBQF4.s 			page 20


 735 000a 1B68     		ldr	r3, [r3]
 736 000c 0A4A     		ldr	r2, .L42
 737 000e 9342     		cmp	r3, r2
 738 0010 0DD1     		bne	.L41
 367:Src/stm32l0xx_hal_msp.c ****   {
 368:Src/stm32l0xx_hal_msp.c ****   /* USER CODE BEGIN USART1_MspDeInit 0 */
 369:Src/stm32l0xx_hal_msp.c **** 
 370:Src/stm32l0xx_hal_msp.c ****   /* USER CODE END USART1_MspDeInit 0 */
 371:Src/stm32l0xx_hal_msp.c ****     /* Peripheral clock disable */
 372:Src/stm32l0xx_hal_msp.c ****     __HAL_RCC_USART1_CLK_DISABLE();
 739              		.loc 1 372 0
 740 0012 0A4B     		ldr	r3, .L42+4
 741 0014 094A     		ldr	r2, .L42+4
 742 0016 526B     		ldr	r2, [r2, #52]
 743 0018 0949     		ldr	r1, .L42+8
 744 001a 0A40     		ands	r2, r1
 745 001c 5A63     		str	r2, [r3, #52]
 373:Src/stm32l0xx_hal_msp.c ****   
 374:Src/stm32l0xx_hal_msp.c ****     /**USART1 GPIO Configuration    
 375:Src/stm32l0xx_hal_msp.c ****     PA8     ------> USART1_CK
 376:Src/stm32l0xx_hal_msp.c ****     PA9     ------> USART1_TX 
 377:Src/stm32l0xx_hal_msp.c ****     */
 378:Src/stm32l0xx_hal_msp.c ****     HAL_GPIO_DeInit(GPIOA, GPIO_PIN_8|GPIO_PIN_9);
 746              		.loc 1 378 0
 747 001e C023     		movs	r3, #192
 748 0020 9A00     		lsls	r2, r3, #2
 749 0022 A023     		movs	r3, #160
 750 0024 DB05     		lsls	r3, r3, #23
 751 0026 1100     		movs	r1, r2
 752 0028 1800     		movs	r0, r3
 753 002a FFF7FEFF 		bl	HAL_GPIO_DeInit
 754              	.L41:
 379:Src/stm32l0xx_hal_msp.c **** 
 380:Src/stm32l0xx_hal_msp.c ****   /* USER CODE BEGIN USART1_MspDeInit 1 */
 381:Src/stm32l0xx_hal_msp.c **** 
 382:Src/stm32l0xx_hal_msp.c ****   /* USER CODE END USART1_MspDeInit 1 */
 383:Src/stm32l0xx_hal_msp.c ****   }
 384:Src/stm32l0xx_hal_msp.c **** 
 385:Src/stm32l0xx_hal_msp.c **** }
 755              		.loc 1 385 0
 756 002e C046     		nop
 757 0030 BD46     		mov	sp, r7
 758 0032 02B0     		add	sp, sp, #8
 759              		@ sp needed
 760 0034 80BD     		pop	{r7, pc}
 761              	.L43:
 762 0036 C046     		.align	2
 763              	.L42:
 764 0038 00380140 		.word	1073821696
 765 003c 00100240 		.word	1073876992
 766 0040 FFBFFFFF 		.word	-16385
 767              		.cfi_endproc
 768              	.LFE42:
 770              		.text
 771              	.Letext0:
 772              		.file 2 "/usr/include/newlib/machine/_default_types.h"
 773              		.file 3 "/usr/include/newlib/sys/_stdint.h"
ARM GAS  /tmp/ccVIBQF4.s 			page 21


 774              		.file 4 "Drivers/CMSIS/Device/ST/STM32L0xx/Include/system_stm32l0xx.h"
 775              		.file 5 "Drivers/CMSIS/Device/ST/STM32L0xx/Include/stm32l052xx.h"
 776              		.file 6 "Drivers/CMSIS/Device/ST/STM32L0xx/Include/stm32l0xx.h"
 777              		.file 7 "Drivers/STM32L0xx_HAL_Driver/Inc/stm32l0xx_hal_def.h"
 778              		.file 8 "Drivers/STM32L0xx_HAL_Driver/Inc/stm32l0xx_hal_gpio.h"
 779              		.file 9 "Drivers/STM32L0xx_HAL_Driver/Inc/stm32l0xx_hal_dma.h"
 780              		.file 10 "Drivers/STM32L0xx_HAL_Driver/Inc/stm32l0xx_hal_adc.h"
 781              		.file 11 "Drivers/STM32L0xx_HAL_Driver/Inc/stm32l0xx_hal_dac.h"
 782              		.file 12 "Drivers/STM32L0xx_HAL_Driver/Inc/stm32l0xx_hal_i2c.h"
 783              		.file 13 "Drivers/STM32L0xx_HAL_Driver/Inc/stm32l0xx_hal_uart.h"
 784              		.file 14 "Drivers/STM32L0xx_HAL_Driver/Inc/stm32l0xx_hal.h"
ARM GAS  /tmp/ccVIBQF4.s 			page 22


DEFINED SYMBOLS
                            *ABS*:0000000000000000 stm32l0xx_hal_msp.c
     /tmp/ccVIBQF4.s:16     .text.HAL_MspInit:0000000000000000 $t
     /tmp/ccVIBQF4.s:23     .text.HAL_MspInit:0000000000000000 HAL_MspInit
     /tmp/ccVIBQF4.s:61     .text.HAL_MspInit:0000000000000024 $d
     /tmp/ccVIBQF4.s:66     .text.HAL_ADC_MspInit:0000000000000000 $t
     /tmp/ccVIBQF4.s:73     .text.HAL_ADC_MspInit:0000000000000000 HAL_ADC_MspInit
     /tmp/ccVIBQF4.s:161    .text.HAL_ADC_MspInit:0000000000000078 $d
     /tmp/ccVIBQF4.s:167    .text.HAL_ADC_MspDeInit:0000000000000000 $t
     /tmp/ccVIBQF4.s:174    .text.HAL_ADC_MspDeInit:0000000000000000 HAL_ADC_MspDeInit
     /tmp/ccVIBQF4.s:221    .text.HAL_ADC_MspDeInit:0000000000000034 $d
     /tmp/ccVIBQF4.s:228    .text.HAL_DAC_MspInit:0000000000000000 $t
     /tmp/ccVIBQF4.s:235    .text.HAL_DAC_MspInit:0000000000000000 HAL_DAC_MspInit
     /tmp/ccVIBQF4.s:323    .text.HAL_DAC_MspInit:0000000000000078 $d
     /tmp/ccVIBQF4.s:329    .text.HAL_DAC_MspDeInit:0000000000000000 $t
     /tmp/ccVIBQF4.s:336    .text.HAL_DAC_MspDeInit:0000000000000000 HAL_DAC_MspDeInit
     /tmp/ccVIBQF4.s:383    .text.HAL_DAC_MspDeInit:0000000000000034 $d
     /tmp/ccVIBQF4.s:390    .text.HAL_I2C_MspInit:0000000000000000 $t
     /tmp/ccVIBQF4.s:397    .text.HAL_I2C_MspInit:0000000000000000 HAL_I2C_MspInit
     /tmp/ccVIBQF4.s:494    .text.HAL_I2C_MspInit:0000000000000088 $d
     /tmp/ccVIBQF4.s:501    .text.HAL_I2C_MspDeInit:0000000000000000 $t
     /tmp/ccVIBQF4.s:508    .text.HAL_I2C_MspDeInit:0000000000000000 HAL_I2C_MspDeInit
     /tmp/ccVIBQF4.s:554    .text.HAL_I2C_MspDeInit:0000000000000030 $d
     /tmp/ccVIBQF4.s:562    .text.HAL_UART_MspInit:0000000000000000 $t
     /tmp/ccVIBQF4.s:569    .text.HAL_UART_MspInit:0000000000000000 HAL_UART_MspInit
     /tmp/ccVIBQF4.s:702    .text.HAL_UART_MspInit:00000000000000c4 $d
     /tmp/ccVIBQF4.s:708    .text.HAL_UART_MspDeInit:0000000000000000 $t
     /tmp/ccVIBQF4.s:715    .text.HAL_UART_MspDeInit:0000000000000000 HAL_UART_MspDeInit
     /tmp/ccVIBQF4.s:764    .text.HAL_UART_MspDeInit:0000000000000038 $d
                     .debug_frame:0000000000000010 $d

UNDEFINED SYMBOLS
memset
HAL_GPIO_Init
HAL_GPIO_DeInit
