ARM GAS  /tmp/ccWxDmhr.s 			page 1


   1              		.cpu cortex-m0plus
   2              		.eabi_attribute 20, 1
   3              		.eabi_attribute 21, 1
   4              		.eabi_attribute 23, 3
   5              		.eabi_attribute 24, 1
   6              		.eabi_attribute 25, 1
   7              		.eabi_attribute 26, 1
   8              		.eabi_attribute 30, 6
   9              		.eabi_attribute 34, 0
  10              		.eabi_attribute 18, 4
  11              		.file	"stm32l0xx_hal_pwr.c"
  12              		.text
  13              	.Ltext0:
  14              		.cfi_sections	.debug_frame
  15              		.section	.text.HAL_PWR_DeInit,"ax",%progbits
  16              		.align	1
  17              		.global	HAL_PWR_DeInit
  18              		.syntax unified
  19              		.code	16
  20              		.thumb_func
  21              		.fpu softvfp
  23              	HAL_PWR_DeInit:
  24              	.LFB34:
  25              		.file 1 "Drivers/STM32L0xx_HAL_Driver/Src/stm32l0xx_hal_pwr.c"
   1:Drivers/STM32L0xx_HAL_Driver/Src/stm32l0xx_hal_pwr.c **** /**
   2:Drivers/STM32L0xx_HAL_Driver/Src/stm32l0xx_hal_pwr.c ****   ******************************************************************************
   3:Drivers/STM32L0xx_HAL_Driver/Src/stm32l0xx_hal_pwr.c ****   * @file    stm32l0xx_hal_pwr.c
   4:Drivers/STM32L0xx_HAL_Driver/Src/stm32l0xx_hal_pwr.c ****   * @author  MCD Application Team
   5:Drivers/STM32L0xx_HAL_Driver/Src/stm32l0xx_hal_pwr.c ****   * @brief   PWR HAL module driver.
   6:Drivers/STM32L0xx_HAL_Driver/Src/stm32l0xx_hal_pwr.c ****   *
   7:Drivers/STM32L0xx_HAL_Driver/Src/stm32l0xx_hal_pwr.c ****   *          This file provides firmware functions to manage the following
   8:Drivers/STM32L0xx_HAL_Driver/Src/stm32l0xx_hal_pwr.c ****   *          functionalities of the Power Controller (PWR) peripheral:
   9:Drivers/STM32L0xx_HAL_Driver/Src/stm32l0xx_hal_pwr.c ****   *           + Initialization/de-initialization functions
  10:Drivers/STM32L0xx_HAL_Driver/Src/stm32l0xx_hal_pwr.c ****   *           + Peripheral Control functions 
  11:Drivers/STM32L0xx_HAL_Driver/Src/stm32l0xx_hal_pwr.c ****   *
  12:Drivers/STM32L0xx_HAL_Driver/Src/stm32l0xx_hal_pwr.c ****   ******************************************************************************
  13:Drivers/STM32L0xx_HAL_Driver/Src/stm32l0xx_hal_pwr.c ****   * @attention
  14:Drivers/STM32L0xx_HAL_Driver/Src/stm32l0xx_hal_pwr.c ****   *
  15:Drivers/STM32L0xx_HAL_Driver/Src/stm32l0xx_hal_pwr.c ****   * <h2><center>&copy; Copyright(c) 2016 STMicroelectronics.
  16:Drivers/STM32L0xx_HAL_Driver/Src/stm32l0xx_hal_pwr.c ****   * All rights reserved.</center></h2>
  17:Drivers/STM32L0xx_HAL_Driver/Src/stm32l0xx_hal_pwr.c ****   *
  18:Drivers/STM32L0xx_HAL_Driver/Src/stm32l0xx_hal_pwr.c ****   * This software component is licensed by ST under BSD 3-Clause license,
  19:Drivers/STM32L0xx_HAL_Driver/Src/stm32l0xx_hal_pwr.c ****   * the "License"; You may not use this file except in compliance with the
  20:Drivers/STM32L0xx_HAL_Driver/Src/stm32l0xx_hal_pwr.c ****   * License. You may obtain a copy of the License at:
  21:Drivers/STM32L0xx_HAL_Driver/Src/stm32l0xx_hal_pwr.c ****   *                        opensource.org/licenses/BSD-3-Clause
  22:Drivers/STM32L0xx_HAL_Driver/Src/stm32l0xx_hal_pwr.c ****   *
  23:Drivers/STM32L0xx_HAL_Driver/Src/stm32l0xx_hal_pwr.c ****   ******************************************************************************
  24:Drivers/STM32L0xx_HAL_Driver/Src/stm32l0xx_hal_pwr.c ****   */
  25:Drivers/STM32L0xx_HAL_Driver/Src/stm32l0xx_hal_pwr.c **** 
  26:Drivers/STM32L0xx_HAL_Driver/Src/stm32l0xx_hal_pwr.c **** /* Includes ------------------------------------------------------------------*/
  27:Drivers/STM32L0xx_HAL_Driver/Src/stm32l0xx_hal_pwr.c **** #include "stm32l0xx_hal.h"
  28:Drivers/STM32L0xx_HAL_Driver/Src/stm32l0xx_hal_pwr.c **** 
  29:Drivers/STM32L0xx_HAL_Driver/Src/stm32l0xx_hal_pwr.c **** #ifdef HAL_PWR_MODULE_ENABLED
  30:Drivers/STM32L0xx_HAL_Driver/Src/stm32l0xx_hal_pwr.c **** /** @addtogroup STM32L0xx_HAL_Driver
  31:Drivers/STM32L0xx_HAL_Driver/Src/stm32l0xx_hal_pwr.c ****   * @{
  32:Drivers/STM32L0xx_HAL_Driver/Src/stm32l0xx_hal_pwr.c ****   */
  33:Drivers/STM32L0xx_HAL_Driver/Src/stm32l0xx_hal_pwr.c **** 
ARM GAS  /tmp/ccWxDmhr.s 			page 2


  34:Drivers/STM32L0xx_HAL_Driver/Src/stm32l0xx_hal_pwr.c **** /** @addtogroup PWR
  35:Drivers/STM32L0xx_HAL_Driver/Src/stm32l0xx_hal_pwr.c ****   * @{
  36:Drivers/STM32L0xx_HAL_Driver/Src/stm32l0xx_hal_pwr.c ****   */
  37:Drivers/STM32L0xx_HAL_Driver/Src/stm32l0xx_hal_pwr.c **** 
  38:Drivers/STM32L0xx_HAL_Driver/Src/stm32l0xx_hal_pwr.c **** /** @addtogroup PWR_Private
  39:Drivers/STM32L0xx_HAL_Driver/Src/stm32l0xx_hal_pwr.c ****   * @{
  40:Drivers/STM32L0xx_HAL_Driver/Src/stm32l0xx_hal_pwr.c ****   */
  41:Drivers/STM32L0xx_HAL_Driver/Src/stm32l0xx_hal_pwr.c ****   
  42:Drivers/STM32L0xx_HAL_Driver/Src/stm32l0xx_hal_pwr.c **** #if defined(PWR_PVD_SUPPORT)
  43:Drivers/STM32L0xx_HAL_Driver/Src/stm32l0xx_hal_pwr.c **** /** @defgroup PWR_PVD_Mode_Mask PWR PVD Mode Mask
  44:Drivers/STM32L0xx_HAL_Driver/Src/stm32l0xx_hal_pwr.c ****   * @{
  45:Drivers/STM32L0xx_HAL_Driver/Src/stm32l0xx_hal_pwr.c ****   */ 
  46:Drivers/STM32L0xx_HAL_Driver/Src/stm32l0xx_hal_pwr.c **** #define PVD_MODE_IT               ((uint32_t)0x00010000U)
  47:Drivers/STM32L0xx_HAL_Driver/Src/stm32l0xx_hal_pwr.c **** #define PVD_MODE_EVT              ((uint32_t)0x00020000U)
  48:Drivers/STM32L0xx_HAL_Driver/Src/stm32l0xx_hal_pwr.c **** #define PVD_RISING_EDGE           ((uint32_t)0x00000001U)
  49:Drivers/STM32L0xx_HAL_Driver/Src/stm32l0xx_hal_pwr.c **** #define PVD_FALLING_EDGE          ((uint32_t)0x00000002U)
  50:Drivers/STM32L0xx_HAL_Driver/Src/stm32l0xx_hal_pwr.c **** /**
  51:Drivers/STM32L0xx_HAL_Driver/Src/stm32l0xx_hal_pwr.c ****   * @}
  52:Drivers/STM32L0xx_HAL_Driver/Src/stm32l0xx_hal_pwr.c ****   */
  53:Drivers/STM32L0xx_HAL_Driver/Src/stm32l0xx_hal_pwr.c **** #endif
  54:Drivers/STM32L0xx_HAL_Driver/Src/stm32l0xx_hal_pwr.c **** 
  55:Drivers/STM32L0xx_HAL_Driver/Src/stm32l0xx_hal_pwr.c **** /**
  56:Drivers/STM32L0xx_HAL_Driver/Src/stm32l0xx_hal_pwr.c ****   * @}
  57:Drivers/STM32L0xx_HAL_Driver/Src/stm32l0xx_hal_pwr.c ****   */  
  58:Drivers/STM32L0xx_HAL_Driver/Src/stm32l0xx_hal_pwr.c ****   
  59:Drivers/STM32L0xx_HAL_Driver/Src/stm32l0xx_hal_pwr.c **** 
  60:Drivers/STM32L0xx_HAL_Driver/Src/stm32l0xx_hal_pwr.c **** /** @addtogroup PWR_Exported_Functions
  61:Drivers/STM32L0xx_HAL_Driver/Src/stm32l0xx_hal_pwr.c ****   * @{
  62:Drivers/STM32L0xx_HAL_Driver/Src/stm32l0xx_hal_pwr.c ****   */
  63:Drivers/STM32L0xx_HAL_Driver/Src/stm32l0xx_hal_pwr.c **** 
  64:Drivers/STM32L0xx_HAL_Driver/Src/stm32l0xx_hal_pwr.c **** /** @addtogroup PWR_Exported_Functions_Group1
  65:Drivers/STM32L0xx_HAL_Driver/Src/stm32l0xx_hal_pwr.c ****   * @brief      Initialization and de-initialization functions
  66:Drivers/STM32L0xx_HAL_Driver/Src/stm32l0xx_hal_pwr.c ****   *
  67:Drivers/STM32L0xx_HAL_Driver/Src/stm32l0xx_hal_pwr.c **** @verbatim
  68:Drivers/STM32L0xx_HAL_Driver/Src/stm32l0xx_hal_pwr.c ****  ===============================================================================
  69:Drivers/STM32L0xx_HAL_Driver/Src/stm32l0xx_hal_pwr.c ****               ##### Initialization and de-initialization functions #####
  70:Drivers/STM32L0xx_HAL_Driver/Src/stm32l0xx_hal_pwr.c ****  ===============================================================================
  71:Drivers/STM32L0xx_HAL_Driver/Src/stm32l0xx_hal_pwr.c **** 
  72:Drivers/STM32L0xx_HAL_Driver/Src/stm32l0xx_hal_pwr.c **** @endverbatim
  73:Drivers/STM32L0xx_HAL_Driver/Src/stm32l0xx_hal_pwr.c ****   * @{
  74:Drivers/STM32L0xx_HAL_Driver/Src/stm32l0xx_hal_pwr.c ****   */
  75:Drivers/STM32L0xx_HAL_Driver/Src/stm32l0xx_hal_pwr.c **** 
  76:Drivers/STM32L0xx_HAL_Driver/Src/stm32l0xx_hal_pwr.c **** /**
  77:Drivers/STM32L0xx_HAL_Driver/Src/stm32l0xx_hal_pwr.c ****   * @brief Deinitializes the HAL PWR peripheral registers to their default reset values.
  78:Drivers/STM32L0xx_HAL_Driver/Src/stm32l0xx_hal_pwr.c ****   * @retval None
  79:Drivers/STM32L0xx_HAL_Driver/Src/stm32l0xx_hal_pwr.c ****   */
  80:Drivers/STM32L0xx_HAL_Driver/Src/stm32l0xx_hal_pwr.c **** void HAL_PWR_DeInit(void)
  81:Drivers/STM32L0xx_HAL_Driver/Src/stm32l0xx_hal_pwr.c **** {
  26              		.loc 1 81 0
  27              		.cfi_startproc
  28              		@ args = 0, pretend = 0, frame = 0
  29              		@ frame_needed = 1, uses_anonymous_args = 0
  30 0000 80B5     		push	{r7, lr}
  31              	.LCFI0:
  32              		.cfi_def_cfa_offset 8
  33              		.cfi_offset 7, -8
  34              		.cfi_offset 14, -4
ARM GAS  /tmp/ccWxDmhr.s 			page 3


  35 0002 00AF     		add	r7, sp, #0
  36              	.LCFI1:
  37              		.cfi_def_cfa_register 7
  82:Drivers/STM32L0xx_HAL_Driver/Src/stm32l0xx_hal_pwr.c ****   __HAL_RCC_PWR_FORCE_RESET();
  38              		.loc 1 82 0
  39 0004 074B     		ldr	r3, .L2
  40 0006 074A     		ldr	r2, .L2
  41 0008 926A     		ldr	r2, [r2, #40]
  42 000a 8021     		movs	r1, #128
  43 000c 4905     		lsls	r1, r1, #21
  44 000e 0A43     		orrs	r2, r1
  45 0010 9A62     		str	r2, [r3, #40]
  83:Drivers/STM32L0xx_HAL_Driver/Src/stm32l0xx_hal_pwr.c ****   __HAL_RCC_PWR_RELEASE_RESET();
  46              		.loc 1 83 0
  47 0012 044B     		ldr	r3, .L2
  48 0014 034A     		ldr	r2, .L2
  49 0016 926A     		ldr	r2, [r2, #40]
  50 0018 0349     		ldr	r1, .L2+4
  51 001a 0A40     		ands	r2, r1
  52 001c 9A62     		str	r2, [r3, #40]
  84:Drivers/STM32L0xx_HAL_Driver/Src/stm32l0xx_hal_pwr.c **** }
  53              		.loc 1 84 0
  54 001e C046     		nop
  55 0020 BD46     		mov	sp, r7
  56              		@ sp needed
  57 0022 80BD     		pop	{r7, pc}
  58              	.L3:
  59              		.align	2
  60              	.L2:
  61 0024 00100240 		.word	1073876992
  62 0028 FFFFFFEF 		.word	-268435457
  63              		.cfi_endproc
  64              	.LFE34:
  66              		.section	.text.HAL_PWR_EnableBkUpAccess,"ax",%progbits
  67              		.align	1
  68              		.global	HAL_PWR_EnableBkUpAccess
  69              		.syntax unified
  70              		.code	16
  71              		.thumb_func
  72              		.fpu softvfp
  74              	HAL_PWR_EnableBkUpAccess:
  75              	.LFB35:
  85:Drivers/STM32L0xx_HAL_Driver/Src/stm32l0xx_hal_pwr.c **** 
  86:Drivers/STM32L0xx_HAL_Driver/Src/stm32l0xx_hal_pwr.c **** /**
  87:Drivers/STM32L0xx_HAL_Driver/Src/stm32l0xx_hal_pwr.c ****   * @}
  88:Drivers/STM32L0xx_HAL_Driver/Src/stm32l0xx_hal_pwr.c ****   */
  89:Drivers/STM32L0xx_HAL_Driver/Src/stm32l0xx_hal_pwr.c **** 
  90:Drivers/STM32L0xx_HAL_Driver/Src/stm32l0xx_hal_pwr.c **** /** @addtogroup PWR_Exported_Functions_Group2
  91:Drivers/STM32L0xx_HAL_Driver/Src/stm32l0xx_hal_pwr.c ****   * @brief      Low Power modes configuration functions
  92:Drivers/STM32L0xx_HAL_Driver/Src/stm32l0xx_hal_pwr.c ****   *
  93:Drivers/STM32L0xx_HAL_Driver/Src/stm32l0xx_hal_pwr.c **** @verbatim
  94:Drivers/STM32L0xx_HAL_Driver/Src/stm32l0xx_hal_pwr.c **** 
  95:Drivers/STM32L0xx_HAL_Driver/Src/stm32l0xx_hal_pwr.c ****  ===============================================================================
  96:Drivers/STM32L0xx_HAL_Driver/Src/stm32l0xx_hal_pwr.c ****                  ##### Peripheral Control functions #####
  97:Drivers/STM32L0xx_HAL_Driver/Src/stm32l0xx_hal_pwr.c ****  ===============================================================================
  98:Drivers/STM32L0xx_HAL_Driver/Src/stm32l0xx_hal_pwr.c ****      
  99:Drivers/STM32L0xx_HAL_Driver/Src/stm32l0xx_hal_pwr.c ****     *** Backup domain ***
ARM GAS  /tmp/ccWxDmhr.s 			page 4


 100:Drivers/STM32L0xx_HAL_Driver/Src/stm32l0xx_hal_pwr.c ****     =========================
 101:Drivers/STM32L0xx_HAL_Driver/Src/stm32l0xx_hal_pwr.c ****     [..]
 102:Drivers/STM32L0xx_HAL_Driver/Src/stm32l0xx_hal_pwr.c ****       After reset, the backup domain (RTC registers, RTC backup data
 103:Drivers/STM32L0xx_HAL_Driver/Src/stm32l0xx_hal_pwr.c ****       registers) is protected against possible unwanted
 104:Drivers/STM32L0xx_HAL_Driver/Src/stm32l0xx_hal_pwr.c ****       write accesses.
 105:Drivers/STM32L0xx_HAL_Driver/Src/stm32l0xx_hal_pwr.c ****       To enable access to the RTC Domain and RTC registers, proceed as follows:
 106:Drivers/STM32L0xx_HAL_Driver/Src/stm32l0xx_hal_pwr.c ****         (+) Enable the Power Controller (PWR) APB1 interface clock using the
 107:Drivers/STM32L0xx_HAL_Driver/Src/stm32l0xx_hal_pwr.c ****             __HAL_RCC_PWR_CLK_ENABLE() macro.
 108:Drivers/STM32L0xx_HAL_Driver/Src/stm32l0xx_hal_pwr.c ****         (+) Enable access to RTC domain using the HAL_PWR_EnableBkUpAccess() function.
 109:Drivers/STM32L0xx_HAL_Driver/Src/stm32l0xx_hal_pwr.c **** 
 110:Drivers/STM32L0xx_HAL_Driver/Src/stm32l0xx_hal_pwr.c ****     *** PVD configuration ***
 111:Drivers/STM32L0xx_HAL_Driver/Src/stm32l0xx_hal_pwr.c ****     =========================
 112:Drivers/STM32L0xx_HAL_Driver/Src/stm32l0xx_hal_pwr.c ****     [..]
 113:Drivers/STM32L0xx_HAL_Driver/Src/stm32l0xx_hal_pwr.c ****       (+) The PVD is used to monitor the VDD power supply by comparing it to a
 114:Drivers/STM32L0xx_HAL_Driver/Src/stm32l0xx_hal_pwr.c ****           threshold selected by the PVD Level (PLS[2:0] bits in the PWR_CR).
 115:Drivers/STM32L0xx_HAL_Driver/Src/stm32l0xx_hal_pwr.c ****       (+) The PVD can use an external input analog voltage (PVD_IN) which is compared 
 116:Drivers/STM32L0xx_HAL_Driver/Src/stm32l0xx_hal_pwr.c ****       internally to VREFINT. The PVD_IN (PB7) has to be configured in Analog mode 
 117:Drivers/STM32L0xx_HAL_Driver/Src/stm32l0xx_hal_pwr.c ****       when PWR_PVDLevel_7 is selected (PLS[2:0] = 111).
 118:Drivers/STM32L0xx_HAL_Driver/Src/stm32l0xx_hal_pwr.c **** 
 119:Drivers/STM32L0xx_HAL_Driver/Src/stm32l0xx_hal_pwr.c ****       (+) A PVDO flag is available to indicate if VDD/VDDA is higher or lower
 120:Drivers/STM32L0xx_HAL_Driver/Src/stm32l0xx_hal_pwr.c ****           than the PVD threshold. This event is internally connected to the EXTI
 121:Drivers/STM32L0xx_HAL_Driver/Src/stm32l0xx_hal_pwr.c ****           line16 and can generate an interrupt if enabled. This is done through
 122:Drivers/STM32L0xx_HAL_Driver/Src/stm32l0xx_hal_pwr.c ****           __HAL_PWR_PVD_EXTI_ENABLE_IT() macro.
 123:Drivers/STM32L0xx_HAL_Driver/Src/stm32l0xx_hal_pwr.c ****       (+) The PVD is stopped in Standby mode.
 124:Drivers/STM32L0xx_HAL_Driver/Src/stm32l0xx_hal_pwr.c ****       (+) The PVD feature is not supported on L0 Value line.
 125:Drivers/STM32L0xx_HAL_Driver/Src/stm32l0xx_hal_pwr.c **** 
 126:Drivers/STM32L0xx_HAL_Driver/Src/stm32l0xx_hal_pwr.c ****     *** WakeUp pin configuration ***
 127:Drivers/STM32L0xx_HAL_Driver/Src/stm32l0xx_hal_pwr.c ****     ================================
 128:Drivers/STM32L0xx_HAL_Driver/Src/stm32l0xx_hal_pwr.c ****     [..]
 129:Drivers/STM32L0xx_HAL_Driver/Src/stm32l0xx_hal_pwr.c ****       (+) WakeUp pin is used to wake up the system from Standby mode. This pin is
 130:Drivers/STM32L0xx_HAL_Driver/Src/stm32l0xx_hal_pwr.c ****           forced in input pull-down configuration and is active on rising edges.
 131:Drivers/STM32L0xx_HAL_Driver/Src/stm32l0xx_hal_pwr.c ****       (+) There are two WakeUp pins:
 132:Drivers/STM32L0xx_HAL_Driver/Src/stm32l0xx_hal_pwr.c ****           WakeUp Pin 1 on PA.00.
 133:Drivers/STM32L0xx_HAL_Driver/Src/stm32l0xx_hal_pwr.c ****           WakeUp Pin 2 on PC.13.
 134:Drivers/STM32L0xx_HAL_Driver/Src/stm32l0xx_hal_pwr.c ****           WakeUp Pin 3 on PE.06 .
 135:Drivers/STM32L0xx_HAL_Driver/Src/stm32l0xx_hal_pwr.c ****           
 136:Drivers/STM32L0xx_HAL_Driver/Src/stm32l0xx_hal_pwr.c **** 
 137:Drivers/STM32L0xx_HAL_Driver/Src/stm32l0xx_hal_pwr.c ****     [..]
 138:Drivers/STM32L0xx_HAL_Driver/Src/stm32l0xx_hal_pwr.c ****     *** Main and Backup Regulators configuration ***
 139:Drivers/STM32L0xx_HAL_Driver/Src/stm32l0xx_hal_pwr.c ****     ================================================
 140:Drivers/STM32L0xx_HAL_Driver/Src/stm32l0xx_hal_pwr.c **** 
 141:Drivers/STM32L0xx_HAL_Driver/Src/stm32l0xx_hal_pwr.c ****       (+) The main internal regulator can be configured to have a tradeoff between
 142:Drivers/STM32L0xx_HAL_Driver/Src/stm32l0xx_hal_pwr.c ****           performance and power consumption when the device does not operate at
 143:Drivers/STM32L0xx_HAL_Driver/Src/stm32l0xx_hal_pwr.c ****           the maximum frequency. This is done through __HAL_PWR_VOLTAGESCALING_CONFIG()
 144:Drivers/STM32L0xx_HAL_Driver/Src/stm32l0xx_hal_pwr.c ****           macro which configures the two VOS bits in PWR_CR register:
 145:Drivers/STM32L0xx_HAL_Driver/Src/stm32l0xx_hal_pwr.c ****         (++) PWR_REGULATOR_VOLTAGE_SCALE1 (VOS bits = 01), the regulator voltage output Scale 1 mod
 146:Drivers/STM32L0xx_HAL_Driver/Src/stm32l0xx_hal_pwr.c ****              the System frequency can go up to 32 MHz.
 147:Drivers/STM32L0xx_HAL_Driver/Src/stm32l0xx_hal_pwr.c ****         (++) PWR_REGULATOR_VOLTAGE_SCALE2 (VOS bits = 10), the regulator voltage output Scale 2 mod
 148:Drivers/STM32L0xx_HAL_Driver/Src/stm32l0xx_hal_pwr.c ****              the System frequency can go up to 16 MHz.
 149:Drivers/STM32L0xx_HAL_Driver/Src/stm32l0xx_hal_pwr.c ****         (++) PWR_REGULATOR_VOLTAGE_SCALE3 (VOS bits = 11), the regulator voltage output Scale 3 mod
 150:Drivers/STM32L0xx_HAL_Driver/Src/stm32l0xx_hal_pwr.c ****              the System frequency can go up to 4.2 MHz.
 151:Drivers/STM32L0xx_HAL_Driver/Src/stm32l0xx_hal_pwr.c ****               
 152:Drivers/STM32L0xx_HAL_Driver/Src/stm32l0xx_hal_pwr.c ****         Refer to the datasheets for more details.
 153:Drivers/STM32L0xx_HAL_Driver/Src/stm32l0xx_hal_pwr.c **** 
 154:Drivers/STM32L0xx_HAL_Driver/Src/stm32l0xx_hal_pwr.c ****     *** Low Power modes configuration ***
 155:Drivers/STM32L0xx_HAL_Driver/Src/stm32l0xx_hal_pwr.c ****     =====================================
 156:Drivers/STM32L0xx_HAL_Driver/Src/stm32l0xx_hal_pwr.c ****      [..]
ARM GAS  /tmp/ccWxDmhr.s 			page 5


 157:Drivers/STM32L0xx_HAL_Driver/Src/stm32l0xx_hal_pwr.c ****       The device features 5 low-power modes:
 158:Drivers/STM32L0xx_HAL_Driver/Src/stm32l0xx_hal_pwr.c ****       (+) Low power run mode: regulator in low power mode, limited clock frequency, 
 159:Drivers/STM32L0xx_HAL_Driver/Src/stm32l0xx_hal_pwr.c ****         limited number of peripherals running.
 160:Drivers/STM32L0xx_HAL_Driver/Src/stm32l0xx_hal_pwr.c ****       (+) Sleep mode: Cortex-M0+ core stopped, peripherals kept running.
 161:Drivers/STM32L0xx_HAL_Driver/Src/stm32l0xx_hal_pwr.c ****       (+) Low power sleep mode: Cortex-M0+ core stopped, limited clock frequency, 
 162:Drivers/STM32L0xx_HAL_Driver/Src/stm32l0xx_hal_pwr.c ****          limited number of peripherals running, regulator in low power mode.
 163:Drivers/STM32L0xx_HAL_Driver/Src/stm32l0xx_hal_pwr.c ****       (+) Stop mode: All clocks are stopped, regulator running, regulator in low power mode.
 164:Drivers/STM32L0xx_HAL_Driver/Src/stm32l0xx_hal_pwr.c ****       (+) Standby mode: VCORE domain powered off
 165:Drivers/STM32L0xx_HAL_Driver/Src/stm32l0xx_hal_pwr.c ****   
 166:Drivers/STM32L0xx_HAL_Driver/Src/stm32l0xx_hal_pwr.c ****    *** Low power run mode ***
 167:Drivers/STM32L0xx_HAL_Driver/Src/stm32l0xx_hal_pwr.c ****    =========================
 168:Drivers/STM32L0xx_HAL_Driver/Src/stm32l0xx_hal_pwr.c ****     [..]
 169:Drivers/STM32L0xx_HAL_Driver/Src/stm32l0xx_hal_pwr.c ****        To further reduce the consumption when the system is in Run mode, the regulator can be
 170:Drivers/STM32L0xx_HAL_Driver/Src/stm32l0xx_hal_pwr.c ****         configured in low power mode. In this mode, the system frequency should not exceed
 171:Drivers/STM32L0xx_HAL_Driver/Src/stm32l0xx_hal_pwr.c ****         MSI frequency range1.
 172:Drivers/STM32L0xx_HAL_Driver/Src/stm32l0xx_hal_pwr.c ****         In Low power run mode, all I/O pins keep the same state as in Run mode.
 173:Drivers/STM32L0xx_HAL_Driver/Src/stm32l0xx_hal_pwr.c ****   
 174:Drivers/STM32L0xx_HAL_Driver/Src/stm32l0xx_hal_pwr.c ****       (+) Entry:
 175:Drivers/STM32L0xx_HAL_Driver/Src/stm32l0xx_hal_pwr.c ****         (++) VCORE in range2
 176:Drivers/STM32L0xx_HAL_Driver/Src/stm32l0xx_hal_pwr.c ****         (++) Decrease the system frequency not to exceed the frequency of MSI frequency range1.
 177:Drivers/STM32L0xx_HAL_Driver/Src/stm32l0xx_hal_pwr.c ****         (++) The regulator is forced in low power mode using the HAL_PWREx_EnableLowPowerRunMode()
 178:Drivers/STM32L0xx_HAL_Driver/Src/stm32l0xx_hal_pwr.c ****              function.
 179:Drivers/STM32L0xx_HAL_Driver/Src/stm32l0xx_hal_pwr.c ****       (+) Exit:
 180:Drivers/STM32L0xx_HAL_Driver/Src/stm32l0xx_hal_pwr.c ****         (++) The regulator is forced in Main regulator mode using the HAL_PWREx_DisableLowPowerRunM
 181:Drivers/STM32L0xx_HAL_Driver/Src/stm32l0xx_hal_pwr.c ****               function.
 182:Drivers/STM32L0xx_HAL_Driver/Src/stm32l0xx_hal_pwr.c ****         (++) Increase the system frequency if needed.
 183:Drivers/STM32L0xx_HAL_Driver/Src/stm32l0xx_hal_pwr.c ****   
 184:Drivers/STM32L0xx_HAL_Driver/Src/stm32l0xx_hal_pwr.c ****    *** Sleep mode ***
 185:Drivers/STM32L0xx_HAL_Driver/Src/stm32l0xx_hal_pwr.c ****    ==================
 186:Drivers/STM32L0xx_HAL_Driver/Src/stm32l0xx_hal_pwr.c ****     [..]
 187:Drivers/STM32L0xx_HAL_Driver/Src/stm32l0xx_hal_pwr.c ****       (+) Entry:
 188:Drivers/STM32L0xx_HAL_Driver/Src/stm32l0xx_hal_pwr.c ****           The Sleep mode is entered by using the HAL_PWR_EnterSLEEPMode(PWR_MAINREGULATOR_ON, PWR_S
 189:Drivers/STM32L0xx_HAL_Driver/Src/stm32l0xx_hal_pwr.c ****               functions with
 190:Drivers/STM32L0xx_HAL_Driver/Src/stm32l0xx_hal_pwr.c ****           (++) PWR_SLEEPENTRY_WFI: enter SLEEP mode with WFI instruction
 191:Drivers/STM32L0xx_HAL_Driver/Src/stm32l0xx_hal_pwr.c ****           (++) PWR_SLEEPENTRY_WFE: enter SLEEP mode with WFE instruction
 192:Drivers/STM32L0xx_HAL_Driver/Src/stm32l0xx_hal_pwr.c ****      
 193:Drivers/STM32L0xx_HAL_Driver/Src/stm32l0xx_hal_pwr.c ****       (+) Exit:
 194:Drivers/STM32L0xx_HAL_Driver/Src/stm32l0xx_hal_pwr.c ****         (++) Any peripheral interrupt acknowledged by the nested vectored interrupt
 195:Drivers/STM32L0xx_HAL_Driver/Src/stm32l0xx_hal_pwr.c ****               controller (NVIC) can wake up the device from Sleep mode. If the WFE instruction was 
 196:Drivers/STM32L0xx_HAL_Driver/Src/stm32l0xx_hal_pwr.c ****               the MCU exits Sleep mode as soon as an event occurs. 
 197:Drivers/STM32L0xx_HAL_Driver/Src/stm32l0xx_hal_pwr.c **** 
 198:Drivers/STM32L0xx_HAL_Driver/Src/stm32l0xx_hal_pwr.c ****    *** Low power sleep mode ***
 199:Drivers/STM32L0xx_HAL_Driver/Src/stm32l0xx_hal_pwr.c ****    ============================
 200:Drivers/STM32L0xx_HAL_Driver/Src/stm32l0xx_hal_pwr.c ****     [..]
 201:Drivers/STM32L0xx_HAL_Driver/Src/stm32l0xx_hal_pwr.c ****       (+) Entry:
 202:Drivers/STM32L0xx_HAL_Driver/Src/stm32l0xx_hal_pwr.c ****           The Low power sleep mode is entered by using the HAL_PWR_EnterSLEEPMode(PWR_LOWPOWERREGUL
 203:Drivers/STM32L0xx_HAL_Driver/Src/stm32l0xx_hal_pwr.c ****               functions with
 204:Drivers/STM32L0xx_HAL_Driver/Src/stm32l0xx_hal_pwr.c ****           (++) PWR_SLEEPENTRY_WFI: enter SLEEP mode with WFI instruction
 205:Drivers/STM32L0xx_HAL_Driver/Src/stm32l0xx_hal_pwr.c ****           (++) PWR_SLEEPENTRY_WFE: enter SLEEP mode with WFE instruction
 206:Drivers/STM32L0xx_HAL_Driver/Src/stm32l0xx_hal_pwr.c ****        (+) The Flash memory can be switched off by using the control bits (SLEEP_PD in the FLASH_AC
 207:Drivers/STM32L0xx_HAL_Driver/Src/stm32l0xx_hal_pwr.c ****              This reduces power consumption but increases the wake-up time.
 208:Drivers/STM32L0xx_HAL_Driver/Src/stm32l0xx_hal_pwr.c ****          
 209:Drivers/STM32L0xx_HAL_Driver/Src/stm32l0xx_hal_pwr.c ****       (+) Exit:
 210:Drivers/STM32L0xx_HAL_Driver/Src/stm32l0xx_hal_pwr.c ****         (++) If the WFI instruction was used to enter Low power sleep mode, any peripheral interrup
 211:Drivers/STM32L0xx_HAL_Driver/Src/stm32l0xx_hal_pwr.c ****               acknowledged by the nested vectored interrupt controller (NVIC) can wake up the devic
 212:Drivers/STM32L0xx_HAL_Driver/Src/stm32l0xx_hal_pwr.c ****               from Low power sleep mode. If the WFE instruction was used to enter Low power sleep m
 213:Drivers/STM32L0xx_HAL_Driver/Src/stm32l0xx_hal_pwr.c ****               the MCU exits Sleep mode as soon as an event occurs. 
ARM GAS  /tmp/ccWxDmhr.s 			page 6


 214:Drivers/STM32L0xx_HAL_Driver/Src/stm32l0xx_hal_pwr.c ****                 
 215:Drivers/STM32L0xx_HAL_Driver/Src/stm32l0xx_hal_pwr.c ****    *** Stop mode ***
 216:Drivers/STM32L0xx_HAL_Driver/Src/stm32l0xx_hal_pwr.c ****    =================
 217:Drivers/STM32L0xx_HAL_Driver/Src/stm32l0xx_hal_pwr.c ****     [..]
 218:Drivers/STM32L0xx_HAL_Driver/Src/stm32l0xx_hal_pwr.c ****       The Stop mode is based on the Cortex-M0+ deepsleep mode combined with peripheral
 219:Drivers/STM32L0xx_HAL_Driver/Src/stm32l0xx_hal_pwr.c ****       clock gating. The voltage regulator can be configured either in normal or low-power mode.
 220:Drivers/STM32L0xx_HAL_Driver/Src/stm32l0xx_hal_pwr.c ****       In Stop mode, all clocks in the VCORE domain are stopped, the PLL, the MSI, the HSI and
 221:Drivers/STM32L0xx_HAL_Driver/Src/stm32l0xx_hal_pwr.c ****       the HSE RC oscillators are disabled. Internal SRAM and register contents are preserved.
 222:Drivers/STM32L0xx_HAL_Driver/Src/stm32l0xx_hal_pwr.c ****       To get the lowest consumption in Stop mode, the internal Flash memory also enters low
 223:Drivers/STM32L0xx_HAL_Driver/Src/stm32l0xx_hal_pwr.c ****       power mode. When the Flash memory is in power-down mode, an additional startup delay is
 224:Drivers/STM32L0xx_HAL_Driver/Src/stm32l0xx_hal_pwr.c ****       incurred when waking up from Stop mode.
 225:Drivers/STM32L0xx_HAL_Driver/Src/stm32l0xx_hal_pwr.c ****       To minimize the consumption In Stop mode, VREFINT, the BOR, PVD, and temperature
 226:Drivers/STM32L0xx_HAL_Driver/Src/stm32l0xx_hal_pwr.c ****       sensor can be switched off before entering Stop mode. They can be switched on again by
 227:Drivers/STM32L0xx_HAL_Driver/Src/stm32l0xx_hal_pwr.c ****       software after exiting Stop mode using the ULP bit in the PWR_CR register.
 228:Drivers/STM32L0xx_HAL_Driver/Src/stm32l0xx_hal_pwr.c ****       In Stop mode, all I/O pins keep the same state as in Run mode.
 229:Drivers/STM32L0xx_HAL_Driver/Src/stm32l0xx_hal_pwr.c **** 
 230:Drivers/STM32L0xx_HAL_Driver/Src/stm32l0xx_hal_pwr.c ****       (+) Entry:
 231:Drivers/STM32L0xx_HAL_Driver/Src/stm32l0xx_hal_pwr.c ****            The Stop mode is entered using the HAL_PWR_EnterSTOPMode
 232:Drivers/STM32L0xx_HAL_Driver/Src/stm32l0xx_hal_pwr.c ****              function with:
 233:Drivers/STM32L0xx_HAL_Driver/Src/stm32l0xx_hal_pwr.c ****           (++) Main regulator ON.
 234:Drivers/STM32L0xx_HAL_Driver/Src/stm32l0xx_hal_pwr.c ****           (++) Low Power regulator ON.
 235:Drivers/STM32L0xx_HAL_Driver/Src/stm32l0xx_hal_pwr.c ****           (++) PWR_SLEEPENTRY_WFI: enter SLEEP mode with WFI instruction
 236:Drivers/STM32L0xx_HAL_Driver/Src/stm32l0xx_hal_pwr.c ****           (++) PWR_SLEEPENTRY_WFE: enter SLEEP mode with WFE instruction
 237:Drivers/STM32L0xx_HAL_Driver/Src/stm32l0xx_hal_pwr.c ****       (+) Exit:
 238:Drivers/STM32L0xx_HAL_Driver/Src/stm32l0xx_hal_pwr.c ****         (++) By issuing an interrupt or a wakeup event, the MSI or HSI16 RC
 239:Drivers/STM32L0xx_HAL_Driver/Src/stm32l0xx_hal_pwr.c ****              oscillator is selected as system clock depending the bit STOPWUCK in the RCC_CFGR
 240:Drivers/STM32L0xx_HAL_Driver/Src/stm32l0xx_hal_pwr.c ****              register
 241:Drivers/STM32L0xx_HAL_Driver/Src/stm32l0xx_hal_pwr.c **** 
 242:Drivers/STM32L0xx_HAL_Driver/Src/stm32l0xx_hal_pwr.c ****    *** Standby mode ***
 243:Drivers/STM32L0xx_HAL_Driver/Src/stm32l0xx_hal_pwr.c ****    ====================
 244:Drivers/STM32L0xx_HAL_Driver/Src/stm32l0xx_hal_pwr.c ****      [..]
 245:Drivers/STM32L0xx_HAL_Driver/Src/stm32l0xx_hal_pwr.c ****       The Standby mode allows to achieve the lowest power consumption. It is based on the
 246:Drivers/STM32L0xx_HAL_Driver/Src/stm32l0xx_hal_pwr.c ****       Cortex-M0+ deepsleep mode, with the voltage regulator disabled. The VCORE domain is
 247:Drivers/STM32L0xx_HAL_Driver/Src/stm32l0xx_hal_pwr.c ****       consequently powered off. The PLL, the MSI, the HSI oscillator and the HSE oscillator are
 248:Drivers/STM32L0xx_HAL_Driver/Src/stm32l0xx_hal_pwr.c ****       also switched off. SRAM and register contents are lost except for the RTC registers, RTC
 249:Drivers/STM32L0xx_HAL_Driver/Src/stm32l0xx_hal_pwr.c ****       backup registers and Standby circuitry.
 250:Drivers/STM32L0xx_HAL_Driver/Src/stm32l0xx_hal_pwr.c ****       
 251:Drivers/STM32L0xx_HAL_Driver/Src/stm32l0xx_hal_pwr.c ****       To minimize the consumption In Standby mode, VREFINT, the BOR, PVD, and temperature
 252:Drivers/STM32L0xx_HAL_Driver/Src/stm32l0xx_hal_pwr.c ****        sensor can be switched off before entering the Standby mode. They can be switched 
 253:Drivers/STM32L0xx_HAL_Driver/Src/stm32l0xx_hal_pwr.c ****        on again by software after exiting the Standby mode.
 254:Drivers/STM32L0xx_HAL_Driver/Src/stm32l0xx_hal_pwr.c ****        function.
 255:Drivers/STM32L0xx_HAL_Driver/Src/stm32l0xx_hal_pwr.c ****       
 256:Drivers/STM32L0xx_HAL_Driver/Src/stm32l0xx_hal_pwr.c ****       (+) Entry:
 257:Drivers/STM32L0xx_HAL_Driver/Src/stm32l0xx_hal_pwr.c ****         (++) The Standby mode is entered using the HAL_PWR_EnterSTANDBYMode() function.
 258:Drivers/STM32L0xx_HAL_Driver/Src/stm32l0xx_hal_pwr.c ****       (+) Exit:
 259:Drivers/STM32L0xx_HAL_Driver/Src/stm32l0xx_hal_pwr.c ****         (++) WKUP pin rising edge, RTC alarm (Alarm A and Alarm B), RTC wakeup,
 260:Drivers/STM32L0xx_HAL_Driver/Src/stm32l0xx_hal_pwr.c ****              tamper event, time-stamp event, external reset in NRST pin, IWDG reset.
 261:Drivers/STM32L0xx_HAL_Driver/Src/stm32l0xx_hal_pwr.c **** 
 262:Drivers/STM32L0xx_HAL_Driver/Src/stm32l0xx_hal_pwr.c ****    *** Auto-wakeup (AWU) from low-power mode ***
 263:Drivers/STM32L0xx_HAL_Driver/Src/stm32l0xx_hal_pwr.c ****    =============================================
 264:Drivers/STM32L0xx_HAL_Driver/Src/stm32l0xx_hal_pwr.c ****     [..]
 265:Drivers/STM32L0xx_HAL_Driver/Src/stm32l0xx_hal_pwr.c ****       The MCU can be woken up from low-power mode by an RTC Alarm event, an RTC 
 266:Drivers/STM32L0xx_HAL_Driver/Src/stm32l0xx_hal_pwr.c ****       Wakeup event, a tamper event, a time-stamp event, or a comparator event, 
 267:Drivers/STM32L0xx_HAL_Driver/Src/stm32l0xx_hal_pwr.c ****       without depending on an external interrupt (Auto-wakeup mode).
 268:Drivers/STM32L0xx_HAL_Driver/Src/stm32l0xx_hal_pwr.c **** 
 269:Drivers/STM32L0xx_HAL_Driver/Src/stm32l0xx_hal_pwr.c ****     (+) RTC auto-wakeup (AWU) from the Stop mode
 270:Drivers/STM32L0xx_HAL_Driver/Src/stm32l0xx_hal_pwr.c ****         (++) To wake up from the Stop mode with an RTC alarm event, it is necessary to:
ARM GAS  /tmp/ccWxDmhr.s 			page 7


 271:Drivers/STM32L0xx_HAL_Driver/Src/stm32l0xx_hal_pwr.c ****              (+++) Configure the EXTI Line 17 to be sensitive to rising edges (Interrupt 
 272:Drivers/STM32L0xx_HAL_Driver/Src/stm32l0xx_hal_pwr.c ****                    or Event modes) using the EXTI_Init() function.
 273:Drivers/STM32L0xx_HAL_Driver/Src/stm32l0xx_hal_pwr.c ****              (+++) Enable the RTC Alarm Interrupt using the RTC_ITConfig() function
 274:Drivers/STM32L0xx_HAL_Driver/Src/stm32l0xx_hal_pwr.c ****              (+++) Configure the RTC to generate the RTC alarm using the RTC_SetAlarm() 
 275:Drivers/STM32L0xx_HAL_Driver/Src/stm32l0xx_hal_pwr.c ****                    and RTC_AlarmCmd() functions.
 276:Drivers/STM32L0xx_HAL_Driver/Src/stm32l0xx_hal_pwr.c ****         (++) To wake up from the Stop mode with an RTC Tamper or time stamp event, it 
 277:Drivers/STM32L0xx_HAL_Driver/Src/stm32l0xx_hal_pwr.c ****              is necessary to:
 278:Drivers/STM32L0xx_HAL_Driver/Src/stm32l0xx_hal_pwr.c ****              (+++) Configure the EXTI Line 19 to be sensitive to rising edges (Interrupt 
 279:Drivers/STM32L0xx_HAL_Driver/Src/stm32l0xx_hal_pwr.c ****                    or Event modes) using the EXTI_Init() function.
 280:Drivers/STM32L0xx_HAL_Driver/Src/stm32l0xx_hal_pwr.c ****              (+++) Enable the RTC Tamper or time stamp Interrupt using the RTC_ITConfig() 
 281:Drivers/STM32L0xx_HAL_Driver/Src/stm32l0xx_hal_pwr.c ****                    function.
 282:Drivers/STM32L0xx_HAL_Driver/Src/stm32l0xx_hal_pwr.c ****              (+++) Configure the RTC to detect the tamper or time stamp event using the
 283:Drivers/STM32L0xx_HAL_Driver/Src/stm32l0xx_hal_pwr.c ****                    RTC_TimeStampConfig(), RTC_TamperTriggerConfig() and RTC_TamperCmd()
 284:Drivers/STM32L0xx_HAL_Driver/Src/stm32l0xx_hal_pwr.c ****                    functions.
 285:Drivers/STM32L0xx_HAL_Driver/Src/stm32l0xx_hal_pwr.c ****         (++) To wake up from the Stop mode with an RTC WakeUp event, it is necessary to:
 286:Drivers/STM32L0xx_HAL_Driver/Src/stm32l0xx_hal_pwr.c ****              (+++) Configure the EXTI Line 20 to be sensitive to rising edges (Interrupt 
 287:Drivers/STM32L0xx_HAL_Driver/Src/stm32l0xx_hal_pwr.c ****                    or Event modes) using the EXTI_Init() function.
 288:Drivers/STM32L0xx_HAL_Driver/Src/stm32l0xx_hal_pwr.c ****              (+++) Enable the RTC WakeUp Interrupt using the RTC_ITConfig() function.
 289:Drivers/STM32L0xx_HAL_Driver/Src/stm32l0xx_hal_pwr.c ****              (+++) Configure the RTC to generate the RTC WakeUp event using the RTC_WakeUpClockConf
 290:Drivers/STM32L0xx_HAL_Driver/Src/stm32l0xx_hal_pwr.c ****                    RTC_SetWakeUpCounter() and RTC_WakeUpCmd() functions.
 291:Drivers/STM32L0xx_HAL_Driver/Src/stm32l0xx_hal_pwr.c **** 
 292:Drivers/STM32L0xx_HAL_Driver/Src/stm32l0xx_hal_pwr.c ****     (+) RTC auto-wakeup (AWU) from the Standby mode
 293:Drivers/STM32L0xx_HAL_Driver/Src/stm32l0xx_hal_pwr.c ****         (++) To wake up from the Standby mode with an RTC alarm event, it is necessary to:
 294:Drivers/STM32L0xx_HAL_Driver/Src/stm32l0xx_hal_pwr.c ****              (+++) Enable the RTC Alarm Interrupt using the RTC_ITConfig() function.
 295:Drivers/STM32L0xx_HAL_Driver/Src/stm32l0xx_hal_pwr.c ****              (+++) Configure the RTC to generate the RTC alarm using the RTC_SetAlarm() 
 296:Drivers/STM32L0xx_HAL_Driver/Src/stm32l0xx_hal_pwr.c ****                    and RTC_AlarmCmd() functions.
 297:Drivers/STM32L0xx_HAL_Driver/Src/stm32l0xx_hal_pwr.c ****         (++) To wake up from the Standby mode with an RTC Tamper or time stamp event, it 
 298:Drivers/STM32L0xx_HAL_Driver/Src/stm32l0xx_hal_pwr.c ****              is necessary to:
 299:Drivers/STM32L0xx_HAL_Driver/Src/stm32l0xx_hal_pwr.c ****              (+++) Enable the RTC Tamper or time stamp Interrupt using the RTC_ITConfig() 
 300:Drivers/STM32L0xx_HAL_Driver/Src/stm32l0xx_hal_pwr.c ****                    function.
 301:Drivers/STM32L0xx_HAL_Driver/Src/stm32l0xx_hal_pwr.c ****              (+++) Configure the RTC to detect the tamper or time stamp event using the
 302:Drivers/STM32L0xx_HAL_Driver/Src/stm32l0xx_hal_pwr.c ****                    RTC_TimeStampConfig(), RTC_TamperTriggerConfig() and RTC_TamperCmd()
 303:Drivers/STM32L0xx_HAL_Driver/Src/stm32l0xx_hal_pwr.c ****                    functions.
 304:Drivers/STM32L0xx_HAL_Driver/Src/stm32l0xx_hal_pwr.c ****         (++) To wake up from the Standby mode with an RTC WakeUp event, it is necessary to:
 305:Drivers/STM32L0xx_HAL_Driver/Src/stm32l0xx_hal_pwr.c ****              (+++) Enable the RTC WakeUp Interrupt using the RTC_ITConfig() function
 306:Drivers/STM32L0xx_HAL_Driver/Src/stm32l0xx_hal_pwr.c ****              (+++) Configure the RTC to generate the RTC WakeUp event using the RTC_WakeUpClockConf
 307:Drivers/STM32L0xx_HAL_Driver/Src/stm32l0xx_hal_pwr.c ****                    RTC_SetWakeUpCounter() and RTC_WakeUpCmd() functions.
 308:Drivers/STM32L0xx_HAL_Driver/Src/stm32l0xx_hal_pwr.c **** 
 309:Drivers/STM32L0xx_HAL_Driver/Src/stm32l0xx_hal_pwr.c ****     (+) Comparator auto-wakeup (AWU) from the Stop mode
 310:Drivers/STM32L0xx_HAL_Driver/Src/stm32l0xx_hal_pwr.c ****         (++) To wake up from the Stop mode with an comparator 1 or comparator 2 wakeup
 311:Drivers/STM32L0xx_HAL_Driver/Src/stm32l0xx_hal_pwr.c ****              event, it is necessary to:
 312:Drivers/STM32L0xx_HAL_Driver/Src/stm32l0xx_hal_pwr.c ****              (+++) Configure the EXTI Line 21 for comparator 1 or EXTI Line 22 for comparator 2 
 313:Drivers/STM32L0xx_HAL_Driver/Src/stm32l0xx_hal_pwr.c ****                    to be sensitive to to the selected edges (falling, rising or falling 
 314:Drivers/STM32L0xx_HAL_Driver/Src/stm32l0xx_hal_pwr.c ****                    and rising) (Interrupt or Event modes) using the EXTI_Init() function.
 315:Drivers/STM32L0xx_HAL_Driver/Src/stm32l0xx_hal_pwr.c ****              (+++) Configure the comparator to generate the event.      
 316:Drivers/STM32L0xx_HAL_Driver/Src/stm32l0xx_hal_pwr.c **** @endverbatim
 317:Drivers/STM32L0xx_HAL_Driver/Src/stm32l0xx_hal_pwr.c ****   * @{
 318:Drivers/STM32L0xx_HAL_Driver/Src/stm32l0xx_hal_pwr.c ****   */
 319:Drivers/STM32L0xx_HAL_Driver/Src/stm32l0xx_hal_pwr.c **** 
 320:Drivers/STM32L0xx_HAL_Driver/Src/stm32l0xx_hal_pwr.c **** /**
 321:Drivers/STM32L0xx_HAL_Driver/Src/stm32l0xx_hal_pwr.c ****   * @brief Enables access to the backup domain (RTC registers, RTC
 322:Drivers/STM32L0xx_HAL_Driver/Src/stm32l0xx_hal_pwr.c ****   *         backup data registers ).
 323:Drivers/STM32L0xx_HAL_Driver/Src/stm32l0xx_hal_pwr.c ****   * @note   If the HSE divided by 2, 4, 8 or 16 is used as the RTC clock, the
 324:Drivers/STM32L0xx_HAL_Driver/Src/stm32l0xx_hal_pwr.c ****   *         Backup Domain Access should be kept enabled.
 325:Drivers/STM32L0xx_HAL_Driver/Src/stm32l0xx_hal_pwr.c ****   * @retval None
 326:Drivers/STM32L0xx_HAL_Driver/Src/stm32l0xx_hal_pwr.c ****   */
 327:Drivers/STM32L0xx_HAL_Driver/Src/stm32l0xx_hal_pwr.c **** void HAL_PWR_EnableBkUpAccess(void)
ARM GAS  /tmp/ccWxDmhr.s 			page 8


 328:Drivers/STM32L0xx_HAL_Driver/Src/stm32l0xx_hal_pwr.c **** {
  76              		.loc 1 328 0
  77              		.cfi_startproc
  78              		@ args = 0, pretend = 0, frame = 0
  79              		@ frame_needed = 1, uses_anonymous_args = 0
  80 0000 80B5     		push	{r7, lr}
  81              	.LCFI2:
  82              		.cfi_def_cfa_offset 8
  83              		.cfi_offset 7, -8
  84              		.cfi_offset 14, -4
  85 0002 00AF     		add	r7, sp, #0
  86              	.LCFI3:
  87              		.cfi_def_cfa_register 7
 329:Drivers/STM32L0xx_HAL_Driver/Src/stm32l0xx_hal_pwr.c ****   /* Enable access to RTC and backup registers */
 330:Drivers/STM32L0xx_HAL_Driver/Src/stm32l0xx_hal_pwr.c ****   SET_BIT(PWR->CR, PWR_CR_DBP);
  88              		.loc 1 330 0
  89 0004 044B     		ldr	r3, .L5
  90 0006 044A     		ldr	r2, .L5
  91 0008 1268     		ldr	r2, [r2]
  92 000a 8021     		movs	r1, #128
  93 000c 4900     		lsls	r1, r1, #1
  94 000e 0A43     		orrs	r2, r1
  95 0010 1A60     		str	r2, [r3]
 331:Drivers/STM32L0xx_HAL_Driver/Src/stm32l0xx_hal_pwr.c **** }
  96              		.loc 1 331 0
  97 0012 C046     		nop
  98 0014 BD46     		mov	sp, r7
  99              		@ sp needed
 100 0016 80BD     		pop	{r7, pc}
 101              	.L6:
 102              		.align	2
 103              	.L5:
 104 0018 00700040 		.word	1073770496
 105              		.cfi_endproc
 106              	.LFE35:
 108              		.section	.text.HAL_PWR_DisableBkUpAccess,"ax",%progbits
 109              		.align	1
 110              		.global	HAL_PWR_DisableBkUpAccess
 111              		.syntax unified
 112              		.code	16
 113              		.thumb_func
 114              		.fpu softvfp
 116              	HAL_PWR_DisableBkUpAccess:
 117              	.LFB36:
 332:Drivers/STM32L0xx_HAL_Driver/Src/stm32l0xx_hal_pwr.c **** 
 333:Drivers/STM32L0xx_HAL_Driver/Src/stm32l0xx_hal_pwr.c **** /**
 334:Drivers/STM32L0xx_HAL_Driver/Src/stm32l0xx_hal_pwr.c ****   * @brief  Disables access to the backup domain 
 335:Drivers/STM32L0xx_HAL_Driver/Src/stm32l0xx_hal_pwr.c ****   * @note   Applies to RTC registers, RTC backup data registers.
 336:Drivers/STM32L0xx_HAL_Driver/Src/stm32l0xx_hal_pwr.c ****   * @note   If the HSE divided by 2, 4, 8 or 16 is used as the RTC clock, the
 337:Drivers/STM32L0xx_HAL_Driver/Src/stm32l0xx_hal_pwr.c ****   *         Backup Domain Access should be kept enabled.
 338:Drivers/STM32L0xx_HAL_Driver/Src/stm32l0xx_hal_pwr.c ****   * @retval None
 339:Drivers/STM32L0xx_HAL_Driver/Src/stm32l0xx_hal_pwr.c ****   */
 340:Drivers/STM32L0xx_HAL_Driver/Src/stm32l0xx_hal_pwr.c **** void HAL_PWR_DisableBkUpAccess(void)
 341:Drivers/STM32L0xx_HAL_Driver/Src/stm32l0xx_hal_pwr.c **** {
 118              		.loc 1 341 0
 119              		.cfi_startproc
 120              		@ args = 0, pretend = 0, frame = 0
ARM GAS  /tmp/ccWxDmhr.s 			page 9


 121              		@ frame_needed = 1, uses_anonymous_args = 0
 122 0000 80B5     		push	{r7, lr}
 123              	.LCFI4:
 124              		.cfi_def_cfa_offset 8
 125              		.cfi_offset 7, -8
 126              		.cfi_offset 14, -4
 127 0002 00AF     		add	r7, sp, #0
 128              	.LCFI5:
 129              		.cfi_def_cfa_register 7
 342:Drivers/STM32L0xx_HAL_Driver/Src/stm32l0xx_hal_pwr.c ****   /* Disable access to RTC and backup registers */
 343:Drivers/STM32L0xx_HAL_Driver/Src/stm32l0xx_hal_pwr.c ****   CLEAR_BIT(PWR->CR, PWR_CR_DBP);
 130              		.loc 1 343 0
 131 0004 044B     		ldr	r3, .L8
 132 0006 044A     		ldr	r2, .L8
 133 0008 1268     		ldr	r2, [r2]
 134 000a 0449     		ldr	r1, .L8+4
 135 000c 0A40     		ands	r2, r1
 136 000e 1A60     		str	r2, [r3]
 344:Drivers/STM32L0xx_HAL_Driver/Src/stm32l0xx_hal_pwr.c **** }
 137              		.loc 1 344 0
 138 0010 C046     		nop
 139 0012 BD46     		mov	sp, r7
 140              		@ sp needed
 141 0014 80BD     		pop	{r7, pc}
 142              	.L9:
 143 0016 C046     		.align	2
 144              	.L8:
 145 0018 00700040 		.word	1073770496
 146 001c FFFEFFFF 		.word	-257
 147              		.cfi_endproc
 148              	.LFE36:
 150              		.section	.text.HAL_PWR_ConfigPVD,"ax",%progbits
 151              		.align	1
 152              		.global	HAL_PWR_ConfigPVD
 153              		.syntax unified
 154              		.code	16
 155              		.thumb_func
 156              		.fpu softvfp
 158              	HAL_PWR_ConfigPVD:
 159              	.LFB37:
 345:Drivers/STM32L0xx_HAL_Driver/Src/stm32l0xx_hal_pwr.c **** 
 346:Drivers/STM32L0xx_HAL_Driver/Src/stm32l0xx_hal_pwr.c **** #if defined(PWR_PVD_SUPPORT)
 347:Drivers/STM32L0xx_HAL_Driver/Src/stm32l0xx_hal_pwr.c **** /**
 348:Drivers/STM32L0xx_HAL_Driver/Src/stm32l0xx_hal_pwr.c ****   * @brief  Configures the voltage threshold detected by the Power Voltage Detector(PVD).
 349:Drivers/STM32L0xx_HAL_Driver/Src/stm32l0xx_hal_pwr.c ****   * @param  sConfigPVD pointer to an PWR_PVDTypeDef structure that contains the configuration
 350:Drivers/STM32L0xx_HAL_Driver/Src/stm32l0xx_hal_pwr.c ****   *         information for the PVD.
 351:Drivers/STM32L0xx_HAL_Driver/Src/stm32l0xx_hal_pwr.c ****   * @note   Refer to the electrical characteristics of your device datasheet for
 352:Drivers/STM32L0xx_HAL_Driver/Src/stm32l0xx_hal_pwr.c ****   *         more details about the voltage threshold corresponding to each
 353:Drivers/STM32L0xx_HAL_Driver/Src/stm32l0xx_hal_pwr.c ****   *         detection level.
 354:Drivers/STM32L0xx_HAL_Driver/Src/stm32l0xx_hal_pwr.c ****   * @retval None
 355:Drivers/STM32L0xx_HAL_Driver/Src/stm32l0xx_hal_pwr.c ****   */
 356:Drivers/STM32L0xx_HAL_Driver/Src/stm32l0xx_hal_pwr.c **** void HAL_PWR_ConfigPVD(PWR_PVDTypeDef *sConfigPVD)
 357:Drivers/STM32L0xx_HAL_Driver/Src/stm32l0xx_hal_pwr.c **** {
 160              		.loc 1 357 0
 161              		.cfi_startproc
 162              		@ args = 0, pretend = 0, frame = 8
 163              		@ frame_needed = 1, uses_anonymous_args = 0
ARM GAS  /tmp/ccWxDmhr.s 			page 10


 164 0000 80B5     		push	{r7, lr}
 165              	.LCFI6:
 166              		.cfi_def_cfa_offset 8
 167              		.cfi_offset 7, -8
 168              		.cfi_offset 14, -4
 169 0002 82B0     		sub	sp, sp, #8
 170              	.LCFI7:
 171              		.cfi_def_cfa_offset 16
 172 0004 00AF     		add	r7, sp, #0
 173              	.LCFI8:
 174              		.cfi_def_cfa_register 7
 175 0006 7860     		str	r0, [r7, #4]
 358:Drivers/STM32L0xx_HAL_Driver/Src/stm32l0xx_hal_pwr.c ****   /* Check the parameters */
 359:Drivers/STM32L0xx_HAL_Driver/Src/stm32l0xx_hal_pwr.c ****   assert_param(IS_PWR_PVD_LEVEL(sConfigPVD->PVDLevel));
 360:Drivers/STM32L0xx_HAL_Driver/Src/stm32l0xx_hal_pwr.c ****   assert_param(IS_PWR_PVD_MODE(sConfigPVD->Mode));
 361:Drivers/STM32L0xx_HAL_Driver/Src/stm32l0xx_hal_pwr.c **** 
 362:Drivers/STM32L0xx_HAL_Driver/Src/stm32l0xx_hal_pwr.c ****   /* Set PLS[7:5] bits according to PVDLevel value */
 363:Drivers/STM32L0xx_HAL_Driver/Src/stm32l0xx_hal_pwr.c ****   MODIFY_REG(PWR->CR, PWR_CR_PLS, sConfigPVD->PVDLevel);
 176              		.loc 1 363 0
 177 0008 2B4A     		ldr	r2, .L16
 178 000a 2B4B     		ldr	r3, .L16
 179 000c 1B68     		ldr	r3, [r3]
 180 000e E021     		movs	r1, #224
 181 0010 8B43     		bics	r3, r1
 182 0012 1900     		movs	r1, r3
 183 0014 7B68     		ldr	r3, [r7, #4]
 184 0016 1B68     		ldr	r3, [r3]
 185 0018 0B43     		orrs	r3, r1
 186 001a 1360     		str	r3, [r2]
 364:Drivers/STM32L0xx_HAL_Driver/Src/stm32l0xx_hal_pwr.c ****   
 365:Drivers/STM32L0xx_HAL_Driver/Src/stm32l0xx_hal_pwr.c ****   /* Clear any previous config. Keep it clear if no event or IT mode is selected */
 366:Drivers/STM32L0xx_HAL_Driver/Src/stm32l0xx_hal_pwr.c ****   __HAL_PWR_PVD_EXTI_DISABLE_EVENT();
 187              		.loc 1 366 0
 188 001c 274B     		ldr	r3, .L16+4
 189 001e 274A     		ldr	r2, .L16+4
 190 0020 5268     		ldr	r2, [r2, #4]
 191 0022 2749     		ldr	r1, .L16+8
 192 0024 0A40     		ands	r2, r1
 193 0026 5A60     		str	r2, [r3, #4]
 367:Drivers/STM32L0xx_HAL_Driver/Src/stm32l0xx_hal_pwr.c ****   __HAL_PWR_PVD_EXTI_DISABLE_IT();
 194              		.loc 1 367 0
 195 0028 244B     		ldr	r3, .L16+4
 196 002a 244A     		ldr	r2, .L16+4
 197 002c 1268     		ldr	r2, [r2]
 198 002e 2449     		ldr	r1, .L16+8
 199 0030 0A40     		ands	r2, r1
 200 0032 1A60     		str	r2, [r3]
 368:Drivers/STM32L0xx_HAL_Driver/Src/stm32l0xx_hal_pwr.c ****   __HAL_PWR_PVD_EXTI_DISABLE_FALLING_EDGE(); 
 201              		.loc 1 368 0
 202 0034 214B     		ldr	r3, .L16+4
 203 0036 214A     		ldr	r2, .L16+4
 204 0038 D268     		ldr	r2, [r2, #12]
 205 003a 2149     		ldr	r1, .L16+8
 206 003c 0A40     		ands	r2, r1
 207 003e DA60     		str	r2, [r3, #12]
 369:Drivers/STM32L0xx_HAL_Driver/Src/stm32l0xx_hal_pwr.c ****   __HAL_PWR_PVD_EXTI_DISABLE_RISING_EDGE();
 208              		.loc 1 369 0
ARM GAS  /tmp/ccWxDmhr.s 			page 11


 209 0040 1E4B     		ldr	r3, .L16+4
 210 0042 1E4A     		ldr	r2, .L16+4
 211 0044 9268     		ldr	r2, [r2, #8]
 212 0046 1E49     		ldr	r1, .L16+8
 213 0048 0A40     		ands	r2, r1
 214 004a 9A60     		str	r2, [r3, #8]
 370:Drivers/STM32L0xx_HAL_Driver/Src/stm32l0xx_hal_pwr.c **** 
 371:Drivers/STM32L0xx_HAL_Driver/Src/stm32l0xx_hal_pwr.c ****   /* Configure interrupt mode */
 372:Drivers/STM32L0xx_HAL_Driver/Src/stm32l0xx_hal_pwr.c ****   if((sConfigPVD->Mode & PVD_MODE_IT) == PVD_MODE_IT)
 215              		.loc 1 372 0
 216 004c 7B68     		ldr	r3, [r7, #4]
 217 004e 5A68     		ldr	r2, [r3, #4]
 218 0050 8023     		movs	r3, #128
 219 0052 5B02     		lsls	r3, r3, #9
 220 0054 1340     		ands	r3, r2
 221 0056 06D0     		beq	.L11
 373:Drivers/STM32L0xx_HAL_Driver/Src/stm32l0xx_hal_pwr.c ****   {
 374:Drivers/STM32L0xx_HAL_Driver/Src/stm32l0xx_hal_pwr.c ****     __HAL_PWR_PVD_EXTI_ENABLE_IT();
 222              		.loc 1 374 0
 223 0058 184B     		ldr	r3, .L16+4
 224 005a 184A     		ldr	r2, .L16+4
 225 005c 1268     		ldr	r2, [r2]
 226 005e 8021     		movs	r1, #128
 227 0060 4902     		lsls	r1, r1, #9
 228 0062 0A43     		orrs	r2, r1
 229 0064 1A60     		str	r2, [r3]
 230              	.L11:
 375:Drivers/STM32L0xx_HAL_Driver/Src/stm32l0xx_hal_pwr.c ****   }
 376:Drivers/STM32L0xx_HAL_Driver/Src/stm32l0xx_hal_pwr.c ****   
 377:Drivers/STM32L0xx_HAL_Driver/Src/stm32l0xx_hal_pwr.c ****   /* Configure event mode */
 378:Drivers/STM32L0xx_HAL_Driver/Src/stm32l0xx_hal_pwr.c ****   if((sConfigPVD->Mode & PVD_MODE_EVT) == PVD_MODE_EVT)
 231              		.loc 1 378 0
 232 0066 7B68     		ldr	r3, [r7, #4]
 233 0068 5A68     		ldr	r2, [r3, #4]
 234 006a 8023     		movs	r3, #128
 235 006c 9B02     		lsls	r3, r3, #10
 236 006e 1340     		ands	r3, r2
 237 0070 06D0     		beq	.L12
 379:Drivers/STM32L0xx_HAL_Driver/Src/stm32l0xx_hal_pwr.c ****   {
 380:Drivers/STM32L0xx_HAL_Driver/Src/stm32l0xx_hal_pwr.c ****     __HAL_PWR_PVD_EXTI_ENABLE_EVENT();
 238              		.loc 1 380 0
 239 0072 124B     		ldr	r3, .L16+4
 240 0074 114A     		ldr	r2, .L16+4
 241 0076 5268     		ldr	r2, [r2, #4]
 242 0078 8021     		movs	r1, #128
 243 007a 4902     		lsls	r1, r1, #9
 244 007c 0A43     		orrs	r2, r1
 245 007e 5A60     		str	r2, [r3, #4]
 246              	.L12:
 381:Drivers/STM32L0xx_HAL_Driver/Src/stm32l0xx_hal_pwr.c ****   }
 382:Drivers/STM32L0xx_HAL_Driver/Src/stm32l0xx_hal_pwr.c ****   
 383:Drivers/STM32L0xx_HAL_Driver/Src/stm32l0xx_hal_pwr.c ****   /* Configure the edge */
 384:Drivers/STM32L0xx_HAL_Driver/Src/stm32l0xx_hal_pwr.c ****   if((sConfigPVD->Mode & PVD_RISING_EDGE) == PVD_RISING_EDGE)
 247              		.loc 1 384 0
 248 0080 7B68     		ldr	r3, [r7, #4]
 249 0082 5B68     		ldr	r3, [r3, #4]
 250 0084 0122     		movs	r2, #1
ARM GAS  /tmp/ccWxDmhr.s 			page 12


 251 0086 1340     		ands	r3, r2
 252 0088 06D0     		beq	.L13
 385:Drivers/STM32L0xx_HAL_Driver/Src/stm32l0xx_hal_pwr.c ****   {
 386:Drivers/STM32L0xx_HAL_Driver/Src/stm32l0xx_hal_pwr.c ****     __HAL_PWR_PVD_EXTI_ENABLE_RISING_EDGE();
 253              		.loc 1 386 0
 254 008a 0C4B     		ldr	r3, .L16+4
 255 008c 0B4A     		ldr	r2, .L16+4
 256 008e 9268     		ldr	r2, [r2, #8]
 257 0090 8021     		movs	r1, #128
 258 0092 4902     		lsls	r1, r1, #9
 259 0094 0A43     		orrs	r2, r1
 260 0096 9A60     		str	r2, [r3, #8]
 261              	.L13:
 387:Drivers/STM32L0xx_HAL_Driver/Src/stm32l0xx_hal_pwr.c ****   }
 388:Drivers/STM32L0xx_HAL_Driver/Src/stm32l0xx_hal_pwr.c ****   
 389:Drivers/STM32L0xx_HAL_Driver/Src/stm32l0xx_hal_pwr.c ****   if((sConfigPVD->Mode & PVD_FALLING_EDGE) == PVD_FALLING_EDGE)
 262              		.loc 1 389 0
 263 0098 7B68     		ldr	r3, [r7, #4]
 264 009a 5B68     		ldr	r3, [r3, #4]
 265 009c 0222     		movs	r2, #2
 266 009e 1340     		ands	r3, r2
 267 00a0 06D0     		beq	.L15
 390:Drivers/STM32L0xx_HAL_Driver/Src/stm32l0xx_hal_pwr.c ****   {
 391:Drivers/STM32L0xx_HAL_Driver/Src/stm32l0xx_hal_pwr.c ****     __HAL_PWR_PVD_EXTI_ENABLE_FALLING_EDGE();
 268              		.loc 1 391 0
 269 00a2 064B     		ldr	r3, .L16+4
 270 00a4 054A     		ldr	r2, .L16+4
 271 00a6 D268     		ldr	r2, [r2, #12]
 272 00a8 8021     		movs	r1, #128
 273 00aa 4902     		lsls	r1, r1, #9
 274 00ac 0A43     		orrs	r2, r1
 275 00ae DA60     		str	r2, [r3, #12]
 276              	.L15:
 392:Drivers/STM32L0xx_HAL_Driver/Src/stm32l0xx_hal_pwr.c ****   }
 393:Drivers/STM32L0xx_HAL_Driver/Src/stm32l0xx_hal_pwr.c **** }
 277              		.loc 1 393 0
 278 00b0 C046     		nop
 279 00b2 BD46     		mov	sp, r7
 280 00b4 02B0     		add	sp, sp, #8
 281              		@ sp needed
 282 00b6 80BD     		pop	{r7, pc}
 283              	.L17:
 284              		.align	2
 285              	.L16:
 286 00b8 00700040 		.word	1073770496
 287 00bc 00040140 		.word	1073808384
 288 00c0 FFFFFEFF 		.word	-65537
 289              		.cfi_endproc
 290              	.LFE37:
 292              		.section	.text.HAL_PWR_EnablePVD,"ax",%progbits
 293              		.align	1
 294              		.global	HAL_PWR_EnablePVD
 295              		.syntax unified
 296              		.code	16
 297              		.thumb_func
 298              		.fpu softvfp
 300              	HAL_PWR_EnablePVD:
ARM GAS  /tmp/ccWxDmhr.s 			page 13


 301              	.LFB38:
 394:Drivers/STM32L0xx_HAL_Driver/Src/stm32l0xx_hal_pwr.c **** 
 395:Drivers/STM32L0xx_HAL_Driver/Src/stm32l0xx_hal_pwr.c **** /**
 396:Drivers/STM32L0xx_HAL_Driver/Src/stm32l0xx_hal_pwr.c ****   * @brief Enables the Power Voltage Detector(PVD).
 397:Drivers/STM32L0xx_HAL_Driver/Src/stm32l0xx_hal_pwr.c ****   * @retval None
 398:Drivers/STM32L0xx_HAL_Driver/Src/stm32l0xx_hal_pwr.c ****   */
 399:Drivers/STM32L0xx_HAL_Driver/Src/stm32l0xx_hal_pwr.c **** void HAL_PWR_EnablePVD(void)
 400:Drivers/STM32L0xx_HAL_Driver/Src/stm32l0xx_hal_pwr.c **** {
 302              		.loc 1 400 0
 303              		.cfi_startproc
 304              		@ args = 0, pretend = 0, frame = 0
 305              		@ frame_needed = 1, uses_anonymous_args = 0
 306 0000 80B5     		push	{r7, lr}
 307              	.LCFI9:
 308              		.cfi_def_cfa_offset 8
 309              		.cfi_offset 7, -8
 310              		.cfi_offset 14, -4
 311 0002 00AF     		add	r7, sp, #0
 312              	.LCFI10:
 313              		.cfi_def_cfa_register 7
 401:Drivers/STM32L0xx_HAL_Driver/Src/stm32l0xx_hal_pwr.c ****   /* Enable the power voltage detector */
 402:Drivers/STM32L0xx_HAL_Driver/Src/stm32l0xx_hal_pwr.c ****   SET_BIT(PWR->CR, PWR_CR_PVDE);
 314              		.loc 1 402 0
 315 0004 044B     		ldr	r3, .L19
 316 0006 044A     		ldr	r2, .L19
 317 0008 1268     		ldr	r2, [r2]
 318 000a 1021     		movs	r1, #16
 319 000c 0A43     		orrs	r2, r1
 320 000e 1A60     		str	r2, [r3]
 403:Drivers/STM32L0xx_HAL_Driver/Src/stm32l0xx_hal_pwr.c **** }
 321              		.loc 1 403 0
 322 0010 C046     		nop
 323 0012 BD46     		mov	sp, r7
 324              		@ sp needed
 325 0014 80BD     		pop	{r7, pc}
 326              	.L20:
 327 0016 C046     		.align	2
 328              	.L19:
 329 0018 00700040 		.word	1073770496
 330              		.cfi_endproc
 331              	.LFE38:
 333              		.section	.text.HAL_PWR_DisablePVD,"ax",%progbits
 334              		.align	1
 335              		.global	HAL_PWR_DisablePVD
 336              		.syntax unified
 337              		.code	16
 338              		.thumb_func
 339              		.fpu softvfp
 341              	HAL_PWR_DisablePVD:
 342              	.LFB39:
 404:Drivers/STM32L0xx_HAL_Driver/Src/stm32l0xx_hal_pwr.c **** 
 405:Drivers/STM32L0xx_HAL_Driver/Src/stm32l0xx_hal_pwr.c **** /**
 406:Drivers/STM32L0xx_HAL_Driver/Src/stm32l0xx_hal_pwr.c ****   * @brief Disables the Power Voltage Detector(PVD).
 407:Drivers/STM32L0xx_HAL_Driver/Src/stm32l0xx_hal_pwr.c ****   * @retval None
 408:Drivers/STM32L0xx_HAL_Driver/Src/stm32l0xx_hal_pwr.c ****   */
 409:Drivers/STM32L0xx_HAL_Driver/Src/stm32l0xx_hal_pwr.c **** void HAL_PWR_DisablePVD(void)
 410:Drivers/STM32L0xx_HAL_Driver/Src/stm32l0xx_hal_pwr.c **** {
ARM GAS  /tmp/ccWxDmhr.s 			page 14


 343              		.loc 1 410 0
 344              		.cfi_startproc
 345              		@ args = 0, pretend = 0, frame = 0
 346              		@ frame_needed = 1, uses_anonymous_args = 0
 347 0000 80B5     		push	{r7, lr}
 348              	.LCFI11:
 349              		.cfi_def_cfa_offset 8
 350              		.cfi_offset 7, -8
 351              		.cfi_offset 14, -4
 352 0002 00AF     		add	r7, sp, #0
 353              	.LCFI12:
 354              		.cfi_def_cfa_register 7
 411:Drivers/STM32L0xx_HAL_Driver/Src/stm32l0xx_hal_pwr.c ****   /* Disable the power voltage detector */
 412:Drivers/STM32L0xx_HAL_Driver/Src/stm32l0xx_hal_pwr.c ****   CLEAR_BIT(PWR->CR, PWR_CR_PVDE);
 355              		.loc 1 412 0
 356 0004 044B     		ldr	r3, .L22
 357 0006 044A     		ldr	r2, .L22
 358 0008 1268     		ldr	r2, [r2]
 359 000a 1021     		movs	r1, #16
 360 000c 8A43     		bics	r2, r1
 361 000e 1A60     		str	r2, [r3]
 413:Drivers/STM32L0xx_HAL_Driver/Src/stm32l0xx_hal_pwr.c **** }
 362              		.loc 1 413 0
 363 0010 C046     		nop
 364 0012 BD46     		mov	sp, r7
 365              		@ sp needed
 366 0014 80BD     		pop	{r7, pc}
 367              	.L23:
 368 0016 C046     		.align	2
 369              	.L22:
 370 0018 00700040 		.word	1073770496
 371              		.cfi_endproc
 372              	.LFE39:
 374              		.section	.text.HAL_PWR_EnableWakeUpPin,"ax",%progbits
 375              		.align	1
 376              		.global	HAL_PWR_EnableWakeUpPin
 377              		.syntax unified
 378              		.code	16
 379              		.thumb_func
 380              		.fpu softvfp
 382              	HAL_PWR_EnableWakeUpPin:
 383              	.LFB40:
 414:Drivers/STM32L0xx_HAL_Driver/Src/stm32l0xx_hal_pwr.c **** #endif /* PWR_PVD_SUPPORT */
 415:Drivers/STM32L0xx_HAL_Driver/Src/stm32l0xx_hal_pwr.c **** 
 416:Drivers/STM32L0xx_HAL_Driver/Src/stm32l0xx_hal_pwr.c **** /**
 417:Drivers/STM32L0xx_HAL_Driver/Src/stm32l0xx_hal_pwr.c ****   * @brief Enables the WakeUp PINx functionality.
 418:Drivers/STM32L0xx_HAL_Driver/Src/stm32l0xx_hal_pwr.c ****   * @param WakeUpPinx: Specifies the Power Wake-Up pin to enable.
 419:Drivers/STM32L0xx_HAL_Driver/Src/stm32l0xx_hal_pwr.c ****   *         This parameter can be one of the following values:
 420:Drivers/STM32L0xx_HAL_Driver/Src/stm32l0xx_hal_pwr.c ****   *           @arg PWR_WAKEUP_PIN1
 421:Drivers/STM32L0xx_HAL_Driver/Src/stm32l0xx_hal_pwr.c ****   *           @arg PWR_WAKEUP_PIN2
 422:Drivers/STM32L0xx_HAL_Driver/Src/stm32l0xx_hal_pwr.c ****   *           @arg PWR_WAKEUP_PIN3 for stm32l07xxx and stm32l08xxx devices only.
 423:Drivers/STM32L0xx_HAL_Driver/Src/stm32l0xx_hal_pwr.c ****   * @retval None
 424:Drivers/STM32L0xx_HAL_Driver/Src/stm32l0xx_hal_pwr.c ****   */
 425:Drivers/STM32L0xx_HAL_Driver/Src/stm32l0xx_hal_pwr.c **** void HAL_PWR_EnableWakeUpPin(uint32_t WakeUpPinx)
 426:Drivers/STM32L0xx_HAL_Driver/Src/stm32l0xx_hal_pwr.c **** {
 384              		.loc 1 426 0
 385              		.cfi_startproc
ARM GAS  /tmp/ccWxDmhr.s 			page 15


 386              		@ args = 0, pretend = 0, frame = 8
 387              		@ frame_needed = 1, uses_anonymous_args = 0
 388 0000 80B5     		push	{r7, lr}
 389              	.LCFI13:
 390              		.cfi_def_cfa_offset 8
 391              		.cfi_offset 7, -8
 392              		.cfi_offset 14, -4
 393 0002 82B0     		sub	sp, sp, #8
 394              	.LCFI14:
 395              		.cfi_def_cfa_offset 16
 396 0004 00AF     		add	r7, sp, #0
 397              	.LCFI15:
 398              		.cfi_def_cfa_register 7
 399 0006 7860     		str	r0, [r7, #4]
 427:Drivers/STM32L0xx_HAL_Driver/Src/stm32l0xx_hal_pwr.c ****   /* Check the parameter */
 428:Drivers/STM32L0xx_HAL_Driver/Src/stm32l0xx_hal_pwr.c ****   assert_param(IS_PWR_WAKEUP_PIN(WakeUpPinx));
 429:Drivers/STM32L0xx_HAL_Driver/Src/stm32l0xx_hal_pwr.c ****   /* Enable the EWUPx pin */
 430:Drivers/STM32L0xx_HAL_Driver/Src/stm32l0xx_hal_pwr.c ****   SET_BIT(PWR->CSR, WakeUpPinx);
 400              		.loc 1 430 0
 401 0008 044B     		ldr	r3, .L25
 402 000a 044A     		ldr	r2, .L25
 403 000c 5168     		ldr	r1, [r2, #4]
 404 000e 7A68     		ldr	r2, [r7, #4]
 405 0010 0A43     		orrs	r2, r1
 406 0012 5A60     		str	r2, [r3, #4]
 431:Drivers/STM32L0xx_HAL_Driver/Src/stm32l0xx_hal_pwr.c **** }
 407              		.loc 1 431 0
 408 0014 C046     		nop
 409 0016 BD46     		mov	sp, r7
 410 0018 02B0     		add	sp, sp, #8
 411              		@ sp needed
 412 001a 80BD     		pop	{r7, pc}
 413              	.L26:
 414              		.align	2
 415              	.L25:
 416 001c 00700040 		.word	1073770496
 417              		.cfi_endproc
 418              	.LFE40:
 420              		.section	.text.HAL_PWR_DisableWakeUpPin,"ax",%progbits
 421              		.align	1
 422              		.global	HAL_PWR_DisableWakeUpPin
 423              		.syntax unified
 424              		.code	16
 425              		.thumb_func
 426              		.fpu softvfp
 428              	HAL_PWR_DisableWakeUpPin:
 429              	.LFB41:
 432:Drivers/STM32L0xx_HAL_Driver/Src/stm32l0xx_hal_pwr.c **** 
 433:Drivers/STM32L0xx_HAL_Driver/Src/stm32l0xx_hal_pwr.c **** /**
 434:Drivers/STM32L0xx_HAL_Driver/Src/stm32l0xx_hal_pwr.c ****   * @brief Disables the WakeUp PINx functionality.
 435:Drivers/STM32L0xx_HAL_Driver/Src/stm32l0xx_hal_pwr.c ****   * @param WakeUpPinx: Specifies the Power Wake-Up pin to disable.
 436:Drivers/STM32L0xx_HAL_Driver/Src/stm32l0xx_hal_pwr.c ****   *         This parameter can be one of the following values:
 437:Drivers/STM32L0xx_HAL_Driver/Src/stm32l0xx_hal_pwr.c ****   *           @arg PWR_WAKEUP_PIN1
 438:Drivers/STM32L0xx_HAL_Driver/Src/stm32l0xx_hal_pwr.c ****   *           @arg PWR_WAKEUP_PIN2  
 439:Drivers/STM32L0xx_HAL_Driver/Src/stm32l0xx_hal_pwr.c ****   *           @arg PWR_WAKEUP_PIN3  for stm32l07xxx and stm32l08xxx devices only.
 440:Drivers/STM32L0xx_HAL_Driver/Src/stm32l0xx_hal_pwr.c ****   * @retval None
 441:Drivers/STM32L0xx_HAL_Driver/Src/stm32l0xx_hal_pwr.c ****   */
ARM GAS  /tmp/ccWxDmhr.s 			page 16


 442:Drivers/STM32L0xx_HAL_Driver/Src/stm32l0xx_hal_pwr.c **** void HAL_PWR_DisableWakeUpPin(uint32_t WakeUpPinx)
 443:Drivers/STM32L0xx_HAL_Driver/Src/stm32l0xx_hal_pwr.c **** {
 430              		.loc 1 443 0
 431              		.cfi_startproc
 432              		@ args = 0, pretend = 0, frame = 8
 433              		@ frame_needed = 1, uses_anonymous_args = 0
 434 0000 80B5     		push	{r7, lr}
 435              	.LCFI16:
 436              		.cfi_def_cfa_offset 8
 437              		.cfi_offset 7, -8
 438              		.cfi_offset 14, -4
 439 0002 82B0     		sub	sp, sp, #8
 440              	.LCFI17:
 441              		.cfi_def_cfa_offset 16
 442 0004 00AF     		add	r7, sp, #0
 443              	.LCFI18:
 444              		.cfi_def_cfa_register 7
 445 0006 7860     		str	r0, [r7, #4]
 444:Drivers/STM32L0xx_HAL_Driver/Src/stm32l0xx_hal_pwr.c ****   /* Check the parameter */
 445:Drivers/STM32L0xx_HAL_Driver/Src/stm32l0xx_hal_pwr.c ****   assert_param(IS_PWR_WAKEUP_PIN(WakeUpPinx));
 446:Drivers/STM32L0xx_HAL_Driver/Src/stm32l0xx_hal_pwr.c ****   /* Disable the EWUPx pin */
 447:Drivers/STM32L0xx_HAL_Driver/Src/stm32l0xx_hal_pwr.c ****   CLEAR_BIT(PWR->CSR, WakeUpPinx);
 446              		.loc 1 447 0
 447 0008 054B     		ldr	r3, .L28
 448 000a 054A     		ldr	r2, .L28
 449 000c 5268     		ldr	r2, [r2, #4]
 450 000e 7968     		ldr	r1, [r7, #4]
 451 0010 C943     		mvns	r1, r1
 452 0012 0A40     		ands	r2, r1
 453 0014 5A60     		str	r2, [r3, #4]
 448:Drivers/STM32L0xx_HAL_Driver/Src/stm32l0xx_hal_pwr.c **** }
 454              		.loc 1 448 0
 455 0016 C046     		nop
 456 0018 BD46     		mov	sp, r7
 457 001a 02B0     		add	sp, sp, #8
 458              		@ sp needed
 459 001c 80BD     		pop	{r7, pc}
 460              	.L29:
 461 001e C046     		.align	2
 462              	.L28:
 463 0020 00700040 		.word	1073770496
 464              		.cfi_endproc
 465              	.LFE41:
 467              		.section	.text.HAL_PWR_EnterSLEEPMode,"ax",%progbits
 468              		.align	1
 469              		.global	HAL_PWR_EnterSLEEPMode
 470              		.syntax unified
 471              		.code	16
 472              		.thumb_func
 473              		.fpu softvfp
 475              	HAL_PWR_EnterSLEEPMode:
 476              	.LFB42:
 449:Drivers/STM32L0xx_HAL_Driver/Src/stm32l0xx_hal_pwr.c **** 
 450:Drivers/STM32L0xx_HAL_Driver/Src/stm32l0xx_hal_pwr.c **** /**
 451:Drivers/STM32L0xx_HAL_Driver/Src/stm32l0xx_hal_pwr.c ****   * @brief Enters Sleep mode.
 452:Drivers/STM32L0xx_HAL_Driver/Src/stm32l0xx_hal_pwr.c ****   * @note In Sleep mode, all I/O pins keep the same state as in Run mode.
 453:Drivers/STM32L0xx_HAL_Driver/Src/stm32l0xx_hal_pwr.c ****   * @param Regulator: Specifies the regulator state in SLEEP mode.
ARM GAS  /tmp/ccWxDmhr.s 			page 17


 454:Drivers/STM32L0xx_HAL_Driver/Src/stm32l0xx_hal_pwr.c ****   *          This parameter can be one of the following values:
 455:Drivers/STM32L0xx_HAL_Driver/Src/stm32l0xx_hal_pwr.c ****   *            @arg PWR_MAINREGULATOR_ON: SLEEP mode with regulator ON
 456:Drivers/STM32L0xx_HAL_Driver/Src/stm32l0xx_hal_pwr.c ****   *            @arg PWR_LOWPOWERREGULATOR_ON: SLEEP mode with low power regulator ON
 457:Drivers/STM32L0xx_HAL_Driver/Src/stm32l0xx_hal_pwr.c ****   * @param SLEEPEntry: Specifies if SLEEP mode is entered with WFI or WFE instruction.
 458:Drivers/STM32L0xx_HAL_Driver/Src/stm32l0xx_hal_pwr.c ****   *           When WFI entry is used, tick interrupt have to be disabled if not desired as 
 459:Drivers/STM32L0xx_HAL_Driver/Src/stm32l0xx_hal_pwr.c ****   *           the interrupt wake up source.
 460:Drivers/STM32L0xx_HAL_Driver/Src/stm32l0xx_hal_pwr.c ****   *           This parameter can be one of the following values:
 461:Drivers/STM32L0xx_HAL_Driver/Src/stm32l0xx_hal_pwr.c ****   *            @arg PWR_SLEEPENTRY_WFI: enter SLEEP mode with WFI instruction
 462:Drivers/STM32L0xx_HAL_Driver/Src/stm32l0xx_hal_pwr.c ****   *            @arg PWR_SLEEPENTRY_WFE: enter SLEEP mode with WFE instruction
 463:Drivers/STM32L0xx_HAL_Driver/Src/stm32l0xx_hal_pwr.c ****   * @retval None
 464:Drivers/STM32L0xx_HAL_Driver/Src/stm32l0xx_hal_pwr.c ****   */
 465:Drivers/STM32L0xx_HAL_Driver/Src/stm32l0xx_hal_pwr.c **** void HAL_PWR_EnterSLEEPMode(uint32_t Regulator, uint8_t SLEEPEntry)
 466:Drivers/STM32L0xx_HAL_Driver/Src/stm32l0xx_hal_pwr.c **** {
 477              		.loc 1 466 0
 478              		.cfi_startproc
 479              		@ args = 0, pretend = 0, frame = 16
 480              		@ frame_needed = 1, uses_anonymous_args = 0
 481 0000 80B5     		push	{r7, lr}
 482              	.LCFI19:
 483              		.cfi_def_cfa_offset 8
 484              		.cfi_offset 7, -8
 485              		.cfi_offset 14, -4
 486 0002 84B0     		sub	sp, sp, #16
 487              	.LCFI20:
 488              		.cfi_def_cfa_offset 24
 489 0004 00AF     		add	r7, sp, #0
 490              	.LCFI21:
 491              		.cfi_def_cfa_register 7
 492 0006 7860     		str	r0, [r7, #4]
 493 0008 0A00     		movs	r2, r1
 494 000a FB1C     		adds	r3, r7, #3
 495 000c 1A70     		strb	r2, [r3]
 467:Drivers/STM32L0xx_HAL_Driver/Src/stm32l0xx_hal_pwr.c ****    uint32_t tmpreg = 0U;
 496              		.loc 1 467 0
 497 000e 0023     		movs	r3, #0
 498 0010 FB60     		str	r3, [r7, #12]
 468:Drivers/STM32L0xx_HAL_Driver/Src/stm32l0xx_hal_pwr.c ****   /* Check the parameters */
 469:Drivers/STM32L0xx_HAL_Driver/Src/stm32l0xx_hal_pwr.c ****   assert_param(IS_PWR_REGULATOR(Regulator));
 470:Drivers/STM32L0xx_HAL_Driver/Src/stm32l0xx_hal_pwr.c ****   assert_param(IS_PWR_SLEEP_ENTRY(SLEEPEntry));
 471:Drivers/STM32L0xx_HAL_Driver/Src/stm32l0xx_hal_pwr.c **** 
 472:Drivers/STM32L0xx_HAL_Driver/Src/stm32l0xx_hal_pwr.c ****   /* Select the regulator state in Sleep mode ---------------------------------*/
 473:Drivers/STM32L0xx_HAL_Driver/Src/stm32l0xx_hal_pwr.c ****   tmpreg = PWR->CR;
 499              		.loc 1 473 0
 500 0012 114B     		ldr	r3, .L33
 501 0014 1B68     		ldr	r3, [r3]
 502 0016 FB60     		str	r3, [r7, #12]
 474:Drivers/STM32L0xx_HAL_Driver/Src/stm32l0xx_hal_pwr.c **** 
 475:Drivers/STM32L0xx_HAL_Driver/Src/stm32l0xx_hal_pwr.c ****   /* Clear PDDS and LPDS bits */
 476:Drivers/STM32L0xx_HAL_Driver/Src/stm32l0xx_hal_pwr.c ****   CLEAR_BIT(tmpreg, (PWR_CR_PDDS | PWR_CR_LPSDSR));
 503              		.loc 1 476 0
 504 0018 FB68     		ldr	r3, [r7, #12]
 505 001a 0322     		movs	r2, #3
 506 001c 9343     		bics	r3, r2
 507 001e FB60     		str	r3, [r7, #12]
 477:Drivers/STM32L0xx_HAL_Driver/Src/stm32l0xx_hal_pwr.c **** 
 478:Drivers/STM32L0xx_HAL_Driver/Src/stm32l0xx_hal_pwr.c ****  /* Set LPSDSR bit according to PWR_Regulator value */
 479:Drivers/STM32L0xx_HAL_Driver/Src/stm32l0xx_hal_pwr.c ****   SET_BIT(tmpreg, Regulator);
ARM GAS  /tmp/ccWxDmhr.s 			page 18


 508              		.loc 1 479 0
 509 0020 FA68     		ldr	r2, [r7, #12]
 510 0022 7B68     		ldr	r3, [r7, #4]
 511 0024 1343     		orrs	r3, r2
 512 0026 FB60     		str	r3, [r7, #12]
 480:Drivers/STM32L0xx_HAL_Driver/Src/stm32l0xx_hal_pwr.c **** 
 481:Drivers/STM32L0xx_HAL_Driver/Src/stm32l0xx_hal_pwr.c ****   /* Store the new value */
 482:Drivers/STM32L0xx_HAL_Driver/Src/stm32l0xx_hal_pwr.c ****   PWR->CR = tmpreg;
 513              		.loc 1 482 0
 514 0028 0B4B     		ldr	r3, .L33
 515 002a FA68     		ldr	r2, [r7, #12]
 516 002c 1A60     		str	r2, [r3]
 483:Drivers/STM32L0xx_HAL_Driver/Src/stm32l0xx_hal_pwr.c ****   
 484:Drivers/STM32L0xx_HAL_Driver/Src/stm32l0xx_hal_pwr.c ****   /* Clear SLEEPDEEP bit of Cortex System Control Register */
 485:Drivers/STM32L0xx_HAL_Driver/Src/stm32l0xx_hal_pwr.c ****   CLEAR_BIT(SCB->SCR, SCB_SCR_SLEEPDEEP_Msk);
 517              		.loc 1 485 0
 518 002e 0B4B     		ldr	r3, .L33+4
 519 0030 0A4A     		ldr	r2, .L33+4
 520 0032 1269     		ldr	r2, [r2, #16]
 521 0034 0421     		movs	r1, #4
 522 0036 8A43     		bics	r2, r1
 523 0038 1A61     		str	r2, [r3, #16]
 486:Drivers/STM32L0xx_HAL_Driver/Src/stm32l0xx_hal_pwr.c **** 
 487:Drivers/STM32L0xx_HAL_Driver/Src/stm32l0xx_hal_pwr.c ****   /* Select SLEEP mode entry -------------------------------------------------*/
 488:Drivers/STM32L0xx_HAL_Driver/Src/stm32l0xx_hal_pwr.c ****   if(SLEEPEntry == PWR_SLEEPENTRY_WFI)
 524              		.loc 1 488 0
 525 003a FB1C     		adds	r3, r7, #3
 526 003c 1B78     		ldrb	r3, [r3]
 527 003e 012B     		cmp	r3, #1
 528 0040 01D1     		bne	.L31
 529              	.LBB22:
 530              	.LBB23:
 531              		.file 2 "Drivers/CMSIS/Include/cmsis_gcc.h"
   1:Drivers/CMSIS/Include/cmsis_gcc.h **** /**************************************************************************//**
   2:Drivers/CMSIS/Include/cmsis_gcc.h ****  * @file     cmsis_gcc.h
   3:Drivers/CMSIS/Include/cmsis_gcc.h ****  * @brief    CMSIS Cortex-M Core Function/Instruction Header File
   4:Drivers/CMSIS/Include/cmsis_gcc.h ****  * @version  V4.30
   5:Drivers/CMSIS/Include/cmsis_gcc.h ****  * @date     20. October 2015
   6:Drivers/CMSIS/Include/cmsis_gcc.h ****  ******************************************************************************/
   7:Drivers/CMSIS/Include/cmsis_gcc.h **** /* Copyright (c) 2009 - 2015 ARM LIMITED
   8:Drivers/CMSIS/Include/cmsis_gcc.h **** 
   9:Drivers/CMSIS/Include/cmsis_gcc.h ****    All rights reserved.
  10:Drivers/CMSIS/Include/cmsis_gcc.h ****    Redistribution and use in source and binary forms, with or without
  11:Drivers/CMSIS/Include/cmsis_gcc.h ****    modification, are permitted provided that the following conditions are met:
  12:Drivers/CMSIS/Include/cmsis_gcc.h ****    - Redistributions of source code must retain the above copyright
  13:Drivers/CMSIS/Include/cmsis_gcc.h ****      notice, this list of conditions and the following disclaimer.
  14:Drivers/CMSIS/Include/cmsis_gcc.h ****    - Redistributions in binary form must reproduce the above copyright
  15:Drivers/CMSIS/Include/cmsis_gcc.h ****      notice, this list of conditions and the following disclaimer in the
  16:Drivers/CMSIS/Include/cmsis_gcc.h ****      documentation and/or other materials provided with the distribution.
  17:Drivers/CMSIS/Include/cmsis_gcc.h ****    - Neither the name of ARM nor the names of its contributors may be used
  18:Drivers/CMSIS/Include/cmsis_gcc.h ****      to endorse or promote products derived from this software without
  19:Drivers/CMSIS/Include/cmsis_gcc.h ****      specific prior written permission.
  20:Drivers/CMSIS/Include/cmsis_gcc.h ****    *
  21:Drivers/CMSIS/Include/cmsis_gcc.h ****    THIS SOFTWARE IS PROVIDED BY THE COPYRIGHT HOLDERS AND CONTRIBUTORS "AS IS"
  22:Drivers/CMSIS/Include/cmsis_gcc.h ****    AND ANY EXPRESS OR IMPLIED WARRANTIES, INCLUDING, BUT NOT LIMITED TO, THE
  23:Drivers/CMSIS/Include/cmsis_gcc.h ****    IMPLIED WARRANTIES OF MERCHANTABILITY AND FITNESS FOR A PARTICULAR PURPOSE
  24:Drivers/CMSIS/Include/cmsis_gcc.h ****    ARE DISCLAIMED. IN NO EVENT SHALL COPYRIGHT HOLDERS AND CONTRIBUTORS BE
ARM GAS  /tmp/ccWxDmhr.s 			page 19


  25:Drivers/CMSIS/Include/cmsis_gcc.h ****    LIABLE FOR ANY DIRECT, INDIRECT, INCIDENTAL, SPECIAL, EXEMPLARY, OR
  26:Drivers/CMSIS/Include/cmsis_gcc.h ****    CONSEQUENTIAL DAMAGES (INCLUDING, BUT NOT LIMITED TO, PROCUREMENT OF
  27:Drivers/CMSIS/Include/cmsis_gcc.h ****    SUBSTITUTE GOODS OR SERVICES; LOSS OF USE, DATA, OR PROFITS; OR BUSINESS
  28:Drivers/CMSIS/Include/cmsis_gcc.h ****    INTERRUPTION) HOWEVER CAUSED AND ON ANY THEORY OF LIABILITY, WHETHER IN
  29:Drivers/CMSIS/Include/cmsis_gcc.h ****    CONTRACT, STRICT LIABILITY, OR TORT (INCLUDING NEGLIGENCE OR OTHERWISE)
  30:Drivers/CMSIS/Include/cmsis_gcc.h ****    ARISING IN ANY WAY OUT OF THE USE OF THIS SOFTWARE, EVEN IF ADVISED OF THE
  31:Drivers/CMSIS/Include/cmsis_gcc.h ****    POSSIBILITY OF SUCH DAMAGE.
  32:Drivers/CMSIS/Include/cmsis_gcc.h ****    ---------------------------------------------------------------------------*/
  33:Drivers/CMSIS/Include/cmsis_gcc.h **** 
  34:Drivers/CMSIS/Include/cmsis_gcc.h **** 
  35:Drivers/CMSIS/Include/cmsis_gcc.h **** #ifndef __CMSIS_GCC_H
  36:Drivers/CMSIS/Include/cmsis_gcc.h **** #define __CMSIS_GCC_H
  37:Drivers/CMSIS/Include/cmsis_gcc.h **** 
  38:Drivers/CMSIS/Include/cmsis_gcc.h **** /* ignore some GCC warnings */
  39:Drivers/CMSIS/Include/cmsis_gcc.h **** #if defined ( __GNUC__ )
  40:Drivers/CMSIS/Include/cmsis_gcc.h **** #pragma GCC diagnostic push
  41:Drivers/CMSIS/Include/cmsis_gcc.h **** #pragma GCC diagnostic ignored "-Wsign-conversion"
  42:Drivers/CMSIS/Include/cmsis_gcc.h **** #pragma GCC diagnostic ignored "-Wconversion"
  43:Drivers/CMSIS/Include/cmsis_gcc.h **** #pragma GCC diagnostic ignored "-Wunused-parameter"
  44:Drivers/CMSIS/Include/cmsis_gcc.h **** #endif
  45:Drivers/CMSIS/Include/cmsis_gcc.h **** 
  46:Drivers/CMSIS/Include/cmsis_gcc.h **** 
  47:Drivers/CMSIS/Include/cmsis_gcc.h **** /* ###########################  Core Function Access  ########################### */
  48:Drivers/CMSIS/Include/cmsis_gcc.h **** /** \ingroup  CMSIS_Core_FunctionInterface
  49:Drivers/CMSIS/Include/cmsis_gcc.h ****     \defgroup CMSIS_Core_RegAccFunctions CMSIS Core Register Access Functions
  50:Drivers/CMSIS/Include/cmsis_gcc.h ****   @{
  51:Drivers/CMSIS/Include/cmsis_gcc.h ****  */
  52:Drivers/CMSIS/Include/cmsis_gcc.h **** 
  53:Drivers/CMSIS/Include/cmsis_gcc.h **** /**
  54:Drivers/CMSIS/Include/cmsis_gcc.h ****   \brief   Enable IRQ Interrupts
  55:Drivers/CMSIS/Include/cmsis_gcc.h ****   \details Enables IRQ interrupts by clearing the I-bit in the CPSR.
  56:Drivers/CMSIS/Include/cmsis_gcc.h ****            Can only be executed in Privileged modes.
  57:Drivers/CMSIS/Include/cmsis_gcc.h ****  */
  58:Drivers/CMSIS/Include/cmsis_gcc.h **** __attribute__( ( always_inline ) ) __STATIC_INLINE void __enable_irq(void)
  59:Drivers/CMSIS/Include/cmsis_gcc.h **** {
  60:Drivers/CMSIS/Include/cmsis_gcc.h ****   __ASM volatile ("cpsie i" : : : "memory");
  61:Drivers/CMSIS/Include/cmsis_gcc.h **** }
  62:Drivers/CMSIS/Include/cmsis_gcc.h **** 
  63:Drivers/CMSIS/Include/cmsis_gcc.h **** 
  64:Drivers/CMSIS/Include/cmsis_gcc.h **** /**
  65:Drivers/CMSIS/Include/cmsis_gcc.h ****   \brief   Disable IRQ Interrupts
  66:Drivers/CMSIS/Include/cmsis_gcc.h ****   \details Disables IRQ interrupts by setting the I-bit in the CPSR.
  67:Drivers/CMSIS/Include/cmsis_gcc.h ****   Can only be executed in Privileged modes.
  68:Drivers/CMSIS/Include/cmsis_gcc.h ****  */
  69:Drivers/CMSIS/Include/cmsis_gcc.h **** __attribute__( ( always_inline ) ) __STATIC_INLINE void __disable_irq(void)
  70:Drivers/CMSIS/Include/cmsis_gcc.h **** {
  71:Drivers/CMSIS/Include/cmsis_gcc.h ****   __ASM volatile ("cpsid i" : : : "memory");
  72:Drivers/CMSIS/Include/cmsis_gcc.h **** }
  73:Drivers/CMSIS/Include/cmsis_gcc.h **** 
  74:Drivers/CMSIS/Include/cmsis_gcc.h **** 
  75:Drivers/CMSIS/Include/cmsis_gcc.h **** /**
  76:Drivers/CMSIS/Include/cmsis_gcc.h ****   \brief   Get Control Register
  77:Drivers/CMSIS/Include/cmsis_gcc.h ****   \details Returns the content of the Control Register.
  78:Drivers/CMSIS/Include/cmsis_gcc.h ****   \return               Control Register value
  79:Drivers/CMSIS/Include/cmsis_gcc.h ****  */
  80:Drivers/CMSIS/Include/cmsis_gcc.h **** __attribute__( ( always_inline ) ) __STATIC_INLINE uint32_t __get_CONTROL(void)
  81:Drivers/CMSIS/Include/cmsis_gcc.h **** {
ARM GAS  /tmp/ccWxDmhr.s 			page 20


  82:Drivers/CMSIS/Include/cmsis_gcc.h ****   uint32_t result;
  83:Drivers/CMSIS/Include/cmsis_gcc.h **** 
  84:Drivers/CMSIS/Include/cmsis_gcc.h ****   __ASM volatile ("MRS %0, control" : "=r" (result) );
  85:Drivers/CMSIS/Include/cmsis_gcc.h ****   return(result);
  86:Drivers/CMSIS/Include/cmsis_gcc.h **** }
  87:Drivers/CMSIS/Include/cmsis_gcc.h **** 
  88:Drivers/CMSIS/Include/cmsis_gcc.h **** 
  89:Drivers/CMSIS/Include/cmsis_gcc.h **** /**
  90:Drivers/CMSIS/Include/cmsis_gcc.h ****   \brief   Set Control Register
  91:Drivers/CMSIS/Include/cmsis_gcc.h ****   \details Writes the given value to the Control Register.
  92:Drivers/CMSIS/Include/cmsis_gcc.h ****   \param [in]    control  Control Register value to set
  93:Drivers/CMSIS/Include/cmsis_gcc.h ****  */
  94:Drivers/CMSIS/Include/cmsis_gcc.h **** __attribute__( ( always_inline ) ) __STATIC_INLINE void __set_CONTROL(uint32_t control)
  95:Drivers/CMSIS/Include/cmsis_gcc.h **** {
  96:Drivers/CMSIS/Include/cmsis_gcc.h ****   __ASM volatile ("MSR control, %0" : : "r" (control) : "memory");
  97:Drivers/CMSIS/Include/cmsis_gcc.h **** }
  98:Drivers/CMSIS/Include/cmsis_gcc.h **** 
  99:Drivers/CMSIS/Include/cmsis_gcc.h **** 
 100:Drivers/CMSIS/Include/cmsis_gcc.h **** /**
 101:Drivers/CMSIS/Include/cmsis_gcc.h ****   \brief   Get IPSR Register
 102:Drivers/CMSIS/Include/cmsis_gcc.h ****   \details Returns the content of the IPSR Register.
 103:Drivers/CMSIS/Include/cmsis_gcc.h ****   \return               IPSR Register value
 104:Drivers/CMSIS/Include/cmsis_gcc.h ****  */
 105:Drivers/CMSIS/Include/cmsis_gcc.h **** __attribute__( ( always_inline ) ) __STATIC_INLINE uint32_t __get_IPSR(void)
 106:Drivers/CMSIS/Include/cmsis_gcc.h **** {
 107:Drivers/CMSIS/Include/cmsis_gcc.h ****   uint32_t result;
 108:Drivers/CMSIS/Include/cmsis_gcc.h **** 
 109:Drivers/CMSIS/Include/cmsis_gcc.h ****   __ASM volatile ("MRS %0, ipsr" : "=r" (result) );
 110:Drivers/CMSIS/Include/cmsis_gcc.h ****   return(result);
 111:Drivers/CMSIS/Include/cmsis_gcc.h **** }
 112:Drivers/CMSIS/Include/cmsis_gcc.h **** 
 113:Drivers/CMSIS/Include/cmsis_gcc.h **** 
 114:Drivers/CMSIS/Include/cmsis_gcc.h **** /**
 115:Drivers/CMSIS/Include/cmsis_gcc.h ****   \brief   Get APSR Register
 116:Drivers/CMSIS/Include/cmsis_gcc.h ****   \details Returns the content of the APSR Register.
 117:Drivers/CMSIS/Include/cmsis_gcc.h ****   \return               APSR Register value
 118:Drivers/CMSIS/Include/cmsis_gcc.h ****  */
 119:Drivers/CMSIS/Include/cmsis_gcc.h **** __attribute__( ( always_inline ) ) __STATIC_INLINE uint32_t __get_APSR(void)
 120:Drivers/CMSIS/Include/cmsis_gcc.h **** {
 121:Drivers/CMSIS/Include/cmsis_gcc.h ****   uint32_t result;
 122:Drivers/CMSIS/Include/cmsis_gcc.h **** 
 123:Drivers/CMSIS/Include/cmsis_gcc.h ****   __ASM volatile ("MRS %0, apsr" : "=r" (result) );
 124:Drivers/CMSIS/Include/cmsis_gcc.h ****   return(result);
 125:Drivers/CMSIS/Include/cmsis_gcc.h **** }
 126:Drivers/CMSIS/Include/cmsis_gcc.h **** 
 127:Drivers/CMSIS/Include/cmsis_gcc.h **** 
 128:Drivers/CMSIS/Include/cmsis_gcc.h **** /**
 129:Drivers/CMSIS/Include/cmsis_gcc.h ****   \brief   Get xPSR Register
 130:Drivers/CMSIS/Include/cmsis_gcc.h ****   \details Returns the content of the xPSR Register.
 131:Drivers/CMSIS/Include/cmsis_gcc.h **** 
 132:Drivers/CMSIS/Include/cmsis_gcc.h ****     \return               xPSR Register value
 133:Drivers/CMSIS/Include/cmsis_gcc.h ****  */
 134:Drivers/CMSIS/Include/cmsis_gcc.h **** __attribute__( ( always_inline ) ) __STATIC_INLINE uint32_t __get_xPSR(void)
 135:Drivers/CMSIS/Include/cmsis_gcc.h **** {
 136:Drivers/CMSIS/Include/cmsis_gcc.h ****   uint32_t result;
 137:Drivers/CMSIS/Include/cmsis_gcc.h **** 
 138:Drivers/CMSIS/Include/cmsis_gcc.h ****   __ASM volatile ("MRS %0, xpsr" : "=r" (result) );
ARM GAS  /tmp/ccWxDmhr.s 			page 21


 139:Drivers/CMSIS/Include/cmsis_gcc.h ****   return(result);
 140:Drivers/CMSIS/Include/cmsis_gcc.h **** }
 141:Drivers/CMSIS/Include/cmsis_gcc.h **** 
 142:Drivers/CMSIS/Include/cmsis_gcc.h **** 
 143:Drivers/CMSIS/Include/cmsis_gcc.h **** /**
 144:Drivers/CMSIS/Include/cmsis_gcc.h ****   \brief   Get Process Stack Pointer
 145:Drivers/CMSIS/Include/cmsis_gcc.h ****   \details Returns the current value of the Process Stack Pointer (PSP).
 146:Drivers/CMSIS/Include/cmsis_gcc.h ****   \return               PSP Register value
 147:Drivers/CMSIS/Include/cmsis_gcc.h ****  */
 148:Drivers/CMSIS/Include/cmsis_gcc.h **** __attribute__( ( always_inline ) ) __STATIC_INLINE uint32_t __get_PSP(void)
 149:Drivers/CMSIS/Include/cmsis_gcc.h **** {
 150:Drivers/CMSIS/Include/cmsis_gcc.h ****   register uint32_t result;
 151:Drivers/CMSIS/Include/cmsis_gcc.h **** 
 152:Drivers/CMSIS/Include/cmsis_gcc.h ****   __ASM volatile ("MRS %0, psp\n"  : "=r" (result) );
 153:Drivers/CMSIS/Include/cmsis_gcc.h ****   return(result);
 154:Drivers/CMSIS/Include/cmsis_gcc.h **** }
 155:Drivers/CMSIS/Include/cmsis_gcc.h **** 
 156:Drivers/CMSIS/Include/cmsis_gcc.h **** 
 157:Drivers/CMSIS/Include/cmsis_gcc.h **** /**
 158:Drivers/CMSIS/Include/cmsis_gcc.h ****   \brief   Set Process Stack Pointer
 159:Drivers/CMSIS/Include/cmsis_gcc.h ****   \details Assigns the given value to the Process Stack Pointer (PSP).
 160:Drivers/CMSIS/Include/cmsis_gcc.h ****   \param [in]    topOfProcStack  Process Stack Pointer value to set
 161:Drivers/CMSIS/Include/cmsis_gcc.h ****  */
 162:Drivers/CMSIS/Include/cmsis_gcc.h **** __attribute__( ( always_inline ) ) __STATIC_INLINE void __set_PSP(uint32_t topOfProcStack)
 163:Drivers/CMSIS/Include/cmsis_gcc.h **** {
 164:Drivers/CMSIS/Include/cmsis_gcc.h ****   __ASM volatile ("MSR psp, %0\n" : : "r" (topOfProcStack) : "sp");
 165:Drivers/CMSIS/Include/cmsis_gcc.h **** }
 166:Drivers/CMSIS/Include/cmsis_gcc.h **** 
 167:Drivers/CMSIS/Include/cmsis_gcc.h **** 
 168:Drivers/CMSIS/Include/cmsis_gcc.h **** /**
 169:Drivers/CMSIS/Include/cmsis_gcc.h ****   \brief   Get Main Stack Pointer
 170:Drivers/CMSIS/Include/cmsis_gcc.h ****   \details Returns the current value of the Main Stack Pointer (MSP).
 171:Drivers/CMSIS/Include/cmsis_gcc.h ****   \return               MSP Register value
 172:Drivers/CMSIS/Include/cmsis_gcc.h ****  */
 173:Drivers/CMSIS/Include/cmsis_gcc.h **** __attribute__( ( always_inline ) ) __STATIC_INLINE uint32_t __get_MSP(void)
 174:Drivers/CMSIS/Include/cmsis_gcc.h **** {
 175:Drivers/CMSIS/Include/cmsis_gcc.h ****   register uint32_t result;
 176:Drivers/CMSIS/Include/cmsis_gcc.h **** 
 177:Drivers/CMSIS/Include/cmsis_gcc.h ****   __ASM volatile ("MRS %0, msp\n" : "=r" (result) );
 178:Drivers/CMSIS/Include/cmsis_gcc.h ****   return(result);
 179:Drivers/CMSIS/Include/cmsis_gcc.h **** }
 180:Drivers/CMSIS/Include/cmsis_gcc.h **** 
 181:Drivers/CMSIS/Include/cmsis_gcc.h **** 
 182:Drivers/CMSIS/Include/cmsis_gcc.h **** /**
 183:Drivers/CMSIS/Include/cmsis_gcc.h ****   \brief   Set Main Stack Pointer
 184:Drivers/CMSIS/Include/cmsis_gcc.h ****   \details Assigns the given value to the Main Stack Pointer (MSP).
 185:Drivers/CMSIS/Include/cmsis_gcc.h **** 
 186:Drivers/CMSIS/Include/cmsis_gcc.h ****     \param [in]    topOfMainStack  Main Stack Pointer value to set
 187:Drivers/CMSIS/Include/cmsis_gcc.h ****  */
 188:Drivers/CMSIS/Include/cmsis_gcc.h **** __attribute__( ( always_inline ) ) __STATIC_INLINE void __set_MSP(uint32_t topOfMainStack)
 189:Drivers/CMSIS/Include/cmsis_gcc.h **** {
 190:Drivers/CMSIS/Include/cmsis_gcc.h ****   __ASM volatile ("MSR msp, %0\n" : : "r" (topOfMainStack) : "sp");
 191:Drivers/CMSIS/Include/cmsis_gcc.h **** }
 192:Drivers/CMSIS/Include/cmsis_gcc.h **** 
 193:Drivers/CMSIS/Include/cmsis_gcc.h **** 
 194:Drivers/CMSIS/Include/cmsis_gcc.h **** /**
 195:Drivers/CMSIS/Include/cmsis_gcc.h ****   \brief   Get Priority Mask
ARM GAS  /tmp/ccWxDmhr.s 			page 22


 196:Drivers/CMSIS/Include/cmsis_gcc.h ****   \details Returns the current state of the priority mask bit from the Priority Mask Register.
 197:Drivers/CMSIS/Include/cmsis_gcc.h ****   \return               Priority Mask value
 198:Drivers/CMSIS/Include/cmsis_gcc.h ****  */
 199:Drivers/CMSIS/Include/cmsis_gcc.h **** __attribute__( ( always_inline ) ) __STATIC_INLINE uint32_t __get_PRIMASK(void)
 200:Drivers/CMSIS/Include/cmsis_gcc.h **** {
 201:Drivers/CMSIS/Include/cmsis_gcc.h ****   uint32_t result;
 202:Drivers/CMSIS/Include/cmsis_gcc.h **** 
 203:Drivers/CMSIS/Include/cmsis_gcc.h ****   __ASM volatile ("MRS %0, primask" : "=r" (result) );
 204:Drivers/CMSIS/Include/cmsis_gcc.h ****   return(result);
 205:Drivers/CMSIS/Include/cmsis_gcc.h **** }
 206:Drivers/CMSIS/Include/cmsis_gcc.h **** 
 207:Drivers/CMSIS/Include/cmsis_gcc.h **** 
 208:Drivers/CMSIS/Include/cmsis_gcc.h **** /**
 209:Drivers/CMSIS/Include/cmsis_gcc.h ****   \brief   Set Priority Mask
 210:Drivers/CMSIS/Include/cmsis_gcc.h ****   \details Assigns the given value to the Priority Mask Register.
 211:Drivers/CMSIS/Include/cmsis_gcc.h ****   \param [in]    priMask  Priority Mask
 212:Drivers/CMSIS/Include/cmsis_gcc.h ****  */
 213:Drivers/CMSIS/Include/cmsis_gcc.h **** __attribute__( ( always_inline ) ) __STATIC_INLINE void __set_PRIMASK(uint32_t priMask)
 214:Drivers/CMSIS/Include/cmsis_gcc.h **** {
 215:Drivers/CMSIS/Include/cmsis_gcc.h ****   __ASM volatile ("MSR primask, %0" : : "r" (priMask) : "memory");
 216:Drivers/CMSIS/Include/cmsis_gcc.h **** }
 217:Drivers/CMSIS/Include/cmsis_gcc.h **** 
 218:Drivers/CMSIS/Include/cmsis_gcc.h **** 
 219:Drivers/CMSIS/Include/cmsis_gcc.h **** #if       (__CORTEX_M >= 0x03U)
 220:Drivers/CMSIS/Include/cmsis_gcc.h **** 
 221:Drivers/CMSIS/Include/cmsis_gcc.h **** /**
 222:Drivers/CMSIS/Include/cmsis_gcc.h ****   \brief   Enable FIQ
 223:Drivers/CMSIS/Include/cmsis_gcc.h ****   \details Enables FIQ interrupts by clearing the F-bit in the CPSR.
 224:Drivers/CMSIS/Include/cmsis_gcc.h ****            Can only be executed in Privileged modes.
 225:Drivers/CMSIS/Include/cmsis_gcc.h ****  */
 226:Drivers/CMSIS/Include/cmsis_gcc.h **** __attribute__( ( always_inline ) ) __STATIC_INLINE void __enable_fault_irq(void)
 227:Drivers/CMSIS/Include/cmsis_gcc.h **** {
 228:Drivers/CMSIS/Include/cmsis_gcc.h ****   __ASM volatile ("cpsie f" : : : "memory");
 229:Drivers/CMSIS/Include/cmsis_gcc.h **** }
 230:Drivers/CMSIS/Include/cmsis_gcc.h **** 
 231:Drivers/CMSIS/Include/cmsis_gcc.h **** 
 232:Drivers/CMSIS/Include/cmsis_gcc.h **** /**
 233:Drivers/CMSIS/Include/cmsis_gcc.h ****   \brief   Disable FIQ
 234:Drivers/CMSIS/Include/cmsis_gcc.h ****   \details Disables FIQ interrupts by setting the F-bit in the CPSR.
 235:Drivers/CMSIS/Include/cmsis_gcc.h ****            Can only be executed in Privileged modes.
 236:Drivers/CMSIS/Include/cmsis_gcc.h ****  */
 237:Drivers/CMSIS/Include/cmsis_gcc.h **** __attribute__( ( always_inline ) ) __STATIC_INLINE void __disable_fault_irq(void)
 238:Drivers/CMSIS/Include/cmsis_gcc.h **** {
 239:Drivers/CMSIS/Include/cmsis_gcc.h ****   __ASM volatile ("cpsid f" : : : "memory");
 240:Drivers/CMSIS/Include/cmsis_gcc.h **** }
 241:Drivers/CMSIS/Include/cmsis_gcc.h **** 
 242:Drivers/CMSIS/Include/cmsis_gcc.h **** 
 243:Drivers/CMSIS/Include/cmsis_gcc.h **** /**
 244:Drivers/CMSIS/Include/cmsis_gcc.h ****   \brief   Get Base Priority
 245:Drivers/CMSIS/Include/cmsis_gcc.h ****   \details Returns the current value of the Base Priority register.
 246:Drivers/CMSIS/Include/cmsis_gcc.h ****   \return               Base Priority register value
 247:Drivers/CMSIS/Include/cmsis_gcc.h ****  */
 248:Drivers/CMSIS/Include/cmsis_gcc.h **** __attribute__( ( always_inline ) ) __STATIC_INLINE uint32_t __get_BASEPRI(void)
 249:Drivers/CMSIS/Include/cmsis_gcc.h **** {
 250:Drivers/CMSIS/Include/cmsis_gcc.h ****   uint32_t result;
 251:Drivers/CMSIS/Include/cmsis_gcc.h **** 
 252:Drivers/CMSIS/Include/cmsis_gcc.h ****   __ASM volatile ("MRS %0, basepri" : "=r" (result) );
ARM GAS  /tmp/ccWxDmhr.s 			page 23


 253:Drivers/CMSIS/Include/cmsis_gcc.h ****   return(result);
 254:Drivers/CMSIS/Include/cmsis_gcc.h **** }
 255:Drivers/CMSIS/Include/cmsis_gcc.h **** 
 256:Drivers/CMSIS/Include/cmsis_gcc.h **** 
 257:Drivers/CMSIS/Include/cmsis_gcc.h **** /**
 258:Drivers/CMSIS/Include/cmsis_gcc.h ****   \brief   Set Base Priority
 259:Drivers/CMSIS/Include/cmsis_gcc.h ****   \details Assigns the given value to the Base Priority register.
 260:Drivers/CMSIS/Include/cmsis_gcc.h ****   \param [in]    basePri  Base Priority value to set
 261:Drivers/CMSIS/Include/cmsis_gcc.h ****  */
 262:Drivers/CMSIS/Include/cmsis_gcc.h **** __attribute__( ( always_inline ) ) __STATIC_INLINE void __set_BASEPRI(uint32_t value)
 263:Drivers/CMSIS/Include/cmsis_gcc.h **** {
 264:Drivers/CMSIS/Include/cmsis_gcc.h ****   __ASM volatile ("MSR basepri, %0" : : "r" (value) : "memory");
 265:Drivers/CMSIS/Include/cmsis_gcc.h **** }
 266:Drivers/CMSIS/Include/cmsis_gcc.h **** 
 267:Drivers/CMSIS/Include/cmsis_gcc.h **** 
 268:Drivers/CMSIS/Include/cmsis_gcc.h **** /**
 269:Drivers/CMSIS/Include/cmsis_gcc.h ****   \brief   Set Base Priority with condition
 270:Drivers/CMSIS/Include/cmsis_gcc.h ****   \details Assigns the given value to the Base Priority register only if BASEPRI masking is disable
 271:Drivers/CMSIS/Include/cmsis_gcc.h ****            or the new value increases the BASEPRI priority level.
 272:Drivers/CMSIS/Include/cmsis_gcc.h ****   \param [in]    basePri  Base Priority value to set
 273:Drivers/CMSIS/Include/cmsis_gcc.h ****  */
 274:Drivers/CMSIS/Include/cmsis_gcc.h **** __attribute__( ( always_inline ) ) __STATIC_INLINE void __set_BASEPRI_MAX(uint32_t value)
 275:Drivers/CMSIS/Include/cmsis_gcc.h **** {
 276:Drivers/CMSIS/Include/cmsis_gcc.h ****   __ASM volatile ("MSR basepri_max, %0" : : "r" (value) : "memory");
 277:Drivers/CMSIS/Include/cmsis_gcc.h **** }
 278:Drivers/CMSIS/Include/cmsis_gcc.h **** 
 279:Drivers/CMSIS/Include/cmsis_gcc.h **** 
 280:Drivers/CMSIS/Include/cmsis_gcc.h **** /**
 281:Drivers/CMSIS/Include/cmsis_gcc.h ****   \brief   Get Fault Mask
 282:Drivers/CMSIS/Include/cmsis_gcc.h ****   \details Returns the current value of the Fault Mask register.
 283:Drivers/CMSIS/Include/cmsis_gcc.h ****   \return               Fault Mask register value
 284:Drivers/CMSIS/Include/cmsis_gcc.h ****  */
 285:Drivers/CMSIS/Include/cmsis_gcc.h **** __attribute__( ( always_inline ) ) __STATIC_INLINE uint32_t __get_FAULTMASK(void)
 286:Drivers/CMSIS/Include/cmsis_gcc.h **** {
 287:Drivers/CMSIS/Include/cmsis_gcc.h ****   uint32_t result;
 288:Drivers/CMSIS/Include/cmsis_gcc.h **** 
 289:Drivers/CMSIS/Include/cmsis_gcc.h ****   __ASM volatile ("MRS %0, faultmask" : "=r" (result) );
 290:Drivers/CMSIS/Include/cmsis_gcc.h ****   return(result);
 291:Drivers/CMSIS/Include/cmsis_gcc.h **** }
 292:Drivers/CMSIS/Include/cmsis_gcc.h **** 
 293:Drivers/CMSIS/Include/cmsis_gcc.h **** 
 294:Drivers/CMSIS/Include/cmsis_gcc.h **** /**
 295:Drivers/CMSIS/Include/cmsis_gcc.h ****   \brief   Set Fault Mask
 296:Drivers/CMSIS/Include/cmsis_gcc.h ****   \details Assigns the given value to the Fault Mask register.
 297:Drivers/CMSIS/Include/cmsis_gcc.h ****   \param [in]    faultMask  Fault Mask value to set
 298:Drivers/CMSIS/Include/cmsis_gcc.h ****  */
 299:Drivers/CMSIS/Include/cmsis_gcc.h **** __attribute__( ( always_inline ) ) __STATIC_INLINE void __set_FAULTMASK(uint32_t faultMask)
 300:Drivers/CMSIS/Include/cmsis_gcc.h **** {
 301:Drivers/CMSIS/Include/cmsis_gcc.h ****   __ASM volatile ("MSR faultmask, %0" : : "r" (faultMask) : "memory");
 302:Drivers/CMSIS/Include/cmsis_gcc.h **** }
 303:Drivers/CMSIS/Include/cmsis_gcc.h **** 
 304:Drivers/CMSIS/Include/cmsis_gcc.h **** #endif /* (__CORTEX_M >= 0x03U) */
 305:Drivers/CMSIS/Include/cmsis_gcc.h **** 
 306:Drivers/CMSIS/Include/cmsis_gcc.h **** 
 307:Drivers/CMSIS/Include/cmsis_gcc.h **** #if       (__CORTEX_M == 0x04U) || (__CORTEX_M == 0x07U)
 308:Drivers/CMSIS/Include/cmsis_gcc.h **** 
 309:Drivers/CMSIS/Include/cmsis_gcc.h **** /**
ARM GAS  /tmp/ccWxDmhr.s 			page 24


 310:Drivers/CMSIS/Include/cmsis_gcc.h ****   \brief   Get FPSCR
 311:Drivers/CMSIS/Include/cmsis_gcc.h ****   \details Returns the current value of the Floating Point Status/Control register.
 312:Drivers/CMSIS/Include/cmsis_gcc.h ****   \return               Floating Point Status/Control register value
 313:Drivers/CMSIS/Include/cmsis_gcc.h ****  */
 314:Drivers/CMSIS/Include/cmsis_gcc.h **** __attribute__( ( always_inline ) ) __STATIC_INLINE uint32_t __get_FPSCR(void)
 315:Drivers/CMSIS/Include/cmsis_gcc.h **** {
 316:Drivers/CMSIS/Include/cmsis_gcc.h **** #if (__FPU_PRESENT == 1U) && (__FPU_USED == 1U)
 317:Drivers/CMSIS/Include/cmsis_gcc.h ****   uint32_t result;
 318:Drivers/CMSIS/Include/cmsis_gcc.h **** 
 319:Drivers/CMSIS/Include/cmsis_gcc.h ****   /* Empty asm statement works as a scheduling barrier */
 320:Drivers/CMSIS/Include/cmsis_gcc.h ****   __ASM volatile ("");
 321:Drivers/CMSIS/Include/cmsis_gcc.h ****   __ASM volatile ("VMRS %0, fpscr" : "=r" (result) );
 322:Drivers/CMSIS/Include/cmsis_gcc.h ****   __ASM volatile ("");
 323:Drivers/CMSIS/Include/cmsis_gcc.h ****   return(result);
 324:Drivers/CMSIS/Include/cmsis_gcc.h **** #else
 325:Drivers/CMSIS/Include/cmsis_gcc.h ****    return(0);
 326:Drivers/CMSIS/Include/cmsis_gcc.h **** #endif
 327:Drivers/CMSIS/Include/cmsis_gcc.h **** }
 328:Drivers/CMSIS/Include/cmsis_gcc.h **** 
 329:Drivers/CMSIS/Include/cmsis_gcc.h **** 
 330:Drivers/CMSIS/Include/cmsis_gcc.h **** /**
 331:Drivers/CMSIS/Include/cmsis_gcc.h ****   \brief   Set FPSCR
 332:Drivers/CMSIS/Include/cmsis_gcc.h ****   \details Assigns the given value to the Floating Point Status/Control register.
 333:Drivers/CMSIS/Include/cmsis_gcc.h ****   \param [in]    fpscr  Floating Point Status/Control value to set
 334:Drivers/CMSIS/Include/cmsis_gcc.h ****  */
 335:Drivers/CMSIS/Include/cmsis_gcc.h **** __attribute__( ( always_inline ) ) __STATIC_INLINE void __set_FPSCR(uint32_t fpscr)
 336:Drivers/CMSIS/Include/cmsis_gcc.h **** {
 337:Drivers/CMSIS/Include/cmsis_gcc.h **** #if (__FPU_PRESENT == 1U) && (__FPU_USED == 1U)
 338:Drivers/CMSIS/Include/cmsis_gcc.h ****   /* Empty asm statement works as a scheduling barrier */
 339:Drivers/CMSIS/Include/cmsis_gcc.h ****   __ASM volatile ("");
 340:Drivers/CMSIS/Include/cmsis_gcc.h ****   __ASM volatile ("VMSR fpscr, %0" : : "r" (fpscr) : "vfpcc");
 341:Drivers/CMSIS/Include/cmsis_gcc.h ****   __ASM volatile ("");
 342:Drivers/CMSIS/Include/cmsis_gcc.h **** #endif
 343:Drivers/CMSIS/Include/cmsis_gcc.h **** }
 344:Drivers/CMSIS/Include/cmsis_gcc.h **** 
 345:Drivers/CMSIS/Include/cmsis_gcc.h **** #endif /* (__CORTEX_M == 0x04U) || (__CORTEX_M == 0x07U) */
 346:Drivers/CMSIS/Include/cmsis_gcc.h **** 
 347:Drivers/CMSIS/Include/cmsis_gcc.h **** 
 348:Drivers/CMSIS/Include/cmsis_gcc.h **** 
 349:Drivers/CMSIS/Include/cmsis_gcc.h **** /*@} end of CMSIS_Core_RegAccFunctions */
 350:Drivers/CMSIS/Include/cmsis_gcc.h **** 
 351:Drivers/CMSIS/Include/cmsis_gcc.h **** 
 352:Drivers/CMSIS/Include/cmsis_gcc.h **** /* ##########################  Core Instruction Access  ######################### */
 353:Drivers/CMSIS/Include/cmsis_gcc.h **** /** \defgroup CMSIS_Core_InstructionInterface CMSIS Core Instruction Interface
 354:Drivers/CMSIS/Include/cmsis_gcc.h ****   Access to dedicated instructions
 355:Drivers/CMSIS/Include/cmsis_gcc.h ****   @{
 356:Drivers/CMSIS/Include/cmsis_gcc.h **** */
 357:Drivers/CMSIS/Include/cmsis_gcc.h **** 
 358:Drivers/CMSIS/Include/cmsis_gcc.h **** /* Define macros for porting to both thumb1 and thumb2.
 359:Drivers/CMSIS/Include/cmsis_gcc.h ****  * For thumb1, use low register (r0-r7), specified by constraint "l"
 360:Drivers/CMSIS/Include/cmsis_gcc.h ****  * Otherwise, use general registers, specified by constraint "r" */
 361:Drivers/CMSIS/Include/cmsis_gcc.h **** #if defined (__thumb__) && !defined (__thumb2__)
 362:Drivers/CMSIS/Include/cmsis_gcc.h **** #define __CMSIS_GCC_OUT_REG(r) "=l" (r)
 363:Drivers/CMSIS/Include/cmsis_gcc.h **** #define __CMSIS_GCC_USE_REG(r) "l" (r)
 364:Drivers/CMSIS/Include/cmsis_gcc.h **** #else
 365:Drivers/CMSIS/Include/cmsis_gcc.h **** #define __CMSIS_GCC_OUT_REG(r) "=r" (r)
 366:Drivers/CMSIS/Include/cmsis_gcc.h **** #define __CMSIS_GCC_USE_REG(r) "r" (r)
ARM GAS  /tmp/ccWxDmhr.s 			page 25


 367:Drivers/CMSIS/Include/cmsis_gcc.h **** #endif
 368:Drivers/CMSIS/Include/cmsis_gcc.h **** 
 369:Drivers/CMSIS/Include/cmsis_gcc.h **** /**
 370:Drivers/CMSIS/Include/cmsis_gcc.h ****   \brief   No Operation
 371:Drivers/CMSIS/Include/cmsis_gcc.h ****   \details No Operation does nothing. This instruction can be used for code alignment purposes.
 372:Drivers/CMSIS/Include/cmsis_gcc.h ****  */
 373:Drivers/CMSIS/Include/cmsis_gcc.h **** __attribute__((always_inline)) __STATIC_INLINE void __NOP(void)
 374:Drivers/CMSIS/Include/cmsis_gcc.h **** {
 375:Drivers/CMSIS/Include/cmsis_gcc.h ****   __ASM volatile ("nop");
 376:Drivers/CMSIS/Include/cmsis_gcc.h **** }
 377:Drivers/CMSIS/Include/cmsis_gcc.h **** 
 378:Drivers/CMSIS/Include/cmsis_gcc.h **** 
 379:Drivers/CMSIS/Include/cmsis_gcc.h **** /**
 380:Drivers/CMSIS/Include/cmsis_gcc.h ****   \brief   Wait For Interrupt
 381:Drivers/CMSIS/Include/cmsis_gcc.h ****   \details Wait For Interrupt is a hint instruction that suspends execution until one of a number o
 382:Drivers/CMSIS/Include/cmsis_gcc.h ****  */
 383:Drivers/CMSIS/Include/cmsis_gcc.h **** __attribute__((always_inline)) __STATIC_INLINE void __WFI(void)
 384:Drivers/CMSIS/Include/cmsis_gcc.h **** {
 385:Drivers/CMSIS/Include/cmsis_gcc.h ****   __ASM volatile ("wfi");
 532              		.loc 2 385 0
 533              		.syntax divided
 534              	@ 385 "Drivers/CMSIS/Include/cmsis_gcc.h" 1
 535 0042 30BF     		wfi
 536              	@ 0 "" 2
 537              		.thumb
 538              		.syntax unified
 539              	.LBE23:
 540              	.LBE22:
 541 0044 02E0     		b	.L32
 542              	.L31:
 543              	.LBB24:
 544              	.LBB25:
 386:Drivers/CMSIS/Include/cmsis_gcc.h **** }
 387:Drivers/CMSIS/Include/cmsis_gcc.h **** 
 388:Drivers/CMSIS/Include/cmsis_gcc.h **** 
 389:Drivers/CMSIS/Include/cmsis_gcc.h **** /**
 390:Drivers/CMSIS/Include/cmsis_gcc.h ****   \brief   Wait For Event
 391:Drivers/CMSIS/Include/cmsis_gcc.h ****   \details Wait For Event is a hint instruction that permits the processor to enter
 392:Drivers/CMSIS/Include/cmsis_gcc.h ****     a low-power state until one of a number of events occurs.
 393:Drivers/CMSIS/Include/cmsis_gcc.h ****  */
 394:Drivers/CMSIS/Include/cmsis_gcc.h **** __attribute__((always_inline)) __STATIC_INLINE void __WFE(void)
 395:Drivers/CMSIS/Include/cmsis_gcc.h **** {
 396:Drivers/CMSIS/Include/cmsis_gcc.h ****   __ASM volatile ("wfe");
 397:Drivers/CMSIS/Include/cmsis_gcc.h **** }
 398:Drivers/CMSIS/Include/cmsis_gcc.h **** 
 399:Drivers/CMSIS/Include/cmsis_gcc.h **** 
 400:Drivers/CMSIS/Include/cmsis_gcc.h **** /**
 401:Drivers/CMSIS/Include/cmsis_gcc.h ****   \brief   Send Event
 402:Drivers/CMSIS/Include/cmsis_gcc.h ****   \details Send Event is a hint instruction. It causes an event to be signaled to the CPU.
 403:Drivers/CMSIS/Include/cmsis_gcc.h ****  */
 404:Drivers/CMSIS/Include/cmsis_gcc.h **** __attribute__((always_inline)) __STATIC_INLINE void __SEV(void)
 405:Drivers/CMSIS/Include/cmsis_gcc.h **** {
 406:Drivers/CMSIS/Include/cmsis_gcc.h ****   __ASM volatile ("sev");
 545              		.loc 2 406 0
 546              		.syntax divided
 547              	@ 406 "Drivers/CMSIS/Include/cmsis_gcc.h" 1
 548 0046 40BF     		sev
ARM GAS  /tmp/ccWxDmhr.s 			page 26


 549              	@ 0 "" 2
 550              		.thumb
 551              		.syntax unified
 552              	.LBE25:
 553              	.LBE24:
 554              	.LBB26:
 555              	.LBB27:
 396:Drivers/CMSIS/Include/cmsis_gcc.h **** }
 556              		.loc 2 396 0
 557              		.syntax divided
 558              	@ 396 "Drivers/CMSIS/Include/cmsis_gcc.h" 1
 559 0048 20BF     		wfe
 560              	@ 0 "" 2
 561              		.thumb
 562              		.syntax unified
 563              	.LBE27:
 564              	.LBE26:
 565              	.LBB28:
 566              	.LBB29:
 567              		.syntax divided
 568              	@ 396 "Drivers/CMSIS/Include/cmsis_gcc.h" 1
 569 004a 20BF     		wfe
 570              	@ 0 "" 2
 571              		.thumb
 572              		.syntax unified
 573              	.L32:
 574              	.LBE29:
 575              	.LBE28:
 576              	.LBB30:
 577              	.LBB31:
 375:Drivers/CMSIS/Include/cmsis_gcc.h **** }
 578              		.loc 2 375 0
 579              		.syntax divided
 580              	@ 375 "Drivers/CMSIS/Include/cmsis_gcc.h" 1
 581 004c C046     		nop
 582              	@ 0 "" 2
 583              		.thumb
 584              		.syntax unified
 585              	.LBE31:
 586              	.LBE30:
 489:Drivers/STM32L0xx_HAL_Driver/Src/stm32l0xx_hal_pwr.c ****   {
 490:Drivers/STM32L0xx_HAL_Driver/Src/stm32l0xx_hal_pwr.c ****     /* Request Wait For Interrupt */
 491:Drivers/STM32L0xx_HAL_Driver/Src/stm32l0xx_hal_pwr.c ****     __WFI();
 492:Drivers/STM32L0xx_HAL_Driver/Src/stm32l0xx_hal_pwr.c ****   }
 493:Drivers/STM32L0xx_HAL_Driver/Src/stm32l0xx_hal_pwr.c ****   else
 494:Drivers/STM32L0xx_HAL_Driver/Src/stm32l0xx_hal_pwr.c ****   {
 495:Drivers/STM32L0xx_HAL_Driver/Src/stm32l0xx_hal_pwr.c ****     /* Request Wait For Event */
 496:Drivers/STM32L0xx_HAL_Driver/Src/stm32l0xx_hal_pwr.c ****     __SEV();
 497:Drivers/STM32L0xx_HAL_Driver/Src/stm32l0xx_hal_pwr.c ****     __WFE();
 498:Drivers/STM32L0xx_HAL_Driver/Src/stm32l0xx_hal_pwr.c ****     __WFE();
 499:Drivers/STM32L0xx_HAL_Driver/Src/stm32l0xx_hal_pwr.c ****   }
 500:Drivers/STM32L0xx_HAL_Driver/Src/stm32l0xx_hal_pwr.c **** 
 501:Drivers/STM32L0xx_HAL_Driver/Src/stm32l0xx_hal_pwr.c ****   /* Additional NOP to ensure all pending instructions are flushed before entering low power mode *
 502:Drivers/STM32L0xx_HAL_Driver/Src/stm32l0xx_hal_pwr.c ****   __NOP();
 503:Drivers/STM32L0xx_HAL_Driver/Src/stm32l0xx_hal_pwr.c **** 
 504:Drivers/STM32L0xx_HAL_Driver/Src/stm32l0xx_hal_pwr.c **** }
 587              		.loc 1 504 0
ARM GAS  /tmp/ccWxDmhr.s 			page 27


 588 004e C046     		nop
 589 0050 BD46     		mov	sp, r7
 590 0052 04B0     		add	sp, sp, #16
 591              		@ sp needed
 592 0054 80BD     		pop	{r7, pc}
 593              	.L34:
 594 0056 C046     		.align	2
 595              	.L33:
 596 0058 00700040 		.word	1073770496
 597 005c 00ED00E0 		.word	-536810240
 598              		.cfi_endproc
 599              	.LFE42:
 601              		.section	.text.HAL_PWR_EnterSTOPMode,"ax",%progbits
 602              		.align	1
 603              		.global	HAL_PWR_EnterSTOPMode
 604              		.syntax unified
 605              		.code	16
 606              		.thumb_func
 607              		.fpu softvfp
 609              	HAL_PWR_EnterSTOPMode:
 610              	.LFB43:
 505:Drivers/STM32L0xx_HAL_Driver/Src/stm32l0xx_hal_pwr.c **** 
 506:Drivers/STM32L0xx_HAL_Driver/Src/stm32l0xx_hal_pwr.c **** /**
 507:Drivers/STM32L0xx_HAL_Driver/Src/stm32l0xx_hal_pwr.c ****   * @brief Enters Stop mode. 
 508:Drivers/STM32L0xx_HAL_Driver/Src/stm32l0xx_hal_pwr.c ****   * @note In Stop mode, all I/O pins keep the same state as in Run mode.
 509:Drivers/STM32L0xx_HAL_Driver/Src/stm32l0xx_hal_pwr.c ****   * @note When exiting Stop mode by issuing an interrupt or a wakeup event,
 510:Drivers/STM32L0xx_HAL_Driver/Src/stm32l0xx_hal_pwr.c ****   *        MSI or HSI16 RCoscillator is selected as system clock depending 
 511:Drivers/STM32L0xx_HAL_Driver/Src/stm32l0xx_hal_pwr.c ****   *        the bit STOPWUCK in the RCC_CFGR register.
 512:Drivers/STM32L0xx_HAL_Driver/Src/stm32l0xx_hal_pwr.c ****   * @note When the voltage regulator operates in low power mode, an additional
 513:Drivers/STM32L0xx_HAL_Driver/Src/stm32l0xx_hal_pwr.c ****   *         startup delay is incurred when waking up from Stop mode. 
 514:Drivers/STM32L0xx_HAL_Driver/Src/stm32l0xx_hal_pwr.c ****   *         By keeping the internal regulator ON during Stop mode, the consumption
 515:Drivers/STM32L0xx_HAL_Driver/Src/stm32l0xx_hal_pwr.c ****   *         is higher although the startup time is reduced.
 516:Drivers/STM32L0xx_HAL_Driver/Src/stm32l0xx_hal_pwr.c ****   * @note Before entering in this function, it is important to ensure that the WUF
 517:Drivers/STM32L0xx_HAL_Driver/Src/stm32l0xx_hal_pwr.c ****   *       wakeup flag is cleared. To perform this action, it is possible to call the
 518:Drivers/STM32L0xx_HAL_Driver/Src/stm32l0xx_hal_pwr.c ****   *       following macro : __HAL_PWR_CLEAR_FLAG(PWR_FLAG_WU)
 519:Drivers/STM32L0xx_HAL_Driver/Src/stm32l0xx_hal_pwr.c ****   *
 520:Drivers/STM32L0xx_HAL_Driver/Src/stm32l0xx_hal_pwr.c ****   * @param Regulator: Specifies the regulator state in Stop mode.
 521:Drivers/STM32L0xx_HAL_Driver/Src/stm32l0xx_hal_pwr.c ****   *          This parameter can be one of the following values:
 522:Drivers/STM32L0xx_HAL_Driver/Src/stm32l0xx_hal_pwr.c ****   *            @arg PWR_MAINREGULATOR_ON: Stop mode with regulator ON
 523:Drivers/STM32L0xx_HAL_Driver/Src/stm32l0xx_hal_pwr.c ****   *            @arg PWR_LOWPOWERREGULATOR_ON: Stop mode with low power regulator ON
 524:Drivers/STM32L0xx_HAL_Driver/Src/stm32l0xx_hal_pwr.c ****   * @param STOPEntry: Specifies if Stop mode in entered with WFI or WFE instruction.
 525:Drivers/STM32L0xx_HAL_Driver/Src/stm32l0xx_hal_pwr.c ****   *          This parameter can be one of the following values:
 526:Drivers/STM32L0xx_HAL_Driver/Src/stm32l0xx_hal_pwr.c ****   *            @arg PWR_STOPENTRY_WFI: Enter Stop mode with WFI instruction
 527:Drivers/STM32L0xx_HAL_Driver/Src/stm32l0xx_hal_pwr.c ****   *            @arg PWR_STOPENTRY_WFE: Enter Stop mode with WFE instruction   
 528:Drivers/STM32L0xx_HAL_Driver/Src/stm32l0xx_hal_pwr.c ****   * @retval None
 529:Drivers/STM32L0xx_HAL_Driver/Src/stm32l0xx_hal_pwr.c ****   */
 530:Drivers/STM32L0xx_HAL_Driver/Src/stm32l0xx_hal_pwr.c **** void HAL_PWR_EnterSTOPMode(uint32_t Regulator, uint8_t STOPEntry)
 531:Drivers/STM32L0xx_HAL_Driver/Src/stm32l0xx_hal_pwr.c **** {
 611              		.loc 1 531 0
 612              		.cfi_startproc
 613              		@ args = 0, pretend = 0, frame = 16
 614              		@ frame_needed = 1, uses_anonymous_args = 0
 615 0000 80B5     		push	{r7, lr}
 616              	.LCFI22:
 617              		.cfi_def_cfa_offset 8
 618              		.cfi_offset 7, -8
 619              		.cfi_offset 14, -4
ARM GAS  /tmp/ccWxDmhr.s 			page 28


 620 0002 84B0     		sub	sp, sp, #16
 621              	.LCFI23:
 622              		.cfi_def_cfa_offset 24
 623 0004 00AF     		add	r7, sp, #0
 624              	.LCFI24:
 625              		.cfi_def_cfa_register 7
 626 0006 7860     		str	r0, [r7, #4]
 627 0008 0A00     		movs	r2, r1
 628 000a FB1C     		adds	r3, r7, #3
 629 000c 1A70     		strb	r2, [r3]
 532:Drivers/STM32L0xx_HAL_Driver/Src/stm32l0xx_hal_pwr.c ****   uint32_t tmpreg = 0U;
 630              		.loc 1 532 0
 631 000e 0023     		movs	r3, #0
 632 0010 FB60     		str	r3, [r7, #12]
 533:Drivers/STM32L0xx_HAL_Driver/Src/stm32l0xx_hal_pwr.c **** 
 534:Drivers/STM32L0xx_HAL_Driver/Src/stm32l0xx_hal_pwr.c ****   /* Check the parameters */
 535:Drivers/STM32L0xx_HAL_Driver/Src/stm32l0xx_hal_pwr.c ****   assert_param(IS_PWR_REGULATOR(Regulator));
 536:Drivers/STM32L0xx_HAL_Driver/Src/stm32l0xx_hal_pwr.c ****   assert_param(IS_PWR_STOP_ENTRY(STOPEntry));
 537:Drivers/STM32L0xx_HAL_Driver/Src/stm32l0xx_hal_pwr.c **** 
 538:Drivers/STM32L0xx_HAL_Driver/Src/stm32l0xx_hal_pwr.c ****   /* Select the regulator state in Stop mode ---------------------------------*/
 539:Drivers/STM32L0xx_HAL_Driver/Src/stm32l0xx_hal_pwr.c ****   tmpreg = PWR->CR;
 633              		.loc 1 539 0
 634 0012 134B     		ldr	r3, .L38
 635 0014 1B68     		ldr	r3, [r3]
 636 0016 FB60     		str	r3, [r7, #12]
 540:Drivers/STM32L0xx_HAL_Driver/Src/stm32l0xx_hal_pwr.c ****   
 541:Drivers/STM32L0xx_HAL_Driver/Src/stm32l0xx_hal_pwr.c ****   /* Clear PDDS and LPDS bits */
 542:Drivers/STM32L0xx_HAL_Driver/Src/stm32l0xx_hal_pwr.c ****   CLEAR_BIT(tmpreg, (PWR_CR_PDDS | PWR_CR_LPSDSR));
 637              		.loc 1 542 0
 638 0018 FB68     		ldr	r3, [r7, #12]
 639 001a 0322     		movs	r2, #3
 640 001c 9343     		bics	r3, r2
 641 001e FB60     		str	r3, [r7, #12]
 543:Drivers/STM32L0xx_HAL_Driver/Src/stm32l0xx_hal_pwr.c **** 
 544:Drivers/STM32L0xx_HAL_Driver/Src/stm32l0xx_hal_pwr.c ****  /* Set LPSDSR bit according to PWR_Regulator value */
 545:Drivers/STM32L0xx_HAL_Driver/Src/stm32l0xx_hal_pwr.c ****   SET_BIT(tmpreg, Regulator);
 642              		.loc 1 545 0
 643 0020 FA68     		ldr	r2, [r7, #12]
 644 0022 7B68     		ldr	r3, [r7, #4]
 645 0024 1343     		orrs	r3, r2
 646 0026 FB60     		str	r3, [r7, #12]
 546:Drivers/STM32L0xx_HAL_Driver/Src/stm32l0xx_hal_pwr.c **** 
 547:Drivers/STM32L0xx_HAL_Driver/Src/stm32l0xx_hal_pwr.c ****   /* Store the new value */
 548:Drivers/STM32L0xx_HAL_Driver/Src/stm32l0xx_hal_pwr.c ****   PWR->CR = tmpreg;
 647              		.loc 1 548 0
 648 0028 0D4B     		ldr	r3, .L38
 649 002a FA68     		ldr	r2, [r7, #12]
 650 002c 1A60     		str	r2, [r3]
 549:Drivers/STM32L0xx_HAL_Driver/Src/stm32l0xx_hal_pwr.c **** 
 550:Drivers/STM32L0xx_HAL_Driver/Src/stm32l0xx_hal_pwr.c ****   /* Set SLEEPDEEP bit of Cortex System Control Register */
 551:Drivers/STM32L0xx_HAL_Driver/Src/stm32l0xx_hal_pwr.c ****   SET_BIT(SCB->SCR, SCB_SCR_SLEEPDEEP_Msk);
 651              		.loc 1 551 0
 652 002e 0D4B     		ldr	r3, .L38+4
 653 0030 0C4A     		ldr	r2, .L38+4
 654 0032 1269     		ldr	r2, [r2, #16]
 655 0034 0421     		movs	r1, #4
 656 0036 0A43     		orrs	r2, r1
ARM GAS  /tmp/ccWxDmhr.s 			page 29


 657 0038 1A61     		str	r2, [r3, #16]
 552:Drivers/STM32L0xx_HAL_Driver/Src/stm32l0xx_hal_pwr.c **** 
 553:Drivers/STM32L0xx_HAL_Driver/Src/stm32l0xx_hal_pwr.c ****   /* Select Stop mode entry --------------------------------------------------*/
 554:Drivers/STM32L0xx_HAL_Driver/Src/stm32l0xx_hal_pwr.c ****   if(STOPEntry == PWR_STOPENTRY_WFI)
 658              		.loc 1 554 0
 659 003a FB1C     		adds	r3, r7, #3
 660 003c 1B78     		ldrb	r3, [r3]
 661 003e 012B     		cmp	r3, #1
 662 0040 01D1     		bne	.L36
 663              	.LBB32:
 664              	.LBB33:
 385:Drivers/CMSIS/Include/cmsis_gcc.h **** }
 665              		.loc 2 385 0
 666              		.syntax divided
 667              	@ 385 "Drivers/CMSIS/Include/cmsis_gcc.h" 1
 668 0042 30BF     		wfi
 669              	@ 0 "" 2
 670              		.thumb
 671              		.syntax unified
 672              	.LBE33:
 673              	.LBE32:
 674 0044 02E0     		b	.L37
 675              	.L36:
 676              	.LBB34:
 677              	.LBB35:
 678              		.loc 2 406 0
 679              		.syntax divided
 680              	@ 406 "Drivers/CMSIS/Include/cmsis_gcc.h" 1
 681 0046 40BF     		sev
 682              	@ 0 "" 2
 683              		.thumb
 684              		.syntax unified
 685              	.LBE35:
 686              	.LBE34:
 687              	.LBB36:
 688              	.LBB37:
 396:Drivers/CMSIS/Include/cmsis_gcc.h **** }
 689              		.loc 2 396 0
 690              		.syntax divided
 691              	@ 396 "Drivers/CMSIS/Include/cmsis_gcc.h" 1
 692 0048 20BF     		wfe
 693              	@ 0 "" 2
 694              		.thumb
 695              		.syntax unified
 696              	.LBE37:
 697              	.LBE36:
 698              	.LBB38:
 699              	.LBB39:
 700              		.syntax divided
 701              	@ 396 "Drivers/CMSIS/Include/cmsis_gcc.h" 1
 702 004a 20BF     		wfe
 703              	@ 0 "" 2
 704              		.thumb
 705              		.syntax unified
 706              	.L37:
 707              	.LBE39:
 708              	.LBE38:
ARM GAS  /tmp/ccWxDmhr.s 			page 30


 555:Drivers/STM32L0xx_HAL_Driver/Src/stm32l0xx_hal_pwr.c ****   {
 556:Drivers/STM32L0xx_HAL_Driver/Src/stm32l0xx_hal_pwr.c ****     /* Request Wait For Interrupt */
 557:Drivers/STM32L0xx_HAL_Driver/Src/stm32l0xx_hal_pwr.c ****     __WFI();
 558:Drivers/STM32L0xx_HAL_Driver/Src/stm32l0xx_hal_pwr.c ****   }
 559:Drivers/STM32L0xx_HAL_Driver/Src/stm32l0xx_hal_pwr.c ****   else
 560:Drivers/STM32L0xx_HAL_Driver/Src/stm32l0xx_hal_pwr.c ****   {
 561:Drivers/STM32L0xx_HAL_Driver/Src/stm32l0xx_hal_pwr.c ****     /* Request Wait For Event */
 562:Drivers/STM32L0xx_HAL_Driver/Src/stm32l0xx_hal_pwr.c ****     __SEV();
 563:Drivers/STM32L0xx_HAL_Driver/Src/stm32l0xx_hal_pwr.c ****     __WFE();
 564:Drivers/STM32L0xx_HAL_Driver/Src/stm32l0xx_hal_pwr.c ****     __WFE();
 565:Drivers/STM32L0xx_HAL_Driver/Src/stm32l0xx_hal_pwr.c ****   }
 566:Drivers/STM32L0xx_HAL_Driver/Src/stm32l0xx_hal_pwr.c ****  
 567:Drivers/STM32L0xx_HAL_Driver/Src/stm32l0xx_hal_pwr.c ****   /* Reset SLEEPDEEP bit of Cortex System Control Register */
 568:Drivers/STM32L0xx_HAL_Driver/Src/stm32l0xx_hal_pwr.c ****   CLEAR_BIT(SCB->SCR, SCB_SCR_SLEEPDEEP_Msk);
 709              		.loc 1 568 0
 710 004c 054B     		ldr	r3, .L38+4
 711 004e 054A     		ldr	r2, .L38+4
 712 0050 1269     		ldr	r2, [r2, #16]
 713 0052 0421     		movs	r1, #4
 714 0054 8A43     		bics	r2, r1
 715 0056 1A61     		str	r2, [r3, #16]
 569:Drivers/STM32L0xx_HAL_Driver/Src/stm32l0xx_hal_pwr.c **** 
 570:Drivers/STM32L0xx_HAL_Driver/Src/stm32l0xx_hal_pwr.c **** }
 716              		.loc 1 570 0
 717 0058 C046     		nop
 718 005a BD46     		mov	sp, r7
 719 005c 04B0     		add	sp, sp, #16
 720              		@ sp needed
 721 005e 80BD     		pop	{r7, pc}
 722              	.L39:
 723              		.align	2
 724              	.L38:
 725 0060 00700040 		.word	1073770496
 726 0064 00ED00E0 		.word	-536810240
 727              		.cfi_endproc
 728              	.LFE43:
 730              		.section	.text.HAL_PWR_EnterSTANDBYMode,"ax",%progbits
 731              		.align	1
 732              		.global	HAL_PWR_EnterSTANDBYMode
 733              		.syntax unified
 734              		.code	16
 735              		.thumb_func
 736              		.fpu softvfp
 738              	HAL_PWR_EnterSTANDBYMode:
 739              	.LFB44:
 571:Drivers/STM32L0xx_HAL_Driver/Src/stm32l0xx_hal_pwr.c **** 
 572:Drivers/STM32L0xx_HAL_Driver/Src/stm32l0xx_hal_pwr.c **** /**
 573:Drivers/STM32L0xx_HAL_Driver/Src/stm32l0xx_hal_pwr.c ****   * @brief Enters Standby mode.
 574:Drivers/STM32L0xx_HAL_Driver/Src/stm32l0xx_hal_pwr.c ****   * @note In Standby mode, all I/O pins are high impedance except for:
 575:Drivers/STM32L0xx_HAL_Driver/Src/stm32l0xx_hal_pwr.c ****   *          - Reset pad (still available) 
 576:Drivers/STM32L0xx_HAL_Driver/Src/stm32l0xx_hal_pwr.c ****   *          - RTC_AF1 pin (PC13) if configured for tamper, time-stamp, RTC
 577:Drivers/STM32L0xx_HAL_Driver/Src/stm32l0xx_hal_pwr.c ****   *            Alarm out, or RTC clock calibration out.
 578:Drivers/STM32L0xx_HAL_Driver/Src/stm32l0xx_hal_pwr.c ****   *          - RTC_AF2 pin (PC13) if configured for tamper.
 579:Drivers/STM32L0xx_HAL_Driver/Src/stm32l0xx_hal_pwr.c ****   *          - WKUP pin 1 (PA00) if enabled.
 580:Drivers/STM32L0xx_HAL_Driver/Src/stm32l0xx_hal_pwr.c ****   *          - WKUP pin 2 (PC13) if enabled.
 581:Drivers/STM32L0xx_HAL_Driver/Src/stm32l0xx_hal_pwr.c ****   *          - WKUP pin 3 (PE06) if enabled, for stm32l07xxx and stm32l08xxx devices only.
 582:Drivers/STM32L0xx_HAL_Driver/Src/stm32l0xx_hal_pwr.c ****   *          - WKUP pin 3 (PA02) if enabled, for stm32l031xx devices only.
ARM GAS  /tmp/ccWxDmhr.s 			page 31


 583:Drivers/STM32L0xx_HAL_Driver/Src/stm32l0xx_hal_pwr.c ****   * @retval None
 584:Drivers/STM32L0xx_HAL_Driver/Src/stm32l0xx_hal_pwr.c ****   */
 585:Drivers/STM32L0xx_HAL_Driver/Src/stm32l0xx_hal_pwr.c **** void HAL_PWR_EnterSTANDBYMode(void)
 586:Drivers/STM32L0xx_HAL_Driver/Src/stm32l0xx_hal_pwr.c **** {
 740              		.loc 1 586 0
 741              		.cfi_startproc
 742              		@ args = 0, pretend = 0, frame = 0
 743              		@ frame_needed = 1, uses_anonymous_args = 0
 744 0000 80B5     		push	{r7, lr}
 745              	.LCFI25:
 746              		.cfi_def_cfa_offset 8
 747              		.cfi_offset 7, -8
 748              		.cfi_offset 14, -4
 749 0002 00AF     		add	r7, sp, #0
 750              	.LCFI26:
 751              		.cfi_def_cfa_register 7
 587:Drivers/STM32L0xx_HAL_Driver/Src/stm32l0xx_hal_pwr.c ****   /* Select Standby mode */
 588:Drivers/STM32L0xx_HAL_Driver/Src/stm32l0xx_hal_pwr.c ****   SET_BIT(PWR->CR, PWR_CR_PDDS);
 752              		.loc 1 588 0
 753 0004 074B     		ldr	r3, .L41
 754 0006 074A     		ldr	r2, .L41
 755 0008 1268     		ldr	r2, [r2]
 756 000a 0221     		movs	r1, #2
 757 000c 0A43     		orrs	r2, r1
 758 000e 1A60     		str	r2, [r3]
 589:Drivers/STM32L0xx_HAL_Driver/Src/stm32l0xx_hal_pwr.c **** 
 590:Drivers/STM32L0xx_HAL_Driver/Src/stm32l0xx_hal_pwr.c ****   /* Set SLEEPDEEP bit of Cortex System Control Register */
 591:Drivers/STM32L0xx_HAL_Driver/Src/stm32l0xx_hal_pwr.c ****   SET_BIT(SCB->SCR, SCB_SCR_SLEEPDEEP_Msk);
 759              		.loc 1 591 0
 760 0010 054B     		ldr	r3, .L41+4
 761 0012 054A     		ldr	r2, .L41+4
 762 0014 1269     		ldr	r2, [r2, #16]
 763 0016 0421     		movs	r1, #4
 764 0018 0A43     		orrs	r2, r1
 765 001a 1A61     		str	r2, [r3, #16]
 766              	.LBB40:
 767              	.LBB41:
 385:Drivers/CMSIS/Include/cmsis_gcc.h **** }
 768              		.loc 2 385 0
 769              		.syntax divided
 770              	@ 385 "Drivers/CMSIS/Include/cmsis_gcc.h" 1
 771 001c 30BF     		wfi
 772              	@ 0 "" 2
 773              		.thumb
 774              		.syntax unified
 775              	.LBE41:
 776              	.LBE40:
 592:Drivers/STM32L0xx_HAL_Driver/Src/stm32l0xx_hal_pwr.c **** 
 593:Drivers/STM32L0xx_HAL_Driver/Src/stm32l0xx_hal_pwr.c ****   /* This option is used to ensure that store operations are completed */
 594:Drivers/STM32L0xx_HAL_Driver/Src/stm32l0xx_hal_pwr.c **** #if defined ( __CC_ARM)
 595:Drivers/STM32L0xx_HAL_Driver/Src/stm32l0xx_hal_pwr.c ****   __force_stores();
 596:Drivers/STM32L0xx_HAL_Driver/Src/stm32l0xx_hal_pwr.c **** #endif
 597:Drivers/STM32L0xx_HAL_Driver/Src/stm32l0xx_hal_pwr.c ****   /* Request Wait For Interrupt */
 598:Drivers/STM32L0xx_HAL_Driver/Src/stm32l0xx_hal_pwr.c ****   __WFI();
 599:Drivers/STM32L0xx_HAL_Driver/Src/stm32l0xx_hal_pwr.c **** }
 777              		.loc 1 599 0
 778 001e C046     		nop
ARM GAS  /tmp/ccWxDmhr.s 			page 32


 779 0020 BD46     		mov	sp, r7
 780              		@ sp needed
 781 0022 80BD     		pop	{r7, pc}
 782              	.L42:
 783              		.align	2
 784              	.L41:
 785 0024 00700040 		.word	1073770496
 786 0028 00ED00E0 		.word	-536810240
 787              		.cfi_endproc
 788              	.LFE44:
 790              		.section	.text.HAL_PWR_EnableSleepOnExit,"ax",%progbits
 791              		.align	1
 792              		.global	HAL_PWR_EnableSleepOnExit
 793              		.syntax unified
 794              		.code	16
 795              		.thumb_func
 796              		.fpu softvfp
 798              	HAL_PWR_EnableSleepOnExit:
 799              	.LFB45:
 600:Drivers/STM32L0xx_HAL_Driver/Src/stm32l0xx_hal_pwr.c **** 
 601:Drivers/STM32L0xx_HAL_Driver/Src/stm32l0xx_hal_pwr.c **** /**
 602:Drivers/STM32L0xx_HAL_Driver/Src/stm32l0xx_hal_pwr.c ****   * @brief Indicates Sleep-On-Exit when returning from Handler mode to Thread mode. 
 603:Drivers/STM32L0xx_HAL_Driver/Src/stm32l0xx_hal_pwr.c ****   * @note Set SLEEPONEXIT bit of SCR register. When this bit is set, the processor 
 604:Drivers/STM32L0xx_HAL_Driver/Src/stm32l0xx_hal_pwr.c ****   *       re-enters SLEEP mode when an interruption handling is over.
 605:Drivers/STM32L0xx_HAL_Driver/Src/stm32l0xx_hal_pwr.c ****   *       Setting this bit is useful when the processor is expected to run only on
 606:Drivers/STM32L0xx_HAL_Driver/Src/stm32l0xx_hal_pwr.c ****   *       interruptions handling.         
 607:Drivers/STM32L0xx_HAL_Driver/Src/stm32l0xx_hal_pwr.c ****   * @retval None
 608:Drivers/STM32L0xx_HAL_Driver/Src/stm32l0xx_hal_pwr.c ****   */
 609:Drivers/STM32L0xx_HAL_Driver/Src/stm32l0xx_hal_pwr.c **** void HAL_PWR_EnableSleepOnExit(void)
 610:Drivers/STM32L0xx_HAL_Driver/Src/stm32l0xx_hal_pwr.c **** {
 800              		.loc 1 610 0
 801              		.cfi_startproc
 802              		@ args = 0, pretend = 0, frame = 0
 803              		@ frame_needed = 1, uses_anonymous_args = 0
 804 0000 80B5     		push	{r7, lr}
 805              	.LCFI27:
 806              		.cfi_def_cfa_offset 8
 807              		.cfi_offset 7, -8
 808              		.cfi_offset 14, -4
 809 0002 00AF     		add	r7, sp, #0
 810              	.LCFI28:
 811              		.cfi_def_cfa_register 7
 611:Drivers/STM32L0xx_HAL_Driver/Src/stm32l0xx_hal_pwr.c ****   /* Set SLEEPONEXIT bit of Cortex System Control Register */
 612:Drivers/STM32L0xx_HAL_Driver/Src/stm32l0xx_hal_pwr.c ****   SET_BIT(SCB->SCR, ((uint32_t)SCB_SCR_SLEEPONEXIT_Msk));
 812              		.loc 1 612 0
 813 0004 044B     		ldr	r3, .L44
 814 0006 044A     		ldr	r2, .L44
 815 0008 1269     		ldr	r2, [r2, #16]
 816 000a 0221     		movs	r1, #2
 817 000c 0A43     		orrs	r2, r1
 818 000e 1A61     		str	r2, [r3, #16]
 613:Drivers/STM32L0xx_HAL_Driver/Src/stm32l0xx_hal_pwr.c **** }
 819              		.loc 1 613 0
 820 0010 C046     		nop
 821 0012 BD46     		mov	sp, r7
 822              		@ sp needed
 823 0014 80BD     		pop	{r7, pc}
ARM GAS  /tmp/ccWxDmhr.s 			page 33


 824              	.L45:
 825 0016 C046     		.align	2
 826              	.L44:
 827 0018 00ED00E0 		.word	-536810240
 828              		.cfi_endproc
 829              	.LFE45:
 831              		.section	.text.HAL_PWR_DisableSleepOnExit,"ax",%progbits
 832              		.align	1
 833              		.global	HAL_PWR_DisableSleepOnExit
 834              		.syntax unified
 835              		.code	16
 836              		.thumb_func
 837              		.fpu softvfp
 839              	HAL_PWR_DisableSleepOnExit:
 840              	.LFB46:
 614:Drivers/STM32L0xx_HAL_Driver/Src/stm32l0xx_hal_pwr.c **** 
 615:Drivers/STM32L0xx_HAL_Driver/Src/stm32l0xx_hal_pwr.c **** 
 616:Drivers/STM32L0xx_HAL_Driver/Src/stm32l0xx_hal_pwr.c **** /**
 617:Drivers/STM32L0xx_HAL_Driver/Src/stm32l0xx_hal_pwr.c ****   * @brief Disables Sleep-On-Exit feature when returning from Handler mode to Thread mode. 
 618:Drivers/STM32L0xx_HAL_Driver/Src/stm32l0xx_hal_pwr.c ****   * @note Clears SLEEPONEXIT bit of SCR register. When this bit is set, the processor 
 619:Drivers/STM32L0xx_HAL_Driver/Src/stm32l0xx_hal_pwr.c ****   *       re-enters SLEEP mode when an interruption handling is over.          
 620:Drivers/STM32L0xx_HAL_Driver/Src/stm32l0xx_hal_pwr.c ****   * @retval None
 621:Drivers/STM32L0xx_HAL_Driver/Src/stm32l0xx_hal_pwr.c ****   */
 622:Drivers/STM32L0xx_HAL_Driver/Src/stm32l0xx_hal_pwr.c **** void HAL_PWR_DisableSleepOnExit(void)
 623:Drivers/STM32L0xx_HAL_Driver/Src/stm32l0xx_hal_pwr.c **** {
 841              		.loc 1 623 0
 842              		.cfi_startproc
 843              		@ args = 0, pretend = 0, frame = 0
 844              		@ frame_needed = 1, uses_anonymous_args = 0
 845 0000 80B5     		push	{r7, lr}
 846              	.LCFI29:
 847              		.cfi_def_cfa_offset 8
 848              		.cfi_offset 7, -8
 849              		.cfi_offset 14, -4
 850 0002 00AF     		add	r7, sp, #0
 851              	.LCFI30:
 852              		.cfi_def_cfa_register 7
 624:Drivers/STM32L0xx_HAL_Driver/Src/stm32l0xx_hal_pwr.c ****   /* Clear SLEEPONEXIT bit of Cortex System Control Register */
 625:Drivers/STM32L0xx_HAL_Driver/Src/stm32l0xx_hal_pwr.c ****   CLEAR_BIT(SCB->SCR, ((uint32_t)SCB_SCR_SLEEPONEXIT_Msk));
 853              		.loc 1 625 0
 854 0004 044B     		ldr	r3, .L47
 855 0006 044A     		ldr	r2, .L47
 856 0008 1269     		ldr	r2, [r2, #16]
 857 000a 0221     		movs	r1, #2
 858 000c 8A43     		bics	r2, r1
 859 000e 1A61     		str	r2, [r3, #16]
 626:Drivers/STM32L0xx_HAL_Driver/Src/stm32l0xx_hal_pwr.c **** }
 860              		.loc 1 626 0
 861 0010 C046     		nop
 862 0012 BD46     		mov	sp, r7
 863              		@ sp needed
 864 0014 80BD     		pop	{r7, pc}
 865              	.L48:
 866 0016 C046     		.align	2
 867              	.L47:
 868 0018 00ED00E0 		.word	-536810240
 869              		.cfi_endproc
ARM GAS  /tmp/ccWxDmhr.s 			page 34


 870              	.LFE46:
 872              		.section	.text.HAL_PWR_EnableSEVOnPend,"ax",%progbits
 873              		.align	1
 874              		.global	HAL_PWR_EnableSEVOnPend
 875              		.syntax unified
 876              		.code	16
 877              		.thumb_func
 878              		.fpu softvfp
 880              	HAL_PWR_EnableSEVOnPend:
 881              	.LFB47:
 627:Drivers/STM32L0xx_HAL_Driver/Src/stm32l0xx_hal_pwr.c **** 
 628:Drivers/STM32L0xx_HAL_Driver/Src/stm32l0xx_hal_pwr.c **** 
 629:Drivers/STM32L0xx_HAL_Driver/Src/stm32l0xx_hal_pwr.c **** /**
 630:Drivers/STM32L0xx_HAL_Driver/Src/stm32l0xx_hal_pwr.c ****   * @brief Enables CORTEX M0+ SEVONPEND bit. 
 631:Drivers/STM32L0xx_HAL_Driver/Src/stm32l0xx_hal_pwr.c ****   * @note Sets SEVONPEND bit of SCR register. When this bit is set, this causes 
 632:Drivers/STM32L0xx_HAL_Driver/Src/stm32l0xx_hal_pwr.c ****   *       WFE to wake up when an interrupt moves from inactive to pended.
 633:Drivers/STM32L0xx_HAL_Driver/Src/stm32l0xx_hal_pwr.c ****   * @retval None
 634:Drivers/STM32L0xx_HAL_Driver/Src/stm32l0xx_hal_pwr.c ****   */
 635:Drivers/STM32L0xx_HAL_Driver/Src/stm32l0xx_hal_pwr.c **** void HAL_PWR_EnableSEVOnPend(void)
 636:Drivers/STM32L0xx_HAL_Driver/Src/stm32l0xx_hal_pwr.c **** {
 882              		.loc 1 636 0
 883              		.cfi_startproc
 884              		@ args = 0, pretend = 0, frame = 0
 885              		@ frame_needed = 1, uses_anonymous_args = 0
 886 0000 80B5     		push	{r7, lr}
 887              	.LCFI31:
 888              		.cfi_def_cfa_offset 8
 889              		.cfi_offset 7, -8
 890              		.cfi_offset 14, -4
 891 0002 00AF     		add	r7, sp, #0
 892              	.LCFI32:
 893              		.cfi_def_cfa_register 7
 637:Drivers/STM32L0xx_HAL_Driver/Src/stm32l0xx_hal_pwr.c ****   /* Set SEVONPEND bit of Cortex System Control Register */
 638:Drivers/STM32L0xx_HAL_Driver/Src/stm32l0xx_hal_pwr.c ****   SET_BIT(SCB->SCR, ((uint32_t)SCB_SCR_SEVONPEND_Msk));
 894              		.loc 1 638 0
 895 0004 044B     		ldr	r3, .L50
 896 0006 044A     		ldr	r2, .L50
 897 0008 1269     		ldr	r2, [r2, #16]
 898 000a 1021     		movs	r1, #16
 899 000c 0A43     		orrs	r2, r1
 900 000e 1A61     		str	r2, [r3, #16]
 639:Drivers/STM32L0xx_HAL_Driver/Src/stm32l0xx_hal_pwr.c **** }
 901              		.loc 1 639 0
 902 0010 C046     		nop
 903 0012 BD46     		mov	sp, r7
 904              		@ sp needed
 905 0014 80BD     		pop	{r7, pc}
 906              	.L51:
 907 0016 C046     		.align	2
 908              	.L50:
 909 0018 00ED00E0 		.word	-536810240
 910              		.cfi_endproc
 911              	.LFE47:
 913              		.section	.text.HAL_PWR_DisableSEVOnPend,"ax",%progbits
 914              		.align	1
 915              		.global	HAL_PWR_DisableSEVOnPend
 916              		.syntax unified
ARM GAS  /tmp/ccWxDmhr.s 			page 35


 917              		.code	16
 918              		.thumb_func
 919              		.fpu softvfp
 921              	HAL_PWR_DisableSEVOnPend:
 922              	.LFB48:
 640:Drivers/STM32L0xx_HAL_Driver/Src/stm32l0xx_hal_pwr.c **** 
 641:Drivers/STM32L0xx_HAL_Driver/Src/stm32l0xx_hal_pwr.c **** 
 642:Drivers/STM32L0xx_HAL_Driver/Src/stm32l0xx_hal_pwr.c **** /**
 643:Drivers/STM32L0xx_HAL_Driver/Src/stm32l0xx_hal_pwr.c ****   * @brief Disables CORTEX M0+ SEVONPEND bit. 
 644:Drivers/STM32L0xx_HAL_Driver/Src/stm32l0xx_hal_pwr.c ****   * @note Clears SEVONPEND bit of SCR register. When this bit is set, this causes 
 645:Drivers/STM32L0xx_HAL_Driver/Src/stm32l0xx_hal_pwr.c ****   *       WFE to wake up when an interrupt moves from inactive to pended.         
 646:Drivers/STM32L0xx_HAL_Driver/Src/stm32l0xx_hal_pwr.c ****   * @retval None
 647:Drivers/STM32L0xx_HAL_Driver/Src/stm32l0xx_hal_pwr.c ****   */
 648:Drivers/STM32L0xx_HAL_Driver/Src/stm32l0xx_hal_pwr.c **** void HAL_PWR_DisableSEVOnPend(void)
 649:Drivers/STM32L0xx_HAL_Driver/Src/stm32l0xx_hal_pwr.c **** {
 923              		.loc 1 649 0
 924              		.cfi_startproc
 925              		@ args = 0, pretend = 0, frame = 0
 926              		@ frame_needed = 1, uses_anonymous_args = 0
 927 0000 80B5     		push	{r7, lr}
 928              	.LCFI33:
 929              		.cfi_def_cfa_offset 8
 930              		.cfi_offset 7, -8
 931              		.cfi_offset 14, -4
 932 0002 00AF     		add	r7, sp, #0
 933              	.LCFI34:
 934              		.cfi_def_cfa_register 7
 650:Drivers/STM32L0xx_HAL_Driver/Src/stm32l0xx_hal_pwr.c ****   /* Clear SEVONPEND bit of Cortex System Control Register */
 651:Drivers/STM32L0xx_HAL_Driver/Src/stm32l0xx_hal_pwr.c ****   CLEAR_BIT(SCB->SCR, ((uint32_t)SCB_SCR_SEVONPEND_Msk));
 935              		.loc 1 651 0
 936 0004 044B     		ldr	r3, .L53
 937 0006 044A     		ldr	r2, .L53
 938 0008 1269     		ldr	r2, [r2, #16]
 939 000a 1021     		movs	r1, #16
 940 000c 8A43     		bics	r2, r1
 941 000e 1A61     		str	r2, [r3, #16]
 652:Drivers/STM32L0xx_HAL_Driver/Src/stm32l0xx_hal_pwr.c **** }
 942              		.loc 1 652 0
 943 0010 C046     		nop
 944 0012 BD46     		mov	sp, r7
 945              		@ sp needed
 946 0014 80BD     		pop	{r7, pc}
 947              	.L54:
 948 0016 C046     		.align	2
 949              	.L53:
 950 0018 00ED00E0 		.word	-536810240
 951              		.cfi_endproc
 952              	.LFE48:
 954              		.section	.text.HAL_PWR_PVD_IRQHandler,"ax",%progbits
 955              		.align	1
 956              		.global	HAL_PWR_PVD_IRQHandler
 957              		.syntax unified
 958              		.code	16
 959              		.thumb_func
 960              		.fpu softvfp
 962              	HAL_PWR_PVD_IRQHandler:
 963              	.LFB49:
ARM GAS  /tmp/ccWxDmhr.s 			page 36


 653:Drivers/STM32L0xx_HAL_Driver/Src/stm32l0xx_hal_pwr.c **** 
 654:Drivers/STM32L0xx_HAL_Driver/Src/stm32l0xx_hal_pwr.c **** #if defined(PWR_PVD_SUPPORT)
 655:Drivers/STM32L0xx_HAL_Driver/Src/stm32l0xx_hal_pwr.c **** /**
 656:Drivers/STM32L0xx_HAL_Driver/Src/stm32l0xx_hal_pwr.c ****   * @brief This function handles the PWR PVD interrupt request.
 657:Drivers/STM32L0xx_HAL_Driver/Src/stm32l0xx_hal_pwr.c ****   * @note This API should be called under the PVD_IRQHandler().
 658:Drivers/STM32L0xx_HAL_Driver/Src/stm32l0xx_hal_pwr.c ****   * @retval None
 659:Drivers/STM32L0xx_HAL_Driver/Src/stm32l0xx_hal_pwr.c ****   */
 660:Drivers/STM32L0xx_HAL_Driver/Src/stm32l0xx_hal_pwr.c **** void HAL_PWR_PVD_IRQHandler(void)
 661:Drivers/STM32L0xx_HAL_Driver/Src/stm32l0xx_hal_pwr.c **** {
 964              		.loc 1 661 0
 965              		.cfi_startproc
 966              		@ args = 0, pretend = 0, frame = 0
 967              		@ frame_needed = 1, uses_anonymous_args = 0
 968 0000 80B5     		push	{r7, lr}
 969              	.LCFI35:
 970              		.cfi_def_cfa_offset 8
 971              		.cfi_offset 7, -8
 972              		.cfi_offset 14, -4
 973 0002 00AF     		add	r7, sp, #0
 974              	.LCFI36:
 975              		.cfi_def_cfa_register 7
 662:Drivers/STM32L0xx_HAL_Driver/Src/stm32l0xx_hal_pwr.c ****   /* Check PWR exti flag */
 663:Drivers/STM32L0xx_HAL_Driver/Src/stm32l0xx_hal_pwr.c ****   if(__HAL_PWR_PVD_EXTI_GET_FLAG() != RESET)
 976              		.loc 1 663 0
 977 0004 074B     		ldr	r3, .L58
 978 0006 5A69     		ldr	r2, [r3, #20]
 979 0008 8023     		movs	r3, #128
 980 000a 5B02     		lsls	r3, r3, #9
 981 000c 1340     		ands	r3, r2
 982 000e 05D0     		beq	.L57
 664:Drivers/STM32L0xx_HAL_Driver/Src/stm32l0xx_hal_pwr.c ****   {
 665:Drivers/STM32L0xx_HAL_Driver/Src/stm32l0xx_hal_pwr.c ****     /* PWR PVD interrupt user callback */
 666:Drivers/STM32L0xx_HAL_Driver/Src/stm32l0xx_hal_pwr.c ****     HAL_PWR_PVDCallback();
 983              		.loc 1 666 0
 984 0010 FFF7FEFF 		bl	HAL_PWR_PVDCallback
 667:Drivers/STM32L0xx_HAL_Driver/Src/stm32l0xx_hal_pwr.c **** 
 668:Drivers/STM32L0xx_HAL_Driver/Src/stm32l0xx_hal_pwr.c ****     /* Clear PWR Exti pending bit */
 669:Drivers/STM32L0xx_HAL_Driver/Src/stm32l0xx_hal_pwr.c ****     __HAL_PWR_PVD_EXTI_CLEAR_FLAG();
 985              		.loc 1 669 0
 986 0014 034B     		ldr	r3, .L58
 987 0016 8022     		movs	r2, #128
 988 0018 5202     		lsls	r2, r2, #9
 989 001a 5A61     		str	r2, [r3, #20]
 990              	.L57:
 670:Drivers/STM32L0xx_HAL_Driver/Src/stm32l0xx_hal_pwr.c ****   }
 671:Drivers/STM32L0xx_HAL_Driver/Src/stm32l0xx_hal_pwr.c **** }
 991              		.loc 1 671 0
 992 001c C046     		nop
 993 001e BD46     		mov	sp, r7
 994              		@ sp needed
 995 0020 80BD     		pop	{r7, pc}
 996              	.L59:
 997 0022 C046     		.align	2
 998              	.L58:
 999 0024 00040140 		.word	1073808384
 1000              		.cfi_endproc
 1001              	.LFE49:
ARM GAS  /tmp/ccWxDmhr.s 			page 37


 1003              		.section	.text.HAL_PWR_PVDCallback,"ax",%progbits
 1004              		.align	1
 1005              		.weak	HAL_PWR_PVDCallback
 1006              		.syntax unified
 1007              		.code	16
 1008              		.thumb_func
 1009              		.fpu softvfp
 1011              	HAL_PWR_PVDCallback:
 1012              	.LFB50:
 672:Drivers/STM32L0xx_HAL_Driver/Src/stm32l0xx_hal_pwr.c **** 
 673:Drivers/STM32L0xx_HAL_Driver/Src/stm32l0xx_hal_pwr.c **** /**
 674:Drivers/STM32L0xx_HAL_Driver/Src/stm32l0xx_hal_pwr.c ****   * @brief  PWR PVD interrupt callback
 675:Drivers/STM32L0xx_HAL_Driver/Src/stm32l0xx_hal_pwr.c ****   * @retval None
 676:Drivers/STM32L0xx_HAL_Driver/Src/stm32l0xx_hal_pwr.c ****   */
 677:Drivers/STM32L0xx_HAL_Driver/Src/stm32l0xx_hal_pwr.c **** __weak void HAL_PWR_PVDCallback(void)
 678:Drivers/STM32L0xx_HAL_Driver/Src/stm32l0xx_hal_pwr.c **** {
 1013              		.loc 1 678 0
 1014              		.cfi_startproc
 1015              		@ args = 0, pretend = 0, frame = 0
 1016              		@ frame_needed = 1, uses_anonymous_args = 0
 1017 0000 80B5     		push	{r7, lr}
 1018              	.LCFI37:
 1019              		.cfi_def_cfa_offset 8
 1020              		.cfi_offset 7, -8
 1021              		.cfi_offset 14, -4
 1022 0002 00AF     		add	r7, sp, #0
 1023              	.LCFI38:
 1024              		.cfi_def_cfa_register 7
 679:Drivers/STM32L0xx_HAL_Driver/Src/stm32l0xx_hal_pwr.c ****   /* NOTE : This function Should not be modified, when the callback is needed,
 680:Drivers/STM32L0xx_HAL_Driver/Src/stm32l0xx_hal_pwr.c ****             the HAL_PWR_PVDCallback could be implemented in the user file
 681:Drivers/STM32L0xx_HAL_Driver/Src/stm32l0xx_hal_pwr.c ****    */ 
 682:Drivers/STM32L0xx_HAL_Driver/Src/stm32l0xx_hal_pwr.c **** }
 1025              		.loc 1 682 0
 1026 0004 C046     		nop
 1027 0006 BD46     		mov	sp, r7
 1028              		@ sp needed
 1029 0008 80BD     		pop	{r7, pc}
 1030              		.cfi_endproc
 1031              	.LFE50:
 1033              		.text
 1034              	.Letext0:
 1035              		.file 3 "/usr/include/newlib/machine/_default_types.h"
 1036              		.file 4 "/usr/include/newlib/sys/_stdint.h"
 1037              		.file 5 "Drivers/CMSIS/Include/core_cm0plus.h"
 1038              		.file 6 "Drivers/CMSIS/Device/ST/STM32L0xx/Include/system_stm32l0xx.h"
 1039              		.file 7 "Drivers/CMSIS/Device/ST/STM32L0xx/Include/stm32l052xx.h"
 1040              		.file 8 "Drivers/STM32L0xx_HAL_Driver/Inc/stm32l0xx_hal_pwr.h"
 1041              		.file 9 "Drivers/STM32L0xx_HAL_Driver/Inc/stm32l0xx_hal.h"
 1042              		.file 10 "Drivers/CMSIS/Device/ST/STM32L0xx/Include/stm32l0xx.h"
ARM GAS  /tmp/ccWxDmhr.s 			page 38


DEFINED SYMBOLS
                            *ABS*:0000000000000000 stm32l0xx_hal_pwr.c
     /tmp/ccWxDmhr.s:16     .text.HAL_PWR_DeInit:0000000000000000 $t
     /tmp/ccWxDmhr.s:23     .text.HAL_PWR_DeInit:0000000000000000 HAL_PWR_DeInit
     /tmp/ccWxDmhr.s:61     .text.HAL_PWR_DeInit:0000000000000024 $d
     /tmp/ccWxDmhr.s:67     .text.HAL_PWR_EnableBkUpAccess:0000000000000000 $t
     /tmp/ccWxDmhr.s:74     .text.HAL_PWR_EnableBkUpAccess:0000000000000000 HAL_PWR_EnableBkUpAccess
     /tmp/ccWxDmhr.s:104    .text.HAL_PWR_EnableBkUpAccess:0000000000000018 $d
     /tmp/ccWxDmhr.s:109    .text.HAL_PWR_DisableBkUpAccess:0000000000000000 $t
     /tmp/ccWxDmhr.s:116    .text.HAL_PWR_DisableBkUpAccess:0000000000000000 HAL_PWR_DisableBkUpAccess
     /tmp/ccWxDmhr.s:145    .text.HAL_PWR_DisableBkUpAccess:0000000000000018 $d
     /tmp/ccWxDmhr.s:151    .text.HAL_PWR_ConfigPVD:0000000000000000 $t
     /tmp/ccWxDmhr.s:158    .text.HAL_PWR_ConfigPVD:0000000000000000 HAL_PWR_ConfigPVD
     /tmp/ccWxDmhr.s:286    .text.HAL_PWR_ConfigPVD:00000000000000b8 $d
     /tmp/ccWxDmhr.s:293    .text.HAL_PWR_EnablePVD:0000000000000000 $t
     /tmp/ccWxDmhr.s:300    .text.HAL_PWR_EnablePVD:0000000000000000 HAL_PWR_EnablePVD
     /tmp/ccWxDmhr.s:329    .text.HAL_PWR_EnablePVD:0000000000000018 $d
     /tmp/ccWxDmhr.s:334    .text.HAL_PWR_DisablePVD:0000000000000000 $t
     /tmp/ccWxDmhr.s:341    .text.HAL_PWR_DisablePVD:0000000000000000 HAL_PWR_DisablePVD
     /tmp/ccWxDmhr.s:370    .text.HAL_PWR_DisablePVD:0000000000000018 $d
     /tmp/ccWxDmhr.s:375    .text.HAL_PWR_EnableWakeUpPin:0000000000000000 $t
     /tmp/ccWxDmhr.s:382    .text.HAL_PWR_EnableWakeUpPin:0000000000000000 HAL_PWR_EnableWakeUpPin
     /tmp/ccWxDmhr.s:416    .text.HAL_PWR_EnableWakeUpPin:000000000000001c $d
     /tmp/ccWxDmhr.s:421    .text.HAL_PWR_DisableWakeUpPin:0000000000000000 $t
     /tmp/ccWxDmhr.s:428    .text.HAL_PWR_DisableWakeUpPin:0000000000000000 HAL_PWR_DisableWakeUpPin
     /tmp/ccWxDmhr.s:463    .text.HAL_PWR_DisableWakeUpPin:0000000000000020 $d
     /tmp/ccWxDmhr.s:468    .text.HAL_PWR_EnterSLEEPMode:0000000000000000 $t
     /tmp/ccWxDmhr.s:475    .text.HAL_PWR_EnterSLEEPMode:0000000000000000 HAL_PWR_EnterSLEEPMode
     /tmp/ccWxDmhr.s:596    .text.HAL_PWR_EnterSLEEPMode:0000000000000058 $d
     /tmp/ccWxDmhr.s:602    .text.HAL_PWR_EnterSTOPMode:0000000000000000 $t
     /tmp/ccWxDmhr.s:609    .text.HAL_PWR_EnterSTOPMode:0000000000000000 HAL_PWR_EnterSTOPMode
     /tmp/ccWxDmhr.s:725    .text.HAL_PWR_EnterSTOPMode:0000000000000060 $d
     /tmp/ccWxDmhr.s:731    .text.HAL_PWR_EnterSTANDBYMode:0000000000000000 $t
     /tmp/ccWxDmhr.s:738    .text.HAL_PWR_EnterSTANDBYMode:0000000000000000 HAL_PWR_EnterSTANDBYMode
     /tmp/ccWxDmhr.s:785    .text.HAL_PWR_EnterSTANDBYMode:0000000000000024 $d
     /tmp/ccWxDmhr.s:791    .text.HAL_PWR_EnableSleepOnExit:0000000000000000 $t
     /tmp/ccWxDmhr.s:798    .text.HAL_PWR_EnableSleepOnExit:0000000000000000 HAL_PWR_EnableSleepOnExit
     /tmp/ccWxDmhr.s:827    .text.HAL_PWR_EnableSleepOnExit:0000000000000018 $d
     /tmp/ccWxDmhr.s:832    .text.HAL_PWR_DisableSleepOnExit:0000000000000000 $t
     /tmp/ccWxDmhr.s:839    .text.HAL_PWR_DisableSleepOnExit:0000000000000000 HAL_PWR_DisableSleepOnExit
     /tmp/ccWxDmhr.s:868    .text.HAL_PWR_DisableSleepOnExit:0000000000000018 $d
     /tmp/ccWxDmhr.s:873    .text.HAL_PWR_EnableSEVOnPend:0000000000000000 $t
     /tmp/ccWxDmhr.s:880    .text.HAL_PWR_EnableSEVOnPend:0000000000000000 HAL_PWR_EnableSEVOnPend
     /tmp/ccWxDmhr.s:909    .text.HAL_PWR_EnableSEVOnPend:0000000000000018 $d
     /tmp/ccWxDmhr.s:914    .text.HAL_PWR_DisableSEVOnPend:0000000000000000 $t
     /tmp/ccWxDmhr.s:921    .text.HAL_PWR_DisableSEVOnPend:0000000000000000 HAL_PWR_DisableSEVOnPend
     /tmp/ccWxDmhr.s:950    .text.HAL_PWR_DisableSEVOnPend:0000000000000018 $d
     /tmp/ccWxDmhr.s:955    .text.HAL_PWR_PVD_IRQHandler:0000000000000000 $t
     /tmp/ccWxDmhr.s:962    .text.HAL_PWR_PVD_IRQHandler:0000000000000000 HAL_PWR_PVD_IRQHandler
     /tmp/ccWxDmhr.s:1011   .text.HAL_PWR_PVDCallback:0000000000000000 HAL_PWR_PVDCallback
     /tmp/ccWxDmhr.s:999    .text.HAL_PWR_PVD_IRQHandler:0000000000000024 $d
     /tmp/ccWxDmhr.s:1004   .text.HAL_PWR_PVDCallback:0000000000000000 $t
                     .debug_frame:0000000000000010 $d

NO UNDEFINED SYMBOLS
