Archive member included to satisfy reference by file (symbol)

/usr/lib/gcc/arm-none-eabi/6.3.1/../../../arm-none-eabi/lib/thumb/v6-m/libc_nano.a(lib_a-atexit.o)
                              /usr/lib/gcc/arm-none-eabi/6.3.1/../../../arm-none-eabi/lib/thumb/v6-m/crt0.o (atexit)
/usr/lib/gcc/arm-none-eabi/6.3.1/../../../arm-none-eabi/lib/thumb/v6-m/libc_nano.a(lib_a-exit.o)
                              /usr/lib/gcc/arm-none-eabi/6.3.1/../../../arm-none-eabi/lib/thumb/v6-m/crt0.o (exit)
/usr/lib/gcc/arm-none-eabi/6.3.1/../../../arm-none-eabi/lib/thumb/v6-m/libc_nano.a(lib_a-fini.o)
                              /usr/lib/gcc/arm-none-eabi/6.3.1/../../../arm-none-eabi/lib/thumb/v6-m/crt0.o (__libc_fini_array)
/usr/lib/gcc/arm-none-eabi/6.3.1/../../../arm-none-eabi/lib/thumb/v6-m/libc_nano.a(lib_a-impure.o)
                              /usr/lib/gcc/arm-none-eabi/6.3.1/../../../arm-none-eabi/lib/thumb/v6-m/libc_nano.a(lib_a-exit.o) (_global_impure_ptr)
/usr/lib/gcc/arm-none-eabi/6.3.1/../../../arm-none-eabi/lib/thumb/v6-m/libc_nano.a(lib_a-init.o)
                              /usr/lib/gcc/arm-none-eabi/6.3.1/../../../arm-none-eabi/lib/thumb/v6-m/crt0.o (__libc_init_array)
/usr/lib/gcc/arm-none-eabi/6.3.1/../../../arm-none-eabi/lib/thumb/v6-m/libc_nano.a(lib_a-memcmp.o)
                              build/main.o (memcmp)
/usr/lib/gcc/arm-none-eabi/6.3.1/../../../arm-none-eabi/lib/thumb/v6-m/libc_nano.a(lib_a-memcpy-stub.o)
                              build/usbd_cdc_if.o (memcpy)
/usr/lib/gcc/arm-none-eabi/6.3.1/../../../arm-none-eabi/lib/thumb/v6-m/libc_nano.a(lib_a-memset.o)
                              /usr/lib/gcc/arm-none-eabi/6.3.1/../../../arm-none-eabi/lib/thumb/v6-m/crt0.o (memset)
/usr/lib/gcc/arm-none-eabi/6.3.1/../../../arm-none-eabi/lib/thumb/v6-m/libc_nano.a(lib_a-sprintf.o)
                              build/main.o (sprintf)
/usr/lib/gcc/arm-none-eabi/6.3.1/../../../arm-none-eabi/lib/thumb/v6-m/libc_nano.a(lib_a-strtol.o)
                              build/main.o (strtol)
/usr/lib/gcc/arm-none-eabi/6.3.1/../../../arm-none-eabi/lib/thumb/v6-m/libc_nano.a(lib_a-__atexit.o)
                              /usr/lib/gcc/arm-none-eabi/6.3.1/../../../arm-none-eabi/lib/thumb/v6-m/libc_nano.a(lib_a-atexit.o) (__register_exitproc)
/usr/lib/gcc/arm-none-eabi/6.3.1/../../../arm-none-eabi/lib/thumb/v6-m/libc_nano.a(lib_a-__call_atexit.o)
                              /usr/lib/gcc/arm-none-eabi/6.3.1/../../../arm-none-eabi/lib/thumb/v6-m/libc_nano.a(lib_a-__atexit.o) (__call_exitprocs)
/usr/lib/gcc/arm-none-eabi/6.3.1/../../../arm-none-eabi/lib/thumb/v6-m/libc_nano.a(lib_a-locale.o)
                              /usr/lib/gcc/arm-none-eabi/6.3.1/../../../arm-none-eabi/lib/thumb/v6-m/libc_nano.a(lib_a-strtol.o) (__global_locale)
/usr/lib/gcc/arm-none-eabi/6.3.1/../../../arm-none-eabi/lib/thumb/v6-m/libc_nano.a(lib_a-mbtowc_r.o)
                              /usr/lib/gcc/arm-none-eabi/6.3.1/../../../arm-none-eabi/lib/thumb/v6-m/libc_nano.a(lib_a-locale.o) (__ascii_mbtowc)
/usr/lib/gcc/arm-none-eabi/6.3.1/../../../arm-none-eabi/lib/thumb/v6-m/libc_nano.a(lib_a-nano-svfprintf.o)
                              /usr/lib/gcc/arm-none-eabi/6.3.1/../../../arm-none-eabi/lib/thumb/v6-m/libc_nano.a(lib_a-sprintf.o) (_svfprintf_r)
/usr/lib/gcc/arm-none-eabi/6.3.1/../../../arm-none-eabi/lib/thumb/v6-m/libc_nano.a(lib_a-nano-vfprintf_i.o)
                              /usr/lib/gcc/arm-none-eabi/6.3.1/../../../arm-none-eabi/lib/thumb/v6-m/libc_nano.a(lib_a-nano-svfprintf.o) (_printf_i)
/usr/lib/gcc/arm-none-eabi/6.3.1/../../../arm-none-eabi/lib/thumb/v6-m/libc_nano.a(lib_a-strcmp.o)
                              /usr/lib/gcc/arm-none-eabi/6.3.1/../../../arm-none-eabi/lib/thumb/v6-m/libc_nano.a(lib_a-locale.o) (strcmp)
/usr/lib/gcc/arm-none-eabi/6.3.1/../../../arm-none-eabi/lib/thumb/v6-m/libc_nano.a(lib_a-wctomb_r.o)
                              /usr/lib/gcc/arm-none-eabi/6.3.1/../../../arm-none-eabi/lib/thumb/v6-m/libc_nano.a(lib_a-locale.o) (__ascii_wctomb)
/usr/lib/gcc/arm-none-eabi/6.3.1/../../../arm-none-eabi/lib/thumb/v6-m/libc_nano.a(lib_a-ctype_.o)
                              /usr/lib/gcc/arm-none-eabi/6.3.1/../../../arm-none-eabi/lib/thumb/v6-m/libc_nano.a(lib_a-locale.o) (_ctype_)
/usr/lib/gcc/arm-none-eabi/6.3.1/../../../arm-none-eabi/lib/thumb/v6-m/libc_nano.a(lib_a-memchr-stub.o)
                              /usr/lib/gcc/arm-none-eabi/6.3.1/../../../arm-none-eabi/lib/thumb/v6-m/libc_nano.a(lib_a-nano-svfprintf.o) (memchr)
/usr/lib/gcc/arm-none-eabi/6.3.1/../../../arm-none-eabi/lib/thumb/v6-m/libc_nano.a(lib_a-memmove.o)
                              /usr/lib/gcc/arm-none-eabi/6.3.1/../../../arm-none-eabi/lib/thumb/v6-m/libc_nano.a(lib_a-nano-svfprintf.o) (memmove)
/usr/lib/gcc/arm-none-eabi/6.3.1/../../../arm-none-eabi/lib/thumb/v6-m/libc_nano.a(lib_a-nano-freer.o)
                              /usr/lib/gcc/arm-none-eabi/6.3.1/../../../arm-none-eabi/lib/thumb/v6-m/libc_nano.a(lib_a-nano-svfprintf.o) (_free_r)
/usr/lib/gcc/arm-none-eabi/6.3.1/../../../arm-none-eabi/lib/thumb/v6-m/libc_nano.a(lib_a-nano-mallocr.o)
                              /usr/lib/gcc/arm-none-eabi/6.3.1/../../../arm-none-eabi/lib/thumb/v6-m/libc_nano.a(lib_a-nano-svfprintf.o) (_malloc_r)
/usr/lib/gcc/arm-none-eabi/6.3.1/../../../arm-none-eabi/lib/thumb/v6-m/libc_nano.a(lib_a-nano-reallocr.o)
                              /usr/lib/gcc/arm-none-eabi/6.3.1/../../../arm-none-eabi/lib/thumb/v6-m/libc_nano.a(lib_a-nano-svfprintf.o) (_realloc_r)
/usr/lib/gcc/arm-none-eabi/6.3.1/../../../arm-none-eabi/lib/thumb/v6-m/libc_nano.a(lib_a-sbrkr.o)
                              /usr/lib/gcc/arm-none-eabi/6.3.1/../../../arm-none-eabi/lib/thumb/v6-m/libc_nano.a(lib_a-nano-mallocr.o) (_sbrk_r)
/usr/lib/gcc/arm-none-eabi/6.3.1/../../../arm-none-eabi/lib/thumb/v6-m/libc_nano.a(lib_a-mlock.o)
                              /usr/lib/gcc/arm-none-eabi/6.3.1/../../../arm-none-eabi/lib/thumb/v6-m/libc_nano.a(lib_a-nano-freer.o) (__malloc_lock)
/usr/lib/gcc/arm-none-eabi/6.3.1/../../../arm-none-eabi/lib/thumb/v6-m/libc_nano.a(lib_a-nano-msizer.o)
                              /usr/lib/gcc/arm-none-eabi/6.3.1/../../../arm-none-eabi/lib/thumb/v6-m/libc_nano.a(lib_a-nano-reallocr.o) (_malloc_usable_size_r)
/usr/lib/gcc/arm-none-eabi/6.3.1/../../../arm-none-eabi/lib/thumb/v6-m/libc_nano.a(lib_a-reent.o)
                              /usr/lib/gcc/arm-none-eabi/6.3.1/../../../arm-none-eabi/lib/thumb/v6-m/libc_nano.a(lib_a-sbrkr.o) (errno)
/usr/lib/gcc/arm-none-eabi/6.3.1/../../../arm-none-eabi/lib/thumb/v6-m/libnosys.a(sbrk.o)
                              /usr/lib/gcc/arm-none-eabi/6.3.1/../../../arm-none-eabi/lib/thumb/v6-m/libc_nano.a(lib_a-sbrkr.o) (_sbrk)
/usr/lib/gcc/arm-none-eabi/6.3.1/../../../arm-none-eabi/lib/thumb/v6-m/libnosys.a(_exit.o)
                              /usr/lib/gcc/arm-none-eabi/6.3.1/../../../arm-none-eabi/lib/thumb/v6-m/libc_nano.a(lib_a-exit.o) (_exit)
/usr/lib/gcc/arm-none-eabi/6.3.1/thumb/v6-m/libgcc.a(_udivsi3.o)
                              build/stm32l0xx_hal_adc.o (__aeabi_uidiv)
/usr/lib/gcc/arm-none-eabi/6.3.1/thumb/v6-m/libgcc.a(_dvmd_tls.o)
                              /usr/lib/gcc/arm-none-eabi/6.3.1/thumb/v6-m/libgcc.a(_udivsi3.o) (__aeabi_idiv0)
/usr/lib/gcc/arm-none-eabi/6.3.1/thumb/v6-m/libgcc.a(_aeabi_uldivmod.o)
                              build/stm32l0xx_hal_uart.o (__aeabi_uldivmod)
/usr/lib/gcc/arm-none-eabi/6.3.1/thumb/v6-m/libgcc.a(_udivmoddi4.o)
                              /usr/lib/gcc/arm-none-eabi/6.3.1/thumb/v6-m/libgcc.a(_aeabi_uldivmod.o) (__udivmoddi4)
/usr/lib/gcc/arm-none-eabi/6.3.1/thumb/v6-m/libgcc.a(mulsf3.o)
                              build/adc.o (__aeabi_fmul)
/usr/lib/gcc/arm-none-eabi/6.3.1/thumb/v6-m/libgcc.a(floatunsisf.o)
                              build/adc.o (__aeabi_ui2f)
/usr/lib/gcc/arm-none-eabi/6.3.1/thumb/v6-m/libgcc.a(_clzsi2.o)
                              /usr/lib/gcc/arm-none-eabi/6.3.1/thumb/v6-m/libgcc.a(mulsf3.o) (__clzsi2)
/usr/lib/gcc/arm-none-eabi/6.3.1/thumb/v6-m/libgcc.a(_clzdi2.o)
                              /usr/lib/gcc/arm-none-eabi/6.3.1/thumb/v6-m/libgcc.a(_udivmoddi4.o) (__clzdi2)

Allocating common symbols
Common symbol       size              file

hUsbDeviceFS        0x29c             build/usb_device.o
hUsbDevice_0        0x4               build/usbd_cdc_if.o
x                   0x1               build/main.o
imon                0x5               build/main.o
got_match           0x1               build/main.o
errno               0x4               /usr/lib/gcc/arm-none-eabi/6.3.1/../../../arm-none-eabi/lib/thumb/v6-m/libc_nano.a(lib_a-reent.o)
ADC_CONVERT         0x4               build/main.o
uwTick              0x4               build/stm32l0xx_hal.o
temp                0x5               build/main.o
pFlash              0x18              build/stm32l0xx_hal_flash.o
UserRxBufferFS      0x4               build/usbd_cdc_if.o
int_value           0x2               build/main.o
val                 0x1               build/main.o
UserTxBufferFS      0x4               build/usbd_cdc_if.o
g_VCPInitialized    0x1               build/usbd_cdc_if.o
is_equal            0x1               build/main.o
Rxbuffer            0xa               build/main.o
ADC_array           0x8               build/main.o
hpcd_USB_FS         0x274             build/usbd_conf.o
USBD_StrDesc        0x200             build/usbd_desc.o
load                0x2               build/main.o

Discarded input sections

 .text          0x0000000000000000        0x0 /usr/lib/gcc/arm-none-eabi/6.3.1/thumb/v6-m/crti.o
 .data          0x0000000000000000        0x0 /usr/lib/gcc/arm-none-eabi/6.3.1/thumb/v6-m/crti.o
 .bss           0x0000000000000000        0x0 /usr/lib/gcc/arm-none-eabi/6.3.1/thumb/v6-m/crti.o
 .data          0x0000000000000000        0x4 /usr/lib/gcc/arm-none-eabi/6.3.1/thumb/v6-m/crtbegin.o
 .text          0x0000000000000000       0x6c /usr/lib/gcc/arm-none-eabi/6.3.1/../../../arm-none-eabi/lib/thumb/v6-m/crt0.o
 .data          0x0000000000000000        0x0 /usr/lib/gcc/arm-none-eabi/6.3.1/../../../arm-none-eabi/lib/thumb/v6-m/crt0.o
 .bss           0x0000000000000000        0x0 /usr/lib/gcc/arm-none-eabi/6.3.1/../../../arm-none-eabi/lib/thumb/v6-m/crt0.o
 .ARM.extab     0x0000000000000000        0x0 /usr/lib/gcc/arm-none-eabi/6.3.1/../../../arm-none-eabi/lib/thumb/v6-m/crt0.o
 .ARM.exidx     0x0000000000000000        0x8 /usr/lib/gcc/arm-none-eabi/6.3.1/../../../arm-none-eabi/lib/thumb/v6-m/crt0.o
 .debug_line    0x0000000000000000       0x86 /usr/lib/gcc/arm-none-eabi/6.3.1/../../../arm-none-eabi/lib/thumb/v6-m/crt0.o
 .debug_info    0x0000000000000000       0xaf /usr/lib/gcc/arm-none-eabi/6.3.1/../../../arm-none-eabi/lib/thumb/v6-m/crt0.o
 .debug_abbrev  0x0000000000000000       0x14 /usr/lib/gcc/arm-none-eabi/6.3.1/../../../arm-none-eabi/lib/thumb/v6-m/crt0.o
 .debug_aranges
                0x0000000000000000       0x20 /usr/lib/gcc/arm-none-eabi/6.3.1/../../../arm-none-eabi/lib/thumb/v6-m/crt0.o
 .ARM.attributes
                0x0000000000000000       0x1b /usr/lib/gcc/arm-none-eabi/6.3.1/../../../arm-none-eabi/lib/thumb/v6-m/crt0.o
 .text          0x0000000000000000        0x0 build/main.o
 .data          0x0000000000000000        0x0 build/main.o
Memory Configuration

Name             Origin             Length             Attributes
RAM              0x0000000020000000 0x0000000000002000 xrw
FLASH            0x0000000008000000 0x0000000000008000 xr
*default*        0x0000000000000000 0xffffffffffffffff

Linker script and memory map

LOAD /usr/lib/gcc/arm-none-eabi/6.3.1/thumb/v6-m/crti.o
LOAD /usr/lib/gcc/arm-none-eabi/6.3.1/thumb/v6-m/crtbegin.o
LOAD /usr/lib/gcc/arm-none-eabi/6.3.1/../../../arm-none-eabi/lib/thumb/v6-m/crt0.o
LOAD build/main.o
LOAD build/gpio.o
LOAD build/adc.o
LOAD build/dac.o
LOAD build/usb_device.o
LOAD build/usbd_conf.o
LOAD build/usbd_desc.o
LOAD build/usbd_cdc_if.o
LOAD build/stm32l0xx_it.o
LOAD build/stm32l0xx_hal_msp.o
LOAD build/stm32l0xx_hal_pcd.o
LOAD build/stm32l0xx_hal_pcd_ex.o
LOAD build/stm32l0xx_ll_usb.o
LOAD build/stm32l0xx_hal_adc.o
LOAD build/stm32l0xx_hal_adc_ex.o
LOAD build/stm32l0xx_hal_dac.o
LOAD build/stm32l0xx_hal_dac_ex.o
LOAD build/stm32l0xx_hal_i2c.o
LOAD build/stm32l0xx_hal_i2c_ex.o
LOAD build/stm32l0xx_hal_tim.o
LOAD build/stm32l0xx_hal_tim_ex.o
LOAD build/stm32l0xx_hal_uart.o
LOAD build/stm32l0xx_hal_uart_ex.o
LOAD build/stm32l0xx_hal.o
LOAD build/stm32l0xx_hal_rcc.o
LOAD build/stm32l0xx_hal_rcc_ex.o
LOAD build/stm32l0xx_hal_flash_ramfunc.o
LOAD build/stm32l0xx_hal_flash.o
LOAD build/stm32l0xx_hal_flash_ex.o
LOAD build/stm32l0xx_hal_gpio.o
LOAD build/stm32l0xx_hal_dma.o
LOAD build/stm32l0xx_hal_pwr.o
LOAD build/stm32l0xx_hal_pwr_ex.o
LOAD build/stm32l0xx_hal_cortex.o
LOAD build/system_stm32l0xx.o
LOAD build/usbd_core.o
LOAD build/usbd_ctlreq.o
LOAD build/usbd_ioreq.o
LOAD build/usbd_cdc.o
LOAD build/startup_stm32l052xx.o
LOAD /usr/lib/gcc/arm-none-eabi/6.3.1/../../../arm-none-eabi/lib/thumb/v6-m/libc_nano.a
LOAD /usr/lib/gcc/arm-none-eabi/6.3.1/../../../arm-none-eabi/lib/thumb/v6-m/libm.a
LOAD /usr/lib/gcc/arm-none-eabi/6.3.1/../../../arm-none-eabi/lib/thumb/v6-m/libnosys.a
START GROUP
LOAD /usr/lib/gcc/arm-none-eabi/6.3.1/thumb/v6-m/libgcc.a
LOAD /usr/lib/gcc/arm-none-eabi/6.3.1/../../../arm-none-eabi/lib/thumb/v6-m/libc_nano.a
END GROUP
START GROUP
LOAD /usr/lib/gcc/arm-none-eabi/6.3.1/thumb/v6-m/libgcc.a
LOAD /usr/lib/gcc/arm-none-eabi/6.3.1/../../../arm-none-eabi/lib/thumb/v6-m/libc_nano.a
END GROUP
LOAD /usr/lib/gcc/arm-none-eabi/6.3.1/thumb/v6-m/crtend.o
LOAD /usr/lib/gcc/arm-none-eabi/6.3.1/thumb/v6-m/crtn.o
                0x0000000020002000                _estack = 0x20002000
                0x0000000000000200                _Min_Heap_Size = 0x200
                0x0000000000000400                _Min_Stack_Size = 0x400

.isr_vector     0x0000000008000000       0xc0
                0x0000000008000000                . = ALIGN (0x4)
 *(.isr_vector)
 .isr_vector    0x0000000008000000       0xc0 build/startup_stm32l052xx.o
                0x0000000008000000                g_pfnVectors
                0x00000000080000c0                . = ALIGN (0x4)

.text           0x00000000080000c0     0x7618
                0x00000000080000c0                . = ALIGN (0x4)
 *(.text)
 .text          0x00000000080000c0       0xb4 /usr/lib/gcc/arm-none-eabi/6.3.1/thumb/v6-m/crtbegin.o
 .text          0x0000000008000174       0x48 /usr/lib/gcc/arm-none-eabi/6.3.1/../../../arm-none-eabi/lib/thumb/v6-m/libc_nano.a(lib_a-init.o)
                0x0000000008000174                __libc_init_array
 .text          0x00000000080001bc       0x4c /usr/lib/gcc/arm-none-eabi/6.3.1/../../../arm-none-eabi/lib/thumb/v6-m/libc_nano.a(lib_a-memcmp.o)
                0x00000000080001bc                memcmp
 .text          0x0000000008000208       0x88 /usr/lib/gcc/arm-none-eabi/6.3.1/../../../arm-none-eabi/lib/thumb/v6-m/libc_nano.a(lib_a-memcpy-stub.o)
                0x0000000008000208                memcpy
 .text          0x0000000008000290       0x9c /usr/lib/gcc/arm-none-eabi/6.3.1/../../../arm-none-eabi/lib/thumb/v6-m/libc_nano.a(lib_a-memset.o)
                0x0000000008000290                memset
 .text          0x000000000800032c       0x78 /usr/lib/gcc/arm-none-eabi/6.3.1/../../../arm-none-eabi/lib/thumb/v6-m/libc_nano.a(lib_a-sprintf.o)
                0x000000000800032c                _siprintf_r
                0x000000000800032c                _sprintf_r
                0x0000000008000364                sprintf
                0x0000000008000364                siprintf
 .text          0x00000000080003a4      0x1ac /usr/lib/gcc/arm-none-eabi/6.3.1/../../../arm-none-eabi/lib/thumb/v6-m/libc_nano.a(lib_a-strtol.o)
                0x00000000080004e0                _strtol_r
                0x0000000008000504                strtol_l
                0x0000000008000524                strtol
 .text          0x0000000008000550       0x9c /usr/lib/gcc/arm-none-eabi/6.3.1/../../../arm-none-eabi/lib/thumb/v6-m/libc_nano.a(lib_a-locale.o)
                0x0000000008000550                _setlocale_r
                0x0000000008000594                __locale_mb_cur_max
                0x00000000080005b0                __locale_ctype_ptr_l
                0x00000000080005b8                __locale_ctype_ptr
                0x00000000080005d4                setlocale
 .text          0x00000000080005ec       0x54 /usr/lib/gcc/arm-none-eabi/6.3.1/../../../arm-none-eabi/lib/thumb/v6-m/libc_nano.a(lib_a-mbtowc_r.o)
                0x00000000080005ec                _mbtowc_r
                0x0000000008000614                __ascii_mbtowc
 .text          0x0000000008000640      0x458 /usr/lib/gcc/arm-none-eabi/6.3.1/../../../arm-none-eabi/lib/thumb/v6-m/libc_nano.a(lib_a-nano-svfprintf.o)
                0x0000000008000640                __ssputs_r
                0x0000000008000710                __ssprint_r
                0x0000000008000828                _svfprintf_r
                0x0000000008000828                _svfiprintf_r
 .text          0x0000000008000a98      0x3cc /usr/lib/gcc/arm-none-eabi/6.3.1/../../../arm-none-eabi/lib/thumb/v6-m/libc_nano.a(lib_a-nano-vfprintf_i.o)
                0x0000000008000a98                _printf_common
                0x0000000008000bc0                _printf_i
 .text          0x0000000008000e64       0x88 /usr/lib/gcc/arm-none-eabi/6.3.1/../../../arm-none-eabi/lib/thumb/v6-m/libc_nano.a(lib_a-strcmp.o)
                0x0000000008000e64                strcmp
 .text          0x0000000008000eec       0x3c /usr/lib/gcc/arm-none-eabi/6.3.1/../../../arm-none-eabi/lib/thumb/v6-m/libc_nano.a(lib_a-wctomb_r.o)
                0x0000000008000eec                _wctomb_r
                0x0000000008000f0c                __ascii_wctomb
 .text          0x0000000008000f28       0x80 /usr/lib/gcc/arm-none-eabi/6.3.1/../../../arm-none-eabi/lib/thumb/v6-m/libc_nano.a(lib_a-memchr-stub.o)
                0x0000000008000f28                memchr
 .text          0x0000000008000fa8       0x9c /usr/lib/gcc/arm-none-eabi/6.3.1/../../../arm-none-eabi/lib/thumb/v6-m/libc_nano.a(lib_a-memmove.o)
                0x0000000008000fa8                memmove
 .text          0x0000000008001044       0xac /usr/lib/gcc/arm-none-eabi/6.3.1/../../../arm-none-eabi/lib/thumb/v6-m/libc_nano.a(lib_a-nano-freer.o)
                0x0000000008001044                _free_r
 .text          0x00000000080010f0       0xcc /usr/lib/gcc/arm-none-eabi/6.3.1/../../../arm-none-eabi/lib/thumb/v6-m/libc_nano.a(lib_a-nano-mallocr.o)
                0x00000000080010f0                _malloc_r
 .text          0x00000000080011bc       0x50 /usr/lib/gcc/arm-none-eabi/6.3.1/../../../arm-none-eabi/lib/thumb/v6-m/libc_nano.a(lib_a-nano-reallocr.o)
                0x00000000080011bc                _realloc_r
 .text          0x000000000800120c       0x24 /usr/lib/gcc/arm-none-eabi/6.3.1/../../../arm-none-eabi/lib/thumb/v6-m/libc_nano.a(lib_a-sbrkr.o)
                0x000000000800120c                _sbrk_r
 .text          0x0000000008001230        0x8 /usr/lib/gcc/arm-none-eabi/6.3.1/../../../arm-none-eabi/lib/thumb/v6-m/libc_nano.a(lib_a-mlock.o)
                0x0000000008001230                __malloc_lock
                0x0000000008001234                __malloc_unlock
 .text          0x0000000008001238       0x14 /usr/lib/gcc/arm-none-eabi/6.3.1/../../../arm-none-eabi/lib/thumb/v6-m/libc_nano.a(lib_a-nano-msizer.o)
                0x0000000008001238                _malloc_usable_size_r
 .text          0x000000000800124c       0x1c /usr/lib/gcc/arm-none-eabi/6.3.1/../../../arm-none-eabi/lib/thumb/v6-m/libnosys.a(sbrk.o)
                0x000000000800124c                _sbrk
 .text          0x0000000008001268      0x114 /usr/lib/gcc/arm-none-eabi/6.3.1/thumb/v6-m/libgcc.a(_udivsi3.o)
                0x0000000008001268                __udivsi3
                0x0000000008001268                __aeabi_uidiv
                0x0000000008001374                __aeabi_uidivmod
 .text          0x000000000800137c        0x4 /usr/lib/gcc/arm-none-eabi/6.3.1/thumb/v6-m/libgcc.a(_dvmd_tls.o)
                0x000000000800137c                __aeabi_ldiv0
                0x000000000800137c                __aeabi_idiv0
 *(.text*)
 .text.compareArray
                0x0000000008001380       0x34 build/main.o
                0x0000000008001380                compareArray
 .text.main     0x00000000080013b4      0x3a4 build/main.o
                0x00000000080013b4                main
 .text.SystemClock_Config
                0x0000000008001758       0xf0 build/main.o
                0x0000000008001758                SystemClock_Config
 .text.gpio_init
                0x0000000008001848      0x1d4 build/gpio.o
                0x0000000008001848                gpio_init
 .text.NVIC_EnableIRQ
                0x0000000008001a1c       0x2c build/adc.o
 .text.NVIC_SetPriority
                0x0000000008001a48       0xdc build/adc.o
 .text.ConfigureGPIOforADC
                0x0000000008001b24       0x5c build/adc.o
                0x0000000008001b24                ConfigureGPIOforADC
 .text.SetClockForADC
                0x0000000008001b80       0x1c build/adc.o
                0x0000000008001b80                SetClockForADC
 .text.CalibrateADC
                0x0000000008001b9c       0x50 build/adc.o
                0x0000000008001b9c                CalibrateADC
 .text.ConfigureADC
                0x0000000008001bec       0x44 build/adc.o
                0x0000000008001bec                ConfigureADC
 .text.ConfigureDMA
                0x0000000008001c30       0x70 build/adc.o
                0x0000000008001c30                ConfigureDMA
 .text.EnableADC
                0x0000000008001ca0       0x34 build/adc.o
                0x0000000008001ca0                EnableADC
 .text.Error_Handler
                0x0000000008001cd4        0xa build/adc.o
                0x0000000008001cd4                Error_Handler
 *fill*         0x0000000008001cde        0x2 
 .text.ConfigureDAC
                0x0000000008001ce0       0x34 build/dac.o
                0x0000000008001ce0                ConfigureDAC
 .text.MX_USB_DEVICE_Init
                0x0000000008001d14       0x48 build/usb_device.o
                0x0000000008001d14                MX_USB_DEVICE_Init
 .text.HAL_PCD_MspInit
                0x0000000008001d5c       0x40 build/usbd_conf.o
                0x0000000008001d5c                HAL_PCD_MspInit
 .text.HAL_PCD_SetupStageCallback
                0x0000000008001d9c       0x2a build/usbd_conf.o
                0x0000000008001d9c                HAL_PCD_SetupStageCallback
 .text.HAL_PCD_DataOutStageCallback
                0x0000000008001dc6       0x3a build/usbd_conf.o
                0x0000000008001dc6                HAL_PCD_DataOutStageCallback
 .text.HAL_PCD_DataInStageCallback
                0x0000000008001e00       0x36 build/usbd_conf.o
                0x0000000008001e00                HAL_PCD_DataInStageCallback
 .text.HAL_PCD_SOFCallback
                0x0000000008001e36       0x1e build/usbd_conf.o
                0x0000000008001e36                HAL_PCD_SOFCallback
 .text.HAL_PCD_ResetCallback
                0x0000000008001e54       0x58 build/usbd_conf.o
                0x0000000008001e54                HAL_PCD_ResetCallback
 .text.HAL_PCD_SuspendCallback
                0x0000000008001eac       0x38 build/usbd_conf.o
                0x0000000008001eac                HAL_PCD_SuspendCallback
 .text.HAL_PCD_ResumeCallback
                0x0000000008001ee4       0x3c build/usbd_conf.o
                0x0000000008001ee4                HAL_PCD_ResumeCallback
 .text.USBD_LL_Init
                0x0000000008001f20       0xcc build/usbd_conf.o
                0x0000000008001f20                USBD_LL_Init
 .text.USBD_LL_Start
                0x0000000008001fec       0x8a build/usbd_conf.o
                0x0000000008001fec                USBD_LL_Start
 .text.USBD_LL_OpenEP
                0x0000000008002076       0xae build/usbd_conf.o
                0x0000000008002076                USBD_LL_OpenEP
 .text.USBD_LL_CloseEP
                0x0000000008002124       0x96 build/usbd_conf.o
                0x0000000008002124                USBD_LL_CloseEP
 .text.USBD_LL_StallEP
                0x00000000080021ba       0x96 build/usbd_conf.o
                0x00000000080021ba                USBD_LL_StallEP
 .text.USBD_LL_ClearStallEP
                0x0000000008002250       0x96 build/usbd_conf.o
                0x0000000008002250                USBD_LL_ClearStallEP
 .text.USBD_LL_IsStallEP
                0x00000000080022e6       0x56 build/usbd_conf.o
                0x00000000080022e6                USBD_LL_IsStallEP
 .text.USBD_LL_SetUSBAddress
                0x000000000800233c       0x96 build/usbd_conf.o
                0x000000000800233c                USBD_LL_SetUSBAddress
 .text.USBD_LL_Transmit
                0x00000000080023d2       0xae build/usbd_conf.o
                0x00000000080023d2                USBD_LL_Transmit
 .text.USBD_LL_PrepareReceive
                0x0000000008002480       0xae build/usbd_conf.o
                0x0000000008002480                USBD_LL_PrepareReceive
 .text.USBD_LL_GetRxDataSize
                0x000000000800252e       0x2c build/usbd_conf.o
                0x000000000800252e                USBD_LL_GetRxDataSize
 *fill*         0x000000000800255a        0x2 
 .text.USBD_static_malloc
                0x000000000800255c       0x18 build/usbd_conf.o
                0x000000000800255c                USBD_static_malloc
 .text.USBD_static_free
                0x0000000008002574       0x10 build/usbd_conf.o
                0x0000000008002574                USBD_static_free
 .text.SystemClockConfig_Resume
                0x0000000008002584        0xe build/usbd_conf.o
 *fill*         0x0000000008002592        0x2 
 .text.USBD_FS_DeviceDescriptor
                0x0000000008002594       0x24 build/usbd_desc.o
                0x0000000008002594                USBD_FS_DeviceDescriptor
 .text.USBD_FS_LangIDStrDescriptor
                0x00000000080025b8       0x24 build/usbd_desc.o
                0x00000000080025b8                USBD_FS_LangIDStrDescriptor
 .text.USBD_FS_ProductStrDescriptor
                0x00000000080025dc       0x44 build/usbd_desc.o
                0x00000000080025dc                USBD_FS_ProductStrDescriptor
 .text.USBD_FS_ManufacturerStrDescriptor
                0x0000000008002620       0x2c build/usbd_desc.o
                0x0000000008002620                USBD_FS_ManufacturerStrDescriptor
 .text.USBD_FS_SerialStrDescriptor
                0x000000000800264c       0x44 build/usbd_desc.o
                0x000000000800264c                USBD_FS_SerialStrDescriptor
 .text.USBD_FS_ConfigStrDescriptor
                0x0000000008002690       0x44 build/usbd_desc.o
                0x0000000008002690                USBD_FS_ConfigStrDescriptor
 .text.USBD_FS_InterfaceStrDescriptor
                0x00000000080026d4       0x44 build/usbd_desc.o
                0x00000000080026d4                USBD_FS_InterfaceStrDescriptor
 .text.CDC_Init_FS
                0x0000000008002718       0x38 build/usbd_cdc_if.o
 .text.CDC_DeInit_FS
                0x0000000008002750        0xc build/usbd_cdc_if.o
 .text.CDC_Control_FS
                0x000000000800275c       0x44 build/usbd_cdc_if.o
 .text.CDC_Receive_FS
                0x00000000080027a0       0x3c build/usbd_cdc_if.o
 .text.VCP_read
                0x00000000080027dc       0xac build/usbd_cdc_if.o
                0x00000000080027dc                VCP_read
 .text.VCP_write
                0x0000000008002888       0xbc build/usbd_cdc_if.o
                0x0000000008002888                VCP_write
 .text.NMI_Handler
                0x0000000008002944        0xa build/stm32l0xx_it.o
                0x0000000008002944                NMI_Handler
 .text.HardFault_Handler
                0x000000000800294e        0x6 build/stm32l0xx_it.o
                0x000000000800294e                HardFault_Handler
 .text.SVC_Handler
                0x0000000008002954        0xa build/stm32l0xx_it.o
                0x0000000008002954                SVC_Handler
 .text.PendSV_Handler
                0x000000000800295e        0xa build/stm32l0xx_it.o
                0x000000000800295e                PendSV_Handler
 .text.SysTick_Handler
                0x0000000008002968        0xe build/stm32l0xx_it.o
                0x0000000008002968                SysTick_Handler
 *fill*         0x0000000008002976        0x2 
 .text.USB_IRQHandler
                0x0000000008002978       0x18 build/stm32l0xx_it.o
                0x0000000008002978                USB_IRQHandler
 .text.HAL_MspInit
                0x0000000008002990       0x28 build/stm32l0xx_hal_msp.o
                0x0000000008002990                HAL_MspInit
 .text.HAL_PCD_Init
                0x00000000080029b8      0x20c build/stm32l0xx_hal_pcd.o
                0x00000000080029b8                HAL_PCD_Init
 .text.HAL_PCD_Start
                0x0000000008002bc4       0x4a build/stm32l0xx_hal_pcd.o
                0x0000000008002bc4                HAL_PCD_Start
 *fill*         0x0000000008002c0e        0x2 
 .text.HAL_PCD_IRQHandler
                0x0000000008002c10      0x310 build/stm32l0xx_hal_pcd.o
                0x0000000008002c10                HAL_PCD_IRQHandler
 .text.HAL_PCD_SetAddress
                0x0000000008002f20       0x56 build/stm32l0xx_hal_pcd.o
                0x0000000008002f20                HAL_PCD_SetAddress
 .text.HAL_PCD_EP_Open
                0x0000000008002f76       0xe4 build/stm32l0xx_hal_pcd.o
                0x0000000008002f76                HAL_PCD_EP_Open
 .text.HAL_PCD_EP_Close
                0x000000000800305a       0x96 build/stm32l0xx_hal_pcd.o
                0x000000000800305a                HAL_PCD_EP_Close
 .text.HAL_PCD_EP_Receive
                0x00000000080030f0       0x86 build/stm32l0xx_hal_pcd.o
                0x00000000080030f0                HAL_PCD_EP_Receive
 .text.HAL_PCD_EP_GetRxCount
                0x0000000008003176       0x2a build/stm32l0xx_hal_pcd.o
                0x0000000008003176                HAL_PCD_EP_GetRxCount
 .text.HAL_PCD_EP_Transmit
                0x00000000080031a0       0x84 build/stm32l0xx_hal_pcd.o
                0x00000000080031a0                HAL_PCD_EP_Transmit
 .text.HAL_PCD_EP_SetStall
                0x0000000008003224       0xcc build/stm32l0xx_hal_pcd.o
                0x0000000008003224                HAL_PCD_EP_SetStall
 .text.HAL_PCD_EP_ClrStall
                0x00000000080032f0       0xb0 build/stm32l0xx_hal_pcd.o
                0x00000000080032f0                HAL_PCD_EP_ClrStall
 .text.PCD_EP_ISR_Handler
                0x00000000080033a0      0x5a8 build/stm32l0xx_hal_pcd.o
 .text.HAL_PCDEx_PMAConfig
                0x0000000008003948       0x92 build/stm32l0xx_hal_pcd_ex.o
                0x0000000008003948                HAL_PCDEx_PMAConfig
 .text.HAL_PCDEx_ActivateBCD
                0x00000000080039da       0x4a build/stm32l0xx_hal_pcd_ex.o
                0x00000000080039da                HAL_PCDEx_ActivateBCD
 .text.HAL_PCDEx_ActivateLPM
                0x0000000008003a24       0x54 build/stm32l0xx_hal_pcd_ex.o
                0x0000000008003a24                HAL_PCDEx_ActivateLPM
 .text.HAL_PCDEx_LPM_Callback
                0x0000000008003a78       0x16 build/stm32l0xx_hal_pcd_ex.o
                0x0000000008003a78                HAL_PCDEx_LPM_Callback
 *fill*         0x0000000008003a8e        0x2 
 .text.USB_EnableGlobalInt
                0x0000000008003a90       0x38 build/stm32l0xx_ll_usb.o
                0x0000000008003a90                USB_EnableGlobalInt
 .text.USB_DisableGlobalInt
                0x0000000008003ac8       0x40 build/stm32l0xx_ll_usb.o
                0x0000000008003ac8                USB_DisableGlobalInt
 .text.USB_DevInit
                0x0000000008003b08       0x60 build/stm32l0xx_ll_usb.o
                0x0000000008003b08                USB_DevInit
 .text.USB_ActivateEndpoint
                0x0000000008003b68      0x5e8 build/stm32l0xx_ll_usb.o
                0x0000000008003b68                USB_ActivateEndpoint
 .text.USB_DeactivateEndpoint
                0x0000000008004150      0x2ec build/stm32l0xx_ll_usb.o
                0x0000000008004150                USB_DeactivateEndpoint
 .text.USB_EPStartXfer
                0x000000000800443c      0x560 build/stm32l0xx_ll_usb.o
                0x000000000800443c                USB_EPStartXfer
 .text.USB_EPSetStall
                0x000000000800499c       0x84 build/stm32l0xx_ll_usb.o
                0x000000000800499c                USB_EPSetStall
 .text.USB_EPClearStall
                0x0000000008004a20      0x118 build/stm32l0xx_ll_usb.o
                0x0000000008004a20                USB_EPClearStall
 .text.USB_SetDevAddress
                0x0000000008004b38       0x28 build/stm32l0xx_ll_usb.o
                0x0000000008004b38                USB_SetDevAddress
 .text.USB_DevConnect
                0x0000000008004b60       0x2c build/stm32l0xx_ll_usb.o
                0x0000000008004b60                USB_DevConnect
 .text.USB_ReadInterrupts
                0x0000000008004b8c       0x1c build/stm32l0xx_ll_usb.o
                0x0000000008004b8c                USB_ReadInterrupts
 .text.USB_EP0_OutStart
                0x0000000008004ba8       0x14 build/stm32l0xx_ll_usb.o
                0x0000000008004ba8                USB_EP0_OutStart
 .text.USB_WritePMA
                0x0000000008004bbc       0x86 build/stm32l0xx_ll_usb.o
                0x0000000008004bbc                USB_WritePMA
 .text.USB_ReadPMA
                0x0000000008004c42       0x9a build/stm32l0xx_ll_usb.o
                0x0000000008004c42                USB_ReadPMA
 .text.HAL_Init
                0x0000000008004cdc       0x40 build/stm32l0xx_hal.o
                0x0000000008004cdc                HAL_Init
 .text.HAL_InitTick
                0x0000000008004d1c       0x54 build/stm32l0xx_hal.o
                0x0000000008004d1c                HAL_InitTick
 .text.HAL_IncTick
                0x0000000008004d70       0x18 build/stm32l0xx_hal.o
                0x0000000008004d70                HAL_IncTick
 .text.HAL_GetTick
                0x0000000008004d88       0x14 build/stm32l0xx_hal.o
                0x0000000008004d88                HAL_GetTick
 .text.HAL_RCC_OscConfig
                0x0000000008004d9c      0x76c build/stm32l0xx_hal_rcc.o
                0x0000000008004d9c                HAL_RCC_OscConfig
 .text.HAL_RCC_ClockConfig
                0x0000000008005508      0x254 build/stm32l0xx_hal_rcc.o
                0x0000000008005508                HAL_RCC_ClockConfig
 .text.HAL_RCC_GetSysClockFreq
                0x000000000800575c       0xe4 build/stm32l0xx_hal_rcc.o
                0x000000000800575c                HAL_RCC_GetSysClockFreq
 .text.HAL_RCCEx_PeriphCLKConfig
                0x0000000008005840      0x284 build/stm32l0xx_hal_rcc_ex.o
                0x0000000008005840                HAL_RCCEx_PeriphCLKConfig
 .text.NVIC_EnableIRQ
                0x0000000008005ac4       0x2c build/stm32l0xx_hal_cortex.o
 .text.NVIC_SetPriority
                0x0000000008005af0       0xdc build/stm32l0xx_hal_cortex.o
 .text.SysTick_Config
                0x0000000008005bcc       0x48 build/stm32l0xx_hal_cortex.o
 .text.HAL_NVIC_SetPriority
                0x0000000008005c14       0x2c build/stm32l0xx_hal_cortex.o
                0x0000000008005c14                HAL_NVIC_SetPriority
 .text.HAL_NVIC_EnableIRQ
                0x0000000008005c40       0x20 build/stm32l0xx_hal_cortex.o
                0x0000000008005c40                HAL_NVIC_EnableIRQ
 .text.HAL_SYSTICK_Config
                0x0000000008005c60       0x1a build/stm32l0xx_hal_cortex.o
                0x0000000008005c60                HAL_SYSTICK_Config
 *fill*         0x0000000008005c7a        0x2 
 .text.SystemInit
                0x0000000008005c7c       0x7c build/system_stm32l0xx.o
                0x0000000008005c7c                SystemInit
 .text.USBD_Init
                0x0000000008005cf8       0x62 build/usbd_core.o
                0x0000000008005cf8                USBD_Init
 .text.USBD_RegisterClass
                0x0000000008005d5a       0x42 build/usbd_core.o
                0x0000000008005d5a                USBD_RegisterClass
 .text.USBD_Start
                0x0000000008005d9c       0x1a build/usbd_core.o
                0x0000000008005d9c                USBD_Start
 .text.USBD_RunTestMode
                0x0000000008005db6       0x12 build/usbd_core.o
                0x0000000008005db6                USBD_RunTestMode
 .text.USBD_SetClassConfig
                0x0000000008005dc8       0x50 build/usbd_core.o
                0x0000000008005dc8                USBD_SetClassConfig
 .text.USBD_ClrClassConfig
                0x0000000008005e18       0x2c build/usbd_core.o
                0x0000000008005e18                USBD_ClrClassConfig
 .text.USBD_LL_SetupStage
                0x0000000008005e44       0xb8 build/usbd_core.o
                0x0000000008005e44                USBD_LL_SetupStage
 .text.USBD_LL_DataOutStage
                0x0000000008005efc      0x106 build/usbd_core.o
                0x0000000008005efc                USBD_LL_DataOutStage
 .text.USBD_LL_DataInStage
                0x0000000008006002      0x17c build/usbd_core.o
                0x0000000008006002                USBD_LL_DataInStage
 .text.USBD_LL_Reset
                0x000000000800617e       0x90 build/usbd_core.o
                0x000000000800617e                USBD_LL_Reset
 .text.USBD_LL_SetSpeed
                0x000000000800620e       0x20 build/usbd_core.o
                0x000000000800620e                USBD_LL_SetSpeed
 *fill*         0x000000000800622e        0x2 
 .text.USBD_LL_Suspend
                0x0000000008006230       0x30 build/usbd_core.o
                0x0000000008006230                USBD_LL_Suspend
 .text.USBD_LL_Resume
                0x0000000008006260       0x24 build/usbd_core.o
                0x0000000008006260                USBD_LL_Resume
 .text.USBD_LL_SOF
                0x0000000008006284       0x3c build/usbd_core.o
                0x0000000008006284                USBD_LL_SOF
 .text.USBD_StdDevReq
                0x00000000080062c0       0xe4 build/usbd_ctlreq.o
                0x00000000080062c0                USBD_StdDevReq
 .text.USBD_StdItfReq
                0x00000000080063a4       0xae build/usbd_ctlreq.o
                0x00000000080063a4                USBD_StdItfReq
 .text.USBD_StdEPReq
                0x0000000008006452      0x37a build/usbd_ctlreq.o
                0x0000000008006452                USBD_StdEPReq
 .text.USBD_GetDescriptor
                0x00000000080067cc      0x224 build/usbd_ctlreq.o
 .text.USBD_SetAddress
                0x00000000080069f0       0xac build/usbd_ctlreq.o
 .text.USBD_SetConfig
                0x0000000008006a9c      0x148 build/usbd_ctlreq.o
 .text.USBD_GetConfig
                0x0000000008006be4       0x74 build/usbd_ctlreq.o
 .text.USBD_GetStatus
                0x0000000008006c58       0x74 build/usbd_ctlreq.o
 .text.USBD_SetFeature
                0x0000000008006ccc       0x2c build/usbd_ctlreq.o
 .text.USBD_ClrFeature
                0x0000000008006cf8       0x4c build/usbd_ctlreq.o
 .text.USBD_ParseSetupRequest
                0x0000000008006d44       0x76 build/usbd_ctlreq.o
                0x0000000008006d44                USBD_ParseSetupRequest
 .text.USBD_CtlError
                0x0000000008006dba       0x26 build/usbd_ctlreq.o
                0x0000000008006dba                USBD_CtlError
 .text.USBD_GetString
                0x0000000008006de0       0xaa build/usbd_ctlreq.o
                0x0000000008006de0                USBD_GetString
 .text.USBD_GetLen
                0x0000000008006e8a       0x3c build/usbd_ctlreq.o
 .text.USBD_CtlSendData
                0x0000000008006ec6       0x40 build/usbd_ioreq.o
                0x0000000008006ec6                USBD_CtlSendData
 .text.USBD_CtlContinueSendData
                0x0000000008006f06       0x26 build/usbd_ioreq.o
                0x0000000008006f06                USBD_CtlContinueSendData
 .text.USBD_CtlPrepareRx
                0x0000000008006f2c       0x48 build/usbd_ioreq.o
                0x0000000008006f2c                USBD_CtlPrepareRx
 .text.USBD_CtlContinueRx
                0x0000000008006f74       0x26 build/usbd_ioreq.o
                0x0000000008006f74                USBD_CtlContinueRx
 .text.USBD_CtlSendStatus
                0x0000000008006f9a       0x28 build/usbd_ioreq.o
                0x0000000008006f9a                USBD_CtlSendStatus
 .text.USBD_CtlReceiveStatus
                0x0000000008006fc2       0x28 build/usbd_ioreq.o
                0x0000000008006fc2                USBD_CtlReceiveStatus
 .text.USBD_CDC_Init
                0x0000000008006fea      0x118 build/usbd_cdc.o
 .text.USBD_CDC_DeInit
                0x0000000008007102       0x88 build/usbd_cdc.o
 *fill*         0x000000000800718a        0x2 
 .text.USBD_CDC_Setup
                0x000000000800718c      0x18c build/usbd_cdc.o
 .text.USBD_CDC_DataIn
                0x0000000008007318       0xb0 build/usbd_cdc.o
 .text.USBD_CDC_DataOut
                0x00000000080073c8       0x6a build/usbd_cdc.o
 *fill*         0x0000000008007432        0x2 
 .text.USBD_CDC_EP0_RxReady
                0x0000000008007434       0x64 build/usbd_cdc.o
 .text.USBD_CDC_GetFSCfgDesc
                0x0000000008007498       0x1c build/usbd_cdc.o
 .text.USBD_CDC_GetHSCfgDesc
                0x00000000080074b4       0x1c build/usbd_cdc.o
 .text.USBD_CDC_GetOtherSpeedCfgDesc
                0x00000000080074d0       0x1c build/usbd_cdc.o
 .text.USBD_CDC_GetDeviceQualifierDescriptor
                0x00000000080074ec       0x1c build/usbd_cdc.o
                0x00000000080074ec                USBD_CDC_GetDeviceQualifierDescriptor
 .text.USBD_CDC_RegisterInterface
                0x0000000008007508       0x38 build/usbd_cdc.o
                0x0000000008007508                USBD_CDC_RegisterInterface
 .text.USBD_CDC_SetTxBuffer
                0x0000000008007540       0x38 build/usbd_cdc.o
                0x0000000008007540                USBD_CDC_SetTxBuffer
 .text.USBD_CDC_SetRxBuffer
                0x0000000008007578       0x28 build/usbd_cdc.o
                0x0000000008007578                USBD_CDC_SetRxBuffer
 .text.USBD_CDC_TransmitPacket
                0x00000000080075a0       0x6e build/usbd_cdc.o
                0x00000000080075a0                USBD_CDC_TransmitPacket
 .text.USBD_CDC_ReceivePacket
                0x000000000800760e       0x5c build/usbd_cdc.o
                0x000000000800760e                USBD_CDC_ReceivePacket
 *fill*         0x000000000800766a        0x2 
 .text.Reset_Handler
                0x000000000800766c       0x50 build/startup_stm32l052xx.o
                0x000000000800766c                Reset_Handler
 .text.Default_Handler
                0x00000000080076bc        0x2 build/startup_stm32l052xx.o
                0x00000000080076bc                TSC_IRQHandler
                0x00000000080076bc                ADC1_COMP_IRQHandler
                0x00000000080076bc                PVD_IRQHandler
                0x00000000080076bc                I2C1_IRQHandler
                0x00000000080076bc                RCC_CRS_IRQHandler
                0x00000000080076bc                SPI1_IRQHandler
                0x00000000080076bc                TIM6_DAC_IRQHandler
                0x00000000080076bc                EXTI2_3_IRQHandler
                0x00000000080076bc                I2C2_IRQHandler
                0x00000000080076bc                RTC_IRQHandler
                0x00000000080076bc                DMA1_Channel4_5_6_7_IRQHandler
                0x00000000080076bc                EXTI4_15_IRQHandler
                0x00000000080076bc                DMA1_Channel1_IRQHandler
                0x00000000080076bc                Default_Handler
                0x00000000080076bc                TIM22_IRQHandler
                0x00000000080076bc                EXTI0_1_IRQHandler
                0x00000000080076bc                SPI2_IRQHandler
                0x00000000080076bc                TIM21_IRQHandler
                0x00000000080076bc                WWDG_IRQHandler
                0x00000000080076bc                TIM2_IRQHandler
                0x00000000080076bc                DMA1_Channel2_3_IRQHandler
                0x00000000080076bc                USART2_IRQHandler
                0x00000000080076bc                FLASH_IRQHandler
                0x00000000080076bc                USART1_IRQHandler
                0x00000000080076bc                RNG_LPUART1_IRQHandler
                0x00000000080076bc                LPTIM1_IRQHandler
 *(.glue_7)
 .glue_7        0x00000000080076be        0x0 linker stubs
 *(.glue_7t)
 .glue_7t       0x00000000080076be        0x0 linker stubs
 *(.eh_frame)
 *fill*         0x00000000080076be        0x2 
 .eh_frame      0x00000000080076c0        0x0 /usr/lib/gcc/arm-none-eabi/6.3.1/thumb/v6-m/crtbegin.o
 *(.init)
 .init          0x00000000080076c0        0x4 /usr/lib/gcc/arm-none-eabi/6.3.1/thumb/v6-m/crti.o
                0x00000000080076c0                _init
 .init          0x00000000080076c4        0x8 /usr/lib/gcc/arm-none-eabi/6.3.1/thumb/v6-m/crtn.o
 *(.fini)
 .fini          0x00000000080076cc        0x4 /usr/lib/gcc/arm-none-eabi/6.3.1/thumb/v6-m/crti.o
                0x00000000080076cc                _fini
 .fini          0x00000000080076d0        0x8 /usr/lib/gcc/arm-none-eabi/6.3.1/thumb/v6-m/crtn.o
                0x00000000080076d8                . = ALIGN (0x4)
                0x00000000080076d8                _etext = .

.vfp11_veneer   0x00000000080076d8        0x0
 .vfp11_veneer  0x00000000080076d8        0x0 linker stubs

.v4_bx          0x00000000080076d8        0x0
 .v4_bx         0x00000000080076d8        0x0 linker stubs

.iplt           0x00000000080076d8        0x0
 .iplt          0x00000000080076d8        0x0 /usr/lib/gcc/arm-none-eabi/6.3.1/thumb/v6-m/crtbegin.o

.rodata         0x00000000080076d8      0x2ec
                0x00000000080076d8                . = ALIGN (0x4)
 *(.rodata)
 .rodata        0x00000000080076d8       0x4c build/main.o
 .rodata        0x0000000008007724       0x42 build/usbd_desc.o
 *fill*         0x0000000008007766        0x2 
 .rodata        0x0000000008007768      0x101 /usr/lib/gcc/arm-none-eabi/6.3.1/../../../arm-none-eabi/lib/thumb/v6-m/libc_nano.a(lib_a-ctype_.o)
                0x0000000008007768                _ctype_
 *(.rodata*)
 *fill*         0x0000000008007869        0x3 
 .rodata.CDC_Control_FS
                0x000000000800786c       0x90 build/usbd_cdc_if.o
 .rodata.AHBPrescTable
                0x00000000080078fc       0x10 build/system_stm32l0xx.o
                0x00000000080078fc                AHBPrescTable
 .rodata.PLLMulTable
                0x000000000800790c        0x9 build/system_stm32l0xx.o
                0x000000000800790c                PLLMulTable
 *fill*         0x0000000008007915        0x3 
 .rodata.USBD_StdDevReq
                0x0000000008007918       0x28 build/usbd_ctlreq.o
 .rodata.USBD_GetDescriptor
                0x0000000008007940       0x38 build/usbd_ctlreq.o
 .rodata.str1.4
                0x0000000008007978        0xe /usr/lib/gcc/arm-none-eabi/6.3.1/../../../arm-none-eabi/lib/thumb/v6-m/libc_nano.a(lib_a-locale.o)
                                         0x12 (size before relaxing)
 *fill*         0x0000000008007986        0x2 
 .rodata.str1.4
                0x0000000008007988       0x13 /usr/lib/gcc/arm-none-eabi/6.3.1/../../../arm-none-eabi/lib/thumb/v6-m/libc_nano.a(lib_a-nano-svfprintf.o)
 *fill*         0x000000000800799b        0x1 
 .rodata.str1.4
                0x000000000800799c       0x28 /usr/lib/gcc/arm-none-eabi/6.3.1/../../../arm-none-eabi/lib/thumb/v6-m/libc_nano.a(lib_a-nano-vfprintf_i.o)
                                         0x25 (size before relaxing)
                0x00000000080079c4                . = ALIGN (0x4)

.rel.dyn        0x00000000080079c4        0x0
 .rel.iplt      0x00000000080079c4        0x0 /usr/lib/gcc/arm-none-eabi/6.3.1/thumb/v6-m/crtbegin.o

.ARM.extab
 *(.ARM.extab* .gnu.linkonce.armextab.*)

.ARM            0x00000000080079c4        0x0
                0x00000000080079c4                __exidx_start = .
 *(.ARM.exidx*)
                0x00000000080079c4                __exidx_end = .

.preinit_array  0x00000000080079c4        0x0
                0x00000000080079c4                PROVIDE (__preinit_array_start, .)
 *(.preinit_array*)
                0x00000000080079c4                PROVIDE (__preinit_array_end, .)

.init_array     0x00000000080079c4        0x4
                0x00000000080079c4                PROVIDE (__init_array_start, .)
 *(SORT(.init_array.*))
 *(.init_array*)
 .init_array    0x00000000080079c4        0x4 /usr/lib/gcc/arm-none-eabi/6.3.1/thumb/v6-m/crtbegin.o
                0x00000000080079c8                PROVIDE (__init_array_end, .)

.fini_array     0x00000000080079c8        0x4
                0x00000000080079c8                PROVIDE (__fini_array_start, .)
 *(SORT(.fini_array.*))
 *(.fini_array*)
 .fini_array    0x00000000080079c8        0x4 /usr/lib/gcc/arm-none-eabi/6.3.1/thumb/v6-m/crtbegin.o
                0x00000000080079cc                PROVIDE (__fini_array_end, .)
                0x00000000080079cc                _sidata = LOADADDR (.data)

.data           0x0000000020000000      0x32c load address 0x00000000080079cc
                0x0000000020000000                . = ALIGN (0x4)
                0x0000000020000000                _sdata = .
 *(.data)
 .data          0x0000000020000000       0x64 /usr/lib/gcc/arm-none-eabi/6.3.1/../../../arm-none-eabi/lib/thumb/v6-m/libc_nano.a(lib_a-impure.o)
                0x0000000020000000                _impure_ptr
 .data          0x0000000020000064      0x16c /usr/lib/gcc/arm-none-eabi/6.3.1/../../../arm-none-eabi/lib/thumb/v6-m/libc_nano.a(lib_a-locale.o)
                0x0000000020000064                __global_locale
 *(.data*)
 .data.RxbufPoint
                0x00000000200001d0        0x4 build/main.o
                0x00000000200001d0                RxbufPoint
 .data.FS_Desc  0x00000000200001d4       0x1c build/usbd_desc.o
                0x00000000200001d4                FS_Desc
 .data.USBD_FS_DeviceDesc
                0x00000000200001f0       0x12 build/usbd_desc.o
                0x00000000200001f0                USBD_FS_DeviceDesc
 *fill*         0x0000000020000202        0x2 
 .data.USBD_LangIDDesc
                0x0000000020000204        0x4 build/usbd_desc.o
                0x0000000020000204                USBD_LangIDDesc
 .data.USBD_Interface_fops_FS
                0x0000000020000208       0x10 build/usbd_cdc_if.o
                0x0000000020000208                USBD_Interface_fops_FS
 .data.SystemCoreClock
                0x0000000020000218        0x4 build/system_stm32l0xx.o
                0x0000000020000218                SystemCoreClock
 .data.USBD_CDC_DeviceQualifierDesc
                0x000000002000021c        0xa build/usbd_cdc.o
 *fill*         0x0000000020000226        0x2 
 .data.USBD_CDC
                0x0000000020000228       0x38 build/usbd_cdc.o
                0x0000000020000228                USBD_CDC
 .data.USBD_CDC_CfgHSDesc
                0x0000000020000260       0x43 build/usbd_cdc.o
                0x0000000020000260                USBD_CDC_CfgHSDesc
 *fill*         0x00000000200002a3        0x1 
 .data.USBD_CDC_CfgFSDesc
                0x00000000200002a4       0x43 build/usbd_cdc.o
                0x00000000200002a4                USBD_CDC_CfgFSDesc
 *fill*         0x00000000200002e7        0x1 
 .data.USBD_CDC_OtherSpeedCfgDesc
                0x00000000200002e8       0x43 build/usbd_cdc.o
                0x00000000200002e8                USBD_CDC_OtherSpeedCfgDesc
                0x000000002000032c                . = ALIGN (0x4)
 *fill*         0x000000002000032b        0x1 
                0x000000002000032c                _edata = .

.jcr            0x000000002000032c        0x0 load address 0x0000000008007cf8
 .jcr           0x000000002000032c        0x0 /usr/lib/gcc/arm-none-eabi/6.3.1/thumb/v6-m/crtbegin.o

.tm_clone_table
                0x000000002000032c        0x0 load address 0x0000000008007cf8
 .tm_clone_table
                0x000000002000032c        0x0 /usr/lib/gcc/arm-none-eabi/6.3.1/thumb/v6-m/crtbegin.o
 .tm_clone_table
                0x000000002000032c        0x0 /usr/lib/gcc/arm-none-eabi/6.3.1/thumb/v6-m/crtend.o

.igot.plt       0x000000002000032c        0x0 load address 0x0000000008007cf8
 .igot.plt      0x000000002000032c        0x0 /usr/lib/gcc/arm-none-eabi/6.3.1/thumb/v6-m/crtbegin.o
                0x000000002000032c                . = ALIGN (0x4)

.bss            0x000000002000032c      0xbb8 load address 0x0000000008007cf8
                0x000000002000032c                _sbss = .
                0x000000002000032c                __bss_start__ = _sbss
 *(.bss)
 .bss           0x000000002000032c       0x1c /usr/lib/gcc/arm-none-eabi/6.3.1/thumb/v6-m/crtbegin.o
 .bss           0x0000000020000348        0x8 /usr/lib/gcc/arm-none-eabi/6.3.1/../../../arm-none-eabi/lib/thumb/v6-m/libc_nano.a(lib_a-nano-mallocr.o)
                0x0000000020000348                __malloc_free_list
                0x000000002000034c                __malloc_sbrk_start
 .bss           0x0000000020000350        0x4 /usr/lib/gcc/arm-none-eabi/6.3.1/../../../arm-none-eabi/lib/thumb/v6-m/libnosys.a(sbrk.o)
 *(.bss*)
 .bss.value_point
                0x0000000020000354        0x4 build/main.o
                0x0000000020000354                value_point
 .bss.mem.8248  0x0000000020000358      0x220 build/usbd_conf.o
 .bss.s_RxBuffer
                0x0000000020000578      0x20c build/usbd_cdc_if.o
 .bss.g_ComPortOpen
                0x0000000020000784        0x1 build/usbd_cdc_if.o
                0x0000000020000784                g_ComPortOpen
 .bss.cfgidx.8109
                0x0000000020000785        0x1 build/usbd_ctlreq.o
 *(COMMON)
 *fill*         0x0000000020000786        0x2 
 COMMON         0x0000000020000788       0x32 build/main.o
                0x0000000020000788                x
                0x000000002000078c                imon
                0x0000000020000791                got_match
                0x0000000020000794                ADC_CONVERT
                0x0000000020000798                temp
                0x000000002000079e                int_value
                0x00000000200007a0                val
                0x00000000200007a1                is_equal
                0x00000000200007a4                Rxbuffer
                0x00000000200007b0                ADC_array
                0x00000000200007b8                load
 *fill*         0x00000000200007ba        0x2 
 COMMON         0x00000000200007bc      0x29c build/usb_device.o
                0x00000000200007bc                hUsbDeviceFS
 COMMON         0x0000000020000a58      0x274 build/usbd_conf.o
                0x0000000020000a58                hpcd_USB_FS
 COMMON         0x0000000020000ccc      0x200 build/usbd_desc.o
                0x0000000020000ccc                USBD_StrDesc
 COMMON         0x0000000020000ecc        0xd build/usbd_cdc_if.o
                0x0000000020000ecc                hUsbDevice_0
                0x0000000020000ed0                UserRxBufferFS
                0x0000000020000ed4                UserTxBufferFS
                0x0000000020000ed8                g_VCPInitialized
 *fill*         0x0000000020000ed9        0x3 
 COMMON         0x0000000020000edc        0x4 build/stm32l0xx_hal.o
                0x0000000020000edc                uwTick
 COMMON         0x0000000020000ee0        0x4 /usr/lib/gcc/arm-none-eabi/6.3.1/../../../arm-none-eabi/lib/thumb/v6-m/libc_nano.a(lib_a-reent.o)
                0x0000000020000ee0                errno
                0x0000000020000ee4                . = ALIGN (0x4)
                0x0000000020000ee4                _ebss = .
                0x0000000020000ee4                __bss_end__ = _ebss

._user_heap_stack
                0x0000000020000ee4      0x604 load address 0x0000000008007cf8
                0x0000000020000ee8                . = ALIGN (0x8)
 *fill*         0x0000000020000ee4        0x4 
                0x0000000020000ee8                PROVIDE (end, .)
                [!provide]                        PROVIDE (_end, .)
                0x00000000200010e8                . = (. + _Min_Heap_Size)
 *fill*         0x0000000020000ee8      0x200 
                0x00000000200014e8                . = (. + _Min_Stack_Size)
 *fill*         0x00000000200010e8      0x400 
                0x00000000200014e8                . = ALIGN (0x8)

/DISCARD/
 libc.a(*)
 libm.a(*)
 libgcc.a(*)

.ARM.attributes
                0x0000000000000000       0x28
 *(.ARM.attributes)
 .ARM.attributes
                0x0000000000000000       0x1e /usr/lib/gcc/arm-none-eabi/6.3.1/thumb/v6-m/crti.o
 .ARM.attributes
                0x000000000000001e       0x2c /usr/lib/gcc/arm-none-eabi/6.3.1/thumb/v6-m/crtbegin.o
 .ARM.attributes
                0x000000000000004a       0x32 build/main.o
 .ARM.attributes
                0x000000000000007c       0x32 build/gpio.o
 .ARM.attributes
                0x00000000000000ae       0x32 build/adc.o
 .ARM.attributes
                0x00000000000000e0       0x32 build/dac.o
 .ARM.attributes
                0x0000000000000112       0x32 build/usb_device.o
 .ARM.attributes
                0x0000000000000144       0x32 build/usbd_conf.o
 .ARM.attributes
                0x0000000000000176       0x32 build/usbd_desc.o
 .ARM.attributes
                0x00000000000001a8       0x32 build/usbd_cdc_if.o
 .ARM.attributes
                0x00000000000001da       0x32 build/stm32l0xx_it.o
 .ARM.attributes
                0x000000000000020c       0x32 build/stm32l0xx_hal_msp.o
 .ARM.attributes
                0x000000000000023e       0x32 build/stm32l0xx_hal_pcd.o
 .ARM.attributes
                0x0000000000000270       0x32 build/stm32l0xx_hal_pcd_ex.o
 .ARM.attributes
                0x00000000000002a2       0x32 build/stm32l0xx_ll_usb.o
 .ARM.attributes
                0x00000000000002d4       0x32 build/stm32l0xx_hal.o
 .ARM.attributes
                0x0000000000000306       0x32 build/stm32l0xx_hal_rcc.o
 .ARM.attributes
                0x0000000000000338       0x32 build/stm32l0xx_hal_rcc_ex.o
 .ARM.attributes
                0x000000000000036a       0x32 build/stm32l0xx_hal_cortex.o
 .ARM.attributes
                0x000000000000039c       0x32 build/system_stm32l0xx.o
 .ARM.attributes
                0x00000000000003ce       0x32 build/usbd_core.o
 .ARM.attributes
                0x0000000000000400       0x32 build/usbd_ctlreq.o
 .ARM.attributes
                0x0000000000000432       0x32 build/usbd_ioreq.o
 .ARM.attributes
                0x0000000000000464       0x32 build/usbd_cdc.o
 .ARM.attributes
                0x0000000000000496       0x22 build/startup_stm32l052xx.o
 .ARM.attributes
                0x00000000000004b8       0x2c /usr/lib/gcc/arm-none-eabi/6.3.1/../../../arm-none-eabi/lib/thumb/v6-m/libc_nano.a(lib_a-impure.o)
 .ARM.attributes
                0x00000000000004e4       0x2c /usr/lib/gcc/arm-none-eabi/6.3.1/../../../arm-none-eabi/lib/thumb/v6-m/libc_nano.a(lib_a-init.o)
 .ARM.attributes
                0x0000000000000510       0x2c /usr/lib/gcc/arm-none-eabi/6.3.1/../../../arm-none-eabi/lib/thumb/v6-m/libc_nano.a(lib_a-memcmp.o)
 .ARM.attributes
                0x000000000000053c       0x2c /usr/lib/gcc/arm-none-eabi/6.3.1/../../../arm-none-eabi/lib/thumb/v6-m/libc_nano.a(lib_a-memcpy-stub.o)
 .ARM.attributes
                0x0000000000000568       0x2c /usr/lib/gcc/arm-none-eabi/6.3.1/../../../arm-none-eabi/lib/thumb/v6-m/libc_nano.a(lib_a-memset.o)
 .ARM.attributes
                0x0000000000000594       0x2c /usr/lib/gcc/arm-none-eabi/6.3.1/../../../arm-none-eabi/lib/thumb/v6-m/libc_nano.a(lib_a-sprintf.o)
 .ARM.attributes
                0x00000000000005c0       0x2c /usr/lib/gcc/arm-none-eabi/6.3.1/../../../arm-none-eabi/lib/thumb/v6-m/libc_nano.a(lib_a-strtol.o)
 .ARM.attributes
                0x00000000000005ec       0x2c /usr/lib/gcc/arm-none-eabi/6.3.1/../../../arm-none-eabi/lib/thumb/v6-m/libc_nano.a(lib_a-locale.o)
 .ARM.attributes
                0x0000000000000618       0x2c /usr/lib/gcc/arm-none-eabi/6.3.1/../../../arm-none-eabi/lib/thumb/v6-m/libc_nano.a(lib_a-mbtowc_r.o)
 .ARM.attributes
                0x0000000000000644       0x2c /usr/lib/gcc/arm-none-eabi/6.3.1/../../../arm-none-eabi/lib/thumb/v6-m/libc_nano.a(lib_a-nano-svfprintf.o)
 .ARM.attributes
                0x0000000000000670       0x2c /usr/lib/gcc/arm-none-eabi/6.3.1/../../../arm-none-eabi/lib/thumb/v6-m/libc_nano.a(lib_a-nano-vfprintf_i.o)
 .ARM.attributes
                0x000000000000069c       0x1b /usr/lib/gcc/arm-none-eabi/6.3.1/../../../arm-none-eabi/lib/thumb/v6-m/libc_nano.a(lib_a-strcmp.o)
 .ARM.attributes
                0x00000000000006b7       0x2c /usr/lib/gcc/arm-none-eabi/6.3.1/../../../arm-none-eabi/lib/thumb/v6-m/libc_nano.a(lib_a-wctomb_r.o)
 .ARM.attributes
                0x00000000000006e3       0x2c /usr/lib/gcc/arm-none-eabi/6.3.1/../../../arm-none-eabi/lib/thumb/v6-m/libc_nano.a(lib_a-ctype_.o)
 .ARM.attributes
                0x000000000000070f       0x2c /usr/lib/gcc/arm-none-eabi/6.3.1/../../../arm-none-eabi/lib/thumb/v6-m/libc_nano.a(lib_a-memchr-stub.o)
 .ARM.attributes
                0x000000000000073b       0x2c /usr/lib/gcc/arm-none-eabi/6.3.1/../../../arm-none-eabi/lib/thumb/v6-m/libc_nano.a(lib_a-memmove.o)
 .ARM.attributes
                0x0000000000000767       0x2c /usr/lib/gcc/arm-none-eabi/6.3.1/../../../arm-none-eabi/lib/thumb/v6-m/libc_nano.a(lib_a-nano-freer.o)
 .ARM.attributes
                0x0000000000000793       0x2c /usr/lib/gcc/arm-none-eabi/6.3.1/../../../arm-none-eabi/lib/thumb/v6-m/libc_nano.a(lib_a-nano-mallocr.o)
 .ARM.attributes
                0x00000000000007bf       0x2c /usr/lib/gcc/arm-none-eabi/6.3.1/../../../arm-none-eabi/lib/thumb/v6-m/libc_nano.a(lib_a-nano-reallocr.o)
 .ARM.attributes
                0x00000000000007eb       0x2c /usr/lib/gcc/arm-none-eabi/6.3.1/../../../arm-none-eabi/lib/thumb/v6-m/libc_nano.a(lib_a-sbrkr.o)
 .ARM.attributes
                0x0000000000000817       0x2c /usr/lib/gcc/arm-none-eabi/6.3.1/../../../arm-none-eabi/lib/thumb/v6-m/libc_nano.a(lib_a-mlock.o)
 .ARM.attributes
                0x0000000000000843       0x2c /usr/lib/gcc/arm-none-eabi/6.3.1/../../../arm-none-eabi/lib/thumb/v6-m/libc_nano.a(lib_a-nano-msizer.o)
 .ARM.attributes
                0x000000000000086f       0x2c /usr/lib/gcc/arm-none-eabi/6.3.1/../../../arm-none-eabi/lib/thumb/v6-m/libc_nano.a(lib_a-reent.o)
 .ARM.attributes
                0x000000000000089b       0x2c /usr/lib/gcc/arm-none-eabi/6.3.1/../../../arm-none-eabi/lib/thumb/v6-m/libnosys.a(sbrk.o)
 .ARM.attributes
                0x00000000000008c7       0x1e /usr/lib/gcc/arm-none-eabi/6.3.1/thumb/v6-m/libgcc.a(_udivsi3.o)
 .ARM.attributes
                0x00000000000008e5       0x1e /usr/lib/gcc/arm-none-eabi/6.3.1/thumb/v6-m/libgcc.a(_dvmd_tls.o)
 .ARM.attributes
                0x0000000000000903       0x2c /usr/lib/gcc/arm-none-eabi/6.3.1/thumb/v6-m/crtend.o
 .ARM.attributes
                0x000000000000092f       0x1e /usr/lib/gcc/arm-none-eabi/6.3.1/thumb/v6-m/crtn.o
OUTPUT(build/tb06_wo_y.elf elf32-littlearm)

.comment        0x0000000000000000       0x88
 .comment       0x0000000000000000       0x31 /usr/lib/gcc/arm-none-eabi/6.3.1/thumb/v6-m/crtbegin.o
                                         0x32 (size before relaxing)
 .comment       0x0000000000000031       0x32 build/main.o
 .comment       0x0000000000000031       0x32 build/gpio.o
 .comment       0x0000000000000031       0x32 build/adc.o
 .comment       0x0000000000000031       0x32 build/dac.o
 .comment       0x0000000000000031       0x32 build/usb_device.o
 .comment       0x0000000000000031       0x32 build/usbd_conf.o
 .comment       0x0000000000000031       0x32 build/usbd_desc.o
 .comment       0x0000000000000031       0x32 build/usbd_cdc_if.o
 .comment       0x0000000000000031       0x32 build/stm32l0xx_it.o
 .comment       0x0000000000000031       0x32 build/stm32l0xx_hal_msp.o
 .comment       0x0000000000000031       0x32 build/stm32l0xx_hal_pcd.o
 .comment       0x0000000000000031       0x32 build/stm32l0xx_hal_pcd_ex.o
 .comment       0x0000000000000031       0x32 build/stm32l0xx_ll_usb.o
 .comment       0x0000000000000031       0x32 build/stm32l0xx_hal.o
 .comment       0x0000000000000031       0x32 build/stm32l0xx_hal_rcc.o
 .comment       0x0000000000000031       0x32 build/stm32l0xx_hal_rcc_ex.o
 .comment       0x0000000000000031       0x32 build/stm32l0xx_hal_cortex.o
 .comment       0x0000000000000031       0x32 build/system_stm32l0xx.o
 .comment       0x0000000000000031       0x32 build/usbd_core.o
 .comment       0x0000000000000031       0x32 build/usbd_ctlreq.o
 .comment       0x0000000000000031       0x32 build/usbd_ioreq.o
 .comment       0x0000000000000031       0x32 build/usbd_cdc.o
 .comment       0x0000000000000031       0x57 /usr/lib/gcc/arm-none-eabi/6.3.1/../../../arm-none-eabi/lib/thumb/v6-m/libc_nano.a(lib_a-impure.o)
                                         0x58 (size before relaxing)
 .comment       0x0000000000000088       0x58 /usr/lib/gcc/arm-none-eabi/6.3.1/../../../arm-none-eabi/lib/thumb/v6-m/libc_nano.a(lib_a-init.o)
 .comment       0x0000000000000088       0x58 /usr/lib/gcc/arm-none-eabi/6.3.1/../../../arm-none-eabi/lib/thumb/v6-m/libc_nano.a(lib_a-memcmp.o)
 .comment       0x0000000000000088       0x58 /usr/lib/gcc/arm-none-eabi/6.3.1/../../../arm-none-eabi/lib/thumb/v6-m/libc_nano.a(lib_a-memcpy-stub.o)
 .comment       0x0000000000000088       0x58 /usr/lib/gcc/arm-none-eabi/6.3.1/../../../arm-none-eabi/lib/thumb/v6-m/libc_nano.a(lib_a-memset.o)
 .comment       0x0000000000000088       0x58 /usr/lib/gcc/arm-none-eabi/6.3.1/../../../arm-none-eabi/lib/thumb/v6-m/libc_nano.a(lib_a-sprintf.o)
 .comment       0x0000000000000088       0x58 /usr/lib/gcc/arm-none-eabi/6.3.1/../../../arm-none-eabi/lib/thumb/v6-m/libc_nano.a(lib_a-strtol.o)
 .comment       0x0000000000000088       0x58 /usr/lib/gcc/arm-none-eabi/6.3.1/../../../arm-none-eabi/lib/thumb/v6-m/libc_nano.a(lib_a-locale.o)
 .comment       0x0000000000000088       0x58 /usr/lib/gcc/arm-none-eabi/6.3.1/../../../arm-none-eabi/lib/thumb/v6-m/libc_nano.a(lib_a-mbtowc_r.o)
 .comment       0x0000000000000088       0x58 /usr/lib/gcc/arm-none-eabi/6.3.1/../../../arm-none-eabi/lib/thumb/v6-m/libc_nano.a(lib_a-nano-svfprintf.o)
 .comment       0x0000000000000088       0x58 /usr/lib/gcc/arm-none-eabi/6.3.1/../../../arm-none-eabi/lib/thumb/v6-m/libc_nano.a(lib_a-nano-vfprintf_i.o)
 .comment       0x0000000000000088       0x58 /usr/lib/gcc/arm-none-eabi/6.3.1/../../../arm-none-eabi/lib/thumb/v6-m/libc_nano.a(lib_a-wctomb_r.o)
 .comment       0x0000000000000088       0x58 /usr/lib/gcc/arm-none-eabi/6.3.1/../../../arm-none-eabi/lib/thumb/v6-m/libc_nano.a(lib_a-ctype_.o)
 .comment       0x0000000000000088       0x58 /usr/lib/gcc/arm-none-eabi/6.3.1/../../../arm-none-eabi/lib/thumb/v6-m/libc_nano.a(lib_a-memchr-stub.o)
 .comment       0x0000000000000088       0x58 /usr/lib/gcc/arm-none-eabi/6.3.1/../../../arm-none-eabi/lib/thumb/v6-m/libc_nano.a(lib_a-memmove.o)
 .comment       0x0000000000000088       0x58 /usr/lib/gcc/arm-none-eabi/6.3.1/../../../arm-none-eabi/lib/thumb/v6-m/libc_nano.a(lib_a-nano-freer.o)
 .comment       0x0000000000000088       0x58 /usr/lib/gcc/arm-none-eabi/6.3.1/../../../arm-none-eabi/lib/thumb/v6-m/libc_nano.a(lib_a-nano-mallocr.o)
 .comment       0x0000000000000088       0x58 /usr/lib/gcc/arm-none-eabi/6.3.1/../../../arm-none-eabi/lib/thumb/v6-m/libc_nano.a(lib_a-nano-reallocr.o)
 .comment       0x0000000000000088       0x58 /usr/lib/gcc/arm-none-eabi/6.3.1/../../../arm-none-eabi/lib/thumb/v6-m/libc_nano.a(lib_a-sbrkr.o)
 .comment       0x0000000000000088       0x58 /usr/lib/gcc/arm-none-eabi/6.3.1/../../../arm-none-eabi/lib/thumb/v6-m/libc_nano.a(lib_a-mlock.o)
 .comment       0x0000000000000088       0x58 /usr/lib/gcc/arm-none-eabi/6.3.1/../../../arm-none-eabi/lib/thumb/v6-m/libc_nano.a(lib_a-nano-msizer.o)
 .comment       0x0000000000000088       0x58 /usr/lib/gcc/arm-none-eabi/6.3.1/../../../arm-none-eabi/lib/thumb/v6-m/libc_nano.a(lib_a-reent.o)
 .comment       0x0000000000000088       0x58 /usr/lib/gcc/arm-none-eabi/6.3.1/../../../arm-none-eabi/lib/thumb/v6-m/libnosys.a(sbrk.o)
 .comment       0x0000000000000088       0x32 /usr/lib/gcc/arm-none-eabi/6.3.1/thumb/v6-m/crtend.o

.debug_info     0x0000000000000000    0x24878
 .debug_info    0x0000000000000000     0x170f build/main.o
 .debug_info    0x000000000000170f      0x3b6 build/gpio.o
 .debug_info    0x0000000000001ac5      0x969 build/adc.o
 .debug_info    0x000000000000242e      0x4eb build/dac.o
 .debug_info    0x0000000000002919      0xfa2 build/usb_device.o
 .debug_info    0x00000000000038bb     0x1f2c build/usbd_conf.o
 .debug_info    0x00000000000057e7      0xd3e build/usbd_desc.o
 .debug_info    0x0000000000006525     0x1319 build/usbd_cdc_if.o
 .debug_info    0x000000000000783e      0x6f0 build/stm32l0xx_it.o
 .debug_info    0x0000000000007f2e     0x1278 build/stm32l0xx_hal_msp.o
 .debug_info    0x00000000000091a6      0xf74 build/stm32l0xx_hal_pcd.o
 .debug_info    0x000000000000a11a      0x90d build/stm32l0xx_hal_pcd_ex.o
 .debug_info    0x000000000000aa27     0x15e6 build/stm32l0xx_ll_usb.o
 .debug_info    0x000000000000c00d      0x896 build/stm32l0xx_hal.o
 .debug_info    0x000000000000c8a3      0xa34 build/stm32l0xx_hal_rcc.o
 .debug_info    0x000000000000d2d7      0x8e3 build/stm32l0xx_hal_rcc_ex.o
 .debug_info    0x000000000000dbba      0x99a build/stm32l0xx_hal_cortex.o
 .debug_info    0x000000000000e554      0x3e7 build/system_stm32l0xx.o
 .debug_info    0x000000000000e93b     0x134b build/usbd_core.o
 .debug_info    0x000000000000fc86     0x1286 build/usbd_ctlreq.o
 .debug_info    0x0000000000010f0c     0x106b build/usbd_ioreq.o
 .debug_info    0x0000000000011f77     0x19d5 build/usbd_cdc.o
 .debug_info    0x000000000001394c       0x50 build/startup_stm32l052xx.o
 .debug_info    0x000000000001399c      0x8a4 /usr/lib/gcc/arm-none-eabi/6.3.1/../../../arm-none-eabi/lib/thumb/v6-m/libc_nano.a(lib_a-impure.o)
 .debug_info    0x0000000000014240      0x109 /usr/lib/gcc/arm-none-eabi/6.3.1/../../../arm-none-eabi/lib/thumb/v6-m/libc_nano.a(lib_a-init.o)
 .debug_info    0x0000000000014349      0x918 /usr/lib/gcc/arm-none-eabi/6.3.1/../../../arm-none-eabi/lib/thumb/v6-m/libc_nano.a(lib_a-memcmp.o)
 .debug_info    0x0000000000014c61      0x933 /usr/lib/gcc/arm-none-eabi/6.3.1/../../../arm-none-eabi/lib/thumb/v6-m/libc_nano.a(lib_a-memcpy-stub.o)
 .debug_info    0x0000000000015594      0xe1d /usr/lib/gcc/arm-none-eabi/6.3.1/../../../arm-none-eabi/lib/thumb/v6-m/libc_nano.a(lib_a-memset.o)
 .debug_info    0x00000000000163b1      0xbd2 /usr/lib/gcc/arm-none-eabi/6.3.1/../../../arm-none-eabi/lib/thumb/v6-m/libc_nano.a(lib_a-sprintf.o)
 .debug_info    0x0000000000016f83     0x10c1 /usr/lib/gcc/arm-none-eabi/6.3.1/../../../arm-none-eabi/lib/thumb/v6-m/libc_nano.a(lib_a-strtol.o)
 .debug_info    0x0000000000018044     0x1012 /usr/lib/gcc/arm-none-eabi/6.3.1/../../../arm-none-eabi/lib/thumb/v6-m/libc_nano.a(lib_a-locale.o)
 .debug_info    0x0000000000019056      0xf1d /usr/lib/gcc/arm-none-eabi/6.3.1/../../../arm-none-eabi/lib/thumb/v6-m/libc_nano.a(lib_a-mbtowc_r.o)
 .debug_info    0x0000000000019f73     0x1678 /usr/lib/gcc/arm-none-eabi/6.3.1/../../../arm-none-eabi/lib/thumb/v6-m/libc_nano.a(lib_a-nano-svfprintf.o)
 .debug_info    0x000000000001b5eb     0x142b /usr/lib/gcc/arm-none-eabi/6.3.1/../../../arm-none-eabi/lib/thumb/v6-m/libc_nano.a(lib_a-nano-vfprintf_i.o)
 .debug_info    0x000000000001ca16       0xcd /usr/lib/gcc/arm-none-eabi/6.3.1/../../../arm-none-eabi/lib/thumb/v6-m/libc_nano.a(lib_a-strcmp.o)
 .debug_info    0x000000000001cae3      0xee3 /usr/lib/gcc/arm-none-eabi/6.3.1/../../../arm-none-eabi/lib/thumb/v6-m/libc_nano.a(lib_a-wctomb_r.o)
 .debug_info    0x000000000001d9c6      0xdb1 /usr/lib/gcc/arm-none-eabi/6.3.1/../../../arm-none-eabi/lib/thumb/v6-m/libc_nano.a(lib_a-ctype_.o)
 .debug_info    0x000000000001e777      0x934 /usr/lib/gcc/arm-none-eabi/6.3.1/../../../arm-none-eabi/lib/thumb/v6-m/libc_nano.a(lib_a-memchr-stub.o)
 .debug_info    0x000000000001f0ab      0xe2c /usr/lib/gcc/arm-none-eabi/6.3.1/../../../arm-none-eabi/lib/thumb/v6-m/libc_nano.a(lib_a-memmove.o)
 .debug_info    0x000000000001fed7      0xaba /usr/lib/gcc/arm-none-eabi/6.3.1/../../../arm-none-eabi/lib/thumb/v6-m/libc_nano.a(lib_a-nano-freer.o)
 .debug_info    0x0000000000020991      0xb74 /usr/lib/gcc/arm-none-eabi/6.3.1/../../../arm-none-eabi/lib/thumb/v6-m/libc_nano.a(lib_a-nano-mallocr.o)
 .debug_info    0x0000000000021505      0xac5 /usr/lib/gcc/arm-none-eabi/6.3.1/../../../arm-none-eabi/lib/thumb/v6-m/libc_nano.a(lib_a-nano-reallocr.o)
 .debug_info    0x0000000000021fca      0x95a /usr/lib/gcc/arm-none-eabi/6.3.1/../../../arm-none-eabi/lib/thumb/v6-m/libc_nano.a(lib_a-sbrkr.o)
 .debug_info    0x0000000000022924      0x8d7 /usr/lib/gcc/arm-none-eabi/6.3.1/../../../arm-none-eabi/lib/thumb/v6-m/libc_nano.a(lib_a-mlock.o)
 .debug_info    0x00000000000231fb      0x9fa /usr/lib/gcc/arm-none-eabi/6.3.1/../../../arm-none-eabi/lib/thumb/v6-m/libc_nano.a(lib_a-nano-msizer.o)
 .debug_info    0x0000000000023bf5      0xa75 /usr/lib/gcc/arm-none-eabi/6.3.1/../../../arm-none-eabi/lib/thumb/v6-m/libc_nano.a(lib_a-reent.o)
 .debug_info    0x000000000002466a       0x90 /usr/lib/gcc/arm-none-eabi/6.3.1/../../../arm-none-eabi/lib/thumb/v6-m/libnosys.a(sbrk.o)
 .debug_info    0x00000000000246fa       0xbf /usr/lib/gcc/arm-none-eabi/6.3.1/thumb/v6-m/libgcc.a(_udivsi3.o)
 .debug_info    0x00000000000247b9       0xbf /usr/lib/gcc/arm-none-eabi/6.3.1/thumb/v6-m/libgcc.a(_dvmd_tls.o)

.debug_abbrev   0x0000000000000000     0x57c2
 .debug_abbrev  0x0000000000000000      0x249 build/main.o
 .debug_abbrev  0x0000000000000249       0xf6 build/gpio.o
 .debug_abbrev  0x000000000000033f      0x218 build/adc.o
 .debug_abbrev  0x0000000000000557      0x152 build/dac.o
 .debug_abbrev  0x00000000000006a9      0x1c4 build/usb_device.o
 .debug_abbrev  0x000000000000086d      0x2d6 build/usbd_conf.o
 .debug_abbrev  0x0000000000000b43      0x229 build/usbd_desc.o
 .debug_abbrev  0x0000000000000d6c      0x2b7 build/usbd_cdc_if.o
 .debug_abbrev  0x0000000000001023      0x143 build/stm32l0xx_it.o
 .debug_abbrev  0x0000000000001166      0x1d0 build/stm32l0xx_hal_msp.o
 .debug_abbrev  0x0000000000001336      0x251 build/stm32l0xx_hal_pcd.o
 .debug_abbrev  0x0000000000001587      0x1d9 build/stm32l0xx_hal_pcd_ex.o
 .debug_abbrev  0x0000000000001760      0x236 build/stm32l0xx_ll_usb.o
 .debug_abbrev  0x0000000000001996      0x216 build/stm32l0xx_hal.o
 .debug_abbrev  0x0000000000001bac      0x217 build/stm32l0xx_hal_rcc.o
 .debug_abbrev  0x0000000000001dc3      0x1e7 build/stm32l0xx_hal_rcc_ex.o
 .debug_abbrev  0x0000000000001faa      0x240 build/stm32l0xx_hal_cortex.o
 .debug_abbrev  0x00000000000021ea      0x110 build/system_stm32l0xx.o
 .debug_abbrev  0x00000000000022fa      0x276 build/usbd_core.o
 .debug_abbrev  0x0000000000002570      0x2a6 build/usbd_ctlreq.o
 .debug_abbrev  0x0000000000002816      0x1e6 build/usbd_ioreq.o
 .debug_abbrev  0x00000000000029fc      0x2b5 build/usbd_cdc.o
 .debug_abbrev  0x0000000000002cb1       0x12 build/startup_stm32l052xx.o
 .debug_abbrev  0x0000000000002cc3      0x15c /usr/lib/gcc/arm-none-eabi/6.3.1/../../../arm-none-eabi/lib/thumb/v6-m/libc_nano.a(lib_a-impure.o)
 .debug_abbrev  0x0000000000002e1f       0xba /usr/lib/gcc/arm-none-eabi/6.3.1/../../../arm-none-eabi/lib/thumb/v6-m/libc_nano.a(lib_a-init.o)
 .debug_abbrev  0x0000000000002ed9      0x187 /usr/lib/gcc/arm-none-eabi/6.3.1/../../../arm-none-eabi/lib/thumb/v6-m/libc_nano.a(lib_a-memcmp.o)
 .debug_abbrev  0x0000000000003060      0x1ac /usr/lib/gcc/arm-none-eabi/6.3.1/../../../arm-none-eabi/lib/thumb/v6-m/libc_nano.a(lib_a-memcpy-stub.o)
 .debug_abbrev  0x000000000000320c      0x1a8 /usr/lib/gcc/arm-none-eabi/6.3.1/../../../arm-none-eabi/lib/thumb/v6-m/libc_nano.a(lib_a-memset.o)
 .debug_abbrev  0x00000000000033b4      0x222 /usr/lib/gcc/arm-none-eabi/6.3.1/../../../arm-none-eabi/lib/thumb/v6-m/libc_nano.a(lib_a-sprintf.o)
 .debug_abbrev  0x00000000000035d6      0x285 /usr/lib/gcc/arm-none-eabi/6.3.1/../../../arm-none-eabi/lib/thumb/v6-m/libc_nano.a(lib_a-strtol.o)
 .debug_abbrev  0x000000000000385b      0x24c /usr/lib/gcc/arm-none-eabi/6.3.1/../../../arm-none-eabi/lib/thumb/v6-m/libc_nano.a(lib_a-locale.o)
 .debug_abbrev  0x0000000000003aa7      0x219 /usr/lib/gcc/arm-none-eabi/6.3.1/../../../arm-none-eabi/lib/thumb/v6-m/libc_nano.a(lib_a-mbtowc_r.o)
 .debug_abbrev  0x0000000000003cc0      0x2cc /usr/lib/gcc/arm-none-eabi/6.3.1/../../../arm-none-eabi/lib/thumb/v6-m/libc_nano.a(lib_a-nano-svfprintf.o)
 .debug_abbrev  0x0000000000003f8c      0x2b6 /usr/lib/gcc/arm-none-eabi/6.3.1/../../../arm-none-eabi/lib/thumb/v6-m/libc_nano.a(lib_a-nano-vfprintf_i.o)
 .debug_abbrev  0x0000000000004242       0x14 /usr/lib/gcc/arm-none-eabi/6.3.1/../../../arm-none-eabi/lib/thumb/v6-m/libc_nano.a(lib_a-strcmp.o)
 .debug_abbrev  0x0000000000004256      0x1f7 /usr/lib/gcc/arm-none-eabi/6.3.1/../../../arm-none-eabi/lib/thumb/v6-m/libc_nano.a(lib_a-wctomb_r.o)
 .debug_abbrev  0x000000000000444d      0x15a /usr/lib/gcc/arm-none-eabi/6.3.1/../../../arm-none-eabi/lib/thumb/v6-m/libc_nano.a(lib_a-ctype_.o)
 .debug_abbrev  0x00000000000045a7      0x1a5 /usr/lib/gcc/arm-none-eabi/6.3.1/../../../arm-none-eabi/lib/thumb/v6-m/libc_nano.a(lib_a-memchr-stub.o)
 .debug_abbrev  0x000000000000474c      0x1ad /usr/lib/gcc/arm-none-eabi/6.3.1/../../../arm-none-eabi/lib/thumb/v6-m/libc_nano.a(lib_a-memmove.o)
 .debug_abbrev  0x00000000000048f9      0x22f /usr/lib/gcc/arm-none-eabi/6.3.1/../../../arm-none-eabi/lib/thumb/v6-m/libc_nano.a(lib_a-nano-freer.o)
 .debug_abbrev  0x0000000000004b28      0x295 /usr/lib/gcc/arm-none-eabi/6.3.1/../../../arm-none-eabi/lib/thumb/v6-m/libc_nano.a(lib_a-nano-mallocr.o)
 .debug_abbrev  0x0000000000004dbd      0x1e9 /usr/lib/gcc/arm-none-eabi/6.3.1/../../../arm-none-eabi/lib/thumb/v6-m/libc_nano.a(lib_a-nano-reallocr.o)
 .debug_abbrev  0x0000000000004fa6      0x1df /usr/lib/gcc/arm-none-eabi/6.3.1/../../../arm-none-eabi/lib/thumb/v6-m/libc_nano.a(lib_a-sbrkr.o)
 .debug_abbrev  0x0000000000005185      0x1a1 /usr/lib/gcc/arm-none-eabi/6.3.1/../../../arm-none-eabi/lib/thumb/v6-m/libc_nano.a(lib_a-mlock.o)
 .debug_abbrev  0x0000000000005326      0x1b4 /usr/lib/gcc/arm-none-eabi/6.3.1/../../../arm-none-eabi/lib/thumb/v6-m/libc_nano.a(lib_a-nano-msizer.o)
 .debug_abbrev  0x00000000000054da      0x22e /usr/lib/gcc/arm-none-eabi/6.3.1/../../../arm-none-eabi/lib/thumb/v6-m/libc_nano.a(lib_a-reent.o)
 .debug_abbrev  0x0000000000005708       0x92 /usr/lib/gcc/arm-none-eabi/6.3.1/../../../arm-none-eabi/lib/thumb/v6-m/libnosys.a(sbrk.o)
 .debug_abbrev  0x000000000000579a       0x14 /usr/lib/gcc/arm-none-eabi/6.3.1/thumb/v6-m/libgcc.a(_udivsi3.o)
 .debug_abbrev  0x00000000000057ae       0x14 /usr/lib/gcc/arm-none-eabi/6.3.1/thumb/v6-m/libgcc.a(_dvmd_tls.o)

.debug_loc      0x0000000000000000     0x6a38
 .debug_loc     0x0000000000000000       0xaa build/main.o
 .debug_loc     0x00000000000000aa       0x9c build/gpio.o
 .debug_loc     0x0000000000000146      0x298 build/adc.o
 .debug_loc     0x00000000000003de       0xf4 build/dac.o
 .debug_loc     0x00000000000004d2       0x2c build/usb_device.o
 .debug_loc     0x00000000000004fe      0x6f4 build/usbd_conf.o
 .debug_loc     0x0000000000000bf2      0x188 build/usbd_desc.o
 .debug_loc     0x0000000000000d7a      0x170 build/usbd_cdc_if.o
 .debug_loc     0x0000000000000eea      0x108 build/stm32l0xx_it.o
 .debug_loc     0x0000000000000ff2      0x1ec build/stm32l0xx_hal_msp.o
 .debug_loc     0x00000000000011de      0x739 build/stm32l0xx_hal_pcd.o
 .debug_loc     0x0000000000001917      0x1c0 build/stm32l0xx_hal_pcd_ex.o
 .debug_loc     0x0000000000001ad7      0x6c2 build/stm32l0xx_ll_usb.o
 .debug_loc     0x0000000000002199      0x518 build/stm32l0xx_hal.o
 .debug_loc     0x00000000000026b1      0x290 build/stm32l0xx_hal_rcc.o
 .debug_loc     0x0000000000002941      0x3a4 build/stm32l0xx_hal_rcc_ex.o
 .debug_loc     0x0000000000002ce5      0x504 build/stm32l0xx_hal_cortex.o
 .debug_loc     0x00000000000031e9       0x64 build/system_stm32l0xx.o
 .debug_loc     0x000000000000324d      0x460 build/usbd_core.o
 .debug_loc     0x00000000000036ad      0x310 build/usbd_ctlreq.o
 .debug_loc     0x00000000000039bd      0x188 build/usbd_ioreq.o
 .debug_loc     0x0000000000003b45      0x348 build/usbd_cdc.o
 .debug_loc     0x0000000000003e8d       0x84 /usr/lib/gcc/arm-none-eabi/6.3.1/../../../arm-none-eabi/lib/thumb/v6-m/libc_nano.a(lib_a-init.o)
 .debug_loc     0x0000000000003f11      0x199 /usr/lib/gcc/arm-none-eabi/6.3.1/../../../arm-none-eabi/lib/thumb/v6-m/libc_nano.a(lib_a-memcmp.o)
 .debug_loc     0x00000000000040aa      0x328 /usr/lib/gcc/arm-none-eabi/6.3.1/../../../arm-none-eabi/lib/thumb/v6-m/libc_nano.a(lib_a-memcpy-stub.o)
 .debug_loc     0x00000000000043d2      0x1a5 /usr/lib/gcc/arm-none-eabi/6.3.1/../../../arm-none-eabi/lib/thumb/v6-m/libc_nano.a(lib_a-memset.o)
 .debug_loc     0x0000000000004577       0x95 /usr/lib/gcc/arm-none-eabi/6.3.1/../../../arm-none-eabi/lib/thumb/v6-m/libc_nano.a(lib_a-sprintf.o)
 .debug_loc     0x000000000000460c      0x577 /usr/lib/gcc/arm-none-eabi/6.3.1/../../../arm-none-eabi/lib/thumb/v6-m/libc_nano.a(lib_a-strtol.o)
 .debug_loc     0x0000000000004b83      0x152 /usr/lib/gcc/arm-none-eabi/6.3.1/../../../arm-none-eabi/lib/thumb/v6-m/libc_nano.a(lib_a-locale.o)
 .debug_loc     0x0000000000004cd5      0x14d /usr/lib/gcc/arm-none-eabi/6.3.1/../../../arm-none-eabi/lib/thumb/v6-m/libc_nano.a(lib_a-mbtowc_r.o)
 .debug_loc     0x0000000000004e22      0x875 /usr/lib/gcc/arm-none-eabi/6.3.1/../../../arm-none-eabi/lib/thumb/v6-m/libc_nano.a(lib_a-nano-svfprintf.o)
 .debug_loc     0x0000000000005697      0x6b6 /usr/lib/gcc/arm-none-eabi/6.3.1/../../../arm-none-eabi/lib/thumb/v6-m/libc_nano.a(lib_a-nano-vfprintf_i.o)
 .debug_loc     0x0000000000005d4d      0x111 /usr/lib/gcc/arm-none-eabi/6.3.1/../../../arm-none-eabi/lib/thumb/v6-m/libc_nano.a(lib_a-wctomb_r.o)
 .debug_loc     0x0000000000005e5e      0x17d /usr/lib/gcc/arm-none-eabi/6.3.1/../../../arm-none-eabi/lib/thumb/v6-m/libc_nano.a(lib_a-memchr-stub.o)
 .debug_loc     0x0000000000005fdb      0x397 /usr/lib/gcc/arm-none-eabi/6.3.1/../../../arm-none-eabi/lib/thumb/v6-m/libc_nano.a(lib_a-memmove.o)
 .debug_loc     0x0000000000006372      0x15a /usr/lib/gcc/arm-none-eabi/6.3.1/../../../arm-none-eabi/lib/thumb/v6-m/libc_nano.a(lib_a-nano-freer.o)
 .debug_loc     0x00000000000064cc      0x1f7 /usr/lib/gcc/arm-none-eabi/6.3.1/../../../arm-none-eabi/lib/thumb/v6-m/libc_nano.a(lib_a-nano-mallocr.o)
 .debug_loc     0x00000000000066c3      0x147 /usr/lib/gcc/arm-none-eabi/6.3.1/../../../arm-none-eabi/lib/thumb/v6-m/libc_nano.a(lib_a-nano-reallocr.o)
 .debug_loc     0x000000000000680a       0x58 /usr/lib/gcc/arm-none-eabi/6.3.1/../../../arm-none-eabi/lib/thumb/v6-m/libc_nano.a(lib_a-sbrkr.o)
 .debug_loc     0x0000000000006862       0xa7 /usr/lib/gcc/arm-none-eabi/6.3.1/../../../arm-none-eabi/lib/thumb/v6-m/libc_nano.a(lib_a-nano-msizer.o)
 .debug_loc     0x0000000000006909       0xf7 /usr/lib/gcc/arm-none-eabi/6.3.1/../../../arm-none-eabi/lib/thumb/v6-m/libc_nano.a(lib_a-reent.o)
 .debug_loc     0x0000000000006a00       0x38 /usr/lib/gcc/arm-none-eabi/6.3.1/../../../arm-none-eabi/lib/thumb/v6-m/libnosys.a(sbrk.o)

.debug_aranges  0x0000000000000000      0xec8
 .debug_aranges
                0x0000000000000000       0x30 build/main.o
 .debug_aranges
                0x0000000000000030       0x30 build/gpio.o
 .debug_aranges
                0x0000000000000060       0x88 build/adc.o
 .debug_aranges
                0x00000000000000e8       0x40 build/dac.o
 .debug_aranges
                0x0000000000000128       0x20 build/usb_device.o
 .debug_aranges
                0x0000000000000148      0x118 build/usbd_conf.o
 .debug_aranges
                0x0000000000000260       0x50 build/usbd_desc.o
 .debug_aranges
                0x00000000000002b0       0x50 build/usbd_cdc_if.o
 .debug_aranges
                0x0000000000000300       0x48 build/stm32l0xx_it.o
 .debug_aranges
                0x0000000000000348       0x60 build/stm32l0xx_hal_msp.o
 .debug_aranges
                0x00000000000003a8      0x120 build/stm32l0xx_hal_pcd.o
 .debug_aranges
                0x00000000000004c8       0x58 build/stm32l0xx_hal_pcd_ex.o
 .debug_aranges
                0x0000000000000520      0x108 build/stm32l0xx_ll_usb.o
 .debug_aranges
                0x0000000000000628       0xf8 build/stm32l0xx_hal.o
 .debug_aranges
                0x0000000000000720       0x80 build/stm32l0xx_hal_rcc.o
 .debug_aranges
                0x00000000000007a0       0xb0 build/stm32l0xx_hal_rcc_ex.o
 .debug_aranges
                0x0000000000000850       0xd8 build/stm32l0xx_hal_cortex.o
 .debug_aranges
                0x0000000000000928       0x28 build/system_stm32l0xx.o
 .debug_aranges
                0x0000000000000950       0xb8 build/usbd_core.o
 .debug_aranges
                0x0000000000000a08       0x88 build/usbd_ctlreq.o
 .debug_aranges
                0x0000000000000a90       0x50 build/usbd_ioreq.o
 .debug_aranges
                0x0000000000000ae0       0x90 build/usbd_cdc.o
 .debug_aranges
                0x0000000000000b70       0x28 build/startup_stm32l052xx.o
 .debug_aranges
                0x0000000000000b98       0x18 /usr/lib/gcc/arm-none-eabi/6.3.1/../../../arm-none-eabi/lib/thumb/v6-m/libc_nano.a(lib_a-impure.o)
 .debug_aranges
                0x0000000000000bb0       0x20 /usr/lib/gcc/arm-none-eabi/6.3.1/../../../arm-none-eabi/lib/thumb/v6-m/libc_nano.a(lib_a-init.o)
 .debug_aranges
                0x0000000000000bd0       0x20 /usr/lib/gcc/arm-none-eabi/6.3.1/../../../arm-none-eabi/lib/thumb/v6-m/libc_nano.a(lib_a-memcmp.o)
 .debug_aranges
                0x0000000000000bf0       0x20 /usr/lib/gcc/arm-none-eabi/6.3.1/../../../arm-none-eabi/lib/thumb/v6-m/libc_nano.a(lib_a-memcpy-stub.o)
 .debug_aranges
                0x0000000000000c10       0x20 /usr/lib/gcc/arm-none-eabi/6.3.1/../../../arm-none-eabi/lib/thumb/v6-m/libc_nano.a(lib_a-memset.o)
 .debug_aranges
                0x0000000000000c30       0x20 /usr/lib/gcc/arm-none-eabi/6.3.1/../../../arm-none-eabi/lib/thumb/v6-m/libc_nano.a(lib_a-sprintf.o)
 .debug_aranges
                0x0000000000000c50       0x20 /usr/lib/gcc/arm-none-eabi/6.3.1/../../../arm-none-eabi/lib/thumb/v6-m/libc_nano.a(lib_a-strtol.o)
 .debug_aranges
                0x0000000000000c70       0x20 /usr/lib/gcc/arm-none-eabi/6.3.1/../../../arm-none-eabi/lib/thumb/v6-m/libc_nano.a(lib_a-locale.o)
 .debug_aranges
                0x0000000000000c90       0x20 /usr/lib/gcc/arm-none-eabi/6.3.1/../../../arm-none-eabi/lib/thumb/v6-m/libc_nano.a(lib_a-mbtowc_r.o)
 .debug_aranges
                0x0000000000000cb0       0x20 /usr/lib/gcc/arm-none-eabi/6.3.1/../../../arm-none-eabi/lib/thumb/v6-m/libc_nano.a(lib_a-nano-svfprintf.o)
 .debug_aranges
                0x0000000000000cd0       0x20 /usr/lib/gcc/arm-none-eabi/6.3.1/../../../arm-none-eabi/lib/thumb/v6-m/libc_nano.a(lib_a-nano-vfprintf_i.o)
 .debug_aranges
                0x0000000000000cf0       0x20 /usr/lib/gcc/arm-none-eabi/6.3.1/../../../arm-none-eabi/lib/thumb/v6-m/libc_nano.a(lib_a-strcmp.o)
 .debug_aranges
                0x0000000000000d10       0x20 /usr/lib/gcc/arm-none-eabi/6.3.1/../../../arm-none-eabi/lib/thumb/v6-m/libc_nano.a(lib_a-wctomb_r.o)
 .debug_aranges
                0x0000000000000d30       0x18 /usr/lib/gcc/arm-none-eabi/6.3.1/../../../arm-none-eabi/lib/thumb/v6-m/libc_nano.a(lib_a-ctype_.o)
 .debug_aranges
                0x0000000000000d48       0x20 /usr/lib/gcc/arm-none-eabi/6.3.1/../../../arm-none-eabi/lib/thumb/v6-m/libc_nano.a(lib_a-memchr-stub.o)
 .debug_aranges
                0x0000000000000d68       0x20 /usr/lib/gcc/arm-none-eabi/6.3.1/../../../arm-none-eabi/lib/thumb/v6-m/libc_nano.a(lib_a-memmove.o)
 .debug_aranges
                0x0000000000000d88       0x20 /usr/lib/gcc/arm-none-eabi/6.3.1/../../../arm-none-eabi/lib/thumb/v6-m/libc_nano.a(lib_a-nano-freer.o)
 .debug_aranges
                0x0000000000000da8       0x20 /usr/lib/gcc/arm-none-eabi/6.3.1/../../../arm-none-eabi/lib/thumb/v6-m/libc_nano.a(lib_a-nano-mallocr.o)
 .debug_aranges
                0x0000000000000dc8       0x20 /usr/lib/gcc/arm-none-eabi/6.3.1/../../../arm-none-eabi/lib/thumb/v6-m/libc_nano.a(lib_a-nano-reallocr.o)
 .debug_aranges
                0x0000000000000de8       0x20 /usr/lib/gcc/arm-none-eabi/6.3.1/../../../arm-none-eabi/lib/thumb/v6-m/libc_nano.a(lib_a-sbrkr.o)
 .debug_aranges
                0x0000000000000e08       0x20 /usr/lib/gcc/arm-none-eabi/6.3.1/../../../arm-none-eabi/lib/thumb/v6-m/libc_nano.a(lib_a-mlock.o)
 .debug_aranges
                0x0000000000000e28       0x20 /usr/lib/gcc/arm-none-eabi/6.3.1/../../../arm-none-eabi/lib/thumb/v6-m/libc_nano.a(lib_a-nano-msizer.o)
 .debug_aranges
                0x0000000000000e48       0x20 /usr/lib/gcc/arm-none-eabi/6.3.1/../../../arm-none-eabi/lib/thumb/v6-m/libc_nano.a(lib_a-reent.o)
 .debug_aranges
                0x0000000000000e68       0x20 /usr/lib/gcc/arm-none-eabi/6.3.1/../../../arm-none-eabi/lib/thumb/v6-m/libnosys.a(sbrk.o)
 .debug_aranges
                0x0000000000000e88       0x20 /usr/lib/gcc/arm-none-eabi/6.3.1/thumb/v6-m/libgcc.a(_udivsi3.o)
 .debug_aranges
                0x0000000000000ea8       0x20 /usr/lib/gcc/arm-none-eabi/6.3.1/thumb/v6-m/libgcc.a(_dvmd_tls.o)

.debug_ranges   0x0000000000000000      0xb98
 .debug_ranges  0x0000000000000000       0x20 build/main.o
 .debug_ranges  0x0000000000000020       0x20 build/gpio.o
 .debug_ranges  0x0000000000000040       0x78 build/adc.o
 .debug_ranges  0x00000000000000b8       0x30 build/dac.o
 .debug_ranges  0x00000000000000e8       0x10 build/usb_device.o
 .debug_ranges  0x00000000000000f8      0x108 build/usbd_conf.o
 .debug_ranges  0x0000000000000200       0x40 build/usbd_desc.o
 .debug_ranges  0x0000000000000240       0x40 build/usbd_cdc_if.o
 .debug_ranges  0x0000000000000280       0x38 build/stm32l0xx_it.o
 .debug_ranges  0x00000000000002b8       0x50 build/stm32l0xx_hal_msp.o
 .debug_ranges  0x0000000000000308      0x110 build/stm32l0xx_hal_pcd.o
 .debug_ranges  0x0000000000000418       0x48 build/stm32l0xx_hal_pcd_ex.o
 .debug_ranges  0x0000000000000460       0xf8 build/stm32l0xx_ll_usb.o
 .debug_ranges  0x0000000000000558       0xe8 build/stm32l0xx_hal.o
 .debug_ranges  0x0000000000000640       0x70 build/stm32l0xx_hal_rcc.o
 .debug_ranges  0x00000000000006b0       0xa0 build/stm32l0xx_hal_rcc_ex.o
 .debug_ranges  0x0000000000000750       0xc8 build/stm32l0xx_hal_cortex.o
 .debug_ranges  0x0000000000000818       0x18 build/system_stm32l0xx.o
 .debug_ranges  0x0000000000000830       0xa8 build/usbd_core.o
 .debug_ranges  0x00000000000008d8       0x78 build/usbd_ctlreq.o
 .debug_ranges  0x0000000000000950       0x40 build/usbd_ioreq.o
 .debug_ranges  0x0000000000000990       0x80 build/usbd_cdc.o
 .debug_ranges  0x0000000000000a10       0x20 build/startup_stm32l052xx.o
 .debug_ranges  0x0000000000000a30       0x18 /usr/lib/gcc/arm-none-eabi/6.3.1/../../../arm-none-eabi/lib/thumb/v6-m/libc_nano.a(lib_a-strtol.o)
 .debug_ranges  0x0000000000000a48       0x18 /usr/lib/gcc/arm-none-eabi/6.3.1/../../../arm-none-eabi/lib/thumb/v6-m/libc_nano.a(lib_a-locale.o)
 .debug_ranges  0x0000000000000a60       0x18 /usr/lib/gcc/arm-none-eabi/6.3.1/../../../arm-none-eabi/lib/thumb/v6-m/libc_nano.a(lib_a-mbtowc_r.o)
 .debug_ranges  0x0000000000000a78       0x48 /usr/lib/gcc/arm-none-eabi/6.3.1/../../../arm-none-eabi/lib/thumb/v6-m/libc_nano.a(lib_a-nano-svfprintf.o)
 .debug_ranges  0x0000000000000ac0       0x80 /usr/lib/gcc/arm-none-eabi/6.3.1/../../../arm-none-eabi/lib/thumb/v6-m/libc_nano.a(lib_a-nano-vfprintf_i.o)
 .debug_ranges  0x0000000000000b40       0x18 /usr/lib/gcc/arm-none-eabi/6.3.1/../../../arm-none-eabi/lib/thumb/v6-m/libc_nano.a(lib_a-nano-freer.o)
 .debug_ranges  0x0000000000000b58       0x40 /usr/lib/gcc/arm-none-eabi/6.3.1/../../../arm-none-eabi/lib/thumb/v6-m/libc_nano.a(lib_a-nano-mallocr.o)

.debug_line     0x0000000000000000     0x7215
 .debug_line    0x0000000000000000      0x37b build/main.o
 .debug_line    0x000000000000037b      0x161 build/gpio.o
 .debug_line    0x00000000000004dc      0x2ca build/adc.o
 .debug_line    0x00000000000007a6      0x171 build/dac.o
 .debug_line    0x0000000000000917      0x22c build/usb_device.o
 .debug_line    0x0000000000000b43      0x581 build/usbd_conf.o
 .debug_line    0x00000000000010c4      0x24e build/usbd_desc.o
 .debug_line    0x0000000000001312      0x2cf build/usbd_cdc_if.o
 .debug_line    0x00000000000015e1      0x1bd build/stm32l0xx_it.o
 .debug_line    0x000000000000179e      0x295 build/stm32l0xx_hal_msp.o
 .debug_line    0x0000000000001a33      0x60f build/stm32l0xx_hal_pcd.o
 .debug_line    0x0000000000002042      0x23b build/stm32l0xx_hal_pcd_ex.o
 .debug_line    0x000000000000227d      0x60a build/stm32l0xx_ll_usb.o
 .debug_line    0x0000000000002887      0x37e build/stm32l0xx_hal.o
 .debug_line    0x0000000000002c05      0x443 build/stm32l0xx_hal_rcc.o
 .debug_line    0x0000000000003048      0x46b build/stm32l0xx_hal_rcc_ex.o
 .debug_line    0x00000000000034b3      0x3bb build/stm32l0xx_hal_cortex.o
 .debug_line    0x000000000000386e      0x183 build/system_stm32l0xx.o
 .debug_line    0x00000000000039f1      0x3fe build/usbd_core.o
 .debug_line    0x0000000000003def      0x476 build/usbd_ctlreq.o
 .debug_line    0x0000000000004265      0x268 build/usbd_ioreq.o
 .debug_line    0x00000000000044cd      0x41a build/usbd_cdc.o
 .debug_line    0x00000000000048e7       0x78 build/startup_stm32l052xx.o
 .debug_line    0x000000000000495f       0xe9 /usr/lib/gcc/arm-none-eabi/6.3.1/../../../arm-none-eabi/lib/thumb/v6-m/libc_nano.a(lib_a-impure.o)
 .debug_line    0x0000000000004a48       0xbf /usr/lib/gcc/arm-none-eabi/6.3.1/../../../arm-none-eabi/lib/thumb/v6-m/libc_nano.a(lib_a-init.o)
 .debug_line    0x0000000000004b07      0x15f /usr/lib/gcc/arm-none-eabi/6.3.1/../../../arm-none-eabi/lib/thumb/v6-m/libc_nano.a(lib_a-memcmp.o)
 .debug_line    0x0000000000004c66      0x184 /usr/lib/gcc/arm-none-eabi/6.3.1/../../../arm-none-eabi/lib/thumb/v6-m/libc_nano.a(lib_a-memcpy-stub.o)
 .debug_line    0x0000000000004dea      0x1de /usr/lib/gcc/arm-none-eabi/6.3.1/../../../arm-none-eabi/lib/thumb/v6-m/libc_nano.a(lib_a-memset.o)
 .debug_line    0x0000000000004fc8      0x1a6 /usr/lib/gcc/arm-none-eabi/6.3.1/../../../arm-none-eabi/lib/thumb/v6-m/libc_nano.a(lib_a-sprintf.o)
 .debug_line    0x000000000000516e      0x244 /usr/lib/gcc/arm-none-eabi/6.3.1/../../../arm-none-eabi/lib/thumb/v6-m/libc_nano.a(lib_a-strtol.o)
 .debug_line    0x00000000000053b2      0x207 /usr/lib/gcc/arm-none-eabi/6.3.1/../../../arm-none-eabi/lib/thumb/v6-m/libc_nano.a(lib_a-locale.o)
 .debug_line    0x00000000000055b9      0x1e1 /usr/lib/gcc/arm-none-eabi/6.3.1/../../../arm-none-eabi/lib/thumb/v6-m/libc_nano.a(lib_a-mbtowc_r.o)
 .debug_line    0x000000000000579a      0x3ed /usr/lib/gcc/arm-none-eabi/6.3.1/../../../arm-none-eabi/lib/thumb/v6-m/libc_nano.a(lib_a-nano-svfprintf.o)
 .debug_line    0x0000000000005b87      0x3d6 /usr/lib/gcc/arm-none-eabi/6.3.1/../../../arm-none-eabi/lib/thumb/v6-m/libc_nano.a(lib_a-nano-vfprintf_i.o)
 .debug_line    0x0000000000005f5d       0xad /usr/lib/gcc/arm-none-eabi/6.3.1/../../../arm-none-eabi/lib/thumb/v6-m/libc_nano.a(lib_a-strcmp.o)
 .debug_line    0x000000000000600a      0x1cc /usr/lib/gcc/arm-none-eabi/6.3.1/../../../arm-none-eabi/lib/thumb/v6-m/libc_nano.a(lib_a-wctomb_r.o)
 .debug_line    0x00000000000061d6      0x163 /usr/lib/gcc/arm-none-eabi/6.3.1/../../../arm-none-eabi/lib/thumb/v6-m/libc_nano.a(lib_a-ctype_.o)
 .debug_line    0x0000000000006339      0x183 /usr/lib/gcc/arm-none-eabi/6.3.1/../../../arm-none-eabi/lib/thumb/v6-m/libc_nano.a(lib_a-memchr-stub.o)
 .debug_line    0x00000000000064bc      0x1db /usr/lib/gcc/arm-none-eabi/6.3.1/../../../arm-none-eabi/lib/thumb/v6-m/libc_nano.a(lib_a-memmove.o)
 .debug_line    0x0000000000006697      0x1ad /usr/lib/gcc/arm-none-eabi/6.3.1/../../../arm-none-eabi/lib/thumb/v6-m/libc_nano.a(lib_a-nano-freer.o)
 .debug_line    0x0000000000006844      0x1bb /usr/lib/gcc/arm-none-eabi/6.3.1/../../../arm-none-eabi/lib/thumb/v6-m/libc_nano.a(lib_a-nano-mallocr.o)
 .debug_line    0x00000000000069ff      0x178 /usr/lib/gcc/arm-none-eabi/6.3.1/../../../arm-none-eabi/lib/thumb/v6-m/libc_nano.a(lib_a-nano-reallocr.o)
 .debug_line    0x0000000000006b77      0x15c /usr/lib/gcc/arm-none-eabi/6.3.1/../../../arm-none-eabi/lib/thumb/v6-m/libc_nano.a(lib_a-sbrkr.o)
 .debug_line    0x0000000000006cd3      0x144 /usr/lib/gcc/arm-none-eabi/6.3.1/../../../arm-none-eabi/lib/thumb/v6-m/libc_nano.a(lib_a-mlock.o)
 .debug_line    0x0000000000006e17      0x15a /usr/lib/gcc/arm-none-eabi/6.3.1/../../../arm-none-eabi/lib/thumb/v6-m/libc_nano.a(lib_a-nano-msizer.o)
 .debug_line    0x0000000000006f71      0x17b /usr/lib/gcc/arm-none-eabi/6.3.1/../../../arm-none-eabi/lib/thumb/v6-m/libc_nano.a(lib_a-reent.o)
 .debug_line    0x00000000000070ec       0x5b /usr/lib/gcc/arm-none-eabi/6.3.1/../../../arm-none-eabi/lib/thumb/v6-m/libnosys.a(sbrk.o)
 .debug_line    0x0000000000007147       0x6d /usr/lib/gcc/arm-none-eabi/6.3.1/thumb/v6-m/libgcc.a(_udivsi3.o)
 .debug_line    0x00000000000071b4       0x61 /usr/lib/gcc/arm-none-eabi/6.3.1/thumb/v6-m/libgcc.a(_dvmd_tls.o)

.debug_str      0x0000000000000000     0x4bb0
 .debug_str     0x0000000000000000      0xc28 build/main.o
                                        0xd99 (size before relaxing)
 .debug_str     0x0000000000000c28       0xbd build/gpio.o
                                        0x26d (size before relaxing)
 .debug_str     0x0000000000000ce5      0x2e3 build/adc.o
                                        0x5fa (size before relaxing)
 .debug_str     0x0000000000000fc8       0x4a build/dac.o
                                        0x2f4 (size before relaxing)
 .debug_str     0x0000000000001012       0x39 build/usb_device.o
                                        0x9c0 (size before relaxing)
 .debug_str     0x000000000000104b      0x66a build/usbd_conf.o
                                       0x1248 (size before relaxing)
 .debug_str     0x00000000000016b5      0x10b build/usbd_desc.o
                                        0x7a8 (size before relaxing)
 .debug_str     0x00000000000017c0      0x123 build/usbd_cdc_if.o
                                        0xb15 (size before relaxing)
 .debug_str     0x00000000000018e3       0x6b build/stm32l0xx_it.o
                                        0x57e (size before relaxing)
 .debug_str     0x000000000000194e      0x882 build/stm32l0xx_hal_msp.o
                                        0xcb6 (size before relaxing)
 .debug_str     0x00000000000021d0      0x20d build/stm32l0xx_hal_pcd.o
                                        0x8c6 (size before relaxing)
 .debug_str     0x00000000000023dd      0x1cd build/stm32l0xx_hal_pcd_ex.o
                                        0x73d (size before relaxing)
 .debug_str     0x00000000000025aa      0x31c build/stm32l0xx_ll_usb.o
                                        0x723 (size before relaxing)
 .debug_str     0x00000000000028c6      0x31a build/stm32l0xx_hal.o
                                        0x747 (size before relaxing)
 .debug_str     0x0000000000002be0      0x1da build/stm32l0xx_hal_rcc.o
                                        0x676 (size before relaxing)
 .debug_str     0x0000000000002dba      0x38b build/stm32l0xx_hal_rcc_ex.o
                                        0x730 (size before relaxing)
 .debug_str     0x0000000000003145      0x272 build/stm32l0xx_hal_cortex.o
                                        0x6f2 (size before relaxing)
 .debug_str     0x00000000000033b7       0x4b build/system_stm32l0xx.o
                                        0x29e (size before relaxing)
 .debug_str     0x0000000000003402      0x1b2 build/usbd_core.o
                                        0xaff (size before relaxing)
 .debug_str     0x00000000000035b4      0x123 build/usbd_ctlreq.o
                                        0xa85 (size before relaxing)
 .debug_str     0x00000000000036d7       0xc6 build/usbd_ioreq.o
                                        0xa0d (size before relaxing)
 .debug_str     0x000000000000379d      0x208 build/usbd_cdc.o
                                        0xf51 (size before relaxing)
 .debug_str     0x00000000000039a5      0x1a3 /usr/lib/gcc/arm-none-eabi/6.3.1/../../../arm-none-eabi/lib/thumb/v6-m/libc_nano.a(lib_a-impure.o)
                                        0x5db (size before relaxing)
 .debug_str     0x0000000000003b48       0xed /usr/lib/gcc/arm-none-eabi/6.3.1/../../../arm-none-eabi/lib/thumb/v6-m/libc_nano.a(lib_a-init.o)
                                        0x222 (size before relaxing)
 .debug_str     0x0000000000003c35       0x9a /usr/lib/gcc/arm-none-eabi/6.3.1/../../../arm-none-eabi/lib/thumb/v6-m/libc_nano.a(lib_a-memcmp.o)
                                        0x5df (size before relaxing)
 .debug_str     0x0000000000003ccf       0xd3 /usr/lib/gcc/arm-none-eabi/6.3.1/../../../arm-none-eabi/lib/thumb/v6-m/libc_nano.a(lib_a-memcpy-stub.o)
                                        0x618 (size before relaxing)
 .debug_str     0x0000000000003da2      0x28d /usr/lib/gcc/arm-none-eabi/6.3.1/../../../arm-none-eabi/lib/thumb/v6-m/libc_nano.a(lib_a-memset.o)
                                        0x908 (size before relaxing)
 .debug_str     0x000000000000402f      0x1f0 /usr/lib/gcc/arm-none-eabi/6.3.1/../../../arm-none-eabi/lib/thumb/v6-m/libc_nano.a(lib_a-sprintf.o)
                                        0x756 (size before relaxing)
 .debug_str     0x000000000000421f      0x13a /usr/lib/gcc/arm-none-eabi/6.3.1/../../../arm-none-eabi/lib/thumb/v6-m/libc_nano.a(lib_a-strtol.o)
                                        0x9ab (size before relaxing)
 .debug_str     0x0000000000004359      0x107 /usr/lib/gcc/arm-none-eabi/6.3.1/../../../arm-none-eabi/lib/thumb/v6-m/libc_nano.a(lib_a-locale.o)
                                        0x9d5 (size before relaxing)
 .debug_str     0x0000000000004460       0x52 /usr/lib/gcc/arm-none-eabi/6.3.1/../../../arm-none-eabi/lib/thumb/v6-m/libc_nano.a(lib_a-mbtowc_r.o)
                                        0x97e (size before relaxing)
 .debug_str     0x00000000000044b2      0x197 /usr/lib/gcc/arm-none-eabi/6.3.1/../../../arm-none-eabi/lib/thumb/v6-m/libc_nano.a(lib_a-nano-svfprintf.o)
                                        0xc2b (size before relaxing)
 .debug_str     0x0000000000004649       0x8b /usr/lib/gcc/arm-none-eabi/6.3.1/../../../arm-none-eabi/lib/thumb/v6-m/libc_nano.a(lib_a-nano-vfprintf_i.o)
                                        0xbc2 (size before relaxing)
 .debug_str     0x00000000000046d4       0x53 /usr/lib/gcc/arm-none-eabi/6.3.1/../../../arm-none-eabi/lib/thumb/v6-m/libc_nano.a(lib_a-wctomb_r.o)
                                        0x985 (size before relaxing)
 .debug_str     0x0000000000004727       0x91 /usr/lib/gcc/arm-none-eabi/6.3.1/../../../arm-none-eabi/lib/thumb/v6-m/libc_nano.a(lib_a-ctype_.o)
                                        0x8f3 (size before relaxing)
 .debug_str     0x00000000000047b8       0x4c /usr/lib/gcc/arm-none-eabi/6.3.1/../../../arm-none-eabi/lib/thumb/v6-m/libc_nano.a(lib_a-memchr-stub.o)
                                        0x60b (size before relaxing)
 .debug_str     0x0000000000004804       0x3b /usr/lib/gcc/arm-none-eabi/6.3.1/../../../arm-none-eabi/lib/thumb/v6-m/libc_nano.a(lib_a-memmove.o)
                                        0x927 (size before relaxing)
 .debug_str     0x000000000000483f      0x11d /usr/lib/gcc/arm-none-eabi/6.3.1/../../../arm-none-eabi/lib/thumb/v6-m/libc_nano.a(lib_a-nano-freer.o)
                                        0x70b (size before relaxing)
 .debug_str     0x000000000000495c       0x32 /usr/lib/gcc/arm-none-eabi/6.3.1/../../../arm-none-eabi/lib/thumb/v6-m/libc_nano.a(lib_a-nano-mallocr.o)
                                        0x722 (size before relaxing)
 .debug_str     0x000000000000498e       0x23 /usr/lib/gcc/arm-none-eabi/6.3.1/../../../arm-none-eabi/lib/thumb/v6-m/libc_nano.a(lib_a-nano-reallocr.o)
                                        0x708 (size before relaxing)
 .debug_str     0x00000000000049b1       0x44 /usr/lib/gcc/arm-none-eabi/6.3.1/../../../arm-none-eabi/lib/thumb/v6-m/libc_nano.a(lib_a-sbrkr.o)
                                        0x61e (size before relaxing)
 .debug_str     0x00000000000049f5       0x49 /usr/lib/gcc/arm-none-eabi/6.3.1/../../../arm-none-eabi/lib/thumb/v6-m/libc_nano.a(lib_a-mlock.o)
                                        0x607 (size before relaxing)
 .debug_str     0x0000000000004a3e        0xf /usr/lib/gcc/arm-none-eabi/6.3.1/../../../arm-none-eabi/lib/thumb/v6-m/libc_nano.a(lib_a-nano-msizer.o)
                                        0x6e6 (size before relaxing)
 .debug_str     0x0000000000004a4d       0x5b /usr/lib/gcc/arm-none-eabi/6.3.1/../../../arm-none-eabi/lib/thumb/v6-m/libc_nano.a(lib_a-reent.o)
                                        0x617 (size before relaxing)
 .debug_str     0x0000000000004aa8      0x108 /usr/lib/gcc/arm-none-eabi/6.3.1/../../../arm-none-eabi/lib/thumb/v6-m/libnosys.a(sbrk.o)
                                        0x121 (size before relaxing)

.debug_frame    0x0000000000000000     0x2bf0
 .debug_frame   0x0000000000000000       0x74 build/main.o
 .debug_frame   0x0000000000000074       0x6c build/gpio.o
 .debug_frame   0x00000000000000e0      0x1b0 build/adc.o
 .debug_frame   0x0000000000000290       0xa4 build/dac.o
 .debug_frame   0x0000000000000334       0x2c build/usb_device.o
 .debug_frame   0x0000000000000360      0x444 build/usbd_conf.o
 .debug_frame   0x00000000000007a4       0xf0 build/usbd_desc.o
 .debug_frame   0x0000000000000894       0xec build/usbd_cdc_if.o
 .debug_frame   0x0000000000000980       0xb8 build/stm32l0xx_it.o
 .debug_frame   0x0000000000000a38      0x12c build/stm32l0xx_hal_msp.o
 .debug_frame   0x0000000000000b64      0x444 build/stm32l0xx_hal_pcd.o
 .debug_frame   0x0000000000000fa8      0x110 build/stm32l0xx_hal_pcd_ex.o
 .debug_frame   0x00000000000010b8      0x3fc build/stm32l0xx_ll_usb.o
 .debug_frame   0x00000000000014b4      0x338 build/stm32l0xx_hal.o
 .debug_frame   0x00000000000017ec      0x1a4 build/stm32l0xx_hal_rcc.o
 .debug_frame   0x0000000000001990      0x244 build/stm32l0xx_hal_rcc_ex.o
 .debug_frame   0x0000000000001bd4      0x304 build/stm32l0xx_hal_cortex.o
 .debug_frame   0x0000000000001ed8       0x4c build/system_stm32l0xx.o
 .debug_frame   0x0000000000001f24      0x290 build/usbd_core.o
 .debug_frame   0x00000000000021b4      0x1d8 build/usbd_ctlreq.o
 .debug_frame   0x000000000000238c       0xf0 build/usbd_ioreq.o
 .debug_frame   0x000000000000247c      0x1f4 build/usbd_cdc.o
 .debug_frame   0x0000000000002670       0x2c /usr/lib/gcc/arm-none-eabi/6.3.1/../../../arm-none-eabi/lib/thumb/v6-m/libc_nano.a(lib_a-init.o)
 .debug_frame   0x000000000000269c       0x2c /usr/lib/gcc/arm-none-eabi/6.3.1/../../../arm-none-eabi/lib/thumb/v6-m/libc_nano.a(lib_a-memcmp.o)
 .debug_frame   0x00000000000026c8       0x30 /usr/lib/gcc/arm-none-eabi/6.3.1/../../../arm-none-eabi/lib/thumb/v6-m/libc_nano.a(lib_a-memcpy-stub.o)
 .debug_frame   0x00000000000026f8       0x30 /usr/lib/gcc/arm-none-eabi/6.3.1/../../../arm-none-eabi/lib/thumb/v6-m/libc_nano.a(lib_a-memset.o)
 .debug_frame   0x0000000000002728       0x48 /usr/lib/gcc/arm-none-eabi/6.3.1/../../../arm-none-eabi/lib/thumb/v6-m/libc_nano.a(lib_a-sprintf.o)
 .debug_frame   0x0000000000002770       0x90 /usr/lib/gcc/arm-none-eabi/6.3.1/../../../arm-none-eabi/lib/thumb/v6-m/libc_nano.a(lib_a-strtol.o)
 .debug_frame   0x0000000000002800       0x74 /usr/lib/gcc/arm-none-eabi/6.3.1/../../../arm-none-eabi/lib/thumb/v6-m/libc_nano.a(lib_a-locale.o)
 .debug_frame   0x0000000000002874       0x40 /usr/lib/gcc/arm-none-eabi/6.3.1/../../../arm-none-eabi/lib/thumb/v6-m/libc_nano.a(lib_a-mbtowc_r.o)
 .debug_frame   0x00000000000028b4       0x90 /usr/lib/gcc/arm-none-eabi/6.3.1/../../../arm-none-eabi/lib/thumb/v6-m/libc_nano.a(lib_a-nano-svfprintf.o)
 .debug_frame   0x0000000000002944       0x64 /usr/lib/gcc/arm-none-eabi/6.3.1/../../../arm-none-eabi/lib/thumb/v6-m/libc_nano.a(lib_a-nano-vfprintf_i.o)
 .debug_frame   0x00000000000029a8       0x20 /usr/lib/gcc/arm-none-eabi/6.3.1/../../../arm-none-eabi/lib/thumb/v6-m/libc_nano.a(lib_a-strcmp.o)
 .debug_frame   0x00000000000029c8       0x3c /usr/lib/gcc/arm-none-eabi/6.3.1/../../../arm-none-eabi/lib/thumb/v6-m/libc_nano.a(lib_a-wctomb_r.o)
 .debug_frame   0x0000000000002a04       0x2c /usr/lib/gcc/arm-none-eabi/6.3.1/../../../arm-none-eabi/lib/thumb/v6-m/libc_nano.a(lib_a-memchr-stub.o)
 .debug_frame   0x0000000000002a30       0x30 /usr/lib/gcc/arm-none-eabi/6.3.1/../../../arm-none-eabi/lib/thumb/v6-m/libc_nano.a(lib_a-memmove.o)
 .debug_frame   0x0000000000002a60       0x2c /usr/lib/gcc/arm-none-eabi/6.3.1/../../../arm-none-eabi/lib/thumb/v6-m/libc_nano.a(lib_a-nano-freer.o)
 .debug_frame   0x0000000000002a8c       0x30 /usr/lib/gcc/arm-none-eabi/6.3.1/../../../arm-none-eabi/lib/thumb/v6-m/libc_nano.a(lib_a-nano-mallocr.o)
 .debug_frame   0x0000000000002abc       0x30 /usr/lib/gcc/arm-none-eabi/6.3.1/../../../arm-none-eabi/lib/thumb/v6-m/libc_nano.a(lib_a-nano-reallocr.o)
 .debug_frame   0x0000000000002aec       0x2c /usr/lib/gcc/arm-none-eabi/6.3.1/../../../arm-none-eabi/lib/thumb/v6-m/libc_nano.a(lib_a-sbrkr.o)
 .debug_frame   0x0000000000002b18       0x30 /usr/lib/gcc/arm-none-eabi/6.3.1/../../../arm-none-eabi/lib/thumb/v6-m/libc_nano.a(lib_a-mlock.o)
 .debug_frame   0x0000000000002b48       0x20 /usr/lib/gcc/arm-none-eabi/6.3.1/../../../arm-none-eabi/lib/thumb/v6-m/libc_nano.a(lib_a-nano-msizer.o)
 .debug_frame   0x0000000000002b68       0x48 /usr/lib/gcc/arm-none-eabi/6.3.1/../../../arm-none-eabi/lib/thumb/v6-m/libc_nano.a(lib_a-reent.o)
 .debug_frame   0x0000000000002bb0       0x20 /usr/lib/gcc/arm-none-eabi/6.3.1/../../../arm-none-eabi/lib/thumb/v6-m/libnosys.a(sbrk.o)
 .debug_frame   0x0000000000002bd0       0x20 /usr/lib/gcc/arm-none-eabi/6.3.1/thumb/v6-m/libgcc.a(_udivsi3.o)

Cross Reference Table

Symbol                                            File
ADC1_COMP_IRQHandler                              build/startup_stm32l052xx.o
ADC_CONVERT                                       build/adc.o
                                                  build/main.o
ADC_array                                         build/adc.o
                                                  build/main.o
AHBPrescTable                                     build/system_stm32l0xx.o
                                                  build/stm32l0xx_hal_rcc.o
APBPrescTable                                     build/system_stm32l0xx.o
                                                  build/stm32l0xx_hal_rcc.o
CDC_Transmit_FS                                   build/usbd_cdc_if.o
CalibrateADC                                      build/adc.o
                                                  build/main.o
ConfigureADC                                      build/adc.o
                                                  build/main.o
ConfigureDAC                                      build/dac.o
                                                  build/main.o
ConfigureDMA                                      build/adc.o
                                                  build/main.o
ConfigureGPIOasAnalog                             build/dac.o
ConfigureGPIOforADC                               build/adc.o
                                                  build/main.o
DMA1_Channel1_IRQHandler                          build/startup_stm32l052xx.o
DMA1_Channel2_3_IRQHandler                        build/startup_stm32l052xx.o
DMA1_Channel4_5_6_7_IRQHandler                    build/startup_stm32l052xx.o
Default_Handler                                   build/startup_stm32l052xx.o
DisableADC                                        build/adc.o
EXTI0_1_IRQHandler                                build/startup_stm32l052xx.o
EXTI2_3_IRQHandler                                build/startup_stm32l052xx.o
EXTI4_15_IRQHandler                               build/startup_stm32l052xx.o
EnableADC                                         build/adc.o
                                                  build/main.o
Error_Handler                                     build/adc.o
                                                  build/usbd_conf.o
                                                  build/main.o
FLASH_IRQHandler                                  build/startup_stm32l052xx.o
FLASH_PageErase                                   build/stm32l0xx_hal_flash_ex.o
                                                  build/stm32l0xx_hal_flash.o
FLASH_WaitForLastOperation                        build/stm32l0xx_hal_flash.o
                                                  build/stm32l0xx_hal_flash_ex.o
FS_Desc                                           build/usbd_desc.o
                                                  build/usb_device.o
HAL_ADCEx_Calibration_GetValue                    build/stm32l0xx_hal_adc_ex.o
HAL_ADCEx_Calibration_SetValue                    build/stm32l0xx_hal_adc_ex.o
HAL_ADCEx_Calibration_Start                       build/stm32l0xx_hal_adc_ex.o
HAL_ADCEx_DisableVREFINT                          build/stm32l0xx_hal_adc_ex.o
HAL_ADCEx_DisableVREFINTTempSensor                build/stm32l0xx_hal_adc_ex.o
HAL_ADCEx_EnableVREFINT                           build/stm32l0xx_hal_adc_ex.o
HAL_ADCEx_EnableVREFINTTempSensor                 build/stm32l0xx_hal_adc_ex.o
HAL_ADC_AnalogWDGConfig                           build/stm32l0xx_hal_adc.o
HAL_ADC_ConfigChannel                             build/stm32l0xx_hal_adc.o
HAL_ADC_ConvCpltCallback                          build/stm32l0xx_hal_adc.o
HAL_ADC_ConvHalfCpltCallback                      build/stm32l0xx_hal_adc.o
HAL_ADC_DeInit                                    build/stm32l0xx_hal_adc.o
HAL_ADC_ErrorCallback                             build/stm32l0xx_hal_adc.o
HAL_ADC_GetError                                  build/stm32l0xx_hal_adc.o
HAL_ADC_GetState                                  build/stm32l0xx_hal_adc.o
HAL_ADC_GetValue                                  build/stm32l0xx_hal_adc.o
HAL_ADC_IRQHandler                                build/stm32l0xx_hal_adc.o
HAL_ADC_Init                                      build/stm32l0xx_hal_adc.o
HAL_ADC_LevelOutOfWindowCallback                  build/stm32l0xx_hal_adc.o
HAL_ADC_MspDeInit                                 build/stm32l0xx_hal_msp.o
HAL_ADC_MspInit                                   build/stm32l0xx_hal_msp.o
HAL_ADC_PollForConversion                         build/stm32l0xx_hal_adc.o
HAL_ADC_PollForEvent                              build/stm32l0xx_hal_adc.o
HAL_ADC_Start                                     build/stm32l0xx_hal_adc.o
HAL_ADC_Start_DMA                                 build/stm32l0xx_hal_adc.o
HAL_ADC_Start_IT                                  build/stm32l0xx_hal_adc.o
HAL_ADC_Stop                                      build/stm32l0xx_hal_adc.o
HAL_ADC_Stop_DMA                                  build/stm32l0xx_hal_adc.o
HAL_ADC_Stop_IT                                   build/stm32l0xx_hal_adc.o
HAL_DACEx_NoiseWaveGenerate                       build/stm32l0xx_hal_dac_ex.o
HAL_DACEx_TriangleWaveGenerate                    build/stm32l0xx_hal_dac_ex.o
HAL_DAC_ConfigChannel                             build/stm32l0xx_hal_dac.o
HAL_DAC_ConvCpltCallbackCh1                       build/stm32l0xx_hal_dac.o
                                                  build/stm32l0xx_hal_dac_ex.o
HAL_DAC_ConvHalfCpltCallbackCh1                   build/stm32l0xx_hal_dac.o
                                                  build/stm32l0xx_hal_dac_ex.o
HAL_DAC_DMAUnderrunCallbackCh1                    build/stm32l0xx_hal_dac.o
                                                  build/stm32l0xx_hal_dac_ex.o
HAL_DAC_DeInit                                    build/stm32l0xx_hal_dac.o
HAL_DAC_ErrorCallbackCh1                          build/stm32l0xx_hal_dac.o
                                                  build/stm32l0xx_hal_dac_ex.o
HAL_DAC_GetError                                  build/stm32l0xx_hal_dac.o
HAL_DAC_GetState                                  build/stm32l0xx_hal_dac.o
HAL_DAC_GetValue                                  build/stm32l0xx_hal_dac_ex.o
                                                  build/stm32l0xx_hal_dac.o
HAL_DAC_IRQHandler                                build/stm32l0xx_hal_dac_ex.o
                                                  build/stm32l0xx_hal_dac.o
HAL_DAC_Init                                      build/stm32l0xx_hal_dac.o
HAL_DAC_MspDeInit                                 build/stm32l0xx_hal_msp.o
HAL_DAC_MspInit                                   build/stm32l0xx_hal_msp.o
HAL_DAC_SetValue                                  build/stm32l0xx_hal_dac_ex.o
                                                  build/stm32l0xx_hal_dac.o
HAL_DAC_Start                                     build/stm32l0xx_hal_dac_ex.o
                                                  build/stm32l0xx_hal_dac.o
HAL_DAC_Start_DMA                                 build/stm32l0xx_hal_dac_ex.o
                                                  build/stm32l0xx_hal_dac.o
HAL_DAC_Stop                                      build/stm32l0xx_hal_dac.o
HAL_DAC_Stop_DMA                                  build/stm32l0xx_hal_dac_ex.o
                                                  build/stm32l0xx_hal_dac.o
HAL_DBGMCU_DBG_DisableLowPowerConfig              build/stm32l0xx_hal.o
HAL_DBGMCU_DBG_EnableLowPowerConfig               build/stm32l0xx_hal.o
HAL_DBGMCU_DisableDBGSleepMode                    build/stm32l0xx_hal.o
HAL_DBGMCU_DisableDBGStandbyMode                  build/stm32l0xx_hal.o
HAL_DBGMCU_DisableDBGStopMode                     build/stm32l0xx_hal.o
HAL_DBGMCU_EnableDBGSleepMode                     build/stm32l0xx_hal.o
HAL_DBGMCU_EnableDBGStandbyMode                   build/stm32l0xx_hal.o
HAL_DBGMCU_EnableDBGStopMode                      build/stm32l0xx_hal.o
HAL_DMA_Abort                                     build/stm32l0xx_hal_dma.o
                                                  build/stm32l0xx_hal_uart.o
                                                  build/stm32l0xx_hal_dac_ex.o
                                                  build/stm32l0xx_hal_adc.o
HAL_DMA_Abort_IT                                  build/stm32l0xx_hal_dma.o
                                                  build/stm32l0xx_hal_uart.o
                                                  build/stm32l0xx_hal_i2c.o
HAL_DMA_DeInit                                    build/stm32l0xx_hal_dma.o
HAL_DMA_GetError                                  build/stm32l0xx_hal_dma.o
                                                  build/stm32l0xx_hal_uart.o
HAL_DMA_GetState                                  build/stm32l0xx_hal_dma.o
HAL_DMA_IRQHandler                                build/stm32l0xx_hal_dma.o
HAL_DMA_Init                                      build/stm32l0xx_hal_dma.o
HAL_DMA_PollForTransfer                           build/stm32l0xx_hal_dma.o
HAL_DMA_RegisterCallback                          build/stm32l0xx_hal_dma.o
HAL_DMA_Start                                     build/stm32l0xx_hal_dma.o
HAL_DMA_Start_IT                                  build/stm32l0xx_hal_dma.o
                                                  build/stm32l0xx_hal_uart.o
                                                  build/stm32l0xx_hal_i2c.o
                                                  build/stm32l0xx_hal_dac_ex.o
                                                  build/stm32l0xx_hal_adc.o
HAL_DMA_UnRegisterCallback                        build/stm32l0xx_hal_dma.o
HAL_DeInit                                        build/stm32l0xx_hal.o
HAL_Delay                                         build/stm32l0xx_hal.o
                                                  build/stm32l0xx_hal_pcd_ex.o
                                                  build/usbd_conf.o
HAL_FLASHEx_AdvOBGetConfig                        build/stm32l0xx_hal_flash_ex.o
HAL_FLASHEx_AdvOBProgram                          build/stm32l0xx_hal_flash_ex.o
HAL_FLASHEx_DATAEEPROM_DisableFixedTimeProgram    build/stm32l0xx_hal_flash_ex.o
HAL_FLASHEx_DATAEEPROM_EnableFixedTimeProgram     build/stm32l0xx_hal_flash_ex.o
HAL_FLASHEx_DATAEEPROM_Erase                      build/stm32l0xx_hal_flash_ex.o
HAL_FLASHEx_DATAEEPROM_Lock                       build/stm32l0xx_hal_flash_ex.o
HAL_FLASHEx_DATAEEPROM_Program                    build/stm32l0xx_hal_flash_ex.o
HAL_FLASHEx_DATAEEPROM_Unlock                     build/stm32l0xx_hal_flash_ex.o
HAL_FLASHEx_DisableRunPowerDown                   build/stm32l0xx_hal_flash_ramfunc.o
HAL_FLASHEx_EnableRunPowerDown                    build/stm32l0xx_hal_flash_ramfunc.o
HAL_FLASHEx_Erase                                 build/stm32l0xx_hal_flash_ex.o
HAL_FLASHEx_Erase_IT                              build/stm32l0xx_hal_flash_ex.o
HAL_FLASHEx_GetError                              build/stm32l0xx_hal_flash_ramfunc.o
HAL_FLASHEx_HalfPageProgram                       build/stm32l0xx_hal_flash_ramfunc.o
HAL_FLASHEx_OBGetConfig                           build/stm32l0xx_hal_flash_ex.o
HAL_FLASHEx_OBProgram                             build/stm32l0xx_hal_flash_ex.o
HAL_FLASHEx_OB_DeSelectPCROP                      build/stm32l0xx_hal_flash_ex.o
HAL_FLASHEx_OB_SelectPCROP                        build/stm32l0xx_hal_flash_ex.o
HAL_FLASH_EndOfOperationCallback                  build/stm32l0xx_hal_flash.o
HAL_FLASH_GetError                                build/stm32l0xx_hal_flash.o
HAL_FLASH_IRQHandler                              build/stm32l0xx_hal_flash.o
HAL_FLASH_Lock                                    build/stm32l0xx_hal_flash.o
HAL_FLASH_OB_Launch                               build/stm32l0xx_hal_flash.o
HAL_FLASH_OB_Lock                                 build/stm32l0xx_hal_flash.o
HAL_FLASH_OB_Unlock                               build/stm32l0xx_hal_flash.o
HAL_FLASH_OperationErrorCallback                  build/stm32l0xx_hal_flash.o
HAL_FLASH_Program                                 build/stm32l0xx_hal_flash.o
HAL_FLASH_Program_IT                              build/stm32l0xx_hal_flash.o
HAL_FLASH_Unlock                                  build/stm32l0xx_hal_flash.o
HAL_GPIO_DeInit                                   build/stm32l0xx_hal_gpio.o
                                                  build/stm32l0xx_hal_msp.o
HAL_GPIO_EXTI_Callback                            build/stm32l0xx_hal_gpio.o
HAL_GPIO_EXTI_IRQHandler                          build/stm32l0xx_hal_gpio.o
HAL_GPIO_Init                                     build/stm32l0xx_hal_gpio.o
                                                  build/stm32l0xx_hal_rcc.o
                                                  build/stm32l0xx_hal_msp.o
HAL_GPIO_LockPin                                  build/stm32l0xx_hal_gpio.o
HAL_GPIO_ReadPin                                  build/stm32l0xx_hal_gpio.o
HAL_GPIO_TogglePin                                build/stm32l0xx_hal_gpio.o
HAL_GPIO_WritePin                                 build/stm32l0xx_hal_gpio.o
HAL_GetDEVID                                      build/stm32l0xx_hal.o
HAL_GetHalVersion                                 build/stm32l0xx_hal.o
HAL_GetREVID                                      build/stm32l0xx_hal.o
HAL_GetTick                                       build/stm32l0xx_hal.o
                                                  build/stm32l0xx_hal_dma.o
                                                  build/stm32l0xx_hal_flash.o
                                                  build/stm32l0xx_hal_rcc_ex.o
                                                  build/stm32l0xx_hal_rcc.o
                                                  build/stm32l0xx_hal_uart_ex.o
                                                  build/stm32l0xx_hal_uart.o
                                                  build/stm32l0xx_hal_i2c.o
                                                  build/stm32l0xx_hal_adc_ex.o
                                                  build/stm32l0xx_hal_adc.o
                                                  build/stm32l0xx_hal_pcd_ex.o
HAL_GetUIDw0                                      build/stm32l0xx_hal.o
HAL_GetUIDw1                                      build/stm32l0xx_hal.o
HAL_GetUIDw2                                      build/stm32l0xx_hal.o
HAL_HalfDuplex_EnableReceiver                     build/stm32l0xx_hal_uart.o
HAL_HalfDuplex_EnableTransmitter                  build/stm32l0xx_hal_uart.o
HAL_HalfDuplex_Init                               build/stm32l0xx_hal_uart.o
HAL_I2CEx_ConfigAnalogFilter                      build/stm32l0xx_hal_i2c_ex.o
HAL_I2CEx_ConfigDigitalFilter                     build/stm32l0xx_hal_i2c_ex.o
HAL_I2CEx_DisableFastModePlus                     build/stm32l0xx_hal_i2c_ex.o
HAL_I2CEx_DisableWakeUp                           build/stm32l0xx_hal_i2c_ex.o
HAL_I2CEx_EnableFastModePlus                      build/stm32l0xx_hal_i2c_ex.o
HAL_I2CEx_EnableWakeUp                            build/stm32l0xx_hal_i2c_ex.o
HAL_I2C_AbortCpltCallback                         build/stm32l0xx_hal_i2c.o
HAL_I2C_AddrCallback                              build/stm32l0xx_hal_i2c.o
HAL_I2C_DeInit                                    build/stm32l0xx_hal_i2c.o
HAL_I2C_DisableListen_IT                          build/stm32l0xx_hal_i2c.o
HAL_I2C_ER_IRQHandler                             build/stm32l0xx_hal_i2c.o
HAL_I2C_EV_IRQHandler                             build/stm32l0xx_hal_i2c.o
HAL_I2C_EnableListen_IT                           build/stm32l0xx_hal_i2c.o
HAL_I2C_ErrorCallback                             build/stm32l0xx_hal_i2c.o
HAL_I2C_GetError                                  build/stm32l0xx_hal_i2c.o
HAL_I2C_GetMode                                   build/stm32l0xx_hal_i2c.o
HAL_I2C_GetState                                  build/stm32l0xx_hal_i2c.o
HAL_I2C_Init                                      build/stm32l0xx_hal_i2c.o
HAL_I2C_IsDeviceReady                             build/stm32l0xx_hal_i2c.o
HAL_I2C_ListenCpltCallback                        build/stm32l0xx_hal_i2c.o
HAL_I2C_MasterRxCpltCallback                      build/stm32l0xx_hal_i2c.o
HAL_I2C_MasterTxCpltCallback                      build/stm32l0xx_hal_i2c.o
HAL_I2C_Master_Abort_IT                           build/stm32l0xx_hal_i2c.o
HAL_I2C_Master_Receive                            build/stm32l0xx_hal_i2c.o
HAL_I2C_Master_Receive_DMA                        build/stm32l0xx_hal_i2c.o
HAL_I2C_Master_Receive_IT                         build/stm32l0xx_hal_i2c.o
HAL_I2C_Master_Seq_Receive_DMA                    build/stm32l0xx_hal_i2c.o
HAL_I2C_Master_Seq_Receive_IT                     build/stm32l0xx_hal_i2c.o
HAL_I2C_Master_Seq_Transmit_DMA                   build/stm32l0xx_hal_i2c.o
HAL_I2C_Master_Seq_Transmit_IT                    build/stm32l0xx_hal_i2c.o
HAL_I2C_Master_Transmit                           build/stm32l0xx_hal_i2c.o
HAL_I2C_Master_Transmit_DMA                       build/stm32l0xx_hal_i2c.o
HAL_I2C_Master_Transmit_IT                        build/stm32l0xx_hal_i2c.o
HAL_I2C_MemRxCpltCallback                         build/stm32l0xx_hal_i2c.o
HAL_I2C_MemTxCpltCallback                         build/stm32l0xx_hal_i2c.o
HAL_I2C_Mem_Read                                  build/stm32l0xx_hal_i2c.o
HAL_I2C_Mem_Read_DMA                              build/stm32l0xx_hal_i2c.o
HAL_I2C_Mem_Read_IT                               build/stm32l0xx_hal_i2c.o
HAL_I2C_Mem_Write                                 build/stm32l0xx_hal_i2c.o
HAL_I2C_Mem_Write_DMA                             build/stm32l0xx_hal_i2c.o
HAL_I2C_Mem_Write_IT                              build/stm32l0xx_hal_i2c.o
HAL_I2C_MspDeInit                                 build/stm32l0xx_hal_msp.o
HAL_I2C_MspInit                                   build/stm32l0xx_hal_msp.o
HAL_I2C_SlaveRxCpltCallback                       build/stm32l0xx_hal_i2c.o
HAL_I2C_SlaveTxCpltCallback                       build/stm32l0xx_hal_i2c.o
HAL_I2C_Slave_Receive                             build/stm32l0xx_hal_i2c.o
HAL_I2C_Slave_Receive_DMA                         build/stm32l0xx_hal_i2c.o
HAL_I2C_Slave_Receive_IT                          build/stm32l0xx_hal_i2c.o
HAL_I2C_Slave_Seq_Receive_DMA                     build/stm32l0xx_hal_i2c.o
HAL_I2C_Slave_Seq_Receive_IT                      build/stm32l0xx_hal_i2c.o
HAL_I2C_Slave_Seq_Transmit_DMA                    build/stm32l0xx_hal_i2c.o
HAL_I2C_Slave_Seq_Transmit_IT                     build/stm32l0xx_hal_i2c.o
HAL_I2C_Slave_Transmit                            build/stm32l0xx_hal_i2c.o
HAL_I2C_Slave_Transmit_DMA                        build/stm32l0xx_hal_i2c.o
HAL_I2C_Slave_Transmit_IT                         build/stm32l0xx_hal_i2c.o
HAL_IncTick                                       build/stm32l0xx_hal.o
                                                  build/stm32l0xx_it.o
HAL_Init                                          build/stm32l0xx_hal.o
                                                  build/main.o
HAL_InitTick                                      build/stm32l0xx_hal.o
                                                  build/stm32l0xx_hal_rcc.o
HAL_LIN_Init                                      build/stm32l0xx_hal_uart.o
HAL_LIN_SendBreak                                 build/stm32l0xx_hal_uart.o
HAL_MPU_ConfigRegion                              build/stm32l0xx_hal_cortex.o
HAL_MPU_Disable                                   build/stm32l0xx_hal_cortex.o
HAL_MPU_Enable                                    build/stm32l0xx_hal_cortex.o
HAL_MspDeInit                                     build/stm32l0xx_hal.o
HAL_MspInit                                       build/stm32l0xx_hal_msp.o
HAL_MultiProcessorEx_AddressLength_Set            build/stm32l0xx_hal_uart_ex.o
HAL_MultiProcessor_DisableMuteMode                build/stm32l0xx_hal_uart.o
HAL_MultiProcessor_EnableMuteMode                 build/stm32l0xx_hal_uart.o
HAL_MultiProcessor_EnterMuteMode                  build/stm32l0xx_hal_uart.o
HAL_MultiProcessor_Init                           build/stm32l0xx_hal_uart.o
HAL_NVIC_ClearPendingIRQ                          build/stm32l0xx_hal_cortex.o
HAL_NVIC_DisableIRQ                               build/stm32l0xx_hal_cortex.o
                                                  build/usbd_conf.o
HAL_NVIC_EnableIRQ                                build/stm32l0xx_hal_cortex.o
                                                  build/usbd_conf.o
HAL_NVIC_GetPendingIRQ                            build/stm32l0xx_hal_cortex.o
HAL_NVIC_GetPriority                              build/stm32l0xx_hal_cortex.o
HAL_NVIC_SetPendingIRQ                            build/stm32l0xx_hal_cortex.o
HAL_NVIC_SetPriority                              build/stm32l0xx_hal_cortex.o
                                                  build/stm32l0xx_hal.o
                                                  build/usbd_conf.o
HAL_NVIC_SystemReset                              build/stm32l0xx_hal_cortex.o
HAL_PCDEx_ActivateBCD                             build/stm32l0xx_hal_pcd_ex.o
                                                  build/stm32l0xx_hal_pcd.o
HAL_PCDEx_ActivateLPM                             build/stm32l0xx_hal_pcd_ex.o
                                                  build/stm32l0xx_hal_pcd.o
HAL_PCDEx_BCD_Callback                            build/stm32l0xx_hal_pcd_ex.o
HAL_PCDEx_BCD_VBUSDetect                          build/stm32l0xx_hal_pcd_ex.o
HAL_PCDEx_DeActivateBCD                           build/stm32l0xx_hal_pcd_ex.o
HAL_PCDEx_DeActivateLPM                           build/stm32l0xx_hal_pcd_ex.o
HAL_PCDEx_LPM_Callback                            build/stm32l0xx_hal_pcd_ex.o
                                                  build/stm32l0xx_hal_pcd.o
HAL_PCDEx_PMAConfig                               build/stm32l0xx_hal_pcd_ex.o
                                                  build/usbd_conf.o
HAL_PCDEx_SetConnectionState                      build/usbd_conf.o
HAL_PCD_ActivateRemoteWakeup                      build/stm32l0xx_hal_pcd.o
HAL_PCD_ConnectCallback                           build/usbd_conf.o
HAL_PCD_DataInStageCallback                       build/usbd_conf.o
HAL_PCD_DataOutStageCallback                      build/usbd_conf.o
HAL_PCD_DeActivateRemoteWakeup                    build/stm32l0xx_hal_pcd.o
HAL_PCD_DeInit                                    build/stm32l0xx_hal_pcd.o
                                                  build/usbd_conf.o
HAL_PCD_DevConnect                                build/stm32l0xx_hal_pcd.o
HAL_PCD_DevDisconnect                             build/stm32l0xx_hal_pcd.o
HAL_PCD_DisconnectCallback                        build/usbd_conf.o
HAL_PCD_EP_Close                                  build/stm32l0xx_hal_pcd.o
                                                  build/usbd_conf.o
HAL_PCD_EP_ClrStall                               build/stm32l0xx_hal_pcd.o
                                                  build/usbd_conf.o
HAL_PCD_EP_Flush                                  build/stm32l0xx_hal_pcd.o
                                                  build/usbd_conf.o
HAL_PCD_EP_GetRxCount                             build/stm32l0xx_hal_pcd.o
                                                  build/usbd_conf.o
HAL_PCD_EP_Open                                   build/stm32l0xx_hal_pcd.o
                                                  build/usbd_conf.o
HAL_PCD_EP_Receive                                build/stm32l0xx_hal_pcd.o
                                                  build/usbd_conf.o
HAL_PCD_EP_SetStall                               build/stm32l0xx_hal_pcd.o
                                                  build/usbd_conf.o
HAL_PCD_EP_Transmit                               build/stm32l0xx_hal_pcd.o
                                                  build/usbd_conf.o
HAL_PCD_GetState                                  build/stm32l0xx_hal_pcd.o
HAL_PCD_IRQHandler                                build/stm32l0xx_hal_pcd.o
                                                  build/stm32l0xx_it.o
HAL_PCD_ISOINIncompleteCallback                   build/usbd_conf.o
HAL_PCD_ISOOUTIncompleteCallback                  build/usbd_conf.o
HAL_PCD_Init                                      build/stm32l0xx_hal_pcd.o
                                                  build/usbd_conf.o
HAL_PCD_MspDeInit                                 build/usbd_conf.o
HAL_PCD_MspInit                                   build/usbd_conf.o
HAL_PCD_ResetCallback                             build/usbd_conf.o
HAL_PCD_ResumeCallback                            build/usbd_conf.o
HAL_PCD_SOFCallback                               build/usbd_conf.o
HAL_PCD_SetAddress                                build/stm32l0xx_hal_pcd.o
                                                  build/usbd_conf.o
HAL_PCD_SetupStageCallback                        build/usbd_conf.o
HAL_PCD_Start                                     build/stm32l0xx_hal_pcd.o
                                                  build/usbd_conf.o
HAL_PCD_Stop                                      build/stm32l0xx_hal_pcd.o
                                                  build/usbd_conf.o
HAL_PCD_SuspendCallback                           build/usbd_conf.o
HAL_PWREx_DisableFastWakeUp                       build/stm32l0xx_hal_pwr_ex.o
HAL_PWREx_DisableLowPowerRunMode                  build/stm32l0xx_hal_pwr_ex.o
HAL_PWREx_DisableUltraLowPower                    build/stm32l0xx_hal_pwr_ex.o
HAL_PWREx_EnableFastWakeUp                        build/stm32l0xx_hal_pwr_ex.o
HAL_PWREx_EnableLowPowerRunMode                   build/stm32l0xx_hal_pwr_ex.o
HAL_PWREx_EnableUltraLowPower                     build/stm32l0xx_hal_pwr_ex.o
HAL_PWREx_GetVoltageRange                         build/stm32l0xx_hal_pwr_ex.o
HAL_PWR_ConfigPVD                                 build/stm32l0xx_hal_pwr.o
HAL_PWR_DeInit                                    build/stm32l0xx_hal_pwr.o
HAL_PWR_DisableBkUpAccess                         build/stm32l0xx_hal_pwr.o
HAL_PWR_DisablePVD                                build/stm32l0xx_hal_pwr.o
HAL_PWR_DisableSEVOnPend                          build/stm32l0xx_hal_pwr.o
HAL_PWR_DisableSleepOnExit                        build/stm32l0xx_hal_pwr.o
HAL_PWR_DisableWakeUpPin                          build/stm32l0xx_hal_pwr.o
HAL_PWR_EnableBkUpAccess                          build/stm32l0xx_hal_pwr.o
HAL_PWR_EnablePVD                                 build/stm32l0xx_hal_pwr.o
HAL_PWR_EnableSEVOnPend                           build/stm32l0xx_hal_pwr.o
HAL_PWR_EnableSleepOnExit                         build/stm32l0xx_hal_pwr.o
HAL_PWR_EnableWakeUpPin                           build/stm32l0xx_hal_pwr.o
HAL_PWR_EnterSLEEPMode                            build/stm32l0xx_hal_pwr.o
HAL_PWR_EnterSTANDBYMode                          build/stm32l0xx_hal_pwr.o
HAL_PWR_EnterSTOPMode                             build/stm32l0xx_hal_pwr.o
HAL_PWR_PVDCallback                               build/stm32l0xx_hal_pwr.o
HAL_PWR_PVD_IRQHandler                            build/stm32l0xx_hal_pwr.o
HAL_RCCEx_CRSConfig                               build/stm32l0xx_hal_rcc_ex.o
HAL_RCCEx_CRSGetSynchronizationInfo               build/stm32l0xx_hal_rcc_ex.o
HAL_RCCEx_CRSSoftwareSynchronizationGenerate      build/stm32l0xx_hal_rcc_ex.o
HAL_RCCEx_CRSWaitSynchronization                  build/stm32l0xx_hal_rcc_ex.o
HAL_RCCEx_CRS_ErrorCallback                       build/stm32l0xx_hal_rcc_ex.o
HAL_RCCEx_CRS_ExpectedSyncCallback                build/stm32l0xx_hal_rcc_ex.o
HAL_RCCEx_CRS_IRQHandler                          build/stm32l0xx_hal_rcc_ex.o
HAL_RCCEx_CRS_SyncOkCallback                      build/stm32l0xx_hal_rcc_ex.o
HAL_RCCEx_CRS_SyncWarnCallback                    build/stm32l0xx_hal_rcc_ex.o
HAL_RCCEx_DisableHSI48_VREFINT                    build/stm32l0xx_hal_rcc_ex.o
HAL_RCCEx_DisableLSECSS                           build/stm32l0xx_hal_rcc_ex.o
HAL_RCCEx_EnableHSI48_VREFINT                     build/stm32l0xx_hal_rcc_ex.o
HAL_RCCEx_EnableLSECSS                            build/stm32l0xx_hal_rcc_ex.o
HAL_RCCEx_EnableLSECSS_IT                         build/stm32l0xx_hal_rcc_ex.o
HAL_RCCEx_GetPeriphCLKConfig                      build/stm32l0xx_hal_rcc_ex.o
HAL_RCCEx_GetPeriphCLKFreq                        build/stm32l0xx_hal_rcc_ex.o
HAL_RCCEx_LSECSS_Callback                         build/stm32l0xx_hal_rcc_ex.o
HAL_RCCEx_LSECSS_IRQHandler                       build/stm32l0xx_hal_rcc_ex.o
HAL_RCCEx_PeriphCLKConfig                         build/stm32l0xx_hal_rcc_ex.o
                                                  build/main.o
HAL_RCC_CSSCallback                               build/stm32l0xx_hal_rcc.o
HAL_RCC_ClockConfig                               build/stm32l0xx_hal_rcc.o
                                                  build/main.o
HAL_RCC_DeInit                                    build/stm32l0xx_hal_rcc.o
HAL_RCC_EnableCSS                                 build/stm32l0xx_hal_rcc.o
HAL_RCC_GetClockConfig                            build/stm32l0xx_hal_rcc.o
HAL_RCC_GetHCLKFreq                               build/stm32l0xx_hal_rcc.o
HAL_RCC_GetOscConfig                              build/stm32l0xx_hal_rcc.o
HAL_RCC_GetPCLK1Freq                              build/stm32l0xx_hal_rcc.o
                                                  build/stm32l0xx_hal_rcc_ex.o
                                                  build/stm32l0xx_hal_uart.o
HAL_RCC_GetPCLK2Freq                              build/stm32l0xx_hal_rcc.o
                                                  build/stm32l0xx_hal_rcc_ex.o
                                                  build/stm32l0xx_hal_uart.o
HAL_RCC_GetSysClockFreq                           build/stm32l0xx_hal_rcc.o
                                                  build/stm32l0xx_hal_rcc_ex.o
                                                  build/stm32l0xx_hal_uart.o
HAL_RCC_MCOConfig                                 build/stm32l0xx_hal_rcc.o
HAL_RCC_NMI_IRQHandler                            build/stm32l0xx_hal_rcc.o
HAL_RCC_OscConfig                                 build/stm32l0xx_hal_rcc.o
                                                  build/main.o
HAL_RS485Ex_Init                                  build/stm32l0xx_hal_uart_ex.o
HAL_ResumeTick                                    build/stm32l0xx_hal.o
HAL_SYSCFG_Disable_Lock_VREFINT                   build/stm32l0xx_hal.o
HAL_SYSCFG_Enable_Lock_VREFINT                    build/stm32l0xx_hal.o
HAL_SYSCFG_GetBootMode                            build/stm32l0xx_hal.o
HAL_SYSCFG_VREFINT_OutputSelect                   build/stm32l0xx_hal.o
HAL_SYSTICK_CLKSourceConfig                       build/stm32l0xx_hal_cortex.o
HAL_SYSTICK_Callback                              build/stm32l0xx_hal_cortex.o
HAL_SYSTICK_Config                                build/stm32l0xx_hal_cortex.o
                                                  build/stm32l0xx_hal.o
HAL_SYSTICK_IRQHandler                            build/stm32l0xx_hal_cortex.o
HAL_SuspendTick                                   build/stm32l0xx_hal.o
HAL_UARTEx_DisableClockStopMode                   build/stm32l0xx_hal_uart_ex.o
HAL_UARTEx_DisableStopMode                        build/stm32l0xx_hal_uart_ex.o
HAL_UARTEx_EnableClockStopMode                    build/stm32l0xx_hal_uart_ex.o
HAL_UARTEx_EnableStopMode                         build/stm32l0xx_hal_uart_ex.o
HAL_UARTEx_StopModeWakeUpSourceConfig             build/stm32l0xx_hal_uart_ex.o
HAL_UARTEx_WakeupCallback                         build/stm32l0xx_hal_uart_ex.o
                                                  build/stm32l0xx_hal_uart.o
HAL_UART_Abort                                    build/stm32l0xx_hal_uart.o
HAL_UART_AbortCpltCallback                        build/stm32l0xx_hal_uart.o
HAL_UART_AbortReceive                             build/stm32l0xx_hal_uart.o
HAL_UART_AbortReceiveCpltCallback                 build/stm32l0xx_hal_uart.o
HAL_UART_AbortReceive_IT                          build/stm32l0xx_hal_uart.o
HAL_UART_AbortTransmit                            build/stm32l0xx_hal_uart.o
HAL_UART_AbortTransmitCpltCallback                build/stm32l0xx_hal_uart.o
HAL_UART_AbortTransmit_IT                         build/stm32l0xx_hal_uart.o
HAL_UART_Abort_IT                                 build/stm32l0xx_hal_uart.o
HAL_UART_DMAPause                                 build/stm32l0xx_hal_uart.o
HAL_UART_DMAResume                                build/stm32l0xx_hal_uart.o
HAL_UART_DMAStop                                  build/stm32l0xx_hal_uart.o
HAL_UART_DeInit                                   build/stm32l0xx_hal_uart.o
HAL_UART_ErrorCallback                            build/stm32l0xx_hal_uart.o
HAL_UART_GetError                                 build/stm32l0xx_hal_uart.o
HAL_UART_GetState                                 build/stm32l0xx_hal_uart.o
HAL_UART_IRQHandler                               build/stm32l0xx_hal_uart.o
HAL_UART_Init                                     build/stm32l0xx_hal_uart.o
HAL_UART_MspDeInit                                build/stm32l0xx_hal_msp.o
HAL_UART_MspInit                                  build/stm32l0xx_hal_msp.o
                                                  build/stm32l0xx_hal_uart_ex.o
HAL_UART_Receive                                  build/stm32l0xx_hal_uart.o
HAL_UART_Receive_DMA                              build/stm32l0xx_hal_uart.o
HAL_UART_Receive_IT                               build/stm32l0xx_hal_uart.o
HAL_UART_RxCpltCallback                           build/stm32l0xx_hal_uart.o
HAL_UART_RxHalfCpltCallback                       build/stm32l0xx_hal_uart.o
HAL_UART_Transmit                                 build/stm32l0xx_hal_uart.o
HAL_UART_Transmit_DMA                             build/stm32l0xx_hal_uart.o
HAL_UART_Transmit_IT                              build/stm32l0xx_hal_uart.o
HAL_UART_TxCpltCallback                           build/stm32l0xx_hal_uart.o
HAL_UART_TxHalfCpltCallback                       build/stm32l0xx_hal_uart.o
HardFault_Handler                                 build/stm32l0xx_it.o
I2C1_IRQHandler                                   build/startup_stm32l052xx.o
I2C2_IRQHandler                                   build/startup_stm32l052xx.o
LPTIM1_IRQHandler                                 build/startup_stm32l052xx.o
MX_USB_DEVICE_Init                                build/usb_device.o
                                                  build/main.o
NMI_Handler                                       build/stm32l0xx_it.o
PLLMulTable                                       build/system_stm32l0xx.o
                                                  build/stm32l0xx_hal_rcc_ex.o
                                                  build/stm32l0xx_hal_rcc.o
PVD_IRQHandler                                    build/startup_stm32l052xx.o
PendSV_Handler                                    build/stm32l0xx_it.o
RCC_CRS_IRQHandler                                build/startup_stm32l052xx.o
RNG_LPUART1_IRQHandler                            build/startup_stm32l052xx.o
RTC_IRQHandler                                    build/startup_stm32l052xx.o
Reset_Handler                                     build/startup_stm32l052xx.o
RxbufPoint                                        build/main.o
Rxbuffer                                          build/main.o
SPI1_IRQHandler                                   build/startup_stm32l052xx.o
SPI2_IRQHandler                                   build/startup_stm32l052xx.o
SVC_Handler                                       build/stm32l0xx_it.o
SetClockForADC                                    build/adc.o
                                                  build/main.o
SysTick_Handler                                   build/stm32l0xx_it.o
SystemClock_Config                                build/main.o
                                                  build/usbd_conf.o
SystemCoreClock                                   build/system_stm32l0xx.o
                                                  build/stm32l0xx_hal_pwr_ex.o
                                                  build/stm32l0xx_hal_rcc.o
                                                  build/stm32l0xx_hal.o
                                                  build/stm32l0xx_hal_adc.o
SystemCoreClockUpdate                             build/system_stm32l0xx.o
SystemInit                                        build/system_stm32l0xx.o
                                                  build/startup_stm32l052xx.o
TIM21_IRQHandler                                  build/startup_stm32l052xx.o
TIM22_IRQHandler                                  build/startup_stm32l052xx.o
TIM2_IRQHandler                                   build/startup_stm32l052xx.o
TIM6_DAC_IRQHandler                               build/startup_stm32l052xx.o
TSC_IRQHandler                                    build/startup_stm32l052xx.o
UART_AdvFeatureConfig                             build/stm32l0xx_hal_uart.o
                                                  build/stm32l0xx_hal_uart_ex.o
UART_CheckIdleState                               build/stm32l0xx_hal_uart.o
                                                  build/stm32l0xx_hal_uart_ex.o
UART_SetConfig                                    build/stm32l0xx_hal_uart.o
                                                  build/stm32l0xx_hal_uart_ex.o
UART_WaitOnFlagUntilTimeout                       build/stm32l0xx_hal_uart.o
                                                  build/stm32l0xx_hal_uart_ex.o
USART1_IRQHandler                                 build/startup_stm32l052xx.o
USART2_IRQHandler                                 build/startup_stm32l052xx.o
USBD_CDC                                          build/usbd_cdc.o
                                                  build/usb_device.o
USBD_CDC_CfgFSDesc                                build/usbd_cdc.o
USBD_CDC_CfgHSDesc                                build/usbd_cdc.o
USBD_CDC_GetDeviceQualifierDescriptor             build/usbd_cdc.o
USBD_CDC_OtherSpeedCfgDesc                        build/usbd_cdc.o
USBD_CDC_ReceivePacket                            build/usbd_cdc.o
                                                  build/usbd_cdc_if.o
USBD_CDC_RegisterInterface                        build/usbd_cdc.o
                                                  build/usb_device.o
USBD_CDC_SetRxBuffer                              build/usbd_cdc.o
                                                  build/usbd_cdc_if.o
USBD_CDC_SetTxBuffer                              build/usbd_cdc.o
                                                  build/usbd_cdc_if.o
USBD_CDC_TransmitPacket                           build/usbd_cdc.o
                                                  build/usbd_cdc_if.o
USBD_ClrClassConfig                               build/usbd_core.o
                                                  build/usbd_ctlreq.o
USBD_CtlContinueRx                                build/usbd_ioreq.o
                                                  build/usbd_core.o
USBD_CtlContinueSendData                          build/usbd_ioreq.o
                                                  build/usbd_core.o
USBD_CtlError                                     build/usbd_ctlreq.o
                                                  build/usbd_cdc.o
USBD_CtlPrepareRx                                 build/usbd_ioreq.o
                                                  build/usbd_cdc.o
USBD_CtlReceiveStatus                             build/usbd_ioreq.o
                                                  build/usbd_core.o
USBD_CtlSendData                                  build/usbd_ioreq.o
                                                  build/usbd_cdc.o
                                                  build/usbd_ctlreq.o
USBD_CtlSendStatus                                build/usbd_ioreq.o
                                                  build/usbd_ctlreq.o
                                                  build/usbd_core.o
USBD_DeInit                                       build/usbd_core.o
USBD_FS_ConfigStrDescriptor                       build/usbd_desc.o
USBD_FS_DeviceDesc                                build/usbd_desc.o
USBD_FS_DeviceDescriptor                          build/usbd_desc.o
USBD_FS_InterfaceStrDescriptor                    build/usbd_desc.o
USBD_FS_LangIDStrDescriptor                       build/usbd_desc.o
USBD_FS_ManufacturerStrDescriptor                 build/usbd_desc.o
USBD_FS_ProductStrDescriptor                      build/usbd_desc.o
USBD_FS_SerialStrDescriptor                       build/usbd_desc.o
USBD_GetRxCount                                   build/usbd_ioreq.o
USBD_GetString                                    build/usbd_ctlreq.o
                                                  build/usbd_desc.o
USBD_Init                                         build/usbd_core.o
                                                  build/usb_device.o
USBD_Interface_fops_FS                            build/usbd_cdc_if.o
                                                  build/usb_device.o
USBD_LL_ClearStallEP                              build/usbd_conf.o
                                                  build/usbd_ctlreq.o
USBD_LL_CloseEP                                   build/usbd_conf.o
                                                  build/usbd_cdc.o
USBD_LL_DataInStage                               build/usbd_core.o
                                                  build/usbd_conf.o
USBD_LL_DataOutStage                              build/usbd_core.o
                                                  build/usbd_conf.o
USBD_LL_DeInit                                    build/usbd_conf.o
                                                  build/usbd_core.o
USBD_LL_Delay                                     build/usbd_conf.o
USBD_LL_DevConnected                              build/usbd_core.o
                                                  build/usbd_conf.o
USBD_LL_DevDisconnected                           build/usbd_core.o
                                                  build/usbd_conf.o
USBD_LL_FlushEP                                   build/usbd_conf.o
USBD_LL_GetRxDataSize                             build/usbd_conf.o
                                                  build/usbd_cdc.o
                                                  build/usbd_ioreq.o
USBD_LL_Init                                      build/usbd_conf.o
                                                  build/usbd_core.o
USBD_LL_IsStallEP                                 build/usbd_conf.o
                                                  build/usbd_ctlreq.o
USBD_LL_IsoINIncomplete                           build/usbd_core.o
                                                  build/usbd_conf.o
USBD_LL_IsoOUTIncomplete                          build/usbd_core.o
                                                  build/usbd_conf.o
USBD_LL_OpenEP                                    build/usbd_conf.o
                                                  build/usbd_cdc.o
                                                  build/usbd_core.o
USBD_LL_PrepareReceive                            build/usbd_conf.o
                                                  build/usbd_cdc.o
                                                  build/usbd_ioreq.o
                                                  build/usbd_core.o
USBD_LL_Reset                                     build/usbd_core.o
                                                  build/usbd_conf.o
USBD_LL_Resume                                    build/usbd_core.o
                                                  build/usbd_conf.o
USBD_LL_SOF                                       build/usbd_core.o
                                                  build/usbd_conf.o
USBD_LL_SetSpeed                                  build/usbd_core.o
                                                  build/usbd_conf.o
USBD_LL_SetUSBAddress                             build/usbd_conf.o
                                                  build/usbd_ctlreq.o
USBD_LL_SetupStage                                build/usbd_core.o
                                                  build/usbd_conf.o
USBD_LL_StallEP                                   build/usbd_conf.o
                                                  build/usbd_ctlreq.o
                                                  build/usbd_core.o
USBD_LL_Start                                     build/usbd_conf.o
                                                  build/usbd_core.o
USBD_LL_Stop                                      build/usbd_conf.o
                                                  build/usbd_core.o
USBD_LL_Suspend                                   build/usbd_core.o
                                                  build/usbd_conf.o
USBD_LL_Transmit                                  build/usbd_conf.o
                                                  build/usbd_cdc.o
                                                  build/usbd_ioreq.o
USBD_LangIDDesc                                   build/usbd_desc.o
USBD_ParseSetupRequest                            build/usbd_ctlreq.o
                                                  build/usbd_core.o
USBD_RegisterClass                                build/usbd_core.o
                                                  build/usb_device.o
USBD_RunTestMode                                  build/usbd_core.o
USBD_SetClassConfig                               build/usbd_core.o
                                                  build/usbd_ctlreq.o
USBD_Start                                        build/usbd_core.o
                                                  build/usb_device.o
USBD_StdDevReq                                    build/usbd_ctlreq.o
                                                  build/usbd_core.o
USBD_StdEPReq                                     build/usbd_ctlreq.o
                                                  build/usbd_core.o
USBD_StdItfReq                                    build/usbd_ctlreq.o
                                                  build/usbd_core.o
USBD_Stop                                         build/usbd_core.o
USBD_StrDesc                                      build/usbd_desc.o
USBD_static_free                                  build/usbd_conf.o
                                                  build/usbd_cdc.o
USBD_static_malloc                                build/usbd_conf.o
                                                  build/usbd_cdc.o
USB_ActivateEndpoint                              build/stm32l0xx_ll_usb.o
                                                  build/stm32l0xx_hal_pcd.o
USB_ActivateRemoteWakeup                          build/stm32l0xx_ll_usb.o
                                                  build/stm32l0xx_hal_pcd.o
USB_ClearInterrupts                               build/stm32l0xx_ll_usb.o
USB_CoreInit                                      build/stm32l0xx_ll_usb.o
USB_DeActivateRemoteWakeup                        build/stm32l0xx_ll_usb.o
                                                  build/stm32l0xx_hal_pcd.o
USB_DeactivateEndpoint                            build/stm32l0xx_ll_usb.o
                                                  build/stm32l0xx_hal_pcd.o
USB_DevConnect                                    build/stm32l0xx_ll_usb.o
                                                  build/stm32l0xx_hal_pcd.o
USB_DevDisconnect                                 build/stm32l0xx_ll_usb.o
                                                  build/stm32l0xx_hal_pcd.o
USB_DevInit                                       build/stm32l0xx_ll_usb.o
                                                  build/stm32l0xx_hal_pcd.o
USB_DisableGlobalInt                              build/stm32l0xx_ll_usb.o
                                                  build/stm32l0xx_hal_pcd.o
USB_EP0_OutStart                                  build/stm32l0xx_ll_usb.o
                                                  build/stm32l0xx_hal_pcd.o
USB_EPClearStall                                  build/stm32l0xx_ll_usb.o
                                                  build/stm32l0xx_hal_pcd.o
USB_EPSetStall                                    build/stm32l0xx_ll_usb.o
                                                  build/stm32l0xx_hal_pcd.o
USB_EPStartXfer                                   build/stm32l0xx_ll_usb.o
                                                  build/stm32l0xx_hal_pcd.o
USB_EnableGlobalInt                               build/stm32l0xx_ll_usb.o
                                                  build/stm32l0xx_hal_pcd.o
USB_FlushRxFifo                                   build/stm32l0xx_ll_usb.o
USB_FlushTxFifo                                   build/stm32l0xx_ll_usb.o
USB_IRQHandler                                    build/stm32l0xx_it.o
USB_ReadDevAllInEpInterrupt                       build/stm32l0xx_ll_usb.o
USB_ReadDevAllOutEpInterrupt                      build/stm32l0xx_ll_usb.o
USB_ReadDevInEPInterrupt                          build/stm32l0xx_ll_usb.o
USB_ReadDevOutEPInterrupt                         build/stm32l0xx_ll_usb.o
USB_ReadInterrupts                                build/stm32l0xx_ll_usb.o
                                                  build/stm32l0xx_hal_pcd.o
USB_ReadPMA                                       build/stm32l0xx_ll_usb.o
                                                  build/stm32l0xx_hal_pcd.o
USB_ReadPacket                                    build/stm32l0xx_ll_usb.o
USB_SetCurrentMode                                build/stm32l0xx_ll_usb.o
USB_SetDevAddress                                 build/stm32l0xx_ll_usb.o
                                                  build/stm32l0xx_hal_pcd.o
USB_SetDevSpeed                                   build/stm32l0xx_ll_usb.o
USB_StopDevice                                    build/stm32l0xx_ll_usb.o
                                                  build/stm32l0xx_hal_pcd.o
USB_WritePMA                                      build/stm32l0xx_ll_usb.o
USB_WritePacket                                   build/stm32l0xx_ll_usb.o
UserRxBufferFS                                    build/usbd_cdc_if.o
UserTxBufferFS                                    build/usbd_cdc_if.o
VCP_read                                          build/usbd_cdc_if.o
                                                  build/main.o
VCP_write                                         build/usbd_cdc_if.o
                                                  build/main.o
Voltage_Conversion                                build/adc.o
WWDG_IRQHandler                                   build/startup_stm32l052xx.o
_ITM_deregisterTMCloneTable                       /usr/lib/gcc/arm-none-eabi/6.3.1/thumb/v6-m/crtbegin.o
_ITM_registerTMCloneTable                         /usr/lib/gcc/arm-none-eabi/6.3.1/thumb/v6-m/crtbegin.o
_Jv_RegisterClasses                               /usr/lib/gcc/arm-none-eabi/6.3.1/thumb/v6-m/crtbegin.o
_PathLocale                                       /usr/lib/gcc/arm-none-eabi/6.3.1/../../../arm-none-eabi/lib/thumb/v6-m/libc_nano.a(lib_a-locale.o)
__TMC_END__                                       /usr/lib/gcc/arm-none-eabi/6.3.1/thumb/v6-m/crtend.o
                                                  /usr/lib/gcc/arm-none-eabi/6.3.1/thumb/v6-m/crtbegin.o
__aeabi_fmul                                      /usr/lib/gcc/arm-none-eabi/6.3.1/thumb/v6-m/libgcc.a(mulsf3.o)
                                                  build/adc.o
__aeabi_idiv0                                     /usr/lib/gcc/arm-none-eabi/6.3.1/thumb/v6-m/libgcc.a(_dvmd_tls.o)
                                                  /usr/lib/gcc/arm-none-eabi/6.3.1/thumb/v6-m/libgcc.a(_udivsi3.o)
__aeabi_ldiv0                                     /usr/lib/gcc/arm-none-eabi/6.3.1/thumb/v6-m/libgcc.a(_dvmd_tls.o)
                                                  /usr/lib/gcc/arm-none-eabi/6.3.1/thumb/v6-m/libgcc.a(_aeabi_uldivmod.o)
__aeabi_ui2f                                      /usr/lib/gcc/arm-none-eabi/6.3.1/thumb/v6-m/libgcc.a(floatunsisf.o)
                                                  build/adc.o
__aeabi_uidiv                                     /usr/lib/gcc/arm-none-eabi/6.3.1/thumb/v6-m/libgcc.a(_udivsi3.o)
                                                  build/system_stm32l0xx.o
                                                  build/stm32l0xx_hal_pwr_ex.o
                                                  build/stm32l0xx_hal_dma.o
                                                  build/stm32l0xx_hal_rcc_ex.o
                                                  build/stm32l0xx_hal_rcc.o
                                                  build/stm32l0xx_hal.o
                                                  build/stm32l0xx_hal_uart.o
                                                  build/stm32l0xx_hal_adc.o
__aeabi_uidivmod                                  /usr/lib/gcc/arm-none-eabi/6.3.1/thumb/v6-m/libgcc.a(_udivsi3.o)
                                                  /usr/lib/gcc/arm-none-eabi/6.3.1/../../../arm-none-eabi/lib/thumb/v6-m/libc_nano.a(lib_a-nano-vfprintf_i.o)
                                                  /usr/lib/gcc/arm-none-eabi/6.3.1/../../../arm-none-eabi/lib/thumb/v6-m/libc_nano.a(lib_a-strtol.o)
                                                  build/usbd_cdc.o
                                                  build/usbd_core.o
__aeabi_uldivmod                                  /usr/lib/gcc/arm-none-eabi/6.3.1/thumb/v6-m/libgcc.a(_aeabi_uldivmod.o)
                                                  build/stm32l0xx_hal_uart.o
__ascii_mbtowc                                    /usr/lib/gcc/arm-none-eabi/6.3.1/../../../arm-none-eabi/lib/thumb/v6-m/libc_nano.a(lib_a-mbtowc_r.o)
                                                  /usr/lib/gcc/arm-none-eabi/6.3.1/../../../arm-none-eabi/lib/thumb/v6-m/libc_nano.a(lib_a-locale.o)
__ascii_wctomb                                    /usr/lib/gcc/arm-none-eabi/6.3.1/../../../arm-none-eabi/lib/thumb/v6-m/libc_nano.a(lib_a-wctomb_r.o)
                                                  /usr/lib/gcc/arm-none-eabi/6.3.1/../../../arm-none-eabi/lib/thumb/v6-m/libc_nano.a(lib_a-locale.o)
__atexit_dummy                                    /usr/lib/gcc/arm-none-eabi/6.3.1/../../../arm-none-eabi/lib/thumb/v6-m/libc_nano.a(lib_a-__atexit.o)
__bss_end__                                       /usr/lib/gcc/arm-none-eabi/6.3.1/../../../arm-none-eabi/lib/thumb/v6-m/crt0.o
__bss_start__                                     /usr/lib/gcc/arm-none-eabi/6.3.1/../../../arm-none-eabi/lib/thumb/v6-m/crt0.o
__call_exitprocs                                  /usr/lib/gcc/arm-none-eabi/6.3.1/../../../arm-none-eabi/lib/thumb/v6-m/libc_nano.a(lib_a-__call_atexit.o)
                                                  /usr/lib/gcc/arm-none-eabi/6.3.1/../../../arm-none-eabi/lib/thumb/v6-m/libc_nano.a(lib_a-__atexit.o)
                                                  /usr/lib/gcc/arm-none-eabi/6.3.1/../../../arm-none-eabi/lib/thumb/v6-m/libc_nano.a(lib_a-exit.o)
__clzdi2                                          /usr/lib/gcc/arm-none-eabi/6.3.1/thumb/v6-m/libgcc.a(_clzdi2.o)
                                                  /usr/lib/gcc/arm-none-eabi/6.3.1/thumb/v6-m/libgcc.a(_udivmoddi4.o)
__clzsi2                                          /usr/lib/gcc/arm-none-eabi/6.3.1/thumb/v6-m/libgcc.a(_clzsi2.o)
                                                  /usr/lib/gcc/arm-none-eabi/6.3.1/thumb/v6-m/libgcc.a(_clzdi2.o)
                                                  /usr/lib/gcc/arm-none-eabi/6.3.1/thumb/v6-m/libgcc.a(floatunsisf.o)
                                                  /usr/lib/gcc/arm-none-eabi/6.3.1/thumb/v6-m/libgcc.a(mulsf3.o)
__deregister_frame_info                           /usr/lib/gcc/arm-none-eabi/6.3.1/thumb/v6-m/crtbegin.o
__dso_handle                                      /usr/lib/gcc/arm-none-eabi/6.3.1/thumb/v6-m/crtbegin.o
__fini_array_end                                  /usr/lib/gcc/arm-none-eabi/6.3.1/../../../arm-none-eabi/lib/thumb/v6-m/libc_nano.a(lib_a-fini.o)
__fini_array_start                                /usr/lib/gcc/arm-none-eabi/6.3.1/../../../arm-none-eabi/lib/thumb/v6-m/libc_nano.a(lib_a-fini.o)
__global_locale                                   /usr/lib/gcc/arm-none-eabi/6.3.1/../../../arm-none-eabi/lib/thumb/v6-m/libc_nano.a(lib_a-locale.o)
                                                  /usr/lib/gcc/arm-none-eabi/6.3.1/../../../arm-none-eabi/lib/thumb/v6-m/libc_nano.a(lib_a-wctomb_r.o)
                                                  /usr/lib/gcc/arm-none-eabi/6.3.1/../../../arm-none-eabi/lib/thumb/v6-m/libc_nano.a(lib_a-mbtowc_r.o)
                                                  /usr/lib/gcc/arm-none-eabi/6.3.1/../../../arm-none-eabi/lib/thumb/v6-m/libc_nano.a(lib_a-strtol.o)
__init_array_end                                  /usr/lib/gcc/arm-none-eabi/6.3.1/../../../arm-none-eabi/lib/thumb/v6-m/libc_nano.a(lib_a-init.o)
__init_array_start                                /usr/lib/gcc/arm-none-eabi/6.3.1/../../../arm-none-eabi/lib/thumb/v6-m/libc_nano.a(lib_a-init.o)
__libc_fini_array                                 /usr/lib/gcc/arm-none-eabi/6.3.1/../../../arm-none-eabi/lib/thumb/v6-m/libc_nano.a(lib_a-fini.o)
                                                  /usr/lib/gcc/arm-none-eabi/6.3.1/../../../arm-none-eabi/lib/thumb/v6-m/crt0.o
__libc_init_array                                 /usr/lib/gcc/arm-none-eabi/6.3.1/../../../arm-none-eabi/lib/thumb/v6-m/libc_nano.a(lib_a-init.o)
                                                  build/startup_stm32l052xx.o
                                                  /usr/lib/gcc/arm-none-eabi/6.3.1/../../../arm-none-eabi/lib/thumb/v6-m/crt0.o
__locale_ctype_ptr                                /usr/lib/gcc/arm-none-eabi/6.3.1/../../../arm-none-eabi/lib/thumb/v6-m/libc_nano.a(lib_a-locale.o)
__locale_ctype_ptr_l                              /usr/lib/gcc/arm-none-eabi/6.3.1/../../../arm-none-eabi/lib/thumb/v6-m/libc_nano.a(lib_a-locale.o)
                                                  /usr/lib/gcc/arm-none-eabi/6.3.1/../../../arm-none-eabi/lib/thumb/v6-m/libc_nano.a(lib_a-strtol.o)
__locale_mb_cur_max                               /usr/lib/gcc/arm-none-eabi/6.3.1/../../../arm-none-eabi/lib/thumb/v6-m/libc_nano.a(lib_a-locale.o)
__malloc_free_list                                /usr/lib/gcc/arm-none-eabi/6.3.1/../../../arm-none-eabi/lib/thumb/v6-m/libc_nano.a(lib_a-nano-mallocr.o)
                                                  /usr/lib/gcc/arm-none-eabi/6.3.1/../../../arm-none-eabi/lib/thumb/v6-m/libc_nano.a(lib_a-nano-freer.o)
__malloc_lock                                     /usr/lib/gcc/arm-none-eabi/6.3.1/../../../arm-none-eabi/lib/thumb/v6-m/libc_nano.a(lib_a-mlock.o)
                                                  /usr/lib/gcc/arm-none-eabi/6.3.1/../../../arm-none-eabi/lib/thumb/v6-m/libc_nano.a(lib_a-nano-mallocr.o)
                                                  /usr/lib/gcc/arm-none-eabi/6.3.1/../../../arm-none-eabi/lib/thumb/v6-m/libc_nano.a(lib_a-nano-freer.o)
__malloc_sbrk_start                               /usr/lib/gcc/arm-none-eabi/6.3.1/../../../arm-none-eabi/lib/thumb/v6-m/libc_nano.a(lib_a-nano-mallocr.o)
__malloc_unlock                                   /usr/lib/gcc/arm-none-eabi/6.3.1/../../../arm-none-eabi/lib/thumb/v6-m/libc_nano.a(lib_a-mlock.o)
                                                  /usr/lib/gcc/arm-none-eabi/6.3.1/../../../arm-none-eabi/lib/thumb/v6-m/libc_nano.a(lib_a-nano-mallocr.o)
                                                  /usr/lib/gcc/arm-none-eabi/6.3.1/../../../arm-none-eabi/lib/thumb/v6-m/libc_nano.a(lib_a-nano-freer.o)
__on_exit_args                                    /usr/lib/gcc/arm-none-eabi/6.3.1/../../../arm-none-eabi/lib/thumb/v6-m/libc_nano.a(lib_a-__atexit.o)
__preinit_array_end                               /usr/lib/gcc/arm-none-eabi/6.3.1/../../../arm-none-eabi/lib/thumb/v6-m/libc_nano.a(lib_a-init.o)
__preinit_array_start                             /usr/lib/gcc/arm-none-eabi/6.3.1/../../../arm-none-eabi/lib/thumb/v6-m/libc_nano.a(lib_a-init.o)
__register_exitproc                               /usr/lib/gcc/arm-none-eabi/6.3.1/../../../arm-none-eabi/lib/thumb/v6-m/libc_nano.a(lib_a-__atexit.o)
                                                  /usr/lib/gcc/arm-none-eabi/6.3.1/../../../arm-none-eabi/lib/thumb/v6-m/libc_nano.a(lib_a-atexit.o)
__register_frame_info                             /usr/lib/gcc/arm-none-eabi/6.3.1/thumb/v6-m/crtbegin.o
__sf_fake_stderr                                  /usr/lib/gcc/arm-none-eabi/6.3.1/../../../arm-none-eabi/lib/thumb/v6-m/libc_nano.a(lib_a-impure.o)
__sf_fake_stdin                                   /usr/lib/gcc/arm-none-eabi/6.3.1/../../../arm-none-eabi/lib/thumb/v6-m/libc_nano.a(lib_a-impure.o)
__sf_fake_stdout                                  /usr/lib/gcc/arm-none-eabi/6.3.1/../../../arm-none-eabi/lib/thumb/v6-m/libc_nano.a(lib_a-impure.o)
__ssprint_r                                       /usr/lib/gcc/arm-none-eabi/6.3.1/../../../arm-none-eabi/lib/thumb/v6-m/libc_nano.a(lib_a-nano-svfprintf.o)
__ssputs_r                                        /usr/lib/gcc/arm-none-eabi/6.3.1/../../../arm-none-eabi/lib/thumb/v6-m/libc_nano.a(lib_a-nano-svfprintf.o)
__stack                                           /usr/lib/gcc/arm-none-eabi/6.3.1/../../../arm-none-eabi/lib/thumb/v6-m/crt0.o
__udivmoddi4                                      /usr/lib/gcc/arm-none-eabi/6.3.1/thumb/v6-m/libgcc.a(_udivmoddi4.o)
                                                  /usr/lib/gcc/arm-none-eabi/6.3.1/thumb/v6-m/libgcc.a(_aeabi_uldivmod.o)
__udivsi3                                         /usr/lib/gcc/arm-none-eabi/6.3.1/thumb/v6-m/libgcc.a(_udivsi3.o)
_ctype_                                           /usr/lib/gcc/arm-none-eabi/6.3.1/../../../arm-none-eabi/lib/thumb/v6-m/libc_nano.a(lib_a-ctype_.o)
                                                  /usr/lib/gcc/arm-none-eabi/6.3.1/../../../arm-none-eabi/lib/thumb/v6-m/libc_nano.a(lib_a-locale.o)
_ebss                                             build/startup_stm32l052xx.o
_edata                                            build/startup_stm32l052xx.o
_estack                                           build/startup_stm32l052xx.o
_exit                                             /usr/lib/gcc/arm-none-eabi/6.3.1/../../../arm-none-eabi/lib/thumb/v6-m/libnosys.a(_exit.o)
                                                  /usr/lib/gcc/arm-none-eabi/6.3.1/../../../arm-none-eabi/lib/thumb/v6-m/libc_nano.a(lib_a-exit.o)
_fini                                             /usr/lib/gcc/arm-none-eabi/6.3.1/thumb/v6-m/crti.o
                                                  /usr/lib/gcc/arm-none-eabi/6.3.1/../../../arm-none-eabi/lib/thumb/v6-m/libc_nano.a(lib_a-fini.o)
_free_r                                           /usr/lib/gcc/arm-none-eabi/6.3.1/../../../arm-none-eabi/lib/thumb/v6-m/libc_nano.a(lib_a-nano-freer.o)
                                                  /usr/lib/gcc/arm-none-eabi/6.3.1/../../../arm-none-eabi/lib/thumb/v6-m/libc_nano.a(lib_a-reent.o)
                                                  /usr/lib/gcc/arm-none-eabi/6.3.1/../../../arm-none-eabi/lib/thumb/v6-m/libc_nano.a(lib_a-nano-reallocr.o)
                                                  /usr/lib/gcc/arm-none-eabi/6.3.1/../../../arm-none-eabi/lib/thumb/v6-m/libc_nano.a(lib_a-nano-svfprintf.o)
_global_atexit                                    /usr/lib/gcc/arm-none-eabi/6.3.1/../../../arm-none-eabi/lib/thumb/v6-m/libc_nano.a(lib_a-__call_atexit.o)
                                                  /usr/lib/gcc/arm-none-eabi/6.3.1/../../../arm-none-eabi/lib/thumb/v6-m/libc_nano.a(lib_a-__atexit.o)
_global_impure_ptr                                /usr/lib/gcc/arm-none-eabi/6.3.1/../../../arm-none-eabi/lib/thumb/v6-m/libc_nano.a(lib_a-impure.o)
                                                  /usr/lib/gcc/arm-none-eabi/6.3.1/../../../arm-none-eabi/lib/thumb/v6-m/libc_nano.a(lib_a-exit.o)
_impure_ptr                                       /usr/lib/gcc/arm-none-eabi/6.3.1/../../../arm-none-eabi/lib/thumb/v6-m/libc_nano.a(lib_a-impure.o)
                                                  /usr/lib/gcc/arm-none-eabi/6.3.1/../../../arm-none-eabi/lib/thumb/v6-m/libc_nano.a(lib_a-reent.o)
                                                  /usr/lib/gcc/arm-none-eabi/6.3.1/../../../arm-none-eabi/lib/thumb/v6-m/libc_nano.a(lib_a-wctomb_r.o)
                                                  /usr/lib/gcc/arm-none-eabi/6.3.1/../../../arm-none-eabi/lib/thumb/v6-m/libc_nano.a(lib_a-mbtowc_r.o)
                                                  /usr/lib/gcc/arm-none-eabi/6.3.1/../../../arm-none-eabi/lib/thumb/v6-m/libc_nano.a(lib_a-locale.o)
                                                  /usr/lib/gcc/arm-none-eabi/6.3.1/../../../arm-none-eabi/lib/thumb/v6-m/libc_nano.a(lib_a-strtol.o)
                                                  /usr/lib/gcc/arm-none-eabi/6.3.1/../../../arm-none-eabi/lib/thumb/v6-m/libc_nano.a(lib_a-sprintf.o)
_init                                             /usr/lib/gcc/arm-none-eabi/6.3.1/thumb/v6-m/crti.o
                                                  /usr/lib/gcc/arm-none-eabi/6.3.1/../../../arm-none-eabi/lib/thumb/v6-m/libc_nano.a(lib_a-init.o)
_mainCRTStartup                                   /usr/lib/gcc/arm-none-eabi/6.3.1/../../../arm-none-eabi/lib/thumb/v6-m/crt0.o
_malloc_r                                         /usr/lib/gcc/arm-none-eabi/6.3.1/../../../arm-none-eabi/lib/thumb/v6-m/libc_nano.a(lib_a-nano-mallocr.o)
                                                  /usr/lib/gcc/arm-none-eabi/6.3.1/../../../arm-none-eabi/lib/thumb/v6-m/libc_nano.a(lib_a-nano-reallocr.o)
                                                  /usr/lib/gcc/arm-none-eabi/6.3.1/../../../arm-none-eabi/lib/thumb/v6-m/libc_nano.a(lib_a-nano-svfprintf.o)
_malloc_usable_size_r                             /usr/lib/gcc/arm-none-eabi/6.3.1/../../../arm-none-eabi/lib/thumb/v6-m/libc_nano.a(lib_a-nano-msizer.o)
                                                  /usr/lib/gcc/arm-none-eabi/6.3.1/../../../arm-none-eabi/lib/thumb/v6-m/libc_nano.a(lib_a-nano-reallocr.o)
_mbtowc_r                                         /usr/lib/gcc/arm-none-eabi/6.3.1/../../../arm-none-eabi/lib/thumb/v6-m/libc_nano.a(lib_a-mbtowc_r.o)
_printf_common                                    /usr/lib/gcc/arm-none-eabi/6.3.1/../../../arm-none-eabi/lib/thumb/v6-m/libc_nano.a(lib_a-nano-vfprintf_i.o)
_printf_float                                     /usr/lib/gcc/arm-none-eabi/6.3.1/../../../arm-none-eabi/lib/thumb/v6-m/libc_nano.a(lib_a-nano-svfprintf.o)
_printf_i                                         /usr/lib/gcc/arm-none-eabi/6.3.1/../../../arm-none-eabi/lib/thumb/v6-m/libc_nano.a(lib_a-nano-vfprintf_i.o)
                                                  /usr/lib/gcc/arm-none-eabi/6.3.1/../../../arm-none-eabi/lib/thumb/v6-m/libc_nano.a(lib_a-nano-svfprintf.o)
_realloc_r                                        /usr/lib/gcc/arm-none-eabi/6.3.1/../../../arm-none-eabi/lib/thumb/v6-m/libc_nano.a(lib_a-nano-reallocr.o)
                                                  /usr/lib/gcc/arm-none-eabi/6.3.1/../../../arm-none-eabi/lib/thumb/v6-m/libc_nano.a(lib_a-nano-svfprintf.o)
_reclaim_reent                                    /usr/lib/gcc/arm-none-eabi/6.3.1/../../../arm-none-eabi/lib/thumb/v6-m/libc_nano.a(lib_a-reent.o)
_sbrk                                             /usr/lib/gcc/arm-none-eabi/6.3.1/../../../arm-none-eabi/lib/thumb/v6-m/libnosys.a(sbrk.o)
                                                  /usr/lib/gcc/arm-none-eabi/6.3.1/../../../arm-none-eabi/lib/thumb/v6-m/libc_nano.a(lib_a-sbrkr.o)
_sbrk_r                                           /usr/lib/gcc/arm-none-eabi/6.3.1/../../../arm-none-eabi/lib/thumb/v6-m/libc_nano.a(lib_a-sbrkr.o)
                                                  /usr/lib/gcc/arm-none-eabi/6.3.1/../../../arm-none-eabi/lib/thumb/v6-m/libc_nano.a(lib_a-nano-mallocr.o)
_sbss                                             build/startup_stm32l052xx.o
_sdata                                            build/startup_stm32l052xx.o
_setlocale_r                                      /usr/lib/gcc/arm-none-eabi/6.3.1/../../../arm-none-eabi/lib/thumb/v6-m/libc_nano.a(lib_a-locale.o)
_sidata                                           build/startup_stm32l052xx.o
_siprintf_r                                       /usr/lib/gcc/arm-none-eabi/6.3.1/../../../arm-none-eabi/lib/thumb/v6-m/libc_nano.a(lib_a-sprintf.o)
_sprintf_r                                        /usr/lib/gcc/arm-none-eabi/6.3.1/../../../arm-none-eabi/lib/thumb/v6-m/libc_nano.a(lib_a-sprintf.o)
_start                                            /usr/lib/gcc/arm-none-eabi/6.3.1/../../../arm-none-eabi/lib/thumb/v6-m/crt0.o
_strtol_r                                         /usr/lib/gcc/arm-none-eabi/6.3.1/../../../arm-none-eabi/lib/thumb/v6-m/libc_nano.a(lib_a-strtol.o)
_svfiprintf_r                                     /usr/lib/gcc/arm-none-eabi/6.3.1/../../../arm-none-eabi/lib/thumb/v6-m/libc_nano.a(lib_a-nano-svfprintf.o)
_svfprintf_r                                      /usr/lib/gcc/arm-none-eabi/6.3.1/../../../arm-none-eabi/lib/thumb/v6-m/libc_nano.a(lib_a-nano-svfprintf.o)
                                                  /usr/lib/gcc/arm-none-eabi/6.3.1/../../../arm-none-eabi/lib/thumb/v6-m/libc_nano.a(lib_a-sprintf.o)
_wctomb_r                                         /usr/lib/gcc/arm-none-eabi/6.3.1/../../../arm-none-eabi/lib/thumb/v6-m/libc_nano.a(lib_a-wctomb_r.o)
adc_get                                           build/adc.o
adc_init                                          build/adc.o
adc_uninit                                        build/adc.o
atexit                                            /usr/lib/gcc/arm-none-eabi/6.3.1/../../../arm-none-eabi/lib/thumb/v6-m/libc_nano.a(lib_a-atexit.o)
                                                  /usr/lib/gcc/arm-none-eabi/6.3.1/../../../arm-none-eabi/lib/thumb/v6-m/crt0.o
cleanup_glue                                      /usr/lib/gcc/arm-none-eabi/6.3.1/../../../arm-none-eabi/lib/thumb/v6-m/libc_nano.a(lib_a-reent.o)
compareArray                                      build/main.o
dac_init                                          build/dac.o
dac_off                                           build/dac.o
dac_on                                            build/dac.o
end                                               /usr/lib/gcc/arm-none-eabi/6.3.1/../../../arm-none-eabi/lib/thumb/v6-m/libnosys.a(sbrk.o)
errno                                             /usr/lib/gcc/arm-none-eabi/6.3.1/../../../arm-none-eabi/lib/thumb/v6-m/libc_nano.a(lib_a-reent.o)
                                                  /usr/lib/gcc/arm-none-eabi/6.3.1/../../../arm-none-eabi/lib/thumb/v6-m/libc_nano.a(lib_a-sbrkr.o)
exit                                              /usr/lib/gcc/arm-none-eabi/6.3.1/../../../arm-none-eabi/lib/thumb/v6-m/libc_nano.a(lib_a-exit.o)
                                                  /usr/lib/gcc/arm-none-eabi/6.3.1/../../../arm-none-eabi/lib/thumb/v6-m/crt0.o
free                                              /usr/lib/gcc/arm-none-eabi/6.3.1/../../../arm-none-eabi/lib/thumb/v6-m/libc_nano.a(lib_a-__call_atexit.o)
g_ComPortOpen                                     build/usbd_cdc_if.o
g_VCPInitialized                                  build/usbd_cdc_if.o
g_pfnVectors                                      build/startup_stm32l052xx.o
got_match                                         build/main.o
gpio_init                                         build/gpio.o
                                                  build/main.o
hUsbDeviceFS                                      build/usb_device.o
                                                  build/usbd_cdc_if.o
hUsbDevice_0                                      build/usbd_cdc_if.o
hardware_init_hook                                /usr/lib/gcc/arm-none-eabi/6.3.1/../../../arm-none-eabi/lib/thumb/v6-m/crt0.o
hpcd_USB_FS                                       build/usbd_conf.o
                                                  build/stm32l0xx_it.o
imon                                              build/main.o
int_value                                         build/main.o
is_equal                                          build/main.o
load                                              build/dac.o
                                                  build/adc.o
                                                  build/main.o
main                                              build/main.o
                                                  build/startup_stm32l052xx.o
                                                  /usr/lib/gcc/arm-none-eabi/6.3.1/../../../arm-none-eabi/lib/thumb/v6-m/crt0.o
malloc                                            /usr/lib/gcc/arm-none-eabi/6.3.1/../../../arm-none-eabi/lib/thumb/v6-m/libc_nano.a(lib_a-__atexit.o)
memchr                                            /usr/lib/gcc/arm-none-eabi/6.3.1/../../../arm-none-eabi/lib/thumb/v6-m/libc_nano.a(lib_a-memchr-stub.o)
                                                  /usr/lib/gcc/arm-none-eabi/6.3.1/../../../arm-none-eabi/lib/thumb/v6-m/libc_nano.a(lib_a-nano-vfprintf_i.o)
                                                  /usr/lib/gcc/arm-none-eabi/6.3.1/../../../arm-none-eabi/lib/thumb/v6-m/libc_nano.a(lib_a-nano-svfprintf.o)
memcmp                                            /usr/lib/gcc/arm-none-eabi/6.3.1/../../../arm-none-eabi/lib/thumb/v6-m/libc_nano.a(lib_a-memcmp.o)
                                                  build/main.o
memcpy                                            /usr/lib/gcc/arm-none-eabi/6.3.1/../../../arm-none-eabi/lib/thumb/v6-m/libc_nano.a(lib_a-memcpy-stub.o)
                                                  /usr/lib/gcc/arm-none-eabi/6.3.1/../../../arm-none-eabi/lib/thumb/v6-m/libc_nano.a(lib_a-nano-reallocr.o)
                                                  /usr/lib/gcc/arm-none-eabi/6.3.1/../../../arm-none-eabi/lib/thumb/v6-m/libc_nano.a(lib_a-nano-svfprintf.o)
                                                  build/usbd_cdc_if.o
memmove                                           /usr/lib/gcc/arm-none-eabi/6.3.1/../../../arm-none-eabi/lib/thumb/v6-m/libc_nano.a(lib_a-memmove.o)
                                                  /usr/lib/gcc/arm-none-eabi/6.3.1/../../../arm-none-eabi/lib/thumb/v6-m/libc_nano.a(lib_a-nano-svfprintf.o)
memset                                            /usr/lib/gcc/arm-none-eabi/6.3.1/../../../arm-none-eabi/lib/thumb/v6-m/libc_nano.a(lib_a-memset.o)
                                                  build/stm32l0xx_hal_rcc.o
                                                  build/stm32l0xx_hal_msp.o
                                                  build/main.o
                                                  /usr/lib/gcc/arm-none-eabi/6.3.1/../../../arm-none-eabi/lib/thumb/v6-m/crt0.o
pFlash                                            build/stm32l0xx_hal_flash.o
                                                  build/stm32l0xx_hal_flash_ex.o
                                                  build/stm32l0xx_hal_flash_ramfunc.o
perst                                             build/gpio.o
setlocale                                         /usr/lib/gcc/arm-none-eabi/6.3.1/../../../arm-none-eabi/lib/thumb/v6-m/libc_nano.a(lib_a-locale.o)
siprintf                                          /usr/lib/gcc/arm-none-eabi/6.3.1/../../../arm-none-eabi/lib/thumb/v6-m/libc_nano.a(lib_a-sprintf.o)
software_init_hook                                /usr/lib/gcc/arm-none-eabi/6.3.1/../../../arm-none-eabi/lib/thumb/v6-m/crt0.o
sprintf                                           /usr/lib/gcc/arm-none-eabi/6.3.1/../../../arm-none-eabi/lib/thumb/v6-m/libc_nano.a(lib_a-sprintf.o)
                                                  build/main.o
strcmp                                            /usr/lib/gcc/arm-none-eabi/6.3.1/../../../arm-none-eabi/lib/thumb/v6-m/libc_nano.a(lib_a-strcmp.o)
                                                  /usr/lib/gcc/arm-none-eabi/6.3.1/../../../arm-none-eabi/lib/thumb/v6-m/libc_nano.a(lib_a-locale.o)
strtol                                            /usr/lib/gcc/arm-none-eabi/6.3.1/../../../arm-none-eabi/lib/thumb/v6-m/libc_nano.a(lib_a-strtol.o)
                                                  build/main.o
strtol_l                                          /usr/lib/gcc/arm-none-eabi/6.3.1/../../../arm-none-eabi/lib/thumb/v6-m/libc_nano.a(lib_a-strtol.o)
temp                                              build/main.o
uwTick                                            build/stm32l0xx_hal.o
val                                               build/dac.o
                                                  build/adc.o
                                                  build/main.o
value_point                                       build/main.o
w_disable                                         build/gpio.o
x                                                 build/dac.o
                                                  build/adc.o
                                                  build/main.o
