ARM GAS  /tmp/ccKio8ov.s 			page 1


   1              		.cpu cortex-m0plus
   2              		.eabi_attribute 20, 1
   3              		.eabi_attribute 21, 1
   4              		.eabi_attribute 23, 3
   5              		.eabi_attribute 24, 1
   6              		.eabi_attribute 25, 1
   7              		.eabi_attribute 26, 1
   8              		.eabi_attribute 30, 6
   9              		.eabi_attribute 34, 0
  10              		.eabi_attribute 18, 4
  11              		.file	"usbd_core.c"
  12              		.text
  13              	.Ltext0:
  14              		.cfi_sections	.debug_frame
  15              		.section	.text.USBD_Init,"ax",%progbits
  16              		.align	1
  17              		.global	USBD_Init
  18              		.syntax unified
  19              		.code	16
  20              		.thumb_func
  21              		.fpu softvfp
  23              	USBD_Init:
  24              	.LFB37:
  25              		.file 1 "Middlewares/ST/STM32_USB_Device_Library/Core/Src/usbd_core.c"
   1:Middlewares/ST/STM32_USB_Device_Library/Core/Src/usbd_core.c **** /**
   2:Middlewares/ST/STM32_USB_Device_Library/Core/Src/usbd_core.c ****   ******************************************************************************
   3:Middlewares/ST/STM32_USB_Device_Library/Core/Src/usbd_core.c ****   * @file    usbd_core.c
   4:Middlewares/ST/STM32_USB_Device_Library/Core/Src/usbd_core.c ****   * @author  MCD Application Team
   5:Middlewares/ST/STM32_USB_Device_Library/Core/Src/usbd_core.c ****   * @brief   This file provides all the USBD core functions.
   6:Middlewares/ST/STM32_USB_Device_Library/Core/Src/usbd_core.c ****   ******************************************************************************
   7:Middlewares/ST/STM32_USB_Device_Library/Core/Src/usbd_core.c ****   * @attention
   8:Middlewares/ST/STM32_USB_Device_Library/Core/Src/usbd_core.c ****   *
   9:Middlewares/ST/STM32_USB_Device_Library/Core/Src/usbd_core.c ****   * <h2><center>&copy; Copyright (c) 2015 STMicroelectronics.
  10:Middlewares/ST/STM32_USB_Device_Library/Core/Src/usbd_core.c ****   * All rights reserved.</center></h2>
  11:Middlewares/ST/STM32_USB_Device_Library/Core/Src/usbd_core.c ****   *
  12:Middlewares/ST/STM32_USB_Device_Library/Core/Src/usbd_core.c ****   * This software component is licensed by ST under Ultimate Liberty license
  13:Middlewares/ST/STM32_USB_Device_Library/Core/Src/usbd_core.c ****   * SLA0044, the "License"; You may not use this file except in compliance with
  14:Middlewares/ST/STM32_USB_Device_Library/Core/Src/usbd_core.c ****   * the License. You may obtain a copy of the License at:
  15:Middlewares/ST/STM32_USB_Device_Library/Core/Src/usbd_core.c ****   *                      http://www.st.com/SLA0044
  16:Middlewares/ST/STM32_USB_Device_Library/Core/Src/usbd_core.c ****   *
  17:Middlewares/ST/STM32_USB_Device_Library/Core/Src/usbd_core.c ****   ******************************************************************************
  18:Middlewares/ST/STM32_USB_Device_Library/Core/Src/usbd_core.c ****   */
  19:Middlewares/ST/STM32_USB_Device_Library/Core/Src/usbd_core.c **** 
  20:Middlewares/ST/STM32_USB_Device_Library/Core/Src/usbd_core.c **** /* Includes ------------------------------------------------------------------*/
  21:Middlewares/ST/STM32_USB_Device_Library/Core/Src/usbd_core.c **** #include "usbd_core.h"
  22:Middlewares/ST/STM32_USB_Device_Library/Core/Src/usbd_core.c **** 
  23:Middlewares/ST/STM32_USB_Device_Library/Core/Src/usbd_core.c **** /** @addtogroup STM32_USBD_DEVICE_LIBRARY
  24:Middlewares/ST/STM32_USB_Device_Library/Core/Src/usbd_core.c **** * @{
  25:Middlewares/ST/STM32_USB_Device_Library/Core/Src/usbd_core.c **** */
  26:Middlewares/ST/STM32_USB_Device_Library/Core/Src/usbd_core.c **** 
  27:Middlewares/ST/STM32_USB_Device_Library/Core/Src/usbd_core.c **** 
  28:Middlewares/ST/STM32_USB_Device_Library/Core/Src/usbd_core.c **** /** @defgroup USBD_CORE
  29:Middlewares/ST/STM32_USB_Device_Library/Core/Src/usbd_core.c **** * @brief usbd core module
  30:Middlewares/ST/STM32_USB_Device_Library/Core/Src/usbd_core.c **** * @{
  31:Middlewares/ST/STM32_USB_Device_Library/Core/Src/usbd_core.c **** */
  32:Middlewares/ST/STM32_USB_Device_Library/Core/Src/usbd_core.c **** 
  33:Middlewares/ST/STM32_USB_Device_Library/Core/Src/usbd_core.c **** /** @defgroup USBD_CORE_Private_TypesDefinitions
ARM GAS  /tmp/ccKio8ov.s 			page 2


  34:Middlewares/ST/STM32_USB_Device_Library/Core/Src/usbd_core.c **** * @{
  35:Middlewares/ST/STM32_USB_Device_Library/Core/Src/usbd_core.c **** */
  36:Middlewares/ST/STM32_USB_Device_Library/Core/Src/usbd_core.c **** /**
  37:Middlewares/ST/STM32_USB_Device_Library/Core/Src/usbd_core.c **** * @}
  38:Middlewares/ST/STM32_USB_Device_Library/Core/Src/usbd_core.c **** */
  39:Middlewares/ST/STM32_USB_Device_Library/Core/Src/usbd_core.c **** 
  40:Middlewares/ST/STM32_USB_Device_Library/Core/Src/usbd_core.c **** 
  41:Middlewares/ST/STM32_USB_Device_Library/Core/Src/usbd_core.c **** /** @defgroup USBD_CORE_Private_Defines
  42:Middlewares/ST/STM32_USB_Device_Library/Core/Src/usbd_core.c **** * @{
  43:Middlewares/ST/STM32_USB_Device_Library/Core/Src/usbd_core.c **** */
  44:Middlewares/ST/STM32_USB_Device_Library/Core/Src/usbd_core.c **** 
  45:Middlewares/ST/STM32_USB_Device_Library/Core/Src/usbd_core.c **** /**
  46:Middlewares/ST/STM32_USB_Device_Library/Core/Src/usbd_core.c **** * @}
  47:Middlewares/ST/STM32_USB_Device_Library/Core/Src/usbd_core.c **** */
  48:Middlewares/ST/STM32_USB_Device_Library/Core/Src/usbd_core.c **** 
  49:Middlewares/ST/STM32_USB_Device_Library/Core/Src/usbd_core.c **** 
  50:Middlewares/ST/STM32_USB_Device_Library/Core/Src/usbd_core.c **** /** @defgroup USBD_CORE_Private_Macros
  51:Middlewares/ST/STM32_USB_Device_Library/Core/Src/usbd_core.c **** * @{
  52:Middlewares/ST/STM32_USB_Device_Library/Core/Src/usbd_core.c **** */
  53:Middlewares/ST/STM32_USB_Device_Library/Core/Src/usbd_core.c **** /**
  54:Middlewares/ST/STM32_USB_Device_Library/Core/Src/usbd_core.c **** * @}
  55:Middlewares/ST/STM32_USB_Device_Library/Core/Src/usbd_core.c **** */
  56:Middlewares/ST/STM32_USB_Device_Library/Core/Src/usbd_core.c **** 
  57:Middlewares/ST/STM32_USB_Device_Library/Core/Src/usbd_core.c **** 
  58:Middlewares/ST/STM32_USB_Device_Library/Core/Src/usbd_core.c **** 
  59:Middlewares/ST/STM32_USB_Device_Library/Core/Src/usbd_core.c **** 
  60:Middlewares/ST/STM32_USB_Device_Library/Core/Src/usbd_core.c **** /** @defgroup USBD_CORE_Private_FunctionPrototypes
  61:Middlewares/ST/STM32_USB_Device_Library/Core/Src/usbd_core.c **** * @{
  62:Middlewares/ST/STM32_USB_Device_Library/Core/Src/usbd_core.c **** */
  63:Middlewares/ST/STM32_USB_Device_Library/Core/Src/usbd_core.c **** 
  64:Middlewares/ST/STM32_USB_Device_Library/Core/Src/usbd_core.c **** /**
  65:Middlewares/ST/STM32_USB_Device_Library/Core/Src/usbd_core.c **** * @}
  66:Middlewares/ST/STM32_USB_Device_Library/Core/Src/usbd_core.c **** */
  67:Middlewares/ST/STM32_USB_Device_Library/Core/Src/usbd_core.c **** 
  68:Middlewares/ST/STM32_USB_Device_Library/Core/Src/usbd_core.c **** /** @defgroup USBD_CORE_Private_Variables
  69:Middlewares/ST/STM32_USB_Device_Library/Core/Src/usbd_core.c **** * @{
  70:Middlewares/ST/STM32_USB_Device_Library/Core/Src/usbd_core.c **** */
  71:Middlewares/ST/STM32_USB_Device_Library/Core/Src/usbd_core.c **** 
  72:Middlewares/ST/STM32_USB_Device_Library/Core/Src/usbd_core.c **** /**
  73:Middlewares/ST/STM32_USB_Device_Library/Core/Src/usbd_core.c **** * @}
  74:Middlewares/ST/STM32_USB_Device_Library/Core/Src/usbd_core.c **** */
  75:Middlewares/ST/STM32_USB_Device_Library/Core/Src/usbd_core.c **** 
  76:Middlewares/ST/STM32_USB_Device_Library/Core/Src/usbd_core.c **** /** @defgroup USBD_CORE_Private_Functions
  77:Middlewares/ST/STM32_USB_Device_Library/Core/Src/usbd_core.c **** * @{
  78:Middlewares/ST/STM32_USB_Device_Library/Core/Src/usbd_core.c **** */
  79:Middlewares/ST/STM32_USB_Device_Library/Core/Src/usbd_core.c **** 
  80:Middlewares/ST/STM32_USB_Device_Library/Core/Src/usbd_core.c **** /**
  81:Middlewares/ST/STM32_USB_Device_Library/Core/Src/usbd_core.c **** * @brief  USBD_Init
  82:Middlewares/ST/STM32_USB_Device_Library/Core/Src/usbd_core.c **** *         Initializes the device stack and load the class driver
  83:Middlewares/ST/STM32_USB_Device_Library/Core/Src/usbd_core.c **** * @param  pdev: device instance
  84:Middlewares/ST/STM32_USB_Device_Library/Core/Src/usbd_core.c **** * @param  pdesc: Descriptor structure address
  85:Middlewares/ST/STM32_USB_Device_Library/Core/Src/usbd_core.c **** * @param  id: Low level core index
  86:Middlewares/ST/STM32_USB_Device_Library/Core/Src/usbd_core.c **** * @retval None
  87:Middlewares/ST/STM32_USB_Device_Library/Core/Src/usbd_core.c **** */
  88:Middlewares/ST/STM32_USB_Device_Library/Core/Src/usbd_core.c **** USBD_StatusTypeDef USBD_Init(USBD_HandleTypeDef *pdev, USBD_DescriptorsTypeDef *pdesc, uint8_t id)
  89:Middlewares/ST/STM32_USB_Device_Library/Core/Src/usbd_core.c **** {
  26              		.loc 1 89 0
ARM GAS  /tmp/ccKio8ov.s 			page 3


  27              		.cfi_startproc
  28              		@ args = 0, pretend = 0, frame = 16
  29              		@ frame_needed = 1, uses_anonymous_args = 0
  30 0000 80B5     		push	{r7, lr}
  31              	.LCFI0:
  32              		.cfi_def_cfa_offset 8
  33              		.cfi_offset 7, -8
  34              		.cfi_offset 14, -4
  35 0002 84B0     		sub	sp, sp, #16
  36              	.LCFI1:
  37              		.cfi_def_cfa_offset 24
  38 0004 00AF     		add	r7, sp, #0
  39              	.LCFI2:
  40              		.cfi_def_cfa_register 7
  41 0006 F860     		str	r0, [r7, #12]
  42 0008 B960     		str	r1, [r7, #8]
  43 000a FB1D     		adds	r3, r7, #7
  44 000c 1A70     		strb	r2, [r3]
  90:Middlewares/ST/STM32_USB_Device_Library/Core/Src/usbd_core.c ****   /* Check whether the USB Host handle is valid */
  91:Middlewares/ST/STM32_USB_Device_Library/Core/Src/usbd_core.c ****   if(pdev == NULL)
  45              		.loc 1 91 0
  46 000e FB68     		ldr	r3, [r7, #12]
  47 0010 002B     		cmp	r3, #0
  48 0012 01D1     		bne	.L2
  92:Middlewares/ST/STM32_USB_Device_Library/Core/Src/usbd_core.c ****   {
  93:Middlewares/ST/STM32_USB_Device_Library/Core/Src/usbd_core.c **** #if (USBD_DEBUG_LEVEL > 1U)
  94:Middlewares/ST/STM32_USB_Device_Library/Core/Src/usbd_core.c ****     USBD_ErrLog("Invalid Device handle");
  95:Middlewares/ST/STM32_USB_Device_Library/Core/Src/usbd_core.c **** #endif
  96:Middlewares/ST/STM32_USB_Device_Library/Core/Src/usbd_core.c ****     return USBD_FAIL;
  49              		.loc 1 96 0
  50 0014 0223     		movs	r3, #2
  51 0016 20E0     		b	.L3
  52              	.L2:
  97:Middlewares/ST/STM32_USB_Device_Library/Core/Src/usbd_core.c ****   }
  98:Middlewares/ST/STM32_USB_Device_Library/Core/Src/usbd_core.c **** 
  99:Middlewares/ST/STM32_USB_Device_Library/Core/Src/usbd_core.c ****   /* Unlink previous class*/
 100:Middlewares/ST/STM32_USB_Device_Library/Core/Src/usbd_core.c ****   if(pdev->pClass != NULL)
  53              		.loc 1 100 0
  54 0018 FA68     		ldr	r2, [r7, #12]
  55 001a A323     		movs	r3, #163
  56 001c 9B00     		lsls	r3, r3, #2
  57 001e D358     		ldr	r3, [r2, r3]
  58 0020 002B     		cmp	r3, #0
  59 0022 04D0     		beq	.L4
 101:Middlewares/ST/STM32_USB_Device_Library/Core/Src/usbd_core.c ****   {
 102:Middlewares/ST/STM32_USB_Device_Library/Core/Src/usbd_core.c ****     pdev->pClass = NULL;
  60              		.loc 1 102 0
  61 0024 FA68     		ldr	r2, [r7, #12]
  62 0026 A323     		movs	r3, #163
  63 0028 9B00     		lsls	r3, r3, #2
  64 002a 0021     		movs	r1, #0
  65 002c D150     		str	r1, [r2, r3]
  66              	.L4:
 103:Middlewares/ST/STM32_USB_Device_Library/Core/Src/usbd_core.c ****   }
 104:Middlewares/ST/STM32_USB_Device_Library/Core/Src/usbd_core.c **** 
 105:Middlewares/ST/STM32_USB_Device_Library/Core/Src/usbd_core.c ****   /* Assign USBD Descriptors */
 106:Middlewares/ST/STM32_USB_Device_Library/Core/Src/usbd_core.c ****   if(pdesc != NULL)
ARM GAS  /tmp/ccKio8ov.s 			page 4


  67              		.loc 1 106 0
  68 002e BB68     		ldr	r3, [r7, #8]
  69 0030 002B     		cmp	r3, #0
  70 0032 04D0     		beq	.L5
 107:Middlewares/ST/STM32_USB_Device_Library/Core/Src/usbd_core.c ****   {
 108:Middlewares/ST/STM32_USB_Device_Library/Core/Src/usbd_core.c ****     pdev->pDesc = pdesc;
  71              		.loc 1 108 0
  72 0034 FA68     		ldr	r2, [r7, #12]
  73 0036 A223     		movs	r3, #162
  74 0038 9B00     		lsls	r3, r3, #2
  75 003a B968     		ldr	r1, [r7, #8]
  76 003c D150     		str	r1, [r2, r3]
  77              	.L5:
 109:Middlewares/ST/STM32_USB_Device_Library/Core/Src/usbd_core.c ****   }
 110:Middlewares/ST/STM32_USB_Device_Library/Core/Src/usbd_core.c **** 
 111:Middlewares/ST/STM32_USB_Device_Library/Core/Src/usbd_core.c ****   /* Set Device initial State */
 112:Middlewares/ST/STM32_USB_Device_Library/Core/Src/usbd_core.c ****   pdev->dev_state  = USBD_STATE_DEFAULT;
  78              		.loc 1 112 0
  79 003e FA68     		ldr	r2, [r7, #12]
  80 0040 9D23     		movs	r3, #157
  81 0042 9B00     		lsls	r3, r3, #2
  82 0044 0121     		movs	r1, #1
  83 0046 D154     		strb	r1, [r2, r3]
 113:Middlewares/ST/STM32_USB_Device_Library/Core/Src/usbd_core.c ****   pdev->id = id;
  84              		.loc 1 113 0
  85 0048 FB68     		ldr	r3, [r7, #12]
  86 004a FA1D     		adds	r2, r7, #7
  87 004c 1278     		ldrb	r2, [r2]
  88 004e 1A70     		strb	r2, [r3]
 114:Middlewares/ST/STM32_USB_Device_Library/Core/Src/usbd_core.c ****   /* Initialize low level driver */
 115:Middlewares/ST/STM32_USB_Device_Library/Core/Src/usbd_core.c ****   USBD_LL_Init(pdev);
  89              		.loc 1 115 0
  90 0050 FB68     		ldr	r3, [r7, #12]
  91 0052 1800     		movs	r0, r3
  92 0054 FFF7FEFF 		bl	USBD_LL_Init
 116:Middlewares/ST/STM32_USB_Device_Library/Core/Src/usbd_core.c **** 
 117:Middlewares/ST/STM32_USB_Device_Library/Core/Src/usbd_core.c ****   return USBD_OK;
  93              		.loc 1 117 0
  94 0058 0023     		movs	r3, #0
  95              	.L3:
 118:Middlewares/ST/STM32_USB_Device_Library/Core/Src/usbd_core.c **** }
  96              		.loc 1 118 0
  97 005a 1800     		movs	r0, r3
  98 005c BD46     		mov	sp, r7
  99 005e 04B0     		add	sp, sp, #16
 100              		@ sp needed
 101 0060 80BD     		pop	{r7, pc}
 102              		.cfi_endproc
 103              	.LFE37:
 105              		.section	.text.USBD_DeInit,"ax",%progbits
 106              		.align	1
 107              		.global	USBD_DeInit
 108              		.syntax unified
 109              		.code	16
 110              		.thumb_func
 111              		.fpu softvfp
 113              	USBD_DeInit:
ARM GAS  /tmp/ccKio8ov.s 			page 5


 114              	.LFB38:
 119:Middlewares/ST/STM32_USB_Device_Library/Core/Src/usbd_core.c **** 
 120:Middlewares/ST/STM32_USB_Device_Library/Core/Src/usbd_core.c **** /**
 121:Middlewares/ST/STM32_USB_Device_Library/Core/Src/usbd_core.c **** * @brief  USBD_DeInit
 122:Middlewares/ST/STM32_USB_Device_Library/Core/Src/usbd_core.c **** *         Re-Initialize th device library
 123:Middlewares/ST/STM32_USB_Device_Library/Core/Src/usbd_core.c **** * @param  pdev: device instance
 124:Middlewares/ST/STM32_USB_Device_Library/Core/Src/usbd_core.c **** * @retval status: status
 125:Middlewares/ST/STM32_USB_Device_Library/Core/Src/usbd_core.c **** */
 126:Middlewares/ST/STM32_USB_Device_Library/Core/Src/usbd_core.c **** USBD_StatusTypeDef USBD_DeInit(USBD_HandleTypeDef *pdev)
 127:Middlewares/ST/STM32_USB_Device_Library/Core/Src/usbd_core.c **** {
 115              		.loc 1 127 0
 116              		.cfi_startproc
 117              		@ args = 0, pretend = 0, frame = 8
 118              		@ frame_needed = 1, uses_anonymous_args = 0
 119 0000 80B5     		push	{r7, lr}
 120              	.LCFI3:
 121              		.cfi_def_cfa_offset 8
 122              		.cfi_offset 7, -8
 123              		.cfi_offset 14, -4
 124 0002 82B0     		sub	sp, sp, #8
 125              	.LCFI4:
 126              		.cfi_def_cfa_offset 16
 127 0004 00AF     		add	r7, sp, #0
 128              	.LCFI5:
 129              		.cfi_def_cfa_register 7
 130 0006 7860     		str	r0, [r7, #4]
 128:Middlewares/ST/STM32_USB_Device_Library/Core/Src/usbd_core.c ****   /* Set Default State */
 129:Middlewares/ST/STM32_USB_Device_Library/Core/Src/usbd_core.c ****   pdev->dev_state  = USBD_STATE_DEFAULT;
 131              		.loc 1 129 0
 132 0008 7A68     		ldr	r2, [r7, #4]
 133 000a 9D23     		movs	r3, #157
 134 000c 9B00     		lsls	r3, r3, #2
 135 000e 0121     		movs	r1, #1
 136 0010 D154     		strb	r1, [r2, r3]
 130:Middlewares/ST/STM32_USB_Device_Library/Core/Src/usbd_core.c **** 
 131:Middlewares/ST/STM32_USB_Device_Library/Core/Src/usbd_core.c ****   /* Free Class Resources */
 132:Middlewares/ST/STM32_USB_Device_Library/Core/Src/usbd_core.c ****   pdev->pClass->DeInit(pdev, (uint8_t)pdev->dev_config);
 137              		.loc 1 132 0
 138 0012 7A68     		ldr	r2, [r7, #4]
 139 0014 A323     		movs	r3, #163
 140 0016 9B00     		lsls	r3, r3, #2
 141 0018 D358     		ldr	r3, [r2, r3]
 142 001a 5A68     		ldr	r2, [r3, #4]
 143 001c 7B68     		ldr	r3, [r7, #4]
 144 001e 5B68     		ldr	r3, [r3, #4]
 145 0020 D9B2     		uxtb	r1, r3
 146 0022 7B68     		ldr	r3, [r7, #4]
 147 0024 1800     		movs	r0, r3
 148 0026 9047     		blx	r2
 149              	.LVL0:
 133:Middlewares/ST/STM32_USB_Device_Library/Core/Src/usbd_core.c **** 
 134:Middlewares/ST/STM32_USB_Device_Library/Core/Src/usbd_core.c ****     /* Stop the low level driver  */
 135:Middlewares/ST/STM32_USB_Device_Library/Core/Src/usbd_core.c ****   USBD_LL_Stop(pdev);
 150              		.loc 1 135 0
 151 0028 7B68     		ldr	r3, [r7, #4]
 152 002a 1800     		movs	r0, r3
 153 002c FFF7FEFF 		bl	USBD_LL_Stop
ARM GAS  /tmp/ccKio8ov.s 			page 6


 136:Middlewares/ST/STM32_USB_Device_Library/Core/Src/usbd_core.c **** 
 137:Middlewares/ST/STM32_USB_Device_Library/Core/Src/usbd_core.c ****   /* Initialize low level driver */
 138:Middlewares/ST/STM32_USB_Device_Library/Core/Src/usbd_core.c ****   USBD_LL_DeInit(pdev);
 154              		.loc 1 138 0
 155 0030 7B68     		ldr	r3, [r7, #4]
 156 0032 1800     		movs	r0, r3
 157 0034 FFF7FEFF 		bl	USBD_LL_DeInit
 139:Middlewares/ST/STM32_USB_Device_Library/Core/Src/usbd_core.c **** 
 140:Middlewares/ST/STM32_USB_Device_Library/Core/Src/usbd_core.c ****   return USBD_OK;
 158              		.loc 1 140 0
 159 0038 0023     		movs	r3, #0
 141:Middlewares/ST/STM32_USB_Device_Library/Core/Src/usbd_core.c **** }
 160              		.loc 1 141 0
 161 003a 1800     		movs	r0, r3
 162 003c BD46     		mov	sp, r7
 163 003e 02B0     		add	sp, sp, #8
 164              		@ sp needed
 165 0040 80BD     		pop	{r7, pc}
 166              		.cfi_endproc
 167              	.LFE38:
 169              		.section	.text.USBD_RegisterClass,"ax",%progbits
 170              		.align	1
 171              		.global	USBD_RegisterClass
 172              		.syntax unified
 173              		.code	16
 174              		.thumb_func
 175              		.fpu softvfp
 177              	USBD_RegisterClass:
 178              	.LFB39:
 142:Middlewares/ST/STM32_USB_Device_Library/Core/Src/usbd_core.c **** 
 143:Middlewares/ST/STM32_USB_Device_Library/Core/Src/usbd_core.c **** /**
 144:Middlewares/ST/STM32_USB_Device_Library/Core/Src/usbd_core.c ****   * @brief  USBD_RegisterClass
 145:Middlewares/ST/STM32_USB_Device_Library/Core/Src/usbd_core.c ****   *         Link class driver to Device Core.
 146:Middlewares/ST/STM32_USB_Device_Library/Core/Src/usbd_core.c ****   * @param  pDevice : Device Handle
 147:Middlewares/ST/STM32_USB_Device_Library/Core/Src/usbd_core.c ****   * @param  pclass: Class handle
 148:Middlewares/ST/STM32_USB_Device_Library/Core/Src/usbd_core.c ****   * @retval USBD Status
 149:Middlewares/ST/STM32_USB_Device_Library/Core/Src/usbd_core.c ****   */
 150:Middlewares/ST/STM32_USB_Device_Library/Core/Src/usbd_core.c **** USBD_StatusTypeDef  USBD_RegisterClass(USBD_HandleTypeDef *pdev, USBD_ClassTypeDef *pclass)
 151:Middlewares/ST/STM32_USB_Device_Library/Core/Src/usbd_core.c **** {
 179              		.loc 1 151 0
 180              		.cfi_startproc
 181              		@ args = 0, pretend = 0, frame = 16
 182              		@ frame_needed = 1, uses_anonymous_args = 0
 183 0000 80B5     		push	{r7, lr}
 184              	.LCFI6:
 185              		.cfi_def_cfa_offset 8
 186              		.cfi_offset 7, -8
 187              		.cfi_offset 14, -4
 188 0002 84B0     		sub	sp, sp, #16
 189              	.LCFI7:
 190              		.cfi_def_cfa_offset 24
 191 0004 00AF     		add	r7, sp, #0
 192              	.LCFI8:
 193              		.cfi_def_cfa_register 7
 194 0006 7860     		str	r0, [r7, #4]
 195 0008 3960     		str	r1, [r7]
 152:Middlewares/ST/STM32_USB_Device_Library/Core/Src/usbd_core.c ****   USBD_StatusTypeDef   status = USBD_OK;
ARM GAS  /tmp/ccKio8ov.s 			page 7


 196              		.loc 1 152 0
 197 000a 0F23     		movs	r3, #15
 198 000c FB18     		adds	r3, r7, r3
 199 000e 0022     		movs	r2, #0
 200 0010 1A70     		strb	r2, [r3]
 153:Middlewares/ST/STM32_USB_Device_Library/Core/Src/usbd_core.c ****   if(pclass != 0)
 201              		.loc 1 153 0
 202 0012 3B68     		ldr	r3, [r7]
 203 0014 002B     		cmp	r3, #0
 204 0016 09D0     		beq	.L9
 154:Middlewares/ST/STM32_USB_Device_Library/Core/Src/usbd_core.c ****   {
 155:Middlewares/ST/STM32_USB_Device_Library/Core/Src/usbd_core.c ****     /* link the class to the USB Device handle */
 156:Middlewares/ST/STM32_USB_Device_Library/Core/Src/usbd_core.c ****     pdev->pClass = pclass;
 205              		.loc 1 156 0
 206 0018 7A68     		ldr	r2, [r7, #4]
 207 001a A323     		movs	r3, #163
 208 001c 9B00     		lsls	r3, r3, #2
 209 001e 3968     		ldr	r1, [r7]
 210 0020 D150     		str	r1, [r2, r3]
 157:Middlewares/ST/STM32_USB_Device_Library/Core/Src/usbd_core.c ****     status = USBD_OK;
 211              		.loc 1 157 0
 212 0022 0F23     		movs	r3, #15
 213 0024 FB18     		adds	r3, r7, r3
 214 0026 0022     		movs	r2, #0
 215 0028 1A70     		strb	r2, [r3]
 216 002a 03E0     		b	.L10
 217              	.L9:
 158:Middlewares/ST/STM32_USB_Device_Library/Core/Src/usbd_core.c ****   }
 159:Middlewares/ST/STM32_USB_Device_Library/Core/Src/usbd_core.c ****   else
 160:Middlewares/ST/STM32_USB_Device_Library/Core/Src/usbd_core.c ****   {
 161:Middlewares/ST/STM32_USB_Device_Library/Core/Src/usbd_core.c **** #if (USBD_DEBUG_LEVEL > 1U)
 162:Middlewares/ST/STM32_USB_Device_Library/Core/Src/usbd_core.c ****     USBD_ErrLog("Invalid Class handle");
 163:Middlewares/ST/STM32_USB_Device_Library/Core/Src/usbd_core.c **** #endif
 164:Middlewares/ST/STM32_USB_Device_Library/Core/Src/usbd_core.c ****     status = USBD_FAIL;
 218              		.loc 1 164 0
 219 002c 0F23     		movs	r3, #15
 220 002e FB18     		adds	r3, r7, r3
 221 0030 0222     		movs	r2, #2
 222 0032 1A70     		strb	r2, [r3]
 223              	.L10:
 165:Middlewares/ST/STM32_USB_Device_Library/Core/Src/usbd_core.c ****   }
 166:Middlewares/ST/STM32_USB_Device_Library/Core/Src/usbd_core.c **** 
 167:Middlewares/ST/STM32_USB_Device_Library/Core/Src/usbd_core.c ****   return status;
 224              		.loc 1 167 0
 225 0034 0F23     		movs	r3, #15
 226 0036 FB18     		adds	r3, r7, r3
 227 0038 1B78     		ldrb	r3, [r3]
 168:Middlewares/ST/STM32_USB_Device_Library/Core/Src/usbd_core.c **** }
 228              		.loc 1 168 0
 229 003a 1800     		movs	r0, r3
 230 003c BD46     		mov	sp, r7
 231 003e 04B0     		add	sp, sp, #16
 232              		@ sp needed
 233 0040 80BD     		pop	{r7, pc}
 234              		.cfi_endproc
 235              	.LFE39:
 237              		.section	.text.USBD_Start,"ax",%progbits
ARM GAS  /tmp/ccKio8ov.s 			page 8


 238              		.align	1
 239              		.global	USBD_Start
 240              		.syntax unified
 241              		.code	16
 242              		.thumb_func
 243              		.fpu softvfp
 245              	USBD_Start:
 246              	.LFB40:
 169:Middlewares/ST/STM32_USB_Device_Library/Core/Src/usbd_core.c **** 
 170:Middlewares/ST/STM32_USB_Device_Library/Core/Src/usbd_core.c **** /**
 171:Middlewares/ST/STM32_USB_Device_Library/Core/Src/usbd_core.c ****   * @brief  USBD_Start
 172:Middlewares/ST/STM32_USB_Device_Library/Core/Src/usbd_core.c ****   *         Start the USB Device Core.
 173:Middlewares/ST/STM32_USB_Device_Library/Core/Src/usbd_core.c ****   * @param  pdev: Device Handle
 174:Middlewares/ST/STM32_USB_Device_Library/Core/Src/usbd_core.c ****   * @retval USBD Status
 175:Middlewares/ST/STM32_USB_Device_Library/Core/Src/usbd_core.c ****   */
 176:Middlewares/ST/STM32_USB_Device_Library/Core/Src/usbd_core.c **** USBD_StatusTypeDef  USBD_Start  (USBD_HandleTypeDef *pdev)
 177:Middlewares/ST/STM32_USB_Device_Library/Core/Src/usbd_core.c **** {
 247              		.loc 1 177 0
 248              		.cfi_startproc
 249              		@ args = 0, pretend = 0, frame = 8
 250              		@ frame_needed = 1, uses_anonymous_args = 0
 251 0000 80B5     		push	{r7, lr}
 252              	.LCFI9:
 253              		.cfi_def_cfa_offset 8
 254              		.cfi_offset 7, -8
 255              		.cfi_offset 14, -4
 256 0002 82B0     		sub	sp, sp, #8
 257              	.LCFI10:
 258              		.cfi_def_cfa_offset 16
 259 0004 00AF     		add	r7, sp, #0
 260              	.LCFI11:
 261              		.cfi_def_cfa_register 7
 262 0006 7860     		str	r0, [r7, #4]
 178:Middlewares/ST/STM32_USB_Device_Library/Core/Src/usbd_core.c **** 
 179:Middlewares/ST/STM32_USB_Device_Library/Core/Src/usbd_core.c ****   /* Start the low level driver  */
 180:Middlewares/ST/STM32_USB_Device_Library/Core/Src/usbd_core.c ****   USBD_LL_Start(pdev);
 263              		.loc 1 180 0
 264 0008 7B68     		ldr	r3, [r7, #4]
 265 000a 1800     		movs	r0, r3
 266 000c FFF7FEFF 		bl	USBD_LL_Start
 181:Middlewares/ST/STM32_USB_Device_Library/Core/Src/usbd_core.c **** 
 182:Middlewares/ST/STM32_USB_Device_Library/Core/Src/usbd_core.c ****   return USBD_OK;
 267              		.loc 1 182 0
 268 0010 0023     		movs	r3, #0
 183:Middlewares/ST/STM32_USB_Device_Library/Core/Src/usbd_core.c **** }
 269              		.loc 1 183 0
 270 0012 1800     		movs	r0, r3
 271 0014 BD46     		mov	sp, r7
 272 0016 02B0     		add	sp, sp, #8
 273              		@ sp needed
 274 0018 80BD     		pop	{r7, pc}
 275              		.cfi_endproc
 276              	.LFE40:
 278              		.section	.text.USBD_Stop,"ax",%progbits
 279              		.align	1
 280              		.global	USBD_Stop
 281              		.syntax unified
ARM GAS  /tmp/ccKio8ov.s 			page 9


 282              		.code	16
 283              		.thumb_func
 284              		.fpu softvfp
 286              	USBD_Stop:
 287              	.LFB41:
 184:Middlewares/ST/STM32_USB_Device_Library/Core/Src/usbd_core.c **** 
 185:Middlewares/ST/STM32_USB_Device_Library/Core/Src/usbd_core.c **** /**
 186:Middlewares/ST/STM32_USB_Device_Library/Core/Src/usbd_core.c ****   * @brief  USBD_Stop
 187:Middlewares/ST/STM32_USB_Device_Library/Core/Src/usbd_core.c ****   *         Stop the USB Device Core.
 188:Middlewares/ST/STM32_USB_Device_Library/Core/Src/usbd_core.c ****   * @param  pdev: Device Handle
 189:Middlewares/ST/STM32_USB_Device_Library/Core/Src/usbd_core.c ****   * @retval USBD Status
 190:Middlewares/ST/STM32_USB_Device_Library/Core/Src/usbd_core.c ****   */
 191:Middlewares/ST/STM32_USB_Device_Library/Core/Src/usbd_core.c **** USBD_StatusTypeDef  USBD_Stop   (USBD_HandleTypeDef *pdev)
 192:Middlewares/ST/STM32_USB_Device_Library/Core/Src/usbd_core.c **** {
 288              		.loc 1 192 0
 289              		.cfi_startproc
 290              		@ args = 0, pretend = 0, frame = 8
 291              		@ frame_needed = 1, uses_anonymous_args = 0
 292 0000 80B5     		push	{r7, lr}
 293              	.LCFI12:
 294              		.cfi_def_cfa_offset 8
 295              		.cfi_offset 7, -8
 296              		.cfi_offset 14, -4
 297 0002 82B0     		sub	sp, sp, #8
 298              	.LCFI13:
 299              		.cfi_def_cfa_offset 16
 300 0004 00AF     		add	r7, sp, #0
 301              	.LCFI14:
 302              		.cfi_def_cfa_register 7
 303 0006 7860     		str	r0, [r7, #4]
 193:Middlewares/ST/STM32_USB_Device_Library/Core/Src/usbd_core.c ****   /* Free Class Resources */
 194:Middlewares/ST/STM32_USB_Device_Library/Core/Src/usbd_core.c ****   pdev->pClass->DeInit(pdev, (uint8_t)pdev->dev_config);
 304              		.loc 1 194 0
 305 0008 7A68     		ldr	r2, [r7, #4]
 306 000a A323     		movs	r3, #163
 307 000c 9B00     		lsls	r3, r3, #2
 308 000e D358     		ldr	r3, [r2, r3]
 309 0010 5A68     		ldr	r2, [r3, #4]
 310 0012 7B68     		ldr	r3, [r7, #4]
 311 0014 5B68     		ldr	r3, [r3, #4]
 312 0016 D9B2     		uxtb	r1, r3
 313 0018 7B68     		ldr	r3, [r7, #4]
 314 001a 1800     		movs	r0, r3
 315 001c 9047     		blx	r2
 316              	.LVL1:
 195:Middlewares/ST/STM32_USB_Device_Library/Core/Src/usbd_core.c **** 
 196:Middlewares/ST/STM32_USB_Device_Library/Core/Src/usbd_core.c ****   /* Stop the low level driver  */
 197:Middlewares/ST/STM32_USB_Device_Library/Core/Src/usbd_core.c ****   USBD_LL_Stop(pdev);
 317              		.loc 1 197 0
 318 001e 7B68     		ldr	r3, [r7, #4]
 319 0020 1800     		movs	r0, r3
 320 0022 FFF7FEFF 		bl	USBD_LL_Stop
 198:Middlewares/ST/STM32_USB_Device_Library/Core/Src/usbd_core.c **** 
 199:Middlewares/ST/STM32_USB_Device_Library/Core/Src/usbd_core.c ****   return USBD_OK;
 321              		.loc 1 199 0
 322 0026 0023     		movs	r3, #0
 200:Middlewares/ST/STM32_USB_Device_Library/Core/Src/usbd_core.c **** }
ARM GAS  /tmp/ccKio8ov.s 			page 10


 323              		.loc 1 200 0
 324 0028 1800     		movs	r0, r3
 325 002a BD46     		mov	sp, r7
 326 002c 02B0     		add	sp, sp, #8
 327              		@ sp needed
 328 002e 80BD     		pop	{r7, pc}
 329              		.cfi_endproc
 330              	.LFE41:
 332              		.section	.text.USBD_RunTestMode,"ax",%progbits
 333              		.align	1
 334              		.global	USBD_RunTestMode
 335              		.syntax unified
 336              		.code	16
 337              		.thumb_func
 338              		.fpu softvfp
 340              	USBD_RunTestMode:
 341              	.LFB42:
 201:Middlewares/ST/STM32_USB_Device_Library/Core/Src/usbd_core.c **** 
 202:Middlewares/ST/STM32_USB_Device_Library/Core/Src/usbd_core.c **** /**
 203:Middlewares/ST/STM32_USB_Device_Library/Core/Src/usbd_core.c **** * @brief  USBD_RunTestMode
 204:Middlewares/ST/STM32_USB_Device_Library/Core/Src/usbd_core.c **** *         Launch test mode process
 205:Middlewares/ST/STM32_USB_Device_Library/Core/Src/usbd_core.c **** * @param  pdev: device instance
 206:Middlewares/ST/STM32_USB_Device_Library/Core/Src/usbd_core.c **** * @retval status
 207:Middlewares/ST/STM32_USB_Device_Library/Core/Src/usbd_core.c **** */
 208:Middlewares/ST/STM32_USB_Device_Library/Core/Src/usbd_core.c **** USBD_StatusTypeDef  USBD_RunTestMode (USBD_HandleTypeDef  *pdev)
 209:Middlewares/ST/STM32_USB_Device_Library/Core/Src/usbd_core.c **** {
 342              		.loc 1 209 0
 343              		.cfi_startproc
 344              		@ args = 0, pretend = 0, frame = 8
 345              		@ frame_needed = 1, uses_anonymous_args = 0
 346 0000 80B5     		push	{r7, lr}
 347              	.LCFI15:
 348              		.cfi_def_cfa_offset 8
 349              		.cfi_offset 7, -8
 350              		.cfi_offset 14, -4
 351 0002 82B0     		sub	sp, sp, #8
 352              	.LCFI16:
 353              		.cfi_def_cfa_offset 16
 354 0004 00AF     		add	r7, sp, #0
 355              	.LCFI17:
 356              		.cfi_def_cfa_register 7
 357 0006 7860     		str	r0, [r7, #4]
 210:Middlewares/ST/STM32_USB_Device_Library/Core/Src/usbd_core.c ****   /* Prevent unused argument compilation warning */
 211:Middlewares/ST/STM32_USB_Device_Library/Core/Src/usbd_core.c ****   UNUSED(pdev);
 212:Middlewares/ST/STM32_USB_Device_Library/Core/Src/usbd_core.c **** 
 213:Middlewares/ST/STM32_USB_Device_Library/Core/Src/usbd_core.c ****   return USBD_OK;
 358              		.loc 1 213 0
 359 0008 0023     		movs	r3, #0
 214:Middlewares/ST/STM32_USB_Device_Library/Core/Src/usbd_core.c **** }
 360              		.loc 1 214 0
 361 000a 1800     		movs	r0, r3
 362 000c BD46     		mov	sp, r7
 363 000e 02B0     		add	sp, sp, #8
 364              		@ sp needed
 365 0010 80BD     		pop	{r7, pc}
 366              		.cfi_endproc
 367              	.LFE42:
ARM GAS  /tmp/ccKio8ov.s 			page 11


 369              		.section	.text.USBD_SetClassConfig,"ax",%progbits
 370              		.align	1
 371              		.global	USBD_SetClassConfig
 372              		.syntax unified
 373              		.code	16
 374              		.thumb_func
 375              		.fpu softvfp
 377              	USBD_SetClassConfig:
 378              	.LFB43:
 215:Middlewares/ST/STM32_USB_Device_Library/Core/Src/usbd_core.c **** 
 216:Middlewares/ST/STM32_USB_Device_Library/Core/Src/usbd_core.c **** /**
 217:Middlewares/ST/STM32_USB_Device_Library/Core/Src/usbd_core.c **** * @brief  USBD_SetClassConfig
 218:Middlewares/ST/STM32_USB_Device_Library/Core/Src/usbd_core.c **** *        Configure device and start the interface
 219:Middlewares/ST/STM32_USB_Device_Library/Core/Src/usbd_core.c **** * @param  pdev: device instance
 220:Middlewares/ST/STM32_USB_Device_Library/Core/Src/usbd_core.c **** * @param  cfgidx: configuration index
 221:Middlewares/ST/STM32_USB_Device_Library/Core/Src/usbd_core.c **** * @retval status
 222:Middlewares/ST/STM32_USB_Device_Library/Core/Src/usbd_core.c **** */
 223:Middlewares/ST/STM32_USB_Device_Library/Core/Src/usbd_core.c **** 
 224:Middlewares/ST/STM32_USB_Device_Library/Core/Src/usbd_core.c **** USBD_StatusTypeDef USBD_SetClassConfig(USBD_HandleTypeDef  *pdev, uint8_t cfgidx)
 225:Middlewares/ST/STM32_USB_Device_Library/Core/Src/usbd_core.c **** {
 379              		.loc 1 225 0
 380              		.cfi_startproc
 381              		@ args = 0, pretend = 0, frame = 16
 382              		@ frame_needed = 1, uses_anonymous_args = 0
 383 0000 80B5     		push	{r7, lr}
 384              	.LCFI18:
 385              		.cfi_def_cfa_offset 8
 386              		.cfi_offset 7, -8
 387              		.cfi_offset 14, -4
 388 0002 84B0     		sub	sp, sp, #16
 389              	.LCFI19:
 390              		.cfi_def_cfa_offset 24
 391 0004 00AF     		add	r7, sp, #0
 392              	.LCFI20:
 393              		.cfi_def_cfa_register 7
 394 0006 7860     		str	r0, [r7, #4]
 395 0008 0A00     		movs	r2, r1
 396 000a FB1C     		adds	r3, r7, #3
 397 000c 1A70     		strb	r2, [r3]
 226:Middlewares/ST/STM32_USB_Device_Library/Core/Src/usbd_core.c ****   USBD_StatusTypeDef   ret = USBD_FAIL;
 398              		.loc 1 226 0
 399 000e 0F23     		movs	r3, #15
 400 0010 FB18     		adds	r3, r7, r3
 401 0012 0222     		movs	r2, #2
 402 0014 1A70     		strb	r2, [r3]
 227:Middlewares/ST/STM32_USB_Device_Library/Core/Src/usbd_core.c **** 
 228:Middlewares/ST/STM32_USB_Device_Library/Core/Src/usbd_core.c ****   if(pdev->pClass != NULL)
 403              		.loc 1 228 0
 404 0016 7A68     		ldr	r2, [r7, #4]
 405 0018 A323     		movs	r3, #163
 406 001a 9B00     		lsls	r3, r3, #2
 407 001c D358     		ldr	r3, [r2, r3]
 408 001e 002B     		cmp	r3, #0
 409 0020 0FD0     		beq	.L19
 229:Middlewares/ST/STM32_USB_Device_Library/Core/Src/usbd_core.c ****   {
 230:Middlewares/ST/STM32_USB_Device_Library/Core/Src/usbd_core.c ****     /* Set configuration  and Start the Class*/
 231:Middlewares/ST/STM32_USB_Device_Library/Core/Src/usbd_core.c ****     if(pdev->pClass->Init(pdev, cfgidx) == 0U)
ARM GAS  /tmp/ccKio8ov.s 			page 12


 410              		.loc 1 231 0
 411 0022 7A68     		ldr	r2, [r7, #4]
 412 0024 A323     		movs	r3, #163
 413 0026 9B00     		lsls	r3, r3, #2
 414 0028 D358     		ldr	r3, [r2, r3]
 415 002a 1B68     		ldr	r3, [r3]
 416 002c FA1C     		adds	r2, r7, #3
 417 002e 1178     		ldrb	r1, [r2]
 418 0030 7A68     		ldr	r2, [r7, #4]
 419 0032 1000     		movs	r0, r2
 420 0034 9847     		blx	r3
 421              	.LVL2:
 422 0036 031E     		subs	r3, r0, #0
 423 0038 03D1     		bne	.L19
 232:Middlewares/ST/STM32_USB_Device_Library/Core/Src/usbd_core.c ****     {
 233:Middlewares/ST/STM32_USB_Device_Library/Core/Src/usbd_core.c ****       ret = USBD_OK;
 424              		.loc 1 233 0
 425 003a 0F23     		movs	r3, #15
 426 003c FB18     		adds	r3, r7, r3
 427 003e 0022     		movs	r2, #0
 428 0040 1A70     		strb	r2, [r3]
 429              	.L19:
 234:Middlewares/ST/STM32_USB_Device_Library/Core/Src/usbd_core.c ****     }
 235:Middlewares/ST/STM32_USB_Device_Library/Core/Src/usbd_core.c ****   }
 236:Middlewares/ST/STM32_USB_Device_Library/Core/Src/usbd_core.c **** 
 237:Middlewares/ST/STM32_USB_Device_Library/Core/Src/usbd_core.c ****   return ret;
 430              		.loc 1 237 0
 431 0042 0F23     		movs	r3, #15
 432 0044 FB18     		adds	r3, r7, r3
 433 0046 1B78     		ldrb	r3, [r3]
 238:Middlewares/ST/STM32_USB_Device_Library/Core/Src/usbd_core.c **** }
 434              		.loc 1 238 0
 435 0048 1800     		movs	r0, r3
 436 004a BD46     		mov	sp, r7
 437 004c 04B0     		add	sp, sp, #16
 438              		@ sp needed
 439 004e 80BD     		pop	{r7, pc}
 440              		.cfi_endproc
 441              	.LFE43:
 443              		.section	.text.USBD_ClrClassConfig,"ax",%progbits
 444              		.align	1
 445              		.global	USBD_ClrClassConfig
 446              		.syntax unified
 447              		.code	16
 448              		.thumb_func
 449              		.fpu softvfp
 451              	USBD_ClrClassConfig:
 452              	.LFB44:
 239:Middlewares/ST/STM32_USB_Device_Library/Core/Src/usbd_core.c **** 
 240:Middlewares/ST/STM32_USB_Device_Library/Core/Src/usbd_core.c **** /**
 241:Middlewares/ST/STM32_USB_Device_Library/Core/Src/usbd_core.c **** * @brief  USBD_ClrClassConfig
 242:Middlewares/ST/STM32_USB_Device_Library/Core/Src/usbd_core.c **** *         Clear current configuration
 243:Middlewares/ST/STM32_USB_Device_Library/Core/Src/usbd_core.c **** * @param  pdev: device instance
 244:Middlewares/ST/STM32_USB_Device_Library/Core/Src/usbd_core.c **** * @param  cfgidx: configuration index
 245:Middlewares/ST/STM32_USB_Device_Library/Core/Src/usbd_core.c **** * @retval status: USBD_StatusTypeDef
 246:Middlewares/ST/STM32_USB_Device_Library/Core/Src/usbd_core.c **** */
 247:Middlewares/ST/STM32_USB_Device_Library/Core/Src/usbd_core.c **** USBD_StatusTypeDef USBD_ClrClassConfig(USBD_HandleTypeDef  *pdev, uint8_t cfgidx)
ARM GAS  /tmp/ccKio8ov.s 			page 13


 248:Middlewares/ST/STM32_USB_Device_Library/Core/Src/usbd_core.c **** {
 453              		.loc 1 248 0
 454              		.cfi_startproc
 455              		@ args = 0, pretend = 0, frame = 8
 456              		@ frame_needed = 1, uses_anonymous_args = 0
 457 0000 80B5     		push	{r7, lr}
 458              	.LCFI21:
 459              		.cfi_def_cfa_offset 8
 460              		.cfi_offset 7, -8
 461              		.cfi_offset 14, -4
 462 0002 82B0     		sub	sp, sp, #8
 463              	.LCFI22:
 464              		.cfi_def_cfa_offset 16
 465 0004 00AF     		add	r7, sp, #0
 466              	.LCFI23:
 467              		.cfi_def_cfa_register 7
 468 0006 7860     		str	r0, [r7, #4]
 469 0008 0A00     		movs	r2, r1
 470 000a FB1C     		adds	r3, r7, #3
 471 000c 1A70     		strb	r2, [r3]
 249:Middlewares/ST/STM32_USB_Device_Library/Core/Src/usbd_core.c ****   /* Clear configuration  and De-initialize the Class process*/
 250:Middlewares/ST/STM32_USB_Device_Library/Core/Src/usbd_core.c ****   pdev->pClass->DeInit(pdev, cfgidx);
 472              		.loc 1 250 0
 473 000e 7A68     		ldr	r2, [r7, #4]
 474 0010 A323     		movs	r3, #163
 475 0012 9B00     		lsls	r3, r3, #2
 476 0014 D358     		ldr	r3, [r2, r3]
 477 0016 5B68     		ldr	r3, [r3, #4]
 478 0018 FA1C     		adds	r2, r7, #3
 479 001a 1178     		ldrb	r1, [r2]
 480 001c 7A68     		ldr	r2, [r7, #4]
 481 001e 1000     		movs	r0, r2
 482 0020 9847     		blx	r3
 483              	.LVL3:
 251:Middlewares/ST/STM32_USB_Device_Library/Core/Src/usbd_core.c ****   return USBD_OK;
 484              		.loc 1 251 0
 485 0022 0023     		movs	r3, #0
 252:Middlewares/ST/STM32_USB_Device_Library/Core/Src/usbd_core.c **** }
 486              		.loc 1 252 0
 487 0024 1800     		movs	r0, r3
 488 0026 BD46     		mov	sp, r7
 489 0028 02B0     		add	sp, sp, #8
 490              		@ sp needed
 491 002a 80BD     		pop	{r7, pc}
 492              		.cfi_endproc
 493              	.LFE44:
 495              		.section	.text.USBD_LL_SetupStage,"ax",%progbits
 496              		.align	1
 497              		.global	USBD_LL_SetupStage
 498              		.syntax unified
 499              		.code	16
 500              		.thumb_func
 501              		.fpu softvfp
 503              	USBD_LL_SetupStage:
 504              	.LFB45:
 253:Middlewares/ST/STM32_USB_Device_Library/Core/Src/usbd_core.c **** 
 254:Middlewares/ST/STM32_USB_Device_Library/Core/Src/usbd_core.c **** 
ARM GAS  /tmp/ccKio8ov.s 			page 14


 255:Middlewares/ST/STM32_USB_Device_Library/Core/Src/usbd_core.c **** /**
 256:Middlewares/ST/STM32_USB_Device_Library/Core/Src/usbd_core.c **** * @brief  USBD_SetupStage
 257:Middlewares/ST/STM32_USB_Device_Library/Core/Src/usbd_core.c **** *         Handle the setup stage
 258:Middlewares/ST/STM32_USB_Device_Library/Core/Src/usbd_core.c **** * @param  pdev: device instance
 259:Middlewares/ST/STM32_USB_Device_Library/Core/Src/usbd_core.c **** * @retval status
 260:Middlewares/ST/STM32_USB_Device_Library/Core/Src/usbd_core.c **** */
 261:Middlewares/ST/STM32_USB_Device_Library/Core/Src/usbd_core.c **** USBD_StatusTypeDef USBD_LL_SetupStage(USBD_HandleTypeDef *pdev, uint8_t *psetup)
 262:Middlewares/ST/STM32_USB_Device_Library/Core/Src/usbd_core.c **** {
 505              		.loc 1 262 0
 506              		.cfi_startproc
 507              		@ args = 0, pretend = 0, frame = 8
 508              		@ frame_needed = 1, uses_anonymous_args = 0
 509 0000 80B5     		push	{r7, lr}
 510              	.LCFI24:
 511              		.cfi_def_cfa_offset 8
 512              		.cfi_offset 7, -8
 513              		.cfi_offset 14, -4
 514 0002 82B0     		sub	sp, sp, #8
 515              	.LCFI25:
 516              		.cfi_def_cfa_offset 16
 517 0004 00AF     		add	r7, sp, #0
 518              	.LCFI26:
 519              		.cfi_def_cfa_register 7
 520 0006 7860     		str	r0, [r7, #4]
 521 0008 3960     		str	r1, [r7]
 263:Middlewares/ST/STM32_USB_Device_Library/Core/Src/usbd_core.c ****   USBD_ParseSetupRequest(&pdev->request, psetup);
 522              		.loc 1 263 0
 523 000a 7B68     		ldr	r3, [r7, #4]
 524 000c A022     		movs	r2, #160
 525 000e 9200     		lsls	r2, r2, #2
 526 0010 9446     		mov	ip, r2
 527 0012 6344     		add	r3, r3, ip
 528 0014 3A68     		ldr	r2, [r7]
 529 0016 1100     		movs	r1, r2
 530 0018 1800     		movs	r0, r3
 531 001a FFF7FEFF 		bl	USBD_ParseSetupRequest
 264:Middlewares/ST/STM32_USB_Device_Library/Core/Src/usbd_core.c **** 
 265:Middlewares/ST/STM32_USB_Device_Library/Core/Src/usbd_core.c ****   pdev->ep0_state = USBD_EP0_SETUP;
 532              		.loc 1 265 0
 533 001e 7A68     		ldr	r2, [r7, #4]
 534 0020 9B23     		movs	r3, #155
 535 0022 9B00     		lsls	r3, r3, #2
 536 0024 0121     		movs	r1, #1
 537 0026 D150     		str	r1, [r2, r3]
 266:Middlewares/ST/STM32_USB_Device_Library/Core/Src/usbd_core.c **** 
 267:Middlewares/ST/STM32_USB_Device_Library/Core/Src/usbd_core.c ****   pdev->ep0_data_len = pdev->request.wLength;
 538              		.loc 1 267 0
 539 0028 7B68     		ldr	r3, [r7, #4]
 540 002a 224A     		ldr	r2, .L31
 541 002c 9B5A     		ldrh	r3, [r3, r2]
 542 002e 1900     		movs	r1, r3
 543 0030 7A68     		ldr	r2, [r7, #4]
 544 0032 9C23     		movs	r3, #156
 545 0034 9B00     		lsls	r3, r3, #2
 546 0036 D150     		str	r1, [r2, r3]
 268:Middlewares/ST/STM32_USB_Device_Library/Core/Src/usbd_core.c **** 
 269:Middlewares/ST/STM32_USB_Device_Library/Core/Src/usbd_core.c ****   switch (pdev->request.bmRequest & 0x1FU)
ARM GAS  /tmp/ccKio8ov.s 			page 15


 547              		.loc 1 269 0
 548 0038 7A68     		ldr	r2, [r7, #4]
 549 003a A023     		movs	r3, #160
 550 003c 9B00     		lsls	r3, r3, #2
 551 003e D35C     		ldrb	r3, [r2, r3]
 552 0040 1A00     		movs	r2, r3
 553 0042 1F23     		movs	r3, #31
 554 0044 1340     		ands	r3, r2
 555 0046 012B     		cmp	r3, #1
 556 0048 0DD0     		beq	.L25
 557 004a 02D3     		bcc	.L26
 558 004c 022B     		cmp	r3, #2
 559 004e 14D0     		beq	.L27
 560 0050 1DE0     		b	.L30
 561              	.L26:
 270:Middlewares/ST/STM32_USB_Device_Library/Core/Src/usbd_core.c ****   {
 271:Middlewares/ST/STM32_USB_Device_Library/Core/Src/usbd_core.c ****   case USB_REQ_RECIPIENT_DEVICE:
 272:Middlewares/ST/STM32_USB_Device_Library/Core/Src/usbd_core.c ****     USBD_StdDevReq (pdev, &pdev->request);
 562              		.loc 1 272 0
 563 0052 7B68     		ldr	r3, [r7, #4]
 564 0054 A022     		movs	r2, #160
 565 0056 9200     		lsls	r2, r2, #2
 566 0058 9A18     		adds	r2, r3, r2
 567 005a 7B68     		ldr	r3, [r7, #4]
 568 005c 1100     		movs	r1, r2
 569 005e 1800     		movs	r0, r3
 570 0060 FFF7FEFF 		bl	USBD_StdDevReq
 273:Middlewares/ST/STM32_USB_Device_Library/Core/Src/usbd_core.c ****     break;
 571              		.loc 1 273 0
 572 0064 20E0     		b	.L28
 573              	.L25:
 274:Middlewares/ST/STM32_USB_Device_Library/Core/Src/usbd_core.c **** 
 275:Middlewares/ST/STM32_USB_Device_Library/Core/Src/usbd_core.c ****   case USB_REQ_RECIPIENT_INTERFACE:
 276:Middlewares/ST/STM32_USB_Device_Library/Core/Src/usbd_core.c ****     USBD_StdItfReq(pdev, &pdev->request);
 574              		.loc 1 276 0
 575 0066 7B68     		ldr	r3, [r7, #4]
 576 0068 A022     		movs	r2, #160
 577 006a 9200     		lsls	r2, r2, #2
 578 006c 9A18     		adds	r2, r3, r2
 579 006e 7B68     		ldr	r3, [r7, #4]
 580 0070 1100     		movs	r1, r2
 581 0072 1800     		movs	r0, r3
 582 0074 FFF7FEFF 		bl	USBD_StdItfReq
 277:Middlewares/ST/STM32_USB_Device_Library/Core/Src/usbd_core.c ****     break;
 583              		.loc 1 277 0
 584 0078 16E0     		b	.L28
 585              	.L27:
 278:Middlewares/ST/STM32_USB_Device_Library/Core/Src/usbd_core.c **** 
 279:Middlewares/ST/STM32_USB_Device_Library/Core/Src/usbd_core.c ****   case USB_REQ_RECIPIENT_ENDPOINT:
 280:Middlewares/ST/STM32_USB_Device_Library/Core/Src/usbd_core.c ****     USBD_StdEPReq(pdev, &pdev->request);
 586              		.loc 1 280 0
 587 007a 7B68     		ldr	r3, [r7, #4]
 588 007c A022     		movs	r2, #160
 589 007e 9200     		lsls	r2, r2, #2
 590 0080 9A18     		adds	r2, r3, r2
 591 0082 7B68     		ldr	r3, [r7, #4]
 592 0084 1100     		movs	r1, r2
ARM GAS  /tmp/ccKio8ov.s 			page 16


 593 0086 1800     		movs	r0, r3
 594 0088 FFF7FEFF 		bl	USBD_StdEPReq
 281:Middlewares/ST/STM32_USB_Device_Library/Core/Src/usbd_core.c ****     break;
 595              		.loc 1 281 0
 596 008c 0CE0     		b	.L28
 597              	.L30:
 282:Middlewares/ST/STM32_USB_Device_Library/Core/Src/usbd_core.c **** 
 283:Middlewares/ST/STM32_USB_Device_Library/Core/Src/usbd_core.c ****   default:
 284:Middlewares/ST/STM32_USB_Device_Library/Core/Src/usbd_core.c ****     USBD_LL_StallEP(pdev, (pdev->request.bmRequest & 0x80U));
 598              		.loc 1 284 0
 599 008e 7A68     		ldr	r2, [r7, #4]
 600 0090 A023     		movs	r3, #160
 601 0092 9B00     		lsls	r3, r3, #2
 602 0094 D35C     		ldrb	r3, [r2, r3]
 603 0096 7F22     		movs	r2, #127
 604 0098 9343     		bics	r3, r2
 605 009a DAB2     		uxtb	r2, r3
 606 009c 7B68     		ldr	r3, [r7, #4]
 607 009e 1100     		movs	r1, r2
 608 00a0 1800     		movs	r0, r3
 609 00a2 FFF7FEFF 		bl	USBD_LL_StallEP
 285:Middlewares/ST/STM32_USB_Device_Library/Core/Src/usbd_core.c ****     break;
 610              		.loc 1 285 0
 611 00a6 C046     		nop
 612              	.L28:
 286:Middlewares/ST/STM32_USB_Device_Library/Core/Src/usbd_core.c ****   }
 287:Middlewares/ST/STM32_USB_Device_Library/Core/Src/usbd_core.c **** 
 288:Middlewares/ST/STM32_USB_Device_Library/Core/Src/usbd_core.c ****   return USBD_OK;
 613              		.loc 1 288 0
 614 00a8 0023     		movs	r3, #0
 289:Middlewares/ST/STM32_USB_Device_Library/Core/Src/usbd_core.c **** }
 615              		.loc 1 289 0
 616 00aa 1800     		movs	r0, r3
 617 00ac BD46     		mov	sp, r7
 618 00ae 02B0     		add	sp, sp, #8
 619              		@ sp needed
 620 00b0 80BD     		pop	{r7, pc}
 621              	.L32:
 622 00b2 C046     		.align	2
 623              	.L31:
 624 00b4 86020000 		.word	646
 625              		.cfi_endproc
 626              	.LFE45:
 628              		.section	.text.USBD_LL_DataOutStage,"ax",%progbits
 629              		.align	1
 630              		.global	USBD_LL_DataOutStage
 631              		.syntax unified
 632              		.code	16
 633              		.thumb_func
 634              		.fpu softvfp
 636              	USBD_LL_DataOutStage:
 637              	.LFB46:
 290:Middlewares/ST/STM32_USB_Device_Library/Core/Src/usbd_core.c **** 
 291:Middlewares/ST/STM32_USB_Device_Library/Core/Src/usbd_core.c **** /**
 292:Middlewares/ST/STM32_USB_Device_Library/Core/Src/usbd_core.c **** * @brief  USBD_DataOutStage
 293:Middlewares/ST/STM32_USB_Device_Library/Core/Src/usbd_core.c **** *         Handle data OUT stage
 294:Middlewares/ST/STM32_USB_Device_Library/Core/Src/usbd_core.c **** * @param  pdev: device instance
ARM GAS  /tmp/ccKio8ov.s 			page 17


 295:Middlewares/ST/STM32_USB_Device_Library/Core/Src/usbd_core.c **** * @param  epnum: endpoint index
 296:Middlewares/ST/STM32_USB_Device_Library/Core/Src/usbd_core.c **** * @retval status
 297:Middlewares/ST/STM32_USB_Device_Library/Core/Src/usbd_core.c **** */
 298:Middlewares/ST/STM32_USB_Device_Library/Core/Src/usbd_core.c **** USBD_StatusTypeDef USBD_LL_DataOutStage(USBD_HandleTypeDef *pdev,
 299:Middlewares/ST/STM32_USB_Device_Library/Core/Src/usbd_core.c ****                                         uint8_t epnum, uint8_t *pdata)
 300:Middlewares/ST/STM32_USB_Device_Library/Core/Src/usbd_core.c **** {
 638              		.loc 1 300 0
 639              		.cfi_startproc
 640              		@ args = 0, pretend = 0, frame = 24
 641              		@ frame_needed = 1, uses_anonymous_args = 0
 642 0000 80B5     		push	{r7, lr}
 643              	.LCFI27:
 644              		.cfi_def_cfa_offset 8
 645              		.cfi_offset 7, -8
 646              		.cfi_offset 14, -4
 647 0002 86B0     		sub	sp, sp, #24
 648              	.LCFI28:
 649              		.cfi_def_cfa_offset 32
 650 0004 00AF     		add	r7, sp, #0
 651              	.LCFI29:
 652              		.cfi_def_cfa_register 7
 653 0006 F860     		str	r0, [r7, #12]
 654 0008 7A60     		str	r2, [r7, #4]
 655 000a 0B23     		movs	r3, #11
 656 000c FB18     		adds	r3, r7, r3
 657 000e 0A1C     		adds	r2, r1, #0
 658 0010 1A70     		strb	r2, [r3]
 301:Middlewares/ST/STM32_USB_Device_Library/Core/Src/usbd_core.c ****   USBD_EndpointTypeDef    *pep;
 302:Middlewares/ST/STM32_USB_Device_Library/Core/Src/usbd_core.c **** 
 303:Middlewares/ST/STM32_USB_Device_Library/Core/Src/usbd_core.c ****   if(epnum == 0U)
 659              		.loc 1 303 0
 660 0012 0B23     		movs	r3, #11
 661 0014 FB18     		adds	r3, r7, r3
 662 0016 1B78     		ldrb	r3, [r3]
 663 0018 002B     		cmp	r3, #0
 664 001a 54D1     		bne	.L34
 304:Middlewares/ST/STM32_USB_Device_Library/Core/Src/usbd_core.c ****   {
 305:Middlewares/ST/STM32_USB_Device_Library/Core/Src/usbd_core.c ****     pep = &pdev->ep_out[0];
 665              		.loc 1 305 0
 666 001c FB68     		ldr	r3, [r7, #12]
 667 001e 4133     		adds	r3, r3, #65
 668 0020 FF33     		adds	r3, r3, #255
 669 0022 7B61     		str	r3, [r7, #20]
 306:Middlewares/ST/STM32_USB_Device_Library/Core/Src/usbd_core.c **** 
 307:Middlewares/ST/STM32_USB_Device_Library/Core/Src/usbd_core.c ****     if ( pdev->ep0_state == USBD_EP0_DATA_OUT)
 670              		.loc 1 307 0
 671 0024 FA68     		ldr	r2, [r7, #12]
 672 0026 9B23     		movs	r3, #155
 673 0028 9B00     		lsls	r3, r3, #2
 674 002a D358     		ldr	r3, [r2, r3]
 675 002c 032B     		cmp	r3, #3
 676 002e 39D1     		bne	.L35
 308:Middlewares/ST/STM32_USB_Device_Library/Core/Src/usbd_core.c ****     {
 309:Middlewares/ST/STM32_USB_Device_Library/Core/Src/usbd_core.c ****       if(pep->rem_length > pep->maxpacket)
 677              		.loc 1 309 0
 678 0030 7B69     		ldr	r3, [r7, #20]
 679 0032 DA68     		ldr	r2, [r3, #12]
ARM GAS  /tmp/ccKio8ov.s 			page 18


 680 0034 7B69     		ldr	r3, [r7, #20]
 681 0036 1B69     		ldr	r3, [r3, #16]
 682 0038 9A42     		cmp	r2, r3
 683 003a 19D9     		bls	.L36
 310:Middlewares/ST/STM32_USB_Device_Library/Core/Src/usbd_core.c ****       {
 311:Middlewares/ST/STM32_USB_Device_Library/Core/Src/usbd_core.c ****         pep->rem_length -=  pep->maxpacket;
 684              		.loc 1 311 0
 685 003c 7B69     		ldr	r3, [r7, #20]
 686 003e DA68     		ldr	r2, [r3, #12]
 687 0040 7B69     		ldr	r3, [r7, #20]
 688 0042 1B69     		ldr	r3, [r3, #16]
 689 0044 D21A     		subs	r2, r2, r3
 690 0046 7B69     		ldr	r3, [r7, #20]
 691 0048 DA60     		str	r2, [r3, #12]
 312:Middlewares/ST/STM32_USB_Device_Library/Core/Src/usbd_core.c **** 
 313:Middlewares/ST/STM32_USB_Device_Library/Core/Src/usbd_core.c ****         USBD_CtlContinueRx (pdev,
 314:Middlewares/ST/STM32_USB_Device_Library/Core/Src/usbd_core.c ****                             pdata,
 315:Middlewares/ST/STM32_USB_Device_Library/Core/Src/usbd_core.c ****                             (uint16_t)MIN(pep->rem_length, pep->maxpacket));
 692              		.loc 1 315 0
 693 004a 7B69     		ldr	r3, [r7, #20]
 694 004c DA68     		ldr	r2, [r3, #12]
 695 004e 7B69     		ldr	r3, [r7, #20]
 696 0050 1B69     		ldr	r3, [r3, #16]
 313:Middlewares/ST/STM32_USB_Device_Library/Core/Src/usbd_core.c ****                             pdata,
 697              		.loc 1 313 0
 698 0052 9A42     		cmp	r2, r3
 699 0054 03D2     		bcs	.L37
 700              		.loc 1 315 0 discriminator 1
 701 0056 7B69     		ldr	r3, [r7, #20]
 702 0058 DB68     		ldr	r3, [r3, #12]
 313:Middlewares/ST/STM32_USB_Device_Library/Core/Src/usbd_core.c ****                             pdata,
 703              		.loc 1 313 0 discriminator 1
 704 005a 9BB2     		uxth	r3, r3
 705 005c 02E0     		b	.L38
 706              	.L37:
 707              		.loc 1 315 0 discriminator 2
 708 005e 7B69     		ldr	r3, [r7, #20]
 709 0060 1B69     		ldr	r3, [r3, #16]
 313:Middlewares/ST/STM32_USB_Device_Library/Core/Src/usbd_core.c ****                             pdata,
 710              		.loc 1 313 0 discriminator 2
 711 0062 9BB2     		uxth	r3, r3
 712              	.L38:
 313:Middlewares/ST/STM32_USB_Device_Library/Core/Src/usbd_core.c ****                             pdata,
 713              		.loc 1 313 0 is_stmt 0 discriminator 4
 714 0064 7968     		ldr	r1, [r7, #4]
 715 0066 F868     		ldr	r0, [r7, #12]
 716 0068 1A00     		movs	r2, r3
 717 006a FFF7FEFF 		bl	USBD_CtlContinueRx
 718 006e 45E0     		b	.L42
 719              	.L36:
 316:Middlewares/ST/STM32_USB_Device_Library/Core/Src/usbd_core.c ****       }
 317:Middlewares/ST/STM32_USB_Device_Library/Core/Src/usbd_core.c ****       else
 318:Middlewares/ST/STM32_USB_Device_Library/Core/Src/usbd_core.c ****       {
 319:Middlewares/ST/STM32_USB_Device_Library/Core/Src/usbd_core.c ****         if((pdev->pClass->EP0_RxReady != NULL)&&
 720              		.loc 1 319 0 is_stmt 1
 721 0070 FA68     		ldr	r2, [r7, #12]
 722 0072 A323     		movs	r3, #163
ARM GAS  /tmp/ccKio8ov.s 			page 19


 723 0074 9B00     		lsls	r3, r3, #2
 724 0076 D358     		ldr	r3, [r2, r3]
 725 0078 1B69     		ldr	r3, [r3, #16]
 726 007a 002B     		cmp	r3, #0
 727 007c 0DD0     		beq	.L40
 320:Middlewares/ST/STM32_USB_Device_Library/Core/Src/usbd_core.c ****            (pdev->dev_state == USBD_STATE_CONFIGURED))
 728              		.loc 1 320 0 discriminator 1
 729 007e FA68     		ldr	r2, [r7, #12]
 730 0080 9D23     		movs	r3, #157
 731 0082 9B00     		lsls	r3, r3, #2
 732 0084 D35C     		ldrb	r3, [r2, r3]
 319:Middlewares/ST/STM32_USB_Device_Library/Core/Src/usbd_core.c ****            (pdev->dev_state == USBD_STATE_CONFIGURED))
 733              		.loc 1 319 0 discriminator 1
 734 0086 032B     		cmp	r3, #3
 735 0088 07D1     		bne	.L40
 321:Middlewares/ST/STM32_USB_Device_Library/Core/Src/usbd_core.c ****         {
 322:Middlewares/ST/STM32_USB_Device_Library/Core/Src/usbd_core.c ****           pdev->pClass->EP0_RxReady(pdev);
 736              		.loc 1 322 0
 737 008a FA68     		ldr	r2, [r7, #12]
 738 008c A323     		movs	r3, #163
 739 008e 9B00     		lsls	r3, r3, #2
 740 0090 D358     		ldr	r3, [r2, r3]
 741 0092 1B69     		ldr	r3, [r3, #16]
 742 0094 FA68     		ldr	r2, [r7, #12]
 743 0096 1000     		movs	r0, r2
 744 0098 9847     		blx	r3
 745              	.LVL4:
 746              	.L40:
 323:Middlewares/ST/STM32_USB_Device_Library/Core/Src/usbd_core.c ****         }
 324:Middlewares/ST/STM32_USB_Device_Library/Core/Src/usbd_core.c ****         USBD_CtlSendStatus(pdev);
 747              		.loc 1 324 0
 748 009a FB68     		ldr	r3, [r7, #12]
 749 009c 1800     		movs	r0, r3
 750 009e FFF7FEFF 		bl	USBD_CtlSendStatus
 751 00a2 2BE0     		b	.L42
 752              	.L35:
 325:Middlewares/ST/STM32_USB_Device_Library/Core/Src/usbd_core.c ****       }
 326:Middlewares/ST/STM32_USB_Device_Library/Core/Src/usbd_core.c ****     }
 327:Middlewares/ST/STM32_USB_Device_Library/Core/Src/usbd_core.c ****     else
 328:Middlewares/ST/STM32_USB_Device_Library/Core/Src/usbd_core.c ****     {
 329:Middlewares/ST/STM32_USB_Device_Library/Core/Src/usbd_core.c ****       if (pdev->ep0_state == USBD_EP0_STATUS_OUT)
 753              		.loc 1 329 0
 754 00a4 FA68     		ldr	r2, [r7, #12]
 755 00a6 9B23     		movs	r3, #155
 756 00a8 9B00     		lsls	r3, r3, #2
 757 00aa D358     		ldr	r3, [r2, r3]
 758 00ac 052B     		cmp	r3, #5
 759 00ae 25D1     		bne	.L42
 330:Middlewares/ST/STM32_USB_Device_Library/Core/Src/usbd_core.c ****       {
 331:Middlewares/ST/STM32_USB_Device_Library/Core/Src/usbd_core.c ****         /*
 332:Middlewares/ST/STM32_USB_Device_Library/Core/Src/usbd_core.c ****          * STATUS PHASE completed, update ep0_state to idle
 333:Middlewares/ST/STM32_USB_Device_Library/Core/Src/usbd_core.c ****          */
 334:Middlewares/ST/STM32_USB_Device_Library/Core/Src/usbd_core.c ****         pdev->ep0_state = USBD_EP0_IDLE;
 760              		.loc 1 334 0
 761 00b0 FA68     		ldr	r2, [r7, #12]
 762 00b2 9B23     		movs	r3, #155
 763 00b4 9B00     		lsls	r3, r3, #2
ARM GAS  /tmp/ccKio8ov.s 			page 20


 764 00b6 0021     		movs	r1, #0
 765 00b8 D150     		str	r1, [r2, r3]
 335:Middlewares/ST/STM32_USB_Device_Library/Core/Src/usbd_core.c ****         USBD_LL_StallEP(pdev, 0U);
 766              		.loc 1 335 0
 767 00ba FB68     		ldr	r3, [r7, #12]
 768 00bc 0021     		movs	r1, #0
 769 00be 1800     		movs	r0, r3
 770 00c0 FFF7FEFF 		bl	USBD_LL_StallEP
 771 00c4 1AE0     		b	.L42
 772              	.L34:
 336:Middlewares/ST/STM32_USB_Device_Library/Core/Src/usbd_core.c ****       }
 337:Middlewares/ST/STM32_USB_Device_Library/Core/Src/usbd_core.c ****     }
 338:Middlewares/ST/STM32_USB_Device_Library/Core/Src/usbd_core.c ****   }
 339:Middlewares/ST/STM32_USB_Device_Library/Core/Src/usbd_core.c ****   else if((pdev->pClass->DataOut != NULL) &&
 773              		.loc 1 339 0
 774 00c6 FA68     		ldr	r2, [r7, #12]
 775 00c8 A323     		movs	r3, #163
 776 00ca 9B00     		lsls	r3, r3, #2
 777 00cc D358     		ldr	r3, [r2, r3]
 778 00ce 9B69     		ldr	r3, [r3, #24]
 779 00d0 002B     		cmp	r3, #0
 780 00d2 11D0     		beq	.L43
 340:Middlewares/ST/STM32_USB_Device_Library/Core/Src/usbd_core.c ****           (pdev->dev_state == USBD_STATE_CONFIGURED))
 781              		.loc 1 340 0 discriminator 1
 782 00d4 FA68     		ldr	r2, [r7, #12]
 783 00d6 9D23     		movs	r3, #157
 784 00d8 9B00     		lsls	r3, r3, #2
 785 00da D35C     		ldrb	r3, [r2, r3]
 339:Middlewares/ST/STM32_USB_Device_Library/Core/Src/usbd_core.c ****           (pdev->dev_state == USBD_STATE_CONFIGURED))
 786              		.loc 1 339 0 discriminator 1
 787 00dc 032B     		cmp	r3, #3
 788 00de 0BD1     		bne	.L43
 341:Middlewares/ST/STM32_USB_Device_Library/Core/Src/usbd_core.c ****   {
 342:Middlewares/ST/STM32_USB_Device_Library/Core/Src/usbd_core.c ****     pdev->pClass->DataOut(pdev, epnum);
 789              		.loc 1 342 0
 790 00e0 FA68     		ldr	r2, [r7, #12]
 791 00e2 A323     		movs	r3, #163
 792 00e4 9B00     		lsls	r3, r3, #2
 793 00e6 D358     		ldr	r3, [r2, r3]
 794 00e8 9B69     		ldr	r3, [r3, #24]
 795 00ea 0B22     		movs	r2, #11
 796 00ec BA18     		adds	r2, r7, r2
 797 00ee 1178     		ldrb	r1, [r2]
 798 00f0 FA68     		ldr	r2, [r7, #12]
 799 00f2 1000     		movs	r0, r2
 800 00f4 9847     		blx	r3
 801              	.LVL5:
 802 00f6 01E0     		b	.L42
 803              	.L43:
 343:Middlewares/ST/STM32_USB_Device_Library/Core/Src/usbd_core.c ****   }
 344:Middlewares/ST/STM32_USB_Device_Library/Core/Src/usbd_core.c ****   else
 345:Middlewares/ST/STM32_USB_Device_Library/Core/Src/usbd_core.c ****   {
 346:Middlewares/ST/STM32_USB_Device_Library/Core/Src/usbd_core.c ****     /* should never be in this condition */
 347:Middlewares/ST/STM32_USB_Device_Library/Core/Src/usbd_core.c ****     return USBD_FAIL;
 804              		.loc 1 347 0
 805 00f8 0223     		movs	r3, #2
 806 00fa 00E0     		b	.L44
ARM GAS  /tmp/ccKio8ov.s 			page 21


 807              	.L42:
 348:Middlewares/ST/STM32_USB_Device_Library/Core/Src/usbd_core.c ****   }
 349:Middlewares/ST/STM32_USB_Device_Library/Core/Src/usbd_core.c **** 
 350:Middlewares/ST/STM32_USB_Device_Library/Core/Src/usbd_core.c ****   return USBD_OK;
 808              		.loc 1 350 0
 809 00fc 0023     		movs	r3, #0
 810              	.L44:
 351:Middlewares/ST/STM32_USB_Device_Library/Core/Src/usbd_core.c **** }
 811              		.loc 1 351 0
 812 00fe 1800     		movs	r0, r3
 813 0100 BD46     		mov	sp, r7
 814 0102 06B0     		add	sp, sp, #24
 815              		@ sp needed
 816 0104 80BD     		pop	{r7, pc}
 817              		.cfi_endproc
 818              	.LFE46:
 820              		.global	__aeabi_uidivmod
 821              		.section	.text.USBD_LL_DataInStage,"ax",%progbits
 822              		.align	1
 823              		.global	USBD_LL_DataInStage
 824              		.syntax unified
 825              		.code	16
 826              		.thumb_func
 827              		.fpu softvfp
 829              	USBD_LL_DataInStage:
 830              	.LFB47:
 352:Middlewares/ST/STM32_USB_Device_Library/Core/Src/usbd_core.c **** 
 353:Middlewares/ST/STM32_USB_Device_Library/Core/Src/usbd_core.c **** /**
 354:Middlewares/ST/STM32_USB_Device_Library/Core/Src/usbd_core.c **** * @brief  USBD_DataInStage
 355:Middlewares/ST/STM32_USB_Device_Library/Core/Src/usbd_core.c **** *         Handle data in stage
 356:Middlewares/ST/STM32_USB_Device_Library/Core/Src/usbd_core.c **** * @param  pdev: device instance
 357:Middlewares/ST/STM32_USB_Device_Library/Core/Src/usbd_core.c **** * @param  epnum: endpoint index
 358:Middlewares/ST/STM32_USB_Device_Library/Core/Src/usbd_core.c **** * @retval status
 359:Middlewares/ST/STM32_USB_Device_Library/Core/Src/usbd_core.c **** */
 360:Middlewares/ST/STM32_USB_Device_Library/Core/Src/usbd_core.c **** USBD_StatusTypeDef USBD_LL_DataInStage(USBD_HandleTypeDef *pdev, uint8_t epnum,
 361:Middlewares/ST/STM32_USB_Device_Library/Core/Src/usbd_core.c ****                                        uint8_t *pdata)
 362:Middlewares/ST/STM32_USB_Device_Library/Core/Src/usbd_core.c **** {
 831              		.loc 1 362 0
 832              		.cfi_startproc
 833              		@ args = 0, pretend = 0, frame = 24
 834              		@ frame_needed = 1, uses_anonymous_args = 0
 835 0000 80B5     		push	{r7, lr}
 836              	.LCFI30:
 837              		.cfi_def_cfa_offset 8
 838              		.cfi_offset 7, -8
 839              		.cfi_offset 14, -4
 840 0002 86B0     		sub	sp, sp, #24
 841              	.LCFI31:
 842              		.cfi_def_cfa_offset 32
 843 0004 00AF     		add	r7, sp, #0
 844              	.LCFI32:
 845              		.cfi_def_cfa_register 7
 846 0006 F860     		str	r0, [r7, #12]
 847 0008 7A60     		str	r2, [r7, #4]
 848 000a 0B23     		movs	r3, #11
 849 000c FB18     		adds	r3, r7, r3
 850 000e 0A1C     		adds	r2, r1, #0
ARM GAS  /tmp/ccKio8ov.s 			page 22


 851 0010 1A70     		strb	r2, [r3]
 363:Middlewares/ST/STM32_USB_Device_Library/Core/Src/usbd_core.c ****   USBD_EndpointTypeDef *pep;
 364:Middlewares/ST/STM32_USB_Device_Library/Core/Src/usbd_core.c **** 
 365:Middlewares/ST/STM32_USB_Device_Library/Core/Src/usbd_core.c ****   if(epnum == 0U)
 852              		.loc 1 365 0
 853 0012 0B23     		movs	r3, #11
 854 0014 FB18     		adds	r3, r7, r3
 855 0016 1B78     		ldrb	r3, [r3]
 856 0018 002B     		cmp	r3, #0
 857 001a 00D0     		beq	.LCB709
 858 001c 8EE0     		b	.L46	@long jump
 859              	.LCB709:
 366:Middlewares/ST/STM32_USB_Device_Library/Core/Src/usbd_core.c ****   {
 367:Middlewares/ST/STM32_USB_Device_Library/Core/Src/usbd_core.c ****     pep = &pdev->ep_in[0];
 860              		.loc 1 367 0
 861 001e FB68     		ldr	r3, [r7, #12]
 862 0020 1433     		adds	r3, r3, #20
 863 0022 7B61     		str	r3, [r7, #20]
 368:Middlewares/ST/STM32_USB_Device_Library/Core/Src/usbd_core.c **** 
 369:Middlewares/ST/STM32_USB_Device_Library/Core/Src/usbd_core.c ****     if ( pdev->ep0_state == USBD_EP0_DATA_IN)
 864              		.loc 1 369 0
 865 0024 FA68     		ldr	r2, [r7, #12]
 866 0026 9B23     		movs	r3, #155
 867 0028 9B00     		lsls	r3, r3, #2
 868 002a D358     		ldr	r3, [r2, r3]
 869 002c 022B     		cmp	r3, #2
 870 002e 64D1     		bne	.L47
 370:Middlewares/ST/STM32_USB_Device_Library/Core/Src/usbd_core.c ****     {
 371:Middlewares/ST/STM32_USB_Device_Library/Core/Src/usbd_core.c ****       if(pep->rem_length > pep->maxpacket)
 871              		.loc 1 371 0
 872 0030 7B69     		ldr	r3, [r7, #20]
 873 0032 DA68     		ldr	r2, [r3, #12]
 874 0034 7B69     		ldr	r3, [r7, #20]
 875 0036 1B69     		ldr	r3, [r3, #16]
 876 0038 9A42     		cmp	r2, r3
 877 003a 15D9     		bls	.L48
 372:Middlewares/ST/STM32_USB_Device_Library/Core/Src/usbd_core.c ****       {
 373:Middlewares/ST/STM32_USB_Device_Library/Core/Src/usbd_core.c ****         pep->rem_length -= pep->maxpacket;
 878              		.loc 1 373 0
 879 003c 7B69     		ldr	r3, [r7, #20]
 880 003e DA68     		ldr	r2, [r3, #12]
 881 0040 7B69     		ldr	r3, [r7, #20]
 882 0042 1B69     		ldr	r3, [r3, #16]
 883 0044 D21A     		subs	r2, r2, r3
 884 0046 7B69     		ldr	r3, [r7, #20]
 885 0048 DA60     		str	r2, [r3, #12]
 374:Middlewares/ST/STM32_USB_Device_Library/Core/Src/usbd_core.c **** 
 375:Middlewares/ST/STM32_USB_Device_Library/Core/Src/usbd_core.c ****         USBD_CtlContinueSendData (pdev, pdata, (uint16_t)pep->rem_length);
 886              		.loc 1 375 0
 887 004a 7B69     		ldr	r3, [r7, #20]
 888 004c DB68     		ldr	r3, [r3, #12]
 889 004e 9AB2     		uxth	r2, r3
 890 0050 7968     		ldr	r1, [r7, #4]
 891 0052 FB68     		ldr	r3, [r7, #12]
 892 0054 1800     		movs	r0, r3
 893 0056 FFF7FEFF 		bl	USBD_CtlContinueSendData
 376:Middlewares/ST/STM32_USB_Device_Library/Core/Src/usbd_core.c **** 
ARM GAS  /tmp/ccKio8ov.s 			page 23


 377:Middlewares/ST/STM32_USB_Device_Library/Core/Src/usbd_core.c ****         /* Prepare endpoint for premature end of transfer */
 378:Middlewares/ST/STM32_USB_Device_Library/Core/Src/usbd_core.c ****         USBD_LL_PrepareReceive (pdev, 0U, NULL, 0U);
 894              		.loc 1 378 0
 895 005a F868     		ldr	r0, [r7, #12]
 896 005c 0023     		movs	r3, #0
 897 005e 0022     		movs	r2, #0
 898 0060 0021     		movs	r1, #0
 899 0062 FFF7FEFF 		bl	USBD_LL_PrepareReceive
 900 0066 59E0     		b	.L52
 901              	.L48:
 379:Middlewares/ST/STM32_USB_Device_Library/Core/Src/usbd_core.c ****       }
 380:Middlewares/ST/STM32_USB_Device_Library/Core/Src/usbd_core.c ****       else
 381:Middlewares/ST/STM32_USB_Device_Library/Core/Src/usbd_core.c ****       { /* last packet is MPS multiple, so send ZLP packet */
 382:Middlewares/ST/STM32_USB_Device_Library/Core/Src/usbd_core.c ****         if((pep->total_length % pep->maxpacket == 0U) &&
 902              		.loc 1 382 0
 903 0068 7B69     		ldr	r3, [r7, #20]
 904 006a 9A68     		ldr	r2, [r3, #8]
 905 006c 7B69     		ldr	r3, [r7, #20]
 906 006e 1B69     		ldr	r3, [r3, #16]
 907 0070 1900     		movs	r1, r3
 908 0072 1000     		movs	r0, r2
 909 0074 FFF7FEFF 		bl	__aeabi_uidivmod
 910              	.LVL6:
 911 0078 0B1E     		subs	r3, r1, #0
 912 007a 1FD1     		bne	.L50
 383:Middlewares/ST/STM32_USB_Device_Library/Core/Src/usbd_core.c ****            (pep->total_length >= pep->maxpacket) &&
 913              		.loc 1 383 0 discriminator 1
 914 007c 7B69     		ldr	r3, [r7, #20]
 915 007e 9A68     		ldr	r2, [r3, #8]
 916 0080 7B69     		ldr	r3, [r7, #20]
 917 0082 1B69     		ldr	r3, [r3, #16]
 382:Middlewares/ST/STM32_USB_Device_Library/Core/Src/usbd_core.c ****            (pep->total_length >= pep->maxpacket) &&
 918              		.loc 1 382 0 discriminator 1
 919 0084 9A42     		cmp	r2, r3
 920 0086 19D3     		bcc	.L50
 384:Middlewares/ST/STM32_USB_Device_Library/Core/Src/usbd_core.c ****            (pep->total_length < pdev->ep0_data_len))
 921              		.loc 1 384 0
 922 0088 7B69     		ldr	r3, [r7, #20]
 923 008a 9A68     		ldr	r2, [r3, #8]
 924 008c F968     		ldr	r1, [r7, #12]
 925 008e 9C23     		movs	r3, #156
 926 0090 9B00     		lsls	r3, r3, #2
 927 0092 CB58     		ldr	r3, [r1, r3]
 383:Middlewares/ST/STM32_USB_Device_Library/Core/Src/usbd_core.c ****            (pep->total_length >= pep->maxpacket) &&
 928              		.loc 1 383 0
 929 0094 9A42     		cmp	r2, r3
 930 0096 11D2     		bcs	.L50
 385:Middlewares/ST/STM32_USB_Device_Library/Core/Src/usbd_core.c ****         {
 386:Middlewares/ST/STM32_USB_Device_Library/Core/Src/usbd_core.c ****           USBD_CtlContinueSendData(pdev, NULL, 0U);
 931              		.loc 1 386 0
 932 0098 FB68     		ldr	r3, [r7, #12]
 933 009a 0022     		movs	r2, #0
 934 009c 0021     		movs	r1, #0
 935 009e 1800     		movs	r0, r3
 936 00a0 FFF7FEFF 		bl	USBD_CtlContinueSendData
 387:Middlewares/ST/STM32_USB_Device_Library/Core/Src/usbd_core.c ****           pdev->ep0_data_len = 0U;
 937              		.loc 1 387 0
ARM GAS  /tmp/ccKio8ov.s 			page 24


 938 00a4 FA68     		ldr	r2, [r7, #12]
 939 00a6 9C23     		movs	r3, #156
 940 00a8 9B00     		lsls	r3, r3, #2
 941 00aa 0021     		movs	r1, #0
 942 00ac D150     		str	r1, [r2, r3]
 388:Middlewares/ST/STM32_USB_Device_Library/Core/Src/usbd_core.c **** 
 389:Middlewares/ST/STM32_USB_Device_Library/Core/Src/usbd_core.c ****           /* Prepare endpoint for premature end of transfer */
 390:Middlewares/ST/STM32_USB_Device_Library/Core/Src/usbd_core.c ****           USBD_LL_PrepareReceive (pdev, 0U, NULL, 0U);
 943              		.loc 1 390 0
 944 00ae F868     		ldr	r0, [r7, #12]
 945 00b0 0023     		movs	r3, #0
 946 00b2 0022     		movs	r2, #0
 947 00b4 0021     		movs	r1, #0
 948 00b6 FFF7FEFF 		bl	USBD_LL_PrepareReceive
 949 00ba 2FE0     		b	.L52
 950              	.L50:
 391:Middlewares/ST/STM32_USB_Device_Library/Core/Src/usbd_core.c ****         }
 392:Middlewares/ST/STM32_USB_Device_Library/Core/Src/usbd_core.c ****         else
 393:Middlewares/ST/STM32_USB_Device_Library/Core/Src/usbd_core.c ****         {
 394:Middlewares/ST/STM32_USB_Device_Library/Core/Src/usbd_core.c ****           if((pdev->pClass->EP0_TxSent != NULL)&&
 951              		.loc 1 394 0
 952 00bc FA68     		ldr	r2, [r7, #12]
 953 00be A323     		movs	r3, #163
 954 00c0 9B00     		lsls	r3, r3, #2
 955 00c2 D358     		ldr	r3, [r2, r3]
 956 00c4 DB68     		ldr	r3, [r3, #12]
 957 00c6 002B     		cmp	r3, #0
 958 00c8 0DD0     		beq	.L51
 395:Middlewares/ST/STM32_USB_Device_Library/Core/Src/usbd_core.c ****              (pdev->dev_state == USBD_STATE_CONFIGURED))
 959              		.loc 1 395 0 discriminator 1
 960 00ca FA68     		ldr	r2, [r7, #12]
 961 00cc 9D23     		movs	r3, #157
 962 00ce 9B00     		lsls	r3, r3, #2
 963 00d0 D35C     		ldrb	r3, [r2, r3]
 394:Middlewares/ST/STM32_USB_Device_Library/Core/Src/usbd_core.c ****              (pdev->dev_state == USBD_STATE_CONFIGURED))
 964              		.loc 1 394 0 discriminator 1
 965 00d2 032B     		cmp	r3, #3
 966 00d4 07D1     		bne	.L51
 396:Middlewares/ST/STM32_USB_Device_Library/Core/Src/usbd_core.c ****           {
 397:Middlewares/ST/STM32_USB_Device_Library/Core/Src/usbd_core.c ****             pdev->pClass->EP0_TxSent(pdev);
 967              		.loc 1 397 0
 968 00d6 FA68     		ldr	r2, [r7, #12]
 969 00d8 A323     		movs	r3, #163
 970 00da 9B00     		lsls	r3, r3, #2
 971 00dc D358     		ldr	r3, [r2, r3]
 972 00de DB68     		ldr	r3, [r3, #12]
 973 00e0 FA68     		ldr	r2, [r7, #12]
 974 00e2 1000     		movs	r0, r2
 975 00e4 9847     		blx	r3
 976              	.LVL7:
 977              	.L51:
 398:Middlewares/ST/STM32_USB_Device_Library/Core/Src/usbd_core.c ****           }
 399:Middlewares/ST/STM32_USB_Device_Library/Core/Src/usbd_core.c ****           USBD_LL_StallEP(pdev, 0x80U);
 978              		.loc 1 399 0
 979 00e6 FB68     		ldr	r3, [r7, #12]
 980 00e8 8021     		movs	r1, #128
 981 00ea 1800     		movs	r0, r3
ARM GAS  /tmp/ccKio8ov.s 			page 25


 982 00ec FFF7FEFF 		bl	USBD_LL_StallEP
 400:Middlewares/ST/STM32_USB_Device_Library/Core/Src/usbd_core.c ****           USBD_CtlReceiveStatus(pdev);
 983              		.loc 1 400 0
 984 00f0 FB68     		ldr	r3, [r7, #12]
 985 00f2 1800     		movs	r0, r3
 986 00f4 FFF7FEFF 		bl	USBD_CtlReceiveStatus
 987 00f8 10E0     		b	.L52
 988              	.L47:
 401:Middlewares/ST/STM32_USB_Device_Library/Core/Src/usbd_core.c ****         }
 402:Middlewares/ST/STM32_USB_Device_Library/Core/Src/usbd_core.c ****       }
 403:Middlewares/ST/STM32_USB_Device_Library/Core/Src/usbd_core.c ****     }
 404:Middlewares/ST/STM32_USB_Device_Library/Core/Src/usbd_core.c ****     else
 405:Middlewares/ST/STM32_USB_Device_Library/Core/Src/usbd_core.c ****     {
 406:Middlewares/ST/STM32_USB_Device_Library/Core/Src/usbd_core.c ****       if ((pdev->ep0_state == USBD_EP0_STATUS_IN) ||
 989              		.loc 1 406 0
 990 00fa FA68     		ldr	r2, [r7, #12]
 991 00fc 9B23     		movs	r3, #155
 992 00fe 9B00     		lsls	r3, r3, #2
 993 0100 D358     		ldr	r3, [r2, r3]
 994 0102 042B     		cmp	r3, #4
 995 0104 05D0     		beq	.L53
 407:Middlewares/ST/STM32_USB_Device_Library/Core/Src/usbd_core.c ****           (pdev->ep0_state == USBD_EP0_IDLE))
 996              		.loc 1 407 0 discriminator 1
 997 0106 FA68     		ldr	r2, [r7, #12]
 998 0108 9B23     		movs	r3, #155
 999 010a 9B00     		lsls	r3, r3, #2
 1000 010c D358     		ldr	r3, [r2, r3]
 406:Middlewares/ST/STM32_USB_Device_Library/Core/Src/usbd_core.c ****           (pdev->ep0_state == USBD_EP0_IDLE))
 1001              		.loc 1 406 0 discriminator 1
 1002 010e 002B     		cmp	r3, #0
 1003 0110 04D1     		bne	.L52
 1004              	.L53:
 408:Middlewares/ST/STM32_USB_Device_Library/Core/Src/usbd_core.c ****       {
 409:Middlewares/ST/STM32_USB_Device_Library/Core/Src/usbd_core.c ****         USBD_LL_StallEP(pdev, 0x80U);
 1005              		.loc 1 409 0
 1006 0112 FB68     		ldr	r3, [r7, #12]
 1007 0114 8021     		movs	r1, #128
 1008 0116 1800     		movs	r0, r3
 1009 0118 FFF7FEFF 		bl	USBD_LL_StallEP
 1010              	.L52:
 410:Middlewares/ST/STM32_USB_Device_Library/Core/Src/usbd_core.c ****       }
 411:Middlewares/ST/STM32_USB_Device_Library/Core/Src/usbd_core.c ****     }
 412:Middlewares/ST/STM32_USB_Device_Library/Core/Src/usbd_core.c **** 
 413:Middlewares/ST/STM32_USB_Device_Library/Core/Src/usbd_core.c ****     if (pdev->dev_test_mode == 1U)
 1011              		.loc 1 413 0
 1012 011c FA68     		ldr	r2, [r7, #12]
 1013 011e 9E23     		movs	r3, #158
 1014 0120 9B00     		lsls	r3, r3, #2
 1015 0122 D35C     		ldrb	r3, [r2, r3]
 1016 0124 012B     		cmp	r3, #1
 1017 0126 24D1     		bne	.L55
 414:Middlewares/ST/STM32_USB_Device_Library/Core/Src/usbd_core.c ****     {
 415:Middlewares/ST/STM32_USB_Device_Library/Core/Src/usbd_core.c ****       USBD_RunTestMode(pdev);
 1018              		.loc 1 415 0
 1019 0128 FB68     		ldr	r3, [r7, #12]
 1020 012a 1800     		movs	r0, r3
 1021 012c FFF7FEFF 		bl	USBD_RunTestMode
ARM GAS  /tmp/ccKio8ov.s 			page 26


 416:Middlewares/ST/STM32_USB_Device_Library/Core/Src/usbd_core.c ****       pdev->dev_test_mode = 0U;
 1022              		.loc 1 416 0
 1023 0130 FA68     		ldr	r2, [r7, #12]
 1024 0132 9E23     		movs	r3, #158
 1025 0134 9B00     		lsls	r3, r3, #2
 1026 0136 0021     		movs	r1, #0
 1027 0138 D154     		strb	r1, [r2, r3]
 1028 013a 1AE0     		b	.L55
 1029              	.L46:
 417:Middlewares/ST/STM32_USB_Device_Library/Core/Src/usbd_core.c ****     }
 418:Middlewares/ST/STM32_USB_Device_Library/Core/Src/usbd_core.c ****   }
 419:Middlewares/ST/STM32_USB_Device_Library/Core/Src/usbd_core.c ****   else if((pdev->pClass->DataIn != NULL) &&
 1030              		.loc 1 419 0
 1031 013c FA68     		ldr	r2, [r7, #12]
 1032 013e A323     		movs	r3, #163
 1033 0140 9B00     		lsls	r3, r3, #2
 1034 0142 D358     		ldr	r3, [r2, r3]
 1035 0144 5B69     		ldr	r3, [r3, #20]
 1036 0146 002B     		cmp	r3, #0
 1037 0148 11D0     		beq	.L56
 420:Middlewares/ST/STM32_USB_Device_Library/Core/Src/usbd_core.c ****           (pdev->dev_state == USBD_STATE_CONFIGURED))
 1038              		.loc 1 420 0 discriminator 1
 1039 014a FA68     		ldr	r2, [r7, #12]
 1040 014c 9D23     		movs	r3, #157
 1041 014e 9B00     		lsls	r3, r3, #2
 1042 0150 D35C     		ldrb	r3, [r2, r3]
 419:Middlewares/ST/STM32_USB_Device_Library/Core/Src/usbd_core.c ****           (pdev->dev_state == USBD_STATE_CONFIGURED))
 1043              		.loc 1 419 0 discriminator 1
 1044 0152 032B     		cmp	r3, #3
 1045 0154 0BD1     		bne	.L56
 421:Middlewares/ST/STM32_USB_Device_Library/Core/Src/usbd_core.c ****   {
 422:Middlewares/ST/STM32_USB_Device_Library/Core/Src/usbd_core.c ****     pdev->pClass->DataIn(pdev, epnum);
 1046              		.loc 1 422 0
 1047 0156 FA68     		ldr	r2, [r7, #12]
 1048 0158 A323     		movs	r3, #163
 1049 015a 9B00     		lsls	r3, r3, #2
 1050 015c D358     		ldr	r3, [r2, r3]
 1051 015e 5B69     		ldr	r3, [r3, #20]
 1052 0160 0B22     		movs	r2, #11
 1053 0162 BA18     		adds	r2, r7, r2
 1054 0164 1178     		ldrb	r1, [r2]
 1055 0166 FA68     		ldr	r2, [r7, #12]
 1056 0168 1000     		movs	r0, r2
 1057 016a 9847     		blx	r3
 1058              	.LVL8:
 1059 016c 01E0     		b	.L55
 1060              	.L56:
 423:Middlewares/ST/STM32_USB_Device_Library/Core/Src/usbd_core.c ****   }
 424:Middlewares/ST/STM32_USB_Device_Library/Core/Src/usbd_core.c ****   else
 425:Middlewares/ST/STM32_USB_Device_Library/Core/Src/usbd_core.c ****   {
 426:Middlewares/ST/STM32_USB_Device_Library/Core/Src/usbd_core.c ****     /* should never be in this condition */
 427:Middlewares/ST/STM32_USB_Device_Library/Core/Src/usbd_core.c ****     return USBD_FAIL;
 1061              		.loc 1 427 0
 1062 016e 0223     		movs	r3, #2
 1063 0170 00E0     		b	.L57
 1064              	.L55:
 428:Middlewares/ST/STM32_USB_Device_Library/Core/Src/usbd_core.c ****   }
ARM GAS  /tmp/ccKio8ov.s 			page 27


 429:Middlewares/ST/STM32_USB_Device_Library/Core/Src/usbd_core.c **** 
 430:Middlewares/ST/STM32_USB_Device_Library/Core/Src/usbd_core.c ****   return USBD_OK;
 1065              		.loc 1 430 0
 1066 0172 0023     		movs	r3, #0
 1067              	.L57:
 431:Middlewares/ST/STM32_USB_Device_Library/Core/Src/usbd_core.c **** }
 1068              		.loc 1 431 0
 1069 0174 1800     		movs	r0, r3
 1070 0176 BD46     		mov	sp, r7
 1071 0178 06B0     		add	sp, sp, #24
 1072              		@ sp needed
 1073 017a 80BD     		pop	{r7, pc}
 1074              		.cfi_endproc
 1075              	.LFE47:
 1077              		.section	.text.USBD_LL_Reset,"ax",%progbits
 1078              		.align	1
 1079              		.global	USBD_LL_Reset
 1080              		.syntax unified
 1081              		.code	16
 1082              		.thumb_func
 1083              		.fpu softvfp
 1085              	USBD_LL_Reset:
 1086              	.LFB48:
 432:Middlewares/ST/STM32_USB_Device_Library/Core/Src/usbd_core.c **** 
 433:Middlewares/ST/STM32_USB_Device_Library/Core/Src/usbd_core.c **** /**
 434:Middlewares/ST/STM32_USB_Device_Library/Core/Src/usbd_core.c **** * @brief  USBD_LL_Reset
 435:Middlewares/ST/STM32_USB_Device_Library/Core/Src/usbd_core.c **** *         Handle Reset event
 436:Middlewares/ST/STM32_USB_Device_Library/Core/Src/usbd_core.c **** * @param  pdev: device instance
 437:Middlewares/ST/STM32_USB_Device_Library/Core/Src/usbd_core.c **** * @retval status
 438:Middlewares/ST/STM32_USB_Device_Library/Core/Src/usbd_core.c **** */
 439:Middlewares/ST/STM32_USB_Device_Library/Core/Src/usbd_core.c **** 
 440:Middlewares/ST/STM32_USB_Device_Library/Core/Src/usbd_core.c **** USBD_StatusTypeDef USBD_LL_Reset(USBD_HandleTypeDef  *pdev)
 441:Middlewares/ST/STM32_USB_Device_Library/Core/Src/usbd_core.c **** {
 1087              		.loc 1 441 0
 1088              		.cfi_startproc
 1089              		@ args = 0, pretend = 0, frame = 8
 1090              		@ frame_needed = 1, uses_anonymous_args = 0
 1091 0000 80B5     		push	{r7, lr}
 1092              	.LCFI33:
 1093              		.cfi_def_cfa_offset 8
 1094              		.cfi_offset 7, -8
 1095              		.cfi_offset 14, -4
 1096 0002 82B0     		sub	sp, sp, #8
 1097              	.LCFI34:
 1098              		.cfi_def_cfa_offset 16
 1099 0004 00AF     		add	r7, sp, #0
 1100              	.LCFI35:
 1101              		.cfi_def_cfa_register 7
 1102 0006 7860     		str	r0, [r7, #4]
 442:Middlewares/ST/STM32_USB_Device_Library/Core/Src/usbd_core.c ****   /* Open EP0 OUT */
 443:Middlewares/ST/STM32_USB_Device_Library/Core/Src/usbd_core.c ****   USBD_LL_OpenEP(pdev, 0x00U, USBD_EP_TYPE_CTRL, USB_MAX_EP0_SIZE);
 1103              		.loc 1 443 0
 1104 0008 7868     		ldr	r0, [r7, #4]
 1105 000a 4023     		movs	r3, #64
 1106 000c 0022     		movs	r2, #0
 1107 000e 0021     		movs	r1, #0
 1108 0010 FFF7FEFF 		bl	USBD_LL_OpenEP
ARM GAS  /tmp/ccKio8ov.s 			page 28


 444:Middlewares/ST/STM32_USB_Device_Library/Core/Src/usbd_core.c ****   pdev->ep_out[0x00U & 0xFU].is_used = 1U;
 1109              		.loc 1 444 0
 1110 0014 7A68     		ldr	r2, [r7, #4]
 1111 0016 A223     		movs	r3, #162
 1112 0018 5B00     		lsls	r3, r3, #1
 1113 001a 0121     		movs	r1, #1
 1114 001c D150     		str	r1, [r2, r3]
 445:Middlewares/ST/STM32_USB_Device_Library/Core/Src/usbd_core.c **** 
 446:Middlewares/ST/STM32_USB_Device_Library/Core/Src/usbd_core.c ****   pdev->ep_out[0].maxpacket = USB_MAX_EP0_SIZE;
 1115              		.loc 1 446 0
 1116 001e 7A68     		ldr	r2, [r7, #4]
 1117 0020 A823     		movs	r3, #168
 1118 0022 5B00     		lsls	r3, r3, #1
 1119 0024 4021     		movs	r1, #64
 1120 0026 D150     		str	r1, [r2, r3]
 447:Middlewares/ST/STM32_USB_Device_Library/Core/Src/usbd_core.c **** 
 448:Middlewares/ST/STM32_USB_Device_Library/Core/Src/usbd_core.c ****   /* Open EP0 IN */
 449:Middlewares/ST/STM32_USB_Device_Library/Core/Src/usbd_core.c ****   USBD_LL_OpenEP(pdev, 0x80U, USBD_EP_TYPE_CTRL, USB_MAX_EP0_SIZE);
 1121              		.loc 1 449 0
 1122 0028 7868     		ldr	r0, [r7, #4]
 1123 002a 4023     		movs	r3, #64
 1124 002c 0022     		movs	r2, #0
 1125 002e 8021     		movs	r1, #128
 1126 0030 FFF7FEFF 		bl	USBD_LL_OpenEP
 450:Middlewares/ST/STM32_USB_Device_Library/Core/Src/usbd_core.c ****   pdev->ep_in[0x80U & 0xFU].is_used = 1U;
 1127              		.loc 1 450 0
 1128 0034 7B68     		ldr	r3, [r7, #4]
 1129 0036 0122     		movs	r2, #1
 1130 0038 9A61     		str	r2, [r3, #24]
 451:Middlewares/ST/STM32_USB_Device_Library/Core/Src/usbd_core.c **** 
 452:Middlewares/ST/STM32_USB_Device_Library/Core/Src/usbd_core.c ****   pdev->ep_in[0].maxpacket = USB_MAX_EP0_SIZE;
 1131              		.loc 1 452 0
 1132 003a 7B68     		ldr	r3, [r7, #4]
 1133 003c 4022     		movs	r2, #64
 1134 003e 5A62     		str	r2, [r3, #36]
 453:Middlewares/ST/STM32_USB_Device_Library/Core/Src/usbd_core.c ****   /* Upon Reset call user call back */
 454:Middlewares/ST/STM32_USB_Device_Library/Core/Src/usbd_core.c ****   pdev->dev_state = USBD_STATE_DEFAULT;
 1135              		.loc 1 454 0
 1136 0040 7A68     		ldr	r2, [r7, #4]
 1137 0042 9D23     		movs	r3, #157
 1138 0044 9B00     		lsls	r3, r3, #2
 1139 0046 0121     		movs	r1, #1
 1140 0048 D154     		strb	r1, [r2, r3]
 455:Middlewares/ST/STM32_USB_Device_Library/Core/Src/usbd_core.c ****   pdev->ep0_state = USBD_EP0_IDLE;
 1141              		.loc 1 455 0
 1142 004a 7A68     		ldr	r2, [r7, #4]
 1143 004c 9B23     		movs	r3, #155
 1144 004e 9B00     		lsls	r3, r3, #2
 1145 0050 0021     		movs	r1, #0
 1146 0052 D150     		str	r1, [r2, r3]
 456:Middlewares/ST/STM32_USB_Device_Library/Core/Src/usbd_core.c ****   pdev->dev_config= 0U;
 1147              		.loc 1 456 0
 1148 0054 7B68     		ldr	r3, [r7, #4]
 1149 0056 0022     		movs	r2, #0
 1150 0058 5A60     		str	r2, [r3, #4]
 457:Middlewares/ST/STM32_USB_Device_Library/Core/Src/usbd_core.c ****   pdev->dev_remote_wakeup = 0U;
 1151              		.loc 1 457 0
ARM GAS  /tmp/ccKio8ov.s 			page 29


 1152 005a 7A68     		ldr	r2, [r7, #4]
 1153 005c 9F23     		movs	r3, #159
 1154 005e 9B00     		lsls	r3, r3, #2
 1155 0060 0021     		movs	r1, #0
 1156 0062 D150     		str	r1, [r2, r3]
 458:Middlewares/ST/STM32_USB_Device_Library/Core/Src/usbd_core.c **** 
 459:Middlewares/ST/STM32_USB_Device_Library/Core/Src/usbd_core.c ****   if (pdev->pClassData)
 1157              		.loc 1 459 0
 1158 0064 7A68     		ldr	r2, [r7, #4]
 1159 0066 A423     		movs	r3, #164
 1160 0068 9B00     		lsls	r3, r3, #2
 1161 006a D358     		ldr	r3, [r2, r3]
 1162 006c 002B     		cmp	r3, #0
 1163 006e 0AD0     		beq	.L59
 460:Middlewares/ST/STM32_USB_Device_Library/Core/Src/usbd_core.c ****   {
 461:Middlewares/ST/STM32_USB_Device_Library/Core/Src/usbd_core.c ****     pdev->pClass->DeInit(pdev, (uint8_t)pdev->dev_config);
 1164              		.loc 1 461 0
 1165 0070 7A68     		ldr	r2, [r7, #4]
 1166 0072 A323     		movs	r3, #163
 1167 0074 9B00     		lsls	r3, r3, #2
 1168 0076 D358     		ldr	r3, [r2, r3]
 1169 0078 5A68     		ldr	r2, [r3, #4]
 1170 007a 7B68     		ldr	r3, [r7, #4]
 1171 007c 5B68     		ldr	r3, [r3, #4]
 1172 007e D9B2     		uxtb	r1, r3
 1173 0080 7B68     		ldr	r3, [r7, #4]
 1174 0082 1800     		movs	r0, r3
 1175 0084 9047     		blx	r2
 1176              	.LVL9:
 1177              	.L59:
 462:Middlewares/ST/STM32_USB_Device_Library/Core/Src/usbd_core.c ****   }
 463:Middlewares/ST/STM32_USB_Device_Library/Core/Src/usbd_core.c **** 
 464:Middlewares/ST/STM32_USB_Device_Library/Core/Src/usbd_core.c ****   return USBD_OK;
 1178              		.loc 1 464 0
 1179 0086 0023     		movs	r3, #0
 465:Middlewares/ST/STM32_USB_Device_Library/Core/Src/usbd_core.c **** }
 1180              		.loc 1 465 0
 1181 0088 1800     		movs	r0, r3
 1182 008a BD46     		mov	sp, r7
 1183 008c 02B0     		add	sp, sp, #8
 1184              		@ sp needed
 1185 008e 80BD     		pop	{r7, pc}
 1186              		.cfi_endproc
 1187              	.LFE48:
 1189              		.section	.text.USBD_LL_SetSpeed,"ax",%progbits
 1190              		.align	1
 1191              		.global	USBD_LL_SetSpeed
 1192              		.syntax unified
 1193              		.code	16
 1194              		.thumb_func
 1195              		.fpu softvfp
 1197              	USBD_LL_SetSpeed:
 1198              	.LFB49:
 466:Middlewares/ST/STM32_USB_Device_Library/Core/Src/usbd_core.c **** 
 467:Middlewares/ST/STM32_USB_Device_Library/Core/Src/usbd_core.c **** /**
 468:Middlewares/ST/STM32_USB_Device_Library/Core/Src/usbd_core.c **** * @brief  USBD_LL_Reset
 469:Middlewares/ST/STM32_USB_Device_Library/Core/Src/usbd_core.c **** *         Handle Reset event
ARM GAS  /tmp/ccKio8ov.s 			page 30


 470:Middlewares/ST/STM32_USB_Device_Library/Core/Src/usbd_core.c **** * @param  pdev: device instance
 471:Middlewares/ST/STM32_USB_Device_Library/Core/Src/usbd_core.c **** * @retval status
 472:Middlewares/ST/STM32_USB_Device_Library/Core/Src/usbd_core.c **** */
 473:Middlewares/ST/STM32_USB_Device_Library/Core/Src/usbd_core.c **** USBD_StatusTypeDef USBD_LL_SetSpeed(USBD_HandleTypeDef  *pdev, USBD_SpeedTypeDef speed)
 474:Middlewares/ST/STM32_USB_Device_Library/Core/Src/usbd_core.c **** {
 1199              		.loc 1 474 0
 1200              		.cfi_startproc
 1201              		@ args = 0, pretend = 0, frame = 8
 1202              		@ frame_needed = 1, uses_anonymous_args = 0
 1203 0000 80B5     		push	{r7, lr}
 1204              	.LCFI36:
 1205              		.cfi_def_cfa_offset 8
 1206              		.cfi_offset 7, -8
 1207              		.cfi_offset 14, -4
 1208 0002 82B0     		sub	sp, sp, #8
 1209              	.LCFI37:
 1210              		.cfi_def_cfa_offset 16
 1211 0004 00AF     		add	r7, sp, #0
 1212              	.LCFI38:
 1213              		.cfi_def_cfa_register 7
 1214 0006 7860     		str	r0, [r7, #4]
 1215 0008 0A00     		movs	r2, r1
 1216 000a FB1C     		adds	r3, r7, #3
 1217 000c 1A70     		strb	r2, [r3]
 475:Middlewares/ST/STM32_USB_Device_Library/Core/Src/usbd_core.c ****   pdev->dev_speed = speed;
 1218              		.loc 1 475 0
 1219 000e 7B68     		ldr	r3, [r7, #4]
 1220 0010 FA1C     		adds	r2, r7, #3
 1221 0012 1278     		ldrb	r2, [r2]
 1222 0014 1A74     		strb	r2, [r3, #16]
 476:Middlewares/ST/STM32_USB_Device_Library/Core/Src/usbd_core.c ****   return USBD_OK;
 1223              		.loc 1 476 0
 1224 0016 0023     		movs	r3, #0
 477:Middlewares/ST/STM32_USB_Device_Library/Core/Src/usbd_core.c **** }
 1225              		.loc 1 477 0
 1226 0018 1800     		movs	r0, r3
 1227 001a BD46     		mov	sp, r7
 1228 001c 02B0     		add	sp, sp, #8
 1229              		@ sp needed
 1230 001e 80BD     		pop	{r7, pc}
 1231              		.cfi_endproc
 1232              	.LFE49:
 1234              		.section	.text.USBD_LL_Suspend,"ax",%progbits
 1235              		.align	1
 1236              		.global	USBD_LL_Suspend
 1237              		.syntax unified
 1238              		.code	16
 1239              		.thumb_func
 1240              		.fpu softvfp
 1242              	USBD_LL_Suspend:
 1243              	.LFB50:
 478:Middlewares/ST/STM32_USB_Device_Library/Core/Src/usbd_core.c **** 
 479:Middlewares/ST/STM32_USB_Device_Library/Core/Src/usbd_core.c **** /**
 480:Middlewares/ST/STM32_USB_Device_Library/Core/Src/usbd_core.c **** * @brief  USBD_Suspend
 481:Middlewares/ST/STM32_USB_Device_Library/Core/Src/usbd_core.c **** *         Handle Suspend event
 482:Middlewares/ST/STM32_USB_Device_Library/Core/Src/usbd_core.c **** * @param  pdev: device instance
 483:Middlewares/ST/STM32_USB_Device_Library/Core/Src/usbd_core.c **** * @retval status
ARM GAS  /tmp/ccKio8ov.s 			page 31


 484:Middlewares/ST/STM32_USB_Device_Library/Core/Src/usbd_core.c **** */
 485:Middlewares/ST/STM32_USB_Device_Library/Core/Src/usbd_core.c **** 
 486:Middlewares/ST/STM32_USB_Device_Library/Core/Src/usbd_core.c **** USBD_StatusTypeDef USBD_LL_Suspend(USBD_HandleTypeDef  *pdev)
 487:Middlewares/ST/STM32_USB_Device_Library/Core/Src/usbd_core.c **** {
 1244              		.loc 1 487 0
 1245              		.cfi_startproc
 1246              		@ args = 0, pretend = 0, frame = 8
 1247              		@ frame_needed = 1, uses_anonymous_args = 0
 1248 0000 80B5     		push	{r7, lr}
 1249              	.LCFI39:
 1250              		.cfi_def_cfa_offset 8
 1251              		.cfi_offset 7, -8
 1252              		.cfi_offset 14, -4
 1253 0002 82B0     		sub	sp, sp, #8
 1254              	.LCFI40:
 1255              		.cfi_def_cfa_offset 16
 1256 0004 00AF     		add	r7, sp, #0
 1257              	.LCFI41:
 1258              		.cfi_def_cfa_register 7
 1259 0006 7860     		str	r0, [r7, #4]
 488:Middlewares/ST/STM32_USB_Device_Library/Core/Src/usbd_core.c ****   pdev->dev_old_state =  pdev->dev_state;
 1260              		.loc 1 488 0
 1261 0008 7A68     		ldr	r2, [r7, #4]
 1262 000a 9D23     		movs	r3, #157
 1263 000c 9B00     		lsls	r3, r3, #2
 1264 000e D15C     		ldrb	r1, [r2, r3]
 1265 0010 7B68     		ldr	r3, [r7, #4]
 1266 0012 064A     		ldr	r2, .L65
 1267 0014 9954     		strb	r1, [r3, r2]
 489:Middlewares/ST/STM32_USB_Device_Library/Core/Src/usbd_core.c ****   pdev->dev_state  = USBD_STATE_SUSPENDED;
 1268              		.loc 1 489 0
 1269 0016 7A68     		ldr	r2, [r7, #4]
 1270 0018 9D23     		movs	r3, #157
 1271 001a 9B00     		lsls	r3, r3, #2
 1272 001c 0421     		movs	r1, #4
 1273 001e D154     		strb	r1, [r2, r3]
 490:Middlewares/ST/STM32_USB_Device_Library/Core/Src/usbd_core.c ****   return USBD_OK;
 1274              		.loc 1 490 0
 1275 0020 0023     		movs	r3, #0
 491:Middlewares/ST/STM32_USB_Device_Library/Core/Src/usbd_core.c **** }
 1276              		.loc 1 491 0
 1277 0022 1800     		movs	r0, r3
 1278 0024 BD46     		mov	sp, r7
 1279 0026 02B0     		add	sp, sp, #8
 1280              		@ sp needed
 1281 0028 80BD     		pop	{r7, pc}
 1282              	.L66:
 1283 002a C046     		.align	2
 1284              	.L65:
 1285 002c 75020000 		.word	629
 1286              		.cfi_endproc
 1287              	.LFE50:
 1289              		.section	.text.USBD_LL_Resume,"ax",%progbits
 1290              		.align	1
 1291              		.global	USBD_LL_Resume
 1292              		.syntax unified
 1293              		.code	16
ARM GAS  /tmp/ccKio8ov.s 			page 32


 1294              		.thumb_func
 1295              		.fpu softvfp
 1297              	USBD_LL_Resume:
 1298              	.LFB51:
 492:Middlewares/ST/STM32_USB_Device_Library/Core/Src/usbd_core.c **** 
 493:Middlewares/ST/STM32_USB_Device_Library/Core/Src/usbd_core.c **** /**
 494:Middlewares/ST/STM32_USB_Device_Library/Core/Src/usbd_core.c **** * @brief  USBD_Resume
 495:Middlewares/ST/STM32_USB_Device_Library/Core/Src/usbd_core.c **** *         Handle Resume event
 496:Middlewares/ST/STM32_USB_Device_Library/Core/Src/usbd_core.c **** * @param  pdev: device instance
 497:Middlewares/ST/STM32_USB_Device_Library/Core/Src/usbd_core.c **** * @retval status
 498:Middlewares/ST/STM32_USB_Device_Library/Core/Src/usbd_core.c **** */
 499:Middlewares/ST/STM32_USB_Device_Library/Core/Src/usbd_core.c **** 
 500:Middlewares/ST/STM32_USB_Device_Library/Core/Src/usbd_core.c **** USBD_StatusTypeDef USBD_LL_Resume(USBD_HandleTypeDef  *pdev)
 501:Middlewares/ST/STM32_USB_Device_Library/Core/Src/usbd_core.c **** {
 1299              		.loc 1 501 0
 1300              		.cfi_startproc
 1301              		@ args = 0, pretend = 0, frame = 8
 1302              		@ frame_needed = 1, uses_anonymous_args = 0
 1303 0000 80B5     		push	{r7, lr}
 1304              	.LCFI42:
 1305              		.cfi_def_cfa_offset 8
 1306              		.cfi_offset 7, -8
 1307              		.cfi_offset 14, -4
 1308 0002 82B0     		sub	sp, sp, #8
 1309              	.LCFI43:
 1310              		.cfi_def_cfa_offset 16
 1311 0004 00AF     		add	r7, sp, #0
 1312              	.LCFI44:
 1313              		.cfi_def_cfa_register 7
 1314 0006 7860     		str	r0, [r7, #4]
 502:Middlewares/ST/STM32_USB_Device_Library/Core/Src/usbd_core.c ****   pdev->dev_state = pdev->dev_old_state;
 1315              		.loc 1 502 0
 1316 0008 7B68     		ldr	r3, [r7, #4]
 1317 000a 054A     		ldr	r2, .L69
 1318 000c 995C     		ldrb	r1, [r3, r2]
 1319 000e 7A68     		ldr	r2, [r7, #4]
 1320 0010 9D23     		movs	r3, #157
 1321 0012 9B00     		lsls	r3, r3, #2
 1322 0014 D154     		strb	r1, [r2, r3]
 503:Middlewares/ST/STM32_USB_Device_Library/Core/Src/usbd_core.c ****   return USBD_OK;
 1323              		.loc 1 503 0
 1324 0016 0023     		movs	r3, #0
 504:Middlewares/ST/STM32_USB_Device_Library/Core/Src/usbd_core.c **** }
 1325              		.loc 1 504 0
 1326 0018 1800     		movs	r0, r3
 1327 001a BD46     		mov	sp, r7
 1328 001c 02B0     		add	sp, sp, #8
 1329              		@ sp needed
 1330 001e 80BD     		pop	{r7, pc}
 1331              	.L70:
 1332              		.align	2
 1333              	.L69:
 1334 0020 75020000 		.word	629
 1335              		.cfi_endproc
 1336              	.LFE51:
 1338              		.section	.text.USBD_LL_SOF,"ax",%progbits
 1339              		.align	1
ARM GAS  /tmp/ccKio8ov.s 			page 33


 1340              		.global	USBD_LL_SOF
 1341              		.syntax unified
 1342              		.code	16
 1343              		.thumb_func
 1344              		.fpu softvfp
 1346              	USBD_LL_SOF:
 1347              	.LFB52:
 505:Middlewares/ST/STM32_USB_Device_Library/Core/Src/usbd_core.c **** 
 506:Middlewares/ST/STM32_USB_Device_Library/Core/Src/usbd_core.c **** /**
 507:Middlewares/ST/STM32_USB_Device_Library/Core/Src/usbd_core.c **** * @brief  USBD_SOF
 508:Middlewares/ST/STM32_USB_Device_Library/Core/Src/usbd_core.c **** *         Handle SOF event
 509:Middlewares/ST/STM32_USB_Device_Library/Core/Src/usbd_core.c **** * @param  pdev: device instance
 510:Middlewares/ST/STM32_USB_Device_Library/Core/Src/usbd_core.c **** * @retval status
 511:Middlewares/ST/STM32_USB_Device_Library/Core/Src/usbd_core.c **** */
 512:Middlewares/ST/STM32_USB_Device_Library/Core/Src/usbd_core.c **** 
 513:Middlewares/ST/STM32_USB_Device_Library/Core/Src/usbd_core.c **** USBD_StatusTypeDef USBD_LL_SOF(USBD_HandleTypeDef  *pdev)
 514:Middlewares/ST/STM32_USB_Device_Library/Core/Src/usbd_core.c **** {
 1348              		.loc 1 514 0
 1349              		.cfi_startproc
 1350              		@ args = 0, pretend = 0, frame = 8
 1351              		@ frame_needed = 1, uses_anonymous_args = 0
 1352 0000 80B5     		push	{r7, lr}
 1353              	.LCFI45:
 1354              		.cfi_def_cfa_offset 8
 1355              		.cfi_offset 7, -8
 1356              		.cfi_offset 14, -4
 1357 0002 82B0     		sub	sp, sp, #8
 1358              	.LCFI46:
 1359              		.cfi_def_cfa_offset 16
 1360 0004 00AF     		add	r7, sp, #0
 1361              	.LCFI47:
 1362              		.cfi_def_cfa_register 7
 1363 0006 7860     		str	r0, [r7, #4]
 515:Middlewares/ST/STM32_USB_Device_Library/Core/Src/usbd_core.c ****   if(pdev->dev_state == USBD_STATE_CONFIGURED)
 1364              		.loc 1 515 0
 1365 0008 7A68     		ldr	r2, [r7, #4]
 1366 000a 9D23     		movs	r3, #157
 1367 000c 9B00     		lsls	r3, r3, #2
 1368 000e D35C     		ldrb	r3, [r2, r3]
 1369 0010 032B     		cmp	r3, #3
 1370 0012 0ED1     		bne	.L72
 516:Middlewares/ST/STM32_USB_Device_Library/Core/Src/usbd_core.c ****   {
 517:Middlewares/ST/STM32_USB_Device_Library/Core/Src/usbd_core.c ****     if(pdev->pClass->SOF != NULL)
 1371              		.loc 1 517 0
 1372 0014 7A68     		ldr	r2, [r7, #4]
 1373 0016 A323     		movs	r3, #163
 1374 0018 9B00     		lsls	r3, r3, #2
 1375 001a D358     		ldr	r3, [r2, r3]
 1376 001c DB69     		ldr	r3, [r3, #28]
 1377 001e 002B     		cmp	r3, #0
 1378 0020 07D0     		beq	.L72
 518:Middlewares/ST/STM32_USB_Device_Library/Core/Src/usbd_core.c ****     {
 519:Middlewares/ST/STM32_USB_Device_Library/Core/Src/usbd_core.c ****       pdev->pClass->SOF(pdev);
 1379              		.loc 1 519 0
 1380 0022 7A68     		ldr	r2, [r7, #4]
 1381 0024 A323     		movs	r3, #163
 1382 0026 9B00     		lsls	r3, r3, #2
ARM GAS  /tmp/ccKio8ov.s 			page 34


 1383 0028 D358     		ldr	r3, [r2, r3]
 1384 002a DB69     		ldr	r3, [r3, #28]
 1385 002c 7A68     		ldr	r2, [r7, #4]
 1386 002e 1000     		movs	r0, r2
 1387 0030 9847     		blx	r3
 1388              	.LVL10:
 1389              	.L72:
 520:Middlewares/ST/STM32_USB_Device_Library/Core/Src/usbd_core.c ****     }
 521:Middlewares/ST/STM32_USB_Device_Library/Core/Src/usbd_core.c ****   }
 522:Middlewares/ST/STM32_USB_Device_Library/Core/Src/usbd_core.c ****   return USBD_OK;
 1390              		.loc 1 522 0
 1391 0032 0023     		movs	r3, #0
 523:Middlewares/ST/STM32_USB_Device_Library/Core/Src/usbd_core.c **** }
 1392              		.loc 1 523 0
 1393 0034 1800     		movs	r0, r3
 1394 0036 BD46     		mov	sp, r7
 1395 0038 02B0     		add	sp, sp, #8
 1396              		@ sp needed
 1397 003a 80BD     		pop	{r7, pc}
 1398              		.cfi_endproc
 1399              	.LFE52:
 1401              		.section	.text.USBD_LL_IsoINIncomplete,"ax",%progbits
 1402              		.align	1
 1403              		.global	USBD_LL_IsoINIncomplete
 1404              		.syntax unified
 1405              		.code	16
 1406              		.thumb_func
 1407              		.fpu softvfp
 1409              	USBD_LL_IsoINIncomplete:
 1410              	.LFB53:
 524:Middlewares/ST/STM32_USB_Device_Library/Core/Src/usbd_core.c **** 
 525:Middlewares/ST/STM32_USB_Device_Library/Core/Src/usbd_core.c **** /**
 526:Middlewares/ST/STM32_USB_Device_Library/Core/Src/usbd_core.c **** * @brief  USBD_IsoINIncomplete
 527:Middlewares/ST/STM32_USB_Device_Library/Core/Src/usbd_core.c **** *         Handle iso in incomplete event
 528:Middlewares/ST/STM32_USB_Device_Library/Core/Src/usbd_core.c **** * @param  pdev: device instance
 529:Middlewares/ST/STM32_USB_Device_Library/Core/Src/usbd_core.c **** * @retval status
 530:Middlewares/ST/STM32_USB_Device_Library/Core/Src/usbd_core.c **** */
 531:Middlewares/ST/STM32_USB_Device_Library/Core/Src/usbd_core.c **** USBD_StatusTypeDef USBD_LL_IsoINIncomplete(USBD_HandleTypeDef  *pdev, uint8_t epnum)
 532:Middlewares/ST/STM32_USB_Device_Library/Core/Src/usbd_core.c **** {
 1411              		.loc 1 532 0
 1412              		.cfi_startproc
 1413              		@ args = 0, pretend = 0, frame = 8
 1414              		@ frame_needed = 1, uses_anonymous_args = 0
 1415 0000 80B5     		push	{r7, lr}
 1416              	.LCFI48:
 1417              		.cfi_def_cfa_offset 8
 1418              		.cfi_offset 7, -8
 1419              		.cfi_offset 14, -4
 1420 0002 82B0     		sub	sp, sp, #8
 1421              	.LCFI49:
 1422              		.cfi_def_cfa_offset 16
 1423 0004 00AF     		add	r7, sp, #0
 1424              	.LCFI50:
 1425              		.cfi_def_cfa_register 7
 1426 0006 7860     		str	r0, [r7, #4]
 1427 0008 0A00     		movs	r2, r1
 1428 000a FB1C     		adds	r3, r7, #3
ARM GAS  /tmp/ccKio8ov.s 			page 35


 1429 000c 1A70     		strb	r2, [r3]
 533:Middlewares/ST/STM32_USB_Device_Library/Core/Src/usbd_core.c ****   /* Prevent unused arguments compilation warning */
 534:Middlewares/ST/STM32_USB_Device_Library/Core/Src/usbd_core.c ****   UNUSED(pdev);
 535:Middlewares/ST/STM32_USB_Device_Library/Core/Src/usbd_core.c ****   UNUSED(epnum);
 536:Middlewares/ST/STM32_USB_Device_Library/Core/Src/usbd_core.c **** 
 537:Middlewares/ST/STM32_USB_Device_Library/Core/Src/usbd_core.c ****   return USBD_OK;
 1430              		.loc 1 537 0
 1431 000e 0023     		movs	r3, #0
 538:Middlewares/ST/STM32_USB_Device_Library/Core/Src/usbd_core.c **** }
 1432              		.loc 1 538 0
 1433 0010 1800     		movs	r0, r3
 1434 0012 BD46     		mov	sp, r7
 1435 0014 02B0     		add	sp, sp, #8
 1436              		@ sp needed
 1437 0016 80BD     		pop	{r7, pc}
 1438              		.cfi_endproc
 1439              	.LFE53:
 1441              		.section	.text.USBD_LL_IsoOUTIncomplete,"ax",%progbits
 1442              		.align	1
 1443              		.global	USBD_LL_IsoOUTIncomplete
 1444              		.syntax unified
 1445              		.code	16
 1446              		.thumb_func
 1447              		.fpu softvfp
 1449              	USBD_LL_IsoOUTIncomplete:
 1450              	.LFB54:
 539:Middlewares/ST/STM32_USB_Device_Library/Core/Src/usbd_core.c **** 
 540:Middlewares/ST/STM32_USB_Device_Library/Core/Src/usbd_core.c **** /**
 541:Middlewares/ST/STM32_USB_Device_Library/Core/Src/usbd_core.c **** * @brief  USBD_IsoOUTIncomplete
 542:Middlewares/ST/STM32_USB_Device_Library/Core/Src/usbd_core.c **** *         Handle iso out incomplete event
 543:Middlewares/ST/STM32_USB_Device_Library/Core/Src/usbd_core.c **** * @param  pdev: device instance
 544:Middlewares/ST/STM32_USB_Device_Library/Core/Src/usbd_core.c **** * @retval status
 545:Middlewares/ST/STM32_USB_Device_Library/Core/Src/usbd_core.c **** */
 546:Middlewares/ST/STM32_USB_Device_Library/Core/Src/usbd_core.c **** USBD_StatusTypeDef USBD_LL_IsoOUTIncomplete(USBD_HandleTypeDef  *pdev, uint8_t epnum)
 547:Middlewares/ST/STM32_USB_Device_Library/Core/Src/usbd_core.c **** {
 1451              		.loc 1 547 0
 1452              		.cfi_startproc
 1453              		@ args = 0, pretend = 0, frame = 8
 1454              		@ frame_needed = 1, uses_anonymous_args = 0
 1455 0000 80B5     		push	{r7, lr}
 1456              	.LCFI51:
 1457              		.cfi_def_cfa_offset 8
 1458              		.cfi_offset 7, -8
 1459              		.cfi_offset 14, -4
 1460 0002 82B0     		sub	sp, sp, #8
 1461              	.LCFI52:
 1462              		.cfi_def_cfa_offset 16
 1463 0004 00AF     		add	r7, sp, #0
 1464              	.LCFI53:
 1465              		.cfi_def_cfa_register 7
 1466 0006 7860     		str	r0, [r7, #4]
 1467 0008 0A00     		movs	r2, r1
 1468 000a FB1C     		adds	r3, r7, #3
 1469 000c 1A70     		strb	r2, [r3]
 548:Middlewares/ST/STM32_USB_Device_Library/Core/Src/usbd_core.c ****   /* Prevent unused arguments compilation warning */
 549:Middlewares/ST/STM32_USB_Device_Library/Core/Src/usbd_core.c ****   UNUSED(pdev);
 550:Middlewares/ST/STM32_USB_Device_Library/Core/Src/usbd_core.c ****   UNUSED(epnum);
ARM GAS  /tmp/ccKio8ov.s 			page 36


 551:Middlewares/ST/STM32_USB_Device_Library/Core/Src/usbd_core.c **** 
 552:Middlewares/ST/STM32_USB_Device_Library/Core/Src/usbd_core.c ****   return USBD_OK;
 1470              		.loc 1 552 0
 1471 000e 0023     		movs	r3, #0
 553:Middlewares/ST/STM32_USB_Device_Library/Core/Src/usbd_core.c **** }
 1472              		.loc 1 553 0
 1473 0010 1800     		movs	r0, r3
 1474 0012 BD46     		mov	sp, r7
 1475 0014 02B0     		add	sp, sp, #8
 1476              		@ sp needed
 1477 0016 80BD     		pop	{r7, pc}
 1478              		.cfi_endproc
 1479              	.LFE54:
 1481              		.section	.text.USBD_LL_DevConnected,"ax",%progbits
 1482              		.align	1
 1483              		.global	USBD_LL_DevConnected
 1484              		.syntax unified
 1485              		.code	16
 1486              		.thumb_func
 1487              		.fpu softvfp
 1489              	USBD_LL_DevConnected:
 1490              	.LFB55:
 554:Middlewares/ST/STM32_USB_Device_Library/Core/Src/usbd_core.c **** 
 555:Middlewares/ST/STM32_USB_Device_Library/Core/Src/usbd_core.c **** /**
 556:Middlewares/ST/STM32_USB_Device_Library/Core/Src/usbd_core.c **** * @brief  USBD_DevConnected
 557:Middlewares/ST/STM32_USB_Device_Library/Core/Src/usbd_core.c **** *         Handle device connection event
 558:Middlewares/ST/STM32_USB_Device_Library/Core/Src/usbd_core.c **** * @param  pdev: device instance
 559:Middlewares/ST/STM32_USB_Device_Library/Core/Src/usbd_core.c **** * @retval status
 560:Middlewares/ST/STM32_USB_Device_Library/Core/Src/usbd_core.c **** */
 561:Middlewares/ST/STM32_USB_Device_Library/Core/Src/usbd_core.c **** USBD_StatusTypeDef USBD_LL_DevConnected(USBD_HandleTypeDef  *pdev)
 562:Middlewares/ST/STM32_USB_Device_Library/Core/Src/usbd_core.c **** {
 1491              		.loc 1 562 0
 1492              		.cfi_startproc
 1493              		@ args = 0, pretend = 0, frame = 8
 1494              		@ frame_needed = 1, uses_anonymous_args = 0
 1495 0000 80B5     		push	{r7, lr}
 1496              	.LCFI54:
 1497              		.cfi_def_cfa_offset 8
 1498              		.cfi_offset 7, -8
 1499              		.cfi_offset 14, -4
 1500 0002 82B0     		sub	sp, sp, #8
 1501              	.LCFI55:
 1502              		.cfi_def_cfa_offset 16
 1503 0004 00AF     		add	r7, sp, #0
 1504              	.LCFI56:
 1505              		.cfi_def_cfa_register 7
 1506 0006 7860     		str	r0, [r7, #4]
 563:Middlewares/ST/STM32_USB_Device_Library/Core/Src/usbd_core.c ****   /* Prevent unused argument compilation warning */
 564:Middlewares/ST/STM32_USB_Device_Library/Core/Src/usbd_core.c ****   UNUSED(pdev);
 565:Middlewares/ST/STM32_USB_Device_Library/Core/Src/usbd_core.c **** 
 566:Middlewares/ST/STM32_USB_Device_Library/Core/Src/usbd_core.c ****   return USBD_OK;
 1507              		.loc 1 566 0
 1508 0008 0023     		movs	r3, #0
 567:Middlewares/ST/STM32_USB_Device_Library/Core/Src/usbd_core.c **** }
 1509              		.loc 1 567 0
 1510 000a 1800     		movs	r0, r3
 1511 000c BD46     		mov	sp, r7
ARM GAS  /tmp/ccKio8ov.s 			page 37


 1512 000e 02B0     		add	sp, sp, #8
 1513              		@ sp needed
 1514 0010 80BD     		pop	{r7, pc}
 1515              		.cfi_endproc
 1516              	.LFE55:
 1518              		.section	.text.USBD_LL_DevDisconnected,"ax",%progbits
 1519              		.align	1
 1520              		.global	USBD_LL_DevDisconnected
 1521              		.syntax unified
 1522              		.code	16
 1523              		.thumb_func
 1524              		.fpu softvfp
 1526              	USBD_LL_DevDisconnected:
 1527              	.LFB56:
 568:Middlewares/ST/STM32_USB_Device_Library/Core/Src/usbd_core.c **** 
 569:Middlewares/ST/STM32_USB_Device_Library/Core/Src/usbd_core.c **** /**
 570:Middlewares/ST/STM32_USB_Device_Library/Core/Src/usbd_core.c **** * @brief  USBD_DevDisconnected
 571:Middlewares/ST/STM32_USB_Device_Library/Core/Src/usbd_core.c **** *         Handle device disconnection event
 572:Middlewares/ST/STM32_USB_Device_Library/Core/Src/usbd_core.c **** * @param  pdev: device instance
 573:Middlewares/ST/STM32_USB_Device_Library/Core/Src/usbd_core.c **** * @retval status
 574:Middlewares/ST/STM32_USB_Device_Library/Core/Src/usbd_core.c **** */
 575:Middlewares/ST/STM32_USB_Device_Library/Core/Src/usbd_core.c **** USBD_StatusTypeDef USBD_LL_DevDisconnected(USBD_HandleTypeDef  *pdev)
 576:Middlewares/ST/STM32_USB_Device_Library/Core/Src/usbd_core.c **** {
 1528              		.loc 1 576 0
 1529              		.cfi_startproc
 1530              		@ args = 0, pretend = 0, frame = 8
 1531              		@ frame_needed = 1, uses_anonymous_args = 0
 1532 0000 80B5     		push	{r7, lr}
 1533              	.LCFI57:
 1534              		.cfi_def_cfa_offset 8
 1535              		.cfi_offset 7, -8
 1536              		.cfi_offset 14, -4
 1537 0002 82B0     		sub	sp, sp, #8
 1538              	.LCFI58:
 1539              		.cfi_def_cfa_offset 16
 1540 0004 00AF     		add	r7, sp, #0
 1541              	.LCFI59:
 1542              		.cfi_def_cfa_register 7
 1543 0006 7860     		str	r0, [r7, #4]
 577:Middlewares/ST/STM32_USB_Device_Library/Core/Src/usbd_core.c ****   /* Free Class Resources */
 578:Middlewares/ST/STM32_USB_Device_Library/Core/Src/usbd_core.c ****   pdev->dev_state = USBD_STATE_DEFAULT;
 1544              		.loc 1 578 0
 1545 0008 7A68     		ldr	r2, [r7, #4]
 1546 000a 9D23     		movs	r3, #157
 1547 000c 9B00     		lsls	r3, r3, #2
 1548 000e 0121     		movs	r1, #1
 1549 0010 D154     		strb	r1, [r2, r3]
 579:Middlewares/ST/STM32_USB_Device_Library/Core/Src/usbd_core.c ****   pdev->pClass->DeInit(pdev, (uint8_t)pdev->dev_config);
 1550              		.loc 1 579 0
 1551 0012 7A68     		ldr	r2, [r7, #4]
 1552 0014 A323     		movs	r3, #163
 1553 0016 9B00     		lsls	r3, r3, #2
 1554 0018 D358     		ldr	r3, [r2, r3]
 1555 001a 5A68     		ldr	r2, [r3, #4]
 1556 001c 7B68     		ldr	r3, [r7, #4]
 1557 001e 5B68     		ldr	r3, [r3, #4]
 1558 0020 D9B2     		uxtb	r1, r3
ARM GAS  /tmp/ccKio8ov.s 			page 38


 1559 0022 7B68     		ldr	r3, [r7, #4]
 1560 0024 1800     		movs	r0, r3
 1561 0026 9047     		blx	r2
 1562              	.LVL11:
 580:Middlewares/ST/STM32_USB_Device_Library/Core/Src/usbd_core.c **** 
 581:Middlewares/ST/STM32_USB_Device_Library/Core/Src/usbd_core.c ****   return USBD_OK;
 1563              		.loc 1 581 0
 1564 0028 0023     		movs	r3, #0
 582:Middlewares/ST/STM32_USB_Device_Library/Core/Src/usbd_core.c **** }
 1565              		.loc 1 582 0
 1566 002a 1800     		movs	r0, r3
 1567 002c BD46     		mov	sp, r7
 1568 002e 02B0     		add	sp, sp, #8
 1569              		@ sp needed
 1570 0030 80BD     		pop	{r7, pc}
 1571              		.cfi_endproc
 1572              	.LFE56:
 1574              		.text
 1575              	.Letext0:
 1576              		.file 2 "/usr/include/newlib/machine/_default_types.h"
 1577              		.file 3 "/usr/include/newlib/sys/lock.h"
 1578              		.file 4 "/usr/include/newlib/sys/_types.h"
 1579              		.file 5 "/usr/lib/gcc/arm-none-eabi/6.3.1/include/stddef.h"
 1580              		.file 6 "/usr/include/newlib/sys/reent.h"
 1581              		.file 7 "/usr/include/newlib/sys/_stdint.h"
 1582              		.file 8 "/usr/include/newlib/stdlib.h"
 1583              		.file 9 "Drivers/CMSIS/Device/ST/STM32L0xx/Include/system_stm32l0xx.h"
 1584              		.file 10 "Drivers/STM32L0xx_HAL_Driver/Inc/stm32l0xx_hal.h"
 1585              		.file 11 "Middlewares/ST/STM32_USB_Device_Library/Core/Inc/usbd_def.h"
ARM GAS  /tmp/ccKio8ov.s 			page 39


DEFINED SYMBOLS
                            *ABS*:0000000000000000 usbd_core.c
     /tmp/ccKio8ov.s:16     .text.USBD_Init:0000000000000000 $t
     /tmp/ccKio8ov.s:23     .text.USBD_Init:0000000000000000 USBD_Init
     /tmp/ccKio8ov.s:106    .text.USBD_DeInit:0000000000000000 $t
     /tmp/ccKio8ov.s:113    .text.USBD_DeInit:0000000000000000 USBD_DeInit
     /tmp/ccKio8ov.s:170    .text.USBD_RegisterClass:0000000000000000 $t
     /tmp/ccKio8ov.s:177    .text.USBD_RegisterClass:0000000000000000 USBD_RegisterClass
     /tmp/ccKio8ov.s:238    .text.USBD_Start:0000000000000000 $t
     /tmp/ccKio8ov.s:245    .text.USBD_Start:0000000000000000 USBD_Start
     /tmp/ccKio8ov.s:279    .text.USBD_Stop:0000000000000000 $t
     /tmp/ccKio8ov.s:286    .text.USBD_Stop:0000000000000000 USBD_Stop
     /tmp/ccKio8ov.s:333    .text.USBD_RunTestMode:0000000000000000 $t
     /tmp/ccKio8ov.s:340    .text.USBD_RunTestMode:0000000000000000 USBD_RunTestMode
     /tmp/ccKio8ov.s:370    .text.USBD_SetClassConfig:0000000000000000 $t
     /tmp/ccKio8ov.s:377    .text.USBD_SetClassConfig:0000000000000000 USBD_SetClassConfig
     /tmp/ccKio8ov.s:444    .text.USBD_ClrClassConfig:0000000000000000 $t
     /tmp/ccKio8ov.s:451    .text.USBD_ClrClassConfig:0000000000000000 USBD_ClrClassConfig
     /tmp/ccKio8ov.s:496    .text.USBD_LL_SetupStage:0000000000000000 $t
     /tmp/ccKio8ov.s:503    .text.USBD_LL_SetupStage:0000000000000000 USBD_LL_SetupStage
     /tmp/ccKio8ov.s:624    .text.USBD_LL_SetupStage:00000000000000b4 $d
     /tmp/ccKio8ov.s:629    .text.USBD_LL_DataOutStage:0000000000000000 $t
     /tmp/ccKio8ov.s:636    .text.USBD_LL_DataOutStage:0000000000000000 USBD_LL_DataOutStage
     /tmp/ccKio8ov.s:822    .text.USBD_LL_DataInStage:0000000000000000 $t
     /tmp/ccKio8ov.s:829    .text.USBD_LL_DataInStage:0000000000000000 USBD_LL_DataInStage
     /tmp/ccKio8ov.s:1078   .text.USBD_LL_Reset:0000000000000000 $t
     /tmp/ccKio8ov.s:1085   .text.USBD_LL_Reset:0000000000000000 USBD_LL_Reset
     /tmp/ccKio8ov.s:1190   .text.USBD_LL_SetSpeed:0000000000000000 $t
     /tmp/ccKio8ov.s:1197   .text.USBD_LL_SetSpeed:0000000000000000 USBD_LL_SetSpeed
     /tmp/ccKio8ov.s:1235   .text.USBD_LL_Suspend:0000000000000000 $t
     /tmp/ccKio8ov.s:1242   .text.USBD_LL_Suspend:0000000000000000 USBD_LL_Suspend
     /tmp/ccKio8ov.s:1285   .text.USBD_LL_Suspend:000000000000002c $d
     /tmp/ccKio8ov.s:1290   .text.USBD_LL_Resume:0000000000000000 $t
     /tmp/ccKio8ov.s:1297   .text.USBD_LL_Resume:0000000000000000 USBD_LL_Resume
     /tmp/ccKio8ov.s:1334   .text.USBD_LL_Resume:0000000000000020 $d
     /tmp/ccKio8ov.s:1339   .text.USBD_LL_SOF:0000000000000000 $t
     /tmp/ccKio8ov.s:1346   .text.USBD_LL_SOF:0000000000000000 USBD_LL_SOF
     /tmp/ccKio8ov.s:1402   .text.USBD_LL_IsoINIncomplete:0000000000000000 $t
     /tmp/ccKio8ov.s:1409   .text.USBD_LL_IsoINIncomplete:0000000000000000 USBD_LL_IsoINIncomplete
     /tmp/ccKio8ov.s:1442   .text.USBD_LL_IsoOUTIncomplete:0000000000000000 $t
     /tmp/ccKio8ov.s:1449   .text.USBD_LL_IsoOUTIncomplete:0000000000000000 USBD_LL_IsoOUTIncomplete
     /tmp/ccKio8ov.s:1482   .text.USBD_LL_DevConnected:0000000000000000 $t
     /tmp/ccKio8ov.s:1489   .text.USBD_LL_DevConnected:0000000000000000 USBD_LL_DevConnected
     /tmp/ccKio8ov.s:1519   .text.USBD_LL_DevDisconnected:0000000000000000 $t
     /tmp/ccKio8ov.s:1526   .text.USBD_LL_DevDisconnected:0000000000000000 USBD_LL_DevDisconnected
                     .debug_frame:0000000000000010 $d

UNDEFINED SYMBOLS
USBD_LL_Init
USBD_LL_Stop
USBD_LL_DeInit
USBD_LL_Start
USBD_ParseSetupRequest
USBD_StdDevReq
USBD_StdItfReq
USBD_StdEPReq
USBD_LL_StallEP
ARM GAS  /tmp/ccKio8ov.s 			page 40


USBD_CtlContinueRx
USBD_CtlSendStatus
__aeabi_uidivmod
USBD_CtlContinueSendData
USBD_LL_PrepareReceive
USBD_CtlReceiveStatus
USBD_LL_OpenEP
